{
  "address": "0xad146179F3c58053eAcE57C9fae334128cBA347F",
  "abi": [
    {
      "inputs": [
        {
          "internalType": "contract IChromaticMarketFactory",
          "name": "_factory",
          "type": "address"
        },
        {
          "internalType": "contract IVaultEarningDistributor",
          "name": "_earningDistributor",
          "type": "address"
        }
      ],
      "stateMutability": "nonpayable",
      "type": "constructor"
    },
    {
      "inputs": [],
      "name": "NotEnoughBalance",
      "type": "error"
    },
    {
      "inputs": [],
      "name": "NotEnoughFeePaid",
      "type": "error"
    },
    {
      "inputs": [],
      "name": "OnlyAccessableByDao",
      "type": "error"
    },
    {
      "inputs": [],
      "name": "OnlyAccessableByEarningDistributor",
      "type": "error"
    },
    {
      "inputs": [],
      "name": "OnlyAccessableByFactoryOrDao",
      "type": "error"
    },
    {
      "inputs": [],
      "name": "OnlyAccessableByMarket",
      "type": "error"
    },
    {
      "anonymous": false,
      "inputs": [
        {
          "indexed": true,
          "internalType": "address",
          "name": "sender",
          "type": "address"
        },
        {
          "indexed": true,
          "internalType": "address",
          "name": "recipient",
          "type": "address"
        },
        {
          "indexed": true,
          "internalType": "uint256",
          "name": "amount",
          "type": "uint256"
        },
        {
          "indexed": false,
          "internalType": "uint256",
          "name": "paid",
          "type": "uint256"
        },
        {
          "indexed": false,
          "internalType": "uint256",
          "name": "paidToTakerPool",
          "type": "uint256"
        },
        {
          "indexed": false,
          "internalType": "uint256",
          "name": "paidToMakerPool",
          "type": "uint256"
        }
      ],
      "name": "FlashLoan",
      "type": "event"
    },
    {
      "anonymous": false,
      "inputs": [
        {
          "indexed": true,
          "internalType": "address",
          "name": "token",
          "type": "address"
        },
        {
          "indexed": true,
          "internalType": "uint256",
          "name": "earning",
          "type": "uint256"
        },
        {
          "indexed": true,
          "internalType": "uint256",
          "name": "usedKeeperFee",
          "type": "uint256"
        }
      ],
      "name": "MakerEarningDistributed",
      "type": "event"
    },
    {
      "anonymous": false,
      "inputs": [
        {
          "indexed": true,
          "internalType": "address",
          "name": "market",
          "type": "address"
        },
        {
          "indexed": false,
          "internalType": "uint256",
          "name": "earning",
          "type": "uint256"
        }
      ],
      "name": "MarketEarningAccumulated",
      "type": "event"
    },
    {
      "anonymous": false,
      "inputs": [
        {
          "indexed": true,
          "internalType": "address",
          "name": "market",
          "type": "address"
        },
        {
          "indexed": true,
          "internalType": "uint256",
          "name": "earning",
          "type": "uint256"
        },
        {
          "indexed": true,
          "internalType": "uint256",
          "name": "usedKeeperFee",
          "type": "uint256"
        },
        {
          "indexed": false,
          "internalType": "uint256",
          "name": "marketBalance",
          "type": "uint256"
        }
      ],
      "name": "MarketEarningDistributed",
      "type": "event"
    },
    {
      "anonymous": false,
      "inputs": [
        {
          "indexed": true,
          "internalType": "address",
          "name": "market",
          "type": "address"
        },
        {
          "indexed": true,
          "internalType": "uint256",
          "name": "amount",
          "type": "uint256"
        }
      ],
      "name": "OnAddLiquidity",
      "type": "event"
    },
    {
      "anonymous": false,
      "inputs": [
        {
          "indexed": true,
          "internalType": "address",
          "name": "market",
          "type": "address"
        },
        {
          "indexed": true,
          "internalType": "uint256",
          "name": "positionId",
          "type": "uint256"
        },
        {
          "indexed": true,
          "internalType": "address",
          "name": "recipient",
          "type": "address"
        },
        {
          "indexed": false,
          "internalType": "uint256",
          "name": "takerMargin",
          "type": "uint256"
        },
        {
          "indexed": false,
          "internalType": "uint256",
          "name": "settlementAmount",
          "type": "uint256"
        }
      ],
      "name": "OnClaimPosition",
      "type": "event"
    },
    {
      "anonymous": false,
      "inputs": [
        {
          "indexed": true,
          "internalType": "address",
          "name": "market",
          "type": "address"
        },
        {
          "indexed": true,
          "internalType": "uint256",
          "name": "positionId",
          "type": "uint256"
        },
        {
          "indexed": true,
          "internalType": "uint256",
          "name": "takerMargin",
          "type": "uint256"
        },
        {
          "indexed": false,
          "internalType": "uint256",
          "name": "tradingFee",
          "type": "uint256"
        },
        {
          "indexed": false,
          "internalType": "uint256",
          "name": "protocolFee",
          "type": "uint256"
        }
      ],
      "name": "OnOpenPosition",
      "type": "event"
    },
    {
      "anonymous": false,
      "inputs": [
        {
          "indexed": true,
          "internalType": "address",
          "name": "market",
          "type": "address"
        },
        {
          "indexed": true,
          "internalType": "uint256",
          "name": "pendingDeposit",
          "type": "uint256"
        },
        {
          "indexed": true,
          "internalType": "uint256",
          "name": "pendingWithdrawal",
          "type": "uint256"
        }
      ],
      "name": "OnSettlePendingLiquidity",
      "type": "event"
    },
    {
      "anonymous": false,
      "inputs": [
        {
          "indexed": true,
          "internalType": "address",
          "name": "market",
          "type": "address"
        },
        {
          "indexed": true,
          "internalType": "uint256",
          "name": "amount",
          "type": "uint256"
        },
        {
          "indexed": true,
          "internalType": "address",
          "name": "recipient",
          "type": "address"
        }
      ],
      "name": "OnWithdrawLiquidity",
      "type": "event"
    },
    {
      "anonymous": false,
      "inputs": [
        {
          "indexed": true,
          "internalType": "uint256",
          "name": "fee",
          "type": "uint256"
        },
        {
          "indexed": true,
          "internalType": "uint256",
          "name": "amount",
          "type": "uint256"
        }
      ],
      "name": "TransferKeeperFee",
      "type": "event"
    },
    {
      "anonymous": false,
      "inputs": [
        {
          "indexed": true,
          "internalType": "address",
          "name": "market",
          "type": "address"
        },
        {
          "indexed": true,
          "internalType": "uint256",
          "name": "fee",
          "type": "uint256"
        },
        {
          "indexed": true,
          "internalType": "uint256",
          "name": "amount",
          "type": "uint256"
        }
      ],
      "name": "TransferKeeperFee",
      "type": "event"
    },
    {
      "anonymous": false,
      "inputs": [
        {
          "indexed": true,
          "internalType": "address",
          "name": "market",
          "type": "address"
        },
        {
          "indexed": true,
          "internalType": "uint256",
          "name": "positionId",
          "type": "uint256"
        },
        {
          "indexed": true,
          "internalType": "uint256",
          "name": "amount",
          "type": "uint256"
        }
      ],
      "name": "TransferProtocolFee",
      "type": "event"
    },
    {
      "anonymous": false,
      "inputs": [
        {
          "indexed": true,
          "internalType": "address",
          "name": "vaultEarningDistributor",
          "type": "address"
        },
        {
          "indexed": true,
          "internalType": "address",
          "name": "oldVaultEarningDistributor",
          "type": "address"
        }
      ],
      "name": "VaultEarningDistributorSet",
      "type": "event"
    },
    {
      "inputs": [
        {
          "internalType": "address",
          "name": "token",
          "type": "address"
        }
      ],
      "name": "cancelMakerEarningDistributionTask",
      "outputs": [],
      "stateMutability": "nonpayable",
      "type": "function"
    },
    {
      "inputs": [
        {
          "internalType": "address",
          "name": "market",
          "type": "address"
        }
      ],
      "name": "cancelMarketEarningDistributionTask",
      "outputs": [],
      "stateMutability": "nonpayable",
      "type": "function"
    },
    {
      "inputs": [
        {
          "internalType": "address",
          "name": "token",
          "type": "address"
        }
      ],
      "name": "createMakerEarningDistributionTask",
      "outputs": [],
      "stateMutability": "nonpayable",
      "type": "function"
    },
    {
      "inputs": [
        {
          "internalType": "address",
          "name": "market",
          "type": "address"
        }
      ],
      "name": "createMarketEarningDistributionTask",
      "outputs": [],
      "stateMutability": "nonpayable",
      "type": "function"
    },
    {
      "inputs": [
        {
          "internalType": "address",
          "name": "token",
          "type": "address"
        },
        {
          "internalType": "uint256",
          "name": "fee",
          "type": "uint256"
        },
        {
          "internalType": "address",
          "name": "keeper",
          "type": "address"
        }
      ],
      "name": "distributeMakerEarning",
      "outputs": [],
      "stateMutability": "nonpayable",
      "type": "function"
    },
    {
      "inputs": [
        {
          "internalType": "address",
          "name": "market",
          "type": "address"
        },
        {
          "internalType": "uint256",
          "name": "fee",
          "type": "uint256"
        },
        {
          "internalType": "address",
          "name": "keeper",
          "type": "address"
        }
      ],
      "name": "distributeMarketEarning",
      "outputs": [],
      "stateMutability": "nonpayable",
      "type": "function"
    },
    {
      "inputs": [],
      "name": "earningDistributor",
      "outputs": [
        {
          "internalType": "contract IVaultEarningDistributor",
          "name": "",
          "type": "address"
        }
      ],
      "stateMutability": "view",
      "type": "function"
    },
    {
      "inputs": [],
      "name": "factory",
      "outputs": [
        {
          "internalType": "contract IChromaticMarketFactory",
          "name": "",
          "type": "address"
        }
      ],
      "stateMutability": "view",
      "type": "function"
    },
    {
      "inputs": [
        {
          "internalType": "address",
          "name": "token",
          "type": "address"
        },
        {
          "internalType": "uint256",
          "name": "amount",
          "type": "uint256"
        },
        {
          "internalType": "address",
          "name": "recipient",
          "type": "address"
        },
        {
          "internalType": "bytes",
          "name": "data",
          "type": "bytes"
        }
      ],
      "name": "flashLoan",
      "outputs": [],
      "stateMutability": "nonpayable",
      "type": "function"
    },
    {
      "inputs": [
        {
          "internalType": "address",
          "name": "market",
          "type": "address"
        },
        {
          "internalType": "address",
          "name": "settlementToken",
          "type": "address"
        },
        {
          "internalType": "uint256",
          "name": "binBalance",
          "type": "uint256"
        }
      ],
      "name": "getPendingBinShare",
      "outputs": [
        {
          "internalType": "uint256",
          "name": "",
          "type": "uint256"
        }
      ],
      "stateMutability": "view",
      "type": "function"
    },
    {
      "inputs": [
        {
          "internalType": "address",
          "name": "",
          "type": "address"
        }
      ],
      "name": "makerBalances",
      "outputs": [
        {
          "internalType": "uint256",
          "name": "",
          "type": "uint256"
        }
      ],
      "stateMutability": "view",
      "type": "function"
    },
    {
      "inputs": [
        {
          "internalType": "address",
          "name": "",
          "type": "address"
        }
      ],
      "name": "makerMarketBalances",
      "outputs": [
        {
          "internalType": "uint256",
          "name": "",
          "type": "uint256"
        }
      ],
      "stateMutability": "view",
      "type": "function"
    },
    {
      "inputs": [
        {
          "internalType": "contract IVaultEarningDistributor",
          "name": "oldEarningDistributor",
          "type": "address"
        }
      ],
      "name": "migrateEarningDistributionTasks",
      "outputs": [],
      "stateMutability": "nonpayable",
      "type": "function"
    },
    {
      "inputs": [
        {
          "internalType": "address",
          "name": "settlementToken",
          "type": "address"
        },
        {
          "internalType": "uint256",
          "name": "amount",
          "type": "uint256"
        }
      ],
      "name": "onAddLiquidity",
      "outputs": [],
      "stateMutability": "nonpayable",
      "type": "function"
    },
    {
      "inputs": [
        {
          "internalType": "address",
          "name": "settlementToken",
          "type": "address"
        },
        {
          "internalType": "uint256",
          "name": "positionId",
          "type": "uint256"
        },
        {
          "internalType": "address",
          "name": "recipient",
          "type": "address"
        },
        {
          "internalType": "uint256",
          "name": "takerMargin",
          "type": "uint256"
        },
        {
          "internalType": "uint256",
          "name": "settlementAmount",
          "type": "uint256"
        }
      ],
      "name": "onClaimPosition",
      "outputs": [],
      "stateMutability": "nonpayable",
      "type": "function"
    },
    {
      "inputs": [
        {
          "internalType": "address",
          "name": "settlementToken",
          "type": "address"
        },
        {
          "internalType": "uint256",
          "name": "positionId",
          "type": "uint256"
        },
        {
          "internalType": "uint256",
          "name": "takerMargin",
          "type": "uint256"
        },
        {
          "internalType": "uint256",
          "name": "tradingFee",
          "type": "uint256"
        },
        {
          "internalType": "uint256",
          "name": "protocolFee",
          "type": "uint256"
        }
      ],
      "name": "onOpenPosition",
      "outputs": [],
      "stateMutability": "nonpayable",
      "type": "function"
    },
    {
      "inputs": [
        {
          "internalType": "address",
          "name": "settlementToken",
          "type": "address"
        },
        {
          "internalType": "uint256",
          "name": "pendingDeposit",
          "type": "uint256"
        },
        {
          "internalType": "uint256",
          "name": "pendingWithdrawal",
          "type": "uint256"
        }
      ],
      "name": "onSettlePendingLiquidity",
      "outputs": [],
      "stateMutability": "nonpayable",
      "type": "function"
    },
    {
      "inputs": [
        {
          "internalType": "address",
          "name": "settlementToken",
          "type": "address"
        },
        {
          "internalType": "address",
          "name": "recipient",
          "type": "address"
        },
        {
          "internalType": "uint256",
          "name": "amount",
          "type": "uint256"
        }
      ],
      "name": "onWithdrawLiquidity",
      "outputs": [],
      "stateMutability": "nonpayable",
      "type": "function"
    },
    {
      "inputs": [
        {
          "internalType": "address",
          "name": "",
          "type": "address"
        }
      ],
      "name": "pendingDeposits",
      "outputs": [
        {
          "internalType": "uint256",
          "name": "",
          "type": "uint256"
        }
      ],
      "stateMutability": "view",
      "type": "function"
    },
    {
      "inputs": [
        {
          "internalType": "address",
          "name": "",
          "type": "address"
        }
      ],
      "name": "pendingMakerEarnings",
      "outputs": [
        {
          "internalType": "uint256",
          "name": "",
          "type": "uint256"
        }
      ],
      "stateMutability": "view",
      "type": "function"
    },
    {
      "inputs": [
        {
          "internalType": "address",
          "name": "",
          "type": "address"
        }
      ],
      "name": "pendingMarketEarnings",
      "outputs": [
        {
          "internalType": "uint256",
          "name": "",
          "type": "uint256"
        }
      ],
      "stateMutability": "view",
      "type": "function"
    },
    {
      "inputs": [
        {
          "internalType": "address",
          "name": "",
          "type": "address"
        }
      ],
      "name": "pendingWithdrawals",
      "outputs": [
        {
          "internalType": "uint256",
          "name": "",
          "type": "uint256"
        }
      ],
      "stateMutability": "view",
      "type": "function"
    },
    {
      "inputs": [
        {
          "internalType": "address",
          "name": "_earningDistributor",
          "type": "address"
        }
      ],
      "name": "setVaultEarningDistributor",
      "outputs": [],
      "stateMutability": "nonpayable",
      "type": "function"
    },
    {
      "inputs": [
        {
          "internalType": "address",
          "name": "",
          "type": "address"
        }
      ],
      "name": "takerBalances",
      "outputs": [
        {
          "internalType": "uint256",
          "name": "",
          "type": "uint256"
        }
      ],
      "stateMutability": "view",
      "type": "function"
    },
    {
      "inputs": [
        {
          "internalType": "address",
          "name": "",
          "type": "address"
        }
      ],
      "name": "takerMarketBalances",
      "outputs": [
        {
          "internalType": "uint256",
          "name": "",
          "type": "uint256"
        }
      ],
      "stateMutability": "view",
      "type": "function"
    },
    {
      "inputs": [
        {
          "internalType": "address",
          "name": "settlementToken",
          "type": "address"
        },
        {
          "internalType": "address",
          "name": "keeper",
          "type": "address"
        },
        {
          "internalType": "uint256",
          "name": "fee",
          "type": "uint256"
        },
        {
          "internalType": "uint256",
          "name": "margin",
          "type": "uint256"
        }
      ],
      "name": "transferKeeperFee",
      "outputs": [
        {
          "internalType": "uint256",
          "name": "usedFee",
          "type": "uint256"
        }
      ],
      "stateMutability": "nonpayable",
      "type": "function"
    }
  ],
  "transactionHash": "0x1853a33f6a2ab6b478ba84ceebf3d68c811b869889b8072fa95c09f315ad2f0c",
  "args": [
    "0xd012cA4Ac7E08819D2fD0a9cc3C569e48ffa8482",
    "0xC34C12a6290F5c6Dd2926222C8B06Ea31888139A"
  ],
  "numDeployments": 4,
  "solcInputHash": "40f30b43e578be04db1fcda481773844",
  "bytecode": "0x60a06040523480156200001157600080fd5b50604051620036e5380380620036e583398101604081905262000034916200007b565b600160008190556001600160a01b0392831660805280546001600160a01b03191691909216179055620000ba565b6001600160a01b03811681146200007857600080fd5b50565b600080604083850312156200008f57600080fd5b82516200009c8162000062565b6020840151909250620000af8162000062565b809150509250929050565b60805161358362000162600039600081816103bc015281816106800152818161079d015281816109b201528181610cf301528181610d1e01528181610f7e0152818161138d015281816113b8015281816115240152818161154f01528181611c5201528181611ece01528181611ff00152818161201b01528181612216015281816126110152818161271a015281816127c901528181612a400152612c5001526135836000f3fe608060405234801561001057600080fd5b50600436106101ae5760003560e01c806373574596116100ee578063c440a65c11610097578063cbd88db111610071578063cbd88db1146103f1578063d02f1b3014610411578063eb3349b914610424578063f3f437031461044457600080fd5b8063c440a65c146103a4578063c45a0155146103b7578063c4d39eee146103de57600080fd5b80638f7b59fe116100c85780638f7b59fe146103515780639b96cc1714610371578063adf51de11461039157600080fd5b806373574596146102e657806381ebafee1461032b5780638b4141171461033e57600080fd5b80634d4edc671161015b578063637414ad11610135578063637414ad1461029a57806367130c8c146102ad578063687d5dd4146102c057806371f8122b146102d357600080fd5b80634d4edc67146102475780634e82c4b7146102675780635372d35c1461027a57600080fd5b80632fe2fa251161018c5780632fe2fa251461020e578063342de3be146102215780634818c2fe1461023457600080fd5b80630963c61a146101b357806310235ad9146101e6578063113217fc146101fb575b600080fd5b6101d36101c1366004612f90565b60066020526000908152604090205481565b6040519081526020015b60405180910390f35b6101f96101f4366004612fad565b610464565b005b6101f9610209366004612ff1565b6105d8565b6101f961021c366004612f90565b610676565b6101d361022f36600461301d565b610bd2565b6101f9610242366004612f90565b610cd3565b6101d3610255366004612f90565b60026020526000908152604090205481565b6101d3610275366004613063565b610ea2565b6101d3610288366004612f90565b60076020526000908152604090205481565b6101f96102a8366004612f90565b610f74565b6101f96102bb3660046130a4565b611145565b6101f96102ce366004612f90565b61136d565b6101f96102e1366004612f90565b611504565b6001546103069073ffffffffffffffffffffffffffffffffffffffff1681565b60405173ffffffffffffffffffffffffffffffffffffffff90911681526020016101dd565b6101f96103393660046130f6565b61169b565b6101f961034c366004613138565b611977565b6101d361035f366004612f90565b60046020526000908152604090205481565b6101d361037f366004612f90565b60036020526000908152604090205481565b6101f961039f36600461316d565b611aea565b6101f96103b2366004612f90565b611fd0565b6103067f000000000000000000000000000000000000000000000000000000000000000081565b6101f96103ec3660046130f6565b612167565b6101d36103ff366004612f90565b60056020526000908152604090205481565b6101f961041f366004613063565b6124bc565b6101d3610432366004612f90565b60086020526000908152604090205481565b6101d3610452366004612f90565b60096020526000908152604090205481565b61046c61256b565b6104746125e3565b73ffffffffffffffffffffffffffffffffffffffff85166000908152600360205260408120805433928692916104ab90849061323b565b909155505073ffffffffffffffffffffffffffffffffffffffff8116600090815260056020526040812080548692906104e590849061323b565b909155505073ffffffffffffffffffffffffffffffffffffffff86166000908152600260205260408120805485929061051f90849061323b565b909155505073ffffffffffffffffffffffffffffffffffffffff81166000908152600460205260408120805485929061055990849061323b565b9091555061056b9050818787856126c9565b83858273ffffffffffffffffffffffffffffffffffffffff167f55d8d1757457440c2753c42acc4a14b6860f25976b2635c2ea24ac344bfe730f86866040516105be929190918252602082015260400190565b60405180910390a4506105d16001600055565b5050505050565b6105e061256b565b6105e86125e3565b73ffffffffffffffffffffffffffffffffffffffff821660009081526008602052604081208054339284929161061f90849061323b565b9091555050604051829073ffffffffffffffffffffffffffffffffffffffff8316907f1bf8e13daf39d6f603c0f4047a0719c50094093eddb15b3dd26c71ec7e141d0090600090a3506106726001600055565b5050565b61067e61256b565b7f000000000000000000000000000000000000000000000000000000000000000073ffffffffffffffffffffffffffffffffffffffff16634162169f6040518163ffffffff1660e01b8152600401602060405180830381865afa1580156106e9573d6000803e3d6000fd5b505050506040513d601f19601f8201168201806040525081019061070d919061325e565b73ffffffffffffffffffffffffffffffffffffffff163373ffffffffffffffffffffffffffffffffffffffff1614610771576040517f808ca14f00000000000000000000000000000000000000000000000000000000815260040160405180910390fd5b60015473ffffffffffffffffffffffffffffffffffffffff9081169082160361079957600080fd5b60007f000000000000000000000000000000000000000000000000000000000000000073ffffffffffffffffffffffffffffffffffffffff1663ec2c90166040518163ffffffff1660e01b8152600401600060405180830381865afa158015610806573d6000803e3d6000fd5b505050506040513d6000823e601f3d9081017fffffffffffffffffffffffffffffffffffffffffffffffffffffffffffffffe016820160405261084c91908101906132aa565b905060005b81518110156109ad578273ffffffffffffffffffffffffffffffffffffffff16634818c2fe8383815181106108885761088861338d565b60200260200101516040518263ffffffff1660e01b81526004016108c8919073ffffffffffffffffffffffffffffffffffffffff91909116815260200190565b600060405180830381600087803b1580156108e257600080fd5b505af11580156108f6573d6000803e3d6000fd5b5050600154845173ffffffffffffffffffffffffffffffffffffffff909116925063c440a65c91508490849081106109305761093061338d565b60200260200101516040518263ffffffff1660e01b8152600401610970919073ffffffffffffffffffffffffffffffffffffffff91909116815260200190565b600060405180830381600087803b15801561098a57600080fd5b505af115801561099e573d6000803e3d6000fd5b50505050806001019050610851565b5060007f000000000000000000000000000000000000000000000000000000000000000073ffffffffffffffffffffffffffffffffffffffff166306216c376040518163ffffffff1660e01b8152600401600060405180830381865afa158015610a1b573d6000803e3d6000fd5b505050506040513d6000823e601f3d9081017fffffffffffffffffffffffffffffffffffffffffffffffffffffffffffffffe0168201604052610a6191908101906132aa565b905060005b8151811015610bc2578373ffffffffffffffffffffffffffffffffffffffff166371f8122b838381518110610a9d57610a9d61338d565b60200260200101516040518263ffffffff1660e01b8152600401610add919073ffffffffffffffffffffffffffffffffffffffff91909116815260200190565b600060405180830381600087803b158015610af757600080fd5b505af1158015610b0b573d6000803e3d6000fd5b5050600154845173ffffffffffffffffffffffffffffffffffffffff909116925063687d5dd49150849084908110610b4557610b4561338d565b60200260200101516040518263ffffffff1660e01b8152600401610b85919073ffffffffffffffffffffffffffffffffffffffff91909116815260200190565b600060405180830381600087803b158015610b9f57600080fd5b505af1158015610bb3573d6000803e3d6000fd5b50505050806001019050610a66565b505050610bcf6001600055565b50565b6000610bdc61256b565b610be46125e3565b82600003610bf457506000610cc1565b33610c01868686866127b3565b73ffffffffffffffffffffffffffffffffffffffff8716600090815260036020526040812080549294508492909190610c3b9084906133bc565b909155505073ffffffffffffffffffffffffffffffffffffffff811660009081526005602052604081208054849290610c759084906133bc565b90915550506040518290859073ffffffffffffffffffffffffffffffffffffffff8416907f31332ac845265ba9db701f457b8eb917667355d10a1f312e95622f27939d166c90600090a4505b610ccb6001600055565b949350505050565b610cdb61256b565b3373ffffffffffffffffffffffffffffffffffffffff7f00000000000000000000000000000000000000000000000000000000000000001614801590610ddb57507f000000000000000000000000000000000000000000000000000000000000000073ffffffffffffffffffffffffffffffffffffffff16634162169f6040518163ffffffff1660e01b8152600401602060405180830381865afa158015610d87573d6000803e3d6000fd5b505050506040513d601f19601f82011682018060405250810190610dab919061325e565b73ffffffffffffffffffffffffffffffffffffffff163373ffffffffffffffffffffffffffffffffffffffff1614155b15610e12576040517f6119ddb900000000000000000000000000000000000000000000000000000000815260040160405180910390fd5b6001546040517f4818c2fe00000000000000000000000000000000000000000000000000000000815273ffffffffffffffffffffffffffffffffffffffff838116600483015290911690634818c2fe906024015b600060405180830381600087803b158015610e8057600080fd5b505af1158015610e94573d6000803e3d6000fd5b50505050610bcf6001600055565b73ffffffffffffffffffffffffffffffffffffffff808316600090815260026020908152604080832054938716835260049091528120549091908015610f1a5773ffffffffffffffffffffffffffffffffffffffff8616600090815260076020526040902054610f15908583600161290e565b610f1d565b60005b8215610f5b5773ffffffffffffffffffffffffffffffffffffffff8616600090815260066020526040902054610f56908685600161290e565b610f5e565b60005b610f68919061323b565b925050505b9392505050565b610f7c61256b565b7f000000000000000000000000000000000000000000000000000000000000000073ffffffffffffffffffffffffffffffffffffffff16634162169f6040518163ffffffff1660e01b8152600401602060405180830381865afa158015610fe7573d6000803e3d6000fd5b505050506040513d601f19601f8201168201806040525081019061100b919061325e565b73ffffffffffffffffffffffffffffffffffffffff163373ffffffffffffffffffffffffffffffffffffffff161461106f576040517f808ca14f00000000000000000000000000000000000000000000000000000000815260040160405180910390fd5b73ffffffffffffffffffffffffffffffffffffffff811661108f57600080fd5b60015473ffffffffffffffffffffffffffffffffffffffff908116908216036110b757600080fd5b60015460405173ffffffffffffffffffffffffffffffffffffffff918216918316907f659609154f43db07621ef5a737c9b338c4818b88d41c6025f130d6eb05ed028b90600090a3600180547fffffffffffffffffffffffff00000000000000000000000000000000000000001673ffffffffffffffffffffffffffffffffffffffff831617815560005550565b61114d61256b565b6111556125e3565b73ffffffffffffffffffffffffffffffffffffffff851660009081526003602052604081208054339285929161118c9084906133bc565b909155505073ffffffffffffffffffffffffffffffffffffffff8116600090815260056020526040812080548592906111c69084906133bc565b90915550508282111561125f5760006111df84846133bc565b73ffffffffffffffffffffffffffffffffffffffff88166000908152600260205260408120805492935083929091906112199084906133bc565b909155505073ffffffffffffffffffffffffffffffffffffffff8216600090815260046020526040812080548392906112539084906133bc565b909155506112e6915050565b600061126b83856133bc565b73ffffffffffffffffffffffffffffffffffffffff88166000908152600260205260408120805492935083929091906112a590849061323b565b909155505073ffffffffffffffffffffffffffffffffffffffff8216600090815260046020526040812080548392906112df90849061323b565b9091555050505b8373ffffffffffffffffffffffffffffffffffffffff16858273ffffffffffffffffffffffffffffffffffffffff167f5f8026a5f3cf54454ad6e760ded9b50bc89ea13a2f7a000e996533be4f0664ec868660405161134f929190918252602082015260400190565b60405180910390a461136286858461296b565b506105d16001600055565b61137561256b565b3373ffffffffffffffffffffffffffffffffffffffff7f0000000000000000000000000000000000000000000000000000000000000000161480159061147557507f000000000000000000000000000000000000000000000000000000000000000073ffffffffffffffffffffffffffffffffffffffff16634162169f6040518163ffffffff1660e01b8152600401602060405180830381865afa158015611421573d6000803e3d6000fd5b505050506040513d601f19601f82011682018060405250810190611445919061325e565b73ffffffffffffffffffffffffffffffffffffffff163373ffffffffffffffffffffffffffffffffffffffff1614155b156114ac576040517f6119ddb900000000000000000000000000000000000000000000000000000000815260040160405180910390fd5b6001546040517f687d5dd400000000000000000000000000000000000000000000000000000000815273ffffffffffffffffffffffffffffffffffffffff83811660048301529091169063687d5dd490602401610e66565b61150c61256b565b3373ffffffffffffffffffffffffffffffffffffffff7f0000000000000000000000000000000000000000000000000000000000000000161480159061160c57507f000000000000000000000000000000000000000000000000000000000000000073ffffffffffffffffffffffffffffffffffffffff16634162169f6040518163ffffffff1660e01b8152600401602060405180830381865afa1580156115b8573d6000803e3d6000fd5b505050506040513d601f19601f820116820180604052508101906115dc919061325e565b73ffffffffffffffffffffffffffffffffffffffff163373ffffffffffffffffffffffffffffffffffffffff1614155b15611643576040517f6119ddb900000000000000000000000000000000000000000000000000000000815260040160405180910390fd5b6001546040517f71f8122b00000000000000000000000000000000000000000000000000000000815273ffffffffffffffffffffffffffffffffffffffff8381166004830152909116906371f8122b90602401610e66565b6116a361256b565b60015473ffffffffffffffffffffffffffffffffffffffff1633146116f4576040517f6d0340d700000000000000000000000000000000000000000000000000000000815260040160405180910390fd5b60008373ffffffffffffffffffffffffffffffffffffffff16637b9e618d6040518163ffffffff1660e01b8152600401602060405180830381865afa158015611741573d6000803e3d6000fd5b505050506040513d601f19601f82011682018060405250810190611765919061325e565b905061177184826129f8565b61177b5750611968565b73ffffffffffffffffffffffffffffffffffffffff84166000908152600760205260408120805490829055908481036117b55760006117c1565b6117c1838587856127b3565b905080858773ffffffffffffffffffffffffffffffffffffffff167f31332ac845265ba9db701f457b8eb917667355d10a1f312e95622f27939d166c60405160405180910390a4600061181482846133bc565b73ffffffffffffffffffffffffffffffffffffffff881660009081526004602052604081208054929350839161184a838561323b565b909155505073ffffffffffffffffffffffffffffffffffffffff85166000908152600260205260408120805484929061188490849061323b565b90915550506040517f28b5bd1e000000000000000000000000000000000000000000000000000000008152600481018390526024810182905273ffffffffffffffffffffffffffffffffffffffff8916906328b5bd1e90604401600060405180830381600087803b1580156118f857600080fd5b505af115801561190c573d6000803e3d6000fd5b5050505082848973ffffffffffffffffffffffffffffffffffffffff167fad1f1a056b9857eab5e447a17c2580435764d4219e831cd5bd9ecef30070c7278460405161195a91815260200190565b60405180910390a450505050505b6119726001600055565b505050565b61197f61256b565b6119876125e3565b73ffffffffffffffffffffffffffffffffffffffff83166000908152600860205260408120805433928592916119be9084906133bc565b909155505073ffffffffffffffffffffffffffffffffffffffff8416600090815260096020526040812080548492906119f890849061323b565b909155505073ffffffffffffffffffffffffffffffffffffffff84166000908152600260205260409020548290611a3090859061323b565b611a3a91906133bc565b73ffffffffffffffffffffffffffffffffffffffff8086166000908152600260209081526040808320949094559184168152600490915220548290611a8090859061323b565b611a8a91906133bc565b73ffffffffffffffffffffffffffffffffffffffff821660008181526004602052604080822093909355915184928692917ffe6f0208aa042f739ede2198851bf2945b80c1052fc2f1366e428faf83a4fa7c9190a4506119726001600055565b611af261256b565b6040517f70a0823100000000000000000000000000000000000000000000000000000000815230600482015260009073ffffffffffffffffffffffffffffffffffffffff8716906370a0823190602401602060405180830381865afa158015611b5f573d6000803e3d6000fd5b505050506040513d601f19601f82011682018060405250810190611b8391906133cf565b73ffffffffffffffffffffffffffffffffffffffff871660009081526009602090815260408083205460089092529091205491925090611bc390836133bc565b611bcd91906133bc565b851115611c06576040517fad3a8b9e00000000000000000000000000000000000000000000000000000000815260040160405180910390fd5b6040517f28abb76300000000000000000000000000000000000000000000000000000000815273ffffffffffffffffffffffffffffffffffffffff8781166004830152600091611cc9917f000000000000000000000000000000000000000000000000000000000000000016906328abb76390602401602060405180830381865afa158015611c99573d6000803e3d6000fd5b505050506040513d601f19601f82011682018060405250810190611cbd91906133cf565b8790612710600161290e565b9050611cd687868861296b565b6040517f47bc6a8e00000000000000000000000000000000000000000000000000000000815233906347bc6a8e90611d16908490889088906004016133e8565b600060405180830381600087803b158015611d3057600080fd5b505af1158015611d44573d6000803e3d6000fd5b50506040517f70a082310000000000000000000000000000000000000000000000000000000081523060048201526000925073ffffffffffffffffffffffffffffffffffffffff8a1691506370a0823190602401602060405180830381865afa158015611db5573d6000803e3d6000fd5b505050506040513d601f19601f82011682018060405250810190611dd991906133cf565b9050611de5828461323b565b811015611e1e576040517f3244470d00000000000000000000000000000000000000000000000000000000815260040160405180910390fd5b6000611e2a84836133bc565b73ffffffffffffffffffffffffffffffffffffffff8a1660009081526003602090815260408083205460029092528220549293509190611e7683611e6e848261323b565b869190612ade565b90506000611e8482866133bc565b90508115611f615773ffffffffffffffffffffffffffffffffffffffff8d1660009081526006602052604081208054839290611ec190849061323b565b92505081905550611f618d7f000000000000000000000000000000000000000000000000000000000000000073ffffffffffffffffffffffffffffffffffffffff166361d027b36040518163ffffffff1660e01b8152600401602060405180830381865afa158015611f37573d6000803e3d6000fd5b505050506040513d601f19601f82011682018060405250810190611f5b919061325e565b8461296b565b60408051868152602081018490529081018290528c9073ffffffffffffffffffffffffffffffffffffffff8d169033907f5b8f46461c1dd69fb968f1a003acee221ea3e19540e350233b612ddb43433b559060600160405180910390a450505050505050506105d16001600055565b611fd861256b565b3373ffffffffffffffffffffffffffffffffffffffff7f000000000000000000000000000000000000000000000000000000000000000016148015906120d857507f000000000000000000000000000000000000000000000000000000000000000073ffffffffffffffffffffffffffffffffffffffff16634162169f6040518163ffffffff1660e01b8152600401602060405180830381865afa158015612084573d6000803e3d6000fd5b505050506040513d601f19601f820116820180604052508101906120a8919061325e565b73ffffffffffffffffffffffffffffffffffffffff163373ffffffffffffffffffffffffffffffffffffffff1614155b1561210f576040517f6119ddb900000000000000000000000000000000000000000000000000000000815260040160405180910390fd5b6001546040517fc440a65c00000000000000000000000000000000000000000000000000000000815273ffffffffffffffffffffffffffffffffffffffff83811660048301529091169063c440a65c90602401610e66565b61216f61256b565b60015473ffffffffffffffffffffffffffffffffffffffff1633146121c0576040517f6d0340d700000000000000000000000000000000000000000000000000000000815260040160405180910390fd5b6121c983612c08565b15611968576040517ffc3e902600000000000000000000000000000000000000000000000000000000815273ffffffffffffffffffffffffffffffffffffffff84811660048301526000917f00000000000000000000000000000000000000000000000000000000000000009091169063fc3e902690602401600060405180830381865afa15801561225f573d6000803e3d6000fd5b505050506040513d6000823e601f3d9081017fffffffffffffffffffffffffffffffffffffffffffffffffffffffffffffffe01682016040526122a591908101906132aa565b73ffffffffffffffffffffffffffffffffffffffff851660009081526006602052604081208054908290559192508481036122e15760006122ed565b6122ed868587856127b3565b905080857f916ed1b5bdd37491a3a78d6ca4aff7c2d6216a39a2e006c3bdba3579fe7781ee60405160405180910390a373ffffffffffffffffffffffffffffffffffffffff86166000908152600260205260408120549061234e83856133bc565b905060005b85518110156124675760008682815181106123705761237061338d565b60209081029190910181015173ffffffffffffffffffffffffffffffffffffffff8116600090815260049092526040822054909250906123b1858388612ade565b73ffffffffffffffffffffffffffffffffffffffff84166000908152600760205260408120805492935083929091906123eb90849061323b565b909155506123fb905082876133bc565b955061240781866133bc565b94508273ffffffffffffffffffffffffffffffffffffffff167f5d61d1733044ba19fc3a248fdeb20b6a86f043bcc178d1199a996c6fdc03af698260405161245191815260200190565b60405180910390a2836001019350505050612353565b5082848973ffffffffffffffffffffffffffffffffffffffff167f742cede2307fae58bf2454c5dda6af2ccf6c38a9b12484989afe79af33fd7f3a60405160405180910390a450505050506119726001600055565b6124c461256b565b6124cc6125e3565b80156119685773ffffffffffffffffffffffffffffffffffffffff83166000908152600960205260408120805433928492916125099084906133bc565b909155505060405173ffffffffffffffffffffffffffffffffffffffff8085169184918416907f5f47c32b777ebd5486a5c3ca3d91644eaf7de2b3410fb14ea55bbfa41c9b3ad490600090a461256084848461296b565b506119726001600055565b6002600054036125dc576040517f08c379a000000000000000000000000000000000000000000000000000000000815260206004820152601f60248201527f5265656e7472616e637947756172643a207265656e7472616e742063616c6c0060448201526064015b60405180910390fd5b6002600055565b6040517f4a58e49e0000000000000000000000000000000000000000000000000000000081523360048201527f000000000000000000000000000000000000000000000000000000000000000073ffffffffffffffffffffffffffffffffffffffff1690634a58e49e90602401602060405180830381865afa15801561266d573d6000803e3d6000fd5b505050506040513d601f19601f82011682018060405250810190612691919061343c565b6126c7576040517f1353f3f100000000000000000000000000000000000000000000000000000000815260040160405180910390fd5b565b80156127ad5780828573ffffffffffffffffffffffffffffffffffffffff167f5f71c80c263695df78884e6822148b66c1cb73498b21aa8fec9095966ac6f30860405160405180910390a46127ad837f000000000000000000000000000000000000000000000000000000000000000073ffffffffffffffffffffffffffffffffffffffff166361d027b36040518163ffffffff1660e01b8152600401602060405180830381865afa158015612783573d6000803e3d6000fd5b505050506040513d601f19601f820116820180604052508101906127a7919061325e565b8361296b565b50505050565b6000826000036127c557506000610ccb565b60007f000000000000000000000000000000000000000000000000000000000000000073ffffffffffffffffffffffffffffffffffffffff16635b5b52c06040518163ffffffff1660e01b8152600401602060405180830381865afa158015612832573d6000803e3d6000fd5b505050506040513d601f19601f82011682018060405250810190612856919061325e565b905061286386828561296b565b6040517f780205b100000000000000000000000000000000000000000000000000000000815273ffffffffffffffffffffffffffffffffffffffff878116600483015260248201869052868116604483015282169063780205b1906064016020604051808303816000875af11580156128e0573d6000803e3d6000fd5b505050506040513d601f19601f8201168201806040525081019061290491906133cf565b9695505050505050565b60008061291c868686612ade565b905060018360028111156129325761293261345e565b14801561294f57506000848061294a5761294a61348d565b868809115b156129625761295f60018261323b565b90505b95945050505050565b6040805173ffffffffffffffffffffffffffffffffffffffff8416602482015260448082018490528251808303909101815260649091019091526020810180517bffffffffffffffffffffffffffffffffffffffffffffffffffffffff167fa9059cbb00000000000000000000000000000000000000000000000000000000179052611972908490612cee565b6040517ffddd4d8f00000000000000000000000000000000000000000000000000000000815273ffffffffffffffffffffffffffffffffffffffff82811660048301526000917f00000000000000000000000000000000000000000000000000000000000000009091169063fddd4d8f90602401602060405180830381865afa158015612a89573d6000803e3d6000fd5b505050506040513d601f19601f82011682018060405250810190612aad91906133cf565b73ffffffffffffffffffffffffffffffffffffffff8416600090815260076020526040902054101590505b92915050565b600080807fffffffffffffffffffffffffffffffffffffffffffffffffffffffffffffffff85870985870292508281108382030391505080600003612b3657838281612b2c57612b2c61348d565b0492505050610f6d565b808411612b9f576040517f08c379a000000000000000000000000000000000000000000000000000000000815260206004820152601560248201527f4d6174683a206d756c446976206f766572666c6f77000000000000000000000060448201526064016125d3565b60008486880960026001871981018816978890046003810283188082028403028082028403028082028403028082028403028082028403029081029092039091026000889003889004909101858311909403939093029303949094049190911702949350505050565b6040517ffddd4d8f00000000000000000000000000000000000000000000000000000000815273ffffffffffffffffffffffffffffffffffffffff82811660048301526000917f00000000000000000000000000000000000000000000000000000000000000009091169063fddd4d8f90602401602060405180830381865afa158015612c99573d6000803e3d6000fd5b505050506040513d601f19601f82011682018060405250810190612cbd91906133cf565b73ffffffffffffffffffffffffffffffffffffffff9092166000908152600660205260409020549190911015919050565b6000612d50826040518060400160405280602081526020017f5361666545524332303a206c6f772d6c6576656c2063616c6c206661696c65648152508573ffffffffffffffffffffffffffffffffffffffff16612dfd9092919063ffffffff16565b9050805160001480612d71575080806020019051810190612d71919061343c565b611972576040517f08c379a000000000000000000000000000000000000000000000000000000000815260206004820152602a60248201527f5361666545524332303a204552433230206f7065726174696f6e20646964206e60448201527f6f7420737563636565640000000000000000000000000000000000000000000060648201526084016125d3565b6060610ccb8484600085856000808673ffffffffffffffffffffffffffffffffffffffff168587604051612e3191906134e0565b60006040518083038185875af1925050503d8060008114612e6e576040519150601f19603f3d011682016040523d82523d6000602084013e612e73565b606091505b5091509150612e8487838387612e8f565b979650505050505050565b60608315612f25578251600003612f1e5773ffffffffffffffffffffffffffffffffffffffff85163b612f1e576040517f08c379a000000000000000000000000000000000000000000000000000000000815260206004820152601d60248201527f416464726573733a2063616c6c20746f206e6f6e2d636f6e747261637400000060448201526064016125d3565b5081610ccb565b610ccb8383815115612f3a5781518083602001fd5b806040517f08c379a00000000000000000000000000000000000000000000000000000000081526004016125d391906134fc565b73ffffffffffffffffffffffffffffffffffffffff81168114610bcf57600080fd5b600060208284031215612fa257600080fd5b8135610f6d81612f6e565b600080600080600060a08688031215612fc557600080fd5b8535612fd081612f6e565b97602087013597506040870135966060810135965060800135945092505050565b6000806040838503121561300457600080fd5b823561300f81612f6e565b946020939093013593505050565b6000806000806080858703121561303357600080fd5b843561303e81612f6e565b9350602085013561304e81612f6e565b93969395505050506040820135916060013590565b60008060006060848603121561307857600080fd5b833561308381612f6e565b9250602084013561309381612f6e565b929592945050506040919091013590565b600080600080600060a086880312156130bc57600080fd5b85356130c781612f6e565b94506020860135935060408601356130de81612f6e565b94979396509394606081013594506080013592915050565b60008060006060848603121561310b57600080fd5b833561311681612f6e565b925060208401359150604084013561312d81612f6e565b809150509250925092565b60008060006060848603121561314d57600080fd5b833561315881612f6e565b95602085013595506040909401359392505050565b60008060008060006080868803121561318557600080fd5b853561319081612f6e565b94506020860135935060408601356131a781612f6e565b9250606086013567ffffffffffffffff808211156131c457600080fd5b818801915088601f8301126131d857600080fd5b8135818111156131e757600080fd5b8960208285010111156131f957600080fd5b9699959850939650602001949392505050565b7f4e487b7100000000000000000000000000000000000000000000000000000000600052601160045260246000fd5b80820180821115612ad857612ad861320c565b805161325981612f6e565b919050565b60006020828403121561327057600080fd5b8151610f6d81612f6e565b7f4e487b7100000000000000000000000000000000000000000000000000000000600052604160045260246000fd5b600060208083850312156132bd57600080fd5b825167ffffffffffffffff808211156132d557600080fd5b818501915085601f8301126132e957600080fd5b8151818111156132fb576132fb61327b565b8060051b6040517fffffffffffffffffffffffffffffffffffffffffffffffffffffffffffffffe0603f8301168101818110858211171561333e5761333e61327b565b60405291825284820192508381018501918883111561335c57600080fd5b938501935b82851015613381576133728561324e565b84529385019392850192613361565b98975050505050505050565b7f4e487b7100000000000000000000000000000000000000000000000000000000600052603260045260246000fd5b81810381811115612ad857612ad861320c565b6000602082840312156133e157600080fd5b5051919050565b83815260406020820152816040820152818360608301376000818301606090810191909152601f9092017fffffffffffffffffffffffffffffffffffffffffffffffffffffffffffffffe016010192915050565b60006020828403121561344e57600080fd5b81518015158114610f6d57600080fd5b7f4e487b7100000000000000000000000000000000000000000000000000000000600052602160045260246000fd5b7f4e487b7100000000000000000000000000000000000000000000000000000000600052601260045260246000fd5b60005b838110156134d75781810151838201526020016134bf565b50506000910152565b600082516134f28184602087016134bc565b9190910192915050565b602081526000825180602084015261351b8160408501602087016134bc565b601f017fffffffffffffffffffffffffffffffffffffffffffffffffffffffffffffffe016919091016040019291505056fea26469706673582212208525cfd2739e45becb1665ba76796e399bd3d0c4f8db313b2773aa25173c79b664736f6c63430008130033",
  "devdoc": {
    "details": "A contract that implements the ChromaticVault interface      and provides functionality for managing positions, liquidity, and fees in Chromatic markets.",
    "errors": {
      "NotEnoughBalance()": [
        {
          "details": "Throws an error indicating that the flash loan amount exceeds the available balance in the vault."
        }
      ],
      "NotEnoughFeePaid()": [
        {
          "details": "Throws an error indicating that the recipient has not paid the sufficient flash loan fee."
        }
      ],
      "OnlyAccessableByDao()": [
        {
          "details": "Throws an error indicating that the caller is not the DAO."
        }
      ],
      "OnlyAccessableByEarningDistributor()": [
        {
          "details": "Throws an error indicating that the caller is not the Vault earning distribute contract."
        }
      ],
      "OnlyAccessableByFactoryOrDao()": [
        {
          "details": "Throws an error indicating that the caller is nether the chormatic factory contract nor the DAO."
        }
      ],
      "OnlyAccessableByMarket()": [
        {
          "details": "Throws an error indicating that the caller is not a registered market."
        }
      ]
    },
    "events": {
      "FlashLoan(address,address,uint256,uint256,uint256,uint256)": {
        "params": {
          "amount": "The amount of the flash loan.",
          "paid": "The amount paid back after the flash loan.",
          "paidToMakerPool": "The amount paid to the maker pool after the flash loan.",
          "paidToTakerPool": "The amount paid to the taker pool after the flash loan.",
          "recipient": "The address receiving the flash loan.",
          "sender": "The address initiating the flash loan."
        }
      },
      "MakerEarningDistributed(address,uint256,uint256)": {
        "details": "Emitted when maker earning is distributed.",
        "params": {
          "earning": "The amount of earning distributed.",
          "token": "The address of the settlement token.",
          "usedKeeperFee": "The amount of keeper fee used."
        }
      },
      "MarketEarningAccumulated(address,uint256)": {
        "details": "Emitted when market earning is accumulated.",
        "params": {
          "earning": "The amount of earning accumulated.",
          "market": "The address of the market."
        }
      },
      "MarketEarningDistributed(address,uint256,uint256,uint256)": {
        "details": "Emitted when market earning is distributed.",
        "params": {
          "earning": "The amount of earning distributed.",
          "market": "The address of the market.",
          "marketBalance": "The balance of the market.",
          "usedKeeperFee": "The amount of keeper fee used."
        }
      },
      "OnAddLiquidity(address,uint256)": {
        "params": {
          "amount": "The amount of liquidity added.",
          "market": "The address of the market."
        }
      },
      "OnClaimPosition(address,uint256,address,uint256,uint256)": {
        "params": {
          "market": "The address of the market.",
          "positionId": "The ID of the claimed position.",
          "recipient": "The address of the recipient of the settlement amount.",
          "settlementAmount": "The settlement amount received by the recipient.",
          "takerMargin": "The margin amount provided by the taker for the position."
        }
      },
      "OnOpenPosition(address,uint256,uint256,uint256,uint256)": {
        "params": {
          "market": "The address of the market.",
          "positionId": "The ID of the opened position.",
          "protocolFee": "The protocol fee associated with the position.",
          "takerMargin": "The margin amount provided by the taker for the position.",
          "tradingFee": "The trading fee associated with the position."
        }
      },
      "OnSettlePendingLiquidity(address,uint256,uint256)": {
        "params": {
          "market": "The address of the market.",
          "pendingDeposit": "The amount of pending deposit being settled.",
          "pendingWithdrawal": "The amount of pending withdrawal being settled."
        }
      },
      "OnWithdrawLiquidity(address,uint256,address)": {
        "params": {
          "amount": "The amount of liquidity withdrawn.",
          "market": "The address of the market.",
          "recipient": "The address of the recipient of the withdrawn liquidity."
        }
      },
      "TransferKeeperFee(address,uint256,uint256)": {
        "params": {
          "amount": "The amount of settlement token to be used for paying keeper fee.",
          "fee": "The amount of the transferred keeper fee as native token.",
          "market": "The address of the market."
        }
      },
      "TransferKeeperFee(uint256,uint256)": {
        "params": {
          "amount": "The amount of settlement token to be used for paying keeper fee.",
          "fee": "The amount of the transferred keeper fee as native token."
        }
      },
      "TransferProtocolFee(address,uint256,uint256)": {
        "params": {
          "amount": "The amount of the transferred fee.",
          "market": "The address of the market.",
          "positionId": "The ID of the position."
        }
      },
      "VaultEarningDistributorSet(address,address)": {
        "params": {
          "oldVaultEarningDistributor": "The old vault earning distributor address.",
          "vaultEarningDistributor": "The vault earning distributor address."
        }
      }
    },
    "kind": "dev",
    "methods": {
      "cancelMakerEarningDistributionTask(address)": {
        "params": {
          "token": "The address of the settlement token."
        }
      },
      "cancelMarketEarningDistributionTask(address)": {
        "params": {
          "market": "The address of the market."
        }
      },
      "constructor": {
        "details": "Constructs a new ChromaticVault instance.",
        "params": {
          "_earningDistributor": "The address of the Vault earning distribute contract.",
          "_factory": "The address of the Chromatic Market Factory contract."
        }
      },
      "createMakerEarningDistributionTask(address)": {
        "params": {
          "token": "The address of the settlement token."
        }
      },
      "createMarketEarningDistributionTask(address)": {
        "params": {
          "market": "The address of the market."
        }
      },
      "distributeMakerEarning(address,uint256,address)": {
        "params": {
          "fee": "The keeper fee amount.",
          "keeper": "The keeper address to receive fee.",
          "token": "The address of the settlement token."
        }
      },
      "distributeMarketEarning(address,uint256,address)": {
        "params": {
          "fee": "The fee amount.",
          "keeper": "The keeper address to receive fee.",
          "market": "The address of the market."
        }
      },
      "flashLoan(address,uint256,address,bytes)": {
        "details": "Throws a `NotEnoughBalance` error if the loan amount exceeds the available balance.      Throws a `NotEnoughFeePaid` error if the fee has not been paid by the recipient. Requirements: - The loan amount must not exceed the available balance after considering pending deposits and withdrawals. - The fee for the flash loan must be paid by the recipient. - The total amount paid must be distributed between the taker pool and maker pool according to their balances. - The amount paid to the taker pool must be transferred to the DAO treasury address. - The amount paid to the maker pool must be added to the pending maker earnings. Emits a `FlashLoan` event with details of the flash loan execution.",
        "params": {
          "amount": "The amount of the flash loan.",
          "data": "Additional data for the flash loan.",
          "recipient": "The address to receive the flash loan.",
          "token": "The address of the token for the flash loan."
        }
      },
      "getPendingBinShare(address,address,uint256)": {
        "details": "The pending share of earnings is calculated based on the bin balance, maker balances, and market balances.",
        "params": {
          "binBalance": "The balance of funds in the bin.",
          "market": "The address of the market.",
          "settlementToken": "The settlement token address."
        },
        "returns": {
          "_0": "The pending share of earnings for the specified bin."
        }
      },
      "onAddLiquidity(address,uint256)": {
        "details": "This function can only be called by a market contract.",
        "params": {
          "amount": "The amount of liquidity being added.",
          "settlementToken": "The settlement token address."
        }
      },
      "onClaimPosition(address,uint256,address,uint256,uint256)": {
        "details": "This function can only be called by a market contract.",
        "params": {
          "positionId": "The ID of the claimed position.",
          "recipient": "The address that will receive the settlement amount.",
          "settlementAmount": "The amount to be settled for the position.",
          "settlementToken": "The settlement token address.",
          "takerMargin": "The margin amount provided by the taker for the position."
        }
      },
      "onOpenPosition(address,uint256,uint256,uint256,uint256)": {
        "details": "This function can only be called by a market contract.",
        "params": {
          "positionId": "The ID of the opened position.",
          "protocolFee": "The protocol fee associated with the position.",
          "settlementToken": "The settlement token address.",
          "takerMargin": "The margin amount provided by the taker for the position.",
          "tradingFee": "The trading fee associated with the position."
        }
      },
      "onSettlePendingLiquidity(address,uint256,uint256)": {
        "details": "This function can only be called by a market contract.",
        "params": {
          "pendingDeposit": "The amount of pending deposits being settled.",
          "pendingWithdrawal": "The amount of pending withdrawals being settled.",
          "settlementToken": "The settlement token address."
        }
      },
      "onWithdrawLiquidity(address,address,uint256)": {
        "details": "This function can only be called by a market contract.",
        "params": {
          "amount": "The amount of liquidity to be withdrawn.",
          "recipient": "The address that will receive the withdrawn liquidity.",
          "settlementToken": "The settlement token address."
        }
      },
      "setVaultEarningDistributor(address)": {
        "details": "This function can only be called by the DAO address."
      },
      "transferKeeperFee(address,address,uint256,uint256)": {
        "details": "This function can only be called by a market contract.",
        "params": {
          "fee": "The amount of the fee to transfer as native token.",
          "keeper": "The address of the keeper to receive the fee.",
          "margin": "The margin amount used for the fee payment.",
          "settlementToken": "The settlement token address."
        },
        "returns": {
          "usedFee": "The actual settlement token amount of fee used for the transfer."
        }
      }
    },
    "title": "ChromaticVault",
    "version": 1
  },
  "userdoc": {
    "events": {
      "FlashLoan(address,address,uint256,uint256,uint256,uint256)": {
        "notice": "Emitted when a flash loan is executed."
      },
      "OnAddLiquidity(address,uint256)": {
        "notice": "Emitted when liquidity is added to the vault."
      },
      "OnClaimPosition(address,uint256,address,uint256,uint256)": {
        "notice": "Emitted when a position is claimed."
      },
      "OnOpenPosition(address,uint256,uint256,uint256,uint256)": {
        "notice": "Emitted when a position is opened."
      },
      "OnSettlePendingLiquidity(address,uint256,uint256)": {
        "notice": "Emitted when pending liquidity is settled."
      },
      "OnWithdrawLiquidity(address,uint256,address)": {
        "notice": "Emitted when liquidity is withdrawn from the vault."
      },
      "TransferKeeperFee(address,uint256,uint256)": {
        "notice": "Emitted when the keeper fee is transferred for a specific market."
      },
      "TransferKeeperFee(uint256,uint256)": {
        "notice": "Emitted when the keeper fee is transferred."
      },
      "TransferProtocolFee(address,uint256,uint256)": {
        "notice": "Emitted when the protocol fee is transferred for a specific position."
      },
      "VaultEarningDistributorSet(address,address)": {
        "notice": "Emitted when the vault earning distributor address is set."
      }
    },
    "kind": "user",
    "methods": {
      "cancelMakerEarningDistributionTask(address)": {
        "notice": "Cancels a maker earning distribution task for a token."
      },
      "cancelMarketEarningDistributionTask(address)": {
        "notice": "Cancels a market earning distribution task for a market."
      },
      "createMakerEarningDistributionTask(address)": {
        "notice": "Creates a maker earning distribution task for a token."
      },
      "createMarketEarningDistributionTask(address)": {
        "notice": "Creates a market earning distribution task for a market."
      },
      "distributeMakerEarning(address,uint256,address)": {
        "notice": "Distributes the maker earning for a token to the each markets."
      },
      "distributeMarketEarning(address,uint256,address)": {
        "notice": "Distributes the market earning for a market to the each bins."
      },
      "flashLoan(address,uint256,address,bytes)": {
        "notice": "Executes a flash loan."
      },
      "getPendingBinShare(address,address,uint256)": {
        "notice": "Retrieves the pending share of earnings for a specific bin (subset) of funds in a market."
      },
      "onAddLiquidity(address,uint256)": {
        "notice": "Called when liquidity is added to the vault by a market contract."
      },
      "onClaimPosition(address,uint256,address,uint256,uint256)": {
        "notice": "Called when a position is claimed by a market contract."
      },
      "onOpenPosition(address,uint256,uint256,uint256,uint256)": {
        "notice": "Called when a position is opened by a market contract."
      },
      "onSettlePendingLiquidity(address,uint256,uint256)": {
        "notice": "Called when pending liquidity is settled in the vault by a market contract."
      },
      "onWithdrawLiquidity(address,address,uint256)": {
        "notice": "Called when liquidity is withdrawn from the vault by a market contract."
      },
      "transferKeeperFee(address,address,uint256,uint256)": {
        "notice": "Transfers the keeper fee from the market to the specified keeper."
      }
    },
    "version": 1
  },
  "storageLayout": {
    "storage": [
      {
        "astId": 208,
        "contract": "contracts/core/ChromaticVault.sol:ChromaticVault",
        "label": "_status",
        "offset": 0,
        "slot": "0",
        "type": "t_uint256"
      },
      {
        "astId": 9234,
        "contract": "contracts/core/ChromaticVault.sol:ChromaticVault",
        "label": "earningDistributor",
        "offset": 0,
        "slot": "1",
        "type": "t_contract(IVaultEarningDistributor)18315"
      },
      {
        "astId": 9238,
        "contract": "contracts/core/ChromaticVault.sol:ChromaticVault",
        "label": "makerBalances",
        "offset": 0,
        "slot": "2",
        "type": "t_mapping(t_address,t_uint256)"
      },
      {
        "astId": 9242,
        "contract": "contracts/core/ChromaticVault.sol:ChromaticVault",
        "label": "takerBalances",
        "offset": 0,
        "slot": "3",
        "type": "t_mapping(t_address,t_uint256)"
      },
      {
        "astId": 9246,
        "contract": "contracts/core/ChromaticVault.sol:ChromaticVault",
        "label": "makerMarketBalances",
        "offset": 0,
        "slot": "4",
        "type": "t_mapping(t_address,t_uint256)"
      },
      {
        "astId": 9250,
        "contract": "contracts/core/ChromaticVault.sol:ChromaticVault",
        "label": "takerMarketBalances",
        "offset": 0,
        "slot": "5",
        "type": "t_mapping(t_address,t_uint256)"
      },
      {
        "astId": 9254,
        "contract": "contracts/core/ChromaticVault.sol:ChromaticVault",
        "label": "pendingMakerEarnings",
        "offset": 0,
        "slot": "6",
        "type": "t_mapping(t_address,t_uint256)"
      },
      {
        "astId": 9258,
        "contract": "contracts/core/ChromaticVault.sol:ChromaticVault",
        "label": "pendingMarketEarnings",
        "offset": 0,
        "slot": "7",
        "type": "t_mapping(t_address,t_uint256)"
      },
      {
        "astId": 9262,
        "contract": "contracts/core/ChromaticVault.sol:ChromaticVault",
        "label": "pendingDeposits",
        "offset": 0,
        "slot": "8",
        "type": "t_mapping(t_address,t_uint256)"
      },
      {
        "astId": 9266,
        "contract": "contracts/core/ChromaticVault.sol:ChromaticVault",
        "label": "pendingWithdrawals",
        "offset": 0,
        "slot": "9",
        "type": "t_mapping(t_address,t_uint256)"
      }
    ],
    "types": {
      "t_address": {
        "encoding": "inplace",
        "label": "address",
        "numberOfBytes": "20"
      },
      "t_contract(IVaultEarningDistributor)18315": {
        "encoding": "inplace",
        "label": "contract IVaultEarningDistributor",
        "numberOfBytes": "20"
      },
      "t_mapping(t_address,t_uint256)": {
        "encoding": "mapping",
        "key": "t_address",
        "label": "mapping(address => uint256)",
        "numberOfBytes": "32",
        "value": "t_uint256"
      },
      "t_uint256": {
        "encoding": "inplace",
        "label": "uint256",
        "numberOfBytes": "32"
      }
    }
  }
}