{
  "address": "0x4e1F1Ae08217A7f7e3D935E1063C6d87ADA5c9Eb",
  "abi": [
    {
      "inputs": [
        {
          "internalType": "address",
          "name": "_marketFactory",
          "type": "address"
        }
      ],
      "stateMutability": "nonpayable",
      "type": "constructor"
    },
    {
      "inputs": [],
      "name": "NotMarket",
      "type": "error"
    },
    {
      "inputs": [],
      "name": "OnlyAccessableByDao",
      "type": "error"
    },
    {
      "anonymous": false,
      "inputs": [
        {
          "indexed": true,
          "internalType": "address",
          "name": "account",
          "type": "address"
        },
        {
          "indexed": true,
          "internalType": "address",
          "name": "owner",
          "type": "address"
        }
      ],
      "name": "AccountCreated",
      "type": "event"
    },
    {
      "anonymous": false,
      "inputs": [
        {
          "indexed": true,
          "internalType": "address",
          "name": "marketAddress",
          "type": "address"
        },
        {
          "indexed": true,
          "internalType": "address",
          "name": "trader",
          "type": "address"
        },
        {
          "indexed": true,
          "internalType": "address",
          "name": "account",
          "type": "address"
        },
        {
          "indexed": false,
          "internalType": "uint256",
          "name": "tradingFee",
          "type": "uint256"
        },
        {
          "indexed": false,
          "internalType": "uint256",
          "name": "tradingFeeUSD",
          "type": "uint256"
        }
      ],
      "name": "OpenPosition",
      "type": "event"
    },
    {
      "inputs": [],
      "name": "accountBase",
      "outputs": [
        {
          "internalType": "contract ChromaticAccount",
          "name": "",
          "type": "address"
        }
      ],
      "stateMutability": "view",
      "type": "function"
    },
    {
      "inputs": [
        {
          "internalType": "address",
          "name": "market",
          "type": "address"
        },
        {
          "internalType": "int16",
          "name": "feeRate",
          "type": "int16"
        },
        {
          "internalType": "uint256",
          "name": "amount",
          "type": "uint256"
        },
        {
          "internalType": "address",
          "name": "recipient",
          "type": "address"
        }
      ],
      "name": "addLiquidity",
      "outputs": [
        {
          "components": [
            {
              "internalType": "uint256",
              "name": "id",
              "type": "uint256"
            },
            {
              "internalType": "uint256",
              "name": "oracleVersion",
              "type": "uint256"
            },
            {
              "internalType": "uint256",
              "name": "amount",
              "type": "uint256"
            },
            {
              "internalType": "address",
              "name": "recipient",
              "type": "address"
            },
            {
              "internalType": "enum LpAction",
              "name": "action",
              "type": "uint8"
            },
            {
              "internalType": "int16",
              "name": "tradingFeeRate",
              "type": "int16"
            }
          ],
          "internalType": "struct LpReceipt",
          "name": "receipt",
          "type": "tuple"
        }
      ],
      "stateMutability": "nonpayable",
      "type": "function"
    },
    {
      "inputs": [
        {
          "internalType": "address",
          "name": "market",
          "type": "address"
        },
        {
          "internalType": "address",
          "name": "recipient",
          "type": "address"
        },
        {
          "internalType": "int16[]",
          "name": "feeRates",
          "type": "int16[]"
        },
        {
          "internalType": "uint256[]",
          "name": "amounts",
          "type": "uint256[]"
        }
      ],
      "name": "addLiquidityBatch",
      "outputs": [
        {
          "components": [
            {
              "internalType": "uint256",
              "name": "id",
              "type": "uint256"
            },
            {
              "internalType": "uint256",
              "name": "oracleVersion",
              "type": "uint256"
            },
            {
              "internalType": "uint256",
              "name": "amount",
              "type": "uint256"
            },
            {
              "internalType": "address",
              "name": "recipient",
              "type": "address"
            },
            {
              "internalType": "enum LpAction",
              "name": "action",
              "type": "uint8"
            },
            {
              "internalType": "int16",
              "name": "tradingFeeRate",
              "type": "int16"
            }
          ],
          "internalType": "struct LpReceipt[]",
          "name": "lpReceipts",
          "type": "tuple[]"
        }
      ],
      "stateMutability": "nonpayable",
      "type": "function"
    },
    {
      "inputs": [
        {
          "internalType": "address",
          "name": "settlementToken",
          "type": "address"
        },
        {
          "internalType": "address",
          "name": "vault",
          "type": "address"
        },
        {
          "internalType": "bytes",
          "name": "data",
          "type": "bytes"
        }
      ],
      "name": "addLiquidityBatchCallback",
      "outputs": [],
      "stateMutability": "nonpayable",
      "type": "function"
    },
    {
      "inputs": [
        {
          "internalType": "address",
          "name": "settlementToken",
          "type": "address"
        },
        {
          "internalType": "address",
          "name": "vault",
          "type": "address"
        },
        {
          "internalType": "bytes",
          "name": "data",
          "type": "bytes"
        }
      ],
      "name": "addLiquidityCallback",
      "outputs": [],
      "stateMutability": "nonpayable",
      "type": "function"
    },
    {
      "inputs": [
        {
          "internalType": "address",
          "name": "market",
          "type": "address"
        },
        {
          "internalType": "uint256",
          "name": "receiptId",
          "type": "uint256"
        }
      ],
      "name": "claimLiquidity",
      "outputs": [],
      "stateMutability": "nonpayable",
      "type": "function"
    },
    {
      "inputs": [
        {
          "internalType": "address",
          "name": "market",
          "type": "address"
        },
        {
          "internalType": "uint256[]",
          "name": "_receiptIds",
          "type": "uint256[]"
        }
      ],
      "name": "claimLiquidityBatch",
      "outputs": [],
      "stateMutability": "nonpayable",
      "type": "function"
    },
    {
      "inputs": [
        {
          "internalType": "uint256[]",
          "name": "_receiptIds",
          "type": "uint256[]"
        },
        {
          "internalType": "int16[]",
          "name": "",
          "type": "int16[]"
        },
        {
          "internalType": "uint256[]",
          "name": "",
          "type": "uint256[]"
        },
        {
          "internalType": "uint256[]",
          "name": "",
          "type": "uint256[]"
        },
        {
          "internalType": "bytes",
          "name": "",
          "type": "bytes"
        }
      ],
      "name": "claimLiquidityBatchCallback",
      "outputs": [],
      "stateMutability": "nonpayable",
      "type": "function"
    },
    {
      "inputs": [
        {
          "internalType": "uint256",
          "name": "receiptId",
          "type": "uint256"
        },
        {
          "internalType": "int16",
          "name": "",
          "type": "int16"
        },
        {
          "internalType": "uint256",
          "name": "",
          "type": "uint256"
        },
        {
          "internalType": "uint256",
          "name": "",
          "type": "uint256"
        },
        {
          "internalType": "bytes",
          "name": "",
          "type": "bytes"
        }
      ],
      "name": "claimLiquidityCallback",
      "outputs": [],
      "stateMutability": "nonpayable",
      "type": "function"
    },
    {
      "inputs": [
        {
          "internalType": "address",
          "name": "market",
          "type": "address"
        },
        {
          "internalType": "uint256",
          "name": "positionId",
          "type": "uint256"
        }
      ],
      "name": "claimPosition",
      "outputs": [],
      "stateMutability": "nonpayable",
      "type": "function"
    },
    {
      "inputs": [
        {
          "internalType": "address",
          "name": "market",
          "type": "address"
        },
        {
          "internalType": "uint256",
          "name": "positionId",
          "type": "uint256"
        }
      ],
      "name": "closePosition",
      "outputs": [],
      "stateMutability": "nonpayable",
      "type": "function"
    },
    {
      "inputs": [],
      "name": "createAccount",
      "outputs": [],
      "stateMutability": "nonpayable",
      "type": "function"
    },
    {
      "inputs": [],
      "name": "getAccount",
      "outputs": [
        {
          "internalType": "address",
          "name": "",
          "type": "address"
        }
      ],
      "stateMutability": "view",
      "type": "function"
    },
    {
      "inputs": [
        {
          "internalType": "address",
          "name": "market",
          "type": "address"
        },
        {
          "internalType": "address",
          "name": "owner",
          "type": "address"
        }
      ],
      "name": "getLpReceiptIds",
      "outputs": [
        {
          "internalType": "uint256[]",
          "name": "",
          "type": "uint256[]"
        }
      ],
      "stateMutability": "view",
      "type": "function"
    },
    {
      "inputs": [
        {
          "internalType": "address",
          "name": "market",
          "type": "address"
        }
      ],
      "name": "getLpReceiptIds",
      "outputs": [
        {
          "internalType": "uint256[]",
          "name": "",
          "type": "uint256[]"
        }
      ],
      "stateMutability": "view",
      "type": "function"
    },
    {
      "inputs": [
        {
          "internalType": "address",
          "name": "market",
          "type": "address"
        },
        {
          "internalType": "int256",
          "name": "qty",
          "type": "int256"
        },
        {
          "internalType": "uint256",
          "name": "takerMargin",
          "type": "uint256"
        },
        {
          "internalType": "uint256",
          "name": "makerMargin",
          "type": "uint256"
        },
        {
          "internalType": "uint256",
          "name": "maxAllowableTradingFee",
          "type": "uint256"
        }
      ],
      "name": "openPosition",
      "outputs": [
        {
          "components": [
            {
              "internalType": "uint256",
              "name": "id",
              "type": "uint256"
            },
            {
              "internalType": "uint256",
              "name": "openVersion",
              "type": "uint256"
            },
            {
              "internalType": "int256",
              "name": "qty",
              "type": "int256"
            },
            {
              "internalType": "uint256",
              "name": "openTimestamp",
              "type": "uint256"
            },
            {
              "internalType": "uint256",
              "name": "takerMargin",
              "type": "uint256"
            },
            {
              "internalType": "uint256",
              "name": "makerMargin",
              "type": "uint256"
            },
            {
              "internalType": "uint256",
              "name": "tradingFee",
              "type": "uint256"
            }
          ],
          "internalType": "struct OpenPositionInfo",
          "name": "",
          "type": "tuple"
        }
      ],
      "stateMutability": "nonpayable",
      "type": "function"
    },
    {
      "inputs": [
        {
          "internalType": "address",
          "name": "market",
          "type": "address"
        },
        {
          "internalType": "int16",
          "name": "feeRate",
          "type": "int16"
        },
        {
          "internalType": "uint256",
          "name": "clbTokenAmount",
          "type": "uint256"
        },
        {
          "internalType": "address",
          "name": "recipient",
          "type": "address"
        }
      ],
      "name": "removeLiquidity",
      "outputs": [
        {
          "components": [
            {
              "internalType": "uint256",
              "name": "id",
              "type": "uint256"
            },
            {
              "internalType": "uint256",
              "name": "oracleVersion",
              "type": "uint256"
            },
            {
              "internalType": "uint256",
              "name": "amount",
              "type": "uint256"
            },
            {
              "internalType": "address",
              "name": "recipient",
              "type": "address"
            },
            {
              "internalType": "enum LpAction",
              "name": "action",
              "type": "uint8"
            },
            {
              "internalType": "int16",
              "name": "tradingFeeRate",
              "type": "int16"
            }
          ],
          "internalType": "struct LpReceipt",
          "name": "receipt",
          "type": "tuple"
        }
      ],
      "stateMutability": "nonpayable",
      "type": "function"
    },
    {
      "inputs": [
        {
          "internalType": "address",
          "name": "market",
          "type": "address"
        },
        {
          "internalType": "address",
          "name": "recipient",
          "type": "address"
        },
        {
          "internalType": "int16[]",
          "name": "feeRates",
          "type": "int16[]"
        },
        {
          "internalType": "uint256[]",
          "name": "clbTokenAmounts",
          "type": "uint256[]"
        }
      ],
      "name": "removeLiquidityBatch",
      "outputs": [
        {
          "components": [
            {
              "internalType": "uint256",
              "name": "id",
              "type": "uint256"
            },
            {
              "internalType": "uint256",
              "name": "oracleVersion",
              "type": "uint256"
            },
            {
              "internalType": "uint256",
              "name": "amount",
              "type": "uint256"
            },
            {
              "internalType": "address",
              "name": "recipient",
              "type": "address"
            },
            {
              "internalType": "enum LpAction",
              "name": "action",
              "type": "uint8"
            },
            {
              "internalType": "int16",
              "name": "tradingFeeRate",
              "type": "int16"
            }
          ],
          "internalType": "struct LpReceipt[]",
          "name": "lpReceipts",
          "type": "tuple[]"
        }
      ],
      "stateMutability": "nonpayable",
      "type": "function"
    },
    {
      "inputs": [
        {
          "internalType": "address",
          "name": "clbToken",
          "type": "address"
        },
        {
          "internalType": "uint256[]",
          "name": "clbTokenIds",
          "type": "uint256[]"
        },
        {
          "internalType": "bytes",
          "name": "data",
          "type": "bytes"
        }
      ],
      "name": "removeLiquidityBatchCallback",
      "outputs": [],
      "stateMutability": "nonpayable",
      "type": "function"
    },
    {
      "inputs": [
        {
          "internalType": "address",
          "name": "clbToken",
          "type": "address"
        },
        {
          "internalType": "uint256",
          "name": "clbTokenId",
          "type": "uint256"
        },
        {
          "internalType": "bytes",
          "name": "data",
          "type": "bytes"
        }
      ],
      "name": "removeLiquidityCallback",
      "outputs": [],
      "stateMutability": "nonpayable",
      "type": "function"
    },
    {
      "inputs": [
        {
          "internalType": "address",
          "name": "market",
          "type": "address"
        },
        {
          "internalType": "uint256",
          "name": "receiptId",
          "type": "uint256"
        }
      ],
      "name": "withdrawLiquidity",
      "outputs": [],
      "stateMutability": "nonpayable",
      "type": "function"
    },
    {
      "inputs": [
        {
          "internalType": "address",
          "name": "market",
          "type": "address"
        },
        {
          "internalType": "uint256[]",
          "name": "_receiptIds",
          "type": "uint256[]"
        }
      ],
      "name": "withdrawLiquidityBatch",
      "outputs": [],
      "stateMutability": "nonpayable",
      "type": "function"
    },
    {
      "inputs": [
        {
          "internalType": "uint256[]",
          "name": "_receiptIds",
          "type": "uint256[]"
        },
        {
          "internalType": "int16[]",
          "name": "",
          "type": "int16[]"
        },
        {
          "internalType": "uint256[]",
          "name": "",
          "type": "uint256[]"
        },
        {
          "internalType": "uint256[]",
          "name": "",
          "type": "uint256[]"
        },
        {
          "internalType": "bytes",
          "name": "",
          "type": "bytes"
        }
      ],
      "name": "withdrawLiquidityBatchCallback",
      "outputs": [],
      "stateMutability": "nonpayable",
      "type": "function"
    },
    {
      "inputs": [
        {
          "internalType": "uint256",
          "name": "receiptId",
          "type": "uint256"
        },
        {
          "internalType": "int16",
          "name": "",
          "type": "int16"
        },
        {
          "internalType": "uint256",
          "name": "",
          "type": "uint256"
        },
        {
          "internalType": "uint256",
          "name": "",
          "type": "uint256"
        },
        {
          "internalType": "bytes",
          "name": "",
          "type": "bytes"
        }
      ],
      "name": "withdrawLiquidityCallback",
      "outputs": [],
      "stateMutability": "nonpayable",
      "type": "function"
    }
  ],
  "transactionHash": "0xd573d151ba2b8569f771ae0741bf770220304c4c9e53c36ab9cb3247e0a36df1",
  "args": [
    "0xa74B572cA410b79B581C24cc37743d65b2D936c8"
  ],
  "numDeployments": 3,
  "solcInputHash": "1e9db94fec94dd4fd878c14e15d047fa",
  "bytecode": "0x60a06040523480156200001157600080fd5b506040516200501d3803806200501d8339810160408190526200003491620000c7565b806040516200004390620000b9565b604051809103906000f08015801562000060573d6000803e3d6000fd5b506001600160a01b03908116608052600080546001600160a01b0319169282169290921790915581166200009357600080fd5b600280546001600160a01b0319166001600160a01b0392909216919091179055620000f9565b611a8b806200359283390190565b600060208284031215620000da57600080fd5b81516001600160a01b0381168114620000f257600080fd5b9392505050565b6080516134766200011c6000396000818161033c01526117f001526134766000f3fe608060405234801561001057600080fd5b50600436106101985760003560e01c8063970d1d6f116100e3578063d2419e231161008c578063e921b5c211610066578063e921b5c2146103d4578063e9fcf1f6146103e7578063f120bc4d146103fa57600080fd5b8063d2419e2314610383578063db613e8114610396578063de4b035c146103c157600080fd5b8063c73fc729116100bd578063c73fc7291461020e578063cd6a84b314610337578063d0d063c0146102b357600080fd5b8063970d1d6f146102b35780639dca362f146102c6578063b3cae64c146102ce57600080fd5b80635a80e08011610145578063742fe1f81161011f578063742fe1f81461026d5780638290ea0e14610280578063839d2e60146102a057600080fd5b80635a80e080146102345780635cb2b6a714610247578063728ca6b01461025a57600080fd5b80632f913d79116101765780632f913d79146101fb5780633068e7941461020e578063439de4191461022157600080fd5b8063067681e81461019d57806306d47de9146101c657806307187eb2146101db575b600080fd5b6101b06101ab3660046123f0565b61040d565b6040516101bd9190612464565b60405180910390f35b6101d96101d4366004612477565b610454565b005b6101ee6101e93660046124b2565b6104e9565b6040516101bd91906125bb565b6101d9610209366004612615565b61062d565b6101d961021c3660046126ac565b6106c6565b6101d961022f366004612477565b610829565b6101d961024236600461271f565b610888565b6101b061025536600461277b565b610a04565b6101ee6102683660046124b2565b610a10565b6101d961027b366004612477565b610a9c565b61029361028e366004612798565b610b02565b6040516101bd919061281b565b6102936102ae366004612798565b610d74565b6101d96102c1366004612869565b610fd6565b6101d96110c9565b6102e16102dc3660046128b6565b6110d4565b6040516101bd9190600060e082019050825182526020830151602083015260408301516040830152606083015160608301526080830151608083015260a083015160a083015260c083015160c083015292915050565b61035e7f000000000000000000000000000000000000000000000000000000000000000081565b60405173ffffffffffffffffffffffffffffffffffffffff90911681526020016101bd565b6101d96103913660046128fa565b61112b565b3360009081526001602052604090205473ffffffffffffffffffffffffffffffffffffffff1661035e565b6101d96103cf366004612615565b6112f8565b6101d96103e23660046129eb565b611358565b6101d96103f5366004612477565b6114d7565b6101d96104083660046128fa565b61153d565b73ffffffffffffffffffffffffffffffffffffffff808316600090815260046020908152604080832093851683529290522060609061044b906116c1565b90505b92915050565b604080516020810182526000815290517f11753f7600000000000000000000000000000000000000000000000000000000815273ffffffffffffffffffffffffffffffffffffffff8416916311753f76916104b3918591600401612adc565b600060405180830381600087803b1580156104cd57600080fd5b505af11580156104e1573d6000803e3d6000fd5b505050505050565b6104f161236e565b73ffffffffffffffffffffffffffffffffffffffff851660008181526003602090815260408083208551845282529182902080547fffffffffffffffffffffffff0000000000000000000000000000000000000000163390811790915582518084018452908152808201879052915163b21837e09286928992610575929101612af5565b6040516020818303038152906040526040518463ffffffff1660e01b81526004016105a293929190612b22565b60c0604051808303816000875af11580156105c1573d6000803e3d6000fd5b505050506040513d601f19601f820116820180604052508101906105e59190612ca4565b805173ffffffffffffffffffffffffffffffffffffffff87166000908152600460209081526040808320338452909152902091925061062491906116d5565b50949350505050565b604080516020810182526000815290517fb9d3e69700000000000000000000000000000000000000000000000000000000815273ffffffffffffffffffffffffffffffffffffffff85169163b9d3e6979161068f918691869190600401612d0b565b600060405180830381600087803b1580156106a957600080fd5b505af11580156106bd573d6000803e3d6000fd5b50505050505050565b6002546040517f4a58e49e00000000000000000000000000000000000000000000000000000000815233600482015273ffffffffffffffffffffffffffffffffffffffff90911690634a58e49e90602401602060405180830381865afa158015610734573d6000803e3d6000fd5b505050506040513d601f19601f820116820180604052508101906107589190612d31565b61078e576040517fc4bbea6900000000000000000000000000000000000000000000000000000000815260040160405180910390fd5b3360008181526003602090815260408083208a84528252808320549383526004825280832073ffffffffffffffffffffffffffffffffffffffff9094168084529390915290206107de90886116e1565b50503360009081526003602090815260408083209883529790529590952080547fffffffffffffffffffffffff00000000000000000000000000000000000000001690555050505050565b604080516020810182526000815290517fabfefb9000000000000000000000000000000000000000000000000000000000815273ffffffffffffffffffffffffffffffffffffffff84169163abfefb90916104b3918591600401612adc565b6002546040517f4a58e49e00000000000000000000000000000000000000000000000000000000815233600482015273ffffffffffffffffffffffffffffffffffffffff90911690634a58e49e90602401602060405180830381865afa1580156108f6573d6000803e3d6000fd5b505050506040513d601f19601f8201168201806040525081019061091a9190612d31565b610950576040517fc4bbea6900000000000000000000000000000000000000000000000000000000815260040160405180910390fd5b600061095e82840184612d8e565b805160208083015160408051928301815260008352517ff242432a00000000000000000000000000000000000000000000000000000000815293945073ffffffffffffffffffffffffffffffffffffffff89169363f242432a936109cb93909233928b9290600401612daa565b600060405180830381600087803b1580156109e557600080fd5b505af11580156109f9573d6000803e3d6000fd5b505050505050505050565b606061044e823361040d565b610a1861236e565b73ffffffffffffffffffffffffffffffffffffffff851660008181526003602090815260408083208551845282529182902080547fffffffffffffffffffffffff00000000000000000000000000000000000000001633908117909155825180840184529081528082018790529151638c4bdb3f9286928992610575929101612af5565b610aa5336116ed565b6040517f742fe1f800000000000000000000000000000000000000000000000000000000815273ffffffffffffffffffffffffffffffffffffffff848116600483015260248201849052919091169063742fe1f8906044016104b3565b6060838214610b72576040517f08c379a000000000000000000000000000000000000000000000000000000000815260206004820152601e60248201527f5472616465526f757465723a20696e76616c696420617267756d656e7473000060448201526064015b60405180910390fd5b6000805b83811015610bac57848482818110610b9057610b90612def565b9050602002013582610ba29190612e4d565b9150600101610b76565b508773ffffffffffffffffffffffffffffffffffffffff166328700ad2888888888860405180604001604052803373ffffffffffffffffffffffffffffffffffffffff16815260200189815250604051602001610c099190612af5565b6040516020818303038152906040526040518763ffffffff1660e01b8152600401610c3996959493929190612e60565b6000604051808303816000875af1158015610c58573d6000803e3d6000fd5b505050506040513d6000823e601f3d9081017fffffffffffffffffffffffffffffffffffffffffffffffffffffffffffffffe0168201604052610c9e9190810190612f17565b915060005b85811015610d68576000838281518110610cbf57610cbf612def565b6020908102919091018101515173ffffffffffffffffffffffffffffffffffffffff8c16600090815260048352604080822033835290935291909120909150610d0890826116d5565b5073ffffffffffffffffffffffffffffffffffffffff8a1660009081526003602090815260408083209383529290522080547fffffffffffffffffffffffff00000000000000000000000000000000000000001633179055600101610ca3565b50509695505050505050565b6060838214610ddf576040517f08c379a000000000000000000000000000000000000000000000000000000000815260206004820152601e60248201527f5472616465526f757465723a20696e76616c696420617267756d656e747300006044820152606401610b69565b8673ffffffffffffffffffffffffffffffffffffffff1663766e1b17878787878760405180604001604052803373ffffffffffffffffffffffffffffffffffffffff1681526020018b8b808060200260200160405190810160405280939291908181526020018383602002808284376000920191909152505050915250604051610e6c9190602001612fb6565b6040516020818303038152906040526040518763ffffffff1660e01b8152600401610e9c96959493929190612e60565b6000604051808303816000875af1158015610ebb573d6000803e3d6000fd5b505050506040513d6000823e601f3d9081017fffffffffffffffffffffffffffffffffffffffffffffffffffffffffffffffe0168201604052610f019190810190612f17565b905060005b84811015610fcb576000828281518110610f2257610f22612def565b6020908102919091018101515173ffffffffffffffffffffffffffffffffffffffff8b16600090815260048352604080822033835290935291909120909150610f6b90826116d5565b5073ffffffffffffffffffffffffffffffffffffffff891660009081526003602090815260408083209383529290522080547fffffffffffffffffffffffff00000000000000000000000000000000000000001633179055600101610f06565b509695505050505050565b6002546040517f4a58e49e00000000000000000000000000000000000000000000000000000000815233600482015273ffffffffffffffffffffffffffffffffffffffff90911690634a58e49e90602401602060405180830381865afa158015611044573d6000803e3d6000fd5b505050506040513d601f19601f820116820180604052508101906110689190612d31565b61109e576040517fc4bbea6900000000000000000000000000000000000000000000000000000000815260040160405180910390fd5b60006110ac82840184612d8e565b90506110c285826000015186846020015161171c565b5050505050565b6110d2336117b7565b565b6111146040518060e00160405280600081526020016000815260200160008152602001600081526020016000815260200160008152602001600081525090565b61112186868686866118f7565b9695505050505050565b6002546040517f4a58e49e00000000000000000000000000000000000000000000000000000000815233600482015273ffffffffffffffffffffffffffffffffffffffff90911690634a58e49e90602401602060405180830381865afa158015611199573d6000803e3d6000fd5b505050506040513d601f19601f820116820180604052508101906111bd9190612d31565b6111f3576040517fc4bbea6900000000000000000000000000000000000000000000000000000000815260040160405180910390fd5b60005b898110156112eb5760008b8b8381811061121257611212612def565b336000908152600360209081526040808320938202959095013580835292905292909220549192505073ffffffffffffffffffffffffffffffffffffffff166112a28d8d8581811061126657611266612def565b33600090815260046020908152604080832073ffffffffffffffffffffffffffffffffffffffff891684528252909120939102013590506116e1565b50503360009081526003602090815260408083209383529290522080547fffffffffffffffffffffffff00000000000000000000000000000000000000001690556001016111f6565b5050505050505050505050565b604080516020810182526000815290517e3fb65300000000000000000000000000000000000000000000000000000000815273ffffffffffffffffffffffffffffffffffffffff851691623fb6539161068f918691869190600401612d0b565b6002546040517f4a58e49e00000000000000000000000000000000000000000000000000000000815233600482015273ffffffffffffffffffffffffffffffffffffffff90911690634a58e49e90602401602060405180830381865afa1580156113c6573d6000803e3d6000fd5b505050506040513d601f19601f820116820180604052508101906113ea9190612d31565b611420576040517fc4bbea6900000000000000000000000000000000000000000000000000000000815260040160405180910390fd5b600061142e82840184613019565b805160208083015160408051928301815260008352517f2eb2c2d600000000000000000000000000000000000000000000000000000000815293945073ffffffffffffffffffffffffffffffffffffffff8a1693632eb2c2d69361149d93909233928c928c92916004016130f1565b600060405180830381600087803b1580156114b757600080fd5b505af11580156114cb573d6000803e3d6000fd5b50505050505050505050565b6114e0336116ed565b6040517fe9fcf1f600000000000000000000000000000000000000000000000000000000815273ffffffffffffffffffffffffffffffffffffffff848116600483015260248201849052919091169063e9fcf1f6906044016104b3565b6002546040517f4a58e49e00000000000000000000000000000000000000000000000000000000815233600482015273ffffffffffffffffffffffffffffffffffffffff90911690634a58e49e90602401602060405180830381865afa1580156115ab573d6000803e3d6000fd5b505050506040513d601f19601f820116820180604052508101906115cf9190612d31565b611605576040517fc4bbea6900000000000000000000000000000000000000000000000000000000815260040160405180910390fd5b60005b898110156112eb5760008b8b8381811061162457611624612def565b336000908152600360209081526040808320938202959095013580835292905292909220549192505073ffffffffffffffffffffffffffffffffffffffff166116788d8d8581811061126657611266612def565b50503360009081526003602090815260408083209383529290522080547fffffffffffffffffffffffff0000000000000000000000000000000000000000169055600101611608565b606060006116ce83611a91565b9392505050565b600061044b8383611aed565b600061044b8383611b3c565b73ffffffffffffffffffffffffffffffffffffffff80821660009081526001602052604081205490911661044e565b6040805173ffffffffffffffffffffffffffffffffffffffff85811660248301528416604482015260648082018490528251808303909101815260849091019091526020810180517bffffffffffffffffffffffffffffffffffffffffffffffffffffffff167f23b872dd000000000000000000000000000000000000000000000000000000001790526117b1908590611c2f565b50505050565b73ffffffffffffffffffffffffffffffffffffffff81811660009081526001602052604090205416156117e957600080fd5b60006118147f0000000000000000000000000000000000000000000000000000000000000000611d43565b73ffffffffffffffffffffffffffffffffffffffff83811660008181526001602052604080822080547fffffffffffffffffffffffff00000000000000000000000000000000000000001694861694851790555193945090927fac631f3001b55ea1509cf3d7e74898f85392a61a76e8149181ae1259622dabc89190a36000546040517fc0c53b8b00000000000000000000000000000000000000000000000000000000815273ffffffffffffffffffffffffffffffffffffffff848116600483015230602483015291821660448201529082169063c0c53b8b906064016104b3565b6119376040518060e00160405280600081526020016000815260200160008152602001600081526020016000815260200160008152602001600081525090565b6000611942336116ed565b6040517fb3cae64c00000000000000000000000000000000000000000000000000000000815273ffffffffffffffffffffffffffffffffffffffff8981166004830152602482018990526044820188905260648201879052608482018690529192509082169063b3cae64c9060a40160e0604051808303816000875af11580156119d0573d6000803e3d6000fd5b505050506040513d601f19601f820116820180604052508101906119f49190613151565b91508073ffffffffffffffffffffffffffffffffffffffff163373ffffffffffffffffffffffffffffffffffffffff168873ffffffffffffffffffffffffffffffffffffffff167f9820c84cae9daeada0acab0daa816300a993400970f1f5b0f1a4e2a5029d78098560c00151611a6f8c8860c00151611e0b565b6040805192835260208301919091520160405180910390a45095945050505050565b606081600001805480602002602001604051908101604052809291908181526020018280548015611ae157602002820191906000526020600020905b815481526020019060010190808311611acd575b50505050509050919050565b6000818152600183016020526040812054611b345750815460018181018455600084815260208082209093018490558454848252828601909352604090209190915561044e565b50600061044e565b60008181526001830160205260408120548015611c25576000611b606001836131d5565b8554909150600090611b74906001906131d5565b9050818114611bd9576000866000018281548110611b9457611b94612def565b9060005260206000200154905080876000018481548110611bb757611bb7612def565b6000918252602080832090910192909255918252600188019052604090208390555b8554869080611bea57611bea6131e8565b60019003818190600052602060002001600090559055856001016000868152602001908152602001600020600090556001935050505061044e565b600091505061044e565b6000611c91826040518060400160405280602081526020017f5361666545524332303a206c6f772d6c6576656c2063616c6c206661696c65648152508573ffffffffffffffffffffffffffffffffffffffff1661202f9092919063ffffffff16565b9050805160001480611cb2575080806020019051810190611cb29190612d31565b611d3e576040517f08c379a000000000000000000000000000000000000000000000000000000000815260206004820152602a60248201527f5361666545524332303a204552433230206f7065726174696f6e20646964206e60448201527f6f742073756363656564000000000000000000000000000000000000000000006064820152608401610b69565b505050565b6000763d602d80600a3d3981f3363d3d373d3d3d363d730000008260601b60e81c176000526e5af43d82803e903d91602b57fd5bf38260781b17602052603760096000f0905073ffffffffffffffffffffffffffffffffffffffff8116611e06576040517f08c379a000000000000000000000000000000000000000000000000000000000815260206004820152601660248201527f455243313136373a20637265617465206661696c6564000000000000000000006044820152606401610b69565b919050565b6000808373ffffffffffffffffffffffffffffffffffffffff16637b9e618d6040518163ffffffff1660e01b8152600401602060405180830381865afa158015611e59573d6000803e3d6000fd5b505050506040513d601f19601f82011682018060405250810190611e7d9190613217565b6002546040517f6b9067f300000000000000000000000000000000000000000000000000000000815273ffffffffffffffffffffffffffffffffffffffff808416600483015292935060009290911690636b9067f390602401602060405180830381865afa158015611ef3573d6000803e3d6000fd5b505050506040513d601f19601f82011682018060405250810190611f179190613217565b905060008173ffffffffffffffffffffffffffffffffffffffff16639d888e866040518163ffffffff1660e01b8152600401606060405180830381865afa158015611f66573d6000803e3d6000fd5b505050506040513d601f19601f82011682018060405250810190611f8a9190613234565b6040015190506000611f9c8282612046565b9050612024818573ffffffffffffffffffffffffffffffffffffffff1663313ce5676040518163ffffffff1660e01b8152600401602060405180830381865afa158015611fed573d6000803e3d6000fd5b505050506040513d601f19601f820116820180604052508101906120119190613290565b61201c90600a6133d3565b88919061205c565b979650505050505050565b606061203e8484600085612186565b949350505050565b6000818313612055578161044b565b5090919050565b600080807fffffffffffffffffffffffffffffffffffffffffffffffffffffffffffffffff858709858702925082811083820303915050806000036120b4578382816120aa576120aa6133e2565b04925050506116ce565b80841161211d576040517f08c379a000000000000000000000000000000000000000000000000000000000815260206004820152601560248201527f4d6174683a206d756c446976206f766572666c6f7700000000000000000000006044820152606401610b69565b60008486880960026001871981018816978890046003810283188082028403028082028403028082028403028082028403028082028403029081029092039091026000889003889004909101858311909403939093029303949094049190911702949350505050565b606082471015612218576040517f08c379a000000000000000000000000000000000000000000000000000000000815260206004820152602660248201527f416464726573733a20696e73756666696369656e742062616c616e636520666f60448201527f722063616c6c00000000000000000000000000000000000000000000000000006064820152608401610b69565b6000808673ffffffffffffffffffffffffffffffffffffffff1685876040516122419190613411565b60006040518083038185875af1925050503d806000811461227e576040519150601f19603f3d011682016040523d82523d6000602084013e612283565b606091505b5091509150612024878383876060831561232557825160000361231e5773ffffffffffffffffffffffffffffffffffffffff85163b61231e576040517f08c379a000000000000000000000000000000000000000000000000000000000815260206004820152601d60248201527f416464726573733a2063616c6c20746f206e6f6e2d636f6e74726163740000006044820152606401610b69565b508161203e565b61203e838381511561233a5781518083602001fd5b806040517f08c379a0000000000000000000000000000000000000000000000000000000008152600401610b69919061342d565b6040518060c00160405280600081526020016000815260200160008152602001600073ffffffffffffffffffffffffffffffffffffffff168152602001600060018111156123be576123be612505565b8152600060209091015290565b73ffffffffffffffffffffffffffffffffffffffff811681146123ed57600080fd5b50565b6000806040838503121561240357600080fd5b823561240e816123cb565b9150602083013561241e816123cb565b809150509250929050565b600081518084526020808501945080840160005b838110156124595781518752958201959082019060010161243d565b509495945050505050565b60208152600061044b6020830184612429565b6000806040838503121561248a57600080fd5b8235612495816123cb565b946020939093013593505050565b8060010b81146123ed57600080fd5b600080600080608085870312156124c857600080fd5b84356124d3816123cb565b935060208501356124e3816124a3565b92506040850135915060608501356124fa816123cb565b939692955090935050565b7f4e487b7100000000000000000000000000000000000000000000000000000000600052602160045260246000fd5b80518252602081015160208301526040810151604083015273ffffffffffffffffffffffffffffffffffffffff60608201511660608301526080810151600281106125a8577f4e487b7100000000000000000000000000000000000000000000000000000000600052602160045260246000fd5b608083015260a09081015160010b910152565b60c0810161044e8284612534565b60008083601f8401126125db57600080fd5b50813567ffffffffffffffff8111156125f357600080fd5b6020830191508360208260051b850101111561260e57600080fd5b9250929050565b60008060006040848603121561262a57600080fd5b8335612635816123cb565b9250602084013567ffffffffffffffff81111561265157600080fd5b61265d868287016125c9565b9497909650939450505050565b60008083601f84011261267c57600080fd5b50813567ffffffffffffffff81111561269457600080fd5b60208301915083602082850101111561260e57600080fd5b60008060008060008060a087890312156126c557600080fd5b8635955060208701356126d7816124a3565b94506040870135935060608701359250608087013567ffffffffffffffff81111561270157600080fd5b61270d89828a0161266a565b979a9699509497509295939492505050565b6000806000806060858703121561273557600080fd5b8435612740816123cb565b935060208501359250604085013567ffffffffffffffff81111561276357600080fd5b61276f8782880161266a565b95989497509550505050565b60006020828403121561278d57600080fd5b81356116ce816123cb565b600080600080600080608087890312156127b157600080fd5b86356127bc816123cb565b955060208701356127cc816123cb565b9450604087013567ffffffffffffffff808211156127e957600080fd5b6127f58a838b016125c9565b9096509450606089013591508082111561280e57600080fd5b5061270d89828a016125c9565b6020808252825182820181905260009190848201906040850190845b8181101561285d5761284a838551612534565b9284019260c09290920191600101612837565b50909695505050505050565b6000806000806060858703121561287f57600080fd5b843561288a816123cb565b9350602085013561289a816123cb565b9250604085013567ffffffffffffffff81111561276357600080fd5b600080600080600060a086880312156128ce57600080fd5b85356128d9816123cb565b97602087013597506040870135966060810135965060800135945092505050565b60008060008060008060008060008060a08b8d03121561291957600080fd5b8a3567ffffffffffffffff8082111561293157600080fd5b61293d8e838f016125c9565b909c509a5060208d013591508082111561295657600080fd5b6129628e838f016125c9565b909a50985060408d013591508082111561297b57600080fd5b6129878e838f016125c9565b909850965060608d01359150808211156129a057600080fd5b6129ac8e838f016125c9565b909650945060808d01359150808211156129c557600080fd5b506129d28d828e0161266a565b915080935050809150509295989b9194979a5092959850565b600080600080600060608688031215612a0357600080fd5b8535612a0e816123cb565b9450602086013567ffffffffffffffff80821115612a2b57600080fd5b612a3789838a016125c9565b90965094506040880135915080821115612a5057600080fd5b50612a5d8882890161266a565b969995985093965092949392505050565b60005b83811015612a89578181015183820152602001612a71565b50506000910152565b60008151808452612aaa816020860160208601612a6e565b601f017fffffffffffffffffffffffffffffffffffffffffffffffffffffffffffffffe0169290920160200192915050565b82815260406020820152600061203e6040830184612a92565b815173ffffffffffffffffffffffffffffffffffffffff168152602080830151908201526040810161044e565b73ffffffffffffffffffffffffffffffffffffffff841681528260010b6020820152606060408201526000612b5a6060830184612a92565b95945050505050565b7f4e487b7100000000000000000000000000000000000000000000000000000000600052604160045260246000fd5b6040805190810167ffffffffffffffff81118282101715612bb557612bb5612b63565b60405290565b604051601f82017fffffffffffffffffffffffffffffffffffffffffffffffffffffffffffffffe016810167ffffffffffffffff81118282101715612c0257612c02612b63565b604052919050565b600060c08284031215612c1c57600080fd5b60405160c0810181811067ffffffffffffffff82111715612c3f57612c3f612b63565b80604052508091508251815260208301516020820152604083015160408201526060830151612c6d816123cb565b6060820152608083015160028110612c8457600080fd5b608082015260a0830151612c97816124a3565b60a0919091015292915050565b600060c08284031215612cb657600080fd5b61044b8383612c0a565b81835260007f07ffffffffffffffffffffffffffffffffffffffffffffffffffffffffffffff831115612cf257600080fd5b8260051b80836020870137939093016020019392505050565b604081526000612d1f604083018587612cc0565b82810360208401526111218185612a92565b600060208284031215612d4357600080fd5b815180151581146116ce57600080fd5b600060408284031215612d6557600080fd5b612d6d612b92565b90508135612d7a816123cb565b808252506020820135602082015292915050565b600060408284031215612da057600080fd5b61044b8383612d53565b600073ffffffffffffffffffffffffffffffffffffffff808816835280871660208401525084604083015283606083015260a0608083015261202460a0830184612a92565b7f4e487b7100000000000000000000000000000000000000000000000000000000600052603260045260246000fd5b7f4e487b7100000000000000000000000000000000000000000000000000000000600052601160045260246000fd5b8082018082111561044e5761044e612e1e565b73ffffffffffffffffffffffffffffffffffffffff8716815260806020808301829052908201869052600090879060a08401835b89811015612ebc578335612ea7816124a3565b600190810b8352938301939183019101612e94565b508481036040860152612ed081888a612cc0565b925050508281036060840152612ee68185612a92565b9998505050505050505050565b600067ffffffffffffffff821115612f0d57612f0d612b63565b5060051b60200190565b60006020808385031215612f2a57600080fd5b825167ffffffffffffffff811115612f4157600080fd5b8301601f81018513612f5257600080fd5b8051612f65612f6082612ef3565b612bbb565b81815260c09182028301840191848201919088841115612f8457600080fd5b938501935b83851015612faa57612f9b8986612c0a565b83529384019391850191612f89565b50979650505050505050565b6020808252825173ffffffffffffffffffffffffffffffffffffffff16828201528281015160408084015280516060840181905260009291820190839060808601905b80831015610fcb5783518252928401926001929092019190840190612ff9565b6000602080838503121561302c57600080fd5b823567ffffffffffffffff8082111561304457600080fd5b908401906040828703121561305857600080fd5b613060612b92565b823561306b816123cb565b8152828401358281111561307e57600080fd5b80840193505086601f84011261309357600080fd5b823591506130a3612f6083612ef3565b82815260059290921b830184019184810190888411156130c257600080fd5b938501935b838510156130e0578435825293850193908501906130c7565b948201949094529695505050505050565b600073ffffffffffffffffffffffffffffffffffffffff808916835280881660208401525060a0604083015261312b60a083018688612cc0565b828103606084015261313d8186612429565b90508281036080840152612ee68185612a92565b600060e0828403121561316357600080fd5b60405160e0810181811067ffffffffffffffff8211171561318657613186612b63565b8060405250825181526020830151602082015260408301516040820152606083015160608201526080830151608082015260a083015160a082015260c083015160c08201528091505092915050565b8181038181111561044e5761044e612e1e565b7f4e487b7100000000000000000000000000000000000000000000000000000000600052603160045260246000fd5b60006020828403121561322957600080fd5b81516116ce816123cb565b60006060828403121561324657600080fd5b6040516060810181811067ffffffffffffffff8211171561326957613269612b63565b80604052508251815260208301516020820152604083015160408201528091505092915050565b6000602082840312156132a257600080fd5b815160ff811681146116ce57600080fd5b600181815b8085111561330c57817fffffffffffffffffffffffffffffffffffffffffffffffffffffffffffffffff048211156132f2576132f2612e1e565b808516156132ff57918102915b93841c93908002906132b8565b509250929050565b6000826133235750600161044e565b816133305750600061044e565b816001811461334657600281146133505761336c565b600191505061044e565b60ff84111561336157613361612e1e565b50506001821b61044e565b5060208310610133831016604e8410600b841016171561338f575081810a61044e565b61339983836132b3565b807fffffffffffffffffffffffffffffffffffffffffffffffffffffffffffffffff048211156133cb576133cb612e1e565b029392505050565b600061044b60ff841683613314565b7f4e487b7100000000000000000000000000000000000000000000000000000000600052601260045260246000fd5b60008251613423818460208701612a6e565b9190910192915050565b60208152600061044b6020830184612a9256fea26469706673582212200cfd7dcd201fd6e06b0d30bd1a0fc2f7cc2523b5cb0b2413cfaa4d09b77fcc4c64736f6c63430008130033608060405234801561001057600080fd5b50611a6b806100206000396000f3fe608060405234801561001057600080fd5b50600436106100be5760003560e01c8063e19e633211610076578063e6b67d461161005b578063e6b67d46146101c4578063e9fcf1f6146101e7578063f3fef3a3146101fa57600080fd5b8063e19e633214610190578063e3d670d7146101a357600080fd5b80637cf675b2116100a75780637cf675b214610101578063b3cae64c14610114578063c0c53b8b1461017d57600080fd5b806328fe7031146100c3578063742fe1f8146100ec575b600080fd5b6100d66100d136600461125e565b61020d565b6040516100e39190611279565b60405180910390f35b6100ff6100fa3660046112bd565b610244565b005b6100ff61010f366004611561565b6103d6565b610127610122366004611688565b610545565b6040516100e39190600060e082019050825182526020830151602083015260408301516040830152606083015160608301526080830151608083015260a083015160a083015260c083015160c083015292915050565b6100ff61018b3660046116ca565b610730565b6100ff61019e36600461170d565b61087f565b6101b66101b136600461125e565b61099b565b6040519081526020016100e3565b6101d76101d23660046112bd565b610a2c565b60405190151581526020016100e3565b6100ff6101f53660046112bd565b610a62565b6100ff6102083660046112bd565b610b8b565b73ffffffffffffffffffffffffffffffffffffffff8116600090815260036020526040902060609061023e90610c47565b92915050565b60025473ffffffffffffffffffffffffffffffffffffffff163314610295576040517f9165520100000000000000000000000000000000000000000000000000000000815260040160405180910390fd5b61029f8282610a2c565b6102d5576040517f5690b01600000000000000000000000000000000000000000000000000000000815260040160405180910390fd5b6040517fa126d6010000000000000000000000000000000000000000000000000000000081526004810182905260009073ffffffffffffffffffffffffffffffffffffffff84169063a126d601906024016060604051808303816000875af1158015610345573d6000803e3d6000fd5b505050506040513d601f19601f82011682018060405250810190610369919061177c565b905080600001518373ffffffffffffffffffffffffffffffffffffffff167f60d2d76145abf40e85498d9f144bcc4e67a6dd3827f6ab2ef67d82d4514ee562836020015184604001516040516103c9929190918252602082015260400190565b60405180910390a3505050565b6000546040517f4a58e49e00000000000000000000000000000000000000000000000000000000815233600482015273ffffffffffffffffffffffffffffffffffffffff90911690634a58e49e90602401602060405180830381865afa158015610444573d6000803e3d6000fd5b505050506040513d601f19601f8201168201806040525081019061046891906117d8565b61049e576040517fc4bbea6900000000000000000000000000000000000000000000000000000000815260040160405180910390fd5b6104ac338560000151610c54565b82516020808501516040808701516060808901516080808b015160a0808d015187519889529888019590955294860191909152908401929092527fffffffff000000000000000000000000000000000000000000000000000000009093169082015233929183917f598500ff1fcc3ef7ed120b4b4ec5cb45458412d62d75c9133c21b93548d32585910160405180910390a35050505050565b6105856040518060e00160405280600081526020016000815260200160008152602001600081526020016000815260200160008152602001600081525090565b60025473ffffffffffffffffffffffffffffffffffffffff1633146105d6576040517f9165520100000000000000000000000000000000000000000000000000000000815260040160405180910390fd5b604080516020810182526000815290517f40a2940700000000000000000000000000000000000000000000000000000000815273ffffffffffffffffffffffffffffffffffffffff8816916340a294079161063c91899189918991899190600401611868565b60e0604051808303816000875af115801561065b573d6000803e3d6000fd5b505050506040513d601f19601f8201168201806040525081019061067f9190611893565b905061068f868260000151610c88565b80600001518673ffffffffffffffffffffffffffffffffffffffff167fca6fb7cc7d38ad78f6b822638446ef1268cc776f2b527b7a9e619fb7f3f06d0e83602001518460400151856060015186608001518760a001518860c0015160405161071f96959493929190958652602086019490945260408501929092526060840152608083015260a082015260c00190565b60405180910390a395945050505050565b60025474010000000000000000000000000000000000000000900460ff1615610785576040517f0dc149f000000000000000000000000000000000000000000000000000000000815260040160405180910390fd5b73ffffffffffffffffffffffffffffffffffffffff83166107a557600080fd5b73ffffffffffffffffffffffffffffffffffffffff82166107c557600080fd5b73ffffffffffffffffffffffffffffffffffffffff81166107e557600080fd5b6001805473ffffffffffffffffffffffffffffffffffffffff9485167fffffffffffffffffffffffff000000000000000000000000000000000000000091821617909155600280547fffffffffffffffffffffff0000000000000000000000000000000000000000001693851693909317740100000000000000000000000000000000000000001790925560008054919093169116179055565b6000546040517f4a58e49e00000000000000000000000000000000000000000000000000000000815233600482015273ffffffffffffffffffffffffffffffffffffffff90911690634a58e49e90602401602060405180830381865afa1580156108ed573d6000803e3d6000fd5b505050506040513d601f19601f8201168201806040525081019061091191906117d8565b610947576040517fc4bbea6900000000000000000000000000000000000000000000000000000000815260040160405180910390fd5b826109518661099b565b1015610989576040517fad3a8b9e00000000000000000000000000000000000000000000000000000000815260040160405180910390fd5b610994858585610cb7565b5050505050565b6040517f70a0823100000000000000000000000000000000000000000000000000000000815230600482015260009073ffffffffffffffffffffffffffffffffffffffff8316906370a0823190602401602060405180830381865afa158015610a08573d6000803e3d6000fd5b505050506040513d601f19601f8201168201806040525081019061023e9190611917565b73ffffffffffffffffffffffffffffffffffffffff82166000908152600360205260408120610a5b9083610d44565b9392505050565b60025473ffffffffffffffffffffffffffffffffffffffff163314610ab3576040517f9165520100000000000000000000000000000000000000000000000000000000815260040160405180910390fd5b610abd8282610a2c565b610af3576040517f5690b01600000000000000000000000000000000000000000000000000000000815260040160405180910390fd5b604080516020810182526000815290517fd22c7a4500000000000000000000000000000000000000000000000000000000815273ffffffffffffffffffffffffffffffffffffffff84169163d22c7a4591610b55918591309190600401611930565b600060405180830381600087803b158015610b6f57600080fd5b505af1158015610b83573d6000803e3d6000fd5b505050505050565b60015473ffffffffffffffffffffffffffffffffffffffff163314610bdc576040517f30cd747100000000000000000000000000000000000000000000000000000000815260040160405180910390fd5b80610be68361099b565b1015610c1e576040517fad3a8b9e00000000000000000000000000000000000000000000000000000000815260040160405180910390fd5b600154610c4390839073ffffffffffffffffffffffffffffffffffffffff1683610cb7565b5050565b60606000610a5b83610d5c565b73ffffffffffffffffffffffffffffffffffffffff82166000908152600360205260409020610c839082610db8565b505050565b73ffffffffffffffffffffffffffffffffffffffff82166000908152600360205260409020610c839082610dc4565b6040805173ffffffffffffffffffffffffffffffffffffffff8416602482015260448082018490528251808303909101815260649091019091526020810180517bffffffffffffffffffffffffffffffffffffffffffffffffffffffff167fa9059cbb00000000000000000000000000000000000000000000000000000000179052610c83908490610dd0565b60008181526001830160205260408120541515610a5b565b606081600001805480602002602001604051908101604052809291908181526020018280548015610dac57602002820191906000526020600020905b815481526020019060010190808311610d98575b50505050509050919050565b6000610a5b8383610ee4565b6000610a5b8383610fd7565b6000610e32826040518060400160405280602081526020017f5361666545524332303a206c6f772d6c6576656c2063616c6c206661696c65648152508573ffffffffffffffffffffffffffffffffffffffff166110269092919063ffffffff16565b9050805160001480610e53575080806020019051810190610e5391906117d8565b610c83576040517f08c379a000000000000000000000000000000000000000000000000000000000815260206004820152602a60248201527f5361666545524332303a204552433230206f7065726174696f6e20646964206e60448201527f6f7420737563636565640000000000000000000000000000000000000000000060648201526084015b60405180910390fd5b60008181526001830160205260408120548015610fcd576000610f0860018361196e565b8554909150600090610f1c9060019061196e565b9050818114610f81576000866000018281548110610f3c57610f3c6119a8565b9060005260206000200154905080876000018481548110610f5f57610f5f6119a8565b6000918252602080832090910192909255918252600188019052604090208390555b8554869080610f9257610f926119d7565b60019003818190600052602060002001600090559055856001016000868152602001908152602001600020600090556001935050505061023e565b600091505061023e565b600081815260018301602052604081205461101e5750815460018181018455600084815260208082209093018490558454848252828601909352604090209190915561023e565b50600061023e565b6060611035848460008561103d565b949350505050565b6060824710156110cf576040517f08c379a000000000000000000000000000000000000000000000000000000000815260206004820152602660248201527f416464726573733a20696e73756666696369656e742062616c616e636520666f60448201527f722063616c6c00000000000000000000000000000000000000000000000000006064820152608401610edb565b6000808673ffffffffffffffffffffffffffffffffffffffff1685876040516110f89190611a06565b60006040518083038185875af1925050503d8060008114611135576040519150601f19603f3d011682016040523d82523d6000602084013e61113a565b606091505b509150915061114b87838387611156565b979650505050505050565b606083156111ec5782516000036111e55773ffffffffffffffffffffffffffffffffffffffff85163b6111e5576040517f08c379a000000000000000000000000000000000000000000000000000000000815260206004820152601d60248201527f416464726573733a2063616c6c20746f206e6f6e2d636f6e74726163740000006044820152606401610edb565b5081611035565b61103583838151156112015781518083602001fd5b806040517f08c379a0000000000000000000000000000000000000000000000000000000008152600401610edb9190611a22565b803573ffffffffffffffffffffffffffffffffffffffff8116811461125957600080fd5b919050565b60006020828403121561127057600080fd5b610a5b82611235565b6020808252825182820181905260009190848201906040850190845b818110156112b157835183529284019291840191600101611295565b50909695505050505050565b600080604083850312156112d057600080fd5b6112d983611235565b946020939093013593505050565b7f4e487b7100000000000000000000000000000000000000000000000000000000600052604160045260246000fd5b6040805190810167ffffffffffffffff81118282101715611339576113396112e7565b60405290565b604051610160810167ffffffffffffffff81118282101715611339576113396112e7565b604051601f82017fffffffffffffffffffffffffffffffffffffffffffffffffffffffffffffffe016810167ffffffffffffffff811182821017156113aa576113aa6112e7565b604052919050565b803561ffff8116811461125957600080fd5b600082601f8301126113d557600080fd5b8135602067ffffffffffffffff8211156113f1576113f16112e7565b6113ff818360051b01611363565b82815260069290921b8401810191818101908684111561141e57600080fd5b8286015b84811015611464576040818903121561143b5760008081fd5b611443611316565b61144c826113b2565b81528185013585820152835291830191604001611422565b509695505050505050565b600060c0828403121561148157600080fd5b60405160c0810181811067ffffffffffffffff821117156114a4576114a46112e7565b8060405250809150823581526020830135602082015260408301356040820152606083013560608201526080830135608082015260a08301357fffffffff000000000000000000000000000000000000000000000000000000008116811461150b57600080fd5b60a0919091015292915050565b60008083601f84011261152a57600080fd5b50813567ffffffffffffffff81111561154257600080fd5b60208301915083602082850101111561155a57600080fd5b9250929050565b60008060008061010080868803121561157957600080fd5b853567ffffffffffffffff8082111561159157600080fd5b90870190610160828a0312156115a657600080fd5b6115ae61133f565b823581526020830135602082015260408301356040820152606083013560608201526080830135608082015260a083013560a082015260c083013560c08201526115fa60e08401611235565b60e082015261160a848401611235565b84820152610120935061161e8484016113b2565b848201526101409350838301358281111561163857600080fd5b6116448b8286016113c4565b828601525096506116588960208a0161146f565b955060e088013592508083111561166e57600080fd5b505061167c87828801611518565b95989497509550505050565b600080600080600060a086880312156116a057600080fd5b6116a986611235565b97602087013597506040870135966060810135965060800135945092505050565b6000806000606084860312156116df57600080fd5b6116e884611235565b92506116f660208501611235565b915061170460408501611235565b90509250925092565b60008060008060006080868803121561172557600080fd5b61172e86611235565b945061173c60208701611235565b935060408601359250606086013567ffffffffffffffff81111561175f57600080fd5b61176b88828901611518565b969995985093965092949392505050565b60006060828403121561178e57600080fd5b6040516060810181811067ffffffffffffffff821117156117b1576117b16112e7565b80604052508251815260208301516020820152604083015160408201528091505092915050565b6000602082840312156117ea57600080fd5b81518015158114610a5b57600080fd5b60005b838110156118155781810151838201526020016117fd565b50506000910152565b600081518084526118368160208601602086016117fa565b601f017fffffffffffffffffffffffffffffffffffffffffffffffffffffffffffffffe0169290920160200192915050565b85815284602082015283604082015282606082015260a06080820152600061114b60a083018461181e565b600060e082840312156118a557600080fd5b60405160e0810181811067ffffffffffffffff821117156118c8576118c86112e7565b8060405250825181526020830151602082015260408301516040820152606083015160608201526080830151608082015260a083015160a082015260c083015160c08201528091505092915050565b60006020828403121561192957600080fd5b5051919050565b83815273ffffffffffffffffffffffffffffffffffffffff83166020820152606060408201526000611965606083018461181e565b95945050505050565b8181038181111561023e577f4e487b7100000000000000000000000000000000000000000000000000000000600052601160045260246000fd5b7f4e487b7100000000000000000000000000000000000000000000000000000000600052603260045260246000fd5b7f4e487b7100000000000000000000000000000000000000000000000000000000600052603160045260246000fd5b60008251611a188184602087016117fa565b9190910192915050565b602081526000610a5b602083018461181e56fea26469706673582212200f3f11c8f1461cfb0dbae83d93e85da78e84513014c1918760a7644c0466481d64736f6c63430008130033",
  "devdoc": {
    "details": "A router contract that facilitates liquidity provision and trading on Chromatic.",
    "errors": {
      "NotMarket()": [
        {
          "details": "Throws an error indicating that the caller is not a registered market."
        }
      ],
      "OnlyAccessableByDao()": [
        {
          "details": "Throws an error indicating that the caller is not the DAO."
        }
      ]
    },
    "events": {
      "AccountCreated(address,address)": {
        "details": "Emitted when a new account is created.",
        "params": {
          "account": "The address of the created account.",
          "owner": "The address of the owner of the created account."
        }
      },
      "OpenPosition(address,address,address,uint256,uint256)": {
        "details": "Emitted when a position is opened.",
        "params": {
          "account": "The account The address of the account opening the position.",
          "marketAddress": "The address of the market.",
          "trader": "The owner of The account",
          "tradingFee": "The trading fee associated with the position.",
          "tradingFeeUSD": "The trading fee in USD"
        }
      }
    },
    "kind": "dev",
    "methods": {
      "addLiquidity(address,int16,uint256,address)": {
        "params": {
          "amount": "The amount to add as liquidity.",
          "feeRate": "The fee rate of the liquidity bin.",
          "market": "The address of the ChromaticMarket contract.",
          "recipient": "The recipient address."
        },
        "returns": {
          "receipt": "The LP receipt."
        }
      },
      "addLiquidityBatch(address,address,int16[],uint256[])": {
        "params": {
          "amounts": "An array of amounts to add as liquidity for each bin.",
          "feeRates": "An array of fee rates for each liquidity bin.",
          "market": "The address of the ChromaticMarket contract.",
          "recipient": "The address of the recipient for each liquidity bin."
        },
        "returns": {
          "lpReceipts": "An array of LP receipts."
        }
      },
      "addLiquidityBatchCallback(address,address,bytes)": {
        "params": {
          "data": "Additional data associated with the liquidity addition.",
          "settlementToken": "The address of the settlement token used for adding liquidity.",
          "vault": "The address of the vault where the liquidity is added."
        }
      },
      "addLiquidityCallback(address,address,bytes)": {
        "params": {
          "data": "Additional data associated with the liquidity addition.",
          "settlementToken": "The address of the settlement token used for adding liquidity.",
          "vault": "The address of the vault where the liquidity is added."
        }
      },
      "claimLiquidity(address,uint256)": {
        "details": "This function allows the liquidity provider to claim their liquidity by calling the `claimLiquidity` function in the specified market contract.",
        "params": {
          "market": "The address of the ChromaticMarket contract.",
          "receiptId": "The ID of the LP receipt."
        }
      },
      "claimLiquidityBatch(address,uint256[])": {
        "params": {
          "market": "The address of the ChromaticMarket contract.",
          "receiptIds": "An array of LP receipt IDs to claim liquidity from."
        }
      },
      "claimLiquidityBatchCallback(uint256[],int16[],uint256[],uint256[],bytes)": {
        "params": {
          "data": "Additional data associated with the liquidity claim.",
          "depositedAmounts": "The array of deposited liquidity amounts for each receipt in the batch.",
          "feeRates": "The array of trading fee rates associated with each claim in the batch.",
          "mintedCLBTokenAmounts": "The array of CLB token amounts minted for each receipt in the batch.",
          "receiptIds": "The array of the liquidity receipt IDs."
        }
      },
      "claimLiquidityCallback(uint256,int16,uint256,uint256,bytes)": {
        "params": {
          "data": "Additional data associated with the liquidity claim.",
          "depositedAmount": "The amount of liquidity deposited.",
          "feeRate": "The trading fee rate associated with the liquidity claim.",
          "mintedCLBTokenAmount": "The amount of CLB tokens minted as liquidity.",
          "receiptId": "The ID of the liquidity claim receipt."
        }
      },
      "claimPosition(address,uint256)": {
        "params": {
          "market": "The address of the ChromaticMarket contract.",
          "positionId": "The ID of the position to claim."
        }
      },
      "closePosition(address,uint256)": {
        "params": {
          "market": "The address of the ChromaticMarket contract.",
          "positionId": "The ID of the position to close."
        }
      },
      "constructor": {
        "details": "Initializes the ChromaticRouter contract.",
        "params": {
          "_marketFactory": "The address of the ChromaticMarketFactory contract."
        }
      },
      "createAccount()": {
        "details": "Only one account can be created per user.      Emits an `AccountCreated` event upon successful creation."
      },
      "getAccount()": {
        "returns": {
          "_0": "The account address."
        }
      },
      "getLpReceiptIds(address)": {
        "params": {
          "market": "The address of the ChromaticMarket contract."
        },
        "returns": {
          "_0": "An array of LP receipt IDs."
        }
      },
      "getLpReceiptIds(address,address)": {
        "params": {
          "market": "The address of the ChromaticMarket contract.",
          "owner": "The address of the owner."
        },
        "returns": {
          "_0": "An array of LP receipt IDs."
        }
      },
      "openPosition(address,int256,uint256,uint256,uint256)": {
        "details": "Opens a new position in a ChromaticMarket contract.",
        "params": {
          "makerMargin": "The margin amount for the maker.",
          "market": "The address of the ChromaticMarket contract.",
          "maxAllowableTradingFee": "The maximum allowable trading fee.",
          "qty": "The quantity of the position.",
          "takerMargin": "The margin amount for the taker."
        },
        "returns": {
          "_0": "position The new position."
        }
      },
      "removeLiquidity(address,int16,uint256,address)": {
        "params": {
          "clbTokenAmount": "The amount of CLB tokens to remove as liquidity.",
          "feeRate": "The fee rate of the liquidity bin.",
          "market": "The address of the ChromaticMarket contract.",
          "recipient": "The recipient address."
        },
        "returns": {
          "receipt": "The LP receipt."
        }
      },
      "removeLiquidityBatch(address,address,int16[],uint256[])": {
        "params": {
          "clbTokenAmounts": "An array of CLB token amounts to remove as liquidity for each bin.",
          "feeRates": "An array of fee rates for each liquidity bin.",
          "market": "The address of the ChromaticMarket contract.",
          "recipient": "The address of the recipient for each liquidity bin."
        },
        "returns": {
          "lpReceipts": "An array of LP receipts."
        }
      },
      "removeLiquidityBatchCallback(address,uint256[],bytes)": {
        "params": {
          "clbToken": "The address of the Chromatic liquidity token.",
          "clbTokenIds": "The array of the Chromatic liquidity token IDs to be removed.",
          "data": "Additional data associated with the liquidity removal."
        }
      },
      "removeLiquidityCallback(address,uint256,bytes)": {
        "params": {
          "clbToken": "The address of the Chromatic liquidity token.",
          "clbTokenId": "The ID of the Chromatic liquidity token to be removed.",
          "data": "Additional data associated with the liquidity removal."
        }
      },
      "withdrawLiquidity(address,uint256)": {
        "details": "This function allows the liquidity provider to withdraw their liquidity by calling the `withdrawLiquidity` function in the specified market contract.",
        "params": {
          "market": "The address of the ChromaticMarket contract.",
          "receiptId": "The ID of the LP receipt."
        }
      },
      "withdrawLiquidityBatch(address,uint256[])": {
        "params": {
          "market": "The address of the ChromaticMarket contract.",
          "receiptIds": "An array of LP receipt IDs to withdraw liquidity from."
        }
      },
      "withdrawLiquidityBatchCallback(uint256[],int16[],uint256[],uint256[],bytes)": {
        "params": {
          "burnedCLBTokenAmounts": "The array of CLB token amounts burned for each receipt in the batch.",
          "data": "Additional data associated with the liquidity withdrawal.",
          "feeRates": "The array of trading fee rates associated with each withdrawal in the batch.",
          "receiptIds": "The array of the liquidity receipt IDs.",
          "withdrawnAmounts": "The array of withdrawn liquidity amounts for each receipt in the batch."
        }
      },
      "withdrawLiquidityCallback(uint256,int16,uint256,uint256,bytes)": {
        "params": {
          "burnedCLBTokenAmount": "The amount of CLB tokens burned during the withdrawal.",
          "data": "Additional data associated with the liquidity withdrawal.",
          "feeRate": "The trading fee rate associated with the liquidity withdrawal.",
          "receiptId": "The ID of the liquidity withdrawal receipt.",
          "withdrawnAmount": "The amount of liquidity that has been withdrawn."
        }
      }
    },
    "title": "ChromaticRouter",
    "version": 1
  },
  "userdoc": {
    "kind": "user",
    "methods": {
      "addLiquidity(address,int16,uint256,address)": {
        "notice": "Adds liquidity to a ChromaticMarket contract."
      },
      "addLiquidityBatch(address,address,int16[],uint256[])": {
        "notice": "Adds liquidity to multiple liquidity bins of ChromaticMarket contract in a batch."
      },
      "addLiquidityBatchCallback(address,address,bytes)": {
        "notice": "Handles the callback after adding liquidity to the Chromatic protocol."
      },
      "addLiquidityCallback(address,address,bytes)": {
        "notice": "Handles the callback after adding liquidity to the Chromatic protocol."
      },
      "claimLiquidity(address,uint256)": {
        "notice": "Claims liquidity from a ChromaticMarket contract."
      },
      "claimLiquidityBatch(address,uint256[])": {
        "notice": "Claims liquidity from multiple ChromaticMarket contracts in a batch."
      },
      "claimLiquidityBatchCallback(uint256[],int16[],uint256[],uint256[],bytes)": {
        "notice": "Handles the callback after claiming liquidity from the Chromatic protocol."
      },
      "claimLiquidityCallback(uint256,int16,uint256,uint256,bytes)": {
        "notice": "Handles the callback after claiming liquidity from the Chromatic protocol."
      },
      "claimPosition(address,uint256)": {
        "notice": "Claims a position from a ChromaticMarket contract."
      },
      "closePosition(address,uint256)": {
        "notice": "Closes a position in a ChromaticMarket contract."
      },
      "createAccount()": {
        "notice": "Creates a new user account."
      },
      "getAccount()": {
        "notice": "Retrieves the account of the caller."
      },
      "getLpReceiptIds(address)": {
        "notice": "Retrieves the LP receipt IDs of the caller for the specified market."
      },
      "getLpReceiptIds(address,address)": {
        "notice": "Get the LP receipt IDs associated with a specific market and owner."
      },
      "removeLiquidity(address,int16,uint256,address)": {
        "notice": "Removes liquidity from a ChromaticMarket contract."
      },
      "removeLiquidityBatch(address,address,int16[],uint256[])": {
        "notice": "Removes liquidity from multiple ChromaticMarket contracts in a batch."
      },
      "removeLiquidityBatchCallback(address,uint256[],bytes)": {
        "notice": "Handles the callback after removing liquidity from the Chromatic protocol."
      },
      "removeLiquidityCallback(address,uint256,bytes)": {
        "notice": "Handles the callback after removing liquidity from the Chromatic protocol."
      },
      "withdrawLiquidity(address,uint256)": {
        "notice": "Withdraws liquidity from a ChromaticMarket contract."
      },
      "withdrawLiquidityBatch(address,uint256[])": {
        "notice": "Withdraws liquidity from multiple ChromaticMarket contracts in a batch."
      },
      "withdrawLiquidityBatchCallback(uint256[],int16[],uint256[],uint256[],bytes)": {
        "notice": "Handles the callback after withdrawing liquidity from the Chromatic protocol."
      },
      "withdrawLiquidityCallback(uint256,int16,uint256,uint256,bytes)": {
        "notice": "Handles the callback after withdrawing liquidity from the Chromatic protocol."
      }
    },
    "version": 1
  },
  "storageLayout": {
    "storage": [
      {
        "astId": 33070,
        "contract": "contracts/periphery/ChromaticRouter.sol:ChromaticRouter",
        "label": "marketFactory",
        "offset": 0,
        "slot": "0",
        "type": "t_address"
      },
      {
        "astId": 33074,
        "contract": "contracts/periphery/ChromaticRouter.sol:ChromaticRouter",
        "label": "accounts",
        "offset": 0,
        "slot": "1",
        "type": "t_mapping(t_address,t_address)"
      },
      {
        "astId": 33215,
        "contract": "contracts/periphery/ChromaticRouter.sol:ChromaticRouter",
        "label": "marketFactory",
        "offset": 0,
        "slot": "2",
        "type": "t_address"
      },
      {
        "astId": 32006,
        "contract": "contracts/periphery/ChromaticRouter.sol:ChromaticRouter",
        "label": "providerMap",
        "offset": 0,
        "slot": "3",
        "type": "t_mapping(t_address,t_mapping(t_uint256,t_address))"
      },
      {
        "astId": 32013,
        "contract": "contracts/periphery/ChromaticRouter.sol:ChromaticRouter",
        "label": "receiptIds",
        "offset": 0,
        "slot": "4",
        "type": "t_mapping(t_address,t_mapping(t_address,t_struct(UintSet)6232_storage))"
      }
    ],
    "types": {
      "t_address": {
        "encoding": "inplace",
        "label": "address",
        "numberOfBytes": "20"
      },
      "t_array(t_bytes32)dyn_storage": {
        "base": "t_bytes32",
        "encoding": "dynamic_array",
        "label": "bytes32[]",
        "numberOfBytes": "32"
      },
      "t_bytes32": {
        "encoding": "inplace",
        "label": "bytes32",
        "numberOfBytes": "32"
      },
      "t_mapping(t_address,t_address)": {
        "encoding": "mapping",
        "key": "t_address",
        "label": "mapping(address => address)",
        "numberOfBytes": "32",
        "value": "t_address"
      },
      "t_mapping(t_address,t_mapping(t_address,t_struct(UintSet)6232_storage))": {
        "encoding": "mapping",
        "key": "t_address",
        "label": "mapping(address => mapping(address => struct EnumerableSet.UintSet))",
        "numberOfBytes": "32",
        "value": "t_mapping(t_address,t_struct(UintSet)6232_storage)"
      },
      "t_mapping(t_address,t_mapping(t_uint256,t_address))": {
        "encoding": "mapping",
        "key": "t_address",
        "label": "mapping(address => mapping(uint256 => address))",
        "numberOfBytes": "32",
        "value": "t_mapping(t_uint256,t_address)"
      },
      "t_mapping(t_address,t_struct(UintSet)6232_storage)": {
        "encoding": "mapping",
        "key": "t_address",
        "label": "mapping(address => struct EnumerableSet.UintSet)",
        "numberOfBytes": "32",
        "value": "t_struct(UintSet)6232_storage"
      },
      "t_mapping(t_bytes32,t_uint256)": {
        "encoding": "mapping",
        "key": "t_bytes32",
        "label": "mapping(bytes32 => uint256)",
        "numberOfBytes": "32",
        "value": "t_uint256"
      },
      "t_mapping(t_uint256,t_address)": {
        "encoding": "mapping",
        "key": "t_uint256",
        "label": "mapping(uint256 => address)",
        "numberOfBytes": "32",
        "value": "t_address"
      },
      "t_struct(Set)5760_storage": {
        "encoding": "inplace",
        "label": "struct EnumerableSet.Set",
        "members": [
          {
            "astId": 5755,
            "contract": "contracts/periphery/ChromaticRouter.sol:ChromaticRouter",
            "label": "_values",
            "offset": 0,
            "slot": "0",
            "type": "t_array(t_bytes32)dyn_storage"
          },
          {
            "astId": 5759,
            "contract": "contracts/periphery/ChromaticRouter.sol:ChromaticRouter",
            "label": "_indexes",
            "offset": 0,
            "slot": "1",
            "type": "t_mapping(t_bytes32,t_uint256)"
          }
        ],
        "numberOfBytes": "64"
      },
      "t_struct(UintSet)6232_storage": {
        "encoding": "inplace",
        "label": "struct EnumerableSet.UintSet",
        "members": [
          {
            "astId": 6231,
            "contract": "contracts/periphery/ChromaticRouter.sol:ChromaticRouter",
            "label": "_inner",
            "offset": 0,
            "slot": "0",
            "type": "t_struct(Set)5760_storage"
          }
        ],
        "numberOfBytes": "64"
      },
      "t_uint256": {
        "encoding": "inplace",
        "label": "uint256",
        "numberOfBytes": "32"
      }
    }
  }
}