{
  "address": "0x64d630A03A9792F28769B2E5d781eaf0A1540D63",
  "abi": [
    {
      "inputs": [
        {
          "internalType": "contract IWETH9",
          "name": "_weth",
          "type": "address"
        }
      ],
      "stateMutability": "nonpayable",
      "type": "constructor"
    },
    {
      "inputs": [],
      "name": "DuplicateEntry",
      "type": "error"
    },
    {
      "inputs": [],
      "name": "EmptyAddress",
      "type": "error"
    },
    {
      "inputs": [],
      "name": "InvalidPrice",
      "type": "error"
    },
    {
      "inputs": [],
      "name": "NotContainedEntry",
      "type": "error"
    },
    {
      "inputs": [],
      "name": "NotRegisteredToken",
      "type": "error"
    },
    {
      "inputs": [],
      "name": "NotWETH",
      "type": "error"
    },
    {
      "inputs": [],
      "name": "OnlyCallableByOwnerOrClient",
      "type": "error"
    },
    {
      "anonymous": false,
      "inputs": [
        {
          "indexed": true,
          "internalType": "address",
          "name": "previousOwner",
          "type": "address"
        },
        {
          "indexed": true,
          "internalType": "address",
          "name": "newOwner",
          "type": "address"
        }
      ],
      "name": "OwnershipTransferred",
      "type": "event"
    },
    {
      "inputs": [],
      "name": "WETH9",
      "outputs": [
        {
          "internalType": "contract IWETH9",
          "name": "",
          "type": "address"
        }
      ],
      "stateMutability": "view",
      "type": "function"
    },
    {
      "inputs": [
        {
          "internalType": "address",
          "name": "client",
          "type": "address"
        }
      ],
      "name": "addWhitelistedClient",
      "outputs": [],
      "stateMutability": "nonpayable",
      "type": "function"
    },
    {
      "inputs": [
        {
          "internalType": "address",
          "name": "token",
          "type": "address"
        }
      ],
      "name": "ethPriceInToken",
      "outputs": [
        {
          "internalType": "uint256",
          "name": "",
          "type": "uint256"
        }
      ],
      "stateMutability": "view",
      "type": "function"
    },
    {
      "inputs": [
        {
          "components": [
            {
              "internalType": "bytes",
              "name": "path",
              "type": "bytes"
            },
            {
              "internalType": "address",
              "name": "recipient",
              "type": "address"
            },
            {
              "internalType": "uint256",
              "name": "deadline",
              "type": "uint256"
            },
            {
              "internalType": "uint256",
              "name": "amountIn",
              "type": "uint256"
            },
            {
              "internalType": "uint256",
              "name": "amountOutMinimum",
              "type": "uint256"
            }
          ],
          "internalType": "struct ISwapRouter.ExactInputParams",
          "name": "",
          "type": "tuple"
        }
      ],
      "name": "exactInput",
      "outputs": [
        {
          "internalType": "uint256",
          "name": "",
          "type": "uint256"
        }
      ],
      "stateMutability": "payable",
      "type": "function"
    },
    {
      "inputs": [
        {
          "components": [
            {
              "internalType": "address",
              "name": "tokenIn",
              "type": "address"
            },
            {
              "internalType": "address",
              "name": "tokenOut",
              "type": "address"
            },
            {
              "internalType": "uint24",
              "name": "fee",
              "type": "uint24"
            },
            {
              "internalType": "address",
              "name": "recipient",
              "type": "address"
            },
            {
              "internalType": "uint256",
              "name": "deadline",
              "type": "uint256"
            },
            {
              "internalType": "uint256",
              "name": "amountIn",
              "type": "uint256"
            },
            {
              "internalType": "uint256",
              "name": "amountOutMinimum",
              "type": "uint256"
            },
            {
              "internalType": "uint160",
              "name": "sqrtPriceLimitX96",
              "type": "uint160"
            }
          ],
          "internalType": "struct ISwapRouter.ExactInputSingleParams",
          "name": "",
          "type": "tuple"
        }
      ],
      "name": "exactInputSingle",
      "outputs": [
        {
          "internalType": "uint256",
          "name": "",
          "type": "uint256"
        }
      ],
      "stateMutability": "payable",
      "type": "function"
    },
    {
      "inputs": [
        {
          "components": [
            {
              "internalType": "bytes",
              "name": "path",
              "type": "bytes"
            },
            {
              "internalType": "address",
              "name": "recipient",
              "type": "address"
            },
            {
              "internalType": "uint256",
              "name": "deadline",
              "type": "uint256"
            },
            {
              "internalType": "uint256",
              "name": "amountOut",
              "type": "uint256"
            },
            {
              "internalType": "uint256",
              "name": "amountInMaximum",
              "type": "uint256"
            }
          ],
          "internalType": "struct ISwapRouter.ExactOutputParams",
          "name": "",
          "type": "tuple"
        }
      ],
      "name": "exactOutput",
      "outputs": [
        {
          "internalType": "uint256",
          "name": "",
          "type": "uint256"
        }
      ],
      "stateMutability": "payable",
      "type": "function"
    },
    {
      "inputs": [
        {
          "components": [
            {
              "internalType": "address",
              "name": "tokenIn",
              "type": "address"
            },
            {
              "internalType": "address",
              "name": "tokenOut",
              "type": "address"
            },
            {
              "internalType": "uint24",
              "name": "fee",
              "type": "uint24"
            },
            {
              "internalType": "address",
              "name": "recipient",
              "type": "address"
            },
            {
              "internalType": "uint256",
              "name": "deadline",
              "type": "uint256"
            },
            {
              "internalType": "uint256",
              "name": "amountOut",
              "type": "uint256"
            },
            {
              "internalType": "uint256",
              "name": "amountInMaximum",
              "type": "uint256"
            },
            {
              "internalType": "uint160",
              "name": "sqrtPriceLimitX96",
              "type": "uint160"
            }
          ],
          "internalType": "struct ISwapRouter.ExactOutputSingleParams",
          "name": "params",
          "type": "tuple"
        }
      ],
      "name": "exactOutputSingle",
      "outputs": [
        {
          "internalType": "uint256",
          "name": "amountIn",
          "type": "uint256"
        }
      ],
      "stateMutability": "payable",
      "type": "function"
    },
    {
      "inputs": [],
      "name": "getWhitelistedClients",
      "outputs": [
        {
          "internalType": "address[]",
          "name": "",
          "type": "address[]"
        }
      ],
      "stateMutability": "view",
      "type": "function"
    },
    {
      "inputs": [],
      "name": "owner",
      "outputs": [
        {
          "internalType": "address",
          "name": "",
          "type": "address"
        }
      ],
      "stateMutability": "view",
      "type": "function"
    },
    {
      "inputs": [
        {
          "internalType": "address",
          "name": "client",
          "type": "address"
        }
      ],
      "name": "removeWhitelistedClient",
      "outputs": [],
      "stateMutability": "nonpayable",
      "type": "function"
    },
    {
      "inputs": [],
      "name": "renounceOwnership",
      "outputs": [],
      "stateMutability": "nonpayable",
      "type": "function"
    },
    {
      "inputs": [
        {
          "internalType": "address",
          "name": "token",
          "type": "address"
        },
        {
          "internalType": "uint256",
          "name": "price",
          "type": "uint256"
        }
      ],
      "name": "setEthPriceInToken",
      "outputs": [],
      "stateMutability": "nonpayable",
      "type": "function"
    },
    {
      "inputs": [
        {
          "internalType": "address",
          "name": "newOwner",
          "type": "address"
        }
      ],
      "name": "transferOwnership",
      "outputs": [],
      "stateMutability": "nonpayable",
      "type": "function"
    },
    {
      "inputs": [
        {
          "internalType": "int256",
          "name": "",
          "type": "int256"
        },
        {
          "internalType": "int256",
          "name": "",
          "type": "int256"
        },
        {
          "internalType": "bytes",
          "name": "",
          "type": "bytes"
        }
      ],
      "name": "uniswapV3SwapCallback",
      "outputs": [],
      "stateMutability": "pure",
      "type": "function"
    },
    {
      "inputs": [
        {
          "internalType": "address",
          "name": "token",
          "type": "address"
        },
        {
          "internalType": "uint256",
          "name": "amount",
          "type": "uint256"
        }
      ],
      "name": "withdraw",
      "outputs": [],
      "stateMutability": "nonpayable",
      "type": "function"
    }
  ],
  "transactionHash": "0xb16525310399332ed72b73e3f81ee5d47712338f784ab7b08d210fc9405b63e5",
  "args": [
    "0x980B62Da83eFf3D4576C647993b0c1D7faf17c73"
  ],
  "numDeployments": 2,
  "solcInputHash": "b028a9b3f157a74e9d5ed17deffeaaa5",
  "bytecode": "0x60a060405234801561001057600080fd5b5060405161154f38038061154f83398101604081905261002f91610099565b61003833610049565b6001600160a01b03166080526100c9565b600080546001600160a01b038381166001600160a01b0319831681178455604051919092169283917f8be0079c531659141344cd1fd0a4f28419497f9722a3daafe3b4186f6b6457e09190a35050565b6000602082840312156100ab57600080fd5b81516001600160a01b03811681146100c257600080fd5b9392505050565b60805161145d6100f2600039600081816101740152818161054f015261068b015261145d6000f3fe6080604052600436106100e85760003560e01c8063c04b8d591161008a578063f28c049811610059578063f28c04981461021b578063f2fde38b1461027e578063f3fef3a31461029e578063fa461e33146102be57600080fd5b8063c04b8d591461021b578063c1caf6f114610229578063db3e21981461024b578063e68070fa1461025e57600080fd5b80634aa4a4fc116100c65780634aa4a4fc1461016257806366bad53c146101bb578063715018a6146101db5780638da5cb5b146101f057600080fd5b8063011ef877146100ed5780632191566c1461012d578063414bf3891461014f575b600080fd5b3480156100f957600080fd5b5061011a610108366004611117565b60016020526000908152604090205481565b6040519081526020015b60405180910390f35b34801561013957600080fd5b5061014d610148366004611117565b6102de565b005b61011a61015d366004611145565b610387565b34801561016e57600080fd5b506101967f000000000000000000000000000000000000000000000000000000000000000081565b60405173ffffffffffffffffffffffffffffffffffffffff9091168152602001610124565b3480156101c757600080fd5b5061014d6101d6366004611162565b6103f1565b3480156101e757600080fd5b5061014d6104ab565b3480156101fc57600080fd5b5060005473ffffffffffffffffffffffffffffffffffffffff16610196565b61011a61015d36600461119e565b34801561023557600080fd5b5061023e6104bf565b60405161012491906111d3565b61011a610259366004611145565b6104d0565b34801561026a57600080fd5b5061014d610279366004611117565b6106ca565b34801561028a57600080fd5b5061014d610299366004611117565b61071e565b3480156102aa57600080fd5b5061014d6102b9366004611162565b6107d5565b3480156102ca57600080fd5b5061014d6102d936600461122d565b6107e8565b6102e661084a565b73ffffffffffffffffffffffffffffffffffffffff8116600003610336576040517f7138356f00000000000000000000000000000000000000000000000000000000815260040160405180910390fd5b6103416002826108cb565b15610378576040517f357d0cc400000000000000000000000000000000000000000000000000000000815260040160405180910390fd5b6103836002826108ff565b5050565b6040517f08c379a000000000000000000000000000000000000000000000000000000000815260206004820152600f60248201527f4e6f7420496d706c656d656e746564000000000000000000000000000000000060448201526000906064015b60405180910390fd5b6103f961084a565b73ffffffffffffffffffffffffffffffffffffffff8216600003610449576040517f7138356f00000000000000000000000000000000000000000000000000000000815260040160405180910390fd5b80600003610482576040517ebfc92100000000000000000000000000000000000000000000000000000000815260040160405180910390fd5b73ffffffffffffffffffffffffffffffffffffffff909116600090815260016020526040902055565b6104b361084a565b6104bd6000610921565b565b60606104cb6002610996565b905090565b6000805473ffffffffffffffffffffffffffffffffffffffff16331480159061050157506104ff6002336108cb565b155b15610538576040517fcbe71ade00000000000000000000000000000000000000000000000000000000815260040160405180910390fd5b73ffffffffffffffffffffffffffffffffffffffff7f00000000000000000000000000000000000000000000000000000000000000001661057f6040840160208501611117565b73ffffffffffffffffffffffffffffffffffffffff16146105cc576040517f5724f38500000000000000000000000000000000000000000000000000000000815260040160405180910390fd5b60006001816105de6020860186611117565b73ffffffffffffffffffffffffffffffffffffffff1673ffffffffffffffffffffffffffffffffffffffff16815260200190815260200160002054905080600003610655576040517fc526371200000000000000000000000000000000000000000000000000000000815260040160405180910390fd5b61066c60a084013582670de0b6b3a76400006109aa565b915061068661067e6020850185611117565b333085610ad3565b6106c47f00000000000000000000000000000000000000000000000000000000000000006106ba6080860160608701611117565b8560a00135610bb5565b50919050565b6106d261084a565b6106dd6002826108cb565b610713576040517f2b246b6a00000000000000000000000000000000000000000000000000000000815260040160405180910390fd5b610383600282610c10565b61072661084a565b73ffffffffffffffffffffffffffffffffffffffff81166107c9576040517f08c379a000000000000000000000000000000000000000000000000000000000815260206004820152602660248201527f4f776e61626c653a206e6577206f776e657220697320746865207a65726f206160448201527f646472657373000000000000000000000000000000000000000000000000000060648201526084016103e8565b6107d281610921565b50565b6107dd61084a565b610383823383610bb5565b6040517f08c379a000000000000000000000000000000000000000000000000000000000815260206004820152600f60248201527f4e6f7420496d706c656d656e746564000000000000000000000000000000000060448201526064016103e8565b60005473ffffffffffffffffffffffffffffffffffffffff1633146104bd576040517f08c379a000000000000000000000000000000000000000000000000000000000815260206004820181905260248201527f4f776e61626c653a2063616c6c6572206973206e6f7420746865206f776e657260448201526064016103e8565b73ffffffffffffffffffffffffffffffffffffffff8116600090815260018301602052604081205415155b90505b92915050565b60006108f68373ffffffffffffffffffffffffffffffffffffffff8416610c32565b6000805473ffffffffffffffffffffffffffffffffffffffff8381167fffffffffffffffffffffffff0000000000000000000000000000000000000000831681178455604051919092169283917f8be0079c531659141344cd1fd0a4f28419497f9722a3daafe3b4186f6b6457e09190a35050565b606060006109a383610c81565b9392505050565b600080807fffffffffffffffffffffffffffffffffffffffffffffffffffffffffffffffff85870985870292508281108382030391505080600003610a02578382816109f8576109f86112ad565b04925050506109a3565b808411610a6b576040517f08c379a000000000000000000000000000000000000000000000000000000000815260206004820152601560248201527f4d6174683a206d756c446976206f766572666c6f77000000000000000000000060448201526064016103e8565b600084868809600260036001881981018916988990049182028318808302840302808302840302808302840302808302840302808302840302918202909203026000889003889004909101858311909403939093029303949094049190911702949350505050565b60405173ffffffffffffffffffffffffffffffffffffffff80851660248301528316604482015260648101829052610baf9085907f23b872dd00000000000000000000000000000000000000000000000000000000906084015b604080517fffffffffffffffffffffffffffffffffffffffffffffffffffffffffffffffe08184030181529190526020810180517bffffffffffffffffffffffffffffffffffffffffffffffffffffffff167fffffffff0000000000000000000000000000000000000000000000000000000090931692909217909152610cdd565b50505050565b60405173ffffffffffffffffffffffffffffffffffffffff8316602482015260448101829052610c0b9084907fa9059cbb0000000000000000000000000000000000000000000000000000000090606401610b2d565b505050565b60006108f68373ffffffffffffffffffffffffffffffffffffffff8416610dec565b6000818152600183016020526040812054610c79575081546001818101845560008481526020808220909301849055845484825282860190935260409020919091556108f9565b5060006108f9565b606081600001805480602002602001604051908101604052809291908181526020018280548015610cd157602002820191906000526020600020905b815481526020019060010190808311610cbd575b50505050509050919050565b6000610d3f826040518060400160405280602081526020017f5361666545524332303a206c6f772d6c6576656c2063616c6c206661696c65648152508573ffffffffffffffffffffffffffffffffffffffff16610edf9092919063ffffffff16565b9050805160001480610d60575080806020019051810190610d6091906112dc565b610c0b576040517f08c379a000000000000000000000000000000000000000000000000000000000815260206004820152602a60248201527f5361666545524332303a204552433230206f7065726174696f6e20646964206e60448201527f6f7420737563636565640000000000000000000000000000000000000000000060648201526084016103e8565b60008181526001830160205260408120548015610ed5576000610e106001836112fe565b8554909150600090610e24906001906112fe565b9050818114610e89576000866000018281548110610e4457610e44611338565b9060005260206000200154905080876000018481548110610e6757610e67611338565b6000918252602080832090910192909255918252600188019052604090208390555b8554869080610e9a57610e9a611367565b6001900381819060005260206000200160009055905585600101600086815260200190815260200160002060009055600193505050506108f9565b60009150506108f9565b6060610eee8484600085610ef6565b949350505050565b606082471015610f88576040517f08c379a000000000000000000000000000000000000000000000000000000000815260206004820152602660248201527f416464726573733a20696e73756666696369656e742062616c616e636520666f60448201527f722063616c6c000000000000000000000000000000000000000000000000000060648201526084016103e8565b6000808673ffffffffffffffffffffffffffffffffffffffff168587604051610fb191906113ba565b60006040518083038185875af1925050503d8060008114610fee576040519150601f19603f3d011682016040523d82523d6000602084013e610ff3565b606091505b50915091506110048783838761100f565b979650505050505050565b606083156110a557825160000361109e5773ffffffffffffffffffffffffffffffffffffffff85163b61109e576040517f08c379a000000000000000000000000000000000000000000000000000000000815260206004820152601d60248201527f416464726573733a2063616c6c20746f206e6f6e2d636f6e747261637400000060448201526064016103e8565b5081610eee565b610eee83838151156110ba5781518083602001fd5b806040517f08c379a00000000000000000000000000000000000000000000000000000000081526004016103e891906113d6565b803573ffffffffffffffffffffffffffffffffffffffff8116811461111257600080fd5b919050565b60006020828403121561112957600080fd5b6108f6826110ee565b600061010082840312156106c457600080fd5b6000610100828403121561115857600080fd5b6108f68383611132565b6000806040838503121561117557600080fd5b61117e836110ee565b946020939093013593505050565b600060a082840312156106c457600080fd5b6000602082840312156111b057600080fd5b813567ffffffffffffffff8111156111c757600080fd5b610eee8482850161118c565b6020808252825182820181905260009190848201906040850190845b8181101561122157835173ffffffffffffffffffffffffffffffffffffffff16835292840192918401916001016111ef565b50909695505050505050565b6000806000806060858703121561124357600080fd5b8435935060208501359250604085013567ffffffffffffffff8082111561126957600080fd5b818701915087601f83011261127d57600080fd5b81358181111561128c57600080fd5b88602082850101111561129e57600080fd5b95989497505060200194505050565b7f4e487b7100000000000000000000000000000000000000000000000000000000600052601260045260246000fd5b6000602082840312156112ee57600080fd5b815180151581146109a357600080fd5b818103818111156108f9577f4e487b7100000000000000000000000000000000000000000000000000000000600052601160045260246000fd5b7f4e487b7100000000000000000000000000000000000000000000000000000000600052603260045260246000fd5b7f4e487b7100000000000000000000000000000000000000000000000000000000600052603160045260246000fd5b60005b838110156113b1578181015183820152602001611399565b50506000910152565b600082516113cc818460208701611396565b9190910192915050565b60208152600082518060208401526113f5816040850160208701611396565b601f017fffffffffffffffffffffffffffffffffffffffffffffffffffffffffffffffe016919091016040019291505056fea2646970667358221220fcf25d68475c142685ec701ccff22053e8d7a85b05120766caa481dfa6b0f59a64736f6c63430008130033",
  "devdoc": {
    "kind": "dev",
    "methods": {
      "exactOutputSingle((address,address,uint24,address,uint256,uint256,uint256,uint160))": {
        "params": {
          "params": "The parameters necessary for the swap, encoded as `ExactOutputSingleParams` in calldata"
        },
        "returns": {
          "amountIn": "The amount of the input token"
        }
      },
      "owner()": {
        "details": "Returns the address of the current owner."
      },
      "renounceOwnership()": {
        "details": "Leaves the contract without owner. It will not be possible to call `onlyOwner` functions. Can only be called by the current owner. NOTE: Renouncing ownership will leave the contract without an owner, thereby disabling any functionality that is only available to the owner."
      },
      "transferOwnership(address)": {
        "details": "Transfers ownership of the contract to a new account (`newOwner`). Can only be called by the current owner."
      }
    },
    "version": 1
  },
  "userdoc": {
    "kind": "user",
    "methods": {
      "exactOutputSingle((address,address,uint24,address,uint256,uint256,uint256,uint160))": {
        "notice": "Swaps as little as possible of one token for `amountOut` of another token"
      }
    },
    "version": 1
  },
  "storageLayout": {
    "storage": [
      {
        "astId": 7,
        "contract": "contracts/mocks/FixedPriceSwapRouter.sol:FixedPriceSwapRouter",
        "label": "_owner",
        "offset": 0,
        "slot": "0",
        "type": "t_address"
      },
      {
        "astId": 2601,
        "contract": "contracts/mocks/FixedPriceSwapRouter.sol:FixedPriceSwapRouter",
        "label": "ethPriceInToken",
        "offset": 0,
        "slot": "1",
        "type": "t_mapping(t_address,t_uint256)"
      },
      {
        "astId": 2604,
        "contract": "contracts/mocks/FixedPriceSwapRouter.sol:FixedPriceSwapRouter",
        "label": "s_whitelistedClients",
        "offset": 0,
        "slot": "2",
        "type": "t_struct(AddressSet)2146_storage"
      }
    ],
    "types": {
      "t_address": {
        "encoding": "inplace",
        "label": "address",
        "numberOfBytes": "20"
      },
      "t_array(t_bytes32)dyn_storage": {
        "base": "t_bytes32",
        "encoding": "dynamic_array",
        "label": "bytes32[]",
        "numberOfBytes": "32"
      },
      "t_bytes32": {
        "encoding": "inplace",
        "label": "bytes32",
        "numberOfBytes": "32"
      },
      "t_mapping(t_address,t_uint256)": {
        "encoding": "mapping",
        "key": "t_address",
        "label": "mapping(address => uint256)",
        "numberOfBytes": "32",
        "value": "t_uint256"
      },
      "t_mapping(t_bytes32,t_uint256)": {
        "encoding": "mapping",
        "key": "t_bytes32",
        "label": "mapping(bytes32 => uint256)",
        "numberOfBytes": "32",
        "value": "t_uint256"
      },
      "t_struct(AddressSet)2146_storage": {
        "encoding": "inplace",
        "label": "struct EnumerableSet.AddressSet",
        "members": [
          {
            "astId": 2145,
            "contract": "contracts/mocks/FixedPriceSwapRouter.sol:FixedPriceSwapRouter",
            "label": "_inner",
            "offset": 0,
            "slot": "0",
            "type": "t_struct(Set)1831_storage"
          }
        ],
        "numberOfBytes": "64"
      },
      "t_struct(Set)1831_storage": {
        "encoding": "inplace",
        "label": "struct EnumerableSet.Set",
        "members": [
          {
            "astId": 1826,
            "contract": "contracts/mocks/FixedPriceSwapRouter.sol:FixedPriceSwapRouter",
            "label": "_values",
            "offset": 0,
            "slot": "0",
            "type": "t_array(t_bytes32)dyn_storage"
          },
          {
            "astId": 1830,
            "contract": "contracts/mocks/FixedPriceSwapRouter.sol:FixedPriceSwapRouter",
            "label": "_indexes",
            "offset": 0,
            "slot": "1",
            "type": "t_mapping(t_bytes32,t_uint256)"
          }
        ],
        "numberOfBytes": "64"
      },
      "t_uint256": {
        "encoding": "inplace",
        "label": "uint256",
        "numberOfBytes": "32"
      }
    }
  }
}