{
  "address": "0x205B414AF96FDA02efe60dd78BCDee5A6A1e315c",
  "abi": [
    {
      "inputs": [
        {
          "internalType": "contract IChromaticMarketFactory",
          "name": "_factory",
          "type": "address"
        },
        {
          "internalType": "address",
          "name": "_automate",
          "type": "address"
        }
      ],
      "stateMutability": "nonpayable",
      "type": "constructor"
    },
    {
      "inputs": [],
      "name": "ExistMakerEarningDistributionTask",
      "type": "error"
    },
    {
      "inputs": [],
      "name": "ExistMarketEarningDistributionTask",
      "type": "error"
    },
    {
      "inputs": [],
      "name": "OnlyAccessableByDao",
      "type": "error"
    },
    {
      "inputs": [],
      "name": "OnlyAccessableByVault",
      "type": "error"
    },
    {
      "anonymous": false,
      "inputs": [
        {
          "indexed": true,
          "internalType": "bytes32",
          "name": "taskId",
          "type": "bytes32"
        }
      ],
      "name": "CancelTaskFailed",
      "type": "event"
    },
    {
      "anonymous": false,
      "inputs": [
        {
          "indexed": true,
          "internalType": "bytes32",
          "name": "taskId",
          "type": "bytes32"
        }
      ],
      "name": "CancelTaskSucceeded",
      "type": "event"
    },
    {
      "inputs": [],
      "name": "automate",
      "outputs": [
        {
          "internalType": "contract IAutomate",
          "name": "",
          "type": "address"
        }
      ],
      "stateMutability": "view",
      "type": "function"
    },
    {
      "inputs": [
        {
          "internalType": "bytes32",
          "name": "taskId",
          "type": "bytes32"
        }
      ],
      "name": "cancelGelatoTask",
      "outputs": [],
      "stateMutability": "nonpayable",
      "type": "function"
    },
    {
      "inputs": [
        {
          "internalType": "address",
          "name": "token",
          "type": "address"
        }
      ],
      "name": "cancelMakerEarningDistributionTask",
      "outputs": [],
      "stateMutability": "nonpayable",
      "type": "function"
    },
    {
      "inputs": [
        {
          "internalType": "address",
          "name": "market",
          "type": "address"
        }
      ],
      "name": "cancelMarketEarningDistributionTask",
      "outputs": [],
      "stateMutability": "nonpayable",
      "type": "function"
    },
    {
      "inputs": [
        {
          "internalType": "address",
          "name": "token",
          "type": "address"
        }
      ],
      "name": "createMakerEarningDistributionTask",
      "outputs": [],
      "stateMutability": "nonpayable",
      "type": "function"
    },
    {
      "inputs": [
        {
          "internalType": "address",
          "name": "market",
          "type": "address"
        }
      ],
      "name": "createMarketEarningDistributionTask",
      "outputs": [],
      "stateMutability": "nonpayable",
      "type": "function"
    },
    {
      "inputs": [],
      "name": "dedicatedMsgSender",
      "outputs": [
        {
          "internalType": "address",
          "name": "",
          "type": "address"
        }
      ],
      "stateMutability": "view",
      "type": "function"
    },
    {
      "inputs": [
        {
          "internalType": "address",
          "name": "token",
          "type": "address"
        }
      ],
      "name": "distributeMakerEarning",
      "outputs": [],
      "stateMutability": "nonpayable",
      "type": "function"
    },
    {
      "inputs": [
        {
          "internalType": "address",
          "name": "market",
          "type": "address"
        }
      ],
      "name": "distributeMarketEarning",
      "outputs": [],
      "stateMutability": "nonpayable",
      "type": "function"
    },
    {
      "inputs": [],
      "name": "factory",
      "outputs": [
        {
          "internalType": "contract IChromaticMarketFactory",
          "name": "",
          "type": "address"
        }
      ],
      "stateMutability": "view",
      "type": "function"
    },
    {
      "inputs": [
        {
          "internalType": "address",
          "name": "",
          "type": "address"
        }
      ],
      "name": "makerEarningDistributionTaskIds",
      "outputs": [
        {
          "internalType": "bytes32",
          "name": "",
          "type": "bytes32"
        }
      ],
      "stateMutability": "view",
      "type": "function"
    },
    {
      "inputs": [
        {
          "internalType": "address",
          "name": "",
          "type": "address"
        }
      ],
      "name": "marketEarningDistributionTaskIds",
      "outputs": [
        {
          "internalType": "bytes32",
          "name": "",
          "type": "bytes32"
        }
      ],
      "stateMutability": "view",
      "type": "function"
    },
    {
      "inputs": [
        {
          "internalType": "address",
          "name": "token",
          "type": "address"
        }
      ],
      "name": "resolveMakerEarningDistribution",
      "outputs": [
        {
          "internalType": "bool",
          "name": "canExec",
          "type": "bool"
        },
        {
          "internalType": "bytes",
          "name": "execPayload",
          "type": "bytes"
        }
      ],
      "stateMutability": "view",
      "type": "function"
    },
    {
      "inputs": [
        {
          "internalType": "address",
          "name": "market",
          "type": "address"
        }
      ],
      "name": "resolveMarketEarningDistribution",
      "outputs": [
        {
          "internalType": "bool",
          "name": "canExec",
          "type": "bool"
        },
        {
          "internalType": "bytes",
          "name": "execPayload",
          "type": "bytes"
        }
      ],
      "stateMutability": "view",
      "type": "function"
    }
  ],
  "transactionHash": "0x452aae2ec66c7252d82a78b641484e69dac0191e8aabde9098b0dd74a233fd75",
  "args": [
    "0x486df3B97eF4439CdB274B7C9d075B4d5fA70b1A",
    "0x2A6C106ae13B558BB9E2Ec64Bd2f1f7BEFF3A5E0"
  ],
  "numDeployments": 1,
  "solcInputHash": "68278dd31efc237ce222998ace1874f4",
  "bytecode": "0x6101006040523480156200001257600080fd5b5060405162002276380380620022768339810160408190526200003591620002a3565b6001600160a01b03808316608052811660a08190526040805163573ea57560e01b815290518392309260009263573ea575916004808201926020929091908290030181865afa1580156200008d573d6000803e3d6000fd5b505050506040513d601f19601f82011682018060405250810190620000b39190620002e2565b9050806001600160a01b031663c415b95c6040518163ffffffff1660e01b8152600401602060405180830381865afa158015620000f4573d6000803e3d6000fd5b505050506040513d601f19601f820116820180604052508101906200011a9190620002e2565b6001600160a01b0390811660e05260405163cd3d4fb960e01b815260009185169063cd3d4fb990620001529060029060040162000309565b602060405180830381865afa15801562000170573d6000803e3d6000fd5b505050506040513d601f19601f82011682018060405250810190620001969190620002e2565b90506000816001600160a01b031663ba1d0ff46040518163ffffffff1660e01b8152600401602060405180830381865afa158015620001d9573d6000803e3d6000fd5b505050506040513d601f19601f82011682018060405250810190620001ff9190620002e2565b6040516337b6269f60e21b81526001600160a01b0386811660048301529192509082169063ded89a7c906024016040805180830381865afa15801562000249573d6000803e3d6000fd5b505050506040513d601f19601f820116820180604052508101906200026f919062000332565b506001600160a01b031660c052506200036a95505050505050565b6001600160a01b0381168114620002a057600080fd5b50565b60008060408385031215620002b757600080fd5b8251620002c4816200028a565b6020840151909250620002d7816200028a565b809150509250929050565b600060208284031215620002f557600080fd5b815162000302816200028a565b9392505050565b60208101600683106200032c57634e487b7160e01b600052602160045260246000fd5b91905290565b600080604083850312156200034657600080fd5b825162000353816200028a565b60208401519092508015158114620002d757600080fd5b60805160a05160c05160e051611e586200041e60003960005050600061015a01526000818160f4015281816105920152818161077d01528181610b6201528181610e0801528181611303015281816114880152611a5a015260008181610242015281816102a80152818161047201528181610608015281816107e201528181610c9301528181610ed201528181610fc601528181611643015281816116b2015281816118bf015261192e0152611e586000f3fe608060405234801561001057600080fd5b50600436106100ea5760003560e01c8063687d5dd41161008c578063c440a65c11610066578063c440a65c1461022a578063c45a01551461023d578063d5f6c54d14610264578063d6d950af1461027757600080fd5b8063687d5dd4146101f157806371f8122b146102045780639f69101d1461021757600080fd5b806330585f7c116100c857806330585f7c1461017c578063470b25391461019d5780634818c2fe146101b0578063516f509a146101c357600080fd5b8063049aacfe146100ef578063135ac9981461014057806328f150eb14610155575b600080fd5b6101167f000000000000000000000000000000000000000000000000000000000000000081565b60405173ffffffffffffffffffffffffffffffffffffffff90911681526020015b60405180910390f35b61015361014e366004611b14565b610297565b005b6101167f000000000000000000000000000000000000000000000000000000000000000081565b61018f61018a366004611b14565b6103cd565b604051610137929190611b9c565b6101536101ab366004611bbf565b610470565b6101536101be366004611b14565b610606565b6101e36101d1366004611b14565b60016020526000908152604090205481565b604051908152602001610137565b6101536101ff366004611b14565b6107e0565b610153610212366004611b14565b610c91565b610153610225366004611b14565b610ec1565b610153610238366004611b14565b610fc4565b6101167f000000000000000000000000000000000000000000000000000000000000000081565b61018f610272366004611b14565b611432565b6101e3610285366004611b14565b60006020819052908152604090205481565b6000806102a2611476565b915091507f000000000000000000000000000000000000000000000000000000000000000073ffffffffffffffffffffffffffffffffffffffff1663fbfa77cf6040518163ffffffff1660e01b8152600401602060405180830381865afa158015610311573d6000803e3d6000fd5b505050506040513d601f19601f820116820180604052508101906103359190611bd8565b6040517f81ebafee00000000000000000000000000000000000000000000000000000000815273ffffffffffffffffffffffffffffffffffffffff858116600483015260248201859052838116604483015291909116906381ebafee906064015b600060405180830381600087803b1580156103b057600080fd5b505af11580156103c4573d6000803e3d6000fd5b50505050505050565b600060606103da83611589565b156104585760405173ffffffffffffffffffffffffffffffffffffffff84166024820152600190309063135ac998906044015b604051602081830303815290604052915060e01b6020820180517bffffffffffffffffffffffffffffffffffffffffffffffffffffffff838183161783525050505091509150915091565b50506040805160208101909152600080825292909150565b7f000000000000000000000000000000000000000000000000000000000000000073ffffffffffffffffffffffffffffffffffffffff16634162169f6040518163ffffffff1660e01b8152600401602060405180830381865afa1580156104db573d6000803e3d6000fd5b505050506040513d601f19601f820116820180604052508101906104ff9190611bd8565b73ffffffffffffffffffffffffffffffffffffffff163373ffffffffffffffffffffffffffffffffffffffff1614610563576040517f808ca14f00000000000000000000000000000000000000000000000000000000815260040160405180910390fd5b6040517fee8ca3b5000000000000000000000000000000000000000000000000000000008152600481018290527f000000000000000000000000000000000000000000000000000000000000000073ffffffffffffffffffffffffffffffffffffffff169063ee8ca3b590602401600060405180830381600087803b1580156105eb57600080fd5b505af11580156105ff573d6000803e3d6000fd5b5050505050565b7f000000000000000000000000000000000000000000000000000000000000000073ffffffffffffffffffffffffffffffffffffffff1663fbfa77cf6040518163ffffffff1660e01b8152600401602060405180830381865afa158015610671573d6000803e3d6000fd5b505050506040513d601f19601f820116820180604052508101906106959190611bd8565b73ffffffffffffffffffffffffffffffffffffffff163373ffffffffffffffffffffffffffffffffffffffff16146106f9576040517f6c7e0fa500000000000000000000000000000000000000000000000000000000815260040160405180910390fd5b73ffffffffffffffffffffffffffffffffffffffff811660009081526001602052604090205480156107dc5773ffffffffffffffffffffffffffffffffffffffff82811660009081526001602052604080822091909155517fee8ca3b5000000000000000000000000000000000000000000000000000000008152600481018390527f00000000000000000000000000000000000000000000000000000000000000009091169063ee8ca3b590602401600060405180830381600087803b1580156107c357600080fd5b505af11580156107d7573d6000803e3d6000fd5b505050505b5050565b7f000000000000000000000000000000000000000000000000000000000000000073ffffffffffffffffffffffffffffffffffffffff1663fbfa77cf6040518163ffffffff1660e01b8152600401602060405180830381865afa15801561084b573d6000803e3d6000fd5b505050506040513d601f19601f8201168201806040525081019061086f9190611bd8565b73ffffffffffffffffffffffffffffffffffffffff163373ffffffffffffffffffffffffffffffffffffffff16146108d3576040517f6c7e0fa500000000000000000000000000000000000000000000000000000000815260040160405180910390fd5b73ffffffffffffffffffffffffffffffffffffffff811660009081526020819052604090205415610930576040517ff953ee4500000000000000000000000000000000000000000000000000000000815260040160405180910390fd5b60408051600381830181815260c083019093526000928291606080840190803683370190505081526040805160038082526080820190925260209092019190816020015b606081526020019060019003908161097457505090528051805191925060009182906109a2576109a2611bf5565b602002602001019060058111156109bb576109bb611c24565b908160058111156109ce576109ce611c24565b81525050600281600001516001815181106109eb576109eb611bf5565b60200260200101906005811115610a0457610a04611c24565b90816005811115610a1757610a17611c24565b8152505060058160000151600281518110610a3457610a34611bf5565b60200260200101906005811115610a4d57610a4d611c24565b90816005811115610a6057610a60611c24565b90525060405173ffffffffffffffffffffffffffffffffffffffff83166024820152610ad990309063d5f6c54d906044015b604051602081830303815290604052915060e01b6020820180517bffffffffffffffffffffffffffffffffffffffffffffffffffffffff83818316178352505050506117da565b8160200151600081518110610af057610af0611bf5565b6020026020010181905250610b1060408051602081019091526000815290565b8160200151600181518110610b2757610b27611bf5565b6020026020010181905250610b3e42610e10611805565b8160200151600281518110610b5557610b55611bf5565b60200260200101819052507f000000000000000000000000000000000000000000000000000000000000000073ffffffffffffffffffffffffffffffffffffffff16633323b46730639f69101d60e01b604051602001610bdd91907fffffffff0000000000000000000000000000000000000000000000000000000091909116815260200190565b6040516020818303038152906040528473eeeeeeeeeeeeeeeeeeeeeeeeeeeeeeeeeeeeeeee6040518563ffffffff1660e01b8152600401610c219493929190611c53565b6020604051808303816000875af1158015610c40573d6000803e3d6000fd5b505050506040513d601f19601f82011682018060405250810190610c649190611d81565b73ffffffffffffffffffffffffffffffffffffffff90921660009081526020819052604090209190915550565b7f000000000000000000000000000000000000000000000000000000000000000073ffffffffffffffffffffffffffffffffffffffff1663fbfa77cf6040518163ffffffff1660e01b8152600401602060405180830381865afa158015610cfc573d6000803e3d6000fd5b505050506040513d601f19601f82011682018060405250810190610d209190611bd8565b73ffffffffffffffffffffffffffffffffffffffff163373ffffffffffffffffffffffffffffffffffffffff1614610d84576040517f6c7e0fa500000000000000000000000000000000000000000000000000000000815260040160405180910390fd5b73ffffffffffffffffffffffffffffffffffffffff811660009081526020819052604090205480156107dc5773ffffffffffffffffffffffffffffffffffffffff82811660009081526020819052604080822091909155517fee8ca3b5000000000000000000000000000000000000000000000000000000008152600481018390527f00000000000000000000000000000000000000000000000000000000000000009091169063ee8ca3b590602401600060405180830381600087803b158015610e4e57600080fd5b505af1925050508015610e5f575060015b610e925760405181907fa118902ac6d4b6eb6b67a6192547f1334caea349609ac4a9dab387316c4a70f890600090a25050565b60405181907f829337748a942941d08190f70a7cbeb3859e3366aa35ae03b7c332260b189ce090600090a25050565b600080610ecc611476565b915091507f000000000000000000000000000000000000000000000000000000000000000073ffffffffffffffffffffffffffffffffffffffff1663fbfa77cf6040518163ffffffff1660e01b8152600401602060405180830381865afa158015610f3b573d6000803e3d6000fd5b505050506040513d601f19601f82011682018060405250810190610f5f9190611bd8565b6040517fc4d39eee00000000000000000000000000000000000000000000000000000000815273ffffffffffffffffffffffffffffffffffffffff8581166004830152602482018590528381166044830152919091169063c4d39eee90606401610396565b7f000000000000000000000000000000000000000000000000000000000000000073ffffffffffffffffffffffffffffffffffffffff1663fbfa77cf6040518163ffffffff1660e01b8152600401602060405180830381865afa15801561102f573d6000803e3d6000fd5b505050506040513d601f19601f820116820180604052508101906110539190611bd8565b73ffffffffffffffffffffffffffffffffffffffff163373ffffffffffffffffffffffffffffffffffffffff16146110b7576040517f6c7e0fa500000000000000000000000000000000000000000000000000000000815260040160405180910390fd5b73ffffffffffffffffffffffffffffffffffffffff811660009081526001602052604090205415611114576040517f3d8ff6d700000000000000000000000000000000000000000000000000000000815260040160405180910390fd5b60408051600381830181815260c083019093526000928291606080840190803683370190505081526040805160038082526080820190925260209092019190816020015b6060815260200190600190039081611158575050905280518051919250600091829061118657611186611bf5565b6020026020010190600581111561119f5761119f611c24565b908160058111156111b2576111b2611c24565b81525050600281600001516001815181106111cf576111cf611bf5565b602002602001019060058111156111e8576111e8611c24565b908160058111156111fb576111fb611c24565b815250506005816000015160028151811061121857611218611bf5565b6020026020010190600581111561123157611231611c24565b9081600581111561124457611244611c24565b90525060405173ffffffffffffffffffffffffffffffffffffffff8316602482015261127a9030906330585f7c90604401610a92565b816020015160008151811061129157611291611bf5565b60200260200101819052506112b160408051602081019091526000815290565b81602001516001815181106112c8576112c8611bf5565b60200260200101819052506112df42610e10611805565b81602001516002815181106112f6576112f6611bf5565b60200260200101819052507f000000000000000000000000000000000000000000000000000000000000000073ffffffffffffffffffffffffffffffffffffffff16633323b4673063135ac99860e01b60405160200161137e91907fffffffff0000000000000000000000000000000000000000000000000000000091909116815260200190565b6040516020818303038152906040528473eeeeeeeeeeeeeeeeeeeeeeeeeeeeeeeeeeeeeeee6040518563ffffffff1660e01b81526004016113c29493929190611c53565b6020604051808303816000875af11580156113e1573d6000803e3d6000fd5b505050506040513d601f19601f820116820180604052508101906114059190611d81565b73ffffffffffffffffffffffffffffffffffffffff90921660009081526001602052604090209190915550565b6000606061143f83611877565b156104585760405173ffffffffffffffffffffffffffffffffffffffff841660248201526001903090639f69101d9060440161040d565b600080611481611a55565b50809250507f000000000000000000000000000000000000000000000000000000000000000073ffffffffffffffffffffffffffffffffffffffff1663573ea5756040518163ffffffff1660e01b8152600401602060405180830381865afa1580156114f1573d6000803e3d6000fd5b505050506040513d601f19601f820116820180604052508101906115159190611bd8565b73ffffffffffffffffffffffffffffffffffffffff1663c415b95c6040518163ffffffff1660e01b8152600401602060405180830381865afa15801561155f573d6000803e3d6000fd5b505050506040513d601f19601f820116820180604052508101906115839190611bd8565b90509091565b6000808273ffffffffffffffffffffffffffffffffffffffff16637b9e618d6040518163ffffffff1660e01b8152600401602060405180830381865afa1580156115d7573d6000803e3d6000fd5b505050506040513d601f19601f820116820180604052508101906115fb9190611bd8565b6040517ffddd4d8f00000000000000000000000000000000000000000000000000000000815273ffffffffffffffffffffffffffffffffffffffff80831660048301529192507f00000000000000000000000000000000000000000000000000000000000000009091169063fddd4d8f90602401602060405180830381865afa15801561168c573d6000803e3d6000fd5b505050506040513d601f19601f820116820180604052508101906116b09190611d81565b7f000000000000000000000000000000000000000000000000000000000000000073ffffffffffffffffffffffffffffffffffffffff1663fbfa77cf6040518163ffffffff1660e01b8152600401602060405180830381865afa15801561171b573d6000803e3d6000fd5b505050506040513d601f19601f8201168201806040525081019061173f9190611bd8565b6040517f5372d35c00000000000000000000000000000000000000000000000000000000815273ffffffffffffffffffffffffffffffffffffffff86811660048301529190911690635372d35c90602401602060405180830381865afa1580156117ad573d6000803e3d6000fd5b505050506040513d601f19601f820116820180604052508101906117d19190611d81565b10159392505050565b606030826040516020016117ef929190611d9a565b6040516020818303038152906040529050919050565b60606000838360405160200161183a9291906fffffffffffffffffffffffffffffffff92831681529116602082015260400190565b604051602081830303815290604052905060008160405160200161185f929190611dc9565b60405160208183030381529060405291505092915050565b6040517ffddd4d8f00000000000000000000000000000000000000000000000000000000815273ffffffffffffffffffffffffffffffffffffffff82811660048301526000917f00000000000000000000000000000000000000000000000000000000000000009091169063fddd4d8f90602401602060405180830381865afa158015611908573d6000803e3d6000fd5b505050506040513d601f19601f8201168201806040525081019061192c9190611d81565b7f000000000000000000000000000000000000000000000000000000000000000073ffffffffffffffffffffffffffffffffffffffff1663fbfa77cf6040518163ffffffff1660e01b8152600401602060405180830381865afa158015611997573d6000803e3d6000fd5b505050506040513d601f19601f820116820180604052508101906119bb9190611bd8565b6040517f0963c61a00000000000000000000000000000000000000000000000000000000815273ffffffffffffffffffffffffffffffffffffffff85811660048301529190911690630963c61a90602401602060405180830381865afa158015611a29573d6000803e3d6000fd5b505050506040513d601f19601f82011682018060405250810190611a4d9190611d81565b101592915050565b6000807f000000000000000000000000000000000000000000000000000000000000000073ffffffffffffffffffffffffffffffffffffffff1663b810c6366040518163ffffffff1660e01b81526004016040805180830381865afa158015611ac2573d6000803e3d6000fd5b505050506040513d601f19601f82011682018060405250810190611ae69190611df2565b90939092509050565b73ffffffffffffffffffffffffffffffffffffffff81168114611b1157600080fd5b50565b600060208284031215611b2657600080fd5b8135611b3181611aef565b9392505050565b6000815180845260005b81811015611b5e57602081850181015186830182015201611b42565b5060006020828601015260207fffffffffffffffffffffffffffffffffffffffffffffffffffffffffffffffe0601f83011685010191505092915050565b8215158152604060208201526000611bb76040830184611b38565b949350505050565b600060208284031215611bd157600080fd5b5035919050565b600060208284031215611bea57600080fd5b8151611b3181611aef565b7f4e487b7100000000000000000000000000000000000000000000000000000000600052603260045260246000fd5b7f4e487b7100000000000000000000000000000000000000000000000000000000600052602160045260246000fd5b73ffffffffffffffffffffffffffffffffffffffff8516815260006020608081840152611c836080840187611b38565b8381036040808601919091528651818352805191830182905283019060009060608401905b80831015611cd857835160068110611cc257611cc2611c24565b8252928501926001929092019190850190611ca8565b508885015184820394860194909452835180825281860194860193509150600582901b8101850160005b83811015611d4e577fffffffffffffffffffffffffffffffffffffffffffffffffffffffffffffffe0838303018652611d3c828651611b38565b95870195948701949150600101611d02565b5073ffffffffffffffffffffffffffffffffffffffff891660608901529550611d78945050505050565b95945050505050565b600060208284031215611d9357600080fd5b5051919050565b73ffffffffffffffffffffffffffffffffffffffff83168152604060208201526000611bb76040830184611b38565b600060048410611ddb57611ddb611c24565b83825260406020830152611bb76040830184611b38565b60008060408385031215611e0557600080fd5b825191506020830151611e1781611aef565b80915050925092905056fea2646970667358221220895fbd2c116acc2b515b7446169f5fb79569412ff4ca3146141697f9556952f964736f6c63430008130033",
  "devdoc": {
    "errors": {
      "ExistMakerEarningDistributionTask()": [
        {
          "details": "Throws an error indicating that a maker earning distribution task already exists."
        }
      ],
      "ExistMarketEarningDistributionTask()": [
        {
          "details": "Throws an error indicating that a market earning distribution task already exists."
        }
      ],
      "OnlyAccessableByDao()": [
        {
          "details": "Throws an error indicating that the caller is not the DAO."
        }
      ],
      "OnlyAccessableByVault()": [
        {
          "details": "Throws an error indicating that the caller is not the chromatch vault contract."
        }
      ]
    },
    "kind": "dev",
    "methods": {
      "cancelMakerEarningDistributionTask(address)": {
        "params": {
          "token": "The address of the settlement token."
        }
      },
      "cancelMarketEarningDistributionTask(address)": {
        "params": {
          "market": "The address of the market."
        }
      },
      "createMakerEarningDistributionTask(address)": {
        "details": "This function can only be called by the Chromatic factory contract or the DAO.      Throws an `ExistMakerEarningDistributionTask` error if a maker earning distribution task already exists for the token.",
        "params": {
          "token": "The address of the settlement token."
        }
      },
      "createMarketEarningDistributionTask(address)": {
        "details": "This function can only be called by the Chromatic factory contract or the DAO.      Throws an `ExistMarketEarningDistributionTask` error if a market earning distribution task already exists for the market.",
        "params": {
          "market": "The address of the market."
        }
      },
      "distributeMakerEarning(address)": {
        "params": {
          "token": "The address of the settlement token."
        }
      },
      "distributeMarketEarning(address)": {
        "params": {
          "market": "The address of the market."
        }
      },
      "resolveMakerEarningDistribution(address)": {
        "params": {
          "token": "The address of the settlement token."
        },
        "returns": {
          "canExec": "True if the distribution can be executed, otherwise False.",
          "execPayload": "The payload for executing the distribution."
        }
      },
      "resolveMarketEarningDistribution(address)": {
        "params": {
          "market": "The address of the market."
        },
        "returns": {
          "canExec": "True if the distribution can be executed.",
          "execPayload": "The payload for executing the distribution."
        }
      }
    },
    "version": 1
  },
  "userdoc": {
    "kind": "user",
    "methods": {
      "cancelMakerEarningDistributionTask(address)": {
        "notice": "Cancels a maker earning distribution task for a token."
      },
      "cancelMarketEarningDistributionTask(address)": {
        "notice": "Cancels a market earning distribution task for a market."
      },
      "createMakerEarningDistributionTask(address)": {
        "notice": "Creates a maker earning distribution task for a token."
      },
      "createMarketEarningDistributionTask(address)": {
        "notice": "Creates a market earning distribution task for a market."
      },
      "distributeMakerEarning(address)": {
        "notice": "Distributes the maker earning for a token to the each markets."
      },
      "distributeMarketEarning(address)": {
        "notice": "Distributes the market earning for a market to the each bins."
      },
      "resolveMakerEarningDistribution(address)": {
        "notice": "Resolves the maker earning distribution for a specific token."
      },
      "resolveMarketEarningDistribution(address)": {
        "notice": "Resolves the market earning distribution for a market."
      }
    },
    "version": 1
  },
  "storageLayout": {
    "storage": [
      {
        "astId": 11043,
        "contract": "contracts/core/automation/GelatoVaultEarningDistributor.sol:GelatoVaultEarningDistributor",
        "label": "makerEarningDistributionTaskIds",
        "offset": 0,
        "slot": "0",
        "type": "t_mapping(t_address,t_bytes32)"
      },
      {
        "astId": 11047,
        "contract": "contracts/core/automation/GelatoVaultEarningDistributor.sol:GelatoVaultEarningDistributor",
        "label": "marketEarningDistributionTaskIds",
        "offset": 0,
        "slot": "1",
        "type": "t_mapping(t_address,t_bytes32)"
      }
    ],
    "types": {
      "t_address": {
        "encoding": "inplace",
        "label": "address",
        "numberOfBytes": "20"
      },
      "t_bytes32": {
        "encoding": "inplace",
        "label": "bytes32",
        "numberOfBytes": "32"
      },
      "t_mapping(t_address,t_bytes32)": {
        "encoding": "mapping",
        "key": "t_address",
        "label": "mapping(address => bytes32)",
        "numberOfBytes": "32",
        "value": "t_bytes32"
      }
    }
  }
}