{
  "address": "0x92119e2e2aE7C47B70a91C974388bbc198Eb09d7",
  "abi": [
    {
      "inputs": [],
      "name": "AddLiquidityDisabled",
      "type": "error"
    },
    {
      "inputs": [],
      "name": "AlreadyClosedPosition",
      "type": "error"
    },
    {
      "inputs": [],
      "name": "ClaimPositionCallbackError",
      "type": "error"
    },
    {
      "inputs": [],
      "name": "ClosePositionDisabled",
      "type": "error"
    },
    {
      "inputs": [],
      "name": "DuplicatedTradingFeeRate",
      "type": "error"
    },
    {
      "inputs": [],
      "name": "Empty",
      "type": "error"
    },
    {
      "inputs": [],
      "name": "ExceedMaxAllowableLeverage",
      "type": "error"
    },
    {
      "inputs": [],
      "name": "ExceedMaxAllowableTradingFee",
      "type": "error"
    },
    {
      "inputs": [],
      "name": "InvalidLpReceiptAction",
      "type": "error"
    },
    {
      "inputs": [],
      "name": "InvalidTransferredTokenAmount",
      "type": "error"
    },
    {
      "inputs": [],
      "name": "NotAllowableMakerMargin",
      "type": "error"
    },
    {
      "inputs": [],
      "name": "NotClaimableLpReceipt",
      "type": "error"
    },
    {
      "inputs": [],
      "name": "NotClaimablePosition",
      "type": "error"
    },
    {
      "inputs": [],
      "name": "NotEnoughMarginTransferred",
      "type": "error"
    },
    {
      "inputs": [],
      "name": "NotExistLpReceipt",
      "type": "error"
    },
    {
      "inputs": [],
      "name": "NotExistPosition",
      "type": "error"
    },
    {
      "inputs": [],
      "name": "NotPermitted",
      "type": "error"
    },
    {
      "inputs": [],
      "name": "NotWithdrawableLpReceipt",
      "type": "error"
    },
    {
      "inputs": [],
      "name": "OnlyAccessableByDao",
      "type": "error"
    },
    {
      "inputs": [],
      "name": "OnlyAccessableByFactoryOrDao",
      "type": "error"
    },
    {
      "inputs": [],
      "name": "OnlyAccessableByLiquidator",
      "type": "error"
    },
    {
      "inputs": [],
      "name": "OnlyAccessableByVault",
      "type": "error"
    },
    {
      "inputs": [],
      "name": "OpenPositionDisabled",
      "type": "error"
    },
    {
      "inputs": [],
      "name": "OutOfBounds",
      "type": "error"
    },
    {
      "inputs": [],
      "name": "RemoveLiquidityDisabled",
      "type": "error"
    },
    {
      "inputs": [],
      "name": "TooSmallAmount",
      "type": "error"
    },
    {
      "inputs": [],
      "name": "TooSmallTakerMargin",
      "type": "error"
    },
    {
      "anonymous": false,
      "inputs": [
        {
          "components": [
            {
              "internalType": "uint256",
              "name": "id",
              "type": "uint256"
            },
            {
              "internalType": "uint256",
              "name": "oracleVersion",
              "type": "uint256"
            },
            {
              "internalType": "uint256",
              "name": "amount",
              "type": "uint256"
            },
            {
              "internalType": "address",
              "name": "recipient",
              "type": "address"
            },
            {
              "internalType": "enum LpAction",
              "name": "action",
              "type": "uint8"
            },
            {
              "internalType": "int16",
              "name": "tradingFeeRate",
              "type": "int16"
            }
          ],
          "indexed": false,
          "internalType": "struct LpReceipt",
          "name": "receipt",
          "type": "tuple"
        }
      ],
      "name": "AddLiquidity",
      "type": "event"
    },
    {
      "anonymous": false,
      "inputs": [
        {
          "components": [
            {
              "internalType": "uint256",
              "name": "id",
              "type": "uint256"
            },
            {
              "internalType": "uint256",
              "name": "oracleVersion",
              "type": "uint256"
            },
            {
              "internalType": "uint256",
              "name": "amount",
              "type": "uint256"
            },
            {
              "internalType": "address",
              "name": "recipient",
              "type": "address"
            },
            {
              "internalType": "enum LpAction",
              "name": "action",
              "type": "uint8"
            },
            {
              "internalType": "int16",
              "name": "tradingFeeRate",
              "type": "int16"
            }
          ],
          "indexed": false,
          "internalType": "struct LpReceipt[]",
          "name": "receipts",
          "type": "tuple[]"
        }
      ],
      "name": "AddLiquidityBatch",
      "type": "event"
    },
    {
      "anonymous": false,
      "inputs": [
        {
          "components": [
            {
              "internalType": "uint256",
              "name": "id",
              "type": "uint256"
            },
            {
              "internalType": "uint256",
              "name": "oracleVersion",
              "type": "uint256"
            },
            {
              "internalType": "uint256",
              "name": "amount",
              "type": "uint256"
            },
            {
              "internalType": "address",
              "name": "recipient",
              "type": "address"
            },
            {
              "internalType": "enum LpAction",
              "name": "action",
              "type": "uint8"
            },
            {
              "internalType": "int16",
              "name": "tradingFeeRate",
              "type": "int16"
            }
          ],
          "indexed": false,
          "internalType": "struct LpReceipt",
          "name": "receipt",
          "type": "tuple"
        },
        {
          "indexed": true,
          "internalType": "uint256",
          "name": "clbTokenAmount",
          "type": "uint256"
        }
      ],
      "name": "ClaimLiquidity",
      "type": "event"
    },
    {
      "anonymous": false,
      "inputs": [
        {
          "components": [
            {
              "internalType": "uint256",
              "name": "id",
              "type": "uint256"
            },
            {
              "internalType": "uint256",
              "name": "oracleVersion",
              "type": "uint256"
            },
            {
              "internalType": "uint256",
              "name": "amount",
              "type": "uint256"
            },
            {
              "internalType": "address",
              "name": "recipient",
              "type": "address"
            },
            {
              "internalType": "enum LpAction",
              "name": "action",
              "type": "uint8"
            },
            {
              "internalType": "int16",
              "name": "tradingFeeRate",
              "type": "int16"
            }
          ],
          "indexed": false,
          "internalType": "struct LpReceipt[]",
          "name": "receipts",
          "type": "tuple[]"
        },
        {
          "indexed": false,
          "internalType": "uint256[]",
          "name": "clbTokenAmounts",
          "type": "uint256[]"
        }
      ],
      "name": "ClaimLiquidityBatch",
      "type": "event"
    },
    {
      "anonymous": false,
      "inputs": [
        {
          "indexed": true,
          "internalType": "address",
          "name": "account",
          "type": "address"
        },
        {
          "indexed": true,
          "internalType": "int256",
          "name": "pnl",
          "type": "int256"
        },
        {
          "indexed": true,
          "internalType": "uint256",
          "name": "interest",
          "type": "uint256"
        },
        {
          "components": [
            {
              "internalType": "uint256",
              "name": "id",
              "type": "uint256"
            },
            {
              "internalType": "uint256",
              "name": "openVersion",
              "type": "uint256"
            },
            {
              "internalType": "uint256",
              "name": "closeVersion",
              "type": "uint256"
            },
            {
              "internalType": "int256",
              "name": "qty",
              "type": "int256"
            },
            {
              "internalType": "uint256",
              "name": "openTimestamp",
              "type": "uint256"
            },
            {
              "internalType": "uint256",
              "name": "closeTimestamp",
              "type": "uint256"
            },
            {
              "internalType": "uint256",
              "name": "takerMargin",
              "type": "uint256"
            },
            {
              "internalType": "address",
              "name": "owner",
              "type": "address"
            },
            {
              "internalType": "address",
              "name": "liquidator",
              "type": "address"
            },
            {
              "internalType": "uint16",
              "name": "_protocolFeeRate",
              "type": "uint16"
            },
            {
              "components": [
                {
                  "internalType": "uint16",
                  "name": "tradingFeeRate",
                  "type": "uint16"
                },
                {
                  "internalType": "uint256",
                  "name": "amount",
                  "type": "uint256"
                }
              ],
              "internalType": "struct BinMargin[]",
              "name": "_binMargins",
              "type": "tuple[]"
            }
          ],
          "indexed": false,
          "internalType": "struct Position",
          "name": "position",
          "type": "tuple"
        }
      ],
      "name": "ClaimPosition",
      "type": "event"
    },
    {
      "anonymous": false,
      "inputs": [
        {
          "indexed": true,
          "internalType": "address",
          "name": "account",
          "type": "address"
        },
        {
          "indexed": true,
          "internalType": "int256",
          "name": "pnl",
          "type": "int256"
        },
        {
          "indexed": true,
          "internalType": "uint256",
          "name": "interest",
          "type": "uint256"
        },
        {
          "indexed": false,
          "internalType": "uint256",
          "name": "usedKeeperFee",
          "type": "uint256"
        },
        {
          "components": [
            {
              "internalType": "uint256",
              "name": "id",
              "type": "uint256"
            },
            {
              "internalType": "uint256",
              "name": "openVersion",
              "type": "uint256"
            },
            {
              "internalType": "uint256",
              "name": "closeVersion",
              "type": "uint256"
            },
            {
              "internalType": "int256",
              "name": "qty",
              "type": "int256"
            },
            {
              "internalType": "uint256",
              "name": "openTimestamp",
              "type": "uint256"
            },
            {
              "internalType": "uint256",
              "name": "closeTimestamp",
              "type": "uint256"
            },
            {
              "internalType": "uint256",
              "name": "takerMargin",
              "type": "uint256"
            },
            {
              "internalType": "address",
              "name": "owner",
              "type": "address"
            },
            {
              "internalType": "address",
              "name": "liquidator",
              "type": "address"
            },
            {
              "internalType": "uint16",
              "name": "_protocolFeeRate",
              "type": "uint16"
            },
            {
              "components": [
                {
                  "internalType": "uint16",
                  "name": "tradingFeeRate",
                  "type": "uint16"
                },
                {
                  "internalType": "uint256",
                  "name": "amount",
                  "type": "uint256"
                }
              ],
              "internalType": "struct BinMargin[]",
              "name": "_binMargins",
              "type": "tuple[]"
            }
          ],
          "indexed": false,
          "internalType": "struct Position",
          "name": "position",
          "type": "tuple"
        }
      ],
      "name": "ClaimPositionByKeeper",
      "type": "event"
    },
    {
      "anonymous": false,
      "inputs": [
        {
          "indexed": true,
          "internalType": "address",
          "name": "account",
          "type": "address"
        },
        {
          "components": [
            {
              "internalType": "uint256",
              "name": "id",
              "type": "uint256"
            },
            {
              "internalType": "uint256",
              "name": "openVersion",
              "type": "uint256"
            },
            {
              "internalType": "uint256",
              "name": "closeVersion",
              "type": "uint256"
            },
            {
              "internalType": "int256",
              "name": "qty",
              "type": "int256"
            },
            {
              "internalType": "uint256",
              "name": "openTimestamp",
              "type": "uint256"
            },
            {
              "internalType": "uint256",
              "name": "closeTimestamp",
              "type": "uint256"
            },
            {
              "internalType": "uint256",
              "name": "takerMargin",
              "type": "uint256"
            },
            {
              "internalType": "address",
              "name": "owner",
              "type": "address"
            },
            {
              "internalType": "address",
              "name": "liquidator",
              "type": "address"
            },
            {
              "internalType": "uint16",
              "name": "_protocolFeeRate",
              "type": "uint16"
            },
            {
              "components": [
                {
                  "internalType": "uint16",
                  "name": "tradingFeeRate",
                  "type": "uint16"
                },
                {
                  "internalType": "uint256",
                  "name": "amount",
                  "type": "uint256"
                }
              ],
              "internalType": "struct BinMargin[]",
              "name": "_binMargins",
              "type": "tuple[]"
            }
          ],
          "indexed": false,
          "internalType": "struct Position",
          "name": "position",
          "type": "tuple"
        }
      ],
      "name": "ClosePosition",
      "type": "event"
    },
    {
      "anonymous": false,
      "inputs": [
        {
          "indexed": false,
          "internalType": "enum DisplayMode",
          "name": "displayModeOld",
          "type": "uint8"
        },
        {
          "indexed": false,
          "internalType": "enum DisplayMode",
          "name": "displayModeNew",
          "type": "uint8"
        }
      ],
      "name": "DisplayModeUpdated",
      "type": "event"
    },
    {
      "anonymous": false,
      "inputs": [
        {
          "indexed": true,
          "internalType": "address",
          "name": "account",
          "type": "address"
        },
        {
          "indexed": true,
          "internalType": "int256",
          "name": "pnl",
          "type": "int256"
        },
        {
          "indexed": true,
          "internalType": "uint256",
          "name": "interest",
          "type": "uint256"
        },
        {
          "indexed": false,
          "internalType": "uint256",
          "name": "usedKeeperFee",
          "type": "uint256"
        },
        {
          "components": [
            {
              "internalType": "uint256",
              "name": "id",
              "type": "uint256"
            },
            {
              "internalType": "uint256",
              "name": "openVersion",
              "type": "uint256"
            },
            {
              "internalType": "uint256",
              "name": "closeVersion",
              "type": "uint256"
            },
            {
              "internalType": "int256",
              "name": "qty",
              "type": "int256"
            },
            {
              "internalType": "uint256",
              "name": "openTimestamp",
              "type": "uint256"
            },
            {
              "internalType": "uint256",
              "name": "closeTimestamp",
              "type": "uint256"
            },
            {
              "internalType": "uint256",
              "name": "takerMargin",
              "type": "uint256"
            },
            {
              "internalType": "address",
              "name": "owner",
              "type": "address"
            },
            {
              "internalType": "address",
              "name": "liquidator",
              "type": "address"
            },
            {
              "internalType": "uint16",
              "name": "_protocolFeeRate",
              "type": "uint16"
            },
            {
              "components": [
                {
                  "internalType": "uint16",
                  "name": "tradingFeeRate",
                  "type": "uint16"
                },
                {
                  "internalType": "uint256",
                  "name": "amount",
                  "type": "uint256"
                }
              ],
              "internalType": "struct BinMargin[]",
              "name": "_binMargins",
              "type": "tuple[]"
            }
          ],
          "indexed": false,
          "internalType": "struct Position",
          "name": "position",
          "type": "tuple"
        }
      ],
      "name": "Liquidate",
      "type": "event"
    },
    {
      "anonymous": false,
      "inputs": [
        {
          "indexed": false,
          "internalType": "enum LiquidityMode",
          "name": "liquidityModeOld",
          "type": "uint8"
        },
        {
          "indexed": false,
          "internalType": "enum LiquidityMode",
          "name": "liquidityModeNew",
          "type": "uint8"
        }
      ],
      "name": "LiquidityModeUpdated",
      "type": "event"
    },
    {
      "anonymous": false,
      "inputs": [
        {
          "indexed": true,
          "internalType": "address",
          "name": "account",
          "type": "address"
        },
        {
          "components": [
            {
              "internalType": "uint256",
              "name": "id",
              "type": "uint256"
            },
            {
              "internalType": "uint256",
              "name": "openVersion",
              "type": "uint256"
            },
            {
              "internalType": "uint256",
              "name": "closeVersion",
              "type": "uint256"
            },
            {
              "internalType": "int256",
              "name": "qty",
              "type": "int256"
            },
            {
              "internalType": "uint256",
              "name": "openTimestamp",
              "type": "uint256"
            },
            {
              "internalType": "uint256",
              "name": "closeTimestamp",
              "type": "uint256"
            },
            {
              "internalType": "uint256",
              "name": "takerMargin",
              "type": "uint256"
            },
            {
              "internalType": "address",
              "name": "owner",
              "type": "address"
            },
            {
              "internalType": "address",
              "name": "liquidator",
              "type": "address"
            },
            {
              "internalType": "uint16",
              "name": "_protocolFeeRate",
              "type": "uint16"
            },
            {
              "components": [
                {
                  "internalType": "uint16",
                  "name": "tradingFeeRate",
                  "type": "uint16"
                },
                {
                  "internalType": "uint256",
                  "name": "amount",
                  "type": "uint256"
                }
              ],
              "internalType": "struct BinMargin[]",
              "name": "_binMargins",
              "type": "tuple[]"
            }
          ],
          "indexed": false,
          "internalType": "struct Position",
          "name": "position",
          "type": "tuple"
        }
      ],
      "name": "OpenPosition",
      "type": "event"
    },
    {
      "anonymous": false,
      "inputs": [
        {
          "indexed": false,
          "internalType": "enum PositionMode",
          "name": "positionModeOld",
          "type": "uint8"
        },
        {
          "indexed": false,
          "internalType": "enum PositionMode",
          "name": "positionModeNew",
          "type": "uint8"
        }
      ],
      "name": "PositionModeUpdated",
      "type": "event"
    },
    {
      "anonymous": false,
      "inputs": [
        {
          "indexed": false,
          "internalType": "uint16",
          "name": "protocolFeeRateOld",
          "type": "uint16"
        },
        {
          "indexed": false,
          "internalType": "uint16",
          "name": "protocolFeeRateNew",
          "type": "uint16"
        }
      ],
      "name": "ProtocolFeeRateUpdated",
      "type": "event"
    },
    {
      "anonymous": false,
      "inputs": [
        {
          "components": [
            {
              "internalType": "uint256",
              "name": "id",
              "type": "uint256"
            },
            {
              "internalType": "uint256",
              "name": "oracleVersion",
              "type": "uint256"
            },
            {
              "internalType": "uint256",
              "name": "amount",
              "type": "uint256"
            },
            {
              "internalType": "address",
              "name": "recipient",
              "type": "address"
            },
            {
              "internalType": "enum LpAction",
              "name": "action",
              "type": "uint8"
            },
            {
              "internalType": "int16",
              "name": "tradingFeeRate",
              "type": "int16"
            }
          ],
          "indexed": false,
          "internalType": "struct LpReceipt",
          "name": "receipt",
          "type": "tuple"
        }
      ],
      "name": "RemoveLiquidity",
      "type": "event"
    },
    {
      "anonymous": false,
      "inputs": [
        {
          "components": [
            {
              "internalType": "uint256",
              "name": "id",
              "type": "uint256"
            },
            {
              "internalType": "uint256",
              "name": "oracleVersion",
              "type": "uint256"
            },
            {
              "internalType": "uint256",
              "name": "amount",
              "type": "uint256"
            },
            {
              "internalType": "address",
              "name": "recipient",
              "type": "address"
            },
            {
              "internalType": "enum LpAction",
              "name": "action",
              "type": "uint8"
            },
            {
              "internalType": "int16",
              "name": "tradingFeeRate",
              "type": "int16"
            }
          ],
          "indexed": false,
          "internalType": "struct LpReceipt[]",
          "name": "receipts",
          "type": "tuple[]"
        }
      ],
      "name": "RemoveLiquidityBatch",
      "type": "event"
    },
    {
      "anonymous": false,
      "inputs": [
        {
          "components": [
            {
              "internalType": "uint256",
              "name": "id",
              "type": "uint256"
            },
            {
              "internalType": "uint256",
              "name": "oracleVersion",
              "type": "uint256"
            },
            {
              "internalType": "uint256",
              "name": "amount",
              "type": "uint256"
            },
            {
              "internalType": "address",
              "name": "recipient",
              "type": "address"
            },
            {
              "internalType": "enum LpAction",
              "name": "action",
              "type": "uint8"
            },
            {
              "internalType": "int16",
              "name": "tradingFeeRate",
              "type": "int16"
            }
          ],
          "indexed": false,
          "internalType": "struct LpReceipt",
          "name": "receipt",
          "type": "tuple"
        },
        {
          "indexed": true,
          "internalType": "uint256",
          "name": "amount",
          "type": "uint256"
        },
        {
          "indexed": true,
          "internalType": "uint256",
          "name": "burnedCLBTokenAmount",
          "type": "uint256"
        }
      ],
      "name": "WithdrawLiquidity",
      "type": "event"
    },
    {
      "anonymous": false,
      "inputs": [
        {
          "components": [
            {
              "internalType": "uint256",
              "name": "id",
              "type": "uint256"
            },
            {
              "internalType": "uint256",
              "name": "oracleVersion",
              "type": "uint256"
            },
            {
              "internalType": "uint256",
              "name": "amount",
              "type": "uint256"
            },
            {
              "internalType": "address",
              "name": "recipient",
              "type": "address"
            },
            {
              "internalType": "enum LpAction",
              "name": "action",
              "type": "uint8"
            },
            {
              "internalType": "int16",
              "name": "tradingFeeRate",
              "type": "int16"
            }
          ],
          "indexed": false,
          "internalType": "struct LpReceipt[]",
          "name": "receipts",
          "type": "tuple[]"
        },
        {
          "indexed": false,
          "internalType": "uint256[]",
          "name": "amounts",
          "type": "uint256[]"
        },
        {
          "indexed": false,
          "internalType": "uint256[]",
          "name": "burnedCLBTokenAmounts",
          "type": "uint256[]"
        }
      ],
      "name": "WithdrawLiquidityBatch",
      "type": "event"
    },
    {
      "inputs": [
        {
          "internalType": "int16[]",
          "name": "feeRates",
          "type": "int16[]"
        }
      ],
      "name": "settle",
      "outputs": [],
      "stateMutability": "nonpayable",
      "type": "function"
    },
    {
      "inputs": [],
      "name": "settleAll",
      "outputs": [],
      "stateMutability": "nonpayable",
      "type": "function"
    }
  ],
  "transactionHash": "0xf232561deb3f584301498c80f5e8d0fbbc01206a1d1da95c704d14cfca666b4c",
  "args": [],
  "numDeployments": 3,
  "solcInputHash": "273b8e6ab8305e244d89cf15e534ce19",
  "bytecode": "0x608060405234801561001057600080fd5b506124c8806100206000396000f3fe608060405234801561001057600080fd5b50600436106100365760003560e01c80634c32f73a1461003b578063a015aefe14610050575b600080fd5b61004e610049366004611fd6565b610058565b005b61004e61022f565b7f492a974aed1be5cd7fa4ce3b0cfab809a1de17af5ade68dd0729b36f2ed0979754604080517f5e6791ff000000000000000000000000000000000000000000000000000000008152905173ffffffffffffffffffffffffffffffffffffffff90921691635e6791ff9160048181019260009290919082900301818387803b1580156100e357600080fd5b505af11580156100f7573d6000803e3d6000fd5b5050505060006101247f492a974aed1be5cd7fa4ce3b0cfab809a1de17af5ade68dd0729b36f2ed0979390565b90506000610131826103ce565b905061013c81610547565b61017f81858580806020026020016040519081016040528093929190818152602001838360200280828437600092019190915250506005870193929150506105c4565b50506101a87f492a974aed1be5cd7fa4ce3b0cfab809a1de17af5ade68dd0729b36f2ed0979390565b600490810154604080517fb9c87d63000000000000000000000000000000000000000000000000000000008152905173ffffffffffffffffffffffffffffffffffffffff9092169263b9c87d6392828201926000929082900301818387803b15801561021357600080fd5b505af1158015610227573d6000803e3d6000fd5b505050505050565b7f492a974aed1be5cd7fa4ce3b0cfab809a1de17af5ade68dd0729b36f2ed0979754604080517f5e6791ff000000000000000000000000000000000000000000000000000000008152905173ffffffffffffffffffffffffffffffffffffffff90921691635e6791ff9160048181019260009290919082900301818387803b1580156102ba57600080fd5b505af11580156102ce573d6000803e3d6000fd5b5050505060006102fb7f492a974aed1be5cd7fa4ce3b0cfab809a1de17af5ade68dd0729b36f2ed0979390565b90506000610308826103ce565b905061031381610547565b6103206005830182610652565b50506103497f492a974aed1be5cd7fa4ce3b0cfab809a1de17af5ade68dd0729b36f2ed0979390565b600490810154604080517fb9c87d63000000000000000000000000000000000000000000000000000000008152905173ffffffffffffffffffffffffffffffffffffffff9092169263b9c87d6392828201926000929082900301818387803b1580156103b457600080fd5b505af11580156103c8573d6000803e3d6000fd5b50505050565b61042960408051610100810182526000808252602080830182905282840182905260608084018390526080840183905260a0840183905260c0840183905284519081018552828152908101829052928301529060e082015290565b61044d60405180606001604052806000815260200160008152602001600081525090565b6040805161010081018252600185015473ffffffffffffffffffffffffffffffffffffffff908116825285548116602080840191909152600480880154831684860152600388015483166060850152306080850152600288015490921660a0840181905284517f313ce5670000000000000000000000000000000000000000000000000000000081529451939460c0860194919363313ce567938282019390929091908290030181865afa158015610509573d6000803e3d6000fd5b505050506040513d601f19601f8201168201806040525081019061052d919061204b565b61053890600a6121bd565b81526020019190915292915050565b806000015173ffffffffffffffffffffffffffffffffffffffff1663fff6cae96040518163ffffffff1660e01b81526004016060604051808303816000875af1158015610598573d6000803e3d6000fd5b505050506040513d601f19601f820116820180604052508101906105bc91906121cc565b60e090910152565b60005b81518110156103c85760008282815181106105e4576105e461224f565b6020026020010151905060008160010b121561062c576106278460018701600061060d8561227e565b61ffff1681526020810191909152604001600020906106d0565b610649565b61ffff8116600090815260208690526040902061064990856106d0565b506001016105c7565b600061065c6107be565b905060005b60248110156103c857600082826024811061067e5761067e61224f565b6020908102919091015161ffff811660009081529187905260409091209091506106a890856106d0565b61ffff8116600090815260018601602052604090206106c790856106d0565b50600101610661565b6106dd60158301826108fa565b6106ea6009830182610a40565b6106f76001830182610b56565b156107ba5781546107b88261070c8582610c6a565b61071586610d99565b60608601516040517fbd85b03900000000000000000000000000000000000000000000000000000000815260048101879052869173ffffffffffffffffffffffffffffffffffffffff169063bd85b03990602401602060405180830381865afa158015610786573d6000803e3d6000fd5b505050506040513d601f19601f820116820180604052508101906107aa91906122bc565b600189019493929190610dcc565b505b5050565b6107c6611fb7565b50604080516104808101825260018152600260208201526003918101919091526004606082015260056080820152600660a0820152600760c0820152600860e08201526009610100820152600a6101208201526014610140820152601e610160820152602861018082015260326101a0820152603c6101c082015260466101e08201526050610200820152605a610220820152606461024082015260c861026082015261012c6102808201526101906102a08201526101f46102c08201526102586102e08201526102bc610300820152610320808201526103846103408201526103e86103608201526105dc6103808201526107d06103a08201526109c46103c0820152610bb86103e0820152610dac610400820152610fa061042082015261119461044082015261138861046082015290565b6002820154610909828261101a565b61091257505050565b60408051608081018252600385015481526004850154602082015260058501549181019190915260068401546060820152835461095690600c860190859042611039565b806040015184600001600082825461096e91906122d5565b9091555050606081015160018501805460009061098c9084906122d5565b9091555061099f9050600985018361107b565b506000828152600b85016020908152604091829020835181559083015160018201559082015160028083019190915560608301516003909201919091556109e890850184611087565b6008840154600d85018054600090610a019084906122d5565b90915550506000600285018190556003850181905560048501819055600585018190556006850181905560078501819055600890940193909355505050565b6004820154610a4f828261101a565b610a5857505050565b6002830154610a6e90600a850190849042611039565b6005830154835481908590600090610a879084906122e8565b90915550610aa3905081610a9e600487018661109d565b6110b6565b846001016000828254610ab691906122d5565b90915550506006840154600285018054600090610ad49084906122d5565b90915550506007840154600385018054600090610af29084906122d5565b90915550610b05905060048501846110d5565b6009840154600b85018054600090610b1e9084906122d5565b909155505060006004850181905560058501819055600685018190556007850181905560088501819055600990940193909355505050565b60005b6006830154600f81810b700100000000000000000000000000000000909204900b1315610c19576000610b8e846006016110eb565b600081815260058601602090815260409182902082516060810184528154808252600183015493820184905260029092015493810193909352929350909111610c0b57610bdd85600601611165565b508051600003610c06576000828152600586016020526040812081815560018101829055600201555b610c12565b5050610c19565b5050610b59565b6000610c438460060154600f81810b700100000000000000000000000000000000909204900b0390565b1115610c5157506001610c64565b6001830154610c6190839061101a565b90505b92915050565b600080610c7a6009850184611222565b90506000610c8782611303565b90506000610c96866001015490565b90506000808412610cb057610cab83836122d5565b610cba565b610cba8383612310565b604080880151608089015160a08a015192517f4e82c4b700000000000000000000000000000000000000000000000000000000815273ffffffffffffffffffffffffffffffffffffffff91821660048201529281166024840152604483018690529293509190911690634e82c4b790606401602060405180830381865afa158015610d49573d6000803e3d6000fd5b505050506040513d601f19601f82011682018060405250810190610d6d91906122bc565b610d7a601589018861131a565b610d8490836122d5565b610d8e91906122d5565b979650505050505050565b6000610da78260150161133d565b610db383600901611350565b6001840154610dc29190612310565b610c649190612310565b600080610ddb88888886611366565b9092509050600080610df88a610df1868a6122d5565b8a886114ae565b9150915081831115610e9c57886060015173ffffffffffffffffffffffffffffffffffffffff1663731133e98a60800151888587610e369190612310565b604051806020016040528060008152506040518563ffffffff1660e01b8152600401610e659493929190612387565b600060405180830381600087803b158015610e7f57600080fd5b505af1158015610e93573d6000803e3d6000fd5b50505050610f62565b81831015610f6257886060015173ffffffffffffffffffffffffffffffffffffffff1663f5298aca8a60800151888686610ed69190612310565b6040517fffffffff0000000000000000000000000000000000000000000000000000000060e086901b16815273ffffffffffffffffffffffffffffffffffffffff909316600484015260248301919091526044820152606401600060405180830381600087803b158015610f4957600080fd5b505af1158015610f5d573d6000803e3d6000fd5b505050505b83151580610f6f57508015155b1561100e576040808a015160a08b015191517f8b41411700000000000000000000000000000000000000000000000000000000815273ffffffffffffffffffffffffffffffffffffffff92831660048201526024810187905260448101849052911690638b41411790606401600060405180830381600087803b158015610ff557600080fd5b505af1158015611009573d6000803e3d6000fd5b505050505b50505050505050505050565b60008115801590610c61575061102f836115fb565b5190911092915050565b835480821161104857506103c8565b82156110735761105a848483856116ad565b85600101600082825461106d91906122d5565b90915550505b509092555050565b6000610c618383611782565b60038201546107ba906005840190839042611039565b80518254600091610c61916110b1856115fb565b6117d1565b6000610c6182670de0b6b3a76400006110ce86611303565b9190611912565b60028201546107ba906004840190839042611039565b60006111138254600f81810b700100000000000000000000000000000000909204900b131590565b1561114a576040517f3db2a12a00000000000000000000000000000000000000000000000000000000815260040160405180910390fd5b508054600f0b60009081526001909101602052604090205490565b600061118d8254600f81810b700100000000000000000000000000000000909204900b131590565b156111c4576040517f3db2a12a00000000000000000000000000000000000000000000000000000000815260040160405180910390fd5b508054600f0b6000818152600180840160205260408220805492905583547fffffffffffffffffffffffffffffffff000000000000000000000000000000001692016fffffffffffffffffffffffffffffffff169190911790915590565b60008061122e836115fb565b84549091506000811561127d57600061125e670de0b6b3a764000061125285611303565b60018a01549190611912565b9050600061126b85611a3c565b9050611278848383611ac1565b925050505b600061129161128c8888611b79565b611b92565b61129e6004890188611c44565b6112a890846122e8565b6112b291906122e8565b905060006112bf82611303565b9050600082126112ea576112de61128c826112d98b611d08565b611d1e565b95505050505050610c64565b6112fa61128c826112d98b611350565b6112de906123cc565b6000808212156113165781600003610c64565b5090565b60006113296002840183611d34565b6113338484611d4d565b610c6191906122d5565b60058101548154600091610c64916122d5565b60068101546002820154600091610c64916122d5565b6001840154600090819061137a868261101a565b61138b5760008092509250506114a5565b6002870154600388015490935083156113f4576113a9848787611d63565b9250838860000160008282546113bf91906122d5565b90915550506040805180820182528581526020808201868152600086815260048d019092529290209051815590516001909101555b801561148d5760068801805470010000000000000000000000000000000090819004600f0b600081815260078c016020526040902085905582546fffffffffffffffffffffffffffffffff908116600190920116909102179055604080516060810182528281526000602080830182815283850183815287845260058e0190925293909120915182559151600182015590516002909101555b50506000600187018190556002870181905560038701555b94509492505050565b60008060006114db8760060154600f81810b700100000000000000000000000000000000909204900b0390565b905060005b81811080156114ee57508615155b156115d557600061150260068a0183611d97565b600081815260058b01602052604081206001810154815493945090926115289190612310565b905080156115c75760008061153e838c8c611e2e565b9050808c1061154f5782915061156b565b61155a8c8c8c611d63565b915082821061156857600080fd5b508a5b8184600101600082825461157f91906122d5565b925050819055508084600201600082825461159a91906122d5565b909155506115aa9050828a6122d5565b98506115b681896122d5565b97506115c2818d612310565b9b5050505b8360010193505050506114e0565b50818760000160008282546115ea9190612310565b925050819055505094509492505050565b61161f60405180606001604052806000815260200160008152602001600081525090565b60e0820151516000036116a557816000015173ffffffffffffffffffffffffffffffffffffffff16639d888e866040518163ffffffff1660e01b8152600401606060405180830381865afa15801561167b573d6000803e3d6000fd5b505050506040513d601f19601f8201168201806040525081019061169f91906121cc565b60e08301525b5060e0015190565b60008315806116bc5750818310155b61177457602085015160a08601516040517f705b170e00000000000000000000000000000000000000000000000000000000815273ffffffffffffffffffffffffffffffffffffffff918216600482015260248101879052604481018690526064810185905291169063705b170e90608401602060405180830381865afa15801561174b573d6000803e3d6000fd5b505050506040513d601f19601f8201168201806040525081019061176f91906122bc565b611777565b60005b90505b949350505050565b60008181526001830160205260408120546117c957508154600181810184556000848152602080822090930184905584548482528286019093526040902091909155610c64565b506000610c64565b6000806117dd84611e4b565b835160408051808201909152600381527f55535000000000000000000000000000000000000000000000000000000000006020820152919250821115611859576040517f08c379a00000000000000000000000000000000000000000000000000000000081526004016118509190612404565b60405180910390fd5b50825160009082146118f9576040517f7ece075d0000000000000000000000000000000000000000000000000000000081526004810183905273ffffffffffffffffffffffffffffffffffffffff871690637ece075d90602401606060405180830381865afa1580156118d0573d6000803e3d6000fd5b505050506040513d601f19601f820116820180604052508101906118f491906121cc565b6118fb565b835b905061190681611a3c565b925050505b9392505050565b600080807fffffffffffffffffffffffffffffffffffffffffffffffffffffffffffffffff8587098587029250828110838203039150508060000361196a5783828161196057611960612417565b049250505061190b565b8084116119d3576040517f08c379a000000000000000000000000000000000000000000000000000000000815260206004820152601560248201527f4d6174683a206d756c446976206f766572666c6f7700000000000000000000006044820152606401611850565b60008486880960026001871981018816978890046003810283188082028403028082028403028082028403028082028403028082028403029081029092039091026000889003889004909101858311909403939093029303949094049190911702949350505050565b6000808260400151136040518060400160405280600381526020017f4e5050000000000000000000000000000000000000000000000000000000000081525090611ab3576040517f08c379a00000000000000000000000000000000000000000000000000000000081526004016118509190612404565b50610c648260400151611303565b6000831580611acf57508183145b15611adc5750600061190b565b6000838311611b0057611af261128c8486612310565b611afb906123cc565b611b0d565b611b0d61128c8585612310565b90506000851215611b4557611b427fffffffffffffffffffffffffffffffffffffffffffffffffffffffffffffffff82612446565b90505b6000611b6061128c611b5684611303565b876110ce8a611303565b905060008212611b705780611906565b611906816123cc565b6002820154600090610c6190600a850190849042611ec6565b60007f7fffffffffffffffffffffffffffffffffffffffffffffffffffffffffffffff821115611316576040517f08c379a000000000000000000000000000000000000000000000000000000000815260206004820152602860248201527f53616665436173743a2076616c756520646f65736e27742066697420696e206160448201527f6e20696e743235360000000000000000000000000000000000000000000000006064820152608401611850565b8154600090611c53838261101a565b611c61576000915050610c64565b6000611c6c846115fb565b90506000611c828560000151846110b1886115fb565b90506000611c8f83611a3c565b90506000611ca061128c8989611f05565b611caf89600101548585611ac1565b611cb991906122e8565b90506000611cc682611303565b905060008212611cee57611ce161128c828b60030154611d1e565b9650505050505050610c64565b611cff61128c828b60020154611d1e565b611ce1906123cc565b60078101546003820154600091610c64916122d5565b6000818310611d2d5781610c61565b5090919050565b6003820154600090610c61906005850190849042611ec6565b8154600090610c6190600c850190849042611ec6565b60008115611d8f57611d8a826103e88510611d7e5784611d82565b6103e85b869190611912565b61177a565b509192915050565b600080611dba611da684611b92565b8554611db59190600f0b6122e8565b611f1e565b84549091507001000000000000000000000000000000009004600f90810b9082900b12611e13576040517fb4120f1400000000000000000000000000000000000000000000000000000000815260040160405180910390fd5b600f0b60009081526001939093016020525050604090205490565b60008115611e4157611d8a848484611912565b5060009392505050565b60408051808201909152600381527f494f560000000000000000000000000000000000000000000000000000000000602082015260009082611eba576040517f08c379a00000000000000000000000000000000000000000000000000000000081526004016118509190612404565b50610c648260016122d5565b600082600003611ed85750600061177a565b84546001860154818411611eef57915061177a9050565b611efb868684876116ad565b610d8e90826122d5565b6002820154600090610c61906004850190849042611ec6565b80600f81900b8114611fb2576040517f08c379a000000000000000000000000000000000000000000000000000000000815260206004820152602760248201527f53616665436173743a2076616c756520646f65736e27742066697420696e203160448201527f32382062697473000000000000000000000000000000000000000000000000006064820152608401611850565b919050565b6040518061048001604052806024906020820280368337509192915050565b60008060208385031215611fe957600080fd5b823567ffffffffffffffff8082111561200157600080fd5b818501915085601f83011261201557600080fd5b81358181111561202457600080fd5b8660208260051b850101111561203957600080fd5b60209290920196919550909350505050565b60006020828403121561205d57600080fd5b815160ff8116811461190b57600080fd5b7f4e487b7100000000000000000000000000000000000000000000000000000000600052601160045260246000fd5b600181815b808511156120f657817fffffffffffffffffffffffffffffffffffffffffffffffffffffffffffffffff048211156120dc576120dc61206e565b808516156120e957918102915b93841c93908002906120a2565b509250929050565b60008261210d57506001610c64565b8161211a57506000610c64565b8160018114612130576002811461213a57612156565b6001915050610c64565b60ff84111561214b5761214b61206e565b50506001821b610c64565b5060208310610133831016604e8410600b8410161715612179575081810a610c64565b612183838361209d565b807fffffffffffffffffffffffffffffffffffffffffffffffffffffffffffffffff048211156121b5576121b561206e565b029392505050565b6000610c6160ff8416836120fe565b6000606082840312156121de57600080fd5b6040516060810181811067ffffffffffffffff82111715612228577f4e487b7100000000000000000000000000000000000000000000000000000000600052604160045260246000fd5b80604052508251815260208301516020820152604083015160408201528091505092915050565b7f4e487b7100000000000000000000000000000000000000000000000000000000600052603260045260246000fd5b60008160010b7fffffffffffffffffffffffffffffffffffffffffffffffffffffffffffff800081036122b3576122b361206e565b60000392915050565b6000602082840312156122ce57600080fd5b5051919050565b80820180821115610c6457610c6461206e565b80820182811260008312801582168215821617156123085761230861206e565b505092915050565b81810381811115610c6457610c6461206e565b6000815180845260005b818110156123495760208185018101518683018201520161232d565b5060006020828601015260207fffffffffffffffffffffffffffffffffffffffffffffffffffffffffffffffe0601f83011685010191505092915050565b73ffffffffffffffffffffffffffffffffffffffff851681528360208201528260408201526080606082015260006123c26080830184612323565b9695505050505050565b60007f800000000000000000000000000000000000000000000000000000000000000082036123fd576123fd61206e565b5060000390565b602081526000610c616020830184612323565b7f4e487b7100000000000000000000000000000000000000000000000000000000600052601260045260246000fd5b808202600082127f80000000000000000000000000000000000000000000000000000000000000008414161561247e5761247e61206e565b8181058314821517610c6457610c6461206e56fea264697066735822122012445d802284c245ad9d75fdf82d97e898109b9d3cebf6c05b6042973916e00d64736f6c63430008130033",
  "devdoc": {
    "errors": {
      "AlreadyClosedPosition()": [
        {
          "details": "Throws an error indicating that the position has already been closed."
        }
      ],
      "ClaimPositionCallbackError()": [
        {
          "details": "Throws an error indicating that an error occurred during the claim position callback."
        }
      ],
      "Empty()": [
        {
          "details": "An operation (e.g. {front}) couldn't be completed due to the queue being empty."
        }
      ],
      "ExceedMaxAllowableLeverage()": [
        {
          "details": "Throws an error indicating thatwhen the specified leverage exceeds the maximum allowable leverage level set by the Oracle Provider.      Each Oracle Provider has a specific maximum allowable leverage level, which is determined by the DAO.      The default maximum allowable leverage level is 0, which corresponds to a leverage of up to 10x."
        }
      ],
      "ExceedMaxAllowableTradingFee()": [
        {
          "details": "Throws an error indicating that the total trading fee (including protocol fee) exceeds the maximum allowable trading fee."
        }
      ],
      "InvalidLpReceiptAction()": [
        {
          "details": "Throws an error indicating that the liquidity receipt action is invalid."
        }
      ],
      "InvalidTransferredTokenAmount()": [
        {
          "details": "Throws an error indicating that the transferred token amount is invalid.      This error is thrown when the transferred token amount does not match the expected amount."
        }
      ],
      "NotAllowableMakerMargin()": [
        {
          "details": "Throws an error indicating that the maker margin value is not within the allowable range based on the absolute quantity and the specified minimum/maximum take-profit basis points (BPS).      The maker margin must fall within the range calculated based on the absolute quantity of the position and the specified minimum/maximum take-profit basis points (BPS) set by the Oracle Provider.      The default range for the minimum/maximum take-profit basis points is 10% to 1000%."
        }
      ],
      "NotClaimableLpReceipt()": [
        {
          "details": "Throws an error indicating that the liquidity receipt is not claimable."
        }
      ],
      "NotClaimablePosition()": [
        {
          "details": "Throws an error indicating that the position is not claimable."
        }
      ],
      "NotEnoughMarginTransferred()": [
        {
          "details": "Throws an error indicating that the margin settlement token balance does not increase by the required margin amount after the callback."
        }
      ],
      "NotExistLpReceipt()": [
        {
          "details": "Throws an error indicating that the specified liquidity receipt does not exist."
        }
      ],
      "NotExistPosition()": [
        {
          "details": "Throws an error indicating that the requested position does not exist."
        }
      ],
      "NotPermitted()": [
        {
          "details": "Throws an error indicating that the caller is not permitted to perform the action as they are not the owner of the position."
        }
      ],
      "NotWithdrawableLpReceipt()": [
        {
          "details": "Throws an error indicating that the liquidity receipt is not withdrawable."
        }
      ],
      "OnlyAccessableByDao()": [
        {
          "details": "Throws an error indicating that the caller is not the DAO."
        }
      ],
      "OnlyAccessableByFactoryOrDao()": [
        {
          "details": "Throws an error indicating that the caller is nether the chormatic factory contract nor the DAO."
        }
      ],
      "OnlyAccessableByLiquidator()": [
        {
          "details": "Throws an error indicating that the caller is not the chromatic liquidator contract."
        }
      ],
      "OnlyAccessableByVault()": [
        {
          "details": "Throws an error indicating that the caller is not the chromatch vault contract."
        }
      ],
      "OutOfBounds()": [
        {
          "details": "An operation (e.g. {at}) couldn't be completed due to an index being out of bounds."
        }
      ],
      "TooSmallAmount()": [
        {
          "details": "Throws an error indicating that the amount of liquidity is too small.      This error is thrown when attempting to remove liquidity with an amount of zero."
        }
      ],
      "TooSmallTakerMargin()": [
        {
          "details": "Throws an error indicating that the taker margin provided is smaller than the minimum required margin for the specific settlement token.      The minimum required margin is determined by the DAO and represents the minimum amount required for operations such as liquidation and payment of keeper fees."
        }
      ]
    },
    "events": {
      "AddLiquidity((uint256,uint256,uint256,address,uint8,int16))": {
        "details": "Emitted when liquidity is added to the market.",
        "params": {
          "receipt": "The liquidity receipt."
        }
      },
      "AddLiquidityBatch((uint256,uint256,uint256,address,uint8,int16)[])": {
        "details": "Emitted when liquidity is added to the market.",
        "params": {
          "receipts": "An array of LP receipts."
        }
      },
      "ClaimLiquidity((uint256,uint256,uint256,address,uint8,int16),uint256)": {
        "details": "Emitted when liquidity is claimed from the market.",
        "params": {
          "clbTokenAmount": "The amount of CLB tokens claimed.",
          "receipt": "The liquidity receipt."
        }
      },
      "ClaimLiquidityBatch((uint256,uint256,uint256,address,uint8,int16)[],uint256[])": {
        "details": "Emitted when liquidity is claimed from the market.",
        "params": {
          "clbTokenAmounts": "The amount list of CLB tokens claimed.",
          "receipts": "An array of LP receipts."
        }
      },
      "ClaimPosition(address,int256,uint256,(uint256,uint256,uint256,int256,uint256,uint256,uint256,address,address,uint16,(uint16,uint256)[]))": {
        "details": "Emitted when a position is claimed.",
        "params": {
          "account": "The address of the account claiming the position.",
          "interest": "The interest paid for the claimed position.",
          "pnl": "The profit or loss of the claimed position.",
          "position": "The claimed position."
        }
      },
      "ClaimPositionByKeeper(address,int256,uint256,uint256,(uint256,uint256,uint256,int256,uint256,uint256,uint256,address,address,uint16,(uint16,uint256)[]))": {
        "details": "Emitted when a position is claimed by keeper.",
        "params": {
          "account": "The address of the account claiming the position.",
          "interest": "The interest paid for the claimed position.",
          "pnl": "The profit or loss of the claimed position.",
          "position": "The claimed position.",
          "usedKeeperFee": "The amount of keeper fee used for the liquidation."
        }
      },
      "ClosePosition(address,(uint256,uint256,uint256,int256,uint256,uint256,uint256,address,address,uint16,(uint16,uint256)[]))": {
        "details": "Emitted when a position is closed.",
        "params": {
          "account": "The address of the account closing the position.",
          "position": "The closed position."
        }
      },
      "DisplayModeUpdated(uint8,uint8)": {
        "params": {
          "displayModeNew": "The updated value of the display mode",
          "displayModeOld": "The previous value of the display mode"
        }
      },
      "Liquidate(address,int256,uint256,uint256,(uint256,uint256,uint256,int256,uint256,uint256,uint256,address,address,uint16,(uint16,uint256)[]))": {
        "details": "Emitted when a position is liquidated.",
        "params": {
          "account": "The address of the account being liquidated.",
          "interest": "The interest paid for the claimed position.",
          "pnl": "The profit or loss of the claimed position.",
          "position": "The liquidated position.",
          "usedKeeperFee": "The amount of keeper fee used for the liquidation."
        }
      },
      "LiquidityModeUpdated(uint8,uint8)": {
        "params": {
          "liquidityModeNew": "The updated value of the liquidity mode",
          "liquidityModeOld": "The previous value of the liquidity mode"
        }
      },
      "OpenPosition(address,(uint256,uint256,uint256,int256,uint256,uint256,uint256,address,address,uint16,(uint16,uint256)[]))": {
        "details": "Emitted when a position is opened.",
        "params": {
          "account": "The address of the account opening the position.",
          "position": "The opened position."
        }
      },
      "PositionModeUpdated(uint8,uint8)": {
        "params": {
          "positionModeNew": "The updated value of the position mode",
          "positionModeOld": "The previous value of the position mode"
        }
      },
      "ProtocolFeeRateUpdated(uint16,uint16)": {
        "params": {
          "protocolFeeRateNew": "The updated value of the protocol fee rate",
          "protocolFeeRateOld": "The previous value of the protocol fee rate"
        }
      },
      "RemoveLiquidity((uint256,uint256,uint256,address,uint8,int16))": {
        "details": "Emitted when liquidity is removed from the market.",
        "params": {
          "receipt": "The liquidity receipt."
        }
      },
      "RemoveLiquidityBatch((uint256,uint256,uint256,address,uint8,int16)[])": {
        "details": "Emitted when liquidity is removed from the market.",
        "params": {
          "receipts": "An array of LP receipts."
        }
      },
      "WithdrawLiquidity((uint256,uint256,uint256,address,uint8,int16),uint256,uint256)": {
        "details": "Emitted when liquidity is withdrawn from the market.",
        "params": {
          "amount": "The amount of liquidity withdrawn.",
          "burnedCLBTokenAmount": "The amount of burned CLB tokens.",
          "receipt": "The liquidity receipt."
        }
      },
      "WithdrawLiquidityBatch((uint256,uint256,uint256,address,uint8,int16)[],uint256[],uint256[])": {
        "details": "Emitted when liquidity is withdrawn from the market.",
        "params": {
          "amounts": "The amount list of liquidity withdrawn.",
          "burnedCLBTokenAmounts": "The amount list of burned CLB tokens.",
          "receipts": "An array of LP receipts."
        }
      }
    },
    "kind": "dev",
    "methods": {
      "settle(int16[])": {
        "details": "This function settles the market by synchronizing the oracle version      and calling the settle function of the liquidity pool.",
        "params": {
          "feeRates": "The feeRate list of liquidity bin to settle."
        }
      },
      "settleAll()": {
        "details": "This function settles the market by synchronizing the oracle version      and calling the settle function of the liquidity pool."
      }
    },
    "title": "MarketSettleFacet",
    "version": 1
  },
  "userdoc": {
    "events": {
      "DisplayModeUpdated(uint8,uint8)": {
        "notice": "Emitted when the display mode of the market is changed"
      },
      "LiquidityModeUpdated(uint8,uint8)": {
        "notice": "Emitted when the liquidity mode of the market is changed"
      },
      "PositionModeUpdated(uint8,uint8)": {
        "notice": "Emitted when the position mode of the market is changed"
      },
      "ProtocolFeeRateUpdated(uint16,uint16)": {
        "notice": "Emitted when the protocol fee rate of the market is changed"
      }
    },
    "kind": "user",
    "methods": {
      "settle(int16[])": {
        "notice": "Executes the settlement process for the Chromatic market."
      },
      "settleAll()": {
        "notice": "Executes the settlement process for the Chromatic market."
      }
    },
    "version": 1
  },
  "storageLayout": {
    "storage": [],
    "types": null
  }
}