{
  "address": "0x11A059Ad6E75246AED887D3A7f2dBd9426eC9005",
  "abi": [
    {
      "inputs": [
        {
          "internalType": "contract IChromaticMarketFactory",
          "name": "_factory",
          "type": "address"
        },
        {
          "internalType": "address",
          "name": "_automate",
          "type": "address"
        }
      ],
      "stateMutability": "nonpayable",
      "type": "constructor"
    },
    {
      "inputs": [],
      "name": "OnlyAccessableByDao",
      "type": "error"
    },
    {
      "inputs": [],
      "name": "OnlyAccessableByMarket",
      "type": "error"
    },
    {
      "anonymous": false,
      "inputs": [
        {
          "indexed": false,
          "internalType": "uint32",
          "name": "gasLimitOld",
          "type": "uint32"
        },
        {
          "indexed": false,
          "internalType": "uint32",
          "name": "gasLimitNew",
          "type": "uint32"
        }
      ],
      "name": "UpkeepGasLimitUpdated",
      "type": "event"
    },
    {
      "anonymous": false,
      "inputs": [
        {
          "indexed": false,
          "internalType": "uint256",
          "name": "waitPositionClaimOld",
          "type": "uint256"
        },
        {
          "indexed": false,
          "internalType": "uint256",
          "name": "waitPositionClaimNew",
          "type": "uint256"
        }
      ],
      "name": "WaitPositionClaimUpdated",
      "type": "event"
    },
    {
      "anonymous": false,
      "inputs": [
        {
          "indexed": false,
          "internalType": "string",
          "name": "_name",
          "type": "string"
        },
        {
          "indexed": false,
          "internalType": "string",
          "name": "_err",
          "type": "string"
        }
      ],
      "name": "catchErr",
      "type": "event"
    },
    {
      "inputs": [],
      "name": "DEFAULT_UPKEEP_GAS_LIMIT",
      "outputs": [
        {
          "internalType": "uint32",
          "name": "",
          "type": "uint32"
        }
      ],
      "stateMutability": "view",
      "type": "function"
    },
    {
      "inputs": [],
      "name": "DEFAULT_WAIT_POSITION_CLAIM",
      "outputs": [
        {
          "internalType": "uint256",
          "name": "",
          "type": "uint256"
        }
      ],
      "stateMutability": "view",
      "type": "function"
    },
    {
      "inputs": [],
      "name": "automate",
      "outputs": [
        {
          "internalType": "contract IMate2AutomationRegistry",
          "name": "",
          "type": "address"
        }
      ],
      "stateMutability": "view",
      "type": "function"
    },
    {
      "inputs": [
        {
          "internalType": "uint256",
          "name": "positionId",
          "type": "uint256"
        }
      ],
      "name": "cancelClaimPositionTask",
      "outputs": [],
      "stateMutability": "nonpayable",
      "type": "function"
    },
    {
      "inputs": [
        {
          "internalType": "uint256",
          "name": "positionId",
          "type": "uint256"
        }
      ],
      "name": "cancelLiquidationTask",
      "outputs": [],
      "stateMutability": "nonpayable",
      "type": "function"
    },
    {
      "inputs": [
        {
          "internalType": "uint256",
          "name": "upkeepId",
          "type": "uint256"
        }
      ],
      "name": "cancelUpkeep",
      "outputs": [],
      "stateMutability": "nonpayable",
      "type": "function"
    },
    {
      "inputs": [
        {
          "internalType": "bytes",
          "name": "checkData",
          "type": "bytes"
        }
      ],
      "name": "checkUpkeep",
      "outputs": [
        {
          "internalType": "bool",
          "name": "upkeepNeeded",
          "type": "bool"
        },
        {
          "internalType": "bytes",
          "name": "performData",
          "type": "bytes"
        }
      ],
      "stateMutability": "view",
      "type": "function"
    },
    {
      "inputs": [
        {
          "internalType": "address",
          "name": "market",
          "type": "address"
        },
        {
          "internalType": "uint256",
          "name": "positionId",
          "type": "uint256"
        }
      ],
      "name": "claimPosition",
      "outputs": [],
      "stateMutability": "nonpayable",
      "type": "function"
    },
    {
      "inputs": [
        {
          "internalType": "uint256",
          "name": "positionId",
          "type": "uint256"
        }
      ],
      "name": "createClaimPositionTask",
      "outputs": [],
      "stateMutability": "nonpayable",
      "type": "function"
    },
    {
      "inputs": [
        {
          "internalType": "uint256",
          "name": "positionId",
          "type": "uint256"
        }
      ],
      "name": "createLiquidationTask",
      "outputs": [],
      "stateMutability": "nonpayable",
      "type": "function"
    },
    {
      "inputs": [],
      "name": "factory",
      "outputs": [
        {
          "internalType": "contract IChromaticMarketFactory",
          "name": "",
          "type": "address"
        }
      ],
      "stateMutability": "view",
      "type": "function"
    },
    {
      "inputs": [
        {
          "internalType": "address",
          "name": "market",
          "type": "address"
        },
        {
          "internalType": "uint256",
          "name": "positionId",
          "type": "uint256"
        }
      ],
      "name": "getClaimPositionTaskId",
      "outputs": [
        {
          "internalType": "bytes32",
          "name": "taskId",
          "type": "bytes32"
        }
      ],
      "stateMutability": "view",
      "type": "function"
    },
    {
      "inputs": [
        {
          "internalType": "address",
          "name": "market",
          "type": "address"
        },
        {
          "internalType": "uint256",
          "name": "positionId",
          "type": "uint256"
        }
      ],
      "name": "getClaimPositionUpkeepId",
      "outputs": [
        {
          "internalType": "uint256",
          "name": "upkeepId",
          "type": "uint256"
        }
      ],
      "stateMutability": "view",
      "type": "function"
    },
    {
      "inputs": [
        {
          "internalType": "address",
          "name": "market",
          "type": "address"
        },
        {
          "internalType": "uint256",
          "name": "positionId",
          "type": "uint256"
        }
      ],
      "name": "getLiquidationTaskId",
      "outputs": [
        {
          "internalType": "bytes32",
          "name": "taskId",
          "type": "bytes32"
        }
      ],
      "stateMutability": "view",
      "type": "function"
    },
    {
      "inputs": [
        {
          "internalType": "address",
          "name": "market",
          "type": "address"
        },
        {
          "internalType": "uint256",
          "name": "positionId",
          "type": "uint256"
        }
      ],
      "name": "getLiquidationUpkeepId",
      "outputs": [
        {
          "internalType": "uint256",
          "name": "upkeepId",
          "type": "uint256"
        }
      ],
      "stateMutability": "view",
      "type": "function"
    },
    {
      "inputs": [
        {
          "internalType": "address",
          "name": "market",
          "type": "address"
        },
        {
          "internalType": "uint256",
          "name": "positionId",
          "type": "uint256"
        }
      ],
      "name": "liquidate",
      "outputs": [],
      "stateMutability": "nonpayable",
      "type": "function"
    },
    {
      "inputs": [
        {
          "internalType": "bytes",
          "name": "performData",
          "type": "bytes"
        }
      ],
      "name": "performUpkeep",
      "outputs": [],
      "stateMutability": "nonpayable",
      "type": "function"
    },
    {
      "inputs": [
        {
          "internalType": "address",
          "name": "_market",
          "type": "address"
        },
        {
          "internalType": "uint256",
          "name": "positionId",
          "type": "uint256"
        }
      ],
      "name": "resolveClaimPosition",
      "outputs": [
        {
          "internalType": "bool",
          "name": "canExec",
          "type": "bool"
        },
        {
          "internalType": "bytes",
          "name": "execPayload",
          "type": "bytes"
        }
      ],
      "stateMutability": "view",
      "type": "function"
    },
    {
      "inputs": [
        {
          "internalType": "address",
          "name": "_market",
          "type": "address"
        },
        {
          "internalType": "uint256",
          "name": "positionId",
          "type": "uint256"
        }
      ],
      "name": "resolveLiquidation",
      "outputs": [
        {
          "internalType": "bool",
          "name": "canExec",
          "type": "bool"
        },
        {
          "internalType": "bytes",
          "name": "execPayload",
          "type": "bytes"
        }
      ],
      "stateMutability": "view",
      "type": "function"
    },
    {
      "inputs": [
        {
          "internalType": "uint32",
          "name": "gasLimit",
          "type": "uint32"
        }
      ],
      "name": "updateUpkeepGasLimit",
      "outputs": [],
      "stateMutability": "nonpayable",
      "type": "function"
    },
    {
      "inputs": [
        {
          "internalType": "uint256",
          "name": "_waitPositionClaim",
          "type": "uint256"
        }
      ],
      "name": "updateWaitPositionClaim",
      "outputs": [],
      "stateMutability": "nonpayable",
      "type": "function"
    },
    {
      "inputs": [],
      "name": "upkeepGasLimit",
      "outputs": [
        {
          "internalType": "uint32",
          "name": "",
          "type": "uint32"
        }
      ],
      "stateMutability": "view",
      "type": "function"
    },
    {
      "inputs": [],
      "name": "waitPositionClaim",
      "outputs": [
        {
          "internalType": "uint256",
          "name": "",
          "type": "uint256"
        }
      ],
      "stateMutability": "view",
      "type": "function"
    }
  ],
  "transactionHash": "0x3967901b527cdee44616d39f49b01ec195e6a630bb8302ee354904a1dc6762e6",
  "args": [
    "0xa74B572cA410b79B581C24cc37743d65b2D936c8",
    "0xCc25d82dd205bF21eCd6CE63559415AFce93a00F"
  ],
  "numDeployments": 2,
  "solcInputHash": "ba6ecc908ef37c163f66c2daa83ed591",
  "bytecode": "0x60c06040523480156200001157600080fd5b5060405162001b1f38038062001b1f83398101604081905262000034916200007e565b6001600160a01b039182166080521660a0526000805463ffffffff19166298968017905562015180600155620000bd565b6001600160a01b03811681146200007b57600080fd5b50565b600080604083850312156200009257600080fd5b82516200009f8162000065565b6020840151909250620000b28162000065565b809150509250929050565b60805160a0516119e862000137600039600081816101eb01528181610f24015281816110c2015281816111b5015281816112cf015261135f01526000818161036d01528181610438015281816104fe0152818161077901528181610a3d01528181610b0301528181610c600152610e0401526119e86000f3fe608060405234801561001057600080fd5b506004361061018c5760003560e01c80638dd9b7e6116100e3578063bcbaf4871161008c578063e9fcf1f611610066578063e9fcf1f6146103a2578063edebcf86146103b5578063fe1d3485146103c857600080fd5b8063bcbaf48714610355578063c45a015514610368578063c80480221461038f57600080fd5b806396f823b4116100bd57806396f823b41461031f5780639d920c3914610332578063a9ea1f801461034557600080fd5b80638dd9b7e6146102ef5780638e2cdf68146102f9578063911ac55e1461030c57600080fd5b80633011e5d4116101455780636e04ff0d1161011f5780636e04ff0d146102c05780637bd5d063146102d35780638b614612146102e657600080fd5b80633011e5d414610279578063373fa7601461029a5780634585e33b146102ad57600080fd5b8063139f34cf11610176578063139f34cf1461023257806316d0d82f146102475780632d0534c71461025a57600080fd5b806217849814610191578063049aacfe146101e6575b600080fd5b6101d361019f3660046113a6565b73ffffffffffffffffffffffffffffffffffffffff9091166000908152600360209081526040808320938352929052205490565b6040519081526020015b60405180910390f35b61020d7f000000000000000000000000000000000000000000000000000000000000000081565b60405173ffffffffffffffffffffffffffffffffffffffff90911681526020016101dd565b6102456102403660046113d2565b61040a565b005b6102456102553660046113eb565b6104fc565b6102646298968081565b60405163ffffffff90911681526020016101dd565b61028c6102873660046113a6565b610666565b6040516101dd929190611475565b6102456102a83660046113d2565b61074b565b6102456102bb366004611512565b610849565b61028c6102ce3660046115c9565b6108ba565b61028c6102e13660046113a6565b61095d565b6101d360015481565b6101d36201518081565b6102456103073660046113d2565b610a0f565b61024561031a3660046113d2565b610b01565b61024561032d3660046113d2565b610c32565b6101d36103403660046113a6565b610d21565b6000546102649063ffffffff1681565b6102456103633660046113a6565b610d5a565b61020d7f000000000000000000000000000000000000000000000000000000000000000081565b61024561039d3660046113d2565b610e02565b6102456103b03660046113a6565b610f98565b6101d36103c33660046113a6565b61100c565b6101d36103d63660046113a6565b73ffffffffffffffffffffffffffffffffffffffff9091166000908152600260209081526040808320938352929052205490565b6040517f4a58e49e0000000000000000000000000000000000000000000000000000000081523360048201527f000000000000000000000000000000000000000000000000000000000000000073ffffffffffffffffffffffffffffffffffffffff1690634a58e49e90602401602060405180830381865afa158015610494573d6000803e3d6000fd5b505050506040513d601f19601f820116820180604052508101906104b8919061163b565b6104ee576040517f1353f3f100000000000000000000000000000000000000000000000000000000815260040160405180910390fd5b6104f9600382611042565b50565b7f000000000000000000000000000000000000000000000000000000000000000073ffffffffffffffffffffffffffffffffffffffff16634162169f6040518163ffffffff1660e01b8152600401602060405180830381865afa158015610567573d6000803e3d6000fd5b505050506040513d601f19601f8201168201806040525081019061058b919061165d565b73ffffffffffffffffffffffffffffffffffffffff163373ffffffffffffffffffffffffffffffffffffffff16146105ef576040517f808ca14f00000000000000000000000000000000000000000000000000000000815260040160405180910390fd5b6000805463ffffffff8381167fffffffffffffffffffffffffffffffffffffffffffffffffffffffff0000000083168117909355604080519190921680825260208201939093527fa3712acf4c1617a1da00c315e0718fcedb43a2940ec2d43d66f3b8121282ffbd91015b60405180910390a15050565b6040517fc4f865b20000000000000000000000000000000000000000000000000000000081526004810182905260009060609073ffffffffffffffffffffffffffffffffffffffff85169063c4f865b290602401602060405180830381865afa1580156106d7573d6000803e3d6000fd5b505050506040513d601f19601f820116820180604052508101906106fb919061163b565b1561073057600184846001604051602001610718939291906116e4565b60405160208183030381529060405291509150610744565b505060408051602081019091526000808252905b9250929050565b6040517f4a58e49e0000000000000000000000000000000000000000000000000000000081523360048201527f000000000000000000000000000000000000000000000000000000000000000073ffffffffffffffffffffffffffffffffffffffff1690634a58e49e90602401602060405180830381865afa1580156107d5573d6000803e3d6000fd5b505050506040513d601f19601f820116820180604052508101906107f9919061163b565b61082f576040517f1353f3f100000000000000000000000000000000000000000000000000000000815260040160405180910390fd5b6104f960038260018054426108449190611715565b61118d565b6000806000838060200190518101906108629190611762565b91945092509050600081600181111561087d5761087d61167a565b036108915761088c8383610d5a565b6108b4565b60018160018111156108a5576108a561167a565b036108b4576108b48383610f98565b50505050565b60006060818080806108ce878901896117a5565b9296509094509250905060008260018111156108ec576108ec61167a565b03610908576108fb848461095d565b9550955050505050610744565b600182600181111561091c5761091c61167a565b036109525780421015610948576000604051806020016040528060008152509550955050505050610744565b6108fb8484610666565b505050509250929050565b6040517fb86f6aef0000000000000000000000000000000000000000000000000000000081526004810182905260009060609073ffffffffffffffffffffffffffffffffffffffff85169063b86f6aef90602401602060405180830381865afa1580156109ce573d6000803e3d6000fd5b505050506040513d601f19601f820116820180604052508101906109f2919061163b565b1561073057600184846000604051602001610718939291906116e4565b6040517f4a58e49e0000000000000000000000000000000000000000000000000000000081523360048201527f000000000000000000000000000000000000000000000000000000000000000073ffffffffffffffffffffffffffffffffffffffff1690634a58e49e90602401602060405180830381865afa158015610a99573d6000803e3d6000fd5b505050506040513d601f19601f82011682018060405250810190610abd919061163b565b610af3576040517f1353f3f100000000000000000000000000000000000000000000000000000000815260040160405180910390fd5b6104f960028260008061118d565b7f000000000000000000000000000000000000000000000000000000000000000073ffffffffffffffffffffffffffffffffffffffff16634162169f6040518163ffffffff1660e01b8152600401602060405180830381865afa158015610b6c573d6000803e3d6000fd5b505050506040513d601f19601f82011682018060405250810190610b90919061165d565b73ffffffffffffffffffffffffffffffffffffffff163373ffffffffffffffffffffffffffffffffffffffff1614610bf4576040517f808ca14f00000000000000000000000000000000000000000000000000000000815260040160405180910390fd5b600180549082905560408051828152602081018490527fcca6c36740a84d1c5efca67daa98977d74967f6454a637fd1ae26331b6ecc235910161065a565b6040517f4a58e49e0000000000000000000000000000000000000000000000000000000081523360048201527f000000000000000000000000000000000000000000000000000000000000000073ffffffffffffffffffffffffffffffffffffffff1690634a58e49e90602401602060405180830381865afa158015610cbc573d6000803e3d6000fd5b505050506040513d601f19601f82011682018060405250810190610ce0919061163b565b610d16576040517f1353f3f100000000000000000000000000000000000000000000000000000000815260040160405180910390fd5b6104f9600282611042565b73ffffffffffffffffffffffffffffffffffffffff821660009081526003602090815260408083208484529091528120545b9392505050565b600080610d656112ca565b6040517f79bd1eac0000000000000000000000000000000000000000000000000000000081526004810186905273ffffffffffffffffffffffffffffffffffffffff808316602483015260448201849052929450909250908516906379bd1eac906064015b600060405180830381600087803b158015610de457600080fd5b505af1158015610df8573d6000803e3d6000fd5b5050505050505050565b7f000000000000000000000000000000000000000000000000000000000000000073ffffffffffffffffffffffffffffffffffffffff16634162169f6040518163ffffffff1660e01b8152600401602060405180830381865afa158015610e6d573d6000803e3d6000fd5b505050506040513d601f19601f82011682018060405250810190610e91919061165d565b73ffffffffffffffffffffffffffffffffffffffff163373ffffffffffffffffffffffffffffffffffffffff1614610ef5576040517f808ca14f00000000000000000000000000000000000000000000000000000000815260040160405180910390fd5b6040517fc8048022000000000000000000000000000000000000000000000000000000008152600481018290527f000000000000000000000000000000000000000000000000000000000000000073ffffffffffffffffffffffffffffffffffffffff169063c804802290602401600060405180830381600087803b158015610f7d57600080fd5b505af1158015610f91573d6000803e3d6000fd5b5050505050565b600080610fa36112ca565b6040517fde7c8cc20000000000000000000000000000000000000000000000000000000081526004810186905273ffffffffffffffffffffffffffffffffffffffff8083166024830152604482018490529294509092509085169063de7c8cc290606401610dca565b73ffffffffffffffffffffffffffffffffffffffff82166000908152600260209081526040808320848452909152812054610d53565b3360008181526020848152604080832085845290915290205480156108b45773ffffffffffffffffffffffffffffffffffffffff82811660009081526020868152604080832087845290915280822091909155517fc8048022000000000000000000000000000000000000000000000000000000008152600481018390527f00000000000000000000000000000000000000000000000000000000000000009091169063c804802290602401600060405180830381600087803b15801561110857600080fd5b505af1925050508015611119575060015b6108b4576111256117ed565b806308c379a0036111815750611139611809565b806111445750611183565b7f1a105f82e7a73e98ff8b7e5e0479a23ba4df818edeafeec2e4bdfe52624b3ba18160405161117391906118b1565b60405180910390a1506108b4565b505b3d6000803e3d6000fd5b33600081815260208681526040808320878452909152902054156111b157506108b4565b60007f000000000000000000000000000000000000000000000000000000000000000073ffffffffffffffffffffffffffffffffffffffff16634b04cd0c3060008054906101000a900463ffffffff163060006001888c8c8c60405160200161121d94939291906118f8565b6040516020818303038152906040526040518763ffffffff1660e01b815260040161124d96959493929190611938565b6020604051808303816000875af115801561126c573d6000803e3d6000fd5b505050506040513d601f19601f820116820180604052508101906112909190611999565b73ffffffffffffffffffffffffffffffffffffffff9092166000908152602087815260408083208884529091529020919091555050505050565b6000807f000000000000000000000000000000000000000000000000000000000000000073ffffffffffffffffffffffffffffffffffffffff1663d11d397a6040518163ffffffff1660e01b8152600401602060405180830381865afa158015611338573d6000803e3d6000fd5b505050506040513d601f19601f8201168201806040525081019061135c9190611999565b927f000000000000000000000000000000000000000000000000000000000000000092509050565b73ffffffffffffffffffffffffffffffffffffffff811681146104f957600080fd5b600080604083850312156113b957600080fd5b82356113c481611384565b946020939093013593505050565b6000602082840312156113e457600080fd5b5035919050565b6000602082840312156113fd57600080fd5b813563ffffffff81168114610d5357600080fd5b6000815180845260005b818110156114375760208185018101518683018201520161141b565b5060006020828601015260207fffffffffffffffffffffffffffffffffffffffffffffffffffffffffffffffe0601f83011685010191505092915050565b82151581526040602082015260006114906040830184611411565b949350505050565b7f4e487b7100000000000000000000000000000000000000000000000000000000600052604160045260246000fd5b7fffffffffffffffffffffffffffffffffffffffffffffffffffffffffffffffe0601f830116810181811067ffffffffffffffff8211171561150b5761150b611498565b6040525050565b6000602080838503121561152557600080fd5b823567ffffffffffffffff8082111561153d57600080fd5b818501915085601f83011261155157600080fd5b81358181111561156357611563611498565b6040519150611599847fffffffffffffffffffffffffffffffffffffffffffffffffffffffffffffffe0601f84011601836114c7565b80825286848285010111156115ad57600080fd5b8084840185840137600090820190930192909252509392505050565b600080602083850312156115dc57600080fd5b823567ffffffffffffffff808211156115f457600080fd5b818501915085601f83011261160857600080fd5b81358181111561161757600080fd5b86602082850101111561162957600080fd5b60209290920196919550909350505050565b60006020828403121561164d57600080fd5b81518015158114610d5357600080fd5b60006020828403121561166f57600080fd5b8151610d5381611384565b7f4e487b7100000000000000000000000000000000000000000000000000000000600052602160045260246000fd5b600281106116e0577f4e487b7100000000000000000000000000000000000000000000000000000000600052602160045260246000fd5b9052565b73ffffffffffffffffffffffffffffffffffffffff84168152602081018390526060810161149060408301846116a9565b8082018082111561174f577f4e487b7100000000000000000000000000000000000000000000000000000000600052601160045260246000fd5b92915050565b600281106104f957600080fd5b60008060006060848603121561177757600080fd5b835161178281611384565b60208501516040860151919450925061179a81611755565b809150509250925092565b600080600080608085870312156117bb57600080fd5b84356117c681611384565b93506020850135925060408501356117dd81611755565b9396929550929360600135925050565b600060033d11156118065760046000803e5060005160e01c5b90565b600060443d10156118175790565b6040517ffffffffffffffffffffffffffffffffffffffffffffffffffffffffffffffffc803d016004833e81513d67ffffffffffffffff816024840111818411171561186557505050505090565b828501915081518181111561187d5750505050505090565b843d87010160208285010111156118975750505050505090565b6118a6602082860101876114c7565b509095945050505050565b60408152600c60408201527f63616e63656c55706b65657000000000000000000000000000000000000000006060820152608060208201526000610d536080830184611411565b73ffffffffffffffffffffffffffffffffffffffff85168152602081018490526080810161192960408301856116a9565b82606083015295945050505050565b600073ffffffffffffffffffffffffffffffffffffffff808916835263ffffffff881660208401528087166040840152508415156060830152831515608083015260c060a083015261198d60c0830184611411565b98975050505050505050565b6000602082840312156119ab57600080fd5b505191905056fea264697066735822122057ab3cf98df5a3c0e63a832c76fa218664665e59515602a4f210fa5dd144181964736f6c63430008130033",
  "devdoc": {
    "details": "A contract that handles the liquidation and claiming of positions in Chromatic markets.      It implements the ILiquidator and the IMate2Automation interface.",
    "errors": {
      "OnlyAccessableByDao()": [
        {
          "details": "Throws an error indicating that the caller is not the DAO."
        }
      ],
      "OnlyAccessableByMarket()": [
        {
          "details": "Throws an error indicating that the caller is not a registered market."
        }
      ]
    },
    "kind": "dev",
    "methods": {
      "cancelClaimPositionTask(uint256)": {
        "details": "Can only be called by a registered market.",
        "params": {
          "positionId": "The ID of the position for which to cancel the claim position task."
        }
      },
      "cancelLiquidationTask(uint256)": {
        "details": "Can only be called by a registered market.",
        "params": {
          "positionId": "The ID of the position for which to cancel the liquidation task."
        }
      },
      "checkUpkeep(bytes)": {
        "details": "To ensure that it is never called, you may want to add the cannotExecute modifier from KeeperBase to your implementation of this method.",
        "params": {
          "checkData": "specified in the upkeep registration so it is always the same for a registered upkeep. This can easily be broken down into specific arguments using `abi.decode`, so multiple upkeeps can be registered on the same contract and easily differentiated by the contract."
        },
        "returns": {
          "performData": "bytes that the keeper should call performUpkeep with, if upkeep is needed. If you would like to encode data to decode later, try `abi.encode`.",
          "upkeepNeeded": "boolean to indicate whether the keeper should call performUpkeep or not."
        }
      },
      "claimPosition(address,uint256)": {
        "params": {
          "market": "The address of the market contract.",
          "positionId": "The ID of the position to be claimed."
        }
      },
      "constructor": {
        "details": "Constructor function.",
        "params": {
          "_automate": "The address of the Mate2 Automate contract.",
          "_factory": "The address of the Chromatic Market Factory contract."
        }
      },
      "createClaimPositionTask(uint256)": {
        "details": "Can only be called by a registered market.",
        "params": {
          "positionId": "The ID of the position to be claimed."
        }
      },
      "createLiquidationTask(uint256)": {
        "details": "Can only be called by a registered market.",
        "params": {
          "positionId": "The ID of the position to be liquidated."
        }
      },
      "liquidate(address,uint256)": {
        "params": {
          "market": "The address of the market contract.",
          "positionId": "The ID of the position to be liquidated."
        }
      },
      "performUpkeep(bytes)": {
        "details": "The input to this method should not be trusted, and the caller of the method should not even be restricted to any single registry. Anyone should be able call it, and the input should be validated, there is no guarantee that the data passed in is the performData returned from checkUpkeep. This could happen due to malicious keepers, racing keepers, or simply a state change while the performUpkeep transaction is waiting for confirmation. Always validate the data passed in.",
        "params": {
          "performData": "is the data which was passed back from the checkData simulation. If it is encoded, it can easily be decoded into other types by calling `abi.decode`. This data should not be trusted, and should be validated against the contract's current state."
        }
      },
      "resolveClaimPosition(address,uint256)": {
        "details": "This function is called by the automation system.",
        "params": {
          "market": "The address of the market contract.",
          "positionId": "The ID of the position to be claimed."
        },
        "returns": {
          "canExec": "Whether the claim can be executed.",
          "execPayload": "The encoded function call to execute the claim."
        }
      },
      "resolveLiquidation(address,uint256)": {
        "details": "This function is called by the automation system.",
        "params": {
          "market": "The address of the market contract.",
          "positionId": "The ID of the position to be liquidated."
        },
        "returns": {
          "canExec": "Whether the liquidation can be executed.",
          "execPayload": "The encoded function call to execute the liquidation."
        }
      }
    },
    "title": "Mate2Liquidator",
    "version": 1
  },
  "userdoc": {
    "kind": "user",
    "methods": {
      "cancelClaimPositionTask(uint256)": {
        "notice": "Cancels a claim position task for a given position."
      },
      "cancelLiquidationTask(uint256)": {
        "notice": "Cancels a liquidation task for a given position."
      },
      "checkUpkeep(bytes)": {
        "notice": "method that is simulated by the keepers to see if any work actually needs to be performed. This method does does not actually need to be executable, and since it is only ever simulated it can consume lots of gas."
      },
      "claimPosition(address,uint256)": {
        "notice": "Claims a position in a market."
      },
      "createClaimPositionTask(uint256)": {
        "notice": "Creates a claim position task for a given position."
      },
      "createLiquidationTask(uint256)": {
        "notice": "Creates a liquidation task for a given position."
      },
      "liquidate(address,uint256)": {
        "notice": "Liquidates a position in a market."
      },
      "performUpkeep(bytes)": {
        "notice": "method that is actually executed by the keepers, via the registry. The data returned by the checkUpkeep simulation will be passed into this method to actually be executed."
      },
      "resolveClaimPosition(address,uint256)": {
        "notice": "Resolves the claim of a position."
      },
      "resolveLiquidation(address,uint256)": {
        "notice": "Resolves the liquidation of a position."
      }
    },
    "version": 1
  },
  "storageLayout": {
    "storage": [
      {
        "astId": 3942,
        "contract": "contracts/core/automation/Mate2Liquidator.sol:Mate2Liquidator",
        "label": "upkeepGasLimit",
        "offset": 0,
        "slot": "0",
        "type": "t_uint32"
      },
      {
        "astId": 3944,
        "contract": "contracts/core/automation/Mate2Liquidator.sol:Mate2Liquidator",
        "label": "waitPositionClaim",
        "offset": 0,
        "slot": "1",
        "type": "t_uint256"
      },
      {
        "astId": 3950,
        "contract": "contracts/core/automation/Mate2Liquidator.sol:Mate2Liquidator",
        "label": "_liquidationUpkeepIds",
        "offset": 0,
        "slot": "2",
        "type": "t_mapping(t_address,t_mapping(t_uint256,t_uint256))"
      },
      {
        "astId": 3956,
        "contract": "contracts/core/automation/Mate2Liquidator.sol:Mate2Liquidator",
        "label": "_claimPositionUpkeepIds",
        "offset": 0,
        "slot": "3",
        "type": "t_mapping(t_address,t_mapping(t_uint256,t_uint256))"
      }
    ],
    "types": {
      "t_address": {
        "encoding": "inplace",
        "label": "address",
        "numberOfBytes": "20"
      },
      "t_mapping(t_address,t_mapping(t_uint256,t_uint256))": {
        "encoding": "mapping",
        "key": "t_address",
        "label": "mapping(address => mapping(uint256 => uint256))",
        "numberOfBytes": "32",
        "value": "t_mapping(t_uint256,t_uint256)"
      },
      "t_mapping(t_uint256,t_uint256)": {
        "encoding": "mapping",
        "key": "t_uint256",
        "label": "mapping(uint256 => uint256)",
        "numberOfBytes": "32",
        "value": "t_uint256"
      },
      "t_uint256": {
        "encoding": "inplace",
        "label": "uint256",
        "numberOfBytes": "32"
      },
      "t_uint32": {
        "encoding": "inplace",
        "label": "uint32",
        "numberOfBytes": "4"
      }
    }
  }
}