{
  "address": "0xD160032551422bD54eC9061B1f5dE95e2046Fb08",
  "abi": [
    {
      "inputs": [
        {
          "internalType": "contract IChromaticMarketFactory",
          "name": "_factory",
          "type": "address"
        },
        {
          "internalType": "address",
          "name": "_automate",
          "type": "address"
        }
      ],
      "stateMutability": "nonpayable",
      "type": "constructor"
    },
    {
      "inputs": [],
      "name": "EthTransferFailed",
      "type": "error"
    },
    {
      "inputs": [],
      "name": "ExistMarketSettlementTask",
      "type": "error"
    },
    {
      "inputs": [],
      "name": "InsufficientKeeperFee",
      "type": "error"
    },
    {
      "inputs": [],
      "name": "OnlyAccessableByDao",
      "type": "error"
    },
    {
      "inputs": [],
      "name": "OnlyAccessableByFactoryOrDao",
      "type": "error"
    },
    {
      "inputs": [],
      "name": "PayKeeperFeeFailed",
      "type": "error"
    },
    {
      "anonymous": false,
      "inputs": [
        {
          "indexed": false,
          "internalType": "uint32",
          "name": "gasLimitOld",
          "type": "uint32"
        },
        {
          "indexed": false,
          "internalType": "uint32",
          "name": "gasLimitNew",
          "type": "uint32"
        }
      ],
      "name": "UpkeepGasLimitUpdated",
      "type": "event"
    },
    {
      "anonymous": false,
      "inputs": [
        {
          "indexed": false,
          "internalType": "string",
          "name": "_name",
          "type": "string"
        },
        {
          "indexed": false,
          "internalType": "string",
          "name": "_err",
          "type": "string"
        }
      ],
      "name": "catchErr",
      "type": "event"
    },
    {
      "stateMutability": "payable",
      "type": "fallback"
    },
    {
      "inputs": [],
      "name": "DEFAULT_UPKEEP_GAS_LIMIT",
      "outputs": [
        {
          "internalType": "uint32",
          "name": "",
          "type": "uint32"
        }
      ],
      "stateMutability": "view",
      "type": "function"
    },
    {
      "inputs": [],
      "name": "automate",
      "outputs": [
        {
          "internalType": "contract IMate2AutomationRegistry1_1",
          "name": "",
          "type": "address"
        }
      ],
      "stateMutability": "view",
      "type": "function"
    },
    {
      "inputs": [],
      "name": "balanceOfUpkeepTreasury",
      "outputs": [
        {
          "internalType": "uint256",
          "name": "",
          "type": "uint256"
        }
      ],
      "stateMutability": "view",
      "type": "function"
    },
    {
      "inputs": [
        {
          "internalType": "address",
          "name": "market",
          "type": "address"
        }
      ],
      "name": "cancelSettlementTask",
      "outputs": [],
      "stateMutability": "nonpayable",
      "type": "function"
    },
    {
      "inputs": [
        {
          "internalType": "uint256",
          "name": "upkeepId",
          "type": "uint256"
        }
      ],
      "name": "cancelUpkeep",
      "outputs": [],
      "stateMutability": "nonpayable",
      "type": "function"
    },
    {
      "inputs": [
        {
          "internalType": "bytes",
          "name": "checkData",
          "type": "bytes"
        },
        {
          "internalType": "bytes",
          "name": "extraData",
          "type": "bytes"
        }
      ],
      "name": "checkUpkeep",
      "outputs": [
        {
          "internalType": "bool",
          "name": "upkeepNeeded",
          "type": "bool"
        },
        {
          "internalType": "bytes",
          "name": "performData",
          "type": "bytes"
        }
      ],
      "stateMutability": "view",
      "type": "function"
    },
    {
      "inputs": [
        {
          "internalType": "address",
          "name": "market",
          "type": "address"
        }
      ],
      "name": "createSettlementTask",
      "outputs": [],
      "stateMutability": "nonpayable",
      "type": "function"
    },
    {
      "inputs": [],
      "name": "factory",
      "outputs": [
        {
          "internalType": "contract IChromaticMarketFactory",
          "name": "",
          "type": "address"
        }
      ],
      "stateMutability": "view",
      "type": "function"
    },
    {
      "inputs": [
        {
          "internalType": "address",
          "name": "",
          "type": "address"
        }
      ],
      "name": "marketSettlementUpkeepIds",
      "outputs": [
        {
          "internalType": "uint256",
          "name": "",
          "type": "uint256"
        }
      ],
      "stateMutability": "view",
      "type": "function"
    },
    {
      "inputs": [
        {
          "internalType": "bytes",
          "name": "performData",
          "type": "bytes"
        }
      ],
      "name": "performUpkeep",
      "outputs": [],
      "stateMutability": "nonpayable",
      "type": "function"
    },
    {
      "inputs": [
        {
          "internalType": "address",
          "name": "market",
          "type": "address"
        },
        {
          "internalType": "bytes",
          "name": "extraData",
          "type": "bytes"
        }
      ],
      "name": "resolveSettlement",
      "outputs": [
        {
          "internalType": "bool",
          "name": "canExec",
          "type": "bool"
        },
        {
          "internalType": "bytes",
          "name": "execPayload",
          "type": "bytes"
        }
      ],
      "stateMutability": "view",
      "type": "function"
    },
    {
      "inputs": [
        {
          "internalType": "address",
          "name": "market",
          "type": "address"
        }
      ],
      "name": "settle",
      "outputs": [],
      "stateMutability": "nonpayable",
      "type": "function"
    },
    {
      "inputs": [
        {
          "internalType": "address",
          "name": "market",
          "type": "address"
        },
        {
          "internalType": "bytes",
          "name": "extraData",
          "type": "bytes"
        }
      ],
      "name": "updatePrice",
      "outputs": [],
      "stateMutability": "nonpayable",
      "type": "function"
    },
    {
      "inputs": [
        {
          "internalType": "uint32",
          "name": "gasLimit",
          "type": "uint32"
        }
      ],
      "name": "updateUpkeepGasLimit",
      "outputs": [],
      "stateMutability": "nonpayable",
      "type": "function"
    },
    {
      "inputs": [],
      "name": "upkeepGasLimit",
      "outputs": [
        {
          "internalType": "uint32",
          "name": "",
          "type": "uint32"
        }
      ],
      "stateMutability": "view",
      "type": "function"
    },
    {
      "inputs": [
        {
          "internalType": "address",
          "name": "recipient",
          "type": "address"
        },
        {
          "internalType": "uint256",
          "name": "amount",
          "type": "uint256"
        }
      ],
      "name": "withdraw",
      "outputs": [],
      "stateMutability": "nonpayable",
      "type": "function"
    },
    {
      "inputs": [
        {
          "internalType": "address payable",
          "name": "_receiver",
          "type": "address"
        },
        {
          "internalType": "uint256",
          "name": "_amount",
          "type": "uint256"
        }
      ],
      "name": "withdrawUpkeepTreasuryFunds",
      "outputs": [],
      "stateMutability": "nonpayable",
      "type": "function"
    },
    {
      "stateMutability": "payable",
      "type": "receive"
    }
  ],
  "transactionHash": "0xcf71b6d3498209b7a9fea3f170f539c0006767b04c0859f914455821c212bb86",
  "args": [
    "0x1471332e8e91505a6B20F9bD1C70b52173dECB7d",
    "0x14cC9A5B88425d357AEca1B13B8cd6F81388Fe86"
  ],
  "numDeployments": 3,
  "solcInputHash": "955648283792a8453a800c8622c11d6a",
  "bytecode": "0x60c06040523480156200001157600080fd5b5060405162002b2738038062002b27833981016040819052620000349162000078565b6001600160a01b039182166080521660a0526000805463ffffffff19166301312d00179055620000b7565b6001600160a01b03811681146200007557600080fd5b50565b600080604083850312156200008c57600080fd5b825162000099816200005f565b6020840151909250620000ac816200005f565b809150509250929050565b60805160a0516129e1620001466000396000818161011e01528181610514015281816107e901528181610ede015281816110f201528181611401015281816119460152611a130152600081816102e4015281816103a8015281816106f401528181610dbe01528181610f4f01528181610f7a015281816111d80152818161120301526117b701526129e16000f3fe6080604052600436106101035760003560e01c8063892460a11161009c578063c80480221161006e578063d0d6451f11610056578063d0d6451f14610346578063d6c6b09f14610366578063f3fef3a31461038657005b8063c804802214610306578063cd0852d61461032657005b8063892460a114610268578063a9ea1f8014610288578063b7b31972146102a5578063c45a0155146102d257005b80634585e33b116100d55780634585e33b146101da57806365756271146101fa5780636a256b29146102285780637f35d0391461024857005b8063049aacfe1461010c57806316d0d82f1461016a5780632d0534c71461018a5780632eec5ee8146101b757005b3661010a57005b005b34801561011857600080fd5b506101407f000000000000000000000000000000000000000000000000000000000000000081565b60405173ffffffffffffffffffffffffffffffffffffffff90911681526020015b60405180910390f35b34801561017657600080fd5b5061010a610185366004611e2c565b6103a6565b34801561019657600080fd5b506101a26301312d0081565b60405163ffffffff9091168152602001610161565b3480156101c357600080fd5b506101cc61050f565b604051908152602001610161565b3480156101e657600080fd5b5061010a6101f5366004611ea2565b610638565b34801561020657600080fd5b5061021a610215366004611ee4565b610663565b604051610161929190611fbe565b34801561023457600080fd5b5061010a610243366004612003565b61068f565b34801561025457600080fd5b5061010a610263366004612020565b6106f2565b34801561027457600080fd5b5061021a61028336600461204c565b610907565b34801561029457600080fd5b506000546101a29063ffffffff1681565b3480156102b157600080fd5b506101cc6102c0366004612003565b60016020526000908152604090205481565b3480156102de57600080fd5b506101407f000000000000000000000000000000000000000000000000000000000000000081565b34801561031257600080fd5b5061010a6103213660046120a1565b610dbc565b34801561033257600080fd5b5061010a610341366004612003565b610f37565b34801561035257600080fd5b5061010a610361366004612003565b6111c0565b34801561037257600080fd5b5061010a61038136600461223c565b6115b4565b34801561039257600080fd5b5061010a6103a1366004612020565b6117b5565b7f000000000000000000000000000000000000000000000000000000000000000073ffffffffffffffffffffffffffffffffffffffff16634162169f6040518163ffffffff1660e01b8152600401602060405180830381865afa158015610411573d6000803e3d6000fd5b505050506040513d601f19601f82011682018060405250810190610435919061228c565b73ffffffffffffffffffffffffffffffffffffffff163373ffffffffffffffffffffffffffffffffffffffff1614610499576040517f808ca14f00000000000000000000000000000000000000000000000000000000815260040160405180910390fd5b6000805463ffffffff8381167fffffffffffffffffffffffffffffffffffffffffffffffffffffffff0000000083168117909355604080519190921680825260208201939093527fa3712acf4c1617a1da00c315e0718fcedb43a2940ec2d43d66f3b8121282ffbd910160405180910390a15050565b6000807f000000000000000000000000000000000000000000000000000000000000000073ffffffffffffffffffffffffffffffffffffffff1663f30839236040518163ffffffff1660e01b8152600401602060405180830381865afa15801561057d573d6000803e3d6000fd5b505050506040513d601f19601f820116820180604052508101906105a1919061228c565b6040517f0103c92b00000000000000000000000000000000000000000000000000000000815230600482015290915073ffffffffffffffffffffffffffffffffffffffff821690630103c92b90602401602060405180830381865afa15801561060e573d6000803e3d6000fd5b505050506040513d601f19601f8201168201806040525081019061063291906122a9565b91505090565b610640611942565b60008061064f8385018561223c565b9150915061065d82826115b4565b50505050565b600060608161067486880188612003565b9050610681818686610907565b925092505094509492505050565b8073ffffffffffffffffffffffffffffffffffffffff1663a015aefe6040518163ffffffff1660e01b8152600401600060405180830381600087803b1580156106d757600080fd5b505af11580156106eb573d6000803e3d6000fd5b5050505050565b7f000000000000000000000000000000000000000000000000000000000000000073ffffffffffffffffffffffffffffffffffffffff16634162169f6040518163ffffffff1660e01b8152600401602060405180830381865afa15801561075d573d6000803e3d6000fd5b505050506040513d601f19601f82011682018060405250810190610781919061228c565b73ffffffffffffffffffffffffffffffffffffffff163373ffffffffffffffffffffffffffffffffffffffff16146107e5576040517f808ca14f00000000000000000000000000000000000000000000000000000000815260040160405180910390fd5b60007f000000000000000000000000000000000000000000000000000000000000000073ffffffffffffffffffffffffffffffffffffffff1663f30839236040518163ffffffff1660e01b8152600401602060405180830381865afa158015610852573d6000803e3d6000fd5b505050506040513d601f19601f82011682018060405250810190610876919061228c565b6040517fc107532900000000000000000000000000000000000000000000000000000000815273ffffffffffffffffffffffffffffffffffffffff8581166004830152602482018590529192509082169063c107532990604401600060405180830381600087803b1580156108ea57600080fd5b505af11580156108fe573d6000803e3d6000fd5b50505050505050565b600060606000610915611ac9565b905060008673ffffffffffffffffffffffffffffffffffffffff16630aa7d2f96040518163ffffffff1660e01b8152600401602060405180830381865afa158015610964573d6000803e3d6000fd5b505050506040513d601f19601f82011682018060405250810190610988919061228c565b73ffffffffffffffffffffffffffffffffffffffff16639d888e866040518163ffffffff1660e01b8152600401606060405180830381865afa1580156109d2573d6000803e3d6000fd5b505050506040513d601f19601f820116820180604052508101906109f691906122c2565b905060008773ffffffffffffffffffffffffffffffffffffffff166324cedbd5846040518263ffffffff1660e01b8152600401610a339190612302565b600060405180830381865afa158015610a50573d6000803e3d6000fd5b505050506040513d6000823e601f3d9081017fffffffffffffffffffffffffffffffffffffffffffffffffffffffffffffffe0168201604052610a96919081019061236d565b905060005b8151811015610b1a576000828281518110610ab857610ab8612445565b602002602001015190508060000151600014158015610ad8575083518151105b15610b115760018a8a8a604051602001610af493929190612474565b604051602081830303815290604052965096505050505050610db4565b50600101610a9b565b506040517f39caa1b900000000000000000000000000000000000000000000000000000000815260009073ffffffffffffffffffffffffffffffffffffffff8a16906339caa1b990610b70908790600401612302565b600060405180830381865afa158015610b8d573d6000803e3d6000fd5b505050506040513d6000823e601f3d9081017fffffffffffffffffffffffffffffffffffffffffffffffffffffffffffffffe0168201604052610bd391908101906124de565b905060005b8151811015610c58576000828281518110610bf557610bf5612445565b602002602001015190508060000151600014158015610c15575084518151105b15610c4f5760018b8b8b604051602001610c3193929190612474565b60405160208183030381529060405297509750505050505050610db4565b50600101610bd8565b506040517f68adaeaa00000000000000000000000000000000000000000000000000000000815260009073ffffffffffffffffffffffffffffffffffffffff8b16906368adaeaa90610cae908890600401612302565b600060405180830381865afa158015610ccb573d6000803e3d6000fd5b505050506040513d6000823e601f3d9081017fffffffffffffffffffffffffffffffffffffffffffffffffffffffffffffffe0168201604052610d1191908101906125bd565b905060005b8151811015610d97576000828281518110610d3357610d33612445565b602002602001015190508060000151600014158015610d53575085518151105b15610d8e5760018c8c8c604051602001610d6f93929190612474565b6040516020818303038152906040529850985050505050505050610db4565b50600101610d16565b506000604051806020016040528060008152509650965050505050505b935093915050565b7f000000000000000000000000000000000000000000000000000000000000000073ffffffffffffffffffffffffffffffffffffffff16634162169f6040518163ffffffff1660e01b8152600401602060405180830381865afa158015610e27573d6000803e3d6000fd5b505050506040513d601f19601f82011682018060405250810190610e4b919061228c565b73ffffffffffffffffffffffffffffffffffffffff163373ffffffffffffffffffffffffffffffffffffffff1614610eaf576040517f808ca14f00000000000000000000000000000000000000000000000000000000815260040160405180910390fd5b6040517fc8048022000000000000000000000000000000000000000000000000000000008152600481018290527f000000000000000000000000000000000000000000000000000000000000000073ffffffffffffffffffffffffffffffffffffffff169063c804802290602401600060405180830381600087803b1580156106d757600080fd5b3373ffffffffffffffffffffffffffffffffffffffff7f0000000000000000000000000000000000000000000000000000000000000000161480159061103757507f000000000000000000000000000000000000000000000000000000000000000073ffffffffffffffffffffffffffffffffffffffff16634162169f6040518163ffffffff1660e01b8152600401602060405180830381865afa158015610fe3573d6000803e3d6000fd5b505050506040513d601f19601f82011682018060405250810190611007919061228c565b73ffffffffffffffffffffffffffffffffffffffff163373ffffffffffffffffffffffffffffffffffffffff1614155b1561106e576040517f6119ddb900000000000000000000000000000000000000000000000000000000815260040160405180910390fd5b73ffffffffffffffffffffffffffffffffffffffff811660009081526001602052604090205480156111bc5773ffffffffffffffffffffffffffffffffffffffff82811660009081526001602052604080822091909155517fc8048022000000000000000000000000000000000000000000000000000000008152600481018390527f00000000000000000000000000000000000000000000000000000000000000009091169063c804802290602401600060405180830381600087803b15801561113857600080fd5b505af1925050508015611149575060015b6111bc5761115561267b565b806308c379a0036111b05750611169612697565b8061117457506111b2565b7f1a105f82e7a73e98ff8b7e5e0479a23ba4df818edeafeec2e4bdfe52624b3ba1816040516111a3919061273f565b60405180910390a1505050565b505b3d6000803e3d6000fd5b5050565b3373ffffffffffffffffffffffffffffffffffffffff7f000000000000000000000000000000000000000000000000000000000000000016148015906112c057507f000000000000000000000000000000000000000000000000000000000000000073ffffffffffffffffffffffffffffffffffffffff16634162169f6040518163ffffffff1660e01b8152600401602060405180830381865afa15801561126c573d6000803e3d6000fd5b505050506040513d601f19601f82011682018060405250810190611290919061228c565b73ffffffffffffffffffffffffffffffffffffffff163373ffffffffffffffffffffffffffffffffffffffff1614155b156112f7576040517f6119ddb900000000000000000000000000000000000000000000000000000000815260040160405180910390fd5b73ffffffffffffffffffffffffffffffffffffffff811660009081526001602052604090205415611354576040517fc671c2bd00000000000000000000000000000000000000000000000000000000815260040160405180910390fd5b60008173ffffffffffffffffffffffffffffffffffffffff16630aa7d2f96040518163ffffffff1660e01b8152600401602060405180830381865afa1580156113a1573d6000803e3d6000fd5b505050506040513d601f19601f820116820180604052508101906113c5919061228c565b90506113d081611bc7565b6113d8575050565b600080546040805173ffffffffffffffffffffffffffffffffffffffff868116602083015285947f000000000000000000000000000000000000000000000000000000000000000090911693639e571d3893309363ffffffff90921692849290918291016040516020818303038152906040528873ffffffffffffffffffffffffffffffffffffffff1663f8fd60616040518163ffffffff1660e01b8152600401602060405180830381865afa158015611496573d6000803e3d6000fd5b505050506040513d601f19601f820116820180604052508101906114ba9190612786565b8973ffffffffffffffffffffffffffffffffffffffff166365bf03d76040518163ffffffff1660e01b8152600401600060405180830381865afa158015611505573d6000803e3d6000fd5b505050506040513d6000823e601f3d9081017fffffffffffffffffffffffffffffffffffffffffffffffffffffffffffffffe016820160405261154b91908101906127a7565b6040518963ffffffff1660e01b815260040161156e989796959493929190612829565b6020604051808303816000875af115801561158d573d6000803e3d6000fd5b505050506040513d601f19601f8201168201806040525081019061065d91906122a9565b50565b60008273ffffffffffffffffffffffffffffffffffffffff16630aa7d2f96040518163ffffffff1660e01b8152600401602060405180830381865afa158015611601573d6000803e3d6000fd5b505050506040513d601f19601f82011682018060405250810190611625919061228c565b905061163081611bc7565b156117b0576040517f238e0a8a000000000000000000000000000000000000000000000000000000008152819060009073ffffffffffffffffffffffffffffffffffffffff83169063238e0a8a9061168c9087906004016128df565b602060405180830381865afa1580156116a9573d6000803e3d6000fd5b505050506040513d601f19601f820116820180604052508101906116cd91906122a9565b90508173ffffffffffffffffffffffffffffffffffffffff16638736ec4782866040518363ffffffff1660e01b815260040161170991906128df565b6000604051808303818588803b15801561172257600080fd5b505af1158015611736573d6000803e3d6000fd5b50505050508173ffffffffffffffffffffffffffffffffffffffff1663fff6cae96040518163ffffffff1660e01b81526004016060604051808303816000875af1158015611788573d6000803e3d6000fd5b505050506040513d601f19601f820116820180604052508101906117ac91906122c2565b5050505b505050565b7f000000000000000000000000000000000000000000000000000000000000000073ffffffffffffffffffffffffffffffffffffffff16634162169f6040518163ffffffff1660e01b8152600401602060405180830381865afa158015611820573d6000803e3d6000fd5b505050506040513d601f19601f82011682018060405250810190611844919061228c565b73ffffffffffffffffffffffffffffffffffffffff163373ffffffffffffffffffffffffffffffffffffffff16146118a8576040517f808ca14f00000000000000000000000000000000000000000000000000000000815260040160405180910390fd5b60008273ffffffffffffffffffffffffffffffffffffffff168260405160006040518083038185875af1925050503d8060008114611902576040519150601f19603f3d011682016040523d82523d6000602084013e611907565b606091505b50509050806117b0576040517f6d963f8800000000000000000000000000000000000000000000000000000000815260040160405180910390fd5b60007f000000000000000000000000000000000000000000000000000000000000000073ffffffffffffffffffffffffffffffffffffffff1663d11d397a6040518163ffffffff1660e01b8152600401602060405180830381865afa1580156119af573d6000803e3d6000fd5b505050506040513d601f19601f820116820180604052508101906119d391906122a9565b905080471015611a0f576040517f2eeda15c00000000000000000000000000000000000000000000000000000000815260040160405180910390fd5b60007f000000000000000000000000000000000000000000000000000000000000000073ffffffffffffffffffffffffffffffffffffffff168260405160006040518083038185875af1925050503d8060008114611a89576040519150601f19603f3d011682016040523d82523d6000602084013e611a8e565b606091505b50509050806111bc576040517fc031416400000000000000000000000000000000000000000000000000000000815260040160405180910390fd5b6060611ad760246002612921565b67ffffffffffffffff811115611aef57611aef6120ba565b604051908082528060200260200182016040528015611b18578160200160208202803683370190505b5090506000611b25611cd1565b905060005b6024811015611bc257818160248110611b4557611b45612445565b6020020151838281518110611b5c57611b5c612445565b602002602001019060010b908160010b81525050818160248110611b8257611b82612445565b6020020151611b9090612938565b83611b9c602484612976565b81518110611bac57611bac612445565b600192830b602091820292909201015201611b2a565b505090565b6040517f01ffc9a70000000000000000000000000000000000000000000000000000000081527fb6a22c2f00000000000000000000000000000000000000000000000000000000600482015260009073ffffffffffffffffffffffffffffffffffffffff8316906301ffc9a790602401602060405180830381865afa925050508015611c8e575060408051601f3d9081017fffffffffffffffffffffffffffffffffffffffffffffffffffffffffffffffe0168201909252611c8b91810190612989565b60015b611ccb573d808015611cbc576040519150601f19603f3d011682016040523d82523d6000602084013e611cc1565b606091505b5060009392505050565b92915050565b611cd9611e0d565b50604080516104808101825260018152600260208201526003918101919091526004606082015260056080820152600660a0820152600760c0820152600860e08201526009610100820152600a6101208201526014610140820152601e610160820152602861018082015260326101a0820152603c6101c082015260466101e08201526050610200820152605a610220820152606461024082015260c861026082015261012c6102808201526101906102a08201526101f46102c08201526102586102e08201526102bc610300820152610320808201526103846103408201526103e86103608201526105dc6103808201526107d06103a08201526109c46103c0820152610bb86103e0820152610dac610400820152610fa061042082015261119461044082015261138861046082015290565b6040518061048001604052806024906020820280368337509192915050565b600060208284031215611e3e57600080fd5b813563ffffffff81168114611e5257600080fd5b9392505050565b60008083601f840112611e6b57600080fd5b50813567ffffffffffffffff811115611e8357600080fd5b602083019150836020828501011115611e9b57600080fd5b9250929050565b60008060208385031215611eb557600080fd5b823567ffffffffffffffff811115611ecc57600080fd5b611ed885828601611e59565b90969095509350505050565b60008060008060408587031215611efa57600080fd5b843567ffffffffffffffff80821115611f1257600080fd5b611f1e88838901611e59565b90965094506020870135915080821115611f3757600080fd5b50611f4487828801611e59565b95989497509550505050565b60005b83811015611f6b578181015183820152602001611f53565b50506000910152565b60008151808452611f8c816020860160208601611f50565b601f017fffffffffffffffffffffffffffffffffffffffffffffffffffffffffffffffe0169290920160200192915050565b8215158152604060208201526000611fd96040830184611f74565b949350505050565b73ffffffffffffffffffffffffffffffffffffffff811681146115b157600080fd5b60006020828403121561201557600080fd5b8135611e5281611fe1565b6000806040838503121561203357600080fd5b823561203e81611fe1565b946020939093013593505050565b60008060006040848603121561206157600080fd5b833561206c81611fe1565b9250602084013567ffffffffffffffff81111561208857600080fd5b61209486828701611e59565b9497909650939450505050565b6000602082840312156120b357600080fd5b5035919050565b7f4e487b7100000000000000000000000000000000000000000000000000000000600052604160045260246000fd5b6060810181811067ffffffffffffffff82111715612109576121096120ba565b60405250565b6080810181811067ffffffffffffffff82111715612109576121096120ba565b60a0810181811067ffffffffffffffff82111715612109576121096120ba565b7fffffffffffffffffffffffffffffffffffffffffffffffffffffffffffffffe0601f830116810181811067ffffffffffffffff82111715612193576121936120ba565b6040525050565b600067ffffffffffffffff8211156121b4576121b46120ba565b50601f017fffffffffffffffffffffffffffffffffffffffffffffffffffffffffffffffe01660200190565b600082601f8301126121f157600080fd5b81356121fc8161219a565b604051612209828261214f565b82815285602084870101111561221e57600080fd5b82602086016020830137600092810160200192909252509392505050565b6000806040838503121561224f57600080fd5b823561225a81611fe1565b9150602083013567ffffffffffffffff81111561227657600080fd5b612282858286016121e0565b9150509250929050565b60006020828403121561229e57600080fd5b8151611e5281611fe1565b6000602082840312156122bb57600080fd5b5051919050565b6000606082840312156122d457600080fd5b6040516122e0816120e9565b8251815260208301516020820152604083015160408201528091505092915050565b6020808252825182820181905260009190848201906040850190845b8181101561233d578351600190810b845293850193928501920161231e565b50909695505050505050565b600067ffffffffffffffff821115612363576123636120ba565b5060051b60200190565b6000602080838503121561238057600080fd5b825167ffffffffffffffff81111561239757600080fd5b8301601f810185136123a857600080fd5b80516123b381612349565b604080516123c1838261214f565b83815260079390931b84018501928581019250888411156123e157600080fd5b938501935b83851015612439576080858a0312156123ff5760008081fd5b815161240a8161210f565b8551815286860151878201528286015183820152606080870151908201528352608090940193918501916123e6565b98975050505050505050565b7f4e487b7100000000000000000000000000000000000000000000000000000000600052603260045260246000fd5b73ffffffffffffffffffffffffffffffffffffffff8416815260406020820152816040820152818360608301376000818301606090810191909152601f9092017fffffffffffffffffffffffffffffffffffffffffffffffffffffffffffffffe016010192915050565b600060208083850312156124f157600080fd5b825167ffffffffffffffff81111561250857600080fd5b8301601f8101851361251957600080fd5b805161252481612349565b60408051612532838261214f565b83815260a0938402850186019386820193508985111561255157600080fd5b948601945b848610156125b05780868b03121561256e5760008081fd5b82516125798161212f565b8651815287870151888201528387015184820152606080880151908201526080808801519082015284529485019492860192612556565b5098975050505050505050565b600060208083850312156125d057600080fd5b825167ffffffffffffffff8111156125e757600080fd5b8301601f810185136125f857600080fd5b805161260381612349565b60408051612611838261214f565b8381526060938402850186019386820193508985111561263057600080fd5b948601945b848610156125b05780868b03121561264d5760008081fd5b8251612658816120e9565b865181528787015188820152838701518482015284529485019492860192612635565b600060033d11156126945760046000803e5060005160e01c5b90565b600060443d10156126a55790565b6040517ffffffffffffffffffffffffffffffffffffffffffffffffffffffffffffffffc803d016004833e81513d67ffffffffffffffff81602484011181841117156126f357505050505090565b828501915081518181111561270b5750505050505090565b843d87010160208285010111156127255750505050505090565b6127346020828601018761214f565b509095945050505050565b60408152600c60408201527f63616e63656c55706b65657000000000000000000000000000000000000000006060820152608060208201526000611e526080830184611f74565b60006020828403121561279857600080fd5b815160038110611e5257600080fd5b6000602082840312156127b957600080fd5b815167ffffffffffffffff8111156127d057600080fd5b8201601f810184136127e157600080fd5b80516127ec8161219a565b6040516127f9828261214f565b82815286602084860101111561280e57600080fd5b61281f836020830160208701611f50565b9695505050505050565b600061010073ffffffffffffffffffffffffffffffffffffffff808c16845263ffffffff8b166020850152808a16604085015250871515606084015286151560808401528060a084015261287f81840187611f74565b9050600385106128b8577f4e487b7100000000000000000000000000000000000000000000000000000000600052602160045260246000fd5b8460c084015282810360e08401526128d08185611f74565b9b9a5050505050505050505050565b602081526000611e526020830184611f74565b7f4e487b7100000000000000000000000000000000000000000000000000000000600052601160045260246000fd5b8082028115828204841417611ccb57611ccb6128f2565b60008160010b7fffffffffffffffffffffffffffffffffffffffffffffffffffffffffffff8000810361296d5761296d6128f2565b60000392915050565b80820180821115611ccb57611ccb6128f2565b60006020828403121561299b57600080fd5b81518015158114611e5257600080fdfea2646970667358221220623fdfa489e49bed164ba0d1a46e4bb987c98c6449031729c8af4ceb35761c3364736f6c63430008130033",
  "devdoc": {
    "errors": {
      "EthTransferFailed()": [
        {
          "details": "Throws an error indicating that the transfer of Ether has failed."
        }
      ],
      "ExistMarketSettlementTask()": [
        {
          "details": "Throws an error indicating that a market settlement task already exists."
        }
      ],
      "InsufficientKeeperFee()": [
        {
          "details": "Throws an error indicating that the keeper fee is insufficient"
        }
      ],
      "OnlyAccessableByDao()": [
        {
          "details": "Throws an error indicating that the caller is not the DAO."
        }
      ],
      "OnlyAccessableByFactoryOrDao()": [
        {
          "details": "Throws an error indicating that the caller is neither the chromatic factory contract nor the DAO."
        }
      ],
      "PayKeeperFeeFailed()": [
        {
          "details": "Throws an error indicating that the payment of the keeper fee has failed."
        }
      ]
    },
    "kind": "dev",
    "methods": {
      "cancelSettlementTask(address)": {
        "params": {
          "market": "The address of the chromatic market contract for which to cancel the settlement task."
        }
      },
      "checkUpkeep(bytes,bytes)": {
        "details": "To ensure that it is never called, you may want to add the cannotExecute modifier from KeeperBase to your implementation of this method.",
        "params": {
          "checkData": "specified in the upkeep registration so it is always the same for a registered upkeep. This can easily be broken down into specific arguments using `abi.decode`, so multiple upkeeps can be registered on the same contract and easily differentiated by the contract.",
          "extraData": "passed by keeper for passing offchain data"
        },
        "returns": {
          "performData": "bytes that the keeper should call performUpkeep with, if upkeep is needed. If you would like to encode data to decode later, try `abi.encode`.",
          "upkeepNeeded": "boolean to indicate whether the keeper should call performUpkeep or not."
        }
      },
      "createSettlementTask(address)": {
        "details": "This function can only be called by the Chromatic factory contract or the DAO.      Throws an `ExistMarketSettlementTask` error if a market earning distribution task already exists for the market.",
        "params": {
          "market": "The address of the chromatic market contract to be settled."
        }
      },
      "performUpkeep(bytes)": {
        "details": "The input to this method should not be trusted, and the caller of the method should not even be restricted to any single registry. Anyone should be able call it, and the input should be validated, there is no guarantee that the data passed in is the performData returned from checkUpkeep. This could happen due to malicious keepers, racing keepers, or simply a state change while the performUpkeep transaction is waiting for confirmation. Always validate the data passed in.",
        "params": {
          "performData": "is the data which was passed back from the checkData simulation. If it is encoded, it can easily be decoded into other types by calling `abi.decode`. This data should not be trusted, and should be validated against the contract's current state."
        }
      },
      "resolveSettlement(address,bytes)": {
        "details": "This function is called by the automation system.",
        "params": {
          "extraData": "passed by keeper for passing offchain data",
          "market": "The address of the market contract."
        },
        "returns": {
          "canExec": "Whether the settlement can be executed.",
          "execPayload": "The encoded function call to execute the settlement."
        }
      },
      "settle(address)": {
        "params": {
          "market": "The address of the market contract."
        }
      },
      "updatePrice(address,bytes)": {
        "params": {
          "extraData": "passed by keeper for passing offchain data",
          "market": "The address of the market contract."
        }
      },
      "withdraw(address,uint256)": {
        "params": {
          "amount": "The amount of funds to be withdrawn.",
          "recipient": "The address that will receive the withdrawn funds."
        }
      }
    },
    "version": 1
  },
  "userdoc": {
    "kind": "user",
    "methods": {
      "cancelSettlementTask(address)": {
        "notice": "Cancels a settlement task for a given market."
      },
      "checkUpkeep(bytes,bytes)": {
        "notice": "method that is simulated by the keepers to see if any work actually needs to be performed. This method does does not actually need to be executable, and since it is only ever simulated it can consume lots of gas."
      },
      "createSettlementTask(address)": {
        "notice": "Creates a settlement task for a given market."
      },
      "performUpkeep(bytes)": {
        "notice": "method that is actually executed by the keepers, via the registry. The data returned by the checkUpkeep simulation will be passed into this method to actually be executed."
      },
      "resolveSettlement(address,bytes)": {
        "notice": "Resolves the settlement of a market."
      },
      "settle(address)": {
        "notice": "Settles a market."
      },
      "updatePrice(address,bytes)": {
        "notice": "Updates the price using off-chain data."
      },
      "withdraw(address,uint256)": {
        "notice": "Withdraws a specified amount of funds from the contract to a recipient address."
      }
    },
    "version": 1
  },
  "storageLayout": {
    "storage": [
      {
        "astId": 14780,
        "contract": "contracts/core/automation/Mate2MarketSettlement.sol:Mate2MarketSettlement",
        "label": "upkeepGasLimit",
        "offset": 0,
        "slot": "0",
        "type": "t_uint32"
      },
      {
        "astId": 14784,
        "contract": "contracts/core/automation/Mate2MarketSettlement.sol:Mate2MarketSettlement",
        "label": "marketSettlementUpkeepIds",
        "offset": 0,
        "slot": "1",
        "type": "t_mapping(t_address,t_uint256)"
      }
    ],
    "types": {
      "t_address": {
        "encoding": "inplace",
        "label": "address",
        "numberOfBytes": "20"
      },
      "t_mapping(t_address,t_uint256)": {
        "encoding": "mapping",
        "key": "t_address",
        "label": "mapping(address => uint256)",
        "numberOfBytes": "32",
        "value": "t_uint256"
      },
      "t_uint256": {
        "encoding": "inplace",
        "label": "uint256",
        "numberOfBytes": "32"
      },
      "t_uint32": {
        "encoding": "inplace",
        "label": "uint32",
        "numberOfBytes": "4"
      }
    }
  }
}