{
  "address": "0x1dDF0E4E22Fcb7B5E92e5C3Dbba21641511090C5",
  "abi": [
    {
      "inputs": [
        {
          "internalType": "contract IChromaticMarketFactory",
          "name": "_factory",
          "type": "address"
        },
        {
          "internalType": "address",
          "name": "_automate",
          "type": "address"
        }
      ],
      "stateMutability": "nonpayable",
      "type": "constructor"
    },
    {
      "inputs": [],
      "name": "ExistMakerEarningDistributionTask",
      "type": "error"
    },
    {
      "inputs": [],
      "name": "ExistMarketEarningDistributionTask",
      "type": "error"
    },
    {
      "inputs": [],
      "name": "OnlyAccessableByDao",
      "type": "error"
    },
    {
      "inputs": [],
      "name": "OnlyAccessableByVault",
      "type": "error"
    },
    {
      "anonymous": false,
      "inputs": [
        {
          "indexed": false,
          "internalType": "string",
          "name": "_name",
          "type": "string"
        },
        {
          "indexed": false,
          "internalType": "string",
          "name": "_err",
          "type": "string"
        }
      ],
      "name": "catchErr",
      "type": "event"
    },
    {
      "inputs": [],
      "name": "automate",
      "outputs": [
        {
          "internalType": "contract IMate2AutomationRegistry",
          "name": "",
          "type": "address"
        }
      ],
      "stateMutability": "view",
      "type": "function"
    },
    {
      "inputs": [
        {
          "internalType": "address",
          "name": "token",
          "type": "address"
        }
      ],
      "name": "cancelMakerEarningDistributionTask",
      "outputs": [],
      "stateMutability": "nonpayable",
      "type": "function"
    },
    {
      "inputs": [
        {
          "internalType": "address",
          "name": "market",
          "type": "address"
        }
      ],
      "name": "cancelMarketEarningDistributionTask",
      "outputs": [],
      "stateMutability": "nonpayable",
      "type": "function"
    },
    {
      "inputs": [
        {
          "internalType": "uint256",
          "name": "upkeepId",
          "type": "uint256"
        }
      ],
      "name": "cancelUpkeep",
      "outputs": [],
      "stateMutability": "nonpayable",
      "type": "function"
    },
    {
      "inputs": [
        {
          "internalType": "bytes",
          "name": "checkData",
          "type": "bytes"
        }
      ],
      "name": "checkUpkeep",
      "outputs": [
        {
          "internalType": "bool",
          "name": "upkeepNeeded",
          "type": "bool"
        },
        {
          "internalType": "bytes",
          "name": "performData",
          "type": "bytes"
        }
      ],
      "stateMutability": "view",
      "type": "function"
    },
    {
      "inputs": [
        {
          "internalType": "address",
          "name": "token",
          "type": "address"
        }
      ],
      "name": "createMakerEarningDistributionTask",
      "outputs": [],
      "stateMutability": "nonpayable",
      "type": "function"
    },
    {
      "inputs": [
        {
          "internalType": "address",
          "name": "market",
          "type": "address"
        }
      ],
      "name": "createMarketEarningDistributionTask",
      "outputs": [],
      "stateMutability": "nonpayable",
      "type": "function"
    },
    {
      "inputs": [
        {
          "internalType": "address",
          "name": "token",
          "type": "address"
        }
      ],
      "name": "distributeMakerEarning",
      "outputs": [],
      "stateMutability": "nonpayable",
      "type": "function"
    },
    {
      "inputs": [
        {
          "internalType": "address",
          "name": "market",
          "type": "address"
        }
      ],
      "name": "distributeMarketEarning",
      "outputs": [],
      "stateMutability": "nonpayable",
      "type": "function"
    },
    {
      "inputs": [],
      "name": "factory",
      "outputs": [
        {
          "internalType": "contract IChromaticMarketFactory",
          "name": "",
          "type": "address"
        }
      ],
      "stateMutability": "view",
      "type": "function"
    },
    {
      "inputs": [
        {
          "internalType": "address",
          "name": "",
          "type": "address"
        }
      ],
      "name": "makerEarningDistributionUpkeepIds",
      "outputs": [
        {
          "internalType": "uint256",
          "name": "",
          "type": "uint256"
        }
      ],
      "stateMutability": "view",
      "type": "function"
    },
    {
      "inputs": [
        {
          "internalType": "address",
          "name": "",
          "type": "address"
        }
      ],
      "name": "marketEarningDistributionUpkeepIds",
      "outputs": [
        {
          "internalType": "uint256",
          "name": "",
          "type": "uint256"
        }
      ],
      "stateMutability": "view",
      "type": "function"
    },
    {
      "inputs": [
        {
          "internalType": "bytes",
          "name": "performData",
          "type": "bytes"
        }
      ],
      "name": "performUpkeep",
      "outputs": [],
      "stateMutability": "nonpayable",
      "type": "function"
    },
    {
      "inputs": [
        {
          "internalType": "address",
          "name": "token",
          "type": "address"
        }
      ],
      "name": "resolveMakerEarningDistribution",
      "outputs": [
        {
          "internalType": "bool",
          "name": "canExec",
          "type": "bool"
        },
        {
          "internalType": "bytes",
          "name": "execPayload",
          "type": "bytes"
        }
      ],
      "stateMutability": "view",
      "type": "function"
    },
    {
      "inputs": [
        {
          "internalType": "address",
          "name": "market",
          "type": "address"
        }
      ],
      "name": "resolveMarketEarningDistribution",
      "outputs": [
        {
          "internalType": "bool",
          "name": "canExec",
          "type": "bool"
        },
        {
          "internalType": "bytes",
          "name": "execPayload",
          "type": "bytes"
        }
      ],
      "stateMutability": "view",
      "type": "function"
    }
  ],
  "transactionHash": "0xad7742ffaf60b7e7051a989ed9edb1f3980b338272e0c3a77ddd8657fda08f8e",
  "args": [
    "0xa74B572cA410b79B581C24cc37743d65b2D936c8",
    "0xCc25d82dd205bF21eCd6CE63559415AFce93a00F"
  ],
  "numDeployments": 1,
  "solcInputHash": "1e9db94fec94dd4fd878c14e15d047fa",
  "bytecode": "0x60c06040523480156200001157600080fd5b5060405162001adb38038062001adb833981016040819052620000349162000065565b6001600160a01b039182166080521660a052620000a4565b6001600160a01b03811681146200006257600080fd5b50565b600080604083850312156200007957600080fd5b825162000086816200004c565b602084015190925062000099816200004c565b809150509250929050565b60805160a051611994620001476000396000818160ff015281816106080152818161082901528181610b0301528181610d8901528181610f9e0152818161103f01526110cf015260008181610239015281816102b201528181610493015281816106d90152818161098e01528181610b4501528181610c3901528181610e7e015281816111ae0152818161121d0152818161138d01526113fc01526119946000f3fe608060405234801561001057600080fd5b50600436106100f55760003560e01c806371f8122b11610097578063c45a015511610066578063c45a015514610234578063c80480221461025b578063d0ce3c381461026e578063d5f6c54d1461028e57600080fd5b806371f8122b146101cd5780638ba67435146101e05780639f69101d1461020e578063c440a65c1461022157600080fd5b80634585e33b116100d35780634585e33b146101815780634818c2fe14610194578063687d5dd4146101a75780636e04ff0d146101ba57600080fd5b8063049aacfe146100fa578063135ac9981461014b57806330585f7c14610160575b600080fd5b6101217f000000000000000000000000000000000000000000000000000000000000000081565b60405173ffffffffffffffffffffffffffffffffffffffff90911681526020015b60405180910390f35b61015e610159366004611548565b6102a1565b005b61017361016e366004611548565b6103d7565b6040516101429291906115d0565b61015e61018f3660046115f3565b61042e565b61015e6101a2366004611548565b610491565b61015e6101b5366004611548565b6106d7565b6101736101c83660046115f3565b61091c565b61015e6101db366004611548565b61098c565b6102006101ee366004611548565b60016020526000908152604090205481565b604051908152602001610142565b61015e61021c366004611548565b610b34565b61015e61022f366004611548565b610c37565b6101217f000000000000000000000000000000000000000000000000000000000000000081565b61015e610269366004611665565b610e7c565b61020061027c366004611548565b60006020819052908152604090205481565b61017361029c366004611548565b611012565b6000806102ac61103a565b915091507f000000000000000000000000000000000000000000000000000000000000000073ffffffffffffffffffffffffffffffffffffffff1663fbfa77cf6040518163ffffffff1660e01b8152600401602060405180830381865afa15801561031b573d6000803e3d6000fd5b505050506040513d601f19601f8201168201806040525081019061033f919061167e565b6040517f81ebafee00000000000000000000000000000000000000000000000000000000815273ffffffffffffffffffffffffffffffffffffffff858116600483015260248201859052838116604483015291909116906381ebafee906064015b600060405180830381600087803b1580156103ba57600080fd5b505af11580156103ce573d6000803e3d6000fd5b50505050505050565b600060606103e4836110f4565b1561041657600180846040516020016103fe9291906116ca565b60405160208183030381529060405291509150915091565b50506040805160208101909152600080825292909150565b60008061043d8385018561172a565b909250905060008260018111156104565761045661169b565b036104695761046481610b34565b61048b565b600182600181111561047d5761047d61169b565b0361048b5761048b816102a1565b50505050565b7f000000000000000000000000000000000000000000000000000000000000000073ffffffffffffffffffffffffffffffffffffffff1663fbfa77cf6040518163ffffffff1660e01b8152600401602060405180830381865afa1580156104fc573d6000803e3d6000fd5b505050506040513d601f19601f82011682018060405250810190610520919061167e565b73ffffffffffffffffffffffffffffffffffffffff163373ffffffffffffffffffffffffffffffffffffffff1614610584576040517f6c7e0fa500000000000000000000000000000000000000000000000000000000815260040160405180910390fd5b73ffffffffffffffffffffffffffffffffffffffff811660009081526001602052604090205480156106d35773ffffffffffffffffffffffffffffffffffffffff82811660009081526001602052604080822091909155517fc8048022000000000000000000000000000000000000000000000000000000008152600481018390527f00000000000000000000000000000000000000000000000000000000000000009091169063c8048022906024015b600060405180830381600087803b15801561064f57600080fd5b505af1925050508015610660575060015b6106d35761066c611767565b806308c379a0036106c757506106806117f5565b8061068b57506106c9565b7f1a105f82e7a73e98ff8b7e5e0479a23ba4df818edeafeec2e4bdfe52624b3ba1816040516106ba919061189d565b60405180910390a1505050565b505b3d6000803e3d6000fd5b5050565b7f000000000000000000000000000000000000000000000000000000000000000073ffffffffffffffffffffffffffffffffffffffff1663fbfa77cf6040518163ffffffff1660e01b8152600401602060405180830381865afa158015610742573d6000803e3d6000fd5b505050506040513d601f19601f82011682018060405250810190610766919061167e565b73ffffffffffffffffffffffffffffffffffffffff163373ffffffffffffffffffffffffffffffffffffffff16146107ca576040517f6c7e0fa500000000000000000000000000000000000000000000000000000000815260040160405180910390fd5b73ffffffffffffffffffffffffffffffffffffffff811660009081526020819052604090205415610827576040517ff953ee4500000000000000000000000000000000000000000000000000000000815260040160405180910390fd5b7f000000000000000000000000000000000000000000000000000000000000000073ffffffffffffffffffffffffffffffffffffffff16634b04cd0c30620f4240306000806000886040516020016108809291906116ca565b6040516020818303038152906040526040518763ffffffff1660e01b81526004016108b0969594939291906118e4565b6020604051808303816000875af11580156108cf573d6000803e3d6000fd5b505050506040513d601f19601f820116820180604052508101906108f39190611945565b73ffffffffffffffffffffffffffffffffffffffff909116600090815260208190526040902055565b60006060818061092e8587018761172a565b909250905060008260018111156109475761094761169b565b036109605761095581611012565b935093505050610985565b60018260018111156109745761097461169b565b0361098257610955816103d7565b50505b9250929050565b7f000000000000000000000000000000000000000000000000000000000000000073ffffffffffffffffffffffffffffffffffffffff1663fbfa77cf6040518163ffffffff1660e01b8152600401602060405180830381865afa1580156109f7573d6000803e3d6000fd5b505050506040513d601f19601f82011682018060405250810190610a1b919061167e565b73ffffffffffffffffffffffffffffffffffffffff163373ffffffffffffffffffffffffffffffffffffffff1614610a7f576040517f6c7e0fa500000000000000000000000000000000000000000000000000000000815260040160405180910390fd5b73ffffffffffffffffffffffffffffffffffffffff811660009081526020819052604090205480156106d35773ffffffffffffffffffffffffffffffffffffffff82811660009081526020819052604080822091909155517fc8048022000000000000000000000000000000000000000000000000000000008152600481018390527f00000000000000000000000000000000000000000000000000000000000000009091169063c804802290602401610635565b600080610b3f61103a565b915091507f000000000000000000000000000000000000000000000000000000000000000073ffffffffffffffffffffffffffffffffffffffff1663fbfa77cf6040518163ffffffff1660e01b8152600401602060405180830381865afa158015610bae573d6000803e3d6000fd5b505050506040513d601f19601f82011682018060405250810190610bd2919061167e565b6040517fc4d39eee00000000000000000000000000000000000000000000000000000000815273ffffffffffffffffffffffffffffffffffffffff8581166004830152602482018590528381166044830152919091169063c4d39eee906064016103a0565b7f000000000000000000000000000000000000000000000000000000000000000073ffffffffffffffffffffffffffffffffffffffff1663fbfa77cf6040518163ffffffff1660e01b8152600401602060405180830381865afa158015610ca2573d6000803e3d6000fd5b505050506040513d601f19601f82011682018060405250810190610cc6919061167e565b73ffffffffffffffffffffffffffffffffffffffff163373ffffffffffffffffffffffffffffffffffffffff1614610d2a576040517f6c7e0fa500000000000000000000000000000000000000000000000000000000815260040160405180910390fd5b73ffffffffffffffffffffffffffffffffffffffff811660009081526001602052604090205415610d87576040517f3d8ff6d700000000000000000000000000000000000000000000000000000000815260040160405180910390fd5b7f000000000000000000000000000000000000000000000000000000000000000073ffffffffffffffffffffffffffffffffffffffff16634b04cd0c30620f424030600080600188604051602001610de09291906116ca565b6040516020818303038152906040526040518763ffffffff1660e01b8152600401610e10969594939291906118e4565b6020604051808303816000875af1158015610e2f573d6000803e3d6000fd5b505050506040513d601f19601f82011682018060405250810190610e539190611945565b73ffffffffffffffffffffffffffffffffffffffff909116600090815260016020526040902055565b7f000000000000000000000000000000000000000000000000000000000000000073ffffffffffffffffffffffffffffffffffffffff16634162169f6040518163ffffffff1660e01b8152600401602060405180830381865afa158015610ee7573d6000803e3d6000fd5b505050506040513d601f19601f82011682018060405250810190610f0b919061167e565b73ffffffffffffffffffffffffffffffffffffffff163373ffffffffffffffffffffffffffffffffffffffff1614610f6f576040517f808ca14f00000000000000000000000000000000000000000000000000000000815260040160405180910390fd5b6040517fc8048022000000000000000000000000000000000000000000000000000000008152600481018290527f000000000000000000000000000000000000000000000000000000000000000073ffffffffffffffffffffffffffffffffffffffff169063c804802290602401600060405180830381600087803b158015610ff757600080fd5b505af115801561100b573d6000803e3d6000fd5b5050505050565b6000606061101f83611345565b156104165760016000846040516020016103fe9291906116ca565b6000807f000000000000000000000000000000000000000000000000000000000000000073ffffffffffffffffffffffffffffffffffffffff1663d11d397a6040518163ffffffff1660e01b8152600401602060405180830381865afa1580156110a8573d6000803e3d6000fd5b505050506040513d601f19601f820116820180604052508101906110cc9190611945565b927f000000000000000000000000000000000000000000000000000000000000000092509050565b6000808273ffffffffffffffffffffffffffffffffffffffff16637b9e618d6040518163ffffffff1660e01b8152600401602060405180830381865afa158015611142573d6000803e3d6000fd5b505050506040513d601f19601f82011682018060405250810190611166919061167e565b6040517ffddd4d8f00000000000000000000000000000000000000000000000000000000815273ffffffffffffffffffffffffffffffffffffffff80831660048301529192507f00000000000000000000000000000000000000000000000000000000000000009091169063fddd4d8f90602401602060405180830381865afa1580156111f7573d6000803e3d6000fd5b505050506040513d601f19601f8201168201806040525081019061121b9190611945565b7f000000000000000000000000000000000000000000000000000000000000000073ffffffffffffffffffffffffffffffffffffffff1663fbfa77cf6040518163ffffffff1660e01b8152600401602060405180830381865afa158015611286573d6000803e3d6000fd5b505050506040513d601f19601f820116820180604052508101906112aa919061167e565b6040517f5372d35c00000000000000000000000000000000000000000000000000000000815273ffffffffffffffffffffffffffffffffffffffff86811660048301529190911690635372d35c90602401602060405180830381865afa158015611318573d6000803e3d6000fd5b505050506040513d601f19601f8201168201806040525081019061133c9190611945565b10159392505050565b6040517ffddd4d8f00000000000000000000000000000000000000000000000000000000815273ffffffffffffffffffffffffffffffffffffffff82811660048301526000917f00000000000000000000000000000000000000000000000000000000000000009091169063fddd4d8f90602401602060405180830381865afa1580156113d6573d6000803e3d6000fd5b505050506040513d601f19601f820116820180604052508101906113fa9190611945565b7f000000000000000000000000000000000000000000000000000000000000000073ffffffffffffffffffffffffffffffffffffffff1663fbfa77cf6040518163ffffffff1660e01b8152600401602060405180830381865afa158015611465573d6000803e3d6000fd5b505050506040513d601f19601f82011682018060405250810190611489919061167e565b6040517f0963c61a00000000000000000000000000000000000000000000000000000000815273ffffffffffffffffffffffffffffffffffffffff85811660048301529190911690630963c61a90602401602060405180830381865afa1580156114f7573d6000803e3d6000fd5b505050506040513d601f19601f8201168201806040525081019061151b9190611945565b101592915050565b73ffffffffffffffffffffffffffffffffffffffff8116811461154557600080fd5b50565b60006020828403121561155a57600080fd5b813561156581611523565b9392505050565b6000815180845260005b8181101561159257602081850181015186830182015201611576565b5060006020828601015260207fffffffffffffffffffffffffffffffffffffffffffffffffffffffffffffffe0601f83011685010191505092915050565b82151581526040602082015260006115eb604083018461156c565b949350505050565b6000806020838503121561160657600080fd5b823567ffffffffffffffff8082111561161e57600080fd5b818501915085601f83011261163257600080fd5b81358181111561164157600080fd5b86602082850101111561165357600080fd5b60209290920196919550909350505050565b60006020828403121561167757600080fd5b5035919050565b60006020828403121561169057600080fd5b815161156581611523565b7f4e487b7100000000000000000000000000000000000000000000000000000000600052602160045260246000fd5b6040810160028410611705577f4e487b7100000000000000000000000000000000000000000000000000000000600052602160045260246000fd5b92815273ffffffffffffffffffffffffffffffffffffffff9190911660209091015290565b6000806040838503121561173d57600080fd5b82356002811061174c57600080fd5b9150602083013561175c81611523565b809150509250929050565b600060033d11156117805760046000803e5060005160e01c5b90565b7fffffffffffffffffffffffffffffffffffffffffffffffffffffffffffffffe0601f830116810181811067ffffffffffffffff821117156117ee577f4e487b7100000000000000000000000000000000000000000000000000000000600052604160045260246000fd5b6040525050565b600060443d10156118035790565b6040517ffffffffffffffffffffffffffffffffffffffffffffffffffffffffffffffffc803d016004833e81513d67ffffffffffffffff816024840111818411171561185157505050505090565b82850191508151818111156118695750505050505090565b843d87010160208285010111156118835750505050505090565b61189260208286010187611783565b509095945050505050565b60408152600c60408201527f63616e63656c55706b65657000000000000000000000000000000000000000006060820152608060208201526000611565608083018461156c565b600073ffffffffffffffffffffffffffffffffffffffff808916835263ffffffff881660208401528087166040840152508415156060830152831515608083015260c060a083015261193960c083018461156c565b98975050505050505050565b60006020828403121561195757600080fd5b505191905056fea26469706673582212201b2d2e3313e5ed2a862192926a36963630ef3e0eb42edade6095b85f14c28d6864736f6c63430008130033",
  "devdoc": {
    "errors": {
      "ExistMakerEarningDistributionTask()": [
        {
          "details": "Throws an error indicating that a maker earning distribution task already exists."
        }
      ],
      "ExistMarketEarningDistributionTask()": [
        {
          "details": "Throws an error indicating that a market earning distribution task already exists."
        }
      ],
      "OnlyAccessableByDao()": [
        {
          "details": "Throws an error indicating that the caller is not the DAO."
        }
      ],
      "OnlyAccessableByVault()": [
        {
          "details": "Throws an error indicating that the caller is not the chromatch vault contract."
        }
      ]
    },
    "kind": "dev",
    "methods": {
      "cancelMakerEarningDistributionTask(address)": {
        "params": {
          "token": "The address of the settlement token."
        }
      },
      "cancelMarketEarningDistributionTask(address)": {
        "params": {
          "market": "The address of the market."
        }
      },
      "checkUpkeep(bytes)": {
        "details": "To ensure that it is never called, you may want to add the cannotExecute modifier from KeeperBase to your implementation of this method.",
        "params": {
          "checkData": "specified in the upkeep registration so it is always the same for a registered upkeep. This can easily be broken down into specific arguments using `abi.decode`, so multiple upkeeps can be registered on the same contract and easily differentiated by the contract."
        },
        "returns": {
          "performData": "bytes that the keeper should call performUpkeep with, if upkeep is needed. If you would like to encode data to decode later, try `abi.encode`.",
          "upkeepNeeded": "boolean to indicate whether the keeper should call performUpkeep or not."
        }
      },
      "createMakerEarningDistributionTask(address)": {
        "details": "This function can only be called by the Chromatic factory contract or the DAO.      Throws an `ExistMakerEarningDistributionTask` error if a maker earning distribution task already exists for the token.",
        "params": {
          "token": "The address of the settlement token."
        }
      },
      "createMarketEarningDistributionTask(address)": {
        "details": "This function can only be called by the Chromatic factory contract or the DAO.      Throws an `ExistMarketEarningDistributionTask` error if a market earning distribution task already exists for the market.",
        "params": {
          "market": "The address of the market."
        }
      },
      "distributeMakerEarning(address)": {
        "params": {
          "token": "The address of the settlement token."
        }
      },
      "distributeMarketEarning(address)": {
        "params": {
          "market": "The address of the market."
        }
      },
      "performUpkeep(bytes)": {
        "details": "The input to this method should not be trusted, and the caller of the method should not even be restricted to any single registry. Anyone should be able call it, and the input should be validated, there is no guarantee that the data passed in is the performData returned from checkUpkeep. This could happen due to malicious keepers, racing keepers, or simply a state change while the performUpkeep transaction is waiting for confirmation. Always validate the data passed in.",
        "params": {
          "performData": "is the data which was passed back from the checkData simulation. If it is encoded, it can easily be decoded into other types by calling `abi.decode`. This data should not be trusted, and should be validated against the contract's current state."
        }
      },
      "resolveMakerEarningDistribution(address)": {
        "params": {
          "token": "The address of the settlement token."
        },
        "returns": {
          "canExec": "True if the distribution can be executed, otherwise False.",
          "execPayload": "The payload for executing the distribution."
        }
      },
      "resolveMarketEarningDistribution(address)": {
        "params": {
          "market": "The address of the market."
        },
        "returns": {
          "canExec": "True if the distribution can be executed.",
          "execPayload": "The payload for executing the distribution."
        }
      }
    },
    "version": 1
  },
  "userdoc": {
    "kind": "user",
    "methods": {
      "cancelMakerEarningDistributionTask(address)": {
        "notice": "Cancels a maker earning distribution task for a token."
      },
      "cancelMarketEarningDistributionTask(address)": {
        "notice": "Cancels a market earning distribution task for a market."
      },
      "checkUpkeep(bytes)": {
        "notice": "method that is simulated by the keepers to see if any work actually needs to be performed. This method does does not actually need to be executable, and since it is only ever simulated it can consume lots of gas."
      },
      "createMakerEarningDistributionTask(address)": {
        "notice": "Creates a maker earning distribution task for a token."
      },
      "createMarketEarningDistributionTask(address)": {
        "notice": "Creates a market earning distribution task for a market."
      },
      "distributeMakerEarning(address)": {
        "notice": "Distributes the maker earning for a token to the each markets."
      },
      "distributeMarketEarning(address)": {
        "notice": "Distributes the market earning for a market to the each bins."
      },
      "performUpkeep(bytes)": {
        "notice": "method that is actually executed by the keepers, via the registry. The data returned by the checkUpkeep simulation will be passed into this method to actually be executed."
      },
      "resolveMakerEarningDistribution(address)": {
        "notice": "Resolves the maker earning distribution for a specific token."
      },
      "resolveMarketEarningDistribution(address)": {
        "notice": "Resolves the market earning distribution for a market."
      }
    },
    "version": 1
  },
  "storageLayout": {
    "storage": [
      {
        "astId": 13276,
        "contract": "contracts/core/automation/Mate2VaultEarningDistributor.sol:Mate2VaultEarningDistributor",
        "label": "makerEarningDistributionUpkeepIds",
        "offset": 0,
        "slot": "0",
        "type": "t_mapping(t_address,t_uint256)"
      },
      {
        "astId": 13280,
        "contract": "contracts/core/automation/Mate2VaultEarningDistributor.sol:Mate2VaultEarningDistributor",
        "label": "marketEarningDistributionUpkeepIds",
        "offset": 0,
        "slot": "1",
        "type": "t_mapping(t_address,t_uint256)"
      }
    ],
    "types": {
      "t_address": {
        "encoding": "inplace",
        "label": "address",
        "numberOfBytes": "20"
      },
      "t_mapping(t_address,t_uint256)": {
        "encoding": "mapping",
        "key": "t_address",
        "label": "mapping(address => uint256)",
        "numberOfBytes": "32",
        "value": "t_uint256"
      },
      "t_uint256": {
        "encoding": "inplace",
        "label": "uint256",
        "numberOfBytes": "32"
      }
    }
  }
}