{
  "address": "0xd991A1a9bDd9cA12EB328499CC3778e0B2DA2629",
  "abi": [
    {
      "inputs": [
        {
          "internalType": "contract AbstractPyth",
          "name": "pyth_",
          "type": "address"
        },
        {
          "internalType": "bytes32",
          "name": "priceFeedId_",
          "type": "bytes32"
        },
        {
          "internalType": "string",
          "name": "description_",
          "type": "string"
        }
      ],
      "stateMutability": "nonpayable",
      "type": "constructor"
    },
    {
      "inputs": [],
      "name": "InvalidOracleRound",
      "type": "error"
    },
    {
      "inputs": [],
      "name": "PriceFeedNotExist",
      "type": "error"
    },
    {
      "inputs": [],
      "name": "WrongData",
      "type": "error"
    },
    {
      "stateMutability": "payable",
      "type": "fallback"
    },
    {
      "inputs": [
        {
          "internalType": "uint256",
          "name": "version",
          "type": "uint256"
        }
      ],
      "name": "atVersion",
      "outputs": [
        {
          "components": [
            {
              "internalType": "uint256",
              "name": "version",
              "type": "uint256"
            },
            {
              "internalType": "uint256",
              "name": "timestamp",
              "type": "uint256"
            },
            {
              "internalType": "int256",
              "name": "price",
              "type": "int256"
            }
          ],
          "internalType": "struct IOracleProvider.OracleVersion",
          "name": "oracleVersion",
          "type": "tuple"
        }
      ],
      "stateMutability": "view",
      "type": "function"
    },
    {
      "inputs": [],
      "name": "currentVersion",
      "outputs": [
        {
          "components": [
            {
              "internalType": "uint256",
              "name": "version",
              "type": "uint256"
            },
            {
              "internalType": "uint256",
              "name": "timestamp",
              "type": "uint256"
            },
            {
              "internalType": "int256",
              "name": "price",
              "type": "int256"
            }
          ],
          "internalType": "struct IOracleProvider.OracleVersion",
          "name": "oracleVersion",
          "type": "tuple"
        }
      ],
      "stateMutability": "view",
      "type": "function"
    },
    {
      "inputs": [],
      "name": "description",
      "outputs": [
        {
          "internalType": "string",
          "name": "",
          "type": "string"
        }
      ],
      "stateMutability": "view",
      "type": "function"
    },
    {
      "inputs": [],
      "name": "extraModule",
      "outputs": [
        {
          "internalType": "enum ExtraModule",
          "name": "",
          "type": "uint8"
        }
      ],
      "stateMutability": "pure",
      "type": "function"
    },
    {
      "inputs": [],
      "name": "extraParam",
      "outputs": [
        {
          "internalType": "bytes",
          "name": "",
          "type": "bytes"
        }
      ],
      "stateMutability": "view",
      "type": "function"
    },
    {
      "inputs": [
        {
          "internalType": "bytes",
          "name": "offchainData",
          "type": "bytes"
        }
      ],
      "name": "getUpdateFee",
      "outputs": [
        {
          "internalType": "uint256",
          "name": "",
          "type": "uint256"
        }
      ],
      "stateMutability": "view",
      "type": "function"
    },
    {
      "inputs": [],
      "name": "lastSyncedVersion",
      "outputs": [
        {
          "components": [
            {
              "internalType": "uint256",
              "name": "version",
              "type": "uint256"
            },
            {
              "internalType": "uint256",
              "name": "timestamp",
              "type": "uint256"
            },
            {
              "internalType": "int256",
              "name": "price",
              "type": "int256"
            }
          ],
          "internalType": "struct IOracleProvider.OracleVersion",
          "name": "",
          "type": "tuple"
        }
      ],
      "stateMutability": "view",
      "type": "function"
    },
    {
      "inputs": [],
      "name": "oracleProviderName",
      "outputs": [
        {
          "internalType": "string",
          "name": "",
          "type": "string"
        }
      ],
      "stateMutability": "pure",
      "type": "function"
    },
    {
      "inputs": [
        {
          "internalType": "bytes",
          "name": "extraData",
          "type": "bytes"
        }
      ],
      "name": "parseExtraData",
      "outputs": [
        {
          "components": [
            {
              "internalType": "uint256",
              "name": "version",
              "type": "uint256"
            },
            {
              "internalType": "uint256",
              "name": "timestamp",
              "type": "uint256"
            },
            {
              "internalType": "int256",
              "name": "price",
              "type": "int256"
            }
          ],
          "internalType": "struct IOracleProvider.OracleVersion",
          "name": "",
          "type": "tuple"
        }
      ],
      "stateMutability": "view",
      "type": "function"
    },
    {
      "inputs": [],
      "name": "priceFeedId",
      "outputs": [
        {
          "internalType": "bytes32",
          "name": "",
          "type": "bytes32"
        }
      ],
      "stateMutability": "view",
      "type": "function"
    },
    {
      "inputs": [],
      "name": "pyth",
      "outputs": [
        {
          "internalType": "contract AbstractPyth",
          "name": "",
          "type": "address"
        }
      ],
      "stateMutability": "view",
      "type": "function"
    },
    {
      "inputs": [
        {
          "internalType": "bytes4",
          "name": "interfaceID",
          "type": "bytes4"
        }
      ],
      "name": "supportsInterface",
      "outputs": [
        {
          "internalType": "bool",
          "name": "",
          "type": "bool"
        }
      ],
      "stateMutability": "pure",
      "type": "function"
    },
    {
      "inputs": [],
      "name": "sync",
      "outputs": [
        {
          "components": [
            {
              "internalType": "uint256",
              "name": "version",
              "type": "uint256"
            },
            {
              "internalType": "uint256",
              "name": "timestamp",
              "type": "uint256"
            },
            {
              "internalType": "int256",
              "name": "price",
              "type": "int256"
            }
          ],
          "internalType": "struct IOracleProvider.OracleVersion",
          "name": "",
          "type": "tuple"
        }
      ],
      "stateMutability": "nonpayable",
      "type": "function"
    },
    {
      "inputs": [
        {
          "internalType": "bytes",
          "name": "offchainData",
          "type": "bytes"
        }
      ],
      "name": "updatePrice",
      "outputs": [],
      "stateMutability": "payable",
      "type": "function"
    },
    {
      "stateMutability": "payable",
      "type": "receive"
    }
  ],
  "transactionHash": "0x0e86ffd31f2e2aef0f5f94ec837183b1bf9ac97d22129763c1f70a447c1e5aee",
  "args": [
    "0x4374e5a8b9c22271e9eb878a2aa31de97df15daf",
    "0xe62df6c8b4a85fe1a67db44dc12de5db330f7ac66b72dc658afedf0f4a415b43",
    "BTC/USD"
  ],
  "numDeployments": 1,
  "solcInputHash": "2aae7d11b792fd8b95d0b7495e52965c",
  "bytecode": "0x60c06040523480156200001157600080fd5b5060405162001df238038062001df28339810160408190526200003491620003be565b6001600160a01b038316608081905260405163b5ec026160e01b81526004810184905263b5ec026190602401602060405180830381865afa1580156200007e573d6000803e3d6000fd5b505050506040513d601f19601f82011682018060405250810190620000a491906200049f565b620000c257604051631ec230d760e11b815260040160405180910390fd5b60a08290526000620000d5828262000552565b50620000e0620000ea565b505050506200086e565b6200010f60405180606001604052806000815260200160008152602001600081525090565b60805160a0516040516396834ad360e01b815260048101919091526000916001600160a01b0316906396834ad390602401608060405180830381865afa1580156200015e573d6000803e3d6000fd5b505050506040513d601f19601f820116820180604052508101906200018491906200061e565b6001805460009081526002602081815260409283902083516060808201865282548252958201549281018390529201549282019290925291830151929350909111156200021c57600160008154620001dc90620006d1565b90915550600154620001f090839062000256565b600180546000908152600260208181526040928390208551815590850151938101939093559201519101555b5050600180546000908152600260208181526040928390208351606081018552815481529481015491850191909152015490820152919050565b6200027b60405180606001604052806000815260200160008152602001600081525090565b604051806060016040528083815260200184606001518152602001620002b3856000015160070b8660400151620002be60201b60201c565b905290505b92915050565b600080620002d0600384900b62000339565b620002dd90600a620007ea565b905060008360030b1362000311576200030b816200030486670de0b6b3a764000062000352565b9062000367565b62000331565b62000331816200032a86670de0b6b3a764000062000352565b9062000352565b949350505050565b6000808212156200034e5781600003620002b8565b5090565b6000620003608284620007f8565b9392505050565b60006200036082846200082e565b634e487b7160e01b600052604160045260246000fd5b604051601f8201601f191681016001600160401b0381118282101715620003b657620003b662000375565b604052919050565b600080600060608486031215620003d457600080fd5b83516001600160a01b0381168114620003ec57600080fd5b60208581015160408701519295509350906001600160401b03808211156200041357600080fd5b818701915087601f8301126200042857600080fd5b8151818111156200043d576200043d62000375565b62000451601f8201601f191685016200038b565b915080825288848285010111156200046857600080fd5b60005b81811015620004885783810185015183820186015284016200046b565b506000848284010152508093505050509250925092565b600060208284031215620004b257600080fd5b815180151581146200036057600080fd5b600181811c90821680620004d857607f821691505b602082108103620004f957634e487b7160e01b600052602260045260246000fd5b50919050565b601f8211156200054d57600081815260208120601f850160051c81016020861015620005285750805b601f850160051c820191505b81811015620005495782815560010162000534565b5050505b505050565b81516001600160401b038111156200056e576200056e62000375565b62000586816200057f8454620004c3565b84620004ff565b602080601f831160018114620005be5760008415620005a55750858301515b600019600386901b1c1916600185901b17855562000549565b600085815260208120601f198616915b82811015620005ef57888601518255948401946001909101908401620005ce565b50858210156200060e5787850151600019600388901b60f8161c191681555b5050505050600190811b01905550565b6000608082840312156200063157600080fd5b604051608081016001600160401b03808211838310171562000657576200065762000375565b81604052845191508160070b82146200066f57600080fd5b90825260208401519080821682146200068757600080fd5b5060208201526040830151600381900b8114620006a357600080fd5b60408201526060928301519281019290925250919050565b634e487b7160e01b600052601160045260246000fd5b600060018201620006e657620006e6620006bb565b5060010190565b600181815b808511156200072e578160001904821115620007125762000712620006bb565b808516156200072057918102915b93841c9390800290620006f2565b509250929050565b6000826200074757506001620002b8565b816200075657506000620002b8565b81600181146200076f57600281146200077a576200079a565b6001915050620002b8565b60ff8411156200078e576200078e620006bb565b50506001821b620002b8565b5060208310610133831016604e8410600b8410161715620007bf575081810a620002b8565b620007cb8383620006ed565b8060001904821115620007e257620007e2620006bb565b029392505050565b600062000360838362000736565b80820260008212600160ff1b84141615620008175762000817620006bb565b8181058314821517620002b857620002b8620006bb565b6000826200084c57634e487b7160e01b600052601260045260246000fd5b600160ff1b821460001984141615620008695762000869620006bb565b500590565b60805160a05161152d620008c5600039600081816101670152818161021c0152818161090a0152610a650152600081816102f8015281816104c4015281816107f7015281816109330152610a8e015261152d6000f3fe6080604052600436106100d55760003560e01c80637ece075d116100795780639d888e86116100565780639d888e86146102b5578063f8fd6061146102ca578063f98d06f0146102e6578063fff6cae91461033f57005b80637ece075d1461026d578063870535bc1461028d5780638736ec47146102a257005b8063238e0a8a116100b2578063238e0a8a1461019757806325882087146101b757806365bf03d7146102065780637284e4161461025857005b806301ffc9a7146100de578063085d9ce8146101135780631999bb9e1461015557005b366100dc57005b005b3480156100ea57600080fd5b506100fe6100f9366004610d92565b610354565b60405190151581526020015b60405180910390f35b34801561011f57600080fd5b5061013361012e366004610dd4565b6103b0565b604080518251815260208084015190820152918101519082015260600161010a565b34801561016157600080fd5b506101897f000000000000000000000000000000000000000000000000000000000000000081565b60405190815260200161010a565b3480156101a357600080fd5b506101896101b2366004610dd4565b61042a565b3480156101c357600080fd5b5060408051808201909152600481527f707974680000000000000000000000000000000000000000000000000000000060208201525b60405161010a9190610eaa565b34801561021257600080fd5b506101f9604080517f0000000000000000000000000000000000000000000000000000000000000000602082015260609101604051602081830303815290604052905090565b34801561026457600080fd5b506101f9610542565b34801561027957600080fd5b50610133610288366004610ebd565b6105d4565b34801561029957600080fd5b50610133610631565b6100dc6102b0366004610dd4565b61068c565b3480156102c157600080fd5b506101336108be565b3480156102d657600080fd5b50600260405161010a9190610ed6565b3480156102f257600080fd5b5061031a7f000000000000000000000000000000000000000000000000000000000000000081565b60405173ffffffffffffffffffffffffffffffffffffffff909116815260200161010a565b34801561034b57600080fd5b50610133610a19565b60007fb6a22c2f000000000000000000000000000000000000000000000000000000007fffffffff00000000000000000000000000000000000000000000000000000000831614806103aa57506103aa82610bdb565b92915050565b6103d460405180606001604052806000815260200160008152602001600081525090565b60006103e08484610c70565b9050604051806060016040528060015460016103fc9190610f46565b815260200182600001518152602001610420836020015160070b8460400151610ca6565b9052949350505050565b604080516001808252818301909252600091829190816020015b60608152602001906001900390816104445790505090506104658484610c70565b606001518160008151811061047c5761047c610f88565b60209081029190910101526040517fd47eed4500000000000000000000000000000000000000000000000000000000815273ffffffffffffffffffffffffffffffffffffffff7f0000000000000000000000000000000000000000000000000000000000000000169063d47eed45906104f9908490600401610fb7565b602060405180830381865afa158015610516573d6000803e3d6000fd5b505050506040513d601f19601f8201168201806040525081019061053a9190611037565b949350505050565b60606000805461055190611050565b80601f016020809104026020016040519081016040528092919081815260200182805461057d90611050565b80156105ca5780601f1061059f576101008083540402835291602001916105ca565b820191906000526020600020905b8154815290600101906020018083116105ad57829003601f168201915b5050505050905090565b6105f860405180606001604052806000815260200160008152602001600081525090565b50600090815260026020818152604092839020835160608101855281548152600182015492810192909252909101549181019190915290565b61065560405180606001604052806000815260200160008152602001600081525090565b5060018054600090815260026020818152604092839020835160608101855281548152948101549185019190915201549082015290565b60006106988383610c70565b60608101518051602091820120600081815260039092526040909120549192509060ff16156107a457604051600090339034908381818185875af1925050503d8060008114610703576040519150601f19603f3d011682016040523d82523d6000602084013e610708565b606091505b505090508061079d576040517f08c379a000000000000000000000000000000000000000000000000000000000815260206004820152602160248201527f6f7261636c65207570646174652066656520726566756e642072656a6563746560448201527f6400000000000000000000000000000000000000000000000000000000000000606482015260840160405180910390fd5b5050505050565b604080516001808252818301909252600091816020015b60608152602001906001900390816107bb5790505090508260600151816000815181106107ea576107ea610f88565b60200260200101819052507f000000000000000000000000000000000000000000000000000000000000000073ffffffffffffffffffffffffffffffffffffffff1663ef9e5e2834836040518363ffffffff1660e01b815260040161084f9190610fb7565b6000604051808303818588803b15801561086857600080fd5b505af115801561087c573d6000803e3d6000fd5b505050600093845250506003602052506040902080547fffffffffffffffffffffffffffffffffffffffffffffffffffffffffffffff00166001179055505050565b6108e260405180606001604052806000815260200160008152602001600081525090565b6040517f96834ad30000000000000000000000000000000000000000000000000000000081527f000000000000000000000000000000000000000000000000000000000000000060048201526000907f000000000000000000000000000000000000000000000000000000000000000073ffffffffffffffffffffffffffffffffffffffff16906396834ad390602401608060405180830381865afa15801561098f573d6000803e3d6000fd5b505050506040513d601f19601f820116820180604052508101906109b3919061113c565b60018054600090815260026020818152604092839020835160608082018652825482529582015492810183905292015492820192909252918301519194509192501115610a1557610a12816001546001610a0d9190610f46565b610d0a565b91505b5090565b610a3d60405180606001604052806000815260200160008152602001600081525090565b6040517f96834ad30000000000000000000000000000000000000000000000000000000081527f000000000000000000000000000000000000000000000000000000000000000060048201526000907f000000000000000000000000000000000000000000000000000000000000000073ffffffffffffffffffffffffffffffffffffffff16906396834ad390602401608060405180830381865afa158015610aea573d6000803e3d6000fd5b505050506040513d601f19601f82011682018060405250810190610b0e919061113c565b600180546000908152600260208181526040928390208351606080820186528254825295820154928101839052920154928201929092529183015192935090911115610ba157600160008154610b63906111a9565b90915550600154610b75908390610d0a565b600180546000908152600260208181526040928390208551815590850151938101939093559201519101555b5050600180546000908152600260208181526040928390208351606081018552815481529481015491850191909152015490820152919050565b60007fffffffff0000000000000000000000000000000000000000000000000000000082167f01ffc9a70000000000000000000000000000000000000000000000000000000014806103aa5750507fffffffff00000000000000000000000000000000000000000000000000000000167f4bbc87a3000000000000000000000000000000000000000000000000000000001490565b6040805160808101825260008082526020820181905291810191909152606080820152610c9f828401846111e1565b9392505050565b600080610cb58360030b610d67565b610cc090600a611410565b905060008360030b13610cee57610ce981610ce386670de0b6b3a7640000610d7a565b90610d86565b61053a565b61053a81610d0486670de0b6b3a7640000610d7a565b90610d7a565b610d2e60405180606001604052806000815260200160008152602001600081525090565b604051806060016040528083815260200184606001518152602001610d5e856000015160070b8660400151610ca6565b90529392505050565b600080821215610a1557816000036103aa565b6000610c9f828461141c565b6000610c9f8284611468565b600060208284031215610da457600080fd5b81357fffffffff0000000000000000000000000000000000000000000000000000000081168114610c9f57600080fd5b60008060208385031215610de757600080fd5b823567ffffffffffffffff80821115610dff57600080fd5b818501915085601f830112610e1357600080fd5b813581811115610e2257600080fd5b866020828501011115610e3457600080fd5b60209290920196919550909350505050565b6000815180845260005b81811015610e6c57602081850181015186830182015201610e50565b5060006020828601015260207fffffffffffffffffffffffffffffffffffffffffffffffffffffffffffffffe0601f83011685010191505092915050565b602081526000610c9f6020830184610e46565b600060208284031215610ecf57600080fd5b5035919050565b6020810160038310610f11577f4e487b7100000000000000000000000000000000000000000000000000000000600052602160045260246000fd5b91905290565b7f4e487b7100000000000000000000000000000000000000000000000000000000600052601160045260246000fd5b808201808211156103aa576103aa610f17565b7f4e487b7100000000000000000000000000000000000000000000000000000000600052604160045260246000fd5b7f4e487b7100000000000000000000000000000000000000000000000000000000600052603260045260246000fd5b6000602080830181845280855180835260408601915060408160051b870101925083870160005b8281101561102a577fffffffffffffffffffffffffffffffffffffffffffffffffffffffffffffffc0888603018452611018858351610e46565b94509285019290850190600101610fde565b5092979650505050505050565b60006020828403121561104957600080fd5b5051919050565b600181811c9082168061106457607f821691505b60208210810361109d577f4e487b7100000000000000000000000000000000000000000000000000000000600052602260045260246000fd5b50919050565b6040516080810167ffffffffffffffff811182821017156110c6576110c6610f59565b60405290565b604051601f82017fffffffffffffffffffffffffffffffffffffffffffffffffffffffffffffffe016810167ffffffffffffffff8111828210171561111357611113610f59565b604052919050565b8060070b811461112a57600080fd5b50565b8060030b811461112a57600080fd5b60006080828403121561114e57600080fd5b6111566110a3565b82516111618161111b565b8152602083015167ffffffffffffffff8116811461117e57600080fd5b602082015260408301516111918161112d565b60408201526060928301519281019290925250919050565b60007fffffffffffffffffffffffffffffffffffffffffffffffffffffffffffffffff82036111da576111da610f17565b5060010190565b600060208083850312156111f457600080fd5b823567ffffffffffffffff8082111561120c57600080fd5b908401906080828703121561122057600080fd5b6112286110a3565b82358152838301356112398161111b565b81850152604083013561124b8161112d565b604082015260608301358281111561126257600080fd5b80840193505086601f84011261127757600080fd5b82358281111561128957611289610f59565b6112b9857fffffffffffffffffffffffffffffffffffffffffffffffffffffffffffffffe0601f840116016110cc565b925080835287858286010111156112cf57600080fd5b80858501868501376000908301909401939093526060830152509392505050565b600181815b8085111561134957817fffffffffffffffffffffffffffffffffffffffffffffffffffffffffffffffff0482111561132f5761132f610f17565b8085161561133c57918102915b93841c93908002906112f5565b509250929050565b600082611360575060016103aa565b8161136d575060006103aa565b8160018114611383576002811461138d576113a9565b60019150506103aa565b60ff84111561139e5761139e610f17565b50506001821b6103aa565b5060208310610133831016604e8410600b84101617156113cc575081810a6103aa565b6113d683836112f0565b807fffffffffffffffffffffffffffffffffffffffffffffffffffffffffffffffff0482111561140857611408610f17565b029392505050565b6000610c9f8383611351565b808202600082127f80000000000000000000000000000000000000000000000000000000000000008414161561145457611454610f17565b81810583148215176103aa576103aa610f17565b60008261149e577f4e487b7100000000000000000000000000000000000000000000000000000000600052601260045260246000fd5b7fffffffffffffffffffffffffffffffffffffffffffffffffffffffffffffffff83147f8000000000000000000000000000000000000000000000000000000000000000831416156114f2576114f2610f17565b50059056fea264697066735822122032cf424913c0a03dfb67c62934c039ae742febc789b9b803633baf63eaa0ecc564736f6c63430008130033",
  "devdoc": {
    "errors": {
      "InvalidOracleRound()": [
        {
          "details": "Error for invalid oracle round"
        }
      ]
    },
    "kind": "dev",
    "methods": {
      "atVersion(uint256)": {
        "params": {
          "version": "The version of which to lookup"
        },
        "returns": {
          "oracleVersion": "Oracle version at version `version`"
        }
      },
      "constructor": {
        "params": {
          "description_": "The description of the Oracle Provider('ETH/USD', 'BTC/USD'...)",
          "priceFeedId_": "The id of pyth price feed (https://pyth.network/developers/price-feed-ids#pyth-evm-mainnet)",
          "pyth_": "Pyth address (https://docs.pyth.network/documentation/pythnet-price-feeds/evm)"
        }
      },
      "currentVersion()": {
        "returns": {
          "oracleVersion": "Current oracle version"
        }
      },
      "description()": {
        "returns": {
          "_0": "A string representing the description of the Oracle Provider."
        }
      },
      "extraModule()": {
        "details": "Returns the type of automation module that the Keeper will execute, either \"None\" or \"Pyth\".",
        "returns": {
          "_0": "Automation module type, which can be \"None\" or \"Pyth\"."
        }
      },
      "extraParam()": {
        "details": "Retrieves the parameter needed to request data from the Keeper, e.g., the price feed ID in the case of Pyth integration.",
        "returns": {
          "_0": "Required parameter for Keeper requests as bytes"
        }
      },
      "getUpdateFee(bytes)": {
        "details": "Returns the fee required to update the Oracle Provider with the given off-chain data",
        "params": {
          "offchainData": "Off-chain data required for the update"
        },
        "returns": {
          "_0": "fee amount"
        }
      },
      "lastSyncedVersion()": {
        "details": "Retrieves the last synchronized oracle version",
        "returns": {
          "_0": "Last synchronized oracle version"
        }
      },
      "oracleProviderName()": {
        "returns": {
          "_0": "A string representing the name of the Oracle Provider."
        }
      },
      "parseExtraData(bytes)": {
        "details": "Parses the provided off-chain data received from the Keeper and returns an OracleVersion structure representing the parsed data",
        "params": {
          "extraData": "Off-chain data received from the Keeper"
        },
        "returns": {
          "_0": "Parsed OracleVersion structure"
        }
      },
      "sync()": {
        "details": "`sync` is expected to be called soon after a phase update occurs in the underlying proxy.      Phase updates should be detected using off-chain mechanism and should trigger a `sync` call      This is feasible in the short term due to how infrequent phase updates are, but phase update      and roundCount detection should eventually be implemented at the contract level.      Reverts if there is more than 1 phase to update in a single sync because we currently cannot      determine the startingRoundId for the intermediary phase.",
        "returns": {
          "_0": "The current oracle version after sync"
        }
      },
      "updatePrice(bytes)": {
        "details": "Updates the Oracle Provider with the provided off-chain data",
        "params": {
          "offchainData": "Off-chain data used for the update"
        }
      }
    },
    "stateVariables": {
      "_description": {
        "details": "The description of the Oracle Provider('ETH/USD', 'BTC/USD'...)"
      },
      "lastSyncedVersionIndex": {
        "details": "Last version index seen when `sync` was called"
      },
      "oracleVersions": {
        "details": "Mapping of version to OracleVersion"
      },
      "priceFeedId": {
        "details": "The id of pyth price feed (https://pyth.network/developers/price-feed-ids#pyth-evm-mainnet)"
      },
      "pyth": {
        "details": "Pyth address (https://docs.pyth.network/documentation/pythnet-price-feeds/evm)"
      },
      "updatedVaa": {
        "details": "Mapping of updateData(vaa) to version index"
      }
    },
    "version": 1
  },
  "userdoc": {
    "kind": "user",
    "methods": {
      "atVersion(uint256)": {
        "notice": "Returns the current oracle version"
      },
      "constructor": {
        "notice": "Initializes the contract state"
      },
      "currentVersion()": {
        "notice": "Returns the current oracle version"
      },
      "description()": {
        "notice": "Retrieves the description of the Oracle Provider."
      },
      "oracleProviderName()": {
        "notice": "Retrieves the name of the Oracle Provider."
      },
      "sync()": {
        "notice": "Checks for a new price and updates the internal phase annotation state accordingly"
      }
    },
    "version": 1
  },
  "storageLayout": {
    "storage": [
      {
        "astId": 34025,
        "contract": "contracts/oracle/PythFeedOracle.sol:PythFeedOracle",
        "label": "_description",
        "offset": 0,
        "slot": "0",
        "type": "t_string_storage"
      },
      {
        "astId": 34028,
        "contract": "contracts/oracle/PythFeedOracle.sol:PythFeedOracle",
        "label": "lastSyncedVersionIndex",
        "offset": 0,
        "slot": "1",
        "type": "t_uint256"
      },
      {
        "astId": 34034,
        "contract": "contracts/oracle/PythFeedOracle.sol:PythFeedOracle",
        "label": "oracleVersions",
        "offset": 0,
        "slot": "2",
        "type": "t_mapping(t_uint256,t_struct(OracleVersion)34824_storage)"
      },
      {
        "astId": 34039,
        "contract": "contracts/oracle/PythFeedOracle.sol:PythFeedOracle",
        "label": "updatedVaa",
        "offset": 0,
        "slot": "3",
        "type": "t_mapping(t_bytes32,t_bool)"
      }
    ],
    "types": {
      "t_bool": {
        "encoding": "inplace",
        "label": "bool",
        "numberOfBytes": "1"
      },
      "t_bytes32": {
        "encoding": "inplace",
        "label": "bytes32",
        "numberOfBytes": "32"
      },
      "t_int256": {
        "encoding": "inplace",
        "label": "int256",
        "numberOfBytes": "32"
      },
      "t_mapping(t_bytes32,t_bool)": {
        "encoding": "mapping",
        "key": "t_bytes32",
        "label": "mapping(bytes32 => bool)",
        "numberOfBytes": "32",
        "value": "t_bool"
      },
      "t_mapping(t_uint256,t_struct(OracleVersion)34824_storage)": {
        "encoding": "mapping",
        "key": "t_uint256",
        "label": "mapping(uint256 => struct IOracleProvider.OracleVersion)",
        "numberOfBytes": "32",
        "value": "t_struct(OracleVersion)34824_storage"
      },
      "t_string_storage": {
        "encoding": "bytes",
        "label": "string",
        "numberOfBytes": "32"
      },
      "t_struct(OracleVersion)34824_storage": {
        "encoding": "inplace",
        "label": "struct IOracleProvider.OracleVersion",
        "members": [
          {
            "astId": 34819,
            "contract": "contracts/oracle/PythFeedOracle.sol:PythFeedOracle",
            "label": "version",
            "offset": 0,
            "slot": "0",
            "type": "t_uint256"
          },
          {
            "astId": 34821,
            "contract": "contracts/oracle/PythFeedOracle.sol:PythFeedOracle",
            "label": "timestamp",
            "offset": 0,
            "slot": "1",
            "type": "t_uint256"
          },
          {
            "astId": 34823,
            "contract": "contracts/oracle/PythFeedOracle.sol:PythFeedOracle",
            "label": "price",
            "offset": 0,
            "slot": "2",
            "type": "t_int256"
          }
        ],
        "numberOfBytes": "96"
      },
      "t_uint256": {
        "encoding": "inplace",
        "label": "uint256",
        "numberOfBytes": "32"
      }
    }
  }
}