{
  "address": "0x71d0b93C426C6Fe02859D610157CC7A4Ae8a815B",
  "abi": [
    {
      "inputs": [],
      "name": "Empty",
      "type": "error"
    },
    {
      "inputs": [],
      "name": "InvalidLpReceiptAction",
      "type": "error"
    },
    {
      "inputs": [],
      "name": "InvalidTransferredTokenAmount",
      "type": "error"
    },
    {
      "inputs": [],
      "name": "NotClaimableLpReceipt",
      "type": "error"
    },
    {
      "inputs": [],
      "name": "NotExistLpReceipt",
      "type": "error"
    },
    {
      "inputs": [],
      "name": "NotWithdrawableLpReceipt",
      "type": "error"
    },
    {
      "inputs": [],
      "name": "OnlyAccessableByDao",
      "type": "error"
    },
    {
      "inputs": [],
      "name": "OnlyAccessableByLiquidator",
      "type": "error"
    },
    {
      "inputs": [],
      "name": "OnlyAccessableByVault",
      "type": "error"
    },
    {
      "inputs": [],
      "name": "OutOfBounds",
      "type": "error"
    },
    {
      "inputs": [],
      "name": "TooSmallAmount",
      "type": "error"
    },
    {
      "anonymous": false,
      "inputs": [
        {
          "components": [
            {
              "internalType": "uint256",
              "name": "id",
              "type": "uint256"
            },
            {
              "internalType": "uint256",
              "name": "oracleVersion",
              "type": "uint256"
            },
            {
              "internalType": "uint256",
              "name": "amount",
              "type": "uint256"
            },
            {
              "internalType": "address",
              "name": "recipient",
              "type": "address"
            },
            {
              "internalType": "enum LpAction",
              "name": "action",
              "type": "uint8"
            },
            {
              "internalType": "int16",
              "name": "tradingFeeRate",
              "type": "int16"
            }
          ],
          "indexed": false,
          "internalType": "struct LpReceipt",
          "name": "receipt",
          "type": "tuple"
        }
      ],
      "name": "AddLiquidity",
      "type": "event"
    },
    {
      "anonymous": false,
      "inputs": [
        {
          "components": [
            {
              "internalType": "uint256",
              "name": "id",
              "type": "uint256"
            },
            {
              "internalType": "uint256",
              "name": "oracleVersion",
              "type": "uint256"
            },
            {
              "internalType": "uint256",
              "name": "amount",
              "type": "uint256"
            },
            {
              "internalType": "address",
              "name": "recipient",
              "type": "address"
            },
            {
              "internalType": "enum LpAction",
              "name": "action",
              "type": "uint8"
            },
            {
              "internalType": "int16",
              "name": "tradingFeeRate",
              "type": "int16"
            }
          ],
          "indexed": false,
          "internalType": "struct LpReceipt[]",
          "name": "receipts",
          "type": "tuple[]"
        }
      ],
      "name": "AddLiquidityBatch",
      "type": "event"
    },
    {
      "anonymous": false,
      "inputs": [
        {
          "components": [
            {
              "internalType": "uint256",
              "name": "id",
              "type": "uint256"
            },
            {
              "internalType": "uint256",
              "name": "oracleVersion",
              "type": "uint256"
            },
            {
              "internalType": "uint256",
              "name": "amount",
              "type": "uint256"
            },
            {
              "internalType": "address",
              "name": "recipient",
              "type": "address"
            },
            {
              "internalType": "enum LpAction",
              "name": "action",
              "type": "uint8"
            },
            {
              "internalType": "int16",
              "name": "tradingFeeRate",
              "type": "int16"
            }
          ],
          "indexed": false,
          "internalType": "struct LpReceipt",
          "name": "receipt",
          "type": "tuple"
        },
        {
          "indexed": true,
          "internalType": "uint256",
          "name": "clbTokenAmount",
          "type": "uint256"
        }
      ],
      "name": "ClaimLiquidity",
      "type": "event"
    },
    {
      "anonymous": false,
      "inputs": [
        {
          "components": [
            {
              "internalType": "uint256",
              "name": "id",
              "type": "uint256"
            },
            {
              "internalType": "uint256",
              "name": "oracleVersion",
              "type": "uint256"
            },
            {
              "internalType": "uint256",
              "name": "amount",
              "type": "uint256"
            },
            {
              "internalType": "address",
              "name": "recipient",
              "type": "address"
            },
            {
              "internalType": "enum LpAction",
              "name": "action",
              "type": "uint8"
            },
            {
              "internalType": "int16",
              "name": "tradingFeeRate",
              "type": "int16"
            }
          ],
          "indexed": false,
          "internalType": "struct LpReceipt[]",
          "name": "receipts",
          "type": "tuple[]"
        },
        {
          "indexed": false,
          "internalType": "uint256[]",
          "name": "clbTokenAmounts",
          "type": "uint256[]"
        }
      ],
      "name": "ClaimLiquidityBatch",
      "type": "event"
    },
    {
      "anonymous": false,
      "inputs": [
        {
          "components": [
            {
              "internalType": "uint256",
              "name": "id",
              "type": "uint256"
            },
            {
              "internalType": "uint256",
              "name": "oracleVersion",
              "type": "uint256"
            },
            {
              "internalType": "uint256",
              "name": "amount",
              "type": "uint256"
            },
            {
              "internalType": "address",
              "name": "recipient",
              "type": "address"
            },
            {
              "internalType": "enum LpAction",
              "name": "action",
              "type": "uint8"
            },
            {
              "internalType": "int16",
              "name": "tradingFeeRate",
              "type": "int16"
            }
          ],
          "indexed": false,
          "internalType": "struct LpReceipt",
          "name": "receipt",
          "type": "tuple"
        }
      ],
      "name": "RemoveLiquidity",
      "type": "event"
    },
    {
      "anonymous": false,
      "inputs": [
        {
          "components": [
            {
              "internalType": "uint256",
              "name": "id",
              "type": "uint256"
            },
            {
              "internalType": "uint256",
              "name": "oracleVersion",
              "type": "uint256"
            },
            {
              "internalType": "uint256",
              "name": "amount",
              "type": "uint256"
            },
            {
              "internalType": "address",
              "name": "recipient",
              "type": "address"
            },
            {
              "internalType": "enum LpAction",
              "name": "action",
              "type": "uint8"
            },
            {
              "internalType": "int16",
              "name": "tradingFeeRate",
              "type": "int16"
            }
          ],
          "indexed": false,
          "internalType": "struct LpReceipt[]",
          "name": "receipts",
          "type": "tuple[]"
        }
      ],
      "name": "RemoveLiquidityBatch",
      "type": "event"
    },
    {
      "anonymous": false,
      "inputs": [
        {
          "components": [
            {
              "internalType": "uint256",
              "name": "id",
              "type": "uint256"
            },
            {
              "internalType": "uint256",
              "name": "oracleVersion",
              "type": "uint256"
            },
            {
              "internalType": "uint256",
              "name": "amount",
              "type": "uint256"
            },
            {
              "internalType": "address",
              "name": "recipient",
              "type": "address"
            },
            {
              "internalType": "enum LpAction",
              "name": "action",
              "type": "uint8"
            },
            {
              "internalType": "int16",
              "name": "tradingFeeRate",
              "type": "int16"
            }
          ],
          "indexed": false,
          "internalType": "struct LpReceipt",
          "name": "receipt",
          "type": "tuple"
        },
        {
          "indexed": true,
          "internalType": "uint256",
          "name": "amount",
          "type": "uint256"
        },
        {
          "indexed": true,
          "internalType": "uint256",
          "name": "burnedCLBTokenAmount",
          "type": "uint256"
        }
      ],
      "name": "WithdrawLiquidity",
      "type": "event"
    },
    {
      "anonymous": false,
      "inputs": [
        {
          "components": [
            {
              "internalType": "uint256",
              "name": "id",
              "type": "uint256"
            },
            {
              "internalType": "uint256",
              "name": "oracleVersion",
              "type": "uint256"
            },
            {
              "internalType": "uint256",
              "name": "amount",
              "type": "uint256"
            },
            {
              "internalType": "address",
              "name": "recipient",
              "type": "address"
            },
            {
              "internalType": "enum LpAction",
              "name": "action",
              "type": "uint8"
            },
            {
              "internalType": "int16",
              "name": "tradingFeeRate",
              "type": "int16"
            }
          ],
          "indexed": false,
          "internalType": "struct LpReceipt[]",
          "name": "receipts",
          "type": "tuple[]"
        },
        {
          "indexed": false,
          "internalType": "uint256[]",
          "name": "amounts",
          "type": "uint256[]"
        },
        {
          "indexed": false,
          "internalType": "uint256[]",
          "name": "burnedCLBTokenAmounts",
          "type": "uint256[]"
        }
      ],
      "name": "WithdrawLiquidityBatch",
      "type": "event"
    },
    {
      "inputs": [
        {
          "internalType": "address",
          "name": "recipient",
          "type": "address"
        },
        {
          "internalType": "int16",
          "name": "tradingFeeRate",
          "type": "int16"
        },
        {
          "internalType": "bytes",
          "name": "data",
          "type": "bytes"
        }
      ],
      "name": "addLiquidity",
      "outputs": [
        {
          "components": [
            {
              "internalType": "uint256",
              "name": "id",
              "type": "uint256"
            },
            {
              "internalType": "uint256",
              "name": "oracleVersion",
              "type": "uint256"
            },
            {
              "internalType": "uint256",
              "name": "amount",
              "type": "uint256"
            },
            {
              "internalType": "address",
              "name": "recipient",
              "type": "address"
            },
            {
              "internalType": "enum LpAction",
              "name": "action",
              "type": "uint8"
            },
            {
              "internalType": "int16",
              "name": "tradingFeeRate",
              "type": "int16"
            }
          ],
          "internalType": "struct LpReceipt",
          "name": "receipt",
          "type": "tuple"
        }
      ],
      "stateMutability": "nonpayable",
      "type": "function"
    },
    {
      "inputs": [
        {
          "internalType": "address",
          "name": "recipient",
          "type": "address"
        },
        {
          "internalType": "int16[]",
          "name": "tradingFeeRates",
          "type": "int16[]"
        },
        {
          "internalType": "uint256[]",
          "name": "amounts",
          "type": "uint256[]"
        },
        {
          "internalType": "bytes",
          "name": "data",
          "type": "bytes"
        }
      ],
      "name": "addLiquidityBatch",
      "outputs": [
        {
          "components": [
            {
              "internalType": "uint256",
              "name": "id",
              "type": "uint256"
            },
            {
              "internalType": "uint256",
              "name": "oracleVersion",
              "type": "uint256"
            },
            {
              "internalType": "uint256",
              "name": "amount",
              "type": "uint256"
            },
            {
              "internalType": "address",
              "name": "recipient",
              "type": "address"
            },
            {
              "internalType": "enum LpAction",
              "name": "action",
              "type": "uint8"
            },
            {
              "internalType": "int16",
              "name": "tradingFeeRate",
              "type": "int16"
            }
          ],
          "internalType": "struct LpReceipt[]",
          "name": "receipts",
          "type": "tuple[]"
        }
      ],
      "stateMutability": "nonpayable",
      "type": "function"
    },
    {
      "inputs": [
        {
          "internalType": "uint256",
          "name": "receiptId",
          "type": "uint256"
        },
        {
          "internalType": "bytes",
          "name": "data",
          "type": "bytes"
        }
      ],
      "name": "claimLiquidity",
      "outputs": [],
      "stateMutability": "nonpayable",
      "type": "function"
    },
    {
      "inputs": [
        {
          "internalType": "uint256[]",
          "name": "receiptIds",
          "type": "uint256[]"
        },
        {
          "internalType": "bytes",
          "name": "data",
          "type": "bytes"
        }
      ],
      "name": "claimLiquidityBatch",
      "outputs": [],
      "stateMutability": "nonpayable",
      "type": "function"
    },
    {
      "inputs": [
        {
          "internalType": "uint256",
          "name": "earning",
          "type": "uint256"
        },
        {
          "internalType": "uint256",
          "name": "marketBalance",
          "type": "uint256"
        }
      ],
      "name": "distributeEarningToBins",
      "outputs": [],
      "stateMutability": "nonpayable",
      "type": "function"
    },
    {
      "inputs": [
        {
          "internalType": "address",
          "name": "",
          "type": "address"
        },
        {
          "internalType": "address",
          "name": "",
          "type": "address"
        },
        {
          "internalType": "uint256[]",
          "name": "",
          "type": "uint256[]"
        },
        {
          "internalType": "uint256[]",
          "name": "",
          "type": "uint256[]"
        },
        {
          "internalType": "bytes",
          "name": "",
          "type": "bytes"
        }
      ],
      "name": "onERC1155BatchReceived",
      "outputs": [
        {
          "internalType": "bytes4",
          "name": "",
          "type": "bytes4"
        }
      ],
      "stateMutability": "pure",
      "type": "function"
    },
    {
      "inputs": [
        {
          "internalType": "address",
          "name": "",
          "type": "address"
        },
        {
          "internalType": "address",
          "name": "",
          "type": "address"
        },
        {
          "internalType": "uint256",
          "name": "",
          "type": "uint256"
        },
        {
          "internalType": "uint256",
          "name": "",
          "type": "uint256"
        },
        {
          "internalType": "bytes",
          "name": "",
          "type": "bytes"
        }
      ],
      "name": "onERC1155Received",
      "outputs": [
        {
          "internalType": "bytes4",
          "name": "",
          "type": "bytes4"
        }
      ],
      "stateMutability": "pure",
      "type": "function"
    },
    {
      "inputs": [
        {
          "internalType": "address",
          "name": "recipient",
          "type": "address"
        },
        {
          "internalType": "int16",
          "name": "tradingFeeRate",
          "type": "int16"
        },
        {
          "internalType": "bytes",
          "name": "data",
          "type": "bytes"
        }
      ],
      "name": "removeLiquidity",
      "outputs": [
        {
          "components": [
            {
              "internalType": "uint256",
              "name": "id",
              "type": "uint256"
            },
            {
              "internalType": "uint256",
              "name": "oracleVersion",
              "type": "uint256"
            },
            {
              "internalType": "uint256",
              "name": "amount",
              "type": "uint256"
            },
            {
              "internalType": "address",
              "name": "recipient",
              "type": "address"
            },
            {
              "internalType": "enum LpAction",
              "name": "action",
              "type": "uint8"
            },
            {
              "internalType": "int16",
              "name": "tradingFeeRate",
              "type": "int16"
            }
          ],
          "internalType": "struct LpReceipt",
          "name": "receipt",
          "type": "tuple"
        }
      ],
      "stateMutability": "nonpayable",
      "type": "function"
    },
    {
      "inputs": [
        {
          "internalType": "address",
          "name": "recipient",
          "type": "address"
        },
        {
          "internalType": "int16[]",
          "name": "tradingFeeRates",
          "type": "int16[]"
        },
        {
          "internalType": "uint256[]",
          "name": "clbTokenAmounts",
          "type": "uint256[]"
        },
        {
          "internalType": "bytes",
          "name": "data",
          "type": "bytes"
        }
      ],
      "name": "removeLiquidityBatch",
      "outputs": [
        {
          "components": [
            {
              "internalType": "uint256",
              "name": "id",
              "type": "uint256"
            },
            {
              "internalType": "uint256",
              "name": "oracleVersion",
              "type": "uint256"
            },
            {
              "internalType": "uint256",
              "name": "amount",
              "type": "uint256"
            },
            {
              "internalType": "address",
              "name": "recipient",
              "type": "address"
            },
            {
              "internalType": "enum LpAction",
              "name": "action",
              "type": "uint8"
            },
            {
              "internalType": "int16",
              "name": "tradingFeeRate",
              "type": "int16"
            }
          ],
          "internalType": "struct LpReceipt[]",
          "name": "receipts",
          "type": "tuple[]"
        }
      ],
      "stateMutability": "nonpayable",
      "type": "function"
    },
    {
      "inputs": [
        {
          "internalType": "bytes4",
          "name": "interfaceID",
          "type": "bytes4"
        }
      ],
      "name": "supportsInterface",
      "outputs": [
        {
          "internalType": "bool",
          "name": "",
          "type": "bool"
        }
      ],
      "stateMutability": "pure",
      "type": "function"
    },
    {
      "inputs": [
        {
          "internalType": "uint256",
          "name": "receiptId",
          "type": "uint256"
        },
        {
          "internalType": "bytes",
          "name": "data",
          "type": "bytes"
        }
      ],
      "name": "withdrawLiquidity",
      "outputs": [],
      "stateMutability": "nonpayable",
      "type": "function"
    },
    {
      "inputs": [
        {
          "internalType": "uint256[]",
          "name": "receiptIds",
          "type": "uint256[]"
        },
        {
          "internalType": "bytes",
          "name": "data",
          "type": "bytes"
        }
      ],
      "name": "withdrawLiquidityBatch",
      "outputs": [],
      "stateMutability": "nonpayable",
      "type": "function"
    }
  ],
  "transactionHash": "0x0457694a23ec53f7b9a73b6a76d2bbe2127a7c92d492c3b7c00f3bcf3c329c33",
  "args": [],
  "numDeployments": 2,
  "solcInputHash": "3d7f38cb2c529a79a4313c54eb2c807d",
  "bytecode": "0x608060405234801561001057600080fd5b5060016000556157be80620000266000396000f3fe608060405234801561001057600080fd5b50600436106100d35760003560e01c80638c4bdb3f11610081578063b9d3e6971161005b578063b9d3e697146101b4578063bc197c81146101c7578063f23a6e611461023357600080fd5b80638c4bdb3f1461016e578063abfefb901461018e578063b21837e0146101a157600080fd5b806328700ad2116100b257806328700ad21461012857806328b5bd1e14610148578063766e1b171461015b57600080fd5b80623fb653146100d857806301ffc9a7146100ed57806311753f7614610115575b600080fd5b6100eb6100e63660046149f7565b61026c565b005b6101006100fb366004614a63565b6105f3565b60405190151581526020015b60405180910390f35b6100eb610123366004614aa5565b61068c565b61013b610136366004614b15565b6107e5565b60405161010c9190614cbb565b6100eb610156366004614cce565b610a18565b61013b610169366004614b15565b610aba565b61018161017c366004614d02565b610c4c565b60405161010c9190614d57565b6100eb61019c366004614aa5565b610ef9565b6101816101af366004614d02565b611046565b6100eb6101c23660046149f7565b61132a565b6102026101d5366004614d65565b7fbc197c810000000000000000000000000000000000000000000000000000000098975050505050505050565b6040517fffffffff00000000000000000000000000000000000000000000000000000000909116815260200161010c565b610202610241366004614e20565b7ff23a6e61000000000000000000000000000000000000000000000000000000009695505050505050565b610274611491565b7f02954dff85197d438345422dfe525d02fbd6a12c9028d5d8c7ab5386d34713307f492a974aed1be5cd7fa4ce3b0cfab809a1de17af5ade68dd0729b36f2ed0979360006102c182611509565b90506102cc8161167e565b60008667ffffffffffffffff8111156102e7576102e7614e98565b60405190808252806020026020018201604052801561032057816020015b61030d6148ed565b8152602001906001900390816103055790505b50905060008767ffffffffffffffff81111561033e5761033e614e98565b604051908082528060200260200182016040528015610367578160200160208202803683370190505b50905060008867ffffffffffffffff81111561038557610385614e98565b6040519080825280602002602001820160405280156103ae578160200160208202803683370190505b50905060008967ffffffffffffffff8111156103cc576103cc614e98565b6040519080825280602002602001820160405280156103f5578160200160208202803683370190505b50905060005b8a8110156104ec5761042a8689896007018f8f8681811061041e5761041e614ec7565b905060200201356116fb565b86838151811061043c5761043c614ec7565b6020026020010184848151811061045557610455614ec7565b6020026020010182815250829052505084818151811061047757610477614ec7565b602002602001015160a0015184828151811061049557610495614ec7565b602002602001019060010b908160010b815250508481815181106104bb576104bb614ec7565b6020026020010151604001518382815181106104d9576104d9614ec7565b60209081029190910101526001016103fb565b503373ffffffffffffffffffffffffffffffffffffffff1663f120bc4d8c8c8686868f8f6040518863ffffffff1660e01b81526004016105329796959493929190614f6f565b600060405180830381600087803b15801561054c57600080fd5b505af1158015610560573d6000803e3d6000fd5b505050506105a38b8b808060200260200160405190810160405280939291908181526020018383602002808284376000920191909152508b9392505061187f9050565b7f22875dbbffa39e131ff65b9db59941f128c02bb4ae1912cd52d0d790fbf2f70d84826040516105d492919061504b565b60405180910390a1505050505050506105ed6001600055565b50505050565b60007fffffffff0000000000000000000000000000000000000000000000000000000082167f01ffc9a700000000000000000000000000000000000000000000000000000000148061068657507fffffffff0000000000000000000000000000000000000000000000000000000082167f4e2312e000000000000000000000000000000000000000000000000000000000145b92915050565b610694611491565b7f02954dff85197d438345422dfe525d02fbd6a12c9028d5d8c7ab5386d34713307f492a974aed1be5cd7fa4ce3b0cfab809a1de17af5ade68dd0729b36f2ed0979360006106e182611509565b90506106ec8161167e565b60008060006107008487876007018c611901565b60a08301516040517fc73fc7290000000000000000000000000000000000000000000000000000000081529396509194509250339163c73fc72991610752918d9190879087908f908f90600401615070565b600060405180830381600087803b15801561076c57600080fd5b505af1158015610780573d6000803e3d6000fd5b505050506107978987611b1c90919063ffffffff16565b80827fc1ccfe14e3d70f169361003a5b4802b32ed89bcde54a8dbf9322e148107ade27856040516107c89190614d57565b60405180910390a35050505050506107e06001600055565b505050565b60606107ef611491565b8584146107fb57600080fd5b7f492a974aed1be5cd7fa4ce3b0cfab809a1de17af5ade68dd0729b36f2ed097937f492a974aed1be5cd7fa4ce3b0cfab809a1de17af5ade68dd0729b36f2ed0979a600061084883611509565b90506108538161167e565b6000610862828a8a8a8a611b66565b60408381015160a085015191517f113217fc00000000000000000000000000000000000000000000000000000000815273ffffffffffffffffffffffffffffffffffffffff928316600482015260248101849052929350169063113217fc90604401600060405180830381600087803b1580156108de57600080fd5b505af11580156108f2573d6000803e3d6000fd5b508c9250505067ffffffffffffffff81111561091057610910614e98565b60405190808252806020026020018201604052801561094957816020015b6109366148ed565b81526020019060019003908161092e5790505b50945060005b8a8110156109c7576109a283858f8f8f8681811061096f5761096f614ec7565b9050602002016020810190610984919061509f565b8e8e8781811061099657610996614ec7565b90506020020135611d9d565b8682815181106109b4576109b4614ec7565b602090810291909101015260010161094f565b507f5a82a9516046d00f570c5d19514b049f319fff6fb10e1b6b202cef82cba45d86856040516109f79190614cbb565b60405180910390a150505050610a0d6001600055565b979650505050505050565b7f492a974aed1be5cd7fa4ce3b0cfab809a1de17af5ade68dd0729b36f2ed097936005015473ffffffffffffffffffffffffffffffffffffffff163314610a8b576040517f6c7e0fa500000000000000000000000000000000000000000000000000000000815260040160405180910390fd5b610ab67f492a974aed1be5cd7fa4ce3b0cfab809a1de17af5ade68dd0729b36f2ed0979a8383611df4565b5050565b6060610ac4611491565b858414610ad057600080fd5b7f492a974aed1be5cd7fa4ce3b0cfab809a1de17af5ade68dd0729b36f2ed097937f492a974aed1be5cd7fa4ce3b0cfab809a1de17af5ade68dd0729b36f2ed0979a6000610b1d83611509565b9050610b288161167e565b610b37818b8b8b8b8b8b611e6e565b8867ffffffffffffffff811115610b5057610b50614e98565b604051908082528060200260200182016040528015610b8957816020015b610b766148ed565b815260200190600190039081610b6e5790505b50935060005b89811015610c0757610be282848e8e8e86818110610baf57610baf614ec7565b9050602002016020810190610bc4919061509f565b8d8d87818110610bd657610bd6614ec7565b90506020020135612236565b858281518110610bf457610bf4614ec7565b6020908102919091010152600101610b8f565b507f02b5d0edb5105e66367cbe2a09b5a2bf0070d5d90f9c39e1d583605c401903dd84604051610c379190614cbb565b60405180910390a1505050610a0d6001600055565b610c546148ed565b610c5c611491565b7f492a974aed1be5cd7fa4ce3b0cfab809a1de17af5ade68dd0729b36f2ed097936000610c8882611509565b9050610c938161167e565b6000610c9e87612258565b60608301516040517efdd58e0000000000000000000000000000000000000000000000000000000081523060048201526024810183905291925060009173ffffffffffffffffffffffffffffffffffffffff9091169062fdd58e90604401602060405180830381865afa158015610d19573d6000803e3d6000fd5b505050506040513d601f19601f82011682018060405250810190610d3d91906150ba565b60608401516040517f5a80e0800000000000000000000000000000000000000000000000000000000081529192503391635a80e08091610d859186908c908c906004016150d3565b600060405180830381600087803b158015610d9f57600080fd5b505af1158015610db3573d6000803e3d6000fd5b50505060608401516040517efdd58e0000000000000000000000000000000000000000000000000000000081523060048201526024810185905260009250839173ffffffffffffffffffffffffffffffffffffffff169062fdd58e90604401602060405180830381865afa158015610e2f573d6000803e3d6000fd5b505050506040513d601f19601f82011682018060405250810190610e5391906150ba565b610e5d9190615138565b905080600003610e99576040517f22313ae900000000000000000000000000000000000000000000000000000000815260040160405180910390fd5b610ea984866007018c8c85612236565b95507fc069ad7785923447a16c7076f192be05f20f7a3bfc86f34cde112985dc5a532e86604051610eda9190614d57565b60405180910390a15050505050610ef16001600055565b949350505050565b610f01611491565b7f02954dff85197d438345422dfe525d02fbd6a12c9028d5d8c7ab5386d34713307f492a974aed1be5cd7fa4ce3b0cfab809a1de17af5ade68dd0729b36f2ed097936000610f4e82611509565b9050610f598161167e565b600080610f6b8386866007018b6116fb565b915091503373ffffffffffffffffffffffffffffffffffffffff16633068e794898460a001518560400151858c8c6040518763ffffffff1660e01b8152600401610fba96959493929190615070565b600060405180830381600087803b158015610fd457600080fd5b505af1158015610fe8573d6000803e3d6000fd5b50505050610fff8886611b1c90919063ffffffff16565b807ff9fd7f21b2563662ef2017bde6ec398623746e8492ffb0eabbf4e1f2cd1642508360405161102f9190614d57565b60405180910390a250505050506107e06001600055565b61104e6148ed565b611056611491565b7f492a974aed1be5cd7fa4ce3b0cfab809a1de17af5ade68dd0729b36f2ed09793600061108282611509565b905061108d8161167e565b60a081015160408083015190517f70a0823100000000000000000000000000000000000000000000000000000000815273ffffffffffffffffffffffffffffffffffffffff8083166004830152600091908416906370a0823190602401602060405180830381865afa158015611107573d6000803e3d6000fd5b505050506040513d601f19601f8201168201806040525081019061112b91906150ba565b6040517f970d1d6f000000000000000000000000000000000000000000000000000000008152909150339063970d1d6f9061117090869086908d908d9060040161514b565b600060405180830381600087803b15801561118a57600080fd5b505af115801561119e573d6000803e3d6000fd5b50506040517f70a0823100000000000000000000000000000000000000000000000000000000815273ffffffffffffffffffffffffffffffffffffffff8581166004830152600093508492508616906370a0823190602401602060405180830381865afa158015611213573d6000803e3d6000fd5b505050506040513d601f19601f8201168201806040525081019061123791906150ba565b6112419190615138565b60a08601516040517f113217fc00000000000000000000000000000000000000000000000000000000815273ffffffffffffffffffffffffffffffffffffffff91821660048201526024810183905291925084169063113217fc90604401600060405180830381600087803b1580156112b957600080fd5b505af11580156112cd573d6000803e3d6000fd5b505050506112e185876007018d8d85611d9d565b96507f63bd6e249680e9ee813c9849b8d012c8aa96ede228ad3a776cecbbc380e7477d876040516113129190614d57565b60405180910390a1505050505050610ef16001600055565b611332611491565b7f02954dff85197d438345422dfe525d02fbd6a12c9028d5d8c7ab5386d34713307f492a974aed1be5cd7fa4ce3b0cfab809a1de17af5ade68dd0729b36f2ed09793600061137f82611509565b905061138a8161167e565b6000806000806113a08588886007018e8e612286565b93509350935093503373ffffffffffffffffffffffffffffffffffffffff1663d2419e238c8c8686868f8f6040518863ffffffff1660e01b81526004016113ed9796959493929190614f6f565b600060405180830381600087803b15801561140757600080fd5b505af115801561141b573d6000803e3d6000fd5b5050505061145e8b8b808060200260200160405190810160405280939291908181526020018383602002808284376000920191909152508b9392505061187f9050565b7fe69c861767c66cb9b7afe76377494517c4770a517e36613806121c143f4587478483836040516105d493929190615185565b600260005403611502576040517f08c379a000000000000000000000000000000000000000000000000000000000815260206004820152601f60248201527f5265656e7472616e637947756172643a207265656e7472616e742063616c6c0060448201526064015b60405180910390fd5b6002600055565b61156460408051610100810182526000808252602080830182905282840182905260608084018390526080840183905260a0840183905260c0840183905284519081018552828152908101829052928301529060e082015290565b61158860405180606001604052806000815260200160008152602001600081525090565b6040805161010081018252600185015473ffffffffffffffffffffffffffffffffffffffff9081168252855481166020808401919091526005870154821683850152600387015482166060840152306080840152600287015490911660a0830181905283517f313ce5670000000000000000000000000000000000000000000000000000000081529351929360c0850193919263313ce567926004808401938290030181865afa158015611640573d6000803e3d6000fd5b505050506040513d601f19601f8201168201806040525081019061166491906151be565b61166f90600a615301565b81526020019190915292915050565b806000015173ffffffffffffffffffffffffffffffffffffffff1663fff6cae96040518163ffffffff1660e01b81526004016060604051808303816000875af11580156116cf573d6000803e3d6000fd5b505050506040513d601f19601f820116820180604052508101906116f3919061535f565b60e090910152565b6117036148ed565b600061170f858461248a565b915060008260800151600181111561172957611729614bc0565b14611760576040517f35c67ed100000000000000000000000000000000000000000000000000000000815260040160405180910390fd5b60208201516117709087906124da565b6117a6576040517fd54b668800000000000000000000000000000000000000000000000000000000815260040160405180910390fd5b60a0820151604083015160208401516117c29287928a926124f9565b9050801561187657856060015173ffffffffffffffffffffffffffffffffffffffff1663f242432a3084606001516117f98661252b565b604080516020810182526000815290517fffffffff0000000000000000000000000000000000000000000000000000000060e087901b16815261184394939291889160040161541f565b600060405180830381600087803b15801561185d57600080fd5b505af1158015611871573d6000803e3d6000fd5b505050505b94509492505050565b60005b81518110156107e0578260010160008383815181106118a3576118a3614ec7565b602090810291909101810151825281019190915260400160009081208181556001808201839055600282019290925560030180547fffffffffffffffffff000000000000000000000000000000000000000000000016905501611882565b6119096148ed565b600080611916868561248a565b925060018360800151600181111561193057611930614bc0565b14611967576040517f35c67ed100000000000000000000000000000000000000000000000000000000815260040160405180910390fd5b60208301516119779088906124da565b6119ad576040517fcc93170c00000000000000000000000000000000000000000000000000000000815260040160405180910390fd5b6060830151604084015160a085015160208601516119d19189918c9190859061253a565b909450925082811115611a7657886060015173ffffffffffffffffffffffffffffffffffffffff1663f242432a3084611a098961252b565b611a138887615138565b604051806020016040528060008152506040518663ffffffff1660e01b8152600401611a4395949392919061541f565b600060405180830381600087803b158015611a5d57600080fd5b505af1158015611a71573d6000803e3d6000fd5b505050505b6040808a015160a08b015191517fd02f1b3000000000000000000000000000000000000000000000000000000000815273ffffffffffffffffffffffffffffffffffffffff928316600482015284831660248201526044810187905291169063d02f1b3090606401600060405180830381600087803b158015611af857600080fd5b505af1158015611b0c573d6000803e3d6000fd5b5050505050509450945094915050565b6000908152600191820160205260408120818155918201819055600282015560030180547fffffffffffffffffff0000000000000000000000000000000000000000000000169055565b6000805b84811015611ba057858582818110611b8457611b84614ec7565b9050602002013582611b969190615464565b9150600101611b6a565b5060a086015160408088015190517f70a0823100000000000000000000000000000000000000000000000000000000815273ffffffffffffffffffffffffffffffffffffffff8083166004830152600091908416906370a0823190602401602060405180830381865afa158015611c1b573d6000803e3d6000fd5b505050506040513d601f19601f82011682018060405250810190611c3f91906150ba565b6040517fd0d063c0000000000000000000000000000000000000000000000000000000008152909150339063d0d063c090611c8490869086908b908b9060040161514b565b600060405180830381600087803b158015611c9e57600080fd5b505af1158015611cb2573d6000803e3d6000fd5b50506040517f70a0823100000000000000000000000000000000000000000000000000000000815273ffffffffffffffffffffffffffffffffffffffff8581166004830152600093508492508616906370a0823190602401602060405180830381865afa158015611d27573d6000803e3d6000fd5b505050506040513d601f19601f82011682018060405250810190611d4b91906150ba565b611d559190615138565b9050848114611d90576040517fa5bde9fe00000000000000000000000000000000000000000000000000000000815260040160405180910390fd5b5050505095945050505050565b611da56148ed565b611db185878585612571565b611dbf86600084878761259c565b9050611deb7f02954dff85197d438345422dfe525d02fbd6a12c9028d5d8c7ab5386d34713308261263e565b95945050505050565b81816000611e0061276b565b9050611e2f868484847f4c000000000000000000000000000000000000000000000000000000000000006128a7565b9093509150611e64600187018484847f53000000000000000000000000000000000000000000000000000000000000006128a7565b5050505050505050565b60008567ffffffffffffffff811115611e8957611e89614e98565b604051908082528060200260200182016040528015611eb2578160200160208202803683370190505b50905060008667ffffffffffffffff811115611ed057611ed0614e98565b604051908082528060200260200182016040528015611ef9578160200160208202803683370190505b50905060005b87811015611fa85730838281518110611f1a57611f1a614ec7565b602002602001019073ffffffffffffffffffffffffffffffffffffffff16908173ffffffffffffffffffffffffffffffffffffffff1681525050611f83898983818110611f6957611f69614ec7565b9050602002016020810190611f7e919061509f565b612258565b828281518110611f9557611f95614ec7565b6020908102919091010152600101611eff565b5060608901516040517f4e1273f400000000000000000000000000000000000000000000000000000000815260009173ffffffffffffffffffffffffffffffffffffffff1690634e1273f4906120049086908690600401615477565b600060405180830381865afa158015612021573d6000803e3d6000fd5b505050506040513d6000823e601f3d9081017fffffffffffffffffffffffffffffffffffffffffffffffffffffffffffffffe016820160405261206791908101906154da565b60608b01516040517fe921b5c2000000000000000000000000000000000000000000000000000000008152919250339163e921b5c2916120af9186908a908a90600401615574565b600060405180830381600087803b1580156120c957600080fd5b505af11580156120dd573d6000803e3d6000fd5b5050505060008a6060015173ffffffffffffffffffffffffffffffffffffffff16634e1273f485856040518363ffffffff1660e01b8152600401612122929190615477565b600060405180830381865afa15801561213f573d6000803e3d6000fd5b505050506040513d6000823e601f3d9081017fffffffffffffffffffffffffffffffffffffffffffffffffffffffffffffffe016820160405261218591908101906154da565b905060005b89811015612228578281815181106121a4576121a4614ec7565b60200260200101518282815181106121be576121be614ec7565b60200260200101516121d09190615138565b8989838181106121e2576121e2614ec7565b9050602002013514612220576040517fa5bde9fe00000000000000000000000000000000000000000000000000000000815260040160405180910390fd5b60010161218a565b505050505050505050505050565b61223e6148ed565b61224a858785856129aa565b611dbf86600184878761259c565b6000600182900b811261227f8161227757612272846155b6565b612279565b835b826129cd565b9392505050565b60608080808467ffffffffffffffff8111156122a4576122a4614e98565b6040519080825280602002602001820160405280156122dd57816020015b6122ca6148ed565b8152602001906001900390816122c25790505b5093508467ffffffffffffffff8111156122f9576122f9614e98565b604051908082528060200260200182016040528015612322578160200160208202803683370190505b5092508467ffffffffffffffff81111561233e5761233e614e98565b604051908082528060200260200182016040528015612367578160200160208202803683370190505b5091508467ffffffffffffffff81111561238357612383614e98565b6040519080825280602002602001820160405280156123ac578160200160208202803683370190505b50905060005b8581101561247d576123de8a8a8a8a8a868181106123d2576123d2614ec7565b90506020020135611901565b8784815181106123f0576123f0614ec7565b6020026020010186858151811061240957612409614ec7565b6020026020010186868151811061242257612422614ec7565b60200260200101838152508381525083905250505084818151811061244957612449614ec7565b602002602001015160a0015184828151811061246757612467614ec7565b600192830b6020918202929092010152016123b2565b5095509550955095915050565b6124926148ed565b61249c83836129f5565b8051909150600003610686576040517fc47b348000000000000000000000000000000000000000000000000000000000815260040160405180910390fd5b6000811580159061227f57506124ef83612acc565b5182109392505050565b60008361250581612b7e565b60006125118887612c47565b905061251f81888787612ca4565b98975050505050505050565b60006106868260a00151612258565b6000808461254781612b7e565b60006125538988612c47565b905061256181898888612cc0565b909a909950975050505050505050565b8161257b81612b7e565b60006125878685612c47565b9050612594818685612cec565b505050505050565b6125a46148ed565b6040518060c001604052806125de6125d97f02954dff85197d438345422dfe525d02fbd6a12c9028d5d8c7ab5386d347133090565b612d11565b81526020016125ec88612acc565b5181526020810186905273ffffffffffffffffffffffffffffffffffffffff8516604082015260600186600181111561262757612627614bc0565b81526020018360010b815250905095945050505050565b8051600090815260018084016020908152604092839020845181559084015181830155918301516002830155606083015160038301805473ffffffffffffffffffffffffffffffffffffffff9092167fffffffffffffffffffffffff0000000000000000000000000000000000000000831681178255608086015186959490937fffffffffffffffffffffff00000000000000000000000000000000000000000016909117907401000000000000000000000000000000000000000090849081111561270c5761270c614bc0565b021790555060a091909101516003909101805461ffff9092167501000000000000000000000000000000000000000000027fffffffffffffffffff0000ffffffffffffffffffffffffffffffffffffffffff9092169190911790555050565b61277361494a565b50604080516104808101825260018152600260208201526003918101919091526004606082015260056080820152600660a0820152600760c0820152600860e08201526009610100820152600a6101208201526014610140820152601e610160820152602861018082015260326101a0820152603c6101c082015260466101e08201526050610200820152605a610220820152606461024082015260c861026082015261012c6102808201526101906102a08201526101f46102c08201526102586102e08201526102bc610300820152610320808201526103846103408201526103e86103608201526105dc6103808201526107d06103a08201526109c46103c0820152610bb86103e0820152610dac610400820152610fa061042082015261119461044082015261138861046082015290565b838360005b602481101561299f5760008582602481106128c9576128c9614ec7565b6020908102919091015161ffff81166000908152918b905260408220909250906128f4826001015490565b905080600003612909575050506001016128ac565b6000612916878388612d2f565b90506129228382612e58565b61292c8287615138565b95506129388188615138565b965080887effffffffffffffffffffffffffffffffffffffffffffffffffffffffffffff19168561ffff167f870c522a03c4b7d56f32ecd79bbf7ef4a6f74564d7157172198ff5d97b40450c60405160405180910390a45050600190920191506128ac9050565b509550959350505050565b816129b481612b7e565b60006129c08685612c47565b9050612594818685612e78565b6000816129ec576129e76402540be40061ffff8516615464565b61227f565b505061ffff1690565b6129fd6148ed565b600082815260018481016020908152604092839020835160c081018552815481528184015492810192909252600281015493820193909352600383015473ffffffffffffffffffffffffffffffffffffffff81166060830152909291608084019174010000000000000000000000000000000000000000900460ff1690811115612a8957612a89614bc0565b6001811115612a9a57612a9a614bc0565b8152600391909101547501000000000000000000000000000000000000000000900460010b6020909101529392505050565b612af060405180606001604052806000815260200160008152602001600081525090565b60e082015151600003612b7657816000015173ffffffffffffffffffffffffffffffffffffffff16639d888e866040518163ffffffff1660e01b8152600401606060405180830381865afa158015612b4c573d6000803e3d6000fd5b505050506040513d601f19601f82011682018060405250810190612b70919061535f565b60e08301525b5060e0015190565b6000612b8861276b565b90506000612b9583612e9d565b90506000612ba38383612eb8565b9050602481108015612bd25750828160248110612bc257612bc2614ec7565b602002015161ffff168261ffff16145b6040518060400160405280600481526020017f555446520000000000000000000000000000000000000000000000000000000081525090612c40576040517f08c379a00000000000000000000000000000000000000000000000000000000081526004016114f991906155f4565b5050505050565b6000808260010b12612c7a57826000612c5f84612e9d565b61ffff1661ffff16815260200190815260200160002061227f565b826001016000612c8984612e9d565b61ffff16815260208101919091526040016000209392505050565b60008484612cb28282612f75565b610a0d6001880186866130a5565b6000808585612ccf8282612f75565b612cdd600189018787613159565b90999098509650505050505050565b8282612cf88282612f75565b612c4083612d0586612acc565b5160018801919061325a565b60008160000160008154612d2490615607565b918290555092915050565b600080807fffffffffffffffffffffffffffffffffffffffffffffffffffffffffffffffff85870985870292508281108382030391505080600003612d8757838281612d7d57612d7d61563f565b049250505061227f565b808411612df0576040517f08c379a000000000000000000000000000000000000000000000000000000000815260206004820152601560248201527f4d6174683a206d756c446976206f766572666c6f77000000000000000000000060448201526064016114f9565b600084868809600260036001881981018916988990049182028318808302840302808302840302808302840302808302840302808302840302918202909203026000889003889004909101858311909403939093029303949094049190911702949350505050565b80826001016000016000828254612e6f9190615464565b90915550505050565b8282612e848282612f75565b612c4083612e9186612acc565b51600188019190613374565b6000808260010b12612eaf5781610686565b610686826155b6565b60008060245b80821015612f16576000612ed28383613412565b90508461ffff16868260248110612eeb57612eeb614ec7565b602002015161ffff161115612f0257809150612f10565b612f0d816001615464565b92505b50612ebe565b8115801590612f4c575061ffff841685612f31600185615138565b60248110612f4157612f41614ec7565b602002015161ffff16145b15612f6557612f5c600183615138565b92505050610686565b509050610686565b505092915050565b612f82601583018261342d565b612f8f6009830182613573565b612f9c6001830182613689565b15610ab6576000612fad83836137b8565b835460608401516040517fbd85b03900000000000000000000000000000000000000000000000000000000815260048101839052929350909160009173ffffffffffffffffffffffffffffffffffffffff169063bd85b03990602401602060405180830381865afa158015613026573d6000803e3d6000fd5b505050506040513d601f19601f8201168201806040525081019061304a91906150ba565b9050600061305785612acc565b516040805180820182528681526020808201868152600085815260238c0190925292902090518155905160019091015590506125948585613097896138dc565b60018a01929190878761390f565b600081815260048401602090815260408083208151808301909252805480835260019091015492820183905290916130df91869190612d2f565b915081816020018181516130f39190615138565b905250805184908290613107908390615138565b905250805160000361312f576000838152600486016020526040812081815560010155613151565b6000838152600486016020908152604090912082518155908201516001909101555b509392505050565b6000818152600584016020908152604080832081516060810183528154808252600183015494820194909452600290910154918101829052839290916131a191879190612d2f565b602082015182519194506131b791879190612d2f565b915081816020018181516131cb9190615138565b9052506040810180518491906131e2908390615138565b9052508051859082906131f6908390615138565b905250805160000361322557600084815260058701602052604081208181556001810182905560020155613251565b600084815260058701602090815260409182902083518155908301516001820155908201516002909101555b50935093915050565b60408051808201909152600381527f545341000000000000000000000000000000000000000000000000000000000060208201526103e883116132ca576040517f08c379a00000000000000000000000000000000000000000000000000000000081526004016114f991906155f4565b5060018301548015806132dc57508181145b6040518060400160405280600381526020017f494f5600000000000000000000000000000000000000000000000000000000008152509061334a576040517f08c379a00000000000000000000000000000000000000000000000000000000081526004016114f991906155f4565b5060018401829055600284018054849190600090613369908490615464565b909155505050505050565b600183015480158061338557508181145b6040518060400160405280600381526020017f494f560000000000000000000000000000000000000000000000000000000000815250906133f3576040517f08c379a00000000000000000000000000000000000000000000000000000000081526004016114f991906155f4565b5060018401829055600384018054849190600090613369908490615464565b6000613421600284841861566e565b61227f90848416615464565b600282015461343c82826124da565b61344557505050565b60408051608081018252600385015481526004850154602082015260058501549181019190915260068401546060820152835461348990600c860190859042613b5d565b80604001518460000160008282546134a19190615464565b909155505060608101516001850180546000906134bf908490615464565b909155506134d290506009850183613b9f565b506000828152600b850160209081526040918290208351815590830151600182015590820151600280830191909155606083015160039092019190915561351b90850184613bab565b6008840154600d85018054600090613534908490615464565b90915550506000600285018190556003850181905560048501819055600585018190556006850181905560078501819055600890940193909355505050565b600482015461358282826124da565b61358b57505050565b60028301546135a190600a850190849042613b5d565b60058301548354819085906000906135ba9084906156a9565b909155506135d69050816135d16004870186613bc1565b613bda565b8460010160008282546135e99190615464565b90915550506006840154600285018054600090613607908490615464565b90915550506007840154600385018054600090613625908490615464565b9091555061363890506004850184613bf9565b6009840154600b85018054600090613651908490615464565b909155505060006004850181905560058501819055600685018190556007850181905560088501819055600990940193909355505050565b60005b6006830154600f81810b700100000000000000000000000000000000909204900b131561374c5760006136c184600601613c0f565b60008181526005860160209081526040918290208251606081018452815480825260018301549382018490526002909201549381019390935292935090911161373e5761371085600601613c89565b508051600003613739576000828152600586016020526040812081815560018101829055600201555b613745565b505061374c565b505061368c565b60006137768460060154600f81810b700100000000000000000000000000000000909204900b0390565b111561378457506001610686565b60018301546137949083906124da565b6137a057506000610686565b600283015415158061227f5750505060030154151590565b6000806137c86009850184613d46565b905060006137d582613e27565b905060006137e4866001015490565b905060008084126137fe576137f98383615464565b613808565b6138088383615138565b604080880151608089015160a08a015192517f4e82c4b700000000000000000000000000000000000000000000000000000000815273ffffffffffffffffffffffffffffffffffffffff91821660048201529281166024840152604483018690529293509190911690634e82c4b790606401602060405180830381865afa158015613897573d6000803e3d6000fd5b505050506040513d601f19601f820116820180604052508101906138bb91906150ba565b6138c86015890188613e3e565b6138d29083615464565b610a0d9190615464565b60006138ea82601501613e61565b6138f683600901613e74565b60018401546139059190615138565b6106869190615138565b60008061391e88888886613e8a565b909250905060008061393b8a613934868a615464565b8a88613fd1565b91509150818311156139df57886060015173ffffffffffffffffffffffffffffffffffffffff1663731133e98a608001518885876139799190615138565b604051806020016040528060008152506040518563ffffffff1660e01b81526004016139a894939291906156c9565b600060405180830381600087803b1580156139c257600080fd5b505af11580156139d6573d6000803e3d6000fd5b50505050613aa5565b81831015613aa557886060015173ffffffffffffffffffffffffffffffffffffffff1663f5298aca8a60800151888686613a199190615138565b6040517fffffffff0000000000000000000000000000000000000000000000000000000060e086901b16815273ffffffffffffffffffffffffffffffffffffffff909316600484015260248301919091526044820152606401600060405180830381600087803b158015613a8c57600080fd5b505af1158015613aa0573d6000803e3d6000fd5b505050505b83151580613ab257508015155b15613b51576040808a015160a08b015191517f8b41411700000000000000000000000000000000000000000000000000000000815273ffffffffffffffffffffffffffffffffffffffff92831660048201526024810187905260448101849052911690638b41411790606401600060405180830381600087803b158015613b3857600080fd5b505af1158015613b4c573d6000803e3d6000fd5b505050505b50505050505050505050565b8354808211613b6c57506105ed565b8215613b9757613b7e8484838561411b565b856001016000828254613b919190615464565b90915550505b509092555050565b600061227f83836141ed565b6003820154610ab6906005840190839042613b5d565b8051825460009161227f91613bd585612acc565b61423c565b600061227f82670de0b6b3a7640000613bf286613e27565b9190612d2f565b6002820154610ab6906004840190839042613b5d565b6000613c378254600f81810b700100000000000000000000000000000000909204900b131590565b15613c6e576040517f3db2a12a00000000000000000000000000000000000000000000000000000000815260040160405180910390fd5b508054600f0b60009081526001909101602052604090205490565b6000613cb18254600f81810b700100000000000000000000000000000000909204900b131590565b15613ce8576040517f3db2a12a00000000000000000000000000000000000000000000000000000000815260040160405180910390fd5b508054600f0b6000818152600180840160205260408220805492905583547fffffffffffffffffffffffffffffffff000000000000000000000000000000001692016fffffffffffffffffffffffffffffffff169190911790915590565b600080613d5283612acc565b845490915060008115613da1576000613d82670de0b6b3a7640000613d7685613e27565b60018a01549190612d2f565b90506000613d8f85614372565b9050613d9c8483836143f7565b925050505b6000613db5613db088886144af565b6144c8565b613dc2600489018861457a565b613dcc90846156a9565b613dd691906156a9565b90506000613de382613e27565b905060008212613e0e57613e02613db082613dfd8b61463e565b614654565b95505050505050610686565b613e1e613db082613dfd8b613e74565b613e0290615704565b600080821215613e3a5781600003610686565b5090565b6000613e4d600284018361466a565b613e578484614683565b61227f9190615464565b6005810154815460009161068691615464565b6006810154600282015460009161068691615464565b60018401546000908190613e9e86826124da565b613eaf576000809250925050611876565b600287015460038801549093508315613f1857613ecd848787614699565b925083886000016000828254613ee39190615464565b90915550506040805180820182528581526020808201868152600086815260048d019092529290209051815590516001909101555b8015613fb15760068801805470010000000000000000000000000000000090819004600f0b600081815260078c016020526040902085905582546fffffffffffffffffffffffffffffffff908116600190920116909102179055604080516060810182528281526000602080830182815283850183815287845260058e0190925293909120915182559151600182015590516002909101555b505060006001870181905560028701819055600387015594509492505050565b6000806000613ffe8760060154600f81810b700100000000000000000000000000000000909204900b0390565b905060005b818110801561401157508615155b156140f557600061402560068a01836146cd565b600081815260058b016020526040812060018101548154939450909261404b9190615138565b905080156140ea57600080614061838c8c614764565b9050808c106140725782915061408e565b61407d8c8c8c614699565b915082821061408b57600080fd5b508a5b818460010160008282546140a29190615464565b92505081905550808460020160008282546140bd9190615464565b909155506140cd9050828a615464565b98506140d98189615464565b97506140e5818d615138565b9b5050505b505050600101614003565b508187600001600082825461410a9190615138565b925050819055505094509492505050565b600083158061412a5750818310155b6141e257602085015160a08601516040517f705b170e00000000000000000000000000000000000000000000000000000000815273ffffffffffffffffffffffffffffffffffffffff918216600482015260248101879052604481018690526064810185905291169063705b170e90608401602060405180830381865afa1580156141b9573d6000803e3d6000fd5b505050506040513d601f19601f820116820180604052508101906141dd91906150ba565b611deb565b600095945050505050565b600081815260018301602052604081205461423457508154600181810184556000848152602080822090930184905584548482528286019093526040902091909155610686565b506000610686565b60008061424884614781565b835160408051808201909152600381527f555350000000000000000000000000000000000000000000000000000000000060208201529192508211156142bb576040517f08c379a00000000000000000000000000000000000000000000000000000000081526004016114f991906155f4565b508251600090821461435b576040517f7ece075d0000000000000000000000000000000000000000000000000000000081526004810183905273ffffffffffffffffffffffffffffffffffffffff871690637ece075d90602401606060405180830381865afa158015614332573d6000803e3d6000fd5b505050506040513d601f19601f82011682018060405250810190614356919061535f565b61435d565b835b905061436881614372565b9695505050505050565b6000808260400151136040518060400160405280600381526020017f4e50500000000000000000000000000000000000000000000000000000000000815250906143e9576040517f08c379a00000000000000000000000000000000000000000000000000000000081526004016114f991906155f4565b506106868260400151613e27565b600083158061440557508183145b156144125750600061227f565b600083831161443657614428613db08486615138565b61443190615704565b614443565b614443613db08585615138565b9050600085121561447b576144787fffffffffffffffffffffffffffffffffffffffffffffffffffffffffffffffff8261573c565b90505b6000614496613db061448c84613e27565b87613bf28a613e27565b9050600082126144a65780614368565b61436881615704565b600282015460009061227f90600a8501908490426147fc565b60007f7fffffffffffffffffffffffffffffffffffffffffffffffffffffffffffffff821115613e3a576040517f08c379a000000000000000000000000000000000000000000000000000000000815260206004820152602860248201527f53616665436173743a2076616c756520646f65736e27742066697420696e206160448201527f6e20696e7432353600000000000000000000000000000000000000000000000060648201526084016114f9565b815460009061458983826124da565b614597576000915050610686565b60006145a284612acc565b905060006145b8856000015184613bd588612acc565b905060006145c583614372565b905060006145d6613db0898961483b565b6145e5896001015485856143f7565b6145ef91906156a9565b905060006145fc82613e27565b90506000821261462457614617613db0828b60030154614654565b9650505050505050610686565b614635613db0828b60020154614654565b61461790615704565b6007810154600382015460009161068691615464565b6000818310614663578161227f565b5090919050565b600382015460009061227f9060058501908490426147fc565b815460009061227f90600c8501908490426147fc565b600081156146c5576146c0826103e885106146b457846146b8565b6103e85b869190612d2f565b610ef1565b509192915050565b6000806146f06146dc846144c8565b85546146eb9190600f0b6156a9565b614854565b84549091507001000000000000000000000000000000009004600f90810b9082900b12614749576040517fb4120f1400000000000000000000000000000000000000000000000000000000815260040160405180910390fd5b600f0b60009081526001939093016020525050604090205490565b60008115614777576146c0848484612d2f565b5060009392505050565b60408051808201909152600381527f494f5600000000000000000000000000000000000000000000000000000000006020820152600090826147f0576040517f08c379a00000000000000000000000000000000000000000000000000000000081526004016114f991906155f4565b50610686826001615464565b60008260000361480e57506000610ef1565b84546001860154818411614825579150610ef19050565b6148318686848761411b565b610a0d9082615464565b600282015460009061227f9060048501908490426147fc565b80600f81900b81146148e8576040517f08c379a000000000000000000000000000000000000000000000000000000000815260206004820152602760248201527f53616665436173743a2076616c756520646f65736e27742066697420696e203160448201527f323820626974730000000000000000000000000000000000000000000000000060648201526084016114f9565b919050565b6040518060c00160405280600081526020016000815260200160008152602001600073ffffffffffffffffffffffffffffffffffffffff1681526020016000600181111561493d5761493d614bc0565b8152600060209091015290565b6040518061048001604052806024906020820280368337509192915050565b60008083601f84011261497b57600080fd5b50813567ffffffffffffffff81111561499357600080fd5b6020830191508360208260051b85010111156149ae57600080fd5b9250929050565b60008083601f8401126149c757600080fd5b50813567ffffffffffffffff8111156149df57600080fd5b6020830191508360208285010111156149ae57600080fd5b60008060008060408587031215614a0d57600080fd5b843567ffffffffffffffff80821115614a2557600080fd5b614a3188838901614969565b90965094506020870135915080821115614a4a57600080fd5b50614a57878288016149b5565b95989497509550505050565b600060208284031215614a7557600080fd5b81357fffffffff000000000000000000000000000000000000000000000000000000008116811461227f57600080fd5b600080600060408486031215614aba57600080fd5b83359250602084013567ffffffffffffffff811115614ad857600080fd5b614ae4868287016149b5565b9497909650939450505050565b803573ffffffffffffffffffffffffffffffffffffffff811681146148e857600080fd5b60008060008060008060006080888a031215614b3057600080fd5b614b3988614af1565b9650602088013567ffffffffffffffff80821115614b5657600080fd5b614b628b838c01614969565b909850965060408a0135915080821115614b7b57600080fd5b614b878b838c01614969565b909650945060608a0135915080821115614ba057600080fd5b50614bad8a828b016149b5565b989b979a50959850939692959293505050565b7f4e487b7100000000000000000000000000000000000000000000000000000000600052602160045260246000fd5b80518252602081015160208301526040810151604083015273ffffffffffffffffffffffffffffffffffffffff6060820151166060830152608081015160028110614c63577f4e487b7100000000000000000000000000000000000000000000000000000000600052602160045260246000fd5b608083015260a09081015160010b910152565b600081518084526020808501945080840160005b83811015614cb057614c9d878351614bef565b60c0969096019590820190600101614c8a565b509495945050505050565b60208152600061227f6020830184614c76565b60008060408385031215614ce157600080fd5b50508035926020909101359150565b8035600181900b81146148e857600080fd5b60008060008060608587031215614d1857600080fd5b614d2185614af1565b9350614d2f60208601614cf0565b9250604085013567ffffffffffffffff811115614d4b57600080fd5b614a57878288016149b5565b60c081016106868284614bef565b60008060008060008060008060a0898b031215614d8157600080fd5b614d8a89614af1565b9750614d9860208a01614af1565b9650604089013567ffffffffffffffff80821115614db557600080fd5b614dc18c838d01614969565b909850965060608b0135915080821115614dda57600080fd5b614de68c838d01614969565b909650945060808b0135915080821115614dff57600080fd5b50614e0c8b828c016149b5565b999c989b5096995094979396929594505050565b60008060008060008060a08789031215614e3957600080fd5b614e4287614af1565b9550614e5060208801614af1565b94506040870135935060608701359250608087013567ffffffffffffffff811115614e7a57600080fd5b614e8689828a016149b5565b979a9699509497509295939492505050565b7f4e487b7100000000000000000000000000000000000000000000000000000000600052604160045260246000fd5b7f4e487b7100000000000000000000000000000000000000000000000000000000600052603260045260246000fd5b600081518084526020808501945080840160005b83811015614cb057815187529582019590820190600101614f0a565b8183528181602085013750600060208284010152600060207fffffffffffffffffffffffffffffffffffffffffffffffffffffffffffffffe0601f840116840101905092915050565b60a081528660a082015260007f07ffffffffffffffffffffffffffffffffffffffffffffffffffffffffffffff881115614fa857600080fd5b8760051b808a60c085013760c0908301838103820160208086019190915289519282018390528981019260009260e001905b80841015614ffe57845160010b825282820191508285019450600184019350614fda565b508581036040870152615011818b614ef6565b935050505082810360608401526150288187614ef6565b9050828103608084015261503d818587614f26565b9a9950505050505050505050565b60408152600061505e6040830185614c76565b8281036020840152611deb8185614ef6565b8681528560010b602082015284604082015283606082015260a06080820152600061251f60a083018486614f26565b6000602082840312156150b157600080fd5b61227f82614cf0565b6000602082840312156150cc57600080fd5b5051919050565b73ffffffffffffffffffffffffffffffffffffffff85168152836020820152606060408201526000614368606083018486614f26565b7f4e487b7100000000000000000000000000000000000000000000000000000000600052601160045260246000fd5b8181038181111561068657610686615109565b600073ffffffffffffffffffffffffffffffffffffffff808716835280861660208401525060606040830152614368606083018486614f26565b6060815260006151986060830186614c76565b82810360208401526151aa8186614ef6565b905082810360408401526143688185614ef6565b6000602082840312156151d057600080fd5b815160ff8116811461227f57600080fd5b600181815b8085111561523a57817fffffffffffffffffffffffffffffffffffffffffffffffffffffffffffffffff0482111561522057615220615109565b8085161561522d57918102915b93841c93908002906151e6565b509250929050565b60008261525157506001610686565b8161525e57506000610686565b8160018114615274576002811461527e5761529a565b6001915050610686565b60ff84111561528f5761528f615109565b50506001821b610686565b5060208310610133831016604e8410600b84101617156152bd575081810a610686565b6152c783836151e1565b807fffffffffffffffffffffffffffffffffffffffffffffffffffffffffffffffff048211156152f9576152f9615109565b029392505050565b600061227f60ff841683615242565b604051601f82017fffffffffffffffffffffffffffffffffffffffffffffffffffffffffffffffe016810167ffffffffffffffff8111828210171561535757615357614e98565b604052919050565b60006060828403121561537157600080fd5b6040516060810181811067ffffffffffffffff8211171561539457615394614e98565b80604052508251815260208301516020820152604083015160408201528091505092915050565b6000815180845260005b818110156153e1576020818501810151868301820152016153c5565b5060006020828601015260207fffffffffffffffffffffffffffffffffffffffffffffffffffffffffffffffe0601f83011685010191505092915050565b600073ffffffffffffffffffffffffffffffffffffffff808816835280871660208401525084604083015283606083015260a06080830152610a0d60a08301846153bb565b8082018082111561068657610686615109565b604080825283519082018190526000906020906060840190828701845b828110156154c657815173ffffffffffffffffffffffffffffffffffffffff1684529284019290840190600101615494565b505050838103828501526143688186614ef6565b600060208083850312156154ed57600080fd5b825167ffffffffffffffff8082111561550557600080fd5b818501915085601f83011261551957600080fd5b81518181111561552b5761552b614e98565b8060051b915061553c848301615310565b818152918301840191848101908884111561555657600080fd5b938501935b8385101561251f5784518252938501939085019061555b565b73ffffffffffffffffffffffffffffffffffffffff851681526060602082015260006155a36060830186614ef6565b8281036040840152610a0d818587614f26565b60008160010b7fffffffffffffffffffffffffffffffffffffffffffffffffffffffffffff800081036155eb576155eb615109565b60000392915050565b60208152600061227f60208301846153bb565b60007fffffffffffffffffffffffffffffffffffffffffffffffffffffffffffffffff820361563857615638615109565b5060010190565b7f4e487b7100000000000000000000000000000000000000000000000000000000600052601260045260246000fd5b6000826156a4577f4e487b7100000000000000000000000000000000000000000000000000000000600052601260045260246000fd5b500490565b8082018281126000831280158216821582161715612f6d57612f6d615109565b73ffffffffffffffffffffffffffffffffffffffff8516815283602082015282604082015260806060820152600061436860808301846153bb565b60007f8000000000000000000000000000000000000000000000000000000000000000820361573557615735615109565b5060000390565b808202600082127f80000000000000000000000000000000000000000000000000000000000000008414161561577457615774615109565b81810583148215176106865761068661510956fea26469706673582212205d72b4e9cd511f2c4379e5fe1659c548e0c5ea4fa6ccd012f8339118b89d6c8364736f6c63430008130033",
  "devdoc": {
    "details": "Contract for managing liquidity in a market.",
    "errors": {
      "Empty()": [
        {
          "details": "An operation (e.g. {front}) couldn't be completed due to the queue being empty."
        }
      ],
      "InvalidLpReceiptAction()": [
        {
          "details": "Throws an error indicating that the liquidity receipt action is invalid."
        }
      ],
      "InvalidTransferredTokenAmount()": [
        {
          "details": "Throws an error indicating that the transferred token amount is invalid.      This error is thrown when the transferred token amount does not match the expected amount."
        }
      ],
      "NotClaimableLpReceipt()": [
        {
          "details": "Throws an error indicating that the liquidity receipt is not claimable."
        }
      ],
      "NotExistLpReceipt()": [
        {
          "details": "Throws an error indicating that the specified liquidity receipt does not exist."
        }
      ],
      "NotWithdrawableLpReceipt()": [
        {
          "details": "Throws an error indicating that the liquidity receipt is not withdrawable."
        }
      ],
      "OnlyAccessableByDao()": [
        {
          "details": "Throws an error indicating that the caller is not the DAO."
        }
      ],
      "OnlyAccessableByLiquidator()": [
        {
          "details": "Throws an error indicating that the caller is not the chromatic liquidator contract."
        }
      ],
      "OnlyAccessableByVault()": [
        {
          "details": "Throws an error indicating that the caller is not the chromatch vault contract."
        }
      ],
      "OutOfBounds()": [
        {
          "details": "An operation (e.g. {at}) couldn't be completed due to an index being out of bounds."
        }
      ],
      "TooSmallAmount()": [
        {
          "details": "Throws an error indicating that the amount of liquidity is too small.      This error is thrown when attempting to remove liquidity with an amount of zero."
        }
      ]
    },
    "events": {
      "AddLiquidity((uint256,uint256,uint256,address,uint8,int16))": {
        "details": "Emitted when liquidity is added to the market.",
        "params": {
          "receipt": "The liquidity receipt."
        }
      },
      "AddLiquidityBatch((uint256,uint256,uint256,address,uint8,int16)[])": {
        "details": "Emitted when liquidity is added to the market.",
        "params": {
          "receipts": "An array of LP receipts."
        }
      },
      "ClaimLiquidity((uint256,uint256,uint256,address,uint8,int16),uint256)": {
        "details": "Emitted when liquidity is claimed from the market.",
        "params": {
          "clbTokenAmount": "The amount of CLB tokens claimed.",
          "receipt": "The liquidity receipt."
        }
      },
      "ClaimLiquidityBatch((uint256,uint256,uint256,address,uint8,int16)[],uint256[])": {
        "details": "Emitted when liquidity is claimed from the market.",
        "params": {
          "clbTokenAmounts": "The amount list of CLB tokens claimed.",
          "receipts": "An array of LP receipts."
        }
      },
      "RemoveLiquidity((uint256,uint256,uint256,address,uint8,int16))": {
        "details": "Emitted when liquidity is removed from the market.",
        "params": {
          "receipt": "The liquidity receipt."
        }
      },
      "RemoveLiquidityBatch((uint256,uint256,uint256,address,uint8,int16)[])": {
        "details": "Emitted when liquidity is removed from the market.",
        "params": {
          "receipts": "An array of LP receipts."
        }
      },
      "WithdrawLiquidity((uint256,uint256,uint256,address,uint8,int16),uint256,uint256)": {
        "details": "Emitted when liquidity is withdrawn from the market.",
        "params": {
          "amount": "The amount of liquidity withdrawn.",
          "burnedCLBTokenAmount": "The amount of burned CLB tokens.",
          "receipt": "The liquidity receipt."
        }
      },
      "WithdrawLiquidityBatch((uint256,uint256,uint256,address,uint8,int16)[],uint256[],uint256[])": {
        "details": "Emitted when liquidity is withdrawn from the market.",
        "params": {
          "amounts": "The amount list of liquidity withdrawn.",
          "burnedCLBTokenAmounts": "The amount list of burned CLB tokens.",
          "receipts": "An array of LP receipts."
        }
      }
    },
    "kind": "dev",
    "methods": {
      "addLiquidity(address,int16,bytes)": {
        "details": "Adds liquidity to the market.",
        "params": {
          "data": "Additional data for the liquidity callback.",
          "recipient": "The address to receive the liquidity tokens.",
          "tradingFeeRate": "The trading fee rate for the liquidity."
        },
        "returns": {
          "receipt": "The liquidity receipt."
        }
      },
      "addLiquidityBatch(address,int16[],uint256[],bytes)": {
        "details": "Throws an `InvalidTransferredTokenAmount` error if the transferred amount does not match the sum of amounts param.",
        "params": {
          "amounts": "An array of amounts to add as liquidity for each bin.",
          "data": "Additional data for the liquidity callback.",
          "recipient": "The address of the recipient for each liquidity bin.",
          "tradingFeeRates": "An array of fee rates for each liquidity bin."
        },
        "returns": {
          "receipts": "An array of LP receipts."
        }
      },
      "claimLiquidity(uint256,bytes)": {
        "details": "Throws a `NotExistLpReceipt` error if the liquidity receipt does not exist.      Throws an `InvalidLpReceiptAction` error if the action of liquidity receipt is not `ADD_LIQUIDITY`.      Throws a `NotClaimableLpReceipt` error if the liquidity receipt is not claimable in the current oracle version.",
        "params": {
          "data": "Additional data for the liquidity callback.",
          "receiptId": "The ID of the liquidity receipt."
        }
      },
      "claimLiquidityBatch(uint256[],bytes)": {
        "details": "Throws a `NotExistLpReceipt` error if the liquidity receipt does not exist.      Throws an `InvalidLpReceiptAction` error if the action of liquidity receipt is not `ADD_LIQUIDITY`.      Throws a `NotClaimableLpReceipt` error if the liquidity receipt is not claimable in the current oracle version.",
        "params": {
          "data": "Additional data for the liquidity callback.",
          "receiptIds": "The array of the liquidity receipt IDs."
        }
      },
      "distributeEarningToBins(uint256,uint256)": {
        "details": "Distributes earning to the liquidity bins.",
        "params": {
          "earning": "The amount of earning to distribute.",
          "marketBalance": "The balance of the market."
        }
      },
      "onERC1155BatchReceived(address,address,uint256[],uint256[],bytes)": {
        "details": "Handles the receipt of a multiple ERC1155 token types. This function is called at the end of a `safeBatchTransferFrom` after the balances have been updated. NOTE: To accept the transfer(s), this must return `bytes4(keccak256(\"onERC1155BatchReceived(address,address,uint256[],uint256[],bytes)\"))` (i.e. 0xbc197c81, or its own function selector).",
        "params": {
          "data": "Additional data with no specified format",
          "from": "The address which previously owned the token",
          "ids": "An array containing ids of each token being transferred (order and length must match values array)",
          "operator": "The address which initiated the batch transfer (i.e. msg.sender)",
          "values": "An array containing amounts of each token being transferred (order and length must match ids array)"
        },
        "returns": {
          "_0": "`bytes4(keccak256(\"onERC1155BatchReceived(address,address,uint256[],uint256[],bytes)\"))` if transfer is allowed"
        }
      },
      "onERC1155Received(address,address,uint256,uint256,bytes)": {
        "details": "Handles the receipt of a single ERC1155 token type. This function is called at the end of a `safeTransferFrom` after the balance has been updated. NOTE: To accept the transfer, this must return `bytes4(keccak256(\"onERC1155Received(address,address,uint256,uint256,bytes)\"))` (i.e. 0xf23a6e61, or its own function selector).",
        "params": {
          "data": "Additional data with no specified format",
          "from": "The address which previously owned the token",
          "id": "The ID of the token being transferred",
          "operator": "The address which initiated the transfer (i.e. msg.sender)",
          "value": "The amount of tokens being transferred"
        },
        "returns": {
          "_0": "`bytes4(keccak256(\"onERC1155Received(address,address,uint256,uint256,bytes)\"))` if transfer is allowed"
        }
      },
      "removeLiquidity(address,int16,bytes)": {
        "details": "This function is called by the liquidity provider to remove their liquidity from the market.      The liquidity provider must have previously added liquidity to the market.      Throws a `TooSmallAmount` error if the CLB tokne amount of liquidity to be removed is zero.",
        "params": {
          "data": "Additional data for the liquidity callback.",
          "recipient": "The address to receive the removed liquidity.",
          "tradingFeeRate": "The trading fee rate for the liquidity."
        },
        "returns": {
          "receipt": "The liquidity receipt."
        }
      },
      "removeLiquidityBatch(address,int16[],uint256[],bytes)": {
        "details": "Throws an `InvalidTransferredTokenAmount` error if the transferred CLB token amount does not match the expected amount (clbTokenAmounts param).",
        "params": {
          "clbTokenAmounts": "An array of clb token amounts to remove as liquidity for each bin.",
          "data": "Additional data for the liquidity callback.",
          "recipient": "The address to receive the removed liquidity.",
          "tradingFeeRates": "An array of fee rates for each liquidity bin."
        },
        "returns": {
          "receipts": "The liquidity receipt."
        }
      },
      "supportsInterface(bytes4)": {
        "details": "Returns true if this contract implements the interface defined by `interfaceId`. See the corresponding https://eips.ethereum.org/EIPS/eip-165#how-interfaces-are-identified[EIP section] to learn more about how these ids are created. This function call must use less than 30 000 gas."
      },
      "withdrawLiquidity(uint256,bytes)": {
        "details": "Throws a `NotExistLpReceipt` error if the liquidity receipt does not exist.      Throws an `InvalidLpReceiptAction` error if the action of liquidity receipt is not `REMOVE_LIQUIDITY`.      Throws a `NotWithdrawableLpReceipt` error if the liquidity receipt is not withdrawable in the current oracle version.",
        "params": {
          "data": "Additional data for the liquidity callback.",
          "receiptId": "The ID of the liquidity receipt."
        }
      },
      "withdrawLiquidityBatch(uint256[],bytes)": {
        "details": "Throws a `NotExistLpReceipt` error if the liquidity receipt does not exist.      Throws an `InvalidLpReceiptAction` error if the action of liquidity receipt is not `REMOVE_LIQUIDITY`.      Throws a `NotWithdrawableLpReceipt` error if the liquidity receipt is not withdrawable in the current oracle version.",
        "params": {
          "data": "Additional data for the liquidity callback.",
          "receiptIds": "The array of the liquidity receipt IDs."
        }
      }
    },
    "title": "MarketLiquidityFacet",
    "version": 1
  },
  "userdoc": {
    "kind": "user",
    "methods": {
      "addLiquidityBatch(address,int16[],uint256[],bytes)": {
        "notice": "Adds liquidity to multiple liquidity bins of the market in a batch."
      }
    },
    "version": 1
  },
  "storageLayout": {
    "storage": [
      {
        "astId": 128,
        "contract": "contracts/core/facets/market/MarketLiquidityFacet.sol:MarketLiquidityFacet",
        "label": "_status",
        "offset": 0,
        "slot": "0",
        "type": "t_uint256"
      }
    ],
    "types": {
      "t_uint256": {
        "encoding": "inplace",
        "label": "uint256",
        "numberOfBytes": "32"
      }
    }
  }
}