{
  "address": "0xE0187EaFA3872865A26cBf424A2341db7a84a759",
  "abi": [
    {
      "inputs": [
        {
          "internalType": "SupraSValueFeed",
          "name": "feed_",
          "type": "address"
        },
        {
          "internalType": "uint64",
          "name": "pairIndex_",
          "type": "uint64"
        },
        {
          "internalType": "string",
          "name": "description_",
          "type": "string"
        }
      ],
      "stateMutability": "nonpayable",
      "type": "constructor"
    },
    {
      "inputs": [],
      "name": "InvalidOracleRound",
      "type": "error"
    },
    {
      "inputs": [
        {
          "internalType": "uint256",
          "name": "version",
          "type": "uint256"
        }
      ],
      "name": "atVersion",
      "outputs": [
        {
          "components": [
            {
              "internalType": "uint256",
              "name": "version",
              "type": "uint256"
            },
            {
              "internalType": "uint256",
              "name": "timestamp",
              "type": "uint256"
            },
            {
              "internalType": "int256",
              "name": "price",
              "type": "int256"
            }
          ],
          "internalType": "struct IOracleProvider.OracleVersion",
          "name": "oracleVersion",
          "type": "tuple"
        }
      ],
      "stateMutability": "view",
      "type": "function"
    },
    {
      "inputs": [],
      "name": "currentVersion",
      "outputs": [
        {
          "components": [
            {
              "internalType": "uint256",
              "name": "version",
              "type": "uint256"
            },
            {
              "internalType": "uint256",
              "name": "timestamp",
              "type": "uint256"
            },
            {
              "internalType": "int256",
              "name": "price",
              "type": "int256"
            }
          ],
          "internalType": "struct IOracleProvider.OracleVersion",
          "name": "oracleVersion",
          "type": "tuple"
        }
      ],
      "stateMutability": "view",
      "type": "function"
    },
    {
      "inputs": [],
      "name": "description",
      "outputs": [
        {
          "internalType": "string",
          "name": "",
          "type": "string"
        }
      ],
      "stateMutability": "view",
      "type": "function"
    },
    {
      "inputs": [],
      "name": "feed",
      "outputs": [
        {
          "internalType": "SupraSValueFeed",
          "name": "",
          "type": "address"
        }
      ],
      "stateMutability": "view",
      "type": "function"
    },
    {
      "inputs": [],
      "name": "oracleProviderName",
      "outputs": [
        {
          "internalType": "string",
          "name": "",
          "type": "string"
        }
      ],
      "stateMutability": "pure",
      "type": "function"
    },
    {
      "inputs": [],
      "name": "pairIndex",
      "outputs": [
        {
          "internalType": "uint64",
          "name": "",
          "type": "uint64"
        }
      ],
      "stateMutability": "view",
      "type": "function"
    },
    {
      "inputs": [],
      "name": "sync",
      "outputs": [
        {
          "components": [
            {
              "internalType": "uint256",
              "name": "version",
              "type": "uint256"
            },
            {
              "internalType": "uint256",
              "name": "timestamp",
              "type": "uint256"
            },
            {
              "internalType": "int256",
              "name": "price",
              "type": "int256"
            }
          ],
          "internalType": "struct IOracleProvider.OracleVersion",
          "name": "oracleVersion",
          "type": "tuple"
        }
      ],
      "stateMutability": "nonpayable",
      "type": "function"
    }
  ],
  "transactionHash": "0x5fc0a9d9672022f1f8592f5c43105c1319df910a415808707797503700d3975c",
  "args": [
    "0x4Ce261C19af540f1175CdeB9E3490DC8937D78e5",
    "18",
    "BTC/USD"
  ],
  "numDeployments": 4,
  "solcInputHash": "3d7f38cb2c529a79a4313c54eb2c807d",
  "bytecode": "0x60c06040523480156200001157600080fd5b50604051620012643803806200126483398101604081905262000034916200038c565b6001600160a01b0383166080526001600160401b03821660a05260006200005c82826200052a565b506200006762000071565b50505050620007a7565b6200009660405180606001604052806000815260200160008152602001600081525090565b6000806000620000bd60a0516080516001600160a01b0316620001a560201b90919060201c565b9250925092506002600060015481526020019081526020016000206040518060600160405290816000820154815260200160018201548152602001600282015481525050935083602001518211156200019f576001805490600062000122836200060c565b9190505550604051806060016040528060015481526020018381526020016200016e85600a62000153919062000725565b6200016785670de0b6b3a7640000620002f4565b906200030b565b9052600180546000908152600260208181526040928390208551815590850151938101939093559083015191015593505b50505090565b604051634c7c9d4b60e11b81526001600160401b038216600482015260009081908190819081906001600160a01b038816906398f93a96906024016040805180830381865afa158015620001fd573d6000803e3d6000fd5b505050506040513d601f19601f8201168201806040525081019062000223919062000733565b9150915080156200026f5760405162461bcd60e51b8152602060048201526011602482015270141c9a58d951995959139bdd115e1a5cdd607a1b60448201526064015b60405180910390fd5b6040805160ff60b885901c1660208201526200029d91015b60408051601f1981840301815291905262000319565b604080516001600160401b03607886901c166020820152919650620002c3910162000287565b604080516001600160601b03601886901c166020820152919550620002e9910162000287565b925050509250925092565b60006200030282846200076a565b90505b92915050565b600062000302828462000784565b600081516020146200036e5760405162461bcd60e51b815260206004820152601760248201527f6279746573206c656e677468206973206e6f742033322e000000000000000000604482015260640162000266565b506020015190565b634e487b7160e01b600052604160045260246000fd5b600080600060608486031215620003a257600080fd5b83516001600160a01b0381168114620003ba57600080fd5b602085810151919450906001600160401b038082168214620003db57600080fd5b604087015191945080821115620003f157600080fd5b818701915087601f8301126200040657600080fd5b8151818111156200041b576200041b62000376565b604051601f8201601f19908116603f0116810190838211818310171562000446576200044662000376565b816040528281528a868487010111156200045f57600080fd5b600093505b8284101562000483578484018601518185018701529285019262000464565b60008684830101528096505050505050509250925092565b600181811c90821680620004b057607f821691505b602082108103620004d157634e487b7160e01b600052602260045260246000fd5b50919050565b601f8211156200052557600081815260208120601f850160051c81016020861015620005005750805b601f850160051c820191505b8181101562000521578281556001016200050c565b5050505b505050565b81516001600160401b0381111562000546576200054662000376565b6200055e816200055784546200049b565b84620004d7565b602080601f8311600181146200059657600084156200057d5750858301515b600019600386901b1c1916600185901b17855562000521565b600085815260208120601f198616915b82811015620005c757888601518255948401946001909101908401620005a6565b5085821015620005e65787850151600019600388901b60f8161c191681555b5050505050600190811b01905550565b634e487b7160e01b600052601160045260246000fd5b600060018201620006215762000621620005f6565b5060010190565b600181815b80851115620006695781600019048211156200064d576200064d620005f6565b808516156200065b57918102915b93841c93908002906200062d565b509250929050565b600082620006825750600162000305565b81620006915750600062000305565b8160018114620006aa5760028114620006b557620006d5565b600191505062000305565b60ff841115620006c957620006c9620005f6565b50506001821b62000305565b5060208310610133831016604e8410600b8410161715620006fa575081810a62000305565b62000706838362000628565b80600019048211156200071d576200071d620005f6565b029392505050565b600062000302838362000671565b600080604083850312156200074757600080fd5b82519150602083015180151581146200075f57600080fd5b809150509250929050565b8082028115828204841417620003055762000305620005f6565b600082620007a257634e487b7160e01b600052601260045260246000fd5b500490565b60805160a051610a7c620007e860003960008181610163015281816102f9015261042a01526000818160d2015281816102d701526104080152610a7c6000f3fe608060405234801561001057600080fd5b506004361061007d5760003560e01c80637ece075d1161005b5780637ece075d146101215780639d888e8614610156578063b32c7af21461015e578063fff6cae91461019e57600080fd5b8063258820871461008257806337a7b7d8146100cd5780637284e41614610119575b600080fd5b60408051808201909152600581527f737570726100000000000000000000000000000000000000000000000000000060208201525b6040516100c49190610741565b60405180910390f35b6100f47f000000000000000000000000000000000000000000000000000000000000000081565b60405173ffffffffffffffffffffffffffffffffffffffff90911681526020016100c4565b6100b76101a6565b61013461012f3660046107ad565b610238565b60408051825181526020808401519082015291810151908201526060016100c4565b610134610295565b6101857f000000000000000000000000000000000000000000000000000000000000000081565b60405167ffffffffffffffff90911681526020016100c4565b6101346103c6565b6060600080546101b5906107c6565b80601f01602080910402602001604051908101604052809291908181526020018280546101e1906107c6565b801561022e5780601f106102035761010080835404028352916020019161022e565b820191906000526020600020905b81548152906001019060200180831161021157829003601f168201915b5050505050905090565b61025c60405180606001604052806000815260200160008152602001600081525090565b50600090815260026020818152604092839020835160608101855281548152600182015492810192909252909101549181019190915290565b6102b960405180606001604052806000815260200160008152602001600081525090565b6000808061031d73ffffffffffffffffffffffffffffffffffffffff7f0000000000000000000000000000000000000000000000000000000000000000167f0000000000000000000000000000000000000000000000000000000000000000610514565b9250925092506002600060015481526020019081526020016000206040518060600160405290816000820154815260200160018201548152602001600282015481525050935083602001518211156103c057604051806060016040528060015460016103899190610848565b8152602081018490526040016103bb6103a386600a61097b565b6103b585670de0b6b3a76400006106ab565b906106c0565b905293505b50505090565b6103ea60405180606001604052806000815260200160008152602001600081525090565b6000808061044e73ffffffffffffffffffffffffffffffffffffffff7f0000000000000000000000000000000000000000000000000000000000000000167f0000000000000000000000000000000000000000000000000000000000000000610514565b9250925092506002600060015481526020019081526020016000206040518060600160405290816000820154815260200160018201548152602001600282015481525050935083602001518211156103c057600180549060006104b083610987565b9190505550604051806060016040528060015481526020018381526020016104de85600a6103a3919061097b565b90526001805460009081526002602081815260409283902085518155908501519381019390935590830151910155935050505090565b6040517f98f93a9600000000000000000000000000000000000000000000000000000000815267ffffffffffffffff82166004820152600090819081908190819073ffffffffffffffffffffffffffffffffffffffff8816906398f93a96906024016040805180830381865afa158015610592573d6000803e3d6000fd5b505050506040513d601f19601f820116820180604052508101906105b691906109bf565b915091508015610627576040517f08c379a000000000000000000000000000000000000000000000000000000000815260206004820152601160248201527f5072696365466565644e6f74457869737400000000000000000000000000000060448201526064015b60405180910390fd5b6040805160ff60b885901c16602082015261065291015b6040516020818303038152906040526106cc565b6040805167ffffffffffffffff607886901c166020820152919650610677910161063e565b604080516bffffffffffffffffffffffff601886901c1660208201529195506106a0910161063e565b925050509250925092565b60006106b782846109f4565b90505b92915050565b60006106b78284610a0b565b60008151602014610739576040517f08c379a000000000000000000000000000000000000000000000000000000000815260206004820152601760248201527f6279746573206c656e677468206973206e6f742033322e000000000000000000604482015260640161061e565b506020015190565b600060208083528351808285015260005b8181101561076e57858101830151858201604001528201610752565b5060006040828601015260407fffffffffffffffffffffffffffffffffffffffffffffffffffffffffffffffe0601f8301168501019250505092915050565b6000602082840312156107bf57600080fd5b5035919050565b600181811c908216806107da57607f821691505b602082108103610813577f4e487b7100000000000000000000000000000000000000000000000000000000600052602260045260246000fd5b50919050565b7f4e487b7100000000000000000000000000000000000000000000000000000000600052601160045260246000fd5b808201808211156106ba576106ba610819565b600181815b808511156108b457817fffffffffffffffffffffffffffffffffffffffffffffffffffffffffffffffff0482111561089a5761089a610819565b808516156108a757918102915b93841c9390800290610860565b509250929050565b6000826108cb575060016106ba565b816108d8575060006106ba565b81600181146108ee57600281146108f857610914565b60019150506106ba565b60ff84111561090957610909610819565b50506001821b6106ba565b5060208310610133831016604e8410600b8410161715610937575081810a6106ba565b610941838361085b565b807fffffffffffffffffffffffffffffffffffffffffffffffffffffffffffffffff0482111561097357610973610819565b029392505050565b60006106b783836108bc565b60007fffffffffffffffffffffffffffffffffffffffffffffffffffffffffffffffff82036109b8576109b8610819565b5060010190565b600080604083850312156109d257600080fd5b82519150602083015180151581146109e957600080fd5b809150509250929050565b80820281158282048414176106ba576106ba610819565b600082610a41577f4e487b7100000000000000000000000000000000000000000000000000000000600052601260045260246000fd5b50049056fea2646970667358221220df7b2a78a00c230e08a549e449de72fa4d9e7bc39b74b28bc2c2324354ef618464736f6c63430008130033",
  "devdoc": {
    "errors": {
      "InvalidOracleRound()": [
        {
          "details": "Error for invalid oracle round"
        }
      ]
    },
    "kind": "dev",
    "methods": {
      "atVersion(uint256)": {
        "params": {
          "version": "The version of which to lookup"
        },
        "returns": {
          "oracleVersion": "Oracle version at version `version`"
        }
      },
      "constructor": {
        "params": {
          "description_": "The description of the Oracle Provider('ETH/USD', 'BTC/USD'...)",
          "feed_": "Supra address (https://supraoracles.com/docs/price-feeds/networks)",
          "pairIndex_": "The index of supra trading pair (https://supraoracles.com/docs/price-feeds/trading-pairs)"
        }
      },
      "currentVersion()": {
        "returns": {
          "oracleVersion": "Current oracle version"
        }
      },
      "description()": {
        "returns": {
          "_0": "A string representing the description of the Oracle Provider."
        }
      },
      "oracleProviderName()": {
        "returns": {
          "_0": "A string representing the name of the Oracle Provider."
        }
      },
      "sync()": {
        "details": "`sync` is expected to be called soon after a phase update occurs in the underlying proxy.      Phase updates should be detected using off-chain mechanism and should trigger a `sync` call      This is feasible in the short term due to how infrequent phase updates are, but phase update      and roundCount detection should eventually be implemented at the contract level.      Reverts if there is more than 1 phase to update in a single sync because we currently cannot      determine the startingRoundId for the intermediary phase.",
        "returns": {
          "oracleVersion": "The current oracle version after sync"
        }
      }
    },
    "stateVariables": {
      "_description": {
        "details": "The description of the Oracle Provider('ETH/USD', 'BTC/USD'...)"
      },
      "feed": {
        "details": "Supra feed address (https://supraoracles.com/docs/price-feeds/networks)"
      },
      "lastSyncedVersion": {
        "details": "Last version seen when `sync` was called"
      },
      "oracleVersions": {
        "details": "Mapping of version to OracleVersion"
      },
      "pairIndex": {
        "details": "The index of supra trading pair (https://supraoracles.com/docs/price-feeds/trading-pairs)"
      }
    },
    "version": 1
  },
  "userdoc": {
    "kind": "user",
    "methods": {
      "atVersion(uint256)": {
        "notice": "Returns the current oracle version"
      },
      "constructor": {
        "notice": "Initializes the contract state"
      },
      "currentVersion()": {
        "notice": "Returns the current oracle version"
      },
      "description()": {
        "notice": "Retrieves the description of the Oracle Provider."
      },
      "oracleProviderName()": {
        "notice": "Retrieves the name of the Oracle Provider."
      },
      "sync()": {
        "notice": "Checks for a new price and updates the internal phase annotation state accordingly"
      }
    },
    "version": 1
  },
  "storageLayout": {
    "storage": [
      {
        "astId": 27400,
        "contract": "contracts/oracle/SupraFeedOracle.sol:SupraFeedOracle",
        "label": "_description",
        "offset": 0,
        "slot": "0",
        "type": "t_string_storage"
      },
      {
        "astId": 27403,
        "contract": "contracts/oracle/SupraFeedOracle.sol:SupraFeedOracle",
        "label": "lastSyncedVersion",
        "offset": 0,
        "slot": "1",
        "type": "t_uint256"
      },
      {
        "astId": 27409,
        "contract": "contracts/oracle/SupraFeedOracle.sol:SupraFeedOracle",
        "label": "oracleVersions",
        "offset": 0,
        "slot": "2",
        "type": "t_mapping(t_uint256,t_struct(OracleVersion)27594_storage)"
      }
    ],
    "types": {
      "t_int256": {
        "encoding": "inplace",
        "label": "int256",
        "numberOfBytes": "32"
      },
      "t_mapping(t_uint256,t_struct(OracleVersion)27594_storage)": {
        "encoding": "mapping",
        "key": "t_uint256",
        "label": "mapping(uint256 => struct IOracleProvider.OracleVersion)",
        "numberOfBytes": "32",
        "value": "t_struct(OracleVersion)27594_storage"
      },
      "t_string_storage": {
        "encoding": "bytes",
        "label": "string",
        "numberOfBytes": "32"
      },
      "t_struct(OracleVersion)27594_storage": {
        "encoding": "inplace",
        "label": "struct IOracleProvider.OracleVersion",
        "members": [
          {
            "astId": 27589,
            "contract": "contracts/oracle/SupraFeedOracle.sol:SupraFeedOracle",
            "label": "version",
            "offset": 0,
            "slot": "0",
            "type": "t_uint256"
          },
          {
            "astId": 27591,
            "contract": "contracts/oracle/SupraFeedOracle.sol:SupraFeedOracle",
            "label": "timestamp",
            "offset": 0,
            "slot": "1",
            "type": "t_uint256"
          },
          {
            "astId": 27593,
            "contract": "contracts/oracle/SupraFeedOracle.sol:SupraFeedOracle",
            "label": "price",
            "offset": 0,
            "slot": "2",
            "type": "t_int256"
          }
        ],
        "numberOfBytes": "96"
      },
      "t_uint256": {
        "encoding": "inplace",
        "label": "uint256",
        "numberOfBytes": "32"
      }
    }
  }
}