{
  "address": "0xB144f3B2b5828D7E122E266E11D250a2E5a1C626",
  "abi": [
    {
      "inputs": [
        {
          "internalType": "SupraSValueFeed",
          "name": "feed_",
          "type": "address"
        },
        {
          "internalType": "uint64",
          "name": "pairIndex_",
          "type": "uint64"
        },
        {
          "internalType": "string",
          "name": "description_",
          "type": "string"
        }
      ],
      "stateMutability": "nonpayable",
      "type": "constructor"
    },
    {
      "inputs": [],
      "name": "InvalidOracleRound",
      "type": "error"
    },
    {
      "inputs": [
        {
          "internalType": "uint256",
          "name": "version",
          "type": "uint256"
        }
      ],
      "name": "atVersion",
      "outputs": [
        {
          "components": [
            {
              "internalType": "uint256",
              "name": "version",
              "type": "uint256"
            },
            {
              "internalType": "uint256",
              "name": "timestamp",
              "type": "uint256"
            },
            {
              "internalType": "int256",
              "name": "price",
              "type": "int256"
            }
          ],
          "internalType": "struct IOracleProvider.OracleVersion",
          "name": "oracleVersion",
          "type": "tuple"
        }
      ],
      "stateMutability": "view",
      "type": "function"
    },
    {
      "inputs": [],
      "name": "currentVersion",
      "outputs": [
        {
          "components": [
            {
              "internalType": "uint256",
              "name": "version",
              "type": "uint256"
            },
            {
              "internalType": "uint256",
              "name": "timestamp",
              "type": "uint256"
            },
            {
              "internalType": "int256",
              "name": "price",
              "type": "int256"
            }
          ],
          "internalType": "struct IOracleProvider.OracleVersion",
          "name": "oracleVersion",
          "type": "tuple"
        }
      ],
      "stateMutability": "view",
      "type": "function"
    },
    {
      "inputs": [],
      "name": "description",
      "outputs": [
        {
          "internalType": "string",
          "name": "",
          "type": "string"
        }
      ],
      "stateMutability": "view",
      "type": "function"
    },
    {
      "inputs": [],
      "name": "feed",
      "outputs": [
        {
          "internalType": "SupraSValueFeed",
          "name": "",
          "type": "address"
        }
      ],
      "stateMutability": "view",
      "type": "function"
    },
    {
      "inputs": [],
      "name": "oracleProviderName",
      "outputs": [
        {
          "internalType": "string",
          "name": "",
          "type": "string"
        }
      ],
      "stateMutability": "pure",
      "type": "function"
    },
    {
      "inputs": [],
      "name": "pairIndex",
      "outputs": [
        {
          "internalType": "uint64",
          "name": "",
          "type": "uint64"
        }
      ],
      "stateMutability": "view",
      "type": "function"
    },
    {
      "inputs": [],
      "name": "sync",
      "outputs": [
        {
          "components": [
            {
              "internalType": "uint256",
              "name": "version",
              "type": "uint256"
            },
            {
              "internalType": "uint256",
              "name": "timestamp",
              "type": "uint256"
            },
            {
              "internalType": "int256",
              "name": "price",
              "type": "int256"
            }
          ],
          "internalType": "struct IOracleProvider.OracleVersion",
          "name": "oracleVersion",
          "type": "tuple"
        }
      ],
      "stateMutability": "nonpayable",
      "type": "function"
    }
  ],
  "transactionHash": "0xdc144d8325273e227d5d82d195ae82881d1bd806a0cdac16e098637c15054caa",
  "args": [
    "0x4Ce261C19af540f1175CdeB9E3490DC8937D78e5",
    "18",
    "BTC/USD"
  ],
  "numDeployments": 2,
  "solcInputHash": "5e7a085bdb3f6e98aebebf27106d4c12",
  "bytecode": "0x60c06040523480156200001157600080fd5b506040516200127738038062001277833981016040819052620000349162000397565b6001600160a01b0383166080526001600160401b03821660a05260006200005c828262000535565b506200006762000071565b50505050620007b2565b6200009660405180606001604052806000815260200160008152602001600081525090565b6000806000620000bd60a0516080516001600160a01b0316620001a560201b90919060201c565b9250925092506002600060015481526020019081526020016000206040518060600160405290816000820154815260200160018201548152602001600282015481525050935083602001518211156200019f5760018054906000620001228362000617565b9190505550604051806060016040528060015481526020018381526020016200016e85600a62000153919062000730565b6200016785670de0b6b3a7640000620002ff565b9062000316565b9052600180546000908152600260208181526040928390208551815590850151938101939093559083015191015593505b50505090565b604051634c7c9d4b60e11b81526001600160401b038216600482015260009081908190819081906001600160a01b038816906398f93a96906024016040805180830381865afa158015620001fd573d6000803e3d6000fd5b505050506040513d601f19601f820116820180604052508101906200022391906200073e565b9150915080156200026f5760405162461bcd60e51b8152602060048201526011602482015270141c9a58d951995959139bdd115e1a5cdd607a1b60448201526064015b60405180910390fd5b6040805160ff60b885901c1660208201526200029d91015b60408051601f1981840301815291905262000324565b94506103e8620002c260c0604885901b901c6040516020016200028791815260200190565b620002ce919062000775565b604080516001600160601b03601886901c166020820152919550620002f4910162000287565b925050509250925092565b60006200030d828462000798565b90505b92915050565b60006200030d828462000775565b60008151602014620003795760405162461bcd60e51b815260206004820152601760248201527f6279746573206c656e677468206973206e6f742033322e000000000000000000604482015260640162000266565b506020015190565b634e487b7160e01b600052604160045260246000fd5b600080600060608486031215620003ad57600080fd5b83516001600160a01b0381168114620003c557600080fd5b602085810151919450906001600160401b038082168214620003e657600080fd5b604087015191945080821115620003fc57600080fd5b818701915087601f8301126200041157600080fd5b81518181111562000426576200042662000381565b604051601f8201601f19908116603f0116810190838211818310171562000451576200045162000381565b816040528281528a868487010111156200046a57600080fd5b600093505b828410156200048e57848401860151818501870152928501926200046f565b60008684830101528096505050505050509250925092565b600181811c90821680620004bb57607f821691505b602082108103620004dc57634e487b7160e01b600052602260045260246000fd5b50919050565b601f8211156200053057600081815260208120601f850160051c810160208610156200050b5750805b601f850160051c820191505b818110156200052c5782815560010162000517565b5050505b505050565b81516001600160401b0381111562000551576200055162000381565b6200056981620005628454620004a6565b84620004e2565b602080601f831160018114620005a15760008415620005885750858301515b600019600386901b1c1916600185901b1785556200052c565b600085815260208120601f198616915b82811015620005d257888601518255948401946001909101908401620005b1565b5085821015620005f15787850151600019600388901b60f8161c191681555b5050505050600190811b01905550565b634e487b7160e01b600052601160045260246000fd5b6000600182016200062c576200062c62000601565b5060010190565b600181815b808511156200067457816000190482111562000658576200065862000601565b808516156200066657918102915b93841c939080029062000638565b509250929050565b6000826200068d5750600162000310565b816200069c5750600062000310565b8160018114620006b55760028114620006c057620006e0565b600191505062000310565b60ff841115620006d457620006d462000601565b50506001821b62000310565b5060208310610133831016604e8410600b841016171562000705575081810a62000310565b62000711838362000633565b806000190482111562000728576200072862000601565b029392505050565b60006200030d83836200067c565b600080604083850312156200075257600080fd5b82519150602083015180151581146200076a57600080fd5b809150509250929050565b6000826200079357634e487b7160e01b600052601260045260246000fd5b500490565b808202811582820484141762000310576200031062000601565b60805160a051610a84620007f360003960008181610163015281816102f9015261042a01526000818160d2015281816102d701526104080152610a846000f3fe608060405234801561001057600080fd5b506004361061007d5760003560e01c80637ece075d1161005b5780637ece075d146101215780639d888e8614610156578063b32c7af21461015e578063fff6cae91461019e57600080fd5b8063258820871461008257806337a7b7d8146100cd5780637284e41614610119575b600080fd5b60408051808201909152600581527f737570726100000000000000000000000000000000000000000000000000000060208201525b6040516100c49190610749565b60405180910390f35b6100f47f000000000000000000000000000000000000000000000000000000000000000081565b60405173ffffffffffffffffffffffffffffffffffffffff90911681526020016100c4565b6100b76101a6565b61013461012f3660046107b5565b610238565b60408051825181526020808401519082015291810151908201526060016100c4565b610134610295565b6101857f000000000000000000000000000000000000000000000000000000000000000081565b60405167ffffffffffffffff90911681526020016100c4565b6101346103c6565b6060600080546101b5906107ce565b80601f01602080910402602001604051908101604052809291908181526020018280546101e1906107ce565b801561022e5780601f106102035761010080835404028352916020019161022e565b820191906000526020600020905b81548152906001019060200180831161021157829003601f168201915b5050505050905090565b61025c60405180606001604052806000815260200160008152602001600081525090565b50600090815260026020818152604092839020835160608101855281548152600182015492810192909252909101549181019190915290565b6102b960405180606001604052806000815260200160008152602001600081525090565b6000808061031d73ffffffffffffffffffffffffffffffffffffffff7f0000000000000000000000000000000000000000000000000000000000000000167f0000000000000000000000000000000000000000000000000000000000000000610514565b9250925092506002600060015481526020019081526020016000206040518060600160405290816000820154815260200160018201548152602001600282015481525050935083602001518211156103c057604051806060016040528060015460016103899190610850565b8152602081018490526040016103bb6103a386600a610983565b6103b585670de0b6b3a76400006106b3565b906106c8565b905293505b50505090565b6103ea60405180606001604052806000815260200160008152602001600081525090565b6000808061044e73ffffffffffffffffffffffffffffffffffffffff7f0000000000000000000000000000000000000000000000000000000000000000167f0000000000000000000000000000000000000000000000000000000000000000610514565b9250925092506002600060015481526020019081526020016000206040518060600160405290816000820154815260200160018201548152602001600282015481525050935083602001518211156103c057600180549060006104b08361098f565b9190505550604051806060016040528060015481526020018381526020016104de85600a6103a39190610983565b90526001805460009081526002602081815260409283902085518155908501519381019390935590830151910155935050505090565b6040517f98f93a9600000000000000000000000000000000000000000000000000000000815267ffffffffffffffff82166004820152600090819081908190819073ffffffffffffffffffffffffffffffffffffffff8816906398f93a96906024016040805180830381865afa158015610592573d6000803e3d6000fd5b505050506040513d601f19601f820116820180604052508101906105b691906109c7565b915091508015610627576040517f08c379a000000000000000000000000000000000000000000000000000000000815260206004820152601160248201527f5072696365466565644e6f74457869737400000000000000000000000000000060448201526064015b60405180910390fd5b6040805160ff60b885901c16602082015261065291015b6040516020818303038152906040526106d4565b94506103e861067560c0604885901b901c60405160200161063e91815260200190565b61067f91906109fc565b604080516bffffffffffffffffffffffff601886901c1660208201529195506106a8910161063e565b925050509250925092565b60006106bf8284610a37565b90505b92915050565b60006106bf82846109fc565b60008151602014610741576040517f08c379a000000000000000000000000000000000000000000000000000000000815260206004820152601760248201527f6279746573206c656e677468206973206e6f742033322e000000000000000000604482015260640161061e565b506020015190565b600060208083528351808285015260005b818110156107765785810183015185820160400152820161075a565b5060006040828601015260407fffffffffffffffffffffffffffffffffffffffffffffffffffffffffffffffe0601f8301168501019250505092915050565b6000602082840312156107c757600080fd5b5035919050565b600181811c908216806107e257607f821691505b60208210810361081b577f4e487b7100000000000000000000000000000000000000000000000000000000600052602260045260246000fd5b50919050565b7f4e487b7100000000000000000000000000000000000000000000000000000000600052601160045260246000fd5b808201808211156106c2576106c2610821565b600181815b808511156108bc57817fffffffffffffffffffffffffffffffffffffffffffffffffffffffffffffffff048211156108a2576108a2610821565b808516156108af57918102915b93841c9390800290610868565b509250929050565b6000826108d3575060016106c2565b816108e0575060006106c2565b81600181146108f657600281146109005761091c565b60019150506106c2565b60ff84111561091157610911610821565b50506001821b6106c2565b5060208310610133831016604e8410600b841016171561093f575081810a6106c2565b6109498383610863565b807fffffffffffffffffffffffffffffffffffffffffffffffffffffffffffffffff0482111561097b5761097b610821565b029392505050565b60006106bf83836108c4565b60007fffffffffffffffffffffffffffffffffffffffffffffffffffffffffffffffff82036109c0576109c0610821565b5060010190565b600080604083850312156109da57600080fd5b82519150602083015180151581146109f157600080fd5b809150509250929050565b600082610a32577f4e487b7100000000000000000000000000000000000000000000000000000000600052601260045260246000fd5b500490565b80820281158282048414176106c2576106c261082156fea264697066735822122058cb20a1681de1d8ba6827e53d9479497f396091518c413da6a2af12687c369d64736f6c63430008130033",
  "devdoc": {
    "errors": {
      "InvalidOracleRound()": [
        {
          "details": "Error for invalid oracle round"
        }
      ]
    },
    "kind": "dev",
    "methods": {
      "atVersion(uint256)": {
        "params": {
          "version": "The version of which to lookup"
        },
        "returns": {
          "oracleVersion": "Oracle version at version `version`"
        }
      },
      "constructor": {
        "params": {
          "description_": "The description of the Oracle Provider('ETH/USD', 'BTC/USD'...)",
          "feed_": "Supra address (https://supraoracles.com/docs/price-feeds/networks)",
          "pairIndex_": "The index of supra trading pair (https://supraoracles.com/docs/price-feeds/trading-pairs)"
        }
      },
      "currentVersion()": {
        "returns": {
          "oracleVersion": "Current oracle version"
        }
      },
      "description()": {
        "returns": {
          "_0": "A string representing the description of the Oracle Provider."
        }
      },
      "oracleProviderName()": {
        "returns": {
          "_0": "A string representing the name of the Oracle Provider."
        }
      },
      "sync()": {
        "details": "`sync` is expected to be called soon after a phase update occurs in the underlying proxy.      Phase updates should be detected using off-chain mechanism and should trigger a `sync` call      This is feasible in the short term due to how infrequent phase updates are, but phase update      and roundCount detection should eventually be implemented at the contract level.      Reverts if there is more than 1 phase to update in a single sync because we currently cannot      determine the startingRoundId for the intermediary phase.",
        "returns": {
          "oracleVersion": "The current oracle version after sync"
        }
      }
    },
    "stateVariables": {
      "_description": {
        "details": "The description of the Oracle Provider('ETH/USD', 'BTC/USD'...)"
      },
      "feed": {
        "details": "Supra feed address (https://supraoracles.com/docs/price-feeds/networks)"
      },
      "lastSyncedVersion": {
        "details": "Last version seen when `sync` was called"
      },
      "oracleVersions": {
        "details": "Mapping of version to OracleVersion"
      },
      "pairIndex": {
        "details": "The index of supra trading pair (https://supraoracles.com/docs/price-feeds/trading-pairs)"
      }
    },
    "version": 1
  },
  "userdoc": {
    "kind": "user",
    "methods": {
      "atVersion(uint256)": {
        "notice": "Returns the current oracle version"
      },
      "constructor": {
        "notice": "Initializes the contract state"
      },
      "currentVersion()": {
        "notice": "Returns the current oracle version"
      },
      "description()": {
        "notice": "Retrieves the description of the Oracle Provider."
      },
      "oracleProviderName()": {
        "notice": "Retrieves the name of the Oracle Provider."
      },
      "sync()": {
        "notice": "Checks for a new price and updates the internal phase annotation state accordingly"
      }
    },
    "version": 1
  },
  "storageLayout": {
    "storage": [
      {
        "astId": 438,
        "contract": "contracts/oracle/SupraFeedOracle.sol:SupraFeedOracle",
        "label": "_description",
        "offset": 0,
        "slot": "0",
        "type": "t_string_storage"
      },
      {
        "astId": 441,
        "contract": "contracts/oracle/SupraFeedOracle.sol:SupraFeedOracle",
        "label": "lastSyncedVersion",
        "offset": 0,
        "slot": "1",
        "type": "t_uint256"
      },
      {
        "astId": 447,
        "contract": "contracts/oracle/SupraFeedOracle.sol:SupraFeedOracle",
        "label": "oracleVersions",
        "offset": 0,
        "slot": "2",
        "type": "t_mapping(t_uint256,t_struct(OracleVersion)632_storage)"
      }
    ],
    "types": {
      "t_int256": {
        "encoding": "inplace",
        "label": "int256",
        "numberOfBytes": "32"
      },
      "t_mapping(t_uint256,t_struct(OracleVersion)632_storage)": {
        "encoding": "mapping",
        "key": "t_uint256",
        "label": "mapping(uint256 => struct IOracleProvider.OracleVersion)",
        "numberOfBytes": "32",
        "value": "t_struct(OracleVersion)632_storage"
      },
      "t_string_storage": {
        "encoding": "bytes",
        "label": "string",
        "numberOfBytes": "32"
      },
      "t_struct(OracleVersion)632_storage": {
        "encoding": "inplace",
        "label": "struct IOracleProvider.OracleVersion",
        "members": [
          {
            "astId": 627,
            "contract": "contracts/oracle/SupraFeedOracle.sol:SupraFeedOracle",
            "label": "version",
            "offset": 0,
            "slot": "0",
            "type": "t_uint256"
          },
          {
            "astId": 629,
            "contract": "contracts/oracle/SupraFeedOracle.sol:SupraFeedOracle",
            "label": "timestamp",
            "offset": 0,
            "slot": "1",
            "type": "t_uint256"
          },
          {
            "astId": 631,
            "contract": "contracts/oracle/SupraFeedOracle.sol:SupraFeedOracle",
            "label": "price",
            "offset": 0,
            "slot": "2",
            "type": "t_int256"
          }
        ],
        "numberOfBytes": "96"
      },
      "t_uint256": {
        "encoding": "inplace",
        "label": "uint256",
        "numberOfBytes": "32"
      }
    }
  }
}