{
  "address": "0xBB7Ae79A07aBeDD635B6b4143ef494D8a0ca342B",
  "abi": [
    {
      "inputs": [],
      "name": "AddLiquidityDisabled",
      "type": "error"
    },
    {
      "inputs": [],
      "name": "AlreadyClosedPosition",
      "type": "error"
    },
    {
      "inputs": [],
      "name": "ClaimPositionCallbackError",
      "type": "error"
    },
    {
      "inputs": [],
      "name": "ClosePositionDisabled",
      "type": "error"
    },
    {
      "inputs": [],
      "name": "DuplicatedTradingFeeRate",
      "type": "error"
    },
    {
      "inputs": [],
      "name": "Empty",
      "type": "error"
    },
    {
      "inputs": [],
      "name": "ExceedMaxAllowableLeverage",
      "type": "error"
    },
    {
      "inputs": [],
      "name": "ExceedMaxAllowableTradingFee",
      "type": "error"
    },
    {
      "inputs": [],
      "name": "InvalidLpReceiptAction",
      "type": "error"
    },
    {
      "inputs": [],
      "name": "InvalidTransferredTokenAmount",
      "type": "error"
    },
    {
      "inputs": [],
      "name": "NotAllowableMakerMargin",
      "type": "error"
    },
    {
      "inputs": [],
      "name": "NotClaimableLpReceipt",
      "type": "error"
    },
    {
      "inputs": [],
      "name": "NotClaimablePosition",
      "type": "error"
    },
    {
      "inputs": [],
      "name": "NotEnoughMarginTransferred",
      "type": "error"
    },
    {
      "inputs": [],
      "name": "NotExistLpReceipt",
      "type": "error"
    },
    {
      "inputs": [],
      "name": "NotExistPosition",
      "type": "error"
    },
    {
      "inputs": [],
      "name": "NotPermitted",
      "type": "error"
    },
    {
      "inputs": [],
      "name": "NotWithdrawableLpReceipt",
      "type": "error"
    },
    {
      "inputs": [],
      "name": "OnlyAccessableByDao",
      "type": "error"
    },
    {
      "inputs": [],
      "name": "OnlyAccessableByFactoryOrDao",
      "type": "error"
    },
    {
      "inputs": [],
      "name": "OnlyAccessableByLiquidator",
      "type": "error"
    },
    {
      "inputs": [],
      "name": "OnlyAccessableByVault",
      "type": "error"
    },
    {
      "inputs": [],
      "name": "OpenPositionDisabled",
      "type": "error"
    },
    {
      "inputs": [],
      "name": "OutOfBounds",
      "type": "error"
    },
    {
      "inputs": [],
      "name": "RemoveLiquidityDisabled",
      "type": "error"
    },
    {
      "inputs": [],
      "name": "TooSmallAmount",
      "type": "error"
    },
    {
      "inputs": [],
      "name": "TooSmallTakerMargin",
      "type": "error"
    },
    {
      "anonymous": false,
      "inputs": [
        {
          "components": [
            {
              "internalType": "uint256",
              "name": "id",
              "type": "uint256"
            },
            {
              "internalType": "uint256",
              "name": "oracleVersion",
              "type": "uint256"
            },
            {
              "internalType": "uint256",
              "name": "amount",
              "type": "uint256"
            },
            {
              "internalType": "address",
              "name": "recipient",
              "type": "address"
            },
            {
              "internalType": "enum LpAction",
              "name": "action",
              "type": "uint8"
            },
            {
              "internalType": "int16",
              "name": "tradingFeeRate",
              "type": "int16"
            }
          ],
          "indexed": false,
          "internalType": "struct LpReceipt",
          "name": "receipt",
          "type": "tuple"
        }
      ],
      "name": "AddLiquidity",
      "type": "event"
    },
    {
      "anonymous": false,
      "inputs": [
        {
          "components": [
            {
              "internalType": "uint256",
              "name": "id",
              "type": "uint256"
            },
            {
              "internalType": "uint256",
              "name": "oracleVersion",
              "type": "uint256"
            },
            {
              "internalType": "uint256",
              "name": "amount",
              "type": "uint256"
            },
            {
              "internalType": "address",
              "name": "recipient",
              "type": "address"
            },
            {
              "internalType": "enum LpAction",
              "name": "action",
              "type": "uint8"
            },
            {
              "internalType": "int16",
              "name": "tradingFeeRate",
              "type": "int16"
            }
          ],
          "indexed": false,
          "internalType": "struct LpReceipt[]",
          "name": "receipts",
          "type": "tuple[]"
        }
      ],
      "name": "AddLiquidityBatch",
      "type": "event"
    },
    {
      "anonymous": false,
      "inputs": [
        {
          "components": [
            {
              "internalType": "uint256",
              "name": "id",
              "type": "uint256"
            },
            {
              "internalType": "uint256",
              "name": "oracleVersion",
              "type": "uint256"
            },
            {
              "internalType": "uint256",
              "name": "amount",
              "type": "uint256"
            },
            {
              "internalType": "address",
              "name": "recipient",
              "type": "address"
            },
            {
              "internalType": "enum LpAction",
              "name": "action",
              "type": "uint8"
            },
            {
              "internalType": "int16",
              "name": "tradingFeeRate",
              "type": "int16"
            }
          ],
          "indexed": false,
          "internalType": "struct LpReceipt",
          "name": "receipt",
          "type": "tuple"
        },
        {
          "indexed": true,
          "internalType": "uint256",
          "name": "clbTokenAmount",
          "type": "uint256"
        }
      ],
      "name": "ClaimLiquidity",
      "type": "event"
    },
    {
      "anonymous": false,
      "inputs": [
        {
          "components": [
            {
              "internalType": "uint256",
              "name": "id",
              "type": "uint256"
            },
            {
              "internalType": "uint256",
              "name": "oracleVersion",
              "type": "uint256"
            },
            {
              "internalType": "uint256",
              "name": "amount",
              "type": "uint256"
            },
            {
              "internalType": "address",
              "name": "recipient",
              "type": "address"
            },
            {
              "internalType": "enum LpAction",
              "name": "action",
              "type": "uint8"
            },
            {
              "internalType": "int16",
              "name": "tradingFeeRate",
              "type": "int16"
            }
          ],
          "indexed": false,
          "internalType": "struct LpReceipt[]",
          "name": "receipts",
          "type": "tuple[]"
        },
        {
          "indexed": false,
          "internalType": "uint256[]",
          "name": "clbTokenAmounts",
          "type": "uint256[]"
        }
      ],
      "name": "ClaimLiquidityBatch",
      "type": "event"
    },
    {
      "anonymous": false,
      "inputs": [
        {
          "indexed": true,
          "internalType": "address",
          "name": "account",
          "type": "address"
        },
        {
          "indexed": true,
          "internalType": "int256",
          "name": "pnl",
          "type": "int256"
        },
        {
          "indexed": true,
          "internalType": "uint256",
          "name": "interest",
          "type": "uint256"
        },
        {
          "components": [
            {
              "internalType": "uint256",
              "name": "id",
              "type": "uint256"
            },
            {
              "internalType": "uint256",
              "name": "openVersion",
              "type": "uint256"
            },
            {
              "internalType": "uint256",
              "name": "closeVersion",
              "type": "uint256"
            },
            {
              "internalType": "int256",
              "name": "qty",
              "type": "int256"
            },
            {
              "internalType": "uint256",
              "name": "openTimestamp",
              "type": "uint256"
            },
            {
              "internalType": "uint256",
              "name": "closeTimestamp",
              "type": "uint256"
            },
            {
              "internalType": "uint256",
              "name": "takerMargin",
              "type": "uint256"
            },
            {
              "internalType": "address",
              "name": "owner",
              "type": "address"
            },
            {
              "internalType": "address",
              "name": "liquidator",
              "type": "address"
            },
            {
              "internalType": "uint16",
              "name": "_protocolFeeRate",
              "type": "uint16"
            },
            {
              "components": [
                {
                  "internalType": "uint16",
                  "name": "tradingFeeRate",
                  "type": "uint16"
                },
                {
                  "internalType": "uint256",
                  "name": "amount",
                  "type": "uint256"
                }
              ],
              "internalType": "struct BinMargin[]",
              "name": "_binMargins",
              "type": "tuple[]"
            }
          ],
          "indexed": false,
          "internalType": "struct Position",
          "name": "position",
          "type": "tuple"
        }
      ],
      "name": "ClaimPosition",
      "type": "event"
    },
    {
      "anonymous": false,
      "inputs": [
        {
          "indexed": true,
          "internalType": "address",
          "name": "account",
          "type": "address"
        },
        {
          "indexed": true,
          "internalType": "int256",
          "name": "pnl",
          "type": "int256"
        },
        {
          "indexed": true,
          "internalType": "uint256",
          "name": "interest",
          "type": "uint256"
        },
        {
          "indexed": false,
          "internalType": "uint256",
          "name": "usedKeeperFee",
          "type": "uint256"
        },
        {
          "components": [
            {
              "internalType": "uint256",
              "name": "id",
              "type": "uint256"
            },
            {
              "internalType": "uint256",
              "name": "openVersion",
              "type": "uint256"
            },
            {
              "internalType": "uint256",
              "name": "closeVersion",
              "type": "uint256"
            },
            {
              "internalType": "int256",
              "name": "qty",
              "type": "int256"
            },
            {
              "internalType": "uint256",
              "name": "openTimestamp",
              "type": "uint256"
            },
            {
              "internalType": "uint256",
              "name": "closeTimestamp",
              "type": "uint256"
            },
            {
              "internalType": "uint256",
              "name": "takerMargin",
              "type": "uint256"
            },
            {
              "internalType": "address",
              "name": "owner",
              "type": "address"
            },
            {
              "internalType": "address",
              "name": "liquidator",
              "type": "address"
            },
            {
              "internalType": "uint16",
              "name": "_protocolFeeRate",
              "type": "uint16"
            },
            {
              "components": [
                {
                  "internalType": "uint16",
                  "name": "tradingFeeRate",
                  "type": "uint16"
                },
                {
                  "internalType": "uint256",
                  "name": "amount",
                  "type": "uint256"
                }
              ],
              "internalType": "struct BinMargin[]",
              "name": "_binMargins",
              "type": "tuple[]"
            }
          ],
          "indexed": false,
          "internalType": "struct Position",
          "name": "position",
          "type": "tuple"
        }
      ],
      "name": "ClaimPositionByKeeper",
      "type": "event"
    },
    {
      "anonymous": false,
      "inputs": [
        {
          "indexed": true,
          "internalType": "address",
          "name": "account",
          "type": "address"
        },
        {
          "components": [
            {
              "internalType": "uint256",
              "name": "id",
              "type": "uint256"
            },
            {
              "internalType": "uint256",
              "name": "openVersion",
              "type": "uint256"
            },
            {
              "internalType": "uint256",
              "name": "closeVersion",
              "type": "uint256"
            },
            {
              "internalType": "int256",
              "name": "qty",
              "type": "int256"
            },
            {
              "internalType": "uint256",
              "name": "openTimestamp",
              "type": "uint256"
            },
            {
              "internalType": "uint256",
              "name": "closeTimestamp",
              "type": "uint256"
            },
            {
              "internalType": "uint256",
              "name": "takerMargin",
              "type": "uint256"
            },
            {
              "internalType": "address",
              "name": "owner",
              "type": "address"
            },
            {
              "internalType": "address",
              "name": "liquidator",
              "type": "address"
            },
            {
              "internalType": "uint16",
              "name": "_protocolFeeRate",
              "type": "uint16"
            },
            {
              "components": [
                {
                  "internalType": "uint16",
                  "name": "tradingFeeRate",
                  "type": "uint16"
                },
                {
                  "internalType": "uint256",
                  "name": "amount",
                  "type": "uint256"
                }
              ],
              "internalType": "struct BinMargin[]",
              "name": "_binMargins",
              "type": "tuple[]"
            }
          ],
          "indexed": false,
          "internalType": "struct Position",
          "name": "position",
          "type": "tuple"
        }
      ],
      "name": "ClosePosition",
      "type": "event"
    },
    {
      "anonymous": false,
      "inputs": [
        {
          "indexed": false,
          "internalType": "enum DisplayMode",
          "name": "displayModeOld",
          "type": "uint8"
        },
        {
          "indexed": false,
          "internalType": "enum DisplayMode",
          "name": "displayModeNew",
          "type": "uint8"
        }
      ],
      "name": "DisplayModeUpdated",
      "type": "event"
    },
    {
      "anonymous": false,
      "inputs": [
        {
          "indexed": true,
          "internalType": "address",
          "name": "account",
          "type": "address"
        },
        {
          "indexed": true,
          "internalType": "int256",
          "name": "pnl",
          "type": "int256"
        },
        {
          "indexed": true,
          "internalType": "uint256",
          "name": "interest",
          "type": "uint256"
        },
        {
          "indexed": false,
          "internalType": "uint256",
          "name": "usedKeeperFee",
          "type": "uint256"
        },
        {
          "components": [
            {
              "internalType": "uint256",
              "name": "id",
              "type": "uint256"
            },
            {
              "internalType": "uint256",
              "name": "openVersion",
              "type": "uint256"
            },
            {
              "internalType": "uint256",
              "name": "closeVersion",
              "type": "uint256"
            },
            {
              "internalType": "int256",
              "name": "qty",
              "type": "int256"
            },
            {
              "internalType": "uint256",
              "name": "openTimestamp",
              "type": "uint256"
            },
            {
              "internalType": "uint256",
              "name": "closeTimestamp",
              "type": "uint256"
            },
            {
              "internalType": "uint256",
              "name": "takerMargin",
              "type": "uint256"
            },
            {
              "internalType": "address",
              "name": "owner",
              "type": "address"
            },
            {
              "internalType": "address",
              "name": "liquidator",
              "type": "address"
            },
            {
              "internalType": "uint16",
              "name": "_protocolFeeRate",
              "type": "uint16"
            },
            {
              "components": [
                {
                  "internalType": "uint16",
                  "name": "tradingFeeRate",
                  "type": "uint16"
                },
                {
                  "internalType": "uint256",
                  "name": "amount",
                  "type": "uint256"
                }
              ],
              "internalType": "struct BinMargin[]",
              "name": "_binMargins",
              "type": "tuple[]"
            }
          ],
          "indexed": false,
          "internalType": "struct Position",
          "name": "position",
          "type": "tuple"
        }
      ],
      "name": "Liquidate",
      "type": "event"
    },
    {
      "anonymous": false,
      "inputs": [
        {
          "indexed": false,
          "internalType": "enum LiquidityMode",
          "name": "liquidityModeOld",
          "type": "uint8"
        },
        {
          "indexed": false,
          "internalType": "enum LiquidityMode",
          "name": "liquidityModeNew",
          "type": "uint8"
        }
      ],
      "name": "LiquidityModeUpdated",
      "type": "event"
    },
    {
      "anonymous": false,
      "inputs": [
        {
          "indexed": true,
          "internalType": "address",
          "name": "account",
          "type": "address"
        },
        {
          "components": [
            {
              "internalType": "uint256",
              "name": "id",
              "type": "uint256"
            },
            {
              "internalType": "uint256",
              "name": "openVersion",
              "type": "uint256"
            },
            {
              "internalType": "uint256",
              "name": "closeVersion",
              "type": "uint256"
            },
            {
              "internalType": "int256",
              "name": "qty",
              "type": "int256"
            },
            {
              "internalType": "uint256",
              "name": "openTimestamp",
              "type": "uint256"
            },
            {
              "internalType": "uint256",
              "name": "closeTimestamp",
              "type": "uint256"
            },
            {
              "internalType": "uint256",
              "name": "takerMargin",
              "type": "uint256"
            },
            {
              "internalType": "address",
              "name": "owner",
              "type": "address"
            },
            {
              "internalType": "address",
              "name": "liquidator",
              "type": "address"
            },
            {
              "internalType": "uint16",
              "name": "_protocolFeeRate",
              "type": "uint16"
            },
            {
              "components": [
                {
                  "internalType": "uint16",
                  "name": "tradingFeeRate",
                  "type": "uint16"
                },
                {
                  "internalType": "uint256",
                  "name": "amount",
                  "type": "uint256"
                }
              ],
              "internalType": "struct BinMargin[]",
              "name": "_binMargins",
              "type": "tuple[]"
            }
          ],
          "indexed": false,
          "internalType": "struct Position",
          "name": "position",
          "type": "tuple"
        }
      ],
      "name": "OpenPosition",
      "type": "event"
    },
    {
      "anonymous": false,
      "inputs": [
        {
          "indexed": false,
          "internalType": "enum PositionMode",
          "name": "positionModeOld",
          "type": "uint8"
        },
        {
          "indexed": false,
          "internalType": "enum PositionMode",
          "name": "positionModeNew",
          "type": "uint8"
        }
      ],
      "name": "PositionModeUpdated",
      "type": "event"
    },
    {
      "anonymous": false,
      "inputs": [
        {
          "indexed": false,
          "internalType": "uint16",
          "name": "protocolFeeRateOld",
          "type": "uint16"
        },
        {
          "indexed": false,
          "internalType": "uint16",
          "name": "protocolFeeRateNew",
          "type": "uint16"
        }
      ],
      "name": "ProtocolFeeRateUpdated",
      "type": "event"
    },
    {
      "anonymous": false,
      "inputs": [
        {
          "components": [
            {
              "internalType": "uint256",
              "name": "id",
              "type": "uint256"
            },
            {
              "internalType": "uint256",
              "name": "oracleVersion",
              "type": "uint256"
            },
            {
              "internalType": "uint256",
              "name": "amount",
              "type": "uint256"
            },
            {
              "internalType": "address",
              "name": "recipient",
              "type": "address"
            },
            {
              "internalType": "enum LpAction",
              "name": "action",
              "type": "uint8"
            },
            {
              "internalType": "int16",
              "name": "tradingFeeRate",
              "type": "int16"
            }
          ],
          "indexed": false,
          "internalType": "struct LpReceipt",
          "name": "receipt",
          "type": "tuple"
        }
      ],
      "name": "RemoveLiquidity",
      "type": "event"
    },
    {
      "anonymous": false,
      "inputs": [
        {
          "components": [
            {
              "internalType": "uint256",
              "name": "id",
              "type": "uint256"
            },
            {
              "internalType": "uint256",
              "name": "oracleVersion",
              "type": "uint256"
            },
            {
              "internalType": "uint256",
              "name": "amount",
              "type": "uint256"
            },
            {
              "internalType": "address",
              "name": "recipient",
              "type": "address"
            },
            {
              "internalType": "enum LpAction",
              "name": "action",
              "type": "uint8"
            },
            {
              "internalType": "int16",
              "name": "tradingFeeRate",
              "type": "int16"
            }
          ],
          "indexed": false,
          "internalType": "struct LpReceipt[]",
          "name": "receipts",
          "type": "tuple[]"
        }
      ],
      "name": "RemoveLiquidityBatch",
      "type": "event"
    },
    {
      "anonymous": false,
      "inputs": [
        {
          "components": [
            {
              "internalType": "uint256",
              "name": "id",
              "type": "uint256"
            },
            {
              "internalType": "uint256",
              "name": "oracleVersion",
              "type": "uint256"
            },
            {
              "internalType": "uint256",
              "name": "amount",
              "type": "uint256"
            },
            {
              "internalType": "address",
              "name": "recipient",
              "type": "address"
            },
            {
              "internalType": "enum LpAction",
              "name": "action",
              "type": "uint8"
            },
            {
              "internalType": "int16",
              "name": "tradingFeeRate",
              "type": "int16"
            }
          ],
          "indexed": false,
          "internalType": "struct LpReceipt",
          "name": "receipt",
          "type": "tuple"
        },
        {
          "indexed": true,
          "internalType": "uint256",
          "name": "amount",
          "type": "uint256"
        },
        {
          "indexed": true,
          "internalType": "uint256",
          "name": "burnedCLBTokenAmount",
          "type": "uint256"
        }
      ],
      "name": "WithdrawLiquidity",
      "type": "event"
    },
    {
      "anonymous": false,
      "inputs": [
        {
          "components": [
            {
              "internalType": "uint256",
              "name": "id",
              "type": "uint256"
            },
            {
              "internalType": "uint256",
              "name": "oracleVersion",
              "type": "uint256"
            },
            {
              "internalType": "uint256",
              "name": "amount",
              "type": "uint256"
            },
            {
              "internalType": "address",
              "name": "recipient",
              "type": "address"
            },
            {
              "internalType": "enum LpAction",
              "name": "action",
              "type": "uint8"
            },
            {
              "internalType": "int16",
              "name": "tradingFeeRate",
              "type": "int16"
            }
          ],
          "indexed": false,
          "internalType": "struct LpReceipt[]",
          "name": "receipts",
          "type": "tuple[]"
        },
        {
          "indexed": false,
          "internalType": "uint256[]",
          "name": "amounts",
          "type": "uint256[]"
        },
        {
          "indexed": false,
          "internalType": "uint256[]",
          "name": "burnedCLBTokenAmounts",
          "type": "uint256[]"
        }
      ],
      "name": "WithdrawLiquidityBatch",
      "type": "event"
    },
    {
      "inputs": [
        {
          "internalType": "int256",
          "name": "qty",
          "type": "int256"
        },
        {
          "internalType": "uint256",
          "name": "takerMargin",
          "type": "uint256"
        },
        {
          "internalType": "uint256",
          "name": "makerMargin",
          "type": "uint256"
        },
        {
          "internalType": "uint256",
          "name": "maxAllowableTradingFee",
          "type": "uint256"
        },
        {
          "internalType": "bytes",
          "name": "data",
          "type": "bytes"
        }
      ],
      "name": "openPosition",
      "outputs": [
        {
          "components": [
            {
              "internalType": "uint256",
              "name": "id",
              "type": "uint256"
            },
            {
              "internalType": "uint256",
              "name": "openVersion",
              "type": "uint256"
            },
            {
              "internalType": "int256",
              "name": "qty",
              "type": "int256"
            },
            {
              "internalType": "uint256",
              "name": "openTimestamp",
              "type": "uint256"
            },
            {
              "internalType": "uint256",
              "name": "takerMargin",
              "type": "uint256"
            },
            {
              "internalType": "uint256",
              "name": "makerMargin",
              "type": "uint256"
            },
            {
              "internalType": "uint256",
              "name": "tradingFee",
              "type": "uint256"
            }
          ],
          "internalType": "struct OpenPositionInfo",
          "name": "positionInfo",
          "type": "tuple"
        }
      ],
      "stateMutability": "nonpayable",
      "type": "function"
    }
  ],
  "transactionHash": "0xeaa9d04726fa26b98a41382d989ee76112e502d79470441e9e2b3948b4f5526b",
  "args": [],
  "numDeployments": 2,
  "solcInputHash": "273b8e6ab8305e244d89cf15e534ce19",
  "bytecode": "0x608060405234801561001057600080fd5b506001600055613ccf806100256000396000f3fe608060405234801561001057600080fd5b506004361061002b5760003560e01c806340a2940714610030575b600080fd5b61004361003e36600461350a565b6100a2565b6040516100999190600060e082019050825182526020830151602083015260408301516040830152606083015160608301526080830151608083015260a083015160a083015260c083015160c083015292915050565b60405180910390f35b6100e26040518060e00160405280600081526020016000815260200160008152602001600081526020016000815260200160008152602001600081525090565b6100ea61060a565b7f492a974aed1be5cd7fa4ce3b0cfab809a1de17af5ade68dd0729b36f2ed0979754604080517f5e6791ff000000000000000000000000000000000000000000000000000000008152905173ffffffffffffffffffffffffffffffffffffffff90921691635e6791ff9160048181019260009290919082900301818387803b15801561017557600080fd5b505af1158015610189573d6000803e3d6000fd5b5050505060006101b67f492a974aed1be5cd7fa4ce3b0cfab809a1de17af5ade68dd0729b36f2ed0979390565b90506101c181610682565b8054604080517f4046ebae000000000000000000000000000000000000000000000000000000008152905173ffffffffffffffffffffffffffffffffffffffff909216916000918391634046ebae916004808201926020929091908290030181865afa158015610235573d6000803e3d6000fd5b505050506040513d601f19601f8201168201806040525081019061025991906135a2565b905060058301600061026a856106fc565b905061027581610875565b60a08101516040517f27633b5b00000000000000000000000000000000000000000000000000000000815273ffffffffffffffffffffffffffffffffffffffff91821660048201526000918616906327633b5b90602401602060405180830381865afa1580156102e9573d6000803e3d6000fd5b505050506040513d601f19601f8201168201806040525081019061030d91906135d8565b9050808c1015610349576040517fc9b0568900000000000000000000000000000000000000000000000000000000815260040160405180910390fd5b81516040517f861bef2100000000000000000000000000000000000000000000000000000000815273ffffffffffffffffffffffffffffffffffffffff91821660048201526103eb918f918f918f91908a169063861bef2190602401606060405180830381865afa1580156103c2573d6000803e3d6000fd5b505050506040513d601f19601f820116820180604052508101906103e69190613695565b6108f2565b600061040c838f8f8a60070160009054906101000a900461ffff16896109fd565b905061043661042e8483606001518f8689610b7490949392919063ffffffff16565b610140830152565b6104448385838e8e8e610dec565b97506104707f66c47ce73e4b2a78c995f8a8d4e09a542aa61e466eee7c90184ff0142250473e826111ae565b80516040517f8e2cdf68000000000000000000000000000000000000000000000000000000008152600481019190915273ffffffffffffffffffffffffffffffffffffffff861690638e2cdf6890602401600060405180830381600087803b1580156104db57600080fd5b505af11580156104ef573d6000803e3d6000fd5b505050508060e0015173ffffffffffffffffffffffffffffffffffffffff167fd067050794876ad64fedc379456215279d1e37a09f7a09146eb6caf3d76505328260405161053d919061372d565b60405180910390a2505050505050506105737f492a974aed1be5cd7fa4ce3b0cfab809a1de17af5ade68dd0729b36f2ed0979390565b600490810154604080517fb9c87d63000000000000000000000000000000000000000000000000000000008152905173ffffffffffffffffffffffffffffffffffffffff9092169263b9c87d6392828201926000929082900301818387803b1580156105de57600080fd5b505af11580156105f2573d6000803e3d6000fd5b505050506106006001600055565b9695505050505050565b60026000540361067b576040517f08c379a000000000000000000000000000000000000000000000000000000000815260206004820152601f60248201527f5265656e7472616e637947756172643a207265656e7472616e742063616c6c0060448201526064015b60405180910390fd5b6002600055565b600781015462010000900460ff1660018160038111156106a4576106a46137f9565b14806106c1575060038160038111156106bf576106bf6137f9565b145b156106f8576040517f3372068700000000000000000000000000000000000000000000000000000000815260040160405180910390fd5b5050565b61075760408051610100810182526000808252602080830182905282840182905260608084018390526080840183905260a0840183905260c0840183905284519081018552828152908101829052928301529060e082015290565b61077b60405180606001604052806000815260200160008152602001600081525090565b6040805161010081018252600185015473ffffffffffffffffffffffffffffffffffffffff908116825285548116602080840191909152600480880154831684860152600388015483166060850152306080850152600288015490921660a0840181905284517f313ce5670000000000000000000000000000000000000000000000000000000081529451939460c0860194919363313ce567938282019390929091908290030181865afa158015610837573d6000803e3d6000fd5b505050506040513d601f19601f8201168201806040525081019061085b9190613828565b61086690600a613992565b81526020019190915292915050565b806000015173ffffffffffffffffffffffffffffffffffffffff1663fff6cae96040518163ffffffff1660e01b81526004016060604051808303816000875af11580156108c6573d6000803e3d6000fd5b505050506040513d601f19601f820116820180604052508101906108ea91906139a1565b60e090910152565b60006108fd85611383565b905060006109186109106002600a6139dd565b83908761139e565b90506000610925846114ce565b90506109336002600a6139dd565b61093d90826139e9565b821115610976576040517fa4c6cd8a00000000000000000000000000000000000000000000000000000000815260040160405180910390fd5b835161099190849063ffffffff908116906127109061139e16565b8510806109bd57506109ba846020015163ffffffff166127108561139e9092919063ffffffff16565b85115b156109f4576040517fd6b3c14c00000000000000000000000000000000000000000000000000000000815260040160405180910390fd5b50505050505050565b610a8a60405180610160016040528060008152602001600081526020016000815260200160008152602001600081526020016000815260200160008152602001600073ffffffffffffffffffffffffffffffffffffffff168152602001600073ffffffffffffffffffffffffffffffffffffffff168152602001600061ffff168152602001606081525090565b60007f66c47ce73e4b2a78c995f8a8d4e09a542aa61e466eee7c90184ff0142250473e9050604051806101600160405280610ac483611525565b8152602001610ad289611543565b5181526000602080830182905260408084018b90524260608501526080840183905260a084018a90523360c085015273ffffffffffffffffffffffffffffffffffffffff881660e085015261ffff8916610100850152805183815291820190526101209092019190610b66565b6040805180820190915260008082526020820152815260200190600190039081610b3f5790505b509052979650505050505050565b60606000610b8287866115f5565b90506000610b8e61160c565b9050610b986133fb565b600080875b6024831015610c6f578015610c6f576000866000878660248110610bc357610bc3613a00565b602002015161ffff1661ffff1681526020019081526020016000209050610bf38c8261174890919063ffffffff16565b6000610bfe82611835565b9050898110610c6257808311610c2f5782868660248110610c2157610c21613a00565b602002015260009250610c54565b80868660248110610c4257610c42613a00565b6020020152610c518184613a2f565b92505b83610c5e81613a42565b9450505b5050600190920191610b9d565b60408051808201909152600481527f4e45464c0000000000000000000000000000000000000000000000000000000060208201528115610cdc576040517f08c379a00000000000000000000000000000000000000000000000000000000081526004016106729190613ade565b5060008267ffffffffffffffff811115610cf857610cf86135f1565b604051908082528060200260200182016040528015610d3d57816020015b6040805180820190915260008082526020820152815260200190600190039081610d165790505b5090506000805b85821015610dd957868260248110610d5e57610d5e613a00565b602002015115610dce576040518060400160405280898460248110610d8557610d85613a00565b602002015161ffff168152602001888460248110610da557610da5613a00565b6020020151815250838281518110610dbf57610dbf613a00565b60209081029190910101526001015b816001019150610d44565b50909d9c50505050505050505050505050565b610e2c6040518060e00160405280600081526020016000815260200160008152602001600081526020016000815260200160008152602001600081525090565b6000610e3786611868565b90506000610e44876118ca565b905085610e518284613af1565b1115610e89576040517f444f42ff00000000000000000000000000000000000000000000000000000000815260040160405180910390fd5b60a08901516040808b015190517f70a0823100000000000000000000000000000000000000000000000000000000815273ffffffffffffffffffffffffffffffffffffffff8083166004830152600091908416906370a0823190602401602060405180830381865afa158015610f03573d6000803e3d6000fd5b505050506040513d601f19601f82011682018060405250810190610f2791906135d8565b9050600085858c60c00151610f3c9190613af1565b610f469190613af1565b6040517fe19e6332000000000000000000000000000000000000000000000000000000008152909150339063e19e633290610f8d908790879086908f908f90600401613b04565b600060405180830381600087803b158015610fa757600080fd5b505af1158015610fbb573d6000803e3d6000fd5b50506040517f70a0823100000000000000000000000000000000000000000000000000000000815273ffffffffffffffffffffffffffffffffffffffff8681166004830152859350871691506370a0823190602401602060405180830381865afa15801561102d573d6000803e3d6000fd5b505050506040513d601f19601f8201168201806040525081019061105191906135d8565b61105b9190613a2f565b811015611094576040517f65f1072500000000000000000000000000000000000000000000000000000000815260040160405180910390fd5b61109f8c8e8d611926565b8a5160c08c01516040517f10235ad900000000000000000000000000000000000000000000000000000000815273ffffffffffffffffffffffffffffffffffffffff8781166004830152602482019390935260448101919091526064810188905260848101879052908416906310235ad99060a401600060405180830381600087803b15801561112e57600080fd5b505af1158015611142573d6000803e3d6000fd5b505050506040518060e001604052808c6000015181526020018c6020015181526020018c6060015181526020018c6080015181526020018c60c00151815260200161118c8d611a82565b815260200161119b8789613af1565b90529d9c50505050505050505050505050565b80516000908152600180840160209081526040808420855181559185015192820192909255908301516002820155606083015160038201556080830151600482015560a0830151600582015560c0830151600682015560e083015160078201805473ffffffffffffffffffffffffffffffffffffffff9283167fffffffffffffffffffffffff000000000000000000000000000000000000000090911617905561010084015160088301805461012087015161ffff1674010000000000000000000000000000000000000000027fffffffffffffffffffff000000000000000000000000000000000000000000009091169290931691909117919091179055906112bc90600983019061341a565b60005b8261014001515181101561137d57600083610140015182815181106112e6576112e6613a00565b6020026020010151905080602001516000146113745782600901846101400151838151811061131757611317613a00565b602090810291909101810151825460018082018555600094855293839020825160029092020180547fffffffffffffffffffffffffffffffffffffffffffffffffffffffffffff00001661ffff9092169190911781559101519101555b506001016112bf565b50505050565b6000808212156113965781600003611398565b815b92915050565b600080807fffffffffffffffffffffffffffffffffffffffffffffffffffffffffffffffff858709858702925082811083820303915050806000036113f6578382816113ec576113ec613b83565b04925050506114c7565b80841161145f576040517f08c379a000000000000000000000000000000000000000000000000000000000815260206004820152601560248201527f4d6174683a206d756c446976206f766572666c6f7700000000000000000000006044820152606401610672565b600084868809851960019081018716968790049682860381900495909211909303600082900391909104909201919091029190911760038402600290811880860282030280860282030280860282030280860282030280860282030280860290910302029150505b9392505050565b60408101516000908080156114fe576001811461150757600281146115105760038114611519576000925061151e565b600a925061151e565b6014925061151e565b6032925061151e565b606492505b5050919050565b6000816000016000815461153890613a42565b918290555092915050565b61156760405180606001604052806000815260200160008152602001600081525090565b60e0820151516000036115ed57816000015173ffffffffffffffffffffffffffffffffffffffff16639d888e866040518163ffffffff1660e01b8152600401606060405180830381865afa1580156115c3573d6000803e3d6000fd5b505050506040513d601f19601f820116820180604052508101906115e791906139a1565b60e08301525b5060e0015190565b600080821261160457826114c7565b505060010190565b6116146133fb565b50604080516104808101825260018152600260208201526003918101919091526004606082015260056080820152600660a0820152600760c0820152600860e08201526009610100820152600a6101208201526014610140820152601e610160820152602861018082015260326101a0820152603c6101c082015260466101e08201526050610200820152605a610220820152606461024082015260c861026082015261012c6102808201526101906102a08201526101f46102c08201526102586102e08201526102bc610300820152610320808201526103846103408201526103e86103608201526105dc6103808201526107d06103a08201526109c46103c0820152610bb86103e0820152610dac610400820152610fa061042082015261119461044082015261138861046082015290565b6117556015830182611acc565b6117626009830182611c12565b61176f6001830182611d28565b156106f8578154611830826117848582611e33565b61178d86611835565b60608601516040517fbd85b03900000000000000000000000000000000000000000000000000000000815260048101879052869173ffffffffffffffffffffffffffffffffffffffff169063bd85b03990602401602060405180830381865afa1580156117fe573d6000803e3d6000fd5b505050506040513d601f19601f8201168201806040525081019061182291906135d8565b600189019493929190611f62565b505050565b6000611843826015016121b0565b61184f836009016121c3565b600184015461185e9190613a2f565b6113989190613a2f565b6000805b826101400151518110156118c4576118b0836101200151846101400151838151811061189a5761189a613a00565b60200260200101516121d990919063ffffffff16565b6118ba9083613af1565b915060010161186c565b50919050565b6000805b826101400151518110156118c45761191283610120015184610140015183815181106118fc576118fc613a00565b602002602001015161221390919063ffffffff16565b61191c9083613af1565b91506001016118ce565b60006119368483606001516115f5565b9050600061194383611a82565b9050600061195384610140015190565b9050600061196b8560600151848760c0015185612237565b9050600061198186602001518760800151612423565b905060005b8351811015611a775760008482815181106119a3576119a3613a00565b602002602001015190508060200151600014611a6e578382815181106119cb576119cb613a00565b6020026020010151600001518360400181815250508382815181106119f2576119f2613a00565b60209081029190910181015181015160608501528101516080840152610120880151611a6e908a908590611a279085906121d9565b8a60008a8881518110611a3c57611a3c613a00565b60200260200101516000015161ffff1661ffff168152602001908152602001600020612436909392919063ffffffff16565b50600101611986565b505050505050505050565b6000805b826101400151518110156118c4578261014001518181518110611aab57611aab613a00565b60200260200101516020015182611ac29190613af1565b9150600101611a86565b6002820154611adb82826124e5565b611ae457505050565b604080516080810182526003850154815260048501546020820152600585015491810191909152600684015460608201528354611b2890600c860190859042612504565b8060400151846000016000828254611b409190613af1565b90915550506060810151600185018054600090611b5e908490613af1565b90915550611b7190506009850183612546565b506000828152600b8501602090815260409182902083518155908301516001820155908201516002808301919091556060830151600390920191909155611bba90850184612552565b6008840154600d85018054600090611bd3908490613af1565b90915550506000600285018190556003850181905560048501819055600585018190556006850181905560078501819055600890940193909355505050565b6004820154611c2182826124e5565b611c2a57505050565b6002830154611c4090600a850190849042612504565b6005830154835481908590600090611c59908490613bb2565b90915550611c75905081611c706004870186612568565b612581565b846001016000828254611c889190613af1565b90915550506006840154600285018054600090611ca6908490613af1565b90915550506007840154600385018054600090611cc4908490613af1565b90915550611cd7905060048501846125a0565b6009840154600b85018054600090611cf0908490613af1565b909155505060006004850181905560058501819055600685018190556007850181905560088501819055600990940193909355505050565b60005b6006830154600f81810b700100000000000000000000000000000000909204900b1315611deb576000611d60846006016125b6565b600081815260058601602090815260409182902082516060810184528154808252600183015493820184905260029092015493810193909352929350909111611ddd57611daf85600601612630565b508051600003611dd8576000828152600586016020526040812081815560018101829055600201555b611de4565b5050611deb565b5050611d2b565b6000611e158460060154600f81810b700100000000000000000000000000000000909204900b0390565b1115611e2357506001611398565b60018301546114c79083906124e5565b600080611e4360098501846126ed565b90506000611e5082611383565b90506000611e5f866001015490565b90506000808412611e7957611e748383613af1565b611e83565b611e838383613a2f565b604080880151608089015160a08a015192517f4e82c4b700000000000000000000000000000000000000000000000000000000815273ffffffffffffffffffffffffffffffffffffffff91821660048201529281166024840152604483018690529293509190911690634e82c4b790606401602060405180830381865afa158015611f12573d6000803e3d6000fd5b505050506040513d601f19601f82011682018060405250810190611f3691906135d8565b611f4360158901886127ce565b611f4d9083613af1565b611f579190613af1565b979650505050505050565b600080611f71888888866127f1565b9092509050600080611f8e8a611f87868a613af1565b8a88612939565b915091508183111561203257886060015173ffffffffffffffffffffffffffffffffffffffff1663731133e98a60800151888587611fcc9190613a2f565b604051806020016040528060008152506040518563ffffffff1660e01b8152600401611ffb9493929190613bda565b600060405180830381600087803b15801561201557600080fd5b505af1158015612029573d6000803e3d6000fd5b505050506120f8565b818310156120f857886060015173ffffffffffffffffffffffffffffffffffffffff1663f5298aca8a6080015188868661206c9190613a2f565b6040517fffffffff0000000000000000000000000000000000000000000000000000000060e086901b16815273ffffffffffffffffffffffffffffffffffffffff909316600484015260248301919091526044820152606401600060405180830381600087803b1580156120df57600080fd5b505af11580156120f3573d6000803e3d6000fd5b505050505b8315158061210557508015155b156121a4576040808a015160a08b015191517f8b41411700000000000000000000000000000000000000000000000000000000815273ffffffffffffffffffffffffffffffffffffffff92831660048201526024810187905260448101849052911690638b41411790606401600060405180830381600087803b15801561218b57600080fd5b505af115801561219f573d6000803e3d6000fd5b505050505b50505050505050505050565b6005810154815460009161139891613af1565b6006810154600282015460009161139891613af1565b8151602083015160009182916121f59161ffff1661271061139e565b90506122018184612a86565b61220b9082613a2f565b949350505050565b815160208301516000916114c7916122319161ffff1661271061139e565b83612a86565b6060600061224486611383565b905060008490506000845167ffffffffffffffff811115612267576122676135f1565b6040519080825280602002602001820160405280156122ac57816020015b60408051808201909152600080825260208201528152602001906001900390816122855790505b50905060005b600186516122c09190613a2f565b8110156123b15760006122fb8783815181106122de576122de613a00565b6020026020010151602001518a8761139e9092919063ffffffff16565b9050600061233188848151811061231457612314613a00565b6020026020010151602001518b8761139e9092919063ffffffff16565b9050604051806040016040528060008d1261235d5761234f84612a99565b61235890613c15565b612366565b61236684612a99565b81526020018281525084848151811061238157612381613a00565b60209081029190910101526123968287613a2f565b95506123a28186613a2f565b945082600101925050506122b2565b50604051806040016040528060008a126123dc576123ce85612a99565b6123d790613c15565b6123e5565b6123e585612a99565b81526020018381525081600187516123fd9190613a2f565b8151811061240d5761240d613a00565b6020908102919091010152979650505050505050565b61242b61343e565b91825260a082015290565b61243f84611835565b826080015111156040518060400160405280600481526020017f4e45464c00000000000000000000000000000000000000000000000000000000815250906124b4576040517f08c379a00000000000000000000000000000000000000000000000000000000081526004016106729190613ade565b506124c3600985018484612b4b565b808460010160000160008282546124da9190613af1565b909155505050505050565b600081158015906114c757506124fa83611543565b5190911092915050565b8354808211612513575061137d565b821561253e5761252584848385612b59565b8560010160008282546125389190613af1565b90915550505b509092555050565b60006114c78383612c2c565b60038201546106f8906005840190839042612504565b805182546000916114c79161257c85611543565b612c7b565b60006114c782670de0b6b3a764000061259986611383565b919061139e565b60028201546106f8906004840190839042612504565b60006125de8254600f81810b700100000000000000000000000000000000909204900b131590565b15612615576040517f3db2a12a00000000000000000000000000000000000000000000000000000000815260040160405180910390fd5b508054600f0b60009081526001909101602052604090205490565b60006126588254600f81810b700100000000000000000000000000000000909204900b131590565b1561268f576040517f3db2a12a00000000000000000000000000000000000000000000000000000000815260040160405180910390fd5b508054600f0b6000818152600180840160205260408220805492905583547fffffffffffffffffffffffffffffffff000000000000000000000000000000001692016fffffffffffffffffffffffffffffffff169190911790915590565b6000806126f983611543565b845490915060008115612748576000612729670de0b6b3a764000061271d85611383565b60018a0154919061139e565b9050600061273685612da3565b9050612743848383612e28565b925050505b600061275c6127578888612ee0565b612a99565b6127696004890188612ef9565b6127739084613bb2565b61277d9190613bb2565b9050600061278a82611383565b9050600082126127b5576127a9612757826127a48b612fbd565b612fd3565b95505050505050611398565b6127c5612757826127a48b6121c3565b6127a990613c15565b60006127dd6002840183612fe9565b6127e78484613002565b6114c79190613af1565b6001840154600090819061280586826124e5565b612816576000809250925050612930565b60028701546003880154909350831561287f57612834848787613018565b92508388600001600082825461284a9190613af1565b90915550506040805180820182528581526020808201868152600086815260048d019092529290209051815590516001909101555b80156129185760068801805470010000000000000000000000000000000090819004600f0b600081815260078c016020526040902085905582546fffffffffffffffffffffffffffffffff908116600190920116909102179055604080516060810182528281526000602080830182815283850183815287845260058e0190925293909120915182559151600182015590516002909101555b50506000600187018190556002870181905560038701555b94509492505050565b60008060006129668760060154600f81810b700100000000000000000000000000000000909204900b0390565b905060005b818110801561297957508615155b15612a6057600061298d60068a018361304c565b600081815260058b01602052604081206001810154815493945090926129b39190613a2f565b90508015612a52576000806129c9838c8c6130e3565b9050808c106129da578291506129f6565b6129e58c8c8c613018565b91508282106129f357600080fd5b508a5b81846001016000828254612a0a9190613af1565b9250508190555080846002016000828254612a259190613af1565b90915550612a359050828a613af1565b9850612a418189613af1565b9750612a4d818d613a2f565b9b5050505b83600101935050505061296b565b5081876000016000828254612a759190613a2f565b925050819055505094509492505050565b60006114c78361ffff841661271061139e565b60007f7fffffffffffffffffffffffffffffffffffffffffffffffffffffffffffffff821115611396576040517f08c379a000000000000000000000000000000000000000000000000000000000815260206004820152602860248201527f53616665436173743a2076616c756520646f65736e27742066697420696e206160448201527f6e20696e743235360000000000000000000000000000000000000000000000006064820152608401610672565b611830600484018383613100565b6000831580612b685750818310155b612c2057602085015160a08601516040517f705b170e00000000000000000000000000000000000000000000000000000000815273ffffffffffffffffffffffffffffffffffffffff918216600482015260248101879052604481018690526064810185905291169063705b170e90608401602060405180830381865afa158015612bf7573d6000803e3d6000fd5b505050506040513d601f19601f82011682018060405250810190612c1b91906135d8565b612c23565b60005b95945050505050565b6000818152600183016020526040812054612c7357508154600181810184556000848152602080822090930184905584548482528286019093526040902091909155611398565b506000611398565b600080612c87846131f3565b835160408051808201909152600381527f55535000000000000000000000000000000000000000000000000000000000006020820152919250821115612cfa576040517f08c379a00000000000000000000000000000000000000000000000000000000081526004016106729190613ade565b5082516000908214612d9a576040517f7ece075d0000000000000000000000000000000000000000000000000000000081526004810183905273ffffffffffffffffffffffffffffffffffffffff871690637ece075d90602401606060405180830381865afa158015612d71573d6000803e3d6000fd5b505050506040513d601f19601f82011682018060405250810190612d9591906139a1565b612d9c565b835b9050610600815b6000808260400151136040518060400160405280600381526020017f4e5050000000000000000000000000000000000000000000000000000000000081525090612e1a576040517f08c379a00000000000000000000000000000000000000000000000000000000081526004016106729190613ade565b506113988260400151611383565b6000831580612e3657508183145b15612e43575060006114c7565b6000838311612e6757612e596127578486613a2f565b612e6290613c15565b612e74565b612e746127578585613a2f565b90506000851215612eac57612ea97fffffffffffffffffffffffffffffffffffffffffffffffffffffffffffffffff82613c4d565b90505b6000612ec7612757612ebd84611383565b876125998a611383565b905060008212612ed75780610600565b61060081613c15565b60028201546000906114c790600a85019084904261326e565b8154600090612f0883826124e5565b612f16576000915050611398565b6000612f2184611543565b90506000612f3785600001518461257c88611543565b90506000612f4483612da3565b90506000612f5561275789896132ad565b612f6489600101548585612e28565b612f6e9190613bb2565b90506000612f7b82611383565b905060008212612fa357612f96612757828b60030154612fd3565b9650505050505050611398565b612fb4612757828b60020154612fd3565b612f9690613c15565b6007810154600382015460009161139891613af1565b6000818310612fe257816114c7565b5090919050565b60038201546000906114c790600585019084904261326e565b81546000906114c790600c85019084904261326e565b600081156130445761303f826103e885106130335784613037565b6103e85b86919061139e565b61220b565b509192915050565b60008061306f61305b84612a99565b855461306a9190600f0b613bb2565b6132c6565b84549091507001000000000000000000000000000000009004600f90810b9082900b126130c8576040517fb4120f1400000000000000000000000000000000000000000000000000000000815260040160405180910390fd5b600f0b60009081526001939093016020525050604090205490565b600081156130f65761303f84848461139e565b5060009392505050565b825480158061310f5750815181145b6040518060400160405280600381526020017f494f5600000000000000000000000000000000000000000000000000000000008152509061317d576040517f08c379a00000000000000000000000000000000000000000000000000000000081526004016106729190613ade565b5060018401546040830151613192828261335f565b61319c86866125a0565b835186556131aa8183613bb2565b600187015560808401516002870180546000906131c8908490613af1565b909155505060608401516003870180546000906131e6908490613af1565b9091555050505050505050565b60408051808201909152600381527f494f560000000000000000000000000000000000000000000000000000000000602082015260009082613262576040517f08c379a00000000000000000000000000000000000000000000000000000000081526004016106729190613ade565b50611398826001613af1565b6000826000036132805750600061220b565b8454600186015481841161329757915061220b9050565b6132a386868487612b59565b611f579082613af1565b60028201546000906114c790600485019084904261326e565b80600f81900b811461335a576040517f08c379a000000000000000000000000000000000000000000000000000000000815260206004820152602760248201527f53616665436173743a2076616c756520646f65736e27742066697420696e203160448201527f32382062697473000000000000000000000000000000000000000000000000006064820152608401610672565b919050565b600082138015613370575060008113155b806133875750600082128015613387575060008112155b156040518060400160405280600381526020017f495051000000000000000000000000000000000000000000000000000000000081525090611830576040517f08c379a00000000000000000000000000000000000000000000000000000000081526004016106729190613ade565b905290565b6040518061048001604052806024906020820280368337509192915050565b508054600082556002029060005260206000209081019061343b91906134c8565b50565b6040518061012001604052806000815260200160008152602001600081526020016000815260200160008152602001600081526020016000815260200161349f60405180606001604052806000815260200160008152602001600081525090565b81526020016133f660405180606001604052806000815260200160008152602001600081525090565b5b808211156135065780547fffffffffffffffffffffffffffffffffffffffffffffffffffffffffffff0000168155600060018201556002016134c9565b5090565b60008060008060008060a0878903121561352357600080fd5b86359550602087013594506040870135935060608701359250608087013567ffffffffffffffff8082111561355757600080fd5b818901915089601f83011261356b57600080fd5b81358181111561357a57600080fd5b8a602082850101111561358c57600080fd5b6020830194508093505050509295509295509295565b6000602082840312156135b457600080fd5b815173ffffffffffffffffffffffffffffffffffffffff811681146114c757600080fd5b6000602082840312156135ea57600080fd5b5051919050565b7f4e487b7100000000000000000000000000000000000000000000000000000000600052604160045260246000fd5b6040516060810167ffffffffffffffff8111828210171561366a577f4e487b7100000000000000000000000000000000000000000000000000000000600052604160045260246000fd5b60405290565b805163ffffffff8116811461335a57600080fd5b805160ff8116811461335a57600080fd5b6000606082840312156136a757600080fd5b6136af613620565b6136b883613670565b81526136c660208401613670565b60208201526136d760408401613684565b60408201529392505050565b600081518084526020808501945080840160005b83811015613722578151805161ffff16885283015183880152604090960195908201906001016136f7565b509495945050505050565b6020815281516020820152602082015160408201526040820151606082015260608201516080820152608082015160a082015260a082015160c082015260c082015160e0820152600060e083015161010061379f8185018373ffffffffffffffffffffffffffffffffffffffff169052565b84015190506101206137c88482018373ffffffffffffffffffffffffffffffffffffffff169052565b84015190506101406137df8482018361ffff169052565b84015161016084810152905061220b6101808401826136e3565b7f4e487b7100000000000000000000000000000000000000000000000000000000600052602160045260246000fd5b60006020828403121561383a57600080fd5b6114c782613684565b7f4e487b7100000000000000000000000000000000000000000000000000000000600052601160045260246000fd5b600181815b808511156138cb57817fffffffffffffffffffffffffffffffffffffffffffffffffffffffffffffffff048211156138b1576138b1613843565b808516156138be57918102915b93841c9390800290613877565b509250929050565b6000826138e257506001611398565b816138ef57506000611398565b8160018114613905576002811461390f5761392b565b6001915050611398565b60ff84111561392057613920613843565b50506001821b611398565b5060208310610133831016604e8410600b841016171561394e575081810a611398565b6139588383613872565b807fffffffffffffffffffffffffffffffffffffffffffffffffffffffffffffffff0482111561398a5761398a613843565b029392505050565b60006114c760ff8416836138d3565b6000606082840312156139b357600080fd5b6139bb613620565b8251815260208301516020820152604083015160408201528091505092915050565b60006114c783836138d3565b808202811582820484141761139857611398613843565b7f4e487b7100000000000000000000000000000000000000000000000000000000600052603260045260246000fd5b8181038181111561139857611398613843565b60007fffffffffffffffffffffffffffffffffffffffffffffffffffffffffffffffff8203613a7357613a73613843565b5060010190565b6000815180845260005b81811015613aa057602081850181015186830182015201613a84565b5060006020828601015260207fffffffffffffffffffffffffffffffffffffffffffffffffffffffffffffffe0601f83011685010191505092915050565b6020815260006114c76020830184613a7a565b8082018082111561139857611398613843565b600073ffffffffffffffffffffffffffffffffffffffff808816835280871660208401525084604083015260806060830152826080830152828460a0840137600060a0848401015260a07fffffffffffffffffffffffffffffffffffffffffffffffffffffffffffffffe0601f85011683010190509695505050505050565b7f4e487b7100000000000000000000000000000000000000000000000000000000600052601260045260246000fd5b8082018281126000831280158216821582161715613bd257613bd2613843565b505092915050565b73ffffffffffffffffffffffffffffffffffffffff851681528360208201528260408201526080606082015260006106006080830184613a7a565b60007f80000000000000000000000000000000000000000000000000000000000000008203613c4657613c46613843565b5060000390565b808202600082127f800000000000000000000000000000000000000000000000000000000000000084141615613c8557613c85613843565b81810583148215176113985761139861384356fea26469706673582212200f9a3a97e213dfd4addc21ec7b9db427bd0dfe2dff785a0467f8c301fbe1de0564736f6c63430008130033",
  "devdoc": {
    "details": "A contract that manages trading positions.",
    "errors": {
      "AlreadyClosedPosition()": [
        {
          "details": "Throws an error indicating that the position has already been closed."
        }
      ],
      "ClaimPositionCallbackError()": [
        {
          "details": "Throws an error indicating that an error occurred during the claim position callback."
        }
      ],
      "Empty()": [
        {
          "details": "An operation (e.g. {front}) couldn't be completed due to the queue being empty."
        }
      ],
      "ExceedMaxAllowableLeverage()": [
        {
          "details": "Throws an error indicating thatwhen the specified leverage exceeds the maximum allowable leverage level set by the Oracle Provider.      Each Oracle Provider has a specific maximum allowable leverage level, which is determined by the DAO.      The default maximum allowable leverage level is 0, which corresponds to a leverage of up to 10x."
        }
      ],
      "ExceedMaxAllowableTradingFee()": [
        {
          "details": "Throws an error indicating that the total trading fee (including protocol fee) exceeds the maximum allowable trading fee."
        }
      ],
      "InvalidLpReceiptAction()": [
        {
          "details": "Throws an error indicating that the liquidity receipt action is invalid."
        }
      ],
      "InvalidTransferredTokenAmount()": [
        {
          "details": "Throws an error indicating that the transferred token amount is invalid.      This error is thrown when the transferred token amount does not match the expected amount."
        }
      ],
      "NotAllowableMakerMargin()": [
        {
          "details": "Throws an error indicating that the maker margin value is not within the allowable range based on the absolute quantity and the specified minimum/maximum take-profit basis points (BPS).      The maker margin must fall within the range calculated based on the absolute quantity of the position and the specified minimum/maximum take-profit basis points (BPS) set by the Oracle Provider.      The default range for the minimum/maximum take-profit basis points is 10% to 1000%."
        }
      ],
      "NotClaimableLpReceipt()": [
        {
          "details": "Throws an error indicating that the liquidity receipt is not claimable."
        }
      ],
      "NotClaimablePosition()": [
        {
          "details": "Throws an error indicating that the position is not claimable."
        }
      ],
      "NotEnoughMarginTransferred()": [
        {
          "details": "Throws an error indicating that the margin settlement token balance does not increase by the required margin amount after the callback."
        }
      ],
      "NotExistLpReceipt()": [
        {
          "details": "Throws an error indicating that the specified liquidity receipt does not exist."
        }
      ],
      "NotExistPosition()": [
        {
          "details": "Throws an error indicating that the requested position does not exist."
        }
      ],
      "NotPermitted()": [
        {
          "details": "Throws an error indicating that the caller is not permitted to perform the action as they are not the owner of the position."
        }
      ],
      "NotWithdrawableLpReceipt()": [
        {
          "details": "Throws an error indicating that the liquidity receipt is not withdrawable."
        }
      ],
      "OnlyAccessableByDao()": [
        {
          "details": "Throws an error indicating that the caller is not the DAO."
        }
      ],
      "OnlyAccessableByFactoryOrDao()": [
        {
          "details": "Throws an error indicating that the caller is nether the chormatic factory contract nor the DAO."
        }
      ],
      "OnlyAccessableByLiquidator()": [
        {
          "details": "Throws an error indicating that the caller is not the chromatic liquidator contract."
        }
      ],
      "OnlyAccessableByVault()": [
        {
          "details": "Throws an error indicating that the caller is not the chromatch vault contract."
        }
      ],
      "OutOfBounds()": [
        {
          "details": "An operation (e.g. {at}) couldn't be completed due to an index being out of bounds."
        }
      ],
      "TooSmallAmount()": [
        {
          "details": "Throws an error indicating that the amount of liquidity is too small.      This error is thrown when attempting to remove liquidity with an amount of zero."
        }
      ],
      "TooSmallTakerMargin()": [
        {
          "details": "Throws an error indicating that the taker margin provided is smaller than the minimum required margin for the specific settlement token.      The minimum required margin is determined by the DAO and represents the minimum amount required for operations such as liquidation and payment of keeper fees."
        }
      ]
    },
    "events": {
      "AddLiquidity((uint256,uint256,uint256,address,uint8,int16))": {
        "details": "Emitted when liquidity is added to the market.",
        "params": {
          "receipt": "The liquidity receipt."
        }
      },
      "AddLiquidityBatch((uint256,uint256,uint256,address,uint8,int16)[])": {
        "details": "Emitted when liquidity is added to the market.",
        "params": {
          "receipts": "An array of LP receipts."
        }
      },
      "ClaimLiquidity((uint256,uint256,uint256,address,uint8,int16),uint256)": {
        "details": "Emitted when liquidity is claimed from the market.",
        "params": {
          "clbTokenAmount": "The amount of CLB tokens claimed.",
          "receipt": "The liquidity receipt."
        }
      },
      "ClaimLiquidityBatch((uint256,uint256,uint256,address,uint8,int16)[],uint256[])": {
        "details": "Emitted when liquidity is claimed from the market.",
        "params": {
          "clbTokenAmounts": "The amount list of CLB tokens claimed.",
          "receipts": "An array of LP receipts."
        }
      },
      "ClaimPosition(address,int256,uint256,(uint256,uint256,uint256,int256,uint256,uint256,uint256,address,address,uint16,(uint16,uint256)[]))": {
        "details": "Emitted when a position is claimed.",
        "params": {
          "account": "The address of the account claiming the position.",
          "interest": "The interest paid for the claimed position.",
          "pnl": "The profit or loss of the claimed position.",
          "position": "The claimed position."
        }
      },
      "ClaimPositionByKeeper(address,int256,uint256,uint256,(uint256,uint256,uint256,int256,uint256,uint256,uint256,address,address,uint16,(uint16,uint256)[]))": {
        "details": "Emitted when a position is claimed by keeper.",
        "params": {
          "account": "The address of the account claiming the position.",
          "interest": "The interest paid for the claimed position.",
          "pnl": "The profit or loss of the claimed position.",
          "position": "The claimed position.",
          "usedKeeperFee": "The amount of keeper fee used for the liquidation."
        }
      },
      "ClosePosition(address,(uint256,uint256,uint256,int256,uint256,uint256,uint256,address,address,uint16,(uint16,uint256)[]))": {
        "details": "Emitted when a position is closed.",
        "params": {
          "account": "The address of the account closing the position.",
          "position": "The closed position."
        }
      },
      "DisplayModeUpdated(uint8,uint8)": {
        "params": {
          "displayModeNew": "The updated value of the display mode",
          "displayModeOld": "The previous value of the display mode"
        }
      },
      "Liquidate(address,int256,uint256,uint256,(uint256,uint256,uint256,int256,uint256,uint256,uint256,address,address,uint16,(uint16,uint256)[]))": {
        "details": "Emitted when a position is liquidated.",
        "params": {
          "account": "The address of the account being liquidated.",
          "interest": "The interest paid for the claimed position.",
          "pnl": "The profit or loss of the claimed position.",
          "position": "The liquidated position.",
          "usedKeeperFee": "The amount of keeper fee used for the liquidation."
        }
      },
      "LiquidityModeUpdated(uint8,uint8)": {
        "params": {
          "liquidityModeNew": "The updated value of the liquidity mode",
          "liquidityModeOld": "The previous value of the liquidity mode"
        }
      },
      "OpenPosition(address,(uint256,uint256,uint256,int256,uint256,uint256,uint256,address,address,uint16,(uint16,uint256)[]))": {
        "details": "Emitted when a position is opened.",
        "params": {
          "account": "The address of the account opening the position.",
          "position": "The opened position."
        }
      },
      "PositionModeUpdated(uint8,uint8)": {
        "params": {
          "positionModeNew": "The updated value of the position mode",
          "positionModeOld": "The previous value of the position mode"
        }
      },
      "ProtocolFeeRateUpdated(uint16,uint16)": {
        "params": {
          "protocolFeeRateNew": "The updated value of the protocol fee rate",
          "protocolFeeRateOld": "The previous value of the protocol fee rate"
        }
      },
      "RemoveLiquidity((uint256,uint256,uint256,address,uint8,int16))": {
        "details": "Emitted when liquidity is removed from the market.",
        "params": {
          "receipt": "The liquidity receipt."
        }
      },
      "RemoveLiquidityBatch((uint256,uint256,uint256,address,uint8,int16)[])": {
        "details": "Emitted when liquidity is removed from the market.",
        "params": {
          "receipts": "An array of LP receipts."
        }
      },
      "WithdrawLiquidity((uint256,uint256,uint256,address,uint8,int16),uint256,uint256)": {
        "details": "Emitted when liquidity is withdrawn from the market.",
        "params": {
          "amount": "The amount of liquidity withdrawn.",
          "burnedCLBTokenAmount": "The amount of burned CLB tokens.",
          "receipt": "The liquidity receipt."
        }
      },
      "WithdrawLiquidityBatch((uint256,uint256,uint256,address,uint8,int16)[],uint256[],uint256[])": {
        "details": "Emitted when liquidity is withdrawn from the market.",
        "params": {
          "amounts": "The amount list of liquidity withdrawn.",
          "burnedCLBTokenAmounts": "The amount list of burned CLB tokens.",
          "receipts": "An array of LP receipts."
        }
      }
    },
    "kind": "dev",
    "methods": {
      "openPosition(int256,uint256,uint256,uint256,bytes)": {
        "details": "Throws a `TooSmallTakerMargin` error if the `takerMargin` is smaller than the minimum required margin for the settlement token.      Throws an `ExceedMaxAllowableLeverage` if the leverage exceeds the maximum allowable leverage.      Throws a `NotAllowableMakerMargin` if the maker margin is not within the allowable range based on the absolute quantity and min/max take-profit basis points (BPS).      Throws an `ExceedMaxAllowableTradingFee` if the total trading fee (including protocol fee) exceeds the maximum allowable trading fee (`maxAllowableTradingFee`).      Throws a `NotEnoughMarginTransferred` if the margin settlement token balance did not increase by the required margin amount after the callback. Requirements:  - The `takerMargin` must be greater than or equal to the minimum required margin for the settlement token.  - The position parameters must pass the validity check, including leverage limits and allowable margin ranges.  - The position is assigned a new ID and stored in the position storage.  - A keeper task for potential liquidation is created by the liquidator.  - An `OpenPosition` event is emitted with the owner's address and the newly opened position details.",
        "params": {
          "data": "Additional data for the position callback.",
          "makerMargin": "The margin amount provided by the maker.",
          "maxAllowableTradingFee": "The maximum allowable trading fee for the position.",
          "qty": "The quantity of the position.",
          "takerMargin": "The margin amount provided by the taker."
        },
        "returns": {
          "positionInfo": "The opened position."
        }
      }
    },
    "title": "MarketTradeOpenPositionFacet",
    "version": 1
  },
  "userdoc": {
    "events": {
      "DisplayModeUpdated(uint8,uint8)": {
        "notice": "Emitted when the display mode of the market is changed"
      },
      "LiquidityModeUpdated(uint8,uint8)": {
        "notice": "Emitted when the liquidity mode of the market is changed"
      },
      "PositionModeUpdated(uint8,uint8)": {
        "notice": "Emitted when the position mode of the market is changed"
      },
      "ProtocolFeeRateUpdated(uint16,uint16)": {
        "notice": "Emitted when the protocol fee rate of the market is changed"
      }
    },
    "kind": "user",
    "methods": {},
    "version": 1
  },
  "storageLayout": {
    "storage": [
      {
        "astId": 105,
        "contract": "contracts/core/facets/market/MarketTradeOpenPositionFacet.sol:MarketTradeOpenPositionFacet",
        "label": "_status",
        "offset": 0,
        "slot": "0",
        "type": "t_uint256"
      }
    ],
    "types": {
      "t_uint256": {
        "encoding": "inplace",
        "label": "uint256",
        "numberOfBytes": "32"
      }
    }
  }
}