{
  "address": "0x4D54c6AEC4b35872D38f90ea9C4E53B2fb7dE411",
  "abi": [
    {
      "inputs": [
        {
          "internalType": "contract IChromaticMarketFactory",
          "name": "_factory",
          "type": "address"
        },
        {
          "internalType": "address",
          "name": "_automate",
          "type": "address"
        }
      ],
      "stateMutability": "nonpayable",
      "type": "constructor"
    },
    {
      "inputs": [],
      "name": "OnlyAccessableByDao",
      "type": "error"
    },
    {
      "inputs": [],
      "name": "OnlyAccessableByMarket",
      "type": "error"
    },
    {
      "anonymous": false,
      "inputs": [
        {
          "indexed": false,
          "internalType": "uint32",
          "name": "gasLimitOld",
          "type": "uint32"
        },
        {
          "indexed": false,
          "internalType": "uint32",
          "name": "gasLimitNew",
          "type": "uint32"
        }
      ],
      "name": "UpkeepGasLimitUpdated",
      "type": "event"
    },
    {
      "anonymous": false,
      "inputs": [
        {
          "indexed": false,
          "internalType": "uint256",
          "name": "waitPositionClaimOld",
          "type": "uint256"
        },
        {
          "indexed": false,
          "internalType": "uint256",
          "name": "waitPositionClaimNew",
          "type": "uint256"
        }
      ],
      "name": "WaitPositionClaimUpdated",
      "type": "event"
    },
    {
      "anonymous": false,
      "inputs": [
        {
          "indexed": false,
          "internalType": "string",
          "name": "_name",
          "type": "string"
        },
        {
          "indexed": false,
          "internalType": "string",
          "name": "_err",
          "type": "string"
        }
      ],
      "name": "catchErr",
      "type": "event"
    },
    {
      "inputs": [],
      "name": "DEFAULT_UPKEEP_GAS_LIMIT",
      "outputs": [
        {
          "internalType": "uint32",
          "name": "",
          "type": "uint32"
        }
      ],
      "stateMutability": "view",
      "type": "function"
    },
    {
      "inputs": [],
      "name": "DEFAULT_WAIT_POSITION_CLAIM",
      "outputs": [
        {
          "internalType": "uint256",
          "name": "",
          "type": "uint256"
        }
      ],
      "stateMutability": "view",
      "type": "function"
    },
    {
      "inputs": [],
      "name": "automate",
      "outputs": [
        {
          "internalType": "contract IMate2AutomationRegistry1_1",
          "name": "",
          "type": "address"
        }
      ],
      "stateMutability": "view",
      "type": "function"
    },
    {
      "inputs": [
        {
          "internalType": "uint256",
          "name": "positionId",
          "type": "uint256"
        }
      ],
      "name": "cancelClaimPositionTask",
      "outputs": [],
      "stateMutability": "nonpayable",
      "type": "function"
    },
    {
      "inputs": [
        {
          "internalType": "uint256",
          "name": "positionId",
          "type": "uint256"
        }
      ],
      "name": "cancelLiquidationTask",
      "outputs": [],
      "stateMutability": "nonpayable",
      "type": "function"
    },
    {
      "inputs": [
        {
          "internalType": "uint256",
          "name": "upkeepId",
          "type": "uint256"
        }
      ],
      "name": "cancelUpkeep",
      "outputs": [],
      "stateMutability": "nonpayable",
      "type": "function"
    },
    {
      "inputs": [
        {
          "internalType": "bytes",
          "name": "checkData",
          "type": "bytes"
        },
        {
          "internalType": "bytes",
          "name": "extraData",
          "type": "bytes"
        }
      ],
      "name": "checkUpkeep",
      "outputs": [
        {
          "internalType": "bool",
          "name": "upkeepNeeded",
          "type": "bool"
        },
        {
          "internalType": "bytes",
          "name": "performData",
          "type": "bytes"
        }
      ],
      "stateMutability": "view",
      "type": "function"
    },
    {
      "inputs": [
        {
          "internalType": "address",
          "name": "market",
          "type": "address"
        },
        {
          "internalType": "uint256",
          "name": "positionId",
          "type": "uint256"
        }
      ],
      "name": "claimPosition",
      "outputs": [],
      "stateMutability": "nonpayable",
      "type": "function"
    },
    {
      "inputs": [
        {
          "internalType": "uint256",
          "name": "positionId",
          "type": "uint256"
        }
      ],
      "name": "createClaimPositionTask",
      "outputs": [],
      "stateMutability": "nonpayable",
      "type": "function"
    },
    {
      "inputs": [
        {
          "internalType": "uint256",
          "name": "positionId",
          "type": "uint256"
        }
      ],
      "name": "createLiquidationTask",
      "outputs": [],
      "stateMutability": "nonpayable",
      "type": "function"
    },
    {
      "inputs": [],
      "name": "factory",
      "outputs": [
        {
          "internalType": "contract IChromaticMarketFactory",
          "name": "",
          "type": "address"
        }
      ],
      "stateMutability": "view",
      "type": "function"
    },
    {
      "inputs": [
        {
          "internalType": "address",
          "name": "market",
          "type": "address"
        },
        {
          "internalType": "uint256",
          "name": "positionId",
          "type": "uint256"
        }
      ],
      "name": "getClaimPositionTaskId",
      "outputs": [
        {
          "internalType": "bytes32",
          "name": "taskId",
          "type": "bytes32"
        }
      ],
      "stateMutability": "view",
      "type": "function"
    },
    {
      "inputs": [
        {
          "internalType": "address",
          "name": "market",
          "type": "address"
        },
        {
          "internalType": "uint256",
          "name": "positionId",
          "type": "uint256"
        }
      ],
      "name": "getClaimPositionUpkeepId",
      "outputs": [
        {
          "internalType": "uint256",
          "name": "upkeepId",
          "type": "uint256"
        }
      ],
      "stateMutability": "view",
      "type": "function"
    },
    {
      "inputs": [
        {
          "internalType": "address",
          "name": "market",
          "type": "address"
        },
        {
          "internalType": "uint256",
          "name": "positionId",
          "type": "uint256"
        }
      ],
      "name": "getLiquidationTaskId",
      "outputs": [
        {
          "internalType": "bytes32",
          "name": "taskId",
          "type": "bytes32"
        }
      ],
      "stateMutability": "view",
      "type": "function"
    },
    {
      "inputs": [
        {
          "internalType": "address",
          "name": "market",
          "type": "address"
        },
        {
          "internalType": "uint256",
          "name": "positionId",
          "type": "uint256"
        }
      ],
      "name": "getLiquidationUpkeepId",
      "outputs": [
        {
          "internalType": "uint256",
          "name": "upkeepId",
          "type": "uint256"
        }
      ],
      "stateMutability": "view",
      "type": "function"
    },
    {
      "inputs": [
        {
          "internalType": "address",
          "name": "market",
          "type": "address"
        },
        {
          "internalType": "uint256",
          "name": "positionId",
          "type": "uint256"
        }
      ],
      "name": "liquidate",
      "outputs": [],
      "stateMutability": "nonpayable",
      "type": "function"
    },
    {
      "inputs": [
        {
          "internalType": "bytes",
          "name": "performData",
          "type": "bytes"
        }
      ],
      "name": "performUpkeep",
      "outputs": [],
      "stateMutability": "nonpayable",
      "type": "function"
    },
    {
      "inputs": [
        {
          "internalType": "address",
          "name": "_market",
          "type": "address"
        },
        {
          "internalType": "uint256",
          "name": "positionId",
          "type": "uint256"
        },
        {
          "internalType": "bytes",
          "name": "extraData",
          "type": "bytes"
        }
      ],
      "name": "resolveClaimPosition",
      "outputs": [
        {
          "internalType": "bool",
          "name": "canExec",
          "type": "bool"
        },
        {
          "internalType": "bytes",
          "name": "execPayload",
          "type": "bytes"
        }
      ],
      "stateMutability": "view",
      "type": "function"
    },
    {
      "inputs": [
        {
          "internalType": "address",
          "name": "_market",
          "type": "address"
        },
        {
          "internalType": "uint256",
          "name": "positionId",
          "type": "uint256"
        },
        {
          "internalType": "bytes",
          "name": "extraData",
          "type": "bytes"
        }
      ],
      "name": "resolveLiquidation",
      "outputs": [
        {
          "internalType": "bool",
          "name": "canExec",
          "type": "bool"
        },
        {
          "internalType": "bytes",
          "name": "execPayload",
          "type": "bytes"
        }
      ],
      "stateMutability": "view",
      "type": "function"
    },
    {
      "inputs": [
        {
          "internalType": "uint32",
          "name": "gasLimit",
          "type": "uint32"
        }
      ],
      "name": "updateUpkeepGasLimit",
      "outputs": [],
      "stateMutability": "nonpayable",
      "type": "function"
    },
    {
      "inputs": [
        {
          "internalType": "uint256",
          "name": "_waitPositionClaim",
          "type": "uint256"
        }
      ],
      "name": "updateWaitPositionClaim",
      "outputs": [],
      "stateMutability": "nonpayable",
      "type": "function"
    },
    {
      "inputs": [],
      "name": "upkeepGasLimit",
      "outputs": [
        {
          "internalType": "uint32",
          "name": "",
          "type": "uint32"
        }
      ],
      "stateMutability": "view",
      "type": "function"
    },
    {
      "inputs": [],
      "name": "waitPositionClaim",
      "outputs": [
        {
          "internalType": "uint256",
          "name": "",
          "type": "uint256"
        }
      ],
      "stateMutability": "view",
      "type": "function"
    }
  ],
  "transactionHash": "0x4947ff271827dddbbb000f6202b1bb0f7fe032a5a1bb249f69d9b7eec726e272",
  "args": [
    "0x0b216AB26E20d6caA770B18596A3D53B683638B4",
    "0x2959Cac7c8fB17Af213f6aA9ea50C3779FcEbbEa"
  ],
  "numDeployments": 1,
  "solcInputHash": "71c3aeeba7d5a01b1e8420c0e0232b6e",
  "bytecode": "0x60c06040523480156200001157600080fd5b50604051620024253803806200242583398101604081905262000034916200007e565b6001600160a01b039182166080521660a0526000805463ffffffff19166298968017905562015180600155620000bd565b6001600160a01b03811681146200007b57600080fd5b50565b600080604083850312156200009257600080fd5b82516200009f8162000065565b6020840151909250620000b28162000065565b809150509250929050565b60805160a0516122ee62000137600039600081816101eb015281816112f901528181611490015281816117190152818161194401526119d401526000818161036d01528181610438015281816104fe0152818161069401528181610a7e01528181610b4401528181610ca101526111d901526122ee6000f3fe608060405234801561001057600080fd5b506004361061018c5760003560e01c8063911ac55e116100e3578063bcbaf4871161008c578063e9fcf1f611610066578063e9fcf1f6146103a2578063edebcf86146103b5578063fe1d3485146103c857600080fd5b8063bcbaf48714610355578063c45a015514610368578063c80480221461038f57600080fd5b80639eea5257116100bd5780639eea52571461031f578063a9ea1f8014610332578063b553b5361461034257600080fd5b8063911ac55e146102e657806396f823b4146102f95780639d920c391461030c57600080fd5b8063373fa760116101455780638b6146121161011f5780638b614612146102c05780638dd9b7e6146102c95780638e2cdf68146102d357600080fd5b8063373fa760146102795780634585e33b1461028c578063657562711461029f57600080fd5b8063139f34cf11610176578063139f34cf1461023257806316d0d82f146102475780632d0534c71461025a57600080fd5b806217849814610191578063049aacfe146101e6575b600080fd5b6101d361019f366004611a1b565b73ffffffffffffffffffffffffffffffffffffffff9091166000908152600360209081526040808320938352929052205490565b6040519081526020015b60405180910390f35b61020d7f000000000000000000000000000000000000000000000000000000000000000081565b60405173ffffffffffffffffffffffffffffffffffffffff90911681526020016101dd565b610245610240366004611a47565b61040a565b005b610245610255366004611a60565b6104fc565b6102646298968081565b60405163ffffffff90911681526020016101dd565b610245610287366004611a47565b610666565b61024561029a366004611b46565b610764565b6102b26102ad366004611c15565b6109a6565b6040516101dd929190611cef565b6101d360015481565b6101d36201518081565b6102456102e1366004611a47565b610a50565b6102456102f4366004611a47565b610b42565b610245610307366004611a47565b610c73565b6101d361031a366004611a1b565b610d62565b6102b261032d366004611d12565b610d9b565b6000546102649063ffffffff1681565b6102b2610350366004611d12565b611045565b610245610363366004611a1b565b61112f565b61020d7f000000000000000000000000000000000000000000000000000000000000000081565b61024561039d366004611a47565b6111d7565b6102456103b0366004611a1b565b611366565b6101d36103c3366004611a1b565b6113da565b6101d36103d6366004611a1b565b73ffffffffffffffffffffffffffffffffffffffff9091166000908152600260209081526040808320938352929052205490565b6040517f4a58e49e0000000000000000000000000000000000000000000000000000000081523360048201527f000000000000000000000000000000000000000000000000000000000000000073ffffffffffffffffffffffffffffffffffffffff1690634a58e49e90602401602060405180830381865afa158015610494573d6000803e3d6000fd5b505050506040513d601f19601f820116820180604052508101906104b89190611d62565b6104ee576040517f1353f3f100000000000000000000000000000000000000000000000000000000815260040160405180910390fd5b6104f9600382611410565b50565b7f000000000000000000000000000000000000000000000000000000000000000073ffffffffffffffffffffffffffffffffffffffff16634162169f6040518163ffffffff1660e01b8152600401602060405180830381865afa158015610567573d6000803e3d6000fd5b505050506040513d601f19601f8201168201806040525081019061058b9190611d84565b73ffffffffffffffffffffffffffffffffffffffff163373ffffffffffffffffffffffffffffffffffffffff16146105ef576040517f808ca14f00000000000000000000000000000000000000000000000000000000815260040160405180910390fd5b6000805463ffffffff8381167fffffffffffffffffffffffffffffffffffffffffffffffffffffffff0000000083168117909355604080519190921680825260208201939093527fa3712acf4c1617a1da00c315e0718fcedb43a2940ec2d43d66f3b8121282ffbd91015b60405180910390a15050565b6040517f4a58e49e0000000000000000000000000000000000000000000000000000000081523360048201527f000000000000000000000000000000000000000000000000000000000000000073ffffffffffffffffffffffffffffffffffffffff1690634a58e49e90602401602060405180830381865afa1580156106f0573d6000803e3d6000fd5b505050506040513d601f19601f820116820180604052508101906107149190611d62565b61074a576040517f1353f3f100000000000000000000000000000000000000000000000000000000815260040160405180910390fd5b6104f9600382600180544261075f9190611da1565b611561565b6000806000808480602001905181019061077e9190611e40565b92965090945092509050600082600181111561079c5761079c611eae565b0361097c5760008473ffffffffffffffffffffffffffffffffffffffff16630aa7d2f96040518163ffffffff1660e01b8152600401602060405180830381865afa1580156107ee573d6000803e3d6000fd5b505050506040513d601f19601f820116820180604052508101906108129190611d84565b905061081d81611835565b1561096c578473ffffffffffffffffffffffffffffffffffffffff1663c45a01556040518163ffffffff1660e01b8152600401602060405180830381865afa15801561086d573d6000803e3d6000fd5b505050506040513d601f19601f820116820180604052508101906108919190611d84565b73ffffffffffffffffffffffffffffffffffffffff1663ebe55aff6040518163ffffffff1660e01b8152600401602060405180830381865afa1580156108db573d6000803e3d6000fd5b505050506040513d601f19601f820116820180604052508101906108ff9190611d84565b73ffffffffffffffffffffffffffffffffffffffff1663d6c6b09f86846040518363ffffffff1660e01b8152600401610939929190611edd565b600060405180830381600087803b15801561095357600080fd5b505af1158015610967573d6000803e3d6000fd5b505050505b610976858561112f565b5061099f565b600182600181111561099057610990611eae565b0361099f5761099f8484611366565b5050505050565b60006060818080806109ba898b018b611f0c565b9296509094509250905060008260018111156109d8576109d8611eae565b036109f6576109e984848a8a610d9b565b9550955050505050610a47565b6001826001811115610a0a57610a0a611eae565b03610a425780421015610a36576000604051806020016040528060008152509550955050505050610a47565b6109e984848a8a611045565b505050505b94509492505050565b6040517f4a58e49e0000000000000000000000000000000000000000000000000000000081523360048201527f000000000000000000000000000000000000000000000000000000000000000073ffffffffffffffffffffffffffffffffffffffff1690634a58e49e90602401602060405180830381865afa158015610ada573d6000803e3d6000fd5b505050506040513d601f19601f82011682018060405250810190610afe9190611d62565b610b34576040517f1353f3f100000000000000000000000000000000000000000000000000000000815260040160405180910390fd5b6104f9600282600080611561565b7f000000000000000000000000000000000000000000000000000000000000000073ffffffffffffffffffffffffffffffffffffffff16634162169f6040518163ffffffff1660e01b8152600401602060405180830381865afa158015610bad573d6000803e3d6000fd5b505050506040513d601f19601f82011682018060405250810190610bd19190611d84565b73ffffffffffffffffffffffffffffffffffffffff163373ffffffffffffffffffffffffffffffffffffffff1614610c35576040517f808ca14f00000000000000000000000000000000000000000000000000000000815260040160405180910390fd5b600180549082905560408051828152602081018490527fcca6c36740a84d1c5efca67daa98977d74967f6454a637fd1ae26331b6ecc235910161065a565b6040517f4a58e49e0000000000000000000000000000000000000000000000000000000081523360048201527f000000000000000000000000000000000000000000000000000000000000000073ffffffffffffffffffffffffffffffffffffffff1690634a58e49e90602401602060405180830381865afa158015610cfd573d6000803e3d6000fd5b505050506040513d601f19601f82011682018060405250810190610d219190611d62565b610d57576040517f1353f3f100000000000000000000000000000000000000000000000000000000815260040160405180910390fd5b6104f9600282611410565b73ffffffffffffffffffffffffffffffffffffffff821660009081526003602090815260408083208484529091528120545b9392505050565b6000606060008673ffffffffffffffffffffffffffffffffffffffff16630aa7d2f96040518163ffffffff1660e01b8152600401602060405180830381865afa158015610dec573d6000803e3d6000fd5b505050506040513d601f19601f82011682018060405250810190610e109190611d84565b90506000610e1d82611835565b15610f595760008290508873ffffffffffffffffffffffffffffffffffffffff1663f9c6631a898373ffffffffffffffffffffffffffffffffffffffff1663085d9ce88b8b6040518363ffffffff1660e01b8152600401610e7f929190611f9d565b606060405180830381865afa158015610e9c573d6000803e3d6000fd5b505050506040513d601f19601f82011682018060405250810190610ec09190611fb1565b604080517fffffffff0000000000000000000000000000000000000000000000000000000060e086901b1681526004810193909352815160248401526020820151604484015201516064820152608401602060405180830381865afa158015610f2d573d6000803e3d6000fd5b505050506040513d601f19601f82011682018060405250810190610f519190611d62565b915050610feb565b6040517fb86f6aef0000000000000000000000000000000000000000000000000000000081526004810188905273ffffffffffffffffffffffffffffffffffffffff89169063b86f6aef90602401602060405180830381865afa158015610fc4573d6000803e3d6000fd5b505050506040513d601f19601f82011682018060405250810190610fe89190611d62565b90505b801561102757600188886000898960405160200161100d959493929190612021565b604051602081830303815290604052935093505050610a47565b50506040805160208101909152600080825297909650945050505050565b6040517fc4f865b20000000000000000000000000000000000000000000000000000000081526004810184905260009060609073ffffffffffffffffffffffffffffffffffffffff87169063c4f865b290602401602060405180830381865afa1580156110b6573d6000803e3d6000fd5b505050506040513d601f19601f820116820180604052508101906110da9190611d62565b156111135760018686600187876040516020016110fb959493929190612021565b60405160208183030381529060405291509150610a47565b5050604080516020810190915260008082529094509492505050565b60008061113a61193f565b6040517f79bd1eac0000000000000000000000000000000000000000000000000000000081526004810186905273ffffffffffffffffffffffffffffffffffffffff808316602483015260448201849052929450909250908516906379bd1eac906064015b600060405180830381600087803b1580156111b957600080fd5b505af11580156111cd573d6000803e3d6000fd5b5050505050505050565b7f000000000000000000000000000000000000000000000000000000000000000073ffffffffffffffffffffffffffffffffffffffff16634162169f6040518163ffffffff1660e01b8152600401602060405180830381865afa158015611242573d6000803e3d6000fd5b505050506040513d601f19601f820116820180604052508101906112669190611d84565b73ffffffffffffffffffffffffffffffffffffffff163373ffffffffffffffffffffffffffffffffffffffff16146112ca576040517f808ca14f00000000000000000000000000000000000000000000000000000000815260040160405180910390fd5b6040517fc8048022000000000000000000000000000000000000000000000000000000008152600481018290527f000000000000000000000000000000000000000000000000000000000000000073ffffffffffffffffffffffffffffffffffffffff169063c804802290602401600060405180830381600087803b15801561135257600080fd5b505af115801561099f573d6000803e3d6000fd5b60008061137161193f565b6040517fde7c8cc20000000000000000000000000000000000000000000000000000000081526004810186905273ffffffffffffffffffffffffffffffffffffffff8083166024830152604482018490529294509092509085169063de7c8cc29060640161119f565b73ffffffffffffffffffffffffffffffffffffffff82166000908152600260209081526040808320848452909152812054610d94565b33600081815260208481526040808320858452909152902054801561155b5773ffffffffffffffffffffffffffffffffffffffff82811660009081526020868152604080832087845290915280822091909155517fc8048022000000000000000000000000000000000000000000000000000000008152600481018390527f00000000000000000000000000000000000000000000000000000000000000009091169063c804802290602401600060405180830381600087803b1580156114d657600080fd5b505af19250505080156114e7575060015b61155b576114f361206f565b806308c379a00361154f575061150761208b565b806115125750611551565b7f1a105f82e7a73e98ff8b7e5e0479a23ba4df818edeafeec2e4bdfe52624b3ba1816040516115419190612133565b60405180910390a15061155b565b505b3d6000803e3d6000fd5b50505050565b3360008181526020868152604080832087845290915290205415611585575061155b565b60008173ffffffffffffffffffffffffffffffffffffffff16630aa7d2f96040518163ffffffff1660e01b8152600401602060405180830381865afa1580156115d2573d6000803e3d6000fd5b505050506040513d601f19601f820116820180604052508101906115f69190611d84565b90506000606061160583611835565b156117155760008390508073ffffffffffffffffffffffffffffffffffffffff1663f8fd60616040518163ffffffff1660e01b8152600401602060405180830381865afa15801561165a573d6000803e3d6000fd5b505050506040513d601f19601f8201168201806040525081019061167e919061217a565b92508073ffffffffffffffffffffffffffffffffffffffff166365bf03d76040518163ffffffff1660e01b8152600401600060405180830381865afa1580156116cb573d6000803e3d6000fd5b505050506040513d6000823e601f3d9081017fffffffffffffffffffffffffffffffffffffffffffffffffffffffffffffffe0168201604052611711919081019061219b565b9150505b60007f000000000000000000000000000000000000000000000000000000000000000073ffffffffffffffffffffffffffffffffffffffff16639e571d383060008054906101000a900463ffffffff1630600060018b8f8f8f60405160200161178194939291906121d0565b6040516020818303038152906040528a8a6040518963ffffffff1660e01b81526004016117b5989796959493929190612210565b6020604051808303816000875af11580156117d4573d6000803e3d6000fd5b505050506040513d601f19601f820116820180604052508101906117f8919061229f565b73ffffffffffffffffffffffffffffffffffffffff909516600090815260208a815260408083208b84529091529020949094555050505050505050565b6040517f01ffc9a70000000000000000000000000000000000000000000000000000000081527fb6a22c2f00000000000000000000000000000000000000000000000000000000600482015260009073ffffffffffffffffffffffffffffffffffffffff8316906301ffc9a790602401602060405180830381865afa9250505080156118fc575060408051601f3d9081017fffffffffffffffffffffffffffffffffffffffffffffffffffffffffffffffe01682019092526118f991810190611d62565b60015b611939573d80801561192a576040519150601f19603f3d011682016040523d82523d6000602084013e61192f565b606091505b5060009392505050565b92915050565b6000807f000000000000000000000000000000000000000000000000000000000000000073ffffffffffffffffffffffffffffffffffffffff1663d11d397a6040518163ffffffff1660e01b8152600401602060405180830381865afa1580156119ad573d6000803e3d6000fd5b505050506040513d601f19601f820116820180604052508101906119d1919061229f565b927f000000000000000000000000000000000000000000000000000000000000000092509050565b73ffffffffffffffffffffffffffffffffffffffff811681146104f957600080fd5b60008060408385031215611a2e57600080fd5b8235611a39816119f9565b946020939093013593505050565b600060208284031215611a5957600080fd5b5035919050565b600060208284031215611a7257600080fd5b813563ffffffff81168114610d9457600080fd5b7f4e487b7100000000000000000000000000000000000000000000000000000000600052604160045260246000fd5b7fffffffffffffffffffffffffffffffffffffffffffffffffffffffffffffffe0601f830116810181811067ffffffffffffffff82111715611af957611af9611a86565b6040525050565b600067ffffffffffffffff821115611b1a57611b1a611a86565b50601f017fffffffffffffffffffffffffffffffffffffffffffffffffffffffffffffffe01660200190565b600060208284031215611b5857600080fd5b813567ffffffffffffffff811115611b6f57600080fd5b8201601f81018413611b8057600080fd5b8035611b8b81611b00565b604051611b988282611ab5565b828152866020848601011115611bad57600080fd5b8260208501602083013760009281016020019290925250949350505050565b60008083601f840112611bde57600080fd5b50813567ffffffffffffffff811115611bf657600080fd5b602083019150836020828501011115611c0e57600080fd5b9250929050565b60008060008060408587031215611c2b57600080fd5b843567ffffffffffffffff80821115611c4357600080fd5b611c4f88838901611bcc565b90965094506020870135915080821115611c6857600080fd5b50611c7587828801611bcc565b95989497509550505050565b60005b83811015611c9c578181015183820152602001611c84565b50506000910152565b60008151808452611cbd816020860160208601611c81565b601f017fffffffffffffffffffffffffffffffffffffffffffffffffffffffffffffffe0169290920160200192915050565b8215158152604060208201526000611d0a6040830184611ca5565b949350505050565b60008060008060608587031215611d2857600080fd5b8435611d33816119f9565b935060208501359250604085013567ffffffffffffffff811115611d5657600080fd5b611c7587828801611bcc565b600060208284031215611d7457600080fd5b81518015158114610d9457600080fd5b600060208284031215611d9657600080fd5b8151610d94816119f9565b80820180821115611939577f4e487b7100000000000000000000000000000000000000000000000000000000600052601160045260246000fd5b600281106104f957600080fd5b600082601f830112611df957600080fd5b8151611e0481611b00565b604051611e118282611ab5565b828152856020848701011115611e2657600080fd5b611e37836020830160208801611c81565b95945050505050565b60008060008060808587031215611e5657600080fd5b8451611e61816119f9565b602086015160408701519195509350611e7981611ddb565b606086015190925067ffffffffffffffff811115611e9657600080fd5b611ea287828801611de8565b91505092959194509250565b7f4e487b7100000000000000000000000000000000000000000000000000000000600052602160045260246000fd5b73ffffffffffffffffffffffffffffffffffffffff83168152604060208201526000611d0a6040830184611ca5565b60008060008060808587031215611f2257600080fd5b8435611f2d816119f9565b9350602085013592506040850135611f4481611ddb565b9396929550929360600135925050565b8183528181602085013750600060208284010152600060207fffffffffffffffffffffffffffffffffffffffffffffffffffffffffffffffe0601f840116840101905092915050565b602081526000611d0a602083018486611f54565b600060608284031215611fc357600080fd5b6040516060810181811067ffffffffffffffff82111715611fe657611fe6611a86565b80604052508251815260208301516020820152604083015160408201528091505092915050565b6002811061201d5761201d611eae565b9052565b73ffffffffffffffffffffffffffffffffffffffff8616815284602082015261204d604082018561200d565b608060608201526000612064608083018486611f54565b979650505050505050565b600060033d11156120885760046000803e5060005160e01c5b90565b600060443d10156120995790565b6040517ffffffffffffffffffffffffffffffffffffffffffffffffffffffffffffffffc803d016004833e81513d67ffffffffffffffff81602484011181841117156120e757505050505090565b82850191508151818111156120ff5750505050505090565b843d87010160208285010111156121195750505050505090565b61212860208286010187611ab5565b509095945050505050565b60408152600c60408201527f63616e63656c55706b65657000000000000000000000000000000000000000006060820152608060208201526000610d946080830184611ca5565b60006020828403121561218c57600080fd5b815160038110610d9457600080fd5b6000602082840312156121ad57600080fd5b815167ffffffffffffffff8111156121c457600080fd5b611d0a84828501611de8565b73ffffffffffffffffffffffffffffffffffffffff851681526020810184905260808101612201604083018561200d565b82606083015295945050505050565b600061010073ffffffffffffffffffffffffffffffffffffffff808c16845263ffffffff8b166020850152808a16604085015250871515606084015286151560808401528060a084015261226681840187611ca5565b90506003851061227857612278611eae565b8460c084015282810360e08401526122908185611ca5565b9b9a5050505050505050505050565b6000602082840312156122b157600080fd5b505191905056fea26469706673582212208c12bfb70c0e9010bb724f8bd656e92c038ec287a079e3653b26a7c163c655db64736f6c63430008130033",
  "devdoc": {
    "details": "A contract that handles the liquidation and claiming of positions in Chromatic markets.      It implements the ILiquidator and the IMate2Automation interface.",
    "errors": {
      "OnlyAccessableByDao()": [
        {
          "details": "Throws an error indicating that the caller is not the DAO."
        }
      ],
      "OnlyAccessableByMarket()": [
        {
          "details": "Throws an error indicating that the caller is not a registered market."
        }
      ]
    },
    "kind": "dev",
    "methods": {
      "cancelClaimPositionTask(uint256)": {
        "details": "Can only be called by a registered market.",
        "params": {
          "positionId": "The ID of the position for which to cancel the claim position task."
        }
      },
      "cancelLiquidationTask(uint256)": {
        "details": "Can only be called by a registered market.",
        "params": {
          "positionId": "The ID of the position for which to cancel the liquidation task."
        }
      },
      "checkUpkeep(bytes,bytes)": {
        "details": "To ensure that it is never called, you may want to add the cannotExecute modifier from KeeperBase to your implementation of this method.",
        "params": {
          "checkData": "specified in the upkeep registration so it is always the same for a registered upkeep. This can easily be broken down into specific arguments using `abi.decode`, so multiple upkeeps can be registered on the same contract and easily differentiated by the contract.",
          "extraData": "passed by keeper for passing offchain data"
        },
        "returns": {
          "performData": "bytes that the keeper should call performUpkeep with, if upkeep is needed. If you would like to encode data to decode later, try `abi.encode`.",
          "upkeepNeeded": "boolean to indicate whether the keeper should call performUpkeep or not."
        }
      },
      "claimPosition(address,uint256)": {
        "params": {
          "market": "The address of the market contract.",
          "positionId": "The ID of the position to be claimed."
        }
      },
      "constructor": {
        "details": "Constructor function.",
        "params": {
          "_automate": "The address of the Mate2 Automate contract.",
          "_factory": "The address of the Chromatic Market Factory contract."
        }
      },
      "createClaimPositionTask(uint256)": {
        "details": "Can only be called by a registered market.",
        "params": {
          "positionId": "The ID of the position to be claimed."
        }
      },
      "createLiquidationTask(uint256)": {
        "details": "Can only be called by a registered market.",
        "params": {
          "positionId": "The ID of the position to be liquidated."
        }
      },
      "liquidate(address,uint256)": {
        "params": {
          "market": "The address of the market contract.",
          "positionId": "The ID of the position to be liquidated."
        }
      },
      "performUpkeep(bytes)": {
        "details": "The input to this method should not be trusted, and the caller of the method should not even be restricted to any single registry. Anyone should be able call it, and the input should be validated, there is no guarantee that the data passed in is the performData returned from checkUpkeep. This could happen due to malicious keepers, racing keepers, or simply a state change while the performUpkeep transaction is waiting for confirmation. Always validate the data passed in.",
        "params": {
          "performData": "is the data which was passed back from the checkData simulation. If it is encoded, it can easily be decoded into other types by calling `abi.decode`. This data should not be trusted, and should be validated against the contract's current state."
        }
      },
      "resolveClaimPosition(address,uint256,bytes)": {
        "details": "This function is called by the automation system.",
        "params": {
          "extraData": "passed by keeper for passing offchain data",
          "market": "The address of the market contract.",
          "positionId": "The ID of the position to be claimed."
        },
        "returns": {
          "canExec": "Whether the claim can be executed.",
          "execPayload": "The encoded function call to execute the claim."
        }
      },
      "resolveLiquidation(address,uint256,bytes)": {
        "details": "This function is called by the automation system.",
        "params": {
          "extraData": "passed by keeper for passing offchain data",
          "market": "The address of the market contract.",
          "positionId": "The ID of the position to be liquidated."
        },
        "returns": {
          "canExec": "Whether the liquidation can be executed.",
          "execPayload": "The encoded function call to execute the liquidation."
        }
      }
    },
    "title": "Mate2Liquidator",
    "version": 1
  },
  "userdoc": {
    "kind": "user",
    "methods": {
      "cancelClaimPositionTask(uint256)": {
        "notice": "Cancels a claim position task for a given position."
      },
      "cancelLiquidationTask(uint256)": {
        "notice": "Cancels a liquidation task for a given position."
      },
      "checkUpkeep(bytes,bytes)": {
        "notice": "method that is simulated by the keepers to see if any work actually needs to be performed. This method does does not actually need to be executable, and since it is only ever simulated it can consume lots of gas."
      },
      "claimPosition(address,uint256)": {
        "notice": "Claims a position in a market."
      },
      "createClaimPositionTask(uint256)": {
        "notice": "Creates a claim position task for a given position."
      },
      "createLiquidationTask(uint256)": {
        "notice": "Creates a liquidation task for a given position."
      },
      "liquidate(address,uint256)": {
        "notice": "Liquidates a position in a market."
      },
      "performUpkeep(bytes)": {
        "notice": "method that is actually executed by the keepers, via the registry. The data returned by the checkUpkeep simulation will be passed into this method to actually be executed."
      },
      "resolveClaimPosition(address,uint256,bytes)": {
        "notice": "Resolves the claim of a position."
      },
      "resolveLiquidation(address,uint256,bytes)": {
        "notice": "Resolves the liquidation of a position."
      }
    },
    "version": 1
  },
  "storageLayout": {
    "storage": [
      {
        "astId": 14009,
        "contract": "contracts/core/automation/Mate2Liquidator.sol:Mate2Liquidator",
        "label": "upkeepGasLimit",
        "offset": 0,
        "slot": "0",
        "type": "t_uint32"
      },
      {
        "astId": 14011,
        "contract": "contracts/core/automation/Mate2Liquidator.sol:Mate2Liquidator",
        "label": "waitPositionClaim",
        "offset": 0,
        "slot": "1",
        "type": "t_uint256"
      },
      {
        "astId": 14017,
        "contract": "contracts/core/automation/Mate2Liquidator.sol:Mate2Liquidator",
        "label": "_liquidationUpkeepIds",
        "offset": 0,
        "slot": "2",
        "type": "t_mapping(t_address,t_mapping(t_uint256,t_uint256))"
      },
      {
        "astId": 14023,
        "contract": "contracts/core/automation/Mate2Liquidator.sol:Mate2Liquidator",
        "label": "_claimPositionUpkeepIds",
        "offset": 0,
        "slot": "3",
        "type": "t_mapping(t_address,t_mapping(t_uint256,t_uint256))"
      }
    ],
    "types": {
      "t_address": {
        "encoding": "inplace",
        "label": "address",
        "numberOfBytes": "20"
      },
      "t_mapping(t_address,t_mapping(t_uint256,t_uint256))": {
        "encoding": "mapping",
        "key": "t_address",
        "label": "mapping(address => mapping(uint256 => uint256))",
        "numberOfBytes": "32",
        "value": "t_mapping(t_uint256,t_uint256)"
      },
      "t_mapping(t_uint256,t_uint256)": {
        "encoding": "mapping",
        "key": "t_uint256",
        "label": "mapping(uint256 => uint256)",
        "numberOfBytes": "32",
        "value": "t_uint256"
      },
      "t_uint256": {
        "encoding": "inplace",
        "label": "uint256",
        "numberOfBytes": "32"
      },
      "t_uint32": {
        "encoding": "inplace",
        "label": "uint32",
        "numberOfBytes": "4"
      }
    }
  }
}