{
  "address": "0x8dFE0005915550eB5048Cd89998f818c24C1b6cf",
  "abi": [
    {
      "inputs": [
        {
          "internalType": "ChainlinkAggregator",
          "name": "aggregator_",
          "type": "address"
        }
      ],
      "stateMutability": "nonpayable",
      "type": "constructor"
    },
    {
      "inputs": [],
      "name": "InvalidOracleRound",
      "type": "error"
    },
    {
      "inputs": [],
      "name": "UnableToSyncError",
      "type": "error"
    },
    {
      "inputs": [],
      "name": "aggregator",
      "outputs": [
        {
          "internalType": "ChainlinkAggregator",
          "name": "",
          "type": "address"
        }
      ],
      "stateMutability": "view",
      "type": "function"
    },
    {
      "inputs": [
        {
          "internalType": "uint256",
          "name": "version",
          "type": "uint256"
        }
      ],
      "name": "atVersion",
      "outputs": [
        {
          "components": [
            {
              "internalType": "uint256",
              "name": "version",
              "type": "uint256"
            },
            {
              "internalType": "uint256",
              "name": "timestamp",
              "type": "uint256"
            },
            {
              "internalType": "int256",
              "name": "price",
              "type": "int256"
            }
          ],
          "internalType": "struct IOracleProvider.OracleVersion",
          "name": "oracleVersion",
          "type": "tuple"
        }
      ],
      "stateMutability": "view",
      "type": "function"
    },
    {
      "inputs": [],
      "name": "currentVersion",
      "outputs": [
        {
          "components": [
            {
              "internalType": "uint256",
              "name": "version",
              "type": "uint256"
            },
            {
              "internalType": "uint256",
              "name": "timestamp",
              "type": "uint256"
            },
            {
              "internalType": "int256",
              "name": "price",
              "type": "int256"
            }
          ],
          "internalType": "struct IOracleProvider.OracleVersion",
          "name": "oracleVersion",
          "type": "tuple"
        }
      ],
      "stateMutability": "view",
      "type": "function"
    },
    {
      "inputs": [],
      "name": "description",
      "outputs": [
        {
          "internalType": "string",
          "name": "",
          "type": "string"
        }
      ],
      "stateMutability": "view",
      "type": "function"
    },
    {
      "inputs": [],
      "name": "sync",
      "outputs": [
        {
          "components": [
            {
              "internalType": "uint256",
              "name": "version",
              "type": "uint256"
            },
            {
              "internalType": "uint256",
              "name": "timestamp",
              "type": "uint256"
            },
            {
              "internalType": "int256",
              "name": "price",
              "type": "int256"
            }
          ],
          "internalType": "struct IOracleProvider.OracleVersion",
          "name": "",
          "type": "tuple"
        }
      ],
      "stateMutability": "nonpayable",
      "type": "function"
    }
  ],
  "transactionHash": "0xcb87e42e26789cf18951dd94c2126c438d719fd2bdba3b0b5e4ad79bc7add012",
  "args": [
    "0x6550bc2301936011c1334555e62A87705A81C12C"
  ],
  "numDeployments": 17,
  "solcInputHash": "5448059d3f79256f8e9435267e02493a",
  "bytecode": "0x60c06040523480156200001157600080fd5b50604051620015e1380380620015e18339810160408190526200003491620002f5565b6001600160a01b03811660808190526200006690620000539062000154565b6200006090600a6200043a565b620001c1565b60a05260805160009062000083906001600160a01b031662000234565b90505b600054604080830151901c61ffff161115620000f257604080518082019091526000808252602082018181528154600181018355918052915191516001600160801b03908116600160801b02921691909117600080516020620015c18339815191529091015562000086565b60408051808201825260008082529290910180516001600160801b0390811660208401908152845460018181018755958052935190518216600160801b02911617600080516020620015c18339815191529092019190915551905550620004e2565b6000816001600160a01b031663313ce5676040518163ffffffff1660e01b8152600401602060405180830381865afa15801562000195573d6000803e3d6000fd5b505050506040513d601f19601f82011682018060405250810190620001bb91906200044b565b92915050565b60006001600160ff1b03821115620002305760405162461bcd60e51b815260206004820152602860248201527f53616665436173743a2076616c756520646f65736e27742066697420696e2061604482015267371034b73a191a9b60c11b606482015260840160405180910390fd5b5090565b6200025960405180606001604052806000815260200160008152602001600081525090565b6000806000846001600160a01b031663feaf968c6040518163ffffffff1660e01b815260040160a060405180830381865afa1580156200029d573d6000803e3d6000fd5b505050506040513d601f19601f82011682018060405250810190620002c391906200048d565b506040805160608101825291825260208201939093526001600160501b03909316918301919091525095945050505050565b6000602082840312156200030857600080fd5b81516001600160a01b03811681146200032057600080fd5b9392505050565b634e487b7160e01b600052601160045260246000fd5b600181815b808511156200037e57816000190482111562000362576200036262000327565b808516156200037057918102915b93841c939080029062000342565b509250929050565b6000826200039757506001620001bb565b81620003a657506000620001bb565b8160018114620003bf5760028114620003ca57620003ea565b6001915050620001bb565b60ff841115620003de57620003de62000327565b50506001821b620001bb565b5060208310610133831016604e8410600b84101617156200040f575081810a620001bb565b6200041b83836200033d565b806000190482111562000432576200043262000327565b029392505050565b60006200032060ff84168362000386565b6000602082840312156200045e57600080fd5b815160ff811681146200032057600080fd5b80516001600160501b03811681146200048857600080fd5b919050565b600080600080600060a08688031215620004a657600080fd5b620004b18662000470565b9450602086015193506040860151925060608601519150620004d66080870162000470565b90509295509295909350565b60805160a0516110976200052a60003960006106ab01526000818160710152818161011b0152818161021901528181610277015281816102e1015261041601526110976000f3fe608060405234801561001057600080fd5b50600436106100675760003560e01c80637ece075d116100505780637ece075d146100d25780639d888e8614610107578063fff6cae91461010f57600080fd5b8063245a7bfc1461006c5780637284e416146100bd575b600080fd5b6100937f000000000000000000000000000000000000000000000000000000000000000081565b60405173ffffffffffffffffffffffffffffffffffffffff90911681526020015b60405180910390f35b6100c5610117565b6040516100b49190610caf565b6100e56100e0366004610d00565b6101cf565b60408051825181526020808401519082015291810151908201526060016100b4565b6100e561024b565b6100e56102b6565b60607f000000000000000000000000000000000000000000000000000000000000000073ffffffffffffffffffffffffffffffffffffffff16637284e4166040518163ffffffff1660e01b8152600401600060405180830381865afa158015610184573d6000803e3d6000fd5b505050506040513d6000823e601f3d9081017fffffffffffffffffffffffffffffffffffffffffffffffffffffffffffffffe01682016040526101ca9190810190610d48565b905090565b6101f360405180606001604052806000815260200160008152602001600081525090565b61024561023f61020284610541565b73ffffffffffffffffffffffffffffffffffffffff7f00000000000000000000000000000000000000000000000000000000000000001690610599565b83610683565b92915050565b61026f60405180606001604052806000815260200160008152602001600081525090565b6101ca6102b17f000000000000000000000000000000000000000000000000000000000000000073ffffffffffffffffffffffffffffffffffffffff1661070d565b6107da565b6102da60405180606001604052806000815260200160008152602001600081525090565b600061031b7f000000000000000000000000000000000000000000000000000000000000000073ffffffffffffffffffffffffffffffffffffffff1661070d565b9050806040015167ffffffffffffffff16600003610365576040517f5234755400000000000000000000000000000000000000000000000000000000815260040160405180910390fd5b600161036f61089f565b60408381015161038092911c610e42565b61ffff1611156103bc576040517f68e7727f00000000000000000000000000000000000000000000000000000000815260040160405180910390fd5b6103c461089f565b61ffff166103d782604090810151901c90565b61ffff16111561052a5760008061047960006103f161089f565b61ffff168154811061040557610405610e64565b6000918252602090912001546001547f000000000000000000000000000000000000000000000000000000000000000073ffffffffffffffffffffffffffffffffffffffff169170010000000000000000000000000000000090046fffffffffffffffffffffffffffffffff1690866108af565b9150915060006040518060400160405280600061049461089f565b61ffff16815481106104a8576104a8610e64565b6000918252602090912001546104d0906fffffffffffffffffffffffffffffffff1686610e93565b6fffffffffffffffffffffffffffffffff90811682529384166020918201528254600181018455600093845292819020825192909101518416700100000000000000000000000000000000029190931617910155506103bc565b604081015160015561053b816107da565b91505090565b60008061054d83610b73565b905080600001516fffffffffffffffffffffffffffffffff168382602001516fffffffffffffffffffffffffffffffff166105889190610ebc565b6105929190610ecf565b9392505050565b6105bd60405180606001604052806000815260200160008152602001600081525090565b6040517f9a6fc8f500000000000000000000000000000000000000000000000000000000815269ffffffffffffffffffff83166004820152600090819073ffffffffffffffffffffffffffffffffffffffff861690639a6fc8f59060240160a060405180830381865afa158015610638573d6000803e3d6000fd5b505050506040513d601f19601f8201168201806040525081019061065c9190610f01565b50604080516060810182529182526020820193909352918201969096529695505050505050565b6106a760405180606001604052806000815260200160008152602001600081525090565b60007f0000000000000000000000000000000000000000000000000000000000000000670de0b6b3a764000085602001516106e29190610f51565b6106ec9190610f9d565b60408051606081018252948552945160208501529383019390935250919050565b61073160405180606001604052806000815260200160008152602001600081525090565b60008060008473ffffffffffffffffffffffffffffffffffffffff1663feaf968c6040518163ffffffff1660e01b815260040160a060405180830381865afa158015610781573d6000803e3d6000fd5b505050506040513d601f19601f820116820180604052508101906107a59190610f01565b5060408051606081018252918252602082019390935269ffffffffffffffffffff909316918301919091525095945050505050565b6107fe60405180606001604052806000815260200160008152602001600081525090565b60008061081084604090810151901c90565b61ffff168154811061082457610824610e64565b6000918252602080832060408051808201825293909101546fffffffffffffffffffffffffffffffff8082168086527001000000000000000000000000000000009092041692840183905290870151929450909161088191610ebc565b61088b9190610ecf565b90506108978482610683565b949350505050565b600080546101ca90600190610ecf565b6000808573ffffffffffffffffffffffffffffffffffffffff8116639a6fc8f56108da876001610ebc565b6040517fffffffff0000000000000000000000000000000000000000000000000000000060e084901b16815269ffffffffffffffffffff909116600482015260240160a060405180830381865afa925050508015610973575060408051601f3d9081017fffffffffffffffffffffffffffffffffffffffffffffffffffffffffffffffe016820190925261097091810190610f01565b60015b156109d75769ffffffffffffffffffff8516158061098f575081155b6109d15788518210156109d1576109b28b69ffffffffffffffffffff8716610ecf565b6109bd906001610ebc565b896040015197509750505050505050610b6a565b50505050505b6040517f9a6fc8f500000000000000000000000000000000000000000000000000000000815269ffffffffffffffffffff8616600482015260009073ffffffffffffffffffffffffffffffffffffffff831690639a6fc8f59060240160a060405180830381865afa158015610a50573d6000803e3d6000fd5b505050506040513d601f19601f82011682018060405250810190610a749190610f01565b5060408901518951909750909450925050505b818110610b425783610a988161102c565b6040517f9a6fc8f500000000000000000000000000000000000000000000000000000000815269ffffffffffffffffffff8216600482015290955073ffffffffffffffffffffffffffffffffffffffff85169150639a6fc8f59060240160a060405180830381865afa158015610b12573d6000803e3d6000fd5b505050506040513d601f19601f82011682018060405250810190610b369190610f01565b509350610a8792505050565b610b4c8888610ecf565b610b57906001610ebc565b610b62856001610ebc565b945094505050505b94509492505050565b60408051808201909152600080825260208201526000610b9161089f565b61ffff16905060008181548110610baa57610baa610e64565b6000918252602091829020604080518082019091529101546fffffffffffffffffffffffffffffffff8082168352700100000000000000000000000000000000909104169181019190915291505b81516fffffffffffffffffffffffffffffffff16831015610c855780610c1d8161102c565b91505060008181548110610c3357610c33610e64565b6000918252602091829020604080518082019091529101546fffffffffffffffffffffffffffffffff808216835270010000000000000000000000000000000090910416918101919091529150610bf8565b50919050565b60005b83811015610ca6578181015183820152602001610c8e565b50506000910152565b6020815260008251806020840152610cce816040850160208701610c8b565b601f017fffffffffffffffffffffffffffffffffffffffffffffffffffffffffffffffe0169190910160400192915050565b600060208284031215610d1257600080fd5b5035919050565b7f4e487b7100000000000000000000000000000000000000000000000000000000600052604160045260246000fd5b600060208284031215610d5a57600080fd5b815167ffffffffffffffff80821115610d7257600080fd5b818401915084601f830112610d8657600080fd5b815181811115610d9857610d98610d19565b604051601f82017fffffffffffffffffffffffffffffffffffffffffffffffffffffffffffffffe0908116603f01168101908382118183101715610dde57610dde610d19565b81604052828152876020848701011115610df757600080fd5b610e08836020830160208801610c8b565b979650505050505050565b7f4e487b7100000000000000000000000000000000000000000000000000000000600052601160045260246000fd5b61ffff828116828216039080821115610e5d57610e5d610e13565b5092915050565b7f4e487b7100000000000000000000000000000000000000000000000000000000600052603260045260246000fd5b6fffffffffffffffffffffffffffffffff818116838216019080821115610e5d57610e5d610e13565b8082018082111561024557610245610e13565b8181038181111561024557610245610e13565b805169ffffffffffffffffffff81168114610efc57600080fd5b919050565b600080600080600060a08688031215610f1957600080fd5b610f2286610ee2565b9450602086015193506040860151925060608601519150610f4560808701610ee2565b90509295509295909350565b808202600082127f800000000000000000000000000000000000000000000000000000000000000084141615610f8957610f89610e13565b818105831482151761024557610245610e13565b600082610fd3577f4e487b7100000000000000000000000000000000000000000000000000000000600052601260045260246000fd5b7fffffffffffffffffffffffffffffffffffffffffffffffffffffffffffffffff83147f80000000000000000000000000000000000000000000000000000000000000008314161561102757611027610e13565b500590565b60008161103b5761103b610e13565b507fffffffffffffffffffffffffffffffffffffffffffffffffffffffffffffffff019056fea264697066735822122083611748bdb86c643b75b7e2ac6e2cbe1c1870e9baecde0f04a92493d575652764736f6c63430008130033290decd9548b62a8d60345a988386fc84ba6bc95484008f6362f93160ef3e563",
  "devdoc": {
    "details": "One instance per Chainlink price feed should be deployed. Multiple products may use the same      ChainlinkOracle instance if their payoff functions are based on the same underlying oracle.      This implementation only support non-negative prices.",
    "errors": {
      "InvalidOracleRound()": [
        {
          "details": "Error for invalid oracle round"
        }
      ]
    },
    "kind": "dev",
    "methods": {
      "atVersion(uint256)": {
        "params": {
          "version": "The version of which to lookup"
        },
        "returns": {
          "oracleVersion": "Oracle version at version `version`"
        }
      },
      "constructor": {
        "params": {
          "aggregator_": "Chainlink price feed aggregator"
        }
      },
      "currentVersion()": {
        "returns": {
          "oracleVersion": "Current oracle version"
        }
      },
      "description()": {
        "returns": {
          "_0": "A string representing the description of the Oracle Provider."
        }
      },
      "sync()": {
        "details": "`sync` is expected to be called soon after a phase update occurs in the underlying proxy.      Phase updates should be detected using off-chain mechanism and should trigger a `sync` call      This is feasible in the short term due to how infrequent phase updates are, but phase update      and roundCount detection should eventually be implemented at the contract level.      Reverts if there is more than 1 phase to update in a single sync because we currently cannot      determine the startingRoundId for the intermediary phase.",
        "returns": {
          "_0": "The current oracle version after sync"
        }
      }
    },
    "stateVariables": {
      "_decimalOffset": {
        "details": "Decimal offset used to normalize chainlink price to 18 decimals"
      },
      "_phases": {
        "details": "Mapping of the starting data for each underlying phase"
      },
      "aggregator": {
        "details": "Chainlink feed aggregator address"
      },
      "lastSyncedRoundId": {
        "details": "Last roundID seen when `sync` was called"
      }
    },
    "title": "ChainlinkOracle",
    "version": 1
  },
  "userdoc": {
    "kind": "user",
    "methods": {
      "atVersion(uint256)": {
        "notice": "Returns the current oracle version"
      },
      "constructor": {
        "notice": "Initializes the contract state"
      },
      "currentVersion()": {
        "notice": "Returns the current oracle version"
      },
      "description()": {
        "notice": "Retrieves the description of the Oracle Provider."
      },
      "sync()": {
        "notice": "Checks for a new price and updates the internal phase annotation state accordingly"
      }
    },
    "notice": "Chainlink implementation of the IOracle interface.",
    "version": 1
  },
  "storageLayout": {
    "storage": [
      {
        "astId": 27726,
        "contract": "contracts/oracle/ChainlinkFeedOracle.sol:ChainlinkFeedOracle",
        "label": "_phases",
        "offset": 0,
        "slot": "0",
        "type": "t_array(t_struct(Phase)27734_storage)dyn_storage"
      },
      {
        "astId": 27729,
        "contract": "contracts/oracle/ChainlinkFeedOracle.sol:ChainlinkFeedOracle",
        "label": "lastSyncedRoundId",
        "offset": 0,
        "slot": "1",
        "type": "t_uint256"
      }
    ],
    "types": {
      "t_array(t_struct(Phase)27734_storage)dyn_storage": {
        "base": "t_struct(Phase)27734_storage",
        "encoding": "dynamic_array",
        "label": "struct ChainlinkFeedOracle.Phase[]",
        "numberOfBytes": "32"
      },
      "t_struct(Phase)27734_storage": {
        "encoding": "inplace",
        "label": "struct ChainlinkFeedOracle.Phase",
        "members": [
          {
            "astId": 27731,
            "contract": "contracts/oracle/ChainlinkFeedOracle.sol:ChainlinkFeedOracle",
            "label": "startingVersion",
            "offset": 0,
            "slot": "0",
            "type": "t_uint128"
          },
          {
            "astId": 27733,
            "contract": "contracts/oracle/ChainlinkFeedOracle.sol:ChainlinkFeedOracle",
            "label": "startingRoundId",
            "offset": 16,
            "slot": "0",
            "type": "t_uint128"
          }
        ],
        "numberOfBytes": "32"
      },
      "t_uint128": {
        "encoding": "inplace",
        "label": "uint128",
        "numberOfBytes": "16"
      },
      "t_uint256": {
        "encoding": "inplace",
        "label": "uint256",
        "numberOfBytes": "32"
      }
    }
  }
}