{
  "address": "0xD81f2eDCac93d8BE6a1b8EC01bD2474e3De18291",
  "abi": [
    {
      "inputs": [
        {
          "internalType": "contract IChromaticMarketFactory",
          "name": "_factory",
          "type": "address"
        },
        {
          "internalType": "address",
          "name": "_automate",
          "type": "address"
        },
        {
          "internalType": "address",
          "name": "opsProxyFactory",
          "type": "address"
        }
      ],
      "stateMutability": "nonpayable",
      "type": "constructor"
    },
    {
      "inputs": [],
      "name": "ExistMarketEarningDistributionTask",
      "type": "error"
    },
    {
      "inputs": [],
      "name": "NotEnoughBalance",
      "type": "error"
    },
    {
      "inputs": [],
      "name": "NotEnoughFeePaid",
      "type": "error"
    },
    {
      "inputs": [],
      "name": "OnlyAccessableByFactoryOrDao",
      "type": "error"
    },
    {
      "inputs": [],
      "name": "OnlyAccessableByMarket",
      "type": "error"
    },
    {
      "anonymous": false,
      "inputs": [
        {
          "indexed": true,
          "internalType": "address",
          "name": "sender",
          "type": "address"
        },
        {
          "indexed": true,
          "internalType": "address",
          "name": "recipient",
          "type": "address"
        },
        {
          "indexed": true,
          "internalType": "uint256",
          "name": "amount",
          "type": "uint256"
        },
        {
          "indexed": false,
          "internalType": "uint256",
          "name": "paid",
          "type": "uint256"
        },
        {
          "indexed": false,
          "internalType": "uint256",
          "name": "paidToTakerPool",
          "type": "uint256"
        },
        {
          "indexed": false,
          "internalType": "uint256",
          "name": "paidToMakerPool",
          "type": "uint256"
        }
      ],
      "name": "FlashLoan",
      "type": "event"
    },
    {
      "anonymous": false,
      "inputs": [
        {
          "indexed": true,
          "internalType": "address",
          "name": "token",
          "type": "address"
        },
        {
          "indexed": true,
          "internalType": "uint256",
          "name": "earning",
          "type": "uint256"
        },
        {
          "indexed": true,
          "internalType": "uint256",
          "name": "usedKeeperFee",
          "type": "uint256"
        }
      ],
      "name": "MakerEarningDistributed",
      "type": "event"
    },
    {
      "anonymous": false,
      "inputs": [
        {
          "indexed": true,
          "internalType": "address",
          "name": "market",
          "type": "address"
        },
        {
          "indexed": false,
          "internalType": "uint256",
          "name": "earning",
          "type": "uint256"
        }
      ],
      "name": "MarketEarningAccumulated",
      "type": "event"
    },
    {
      "anonymous": false,
      "inputs": [
        {
          "indexed": true,
          "internalType": "address",
          "name": "market",
          "type": "address"
        },
        {
          "indexed": true,
          "internalType": "uint256",
          "name": "earning",
          "type": "uint256"
        },
        {
          "indexed": true,
          "internalType": "uint256",
          "name": "usedKeeperFee",
          "type": "uint256"
        },
        {
          "indexed": false,
          "internalType": "uint256",
          "name": "marketBalance",
          "type": "uint256"
        }
      ],
      "name": "MarketEarningDistributed",
      "type": "event"
    },
    {
      "anonymous": false,
      "inputs": [
        {
          "indexed": true,
          "internalType": "address",
          "name": "market",
          "type": "address"
        },
        {
          "indexed": true,
          "internalType": "uint256",
          "name": "amount",
          "type": "uint256"
        }
      ],
      "name": "OnAddLiquidity",
      "type": "event"
    },
    {
      "anonymous": false,
      "inputs": [
        {
          "indexed": true,
          "internalType": "address",
          "name": "market",
          "type": "address"
        },
        {
          "indexed": true,
          "internalType": "uint256",
          "name": "positionId",
          "type": "uint256"
        },
        {
          "indexed": true,
          "internalType": "address",
          "name": "recipient",
          "type": "address"
        },
        {
          "indexed": false,
          "internalType": "uint256",
          "name": "takerMargin",
          "type": "uint256"
        },
        {
          "indexed": false,
          "internalType": "uint256",
          "name": "settlementAmount",
          "type": "uint256"
        }
      ],
      "name": "OnClaimPosition",
      "type": "event"
    },
    {
      "anonymous": false,
      "inputs": [
        {
          "indexed": true,
          "internalType": "address",
          "name": "market",
          "type": "address"
        },
        {
          "indexed": true,
          "internalType": "uint256",
          "name": "positionId",
          "type": "uint256"
        },
        {
          "indexed": true,
          "internalType": "uint256",
          "name": "takerMargin",
          "type": "uint256"
        },
        {
          "indexed": false,
          "internalType": "uint256",
          "name": "tradingFee",
          "type": "uint256"
        },
        {
          "indexed": false,
          "internalType": "uint256",
          "name": "protocolFee",
          "type": "uint256"
        }
      ],
      "name": "OnOpenPosition",
      "type": "event"
    },
    {
      "anonymous": false,
      "inputs": [
        {
          "indexed": true,
          "internalType": "address",
          "name": "market",
          "type": "address"
        },
        {
          "indexed": true,
          "internalType": "uint256",
          "name": "pendingDeposit",
          "type": "uint256"
        },
        {
          "indexed": true,
          "internalType": "uint256",
          "name": "pendingWithdrawal",
          "type": "uint256"
        }
      ],
      "name": "OnSettlePendingLiquidity",
      "type": "event"
    },
    {
      "anonymous": false,
      "inputs": [
        {
          "indexed": true,
          "internalType": "address",
          "name": "market",
          "type": "address"
        },
        {
          "indexed": true,
          "internalType": "uint256",
          "name": "amount",
          "type": "uint256"
        },
        {
          "indexed": true,
          "internalType": "address",
          "name": "recipient",
          "type": "address"
        }
      ],
      "name": "OnWithdrawLiquidity",
      "type": "event"
    },
    {
      "anonymous": false,
      "inputs": [
        {
          "indexed": true,
          "internalType": "uint256",
          "name": "fee",
          "type": "uint256"
        },
        {
          "indexed": true,
          "internalType": "uint256",
          "name": "amount",
          "type": "uint256"
        }
      ],
      "name": "TransferKeeperFee",
      "type": "event"
    },
    {
      "anonymous": false,
      "inputs": [
        {
          "indexed": true,
          "internalType": "address",
          "name": "market",
          "type": "address"
        },
        {
          "indexed": true,
          "internalType": "uint256",
          "name": "fee",
          "type": "uint256"
        },
        {
          "indexed": true,
          "internalType": "uint256",
          "name": "amount",
          "type": "uint256"
        }
      ],
      "name": "TransferKeeperFee",
      "type": "event"
    },
    {
      "anonymous": false,
      "inputs": [
        {
          "indexed": true,
          "internalType": "address",
          "name": "market",
          "type": "address"
        },
        {
          "indexed": true,
          "internalType": "uint256",
          "name": "positionId",
          "type": "uint256"
        },
        {
          "indexed": true,
          "internalType": "uint256",
          "name": "amount",
          "type": "uint256"
        }
      ],
      "name": "TransferProtocolFee",
      "type": "event"
    },
    {
      "inputs": [],
      "name": "automate",
      "outputs": [
        {
          "internalType": "contract IAutomate",
          "name": "",
          "type": "address"
        }
      ],
      "stateMutability": "view",
      "type": "function"
    },
    {
      "inputs": [
        {
          "internalType": "address",
          "name": "token",
          "type": "address"
        }
      ],
      "name": "cancelMakerEarningDistributionTask",
      "outputs": [],
      "stateMutability": "nonpayable",
      "type": "function"
    },
    {
      "inputs": [
        {
          "internalType": "address",
          "name": "market",
          "type": "address"
        }
      ],
      "name": "cancelMarketEarningDistributionTask",
      "outputs": [],
      "stateMutability": "nonpayable",
      "type": "function"
    },
    {
      "inputs": [
        {
          "internalType": "address",
          "name": "token",
          "type": "address"
        }
      ],
      "name": "createMakerEarningDistributionTask",
      "outputs": [],
      "stateMutability": "nonpayable",
      "type": "function"
    },
    {
      "inputs": [
        {
          "internalType": "address",
          "name": "market",
          "type": "address"
        }
      ],
      "name": "createMarketEarningDistributionTask",
      "outputs": [],
      "stateMutability": "nonpayable",
      "type": "function"
    },
    {
      "inputs": [],
      "name": "dedicatedMsgSender",
      "outputs": [
        {
          "internalType": "address",
          "name": "",
          "type": "address"
        }
      ],
      "stateMutability": "view",
      "type": "function"
    },
    {
      "inputs": [
        {
          "internalType": "address",
          "name": "token",
          "type": "address"
        }
      ],
      "name": "distributeMakerEarning",
      "outputs": [],
      "stateMutability": "nonpayable",
      "type": "function"
    },
    {
      "inputs": [
        {
          "internalType": "address",
          "name": "market",
          "type": "address"
        }
      ],
      "name": "distributeMarketEarning",
      "outputs": [],
      "stateMutability": "nonpayable",
      "type": "function"
    },
    {
      "inputs": [
        {
          "internalType": "address",
          "name": "token",
          "type": "address"
        },
        {
          "internalType": "uint256",
          "name": "amount",
          "type": "uint256"
        },
        {
          "internalType": "address",
          "name": "recipient",
          "type": "address"
        },
        {
          "internalType": "bytes",
          "name": "data",
          "type": "bytes"
        }
      ],
      "name": "flashLoan",
      "outputs": [],
      "stateMutability": "nonpayable",
      "type": "function"
    },
    {
      "inputs": [
        {
          "internalType": "address",
          "name": "market",
          "type": "address"
        },
        {
          "internalType": "address",
          "name": "settlementToken",
          "type": "address"
        },
        {
          "internalType": "uint256",
          "name": "binBalance",
          "type": "uint256"
        }
      ],
      "name": "getPendingBinShare",
      "outputs": [
        {
          "internalType": "uint256",
          "name": "",
          "type": "uint256"
        }
      ],
      "stateMutability": "view",
      "type": "function"
    },
    {
      "inputs": [
        {
          "internalType": "address",
          "name": "",
          "type": "address"
        }
      ],
      "name": "makerBalances",
      "outputs": [
        {
          "internalType": "uint256",
          "name": "",
          "type": "uint256"
        }
      ],
      "stateMutability": "view",
      "type": "function"
    },
    {
      "inputs": [
        {
          "internalType": "address",
          "name": "",
          "type": "address"
        }
      ],
      "name": "makerEarningDistributionTaskIds",
      "outputs": [
        {
          "internalType": "bytes32",
          "name": "",
          "type": "bytes32"
        }
      ],
      "stateMutability": "view",
      "type": "function"
    },
    {
      "inputs": [
        {
          "internalType": "address",
          "name": "",
          "type": "address"
        }
      ],
      "name": "makerMarketBalances",
      "outputs": [
        {
          "internalType": "uint256",
          "name": "",
          "type": "uint256"
        }
      ],
      "stateMutability": "view",
      "type": "function"
    },
    {
      "inputs": [
        {
          "internalType": "address",
          "name": "",
          "type": "address"
        }
      ],
      "name": "marketEarningDistributionTaskIds",
      "outputs": [
        {
          "internalType": "bytes32",
          "name": "",
          "type": "bytes32"
        }
      ],
      "stateMutability": "view",
      "type": "function"
    },
    {
      "inputs": [
        {
          "internalType": "address",
          "name": "settlementToken",
          "type": "address"
        },
        {
          "internalType": "uint256",
          "name": "amount",
          "type": "uint256"
        }
      ],
      "name": "onAddLiquidity",
      "outputs": [],
      "stateMutability": "nonpayable",
      "type": "function"
    },
    {
      "inputs": [
        {
          "internalType": "address",
          "name": "settlementToken",
          "type": "address"
        },
        {
          "internalType": "uint256",
          "name": "positionId",
          "type": "uint256"
        },
        {
          "internalType": "address",
          "name": "recipient",
          "type": "address"
        },
        {
          "internalType": "uint256",
          "name": "takerMargin",
          "type": "uint256"
        },
        {
          "internalType": "uint256",
          "name": "settlementAmount",
          "type": "uint256"
        }
      ],
      "name": "onClaimPosition",
      "outputs": [],
      "stateMutability": "nonpayable",
      "type": "function"
    },
    {
      "inputs": [
        {
          "internalType": "address",
          "name": "settlementToken",
          "type": "address"
        },
        {
          "internalType": "uint256",
          "name": "positionId",
          "type": "uint256"
        },
        {
          "internalType": "uint256",
          "name": "takerMargin",
          "type": "uint256"
        },
        {
          "internalType": "uint256",
          "name": "tradingFee",
          "type": "uint256"
        },
        {
          "internalType": "uint256",
          "name": "protocolFee",
          "type": "uint256"
        }
      ],
      "name": "onOpenPosition",
      "outputs": [],
      "stateMutability": "nonpayable",
      "type": "function"
    },
    {
      "inputs": [
        {
          "internalType": "address",
          "name": "settlementToken",
          "type": "address"
        },
        {
          "internalType": "uint256",
          "name": "pendingDeposit",
          "type": "uint256"
        },
        {
          "internalType": "uint256",
          "name": "pendingWithdrawal",
          "type": "uint256"
        }
      ],
      "name": "onSettlePendingLiquidity",
      "outputs": [],
      "stateMutability": "nonpayable",
      "type": "function"
    },
    {
      "inputs": [
        {
          "internalType": "address",
          "name": "settlementToken",
          "type": "address"
        },
        {
          "internalType": "address",
          "name": "recipient",
          "type": "address"
        },
        {
          "internalType": "uint256",
          "name": "amount",
          "type": "uint256"
        }
      ],
      "name": "onWithdrawLiquidity",
      "outputs": [],
      "stateMutability": "nonpayable",
      "type": "function"
    },
    {
      "inputs": [
        {
          "internalType": "address",
          "name": "",
          "type": "address"
        }
      ],
      "name": "pendingDeposits",
      "outputs": [
        {
          "internalType": "uint256",
          "name": "",
          "type": "uint256"
        }
      ],
      "stateMutability": "view",
      "type": "function"
    },
    {
      "inputs": [
        {
          "internalType": "address",
          "name": "",
          "type": "address"
        }
      ],
      "name": "pendingMakerEarnings",
      "outputs": [
        {
          "internalType": "uint256",
          "name": "",
          "type": "uint256"
        }
      ],
      "stateMutability": "view",
      "type": "function"
    },
    {
      "inputs": [
        {
          "internalType": "address",
          "name": "",
          "type": "address"
        }
      ],
      "name": "pendingMarketEarnings",
      "outputs": [
        {
          "internalType": "uint256",
          "name": "",
          "type": "uint256"
        }
      ],
      "stateMutability": "view",
      "type": "function"
    },
    {
      "inputs": [
        {
          "internalType": "address",
          "name": "",
          "type": "address"
        }
      ],
      "name": "pendingWithdrawals",
      "outputs": [
        {
          "internalType": "uint256",
          "name": "",
          "type": "uint256"
        }
      ],
      "stateMutability": "view",
      "type": "function"
    },
    {
      "inputs": [
        {
          "internalType": "address",
          "name": "token",
          "type": "address"
        }
      ],
      "name": "resolveMakerEarningDistribution",
      "outputs": [
        {
          "internalType": "bool",
          "name": "canExec",
          "type": "bool"
        },
        {
          "internalType": "bytes",
          "name": "execPayload",
          "type": "bytes"
        }
      ],
      "stateMutability": "view",
      "type": "function"
    },
    {
      "inputs": [
        {
          "internalType": "address",
          "name": "market",
          "type": "address"
        }
      ],
      "name": "resolveMarketEarningDistribution",
      "outputs": [
        {
          "internalType": "bool",
          "name": "canExec",
          "type": "bool"
        },
        {
          "internalType": "bytes",
          "name": "execPayload",
          "type": "bytes"
        }
      ],
      "stateMutability": "view",
      "type": "function"
    },
    {
      "inputs": [
        {
          "internalType": "address",
          "name": "",
          "type": "address"
        }
      ],
      "name": "takerBalances",
      "outputs": [
        {
          "internalType": "uint256",
          "name": "",
          "type": "uint256"
        }
      ],
      "stateMutability": "view",
      "type": "function"
    },
    {
      "inputs": [
        {
          "internalType": "address",
          "name": "",
          "type": "address"
        }
      ],
      "name": "takerMarketBalances",
      "outputs": [
        {
          "internalType": "uint256",
          "name": "",
          "type": "uint256"
        }
      ],
      "stateMutability": "view",
      "type": "function"
    },
    {
      "inputs": [
        {
          "internalType": "address",
          "name": "settlementToken",
          "type": "address"
        },
        {
          "internalType": "address",
          "name": "keeper",
          "type": "address"
        },
        {
          "internalType": "uint256",
          "name": "fee",
          "type": "uint256"
        },
        {
          "internalType": "uint256",
          "name": "margin",
          "type": "uint256"
        }
      ],
      "name": "transferKeeperFee",
      "outputs": [
        {
          "internalType": "uint256",
          "name": "usedFee",
          "type": "uint256"
        }
      ],
      "stateMutability": "nonpayable",
      "type": "function"
    }
  ],
  "transactionHash": "0x54901bc666cd6b433792f8732a5935c64b4e3d97b985f471cca5142e555b452c",
  "args": [
    "0xC5496E0059D57825207966A5a029eA86bAf3Cad2",
    "0xa5f9b728ecEB9A1F6FCC89dcc2eFd810bA4Dec41",
    "0x0000000000000000000000000000000000000000"
  ],
  "numDeployments": 5,
  "solcInputHash": "10f2a42c4efb6c1e4df5ffa439d0eca4",
  "bytecode": "0x60e06040523480156200001157600080fd5b506040516200401638038062004016833981016040819052620000349162000215565b60016000556001600160a01b03821660808190526040805163573ea57560e01b8152905184923092859263573ea575916004808201926020929091908290030181865afa1580156200008a573d6000803e3d6000fd5b505050506040513d601f19601f82011682018060405250810190620000b0919062000269565b6001600160a01b0390811660c0528116620000dc575073c815db16d4be6ddf2685c201937905abf338f5d75b6040516337b6269f60e21b81526001600160a01b03838116600483015282169063ded89a7c906024016040805180830381865afa15801562000122573d6000803e3d6000fd5b505050506040513d601f19601f8201168201806040525081019062000148919062000290565b506001600160a01b0390811660a052600180546001600160a01b03191691881691821790556040805163016d6d4b60e61b81529051919450635b5b52c0935060048082019350602092918290030181865afa158015620001ac573d6000803e3d6000fd5b505050506040513d601f19601f82011682018060405250810190620001d2919062000269565b600280546001600160a01b0319166001600160a01b039290921691909117905550620002d3915050565b6001600160a01b03811681146200021257600080fd5b50565b6000806000606084860312156200022b57600080fd5b83516200023881620001fc565b60208501519093506200024b81620001fc565b60408501519092506200025e81620001fc565b809150509250925092565b6000602082840312156200027c57600080fd5b81516200028981620001fc565b9392505050565b60008060408385031215620002a457600080fd5b8251620002b181620001fc565b60208401519092508015158114620002c857600080fd5b809150509250929050565b60805160a05160c051613ce5620003316000396000505060006102880152600081816101ce01528181610ca5015281816114bc01528181611761015281816122a4015281816126d00152818161282b0152612e360152613ce56000f3fe608060405234801561001057600080fd5b50600436106101c45760003560e01c8063687d5dd4116100f9578063c440a65c11610097578063d5f6c54d11610071578063d5f6c54d1461045c578063d6d950af1461046f578063eb3349b91461048f578063f3f43703146104af57600080fd5b8063c440a65c14610416578063cbd88db114610429578063d02f1b301461044957600080fd5b80638f7b59fe116100d35780638f7b59fe146103b05780639b96cc17146103d05780639f69101d146103f0578063adf51de11461040357600080fd5b8063687d5dd41461037757806371f8122b1461038a5780638b4141171461039d57600080fd5b8063342de3be116101665780634e82c4b7116101405780634e82c4b714610311578063516f509a146103245780635372d35c1461034457806367130c8c1461036457600080fd5b8063342de3be146102cb5780634818c2fe146102de5780634d4edc67146102f157600080fd5b8063113217fc116101a2578063113217fc1461025d578063135ac9981461027057806328f150eb1461028357806330585f7c146102aa57600080fd5b8063049aacfe146101c95780630963c61a1461021a57806310235ad914610248575b600080fd5b6101f07f000000000000000000000000000000000000000000000000000000000000000081565b60405173ffffffffffffffffffffffffffffffffffffffff90911681526020015b60405180910390f35b61023a610228366004613572565b60076020526000908152604090205481565b604051908152602001610211565b61025b61025636600461358f565b6104cf565b005b61025b61026b3660046135d3565b6106f1565b61025b61027e366004613572565b61083d565b6101f07f000000000000000000000000000000000000000000000000000000000000000081565b6102bd6102b8366004613572565b610858565b60405161021192919061366d565b61023a6102d9366004613688565b610981565b61025b6102ec366004613572565b610b2f565b61023a6102ff366004613572565b60036020526000908152604090205481565b61023a61031f3660046136ce565b610d40565b61023a610332366004613572565b600c6020526000908152604090205481565b61023a610352366004613572565b60086020526000908152604090205481565b61025b61037236600461370f565b610e12565b61025b610385366004613572565b6110de565b61025b610398366004613572565b6115eb565b61025b6103ab366004613761565b6117fc565b61023a6103be366004613572565b60056020526000908152604090205481565b61023a6103de366004613572565b60046020526000908152604090205481565b61025b6103fe366004613572565b611a22565b61025b610411366004613796565b611a39565b61025b610424366004613572565b611f09565b61023a610437366004613572565b60066020526000908152604090205481565b61025b6104573660046136ce565b6123d3565b6102bd61046a366004613572565b61252e565b61023a61047d366004613572565b600b6020526000908152604090205481565b61023a61049d366004613572565b60096020526000908152604090205481565b61023a6104bd366004613572565b600a6020526000908152604090205481565b6001546040517f4a58e49e00000000000000000000000000000000000000000000000000000000815233600482015273ffffffffffffffffffffffffffffffffffffffff90911690634a58e49e90602401602060405180830381865afa15801561053d573d6000803e3d6000fd5b505050506040513d601f19601f820116820180604052508101906105619190613835565b610597576040517f1353f3f100000000000000000000000000000000000000000000000000000000815260040160405180910390fd5b73ffffffffffffffffffffffffffffffffffffffff85166000908152600460205260408120805433928692916105ce908490613886565b909155505073ffffffffffffffffffffffffffffffffffffffff811660009081526006602052604081208054869290610608908490613886565b909155505073ffffffffffffffffffffffffffffffffffffffff861660009081526003602052604081208054859290610642908490613886565b909155505073ffffffffffffffffffffffffffffffffffffffff81166000908152600560205260408120805485929061067c908490613886565b9091555061068e9050818787856125de565b83858273ffffffffffffffffffffffffffffffffffffffff167f55d8d1757457440c2753c42acc4a14b6860f25976b2635c2ea24ac344bfe730f86866040516106e1929190918252602082015260400190565b60405180910390a4505050505050565b6001546040517f4a58e49e00000000000000000000000000000000000000000000000000000000815233600482015273ffffffffffffffffffffffffffffffffffffffff90911690634a58e49e90602401602060405180830381865afa15801561075f573d6000803e3d6000fd5b505050506040513d601f19601f820116820180604052508101906107839190613835565b6107b9576040517f1353f3f100000000000000000000000000000000000000000000000000000000815260040160405180910390fd5b73ffffffffffffffffffffffffffffffffffffffff82166000908152600960205260408120805433928492916107f0908490613886565b9091555050604051829073ffffffffffffffffffffffffffffffffffffffff8316907f1bf8e13daf39d6f603c0f4047a0719c50094093eddb15b3dd26c71ec7e141d0090600090a3505050565b60006108476126cb565b5090506108548282612765565b5050565b6000606060008373ffffffffffffffffffffffffffffffffffffffff16637b9e618d6040518163ffffffff1660e01b8152600401602060405180830381865afa1580156108a9573d6000803e3d6000fd5b505050506040513d601f19601f820116820180604052508101906108cd9190613899565b90506108d98482612a69565b156109655750506040805173ffffffffffffffffffffffffffffffffffffffff939093166024808501919091528151808503909101815260449093019052506020810180517bffffffffffffffffffffffffffffffffffffffffffffffffffffffff167f135ac99800000000000000000000000000000000000000000000000000000000179052600191565b6000604051806020016040528060008152509250925050915091565b6001546040517f4a58e49e00000000000000000000000000000000000000000000000000000000815233600482015260009173ffffffffffffffffffffffffffffffffffffffff1690634a58e49e90602401602060405180830381865afa1580156109f0573d6000803e3d6000fd5b505050506040513d601f19601f82011682018060405250810190610a149190613835565b610a4a576040517f1353f3f100000000000000000000000000000000000000000000000000000000815260040160405180910390fd5b82600003610a5a57506000610b27565b33610a6786868686612b2f565b73ffffffffffffffffffffffffffffffffffffffff8716600090815260046020526040812080549294508492909190610aa19084906138b6565b909155505073ffffffffffffffffffffffffffffffffffffffff811660009081526006602052604081208054849290610adb9084906138b6565b90915550506040518290859073ffffffffffffffffffffffffffffffffffffffff8416907f31332ac845265ba9db701f457b8eb917667355d10a1f312e95622f27939d166c90600090a4505b949350505050565b60015473ffffffffffffffffffffffffffffffffffffffff163314801590610c135750600160009054906101000a900473ffffffffffffffffffffffffffffffffffffffff1673ffffffffffffffffffffffffffffffffffffffff16634162169f6040518163ffffffff1660e01b8152600401602060405180830381865afa158015610bbf573d6000803e3d6000fd5b505050506040513d601f19601f82011682018060405250810190610be39190613899565b73ffffffffffffffffffffffffffffffffffffffff163373ffffffffffffffffffffffffffffffffffffffff1614155b15610c4a576040517f6119ddb900000000000000000000000000000000000000000000000000000000815260040160405180910390fd5b73ffffffffffffffffffffffffffffffffffffffff81166000908152600c60205260409020548015610854576040517fee8ca3b5000000000000000000000000000000000000000000000000000000008152600481018290527f000000000000000000000000000000000000000000000000000000000000000073ffffffffffffffffffffffffffffffffffffffff169063ee8ca3b590602401600060405180830381600087803b158015610cfe57600080fd5b505af1158015610d12573d6000803e3d6000fd5b50505073ffffffffffffffffffffffffffffffffffffffff83166000908152600c6020526040812055505050565b73ffffffffffffffffffffffffffffffffffffffff808316600090815260036020908152604080832054938716835260059091528120549091908015610db85773ffffffffffffffffffffffffffffffffffffffff8616600090815260086020526040902054610db39085836001612c14565b610dbb565b60005b8215610df95773ffffffffffffffffffffffffffffffffffffffff8616600090815260076020526040902054610df49086856001612c14565b610dfc565b60005b610e069190613886565b925050505b9392505050565b6001546040517f4a58e49e00000000000000000000000000000000000000000000000000000000815233600482015273ffffffffffffffffffffffffffffffffffffffff90911690634a58e49e90602401602060405180830381865afa158015610e80573d6000803e3d6000fd5b505050506040513d601f19601f82011682018060405250810190610ea49190613835565b610eda576040517f1353f3f100000000000000000000000000000000000000000000000000000000815260040160405180910390fd5b33610ee6868584612c6f565b73ffffffffffffffffffffffffffffffffffffffff861660009081526004602052604081208054859290610f1b9084906138b6565b909155505073ffffffffffffffffffffffffffffffffffffffff811660009081526006602052604081208054859290610f559084906138b6565b909155505082821115610fee576000610f6e84846138b6565b73ffffffffffffffffffffffffffffffffffffffff8816600090815260036020526040812080549293508392909190610fa89084906138b6565b909155505073ffffffffffffffffffffffffffffffffffffffff821660009081526005602052604081208054839290610fe29084906138b6565b90915550611075915050565b6000610ffa83856138b6565b73ffffffffffffffffffffffffffffffffffffffff8816600090815260036020526040812080549293508392909190611034908490613886565b909155505073ffffffffffffffffffffffffffffffffffffffff82166000908152600560205260408120805483929061106e908490613886565b9091555050505b8373ffffffffffffffffffffffffffffffffffffffff16858273ffffffffffffffffffffffffffffffffffffffff167f5f8026a5f3cf54454ad6e760ded9b50bc89ea13a2f7a000e996533be4f0664ec86866040516106e1929190918252602082015260400190565b60015473ffffffffffffffffffffffffffffffffffffffff1633148015906111c25750600160009054906101000a900473ffffffffffffffffffffffffffffffffffffffff1673ffffffffffffffffffffffffffffffffffffffff16634162169f6040518163ffffffff1660e01b8152600401602060405180830381865afa15801561116e573d6000803e3d6000fd5b505050506040513d601f19601f820116820180604052508101906111929190613899565b73ffffffffffffffffffffffffffffffffffffffff163373ffffffffffffffffffffffffffffffffffffffff1614155b156111f9576040517f6119ddb900000000000000000000000000000000000000000000000000000000815260040160405180910390fd5b73ffffffffffffffffffffffffffffffffffffffff81166000908152600b602052604090205415611256576040517f3d8ff6d700000000000000000000000000000000000000000000000000000000815260040160405180910390fd5b60408051600381830181815260c083019093526000928291606080840190803683370190505081526040805160038082526080820190925260209092019190816020015b606081526020019060019003908161129a57505090528051805191925060009182906112c8576112c8613908565b602002602001019060038111156112e1576112e1613937565b908160038111156112f4576112f4613937565b815250506001816000015160018151811061131157611311613908565b6020026020010190600381111561132a5761132a613937565b9081600381111561133d5761133d613937565b815250506002816000015160028151811061135a5761135a613908565b6020026020010190600381111561137357611373613937565b9081600381111561138657611386613937565b90525060405173ffffffffffffffffffffffffffffffffffffffff831660248201526113ff90309063d5f6c54d906044015b604051602081830303815290604052915060e01b6020820180517bffffffffffffffffffffffffffffffffffffffffffffffffffffffff8381831617835250505050612d01565b816020015160008151811061141657611416613908565b602002602001018190525061146142610e10604080516fffffffffffffffffffffffffffffffff93841660208201529190921681830152815180820383018152606090910190915290565b816020015160018151811061147857611478613908565b602002602001018190525061149860408051602081019091526000815290565b81602001516002815181106114af576114af613908565b60200260200101819052507f000000000000000000000000000000000000000000000000000000000000000073ffffffffffffffffffffffffffffffffffffffff16633323b46730639f69101d60e01b60405160200161153791907fffffffff0000000000000000000000000000000000000000000000000000000091909116815260200190565b6040516020818303038152906040528473eeeeeeeeeeeeeeeeeeeeeeeeeeeeeeeeeeeeeeee6040518563ffffffff1660e01b815260040161157b94939291906139b8565b6020604051808303816000875af115801561159a573d6000803e3d6000fd5b505050506040513d601f19601f820116820180604052508101906115be9190613aa2565b73ffffffffffffffffffffffffffffffffffffffff9092166000908152600b602052604090209190915550565b60015473ffffffffffffffffffffffffffffffffffffffff1633148015906116cf5750600160009054906101000a900473ffffffffffffffffffffffffffffffffffffffff1673ffffffffffffffffffffffffffffffffffffffff16634162169f6040518163ffffffff1660e01b8152600401602060405180830381865afa15801561167b573d6000803e3d6000fd5b505050506040513d601f19601f8201168201806040525081019061169f9190613899565b73ffffffffffffffffffffffffffffffffffffffff163373ffffffffffffffffffffffffffffffffffffffff1614155b15611706576040517f6119ddb900000000000000000000000000000000000000000000000000000000815260040160405180910390fd5b73ffffffffffffffffffffffffffffffffffffffff81166000908152600b60205260409020548015610854576040517fee8ca3b5000000000000000000000000000000000000000000000000000000008152600481018290527f000000000000000000000000000000000000000000000000000000000000000073ffffffffffffffffffffffffffffffffffffffff169063ee8ca3b590602401600060405180830381600087803b1580156117ba57600080fd5b505af11580156117ce573d6000803e3d6000fd5b50505073ffffffffffffffffffffffffffffffffffffffff83166000908152600b6020526040812055505050565b6001546040517f4a58e49e00000000000000000000000000000000000000000000000000000000815233600482015273ffffffffffffffffffffffffffffffffffffffff90911690634a58e49e90602401602060405180830381865afa15801561186a573d6000803e3d6000fd5b505050506040513d601f19601f8201168201806040525081019061188e9190613835565b6118c4576040517f1353f3f100000000000000000000000000000000000000000000000000000000815260040160405180910390fd5b73ffffffffffffffffffffffffffffffffffffffff83166000908152600960205260408120805433928592916118fb9084906138b6565b909155505073ffffffffffffffffffffffffffffffffffffffff84166000908152600a602052604081208054849290611935908490613886565b909155505073ffffffffffffffffffffffffffffffffffffffff8416600090815260036020526040902054829061196d908590613886565b61197791906138b6565b73ffffffffffffffffffffffffffffffffffffffff80861660009081526003602090815260408083209490945591841681526005909152205482906119bd908590613886565b6119c791906138b6565b73ffffffffffffffffffffffffffffffffffffffff821660008181526005602052604080822093909355915184928692917ffe6f0208aa042f739ede2198851bf2945b80c1052fc2f1366e428faf83a4fa7c9190a450505050565b6000611a2c6126cb565b5090506108548282612d2c565b611a41613065565b6040517f70a0823100000000000000000000000000000000000000000000000000000000815230600482015260009073ffffffffffffffffffffffffffffffffffffffff8716906370a0823190602401602060405180830381865afa158015611aae573d6000803e3d6000fd5b505050506040513d601f19601f82011682018060405250810190611ad29190613aa2565b73ffffffffffffffffffffffffffffffffffffffff87166000908152600a602090815260408083205460099092529091205491925090611b1290836138b6565b611b1c91906138b6565b851115611b55576040517fad3a8b9e00000000000000000000000000000000000000000000000000000000815260040160405180910390fd5b6001546040517f28abb76300000000000000000000000000000000000000000000000000000000815273ffffffffffffffffffffffffffffffffffffffff8881166004830152600092611bfb929116906328abb76390602401602060405180830381865afa158015611bcb573d6000803e3d6000fd5b505050506040513d601f19601f82011682018060405250810190611bef9190613aa2565b87906127106001612c14565b9050611c08878688612c6f565b6040517f47bc6a8e00000000000000000000000000000000000000000000000000000000815233906347bc6a8e90611c4890849088908890600401613abb565b600060405180830381600087803b158015611c6257600080fd5b505af1158015611c76573d6000803e3d6000fd5b50506040517f70a082310000000000000000000000000000000000000000000000000000000081523060048201526000925073ffffffffffffffffffffffffffffffffffffffff8a1691506370a0823190602401602060405180830381865afa158015611ce7573d6000803e3d6000fd5b505050506040513d601f19601f82011682018060405250810190611d0b9190613aa2565b9050611d178284613886565b811015611d50576040517f3244470d00000000000000000000000000000000000000000000000000000000815260040160405180910390fd5b6000611d5c84836138b6565b73ffffffffffffffffffffffffffffffffffffffff8a1660009081526004602090815260408083205460039092528220549293509190611da883611da08482613886565b8691906130dd565b90506000611db682866138b6565b90508115611e5957611e598d600160009054906101000a900473ffffffffffffffffffffffffffffffffffffffff1673ffffffffffffffffffffffffffffffffffffffff166361d027b36040518163ffffffff1660e01b8152600401602060405180830381865afa158015611e2f573d6000803e3d6000fd5b505050506040513d601f19601f82011682018060405250810190611e539190613899565b84612c6f565b73ffffffffffffffffffffffffffffffffffffffff8d1660009081526007602052604081208054839290611e8e908490613886565b909155505060408051868152602081018490529081018290528c9073ffffffffffffffffffffffffffffffffffffffff8d169033907f5b8f46461c1dd69fb968f1a003acee221ea3e19540e350233b612ddb43433b559060600160405180910390a45050505050505050611f026001600055565b5050505050565b60015473ffffffffffffffffffffffffffffffffffffffff163314801590611fed5750600160009054906101000a900473ffffffffffffffffffffffffffffffffffffffff1673ffffffffffffffffffffffffffffffffffffffff16634162169f6040518163ffffffff1660e01b8152600401602060405180830381865afa158015611f99573d6000803e3d6000fd5b505050506040513d601f19601f82011682018060405250810190611fbd9190613899565b73ffffffffffffffffffffffffffffffffffffffff163373ffffffffffffffffffffffffffffffffffffffff1614155b15612024576040517f6119ddb900000000000000000000000000000000000000000000000000000000815260040160405180910390fd5b73ffffffffffffffffffffffffffffffffffffffff81166000908152600c602052604090205415612081576040517f3d8ff6d700000000000000000000000000000000000000000000000000000000815260040160405180910390fd5b60408051600381830181815260c083019093526000928291606080840190803683370190505081526040805160038082526080820190925260209092019190816020015b60608152602001906001900390816120c557505090528051805191925060009182906120f3576120f3613908565b6020026020010190600381111561210c5761210c613937565b9081600381111561211f5761211f613937565b815250506001816000015160018151811061213c5761213c613908565b6020026020010190600381111561215557612155613937565b9081600381111561216857612168613937565b815250506002816000015160028151811061218557612185613908565b6020026020010190600381111561219e5761219e613937565b908160038111156121b1576121b1613937565b90525060405173ffffffffffffffffffffffffffffffffffffffff831660248201526121e79030906330585f7c906044016113b8565b81602001516000815181106121fe576121fe613908565b602002602001018190525061224942610e10604080516fffffffffffffffffffffffffffffffff93841660208201529190921681830152815180820383018152606090910190915290565b816020015160018151811061226057612260613908565b602002602001018190525061228060408051602081019091526000815290565b816020015160028151811061229757612297613908565b60200260200101819052507f000000000000000000000000000000000000000000000000000000000000000073ffffffffffffffffffffffffffffffffffffffff16633323b4673063135ac99860e01b60405160200161231f91907fffffffff0000000000000000000000000000000000000000000000000000000091909116815260200190565b6040516020818303038152906040528473eeeeeeeeeeeeeeeeeeeeeeeeeeeeeeeeeeeeeeee6040518563ffffffff1660e01b815260040161236394939291906139b8565b6020604051808303816000875af1158015612382573d6000803e3d6000fd5b505050506040513d601f19601f820116820180604052508101906123a69190613aa2565b73ffffffffffffffffffffffffffffffffffffffff9092166000908152600c602052604090209190915550565b6001546040517f4a58e49e00000000000000000000000000000000000000000000000000000000815233600482015273ffffffffffffffffffffffffffffffffffffffff90911690634a58e49e90602401602060405180830381865afa158015612441573d6000803e3d6000fd5b505050506040513d601f19601f820116820180604052508101906124659190613835565b61249b576040517f1353f3f100000000000000000000000000000000000000000000000000000000815260040160405180910390fd5b336124a7848484612c6f565b73ffffffffffffffffffffffffffffffffffffffff84166000908152600a6020526040812080548492906124dc9084906138b6565b909155505060405173ffffffffffffffffffffffffffffffffffffffff8085169184918416907f5f47c32b777ebd5486a5c3ca3d91644eaf7de2b3410fb14ea55bbfa41c9b3ad490600090a450505050565b6000606061253b83613207565b156125c65750506040805173ffffffffffffffffffffffffffffffffffffffff9290921660248084019190915281518084039091018152604490920190526020810180517bffffffffffffffffffffffffffffffffffffffffffffffffffffffff167f9f69101d00000000000000000000000000000000000000000000000000000000179052600191565b50506040805160208101909152600080825292909150565b80156126c55761267f83600160009054906101000a900473ffffffffffffffffffffffffffffffffffffffff1673ffffffffffffffffffffffffffffffffffffffff166361d027b36040518163ffffffff1660e01b8152600401602060405180830381865afa158015612655573d6000803e3d6000fd5b505050506040513d601f19601f820116820180604052508101906126799190613899565b83612c6f565b80828573ffffffffffffffffffffffffffffffffffffffff167f5f71c80c263695df78884e6822148b66c1cb73498b21aa8fec9095966ac6f30860405160405180910390a45b50505050565b6000807f000000000000000000000000000000000000000000000000000000000000000073ffffffffffffffffffffffffffffffffffffffff1663b810c6366040518163ffffffff1660e01b81526004016040805180830381865afa158015612738573d6000803e3d6000fd5b505050506040513d601f19601f8201168201806040525081019061275c9190613b0f565b90939092509050565b60008273ffffffffffffffffffffffffffffffffffffffff16637b9e618d6040518163ffffffff1660e01b8152600401602060405180830381865afa1580156127b2573d6000803e3d6000fd5b505050506040513d601f19601f820116820180604052508101906127d69190613899565b90506127e28382612a69565b6127eb57505050565b73ffffffffffffffffffffffffffffffffffffffff83166000908152600860205260408120805490829055908381036128255760006128bf565b6128bf837f000000000000000000000000000000000000000000000000000000000000000073ffffffffffffffffffffffffffffffffffffffff1663573ea5756040518163ffffffff1660e01b8152600401602060405180830381865afa158015612894573d6000803e3d6000fd5b505050506040513d601f19601f820116820180604052508101906128b89190613899565b8685612b2f565b905080848673ffffffffffffffffffffffffffffffffffffffff167f31332ac845265ba9db701f457b8eb917667355d10a1f312e95622f27939d166c60405160405180910390a4600061291282846138b6565b73ffffffffffffffffffffffffffffffffffffffff87166000908152600560205260408120805492935083916129488385613886565b909155505073ffffffffffffffffffffffffffffffffffffffff851660009081526003602052604081208054849290612982908490613886565b90915550506040517f28b5bd1e000000000000000000000000000000000000000000000000000000008152600481018390526024810182905273ffffffffffffffffffffffffffffffffffffffff8816906328b5bd1e90604401600060405180830381600087803b1580156129f657600080fd5b505af1158015612a0a573d6000803e3d6000fd5b5050505082848873ffffffffffffffffffffffffffffffffffffffff167fad1f1a056b9857eab5e447a17c2580435764d4219e831cd5bd9ecef30070c72784604051612a5891815260200190565b60405180910390a450505050505050565b6001546040517ffddd4d8f00000000000000000000000000000000000000000000000000000000815273ffffffffffffffffffffffffffffffffffffffff8381166004830152600092169063fddd4d8f90602401602060405180830381865afa158015612ada573d6000803e3d6000fd5b505050506040513d601f19601f82011682018060405250810190612afe9190613aa2565b73ffffffffffffffffffffffffffffffffffffffff8416600090815260086020526040902054101590505b92915050565b600082600003612b4157506000610b27565b600254612b6690869073ffffffffffffffffffffffffffffffffffffffff1684612c6f565b6002546040517f780205b100000000000000000000000000000000000000000000000000000000815273ffffffffffffffffffffffffffffffffffffffff87811660048301526024820186905286811660448301529091169063780205b1906064016020604051808303816000875af1158015612be7573d6000803e3d6000fd5b505050506040513d601f19601f82011682018060405250810190612c0b9190613aa2565b95945050505050565b600080612c228686866130dd565b90506001836002811115612c3857612c38613937565b148015612c55575060008480612c5057612c50613b3f565b868809115b15612c0b57612c65600182613886565b9695505050505050565b6040805173ffffffffffffffffffffffffffffffffffffffff8416602482015260448082018490528251808303909101815260649091019091526020810180517bffffffffffffffffffffffffffffffffffffffffffffffffffffffff167fa9059cbb00000000000000000000000000000000000000000000000000000000179052612cfc9084906132cd565b505050565b60603082604051602001612d16929190613b6e565b6040516020818303038152906040529050919050565b612d3582613207565b612d3d575050565b6001546040517ffc3e902600000000000000000000000000000000000000000000000000000000815273ffffffffffffffffffffffffffffffffffffffff8481166004830152600092169063fc3e902690602401600060405180830381865afa158015612dae573d6000803e3d6000fd5b505050506040513d6000823e601f3d9081017fffffffffffffffffffffffffffffffffffffffffffffffffffffffffffffffe0168201604052612df49190810190613b9d565b73ffffffffffffffffffffffffffffffffffffffff84166000908152600760205260408120805490829055919250838103612e30576000612e9f565b612e9f857f000000000000000000000000000000000000000000000000000000000000000073ffffffffffffffffffffffffffffffffffffffff1663573ea5756040518163ffffffff1660e01b8152600401602060405180830381865afa158015612894573d6000803e3d6000fd5b905080847f916ed1b5bdd37491a3a78d6ca4aff7c2d6216a39a2e006c3bdba3579fe7781ee60405160405180910390a373ffffffffffffffffffffffffffffffffffffffff851660009081526003602052604081205490612f0083856138b6565b905060005b8551811015613016576000868281518110612f2257612f22613908565b60209081029190910181015173ffffffffffffffffffffffffffffffffffffffff811660009081526005909252604082205490925090612f638583886130dd565b73ffffffffffffffffffffffffffffffffffffffff8416600090815260086020526040812080549293508392909190612f9d908490613886565b90915550612fad905082876138b6565b9550612fb981866138b6565b94508273ffffffffffffffffffffffffffffffffffffffff167f5d61d1733044ba19fc3a248fdeb20b6a86f043bcc178d1199a996c6fdc03af698260405161300391815260200190565b60405180910390a2505050600101612f05565b5082848873ffffffffffffffffffffffffffffffffffffffff167f742cede2307fae58bf2454c5dda6af2ccf6c38a9b12484989afe79af33fd7f3a60405160405180910390a450505050505050565b6002600054036130d6576040517f08c379a000000000000000000000000000000000000000000000000000000000815260206004820152601f60248201527f5265656e7472616e637947756172643a207265656e7472616e742063616c6c0060448201526064015b60405180910390fd5b6002600055565b600080807fffffffffffffffffffffffffffffffffffffffffffffffffffffffffffffffff858709858702925082811083820303915050806000036131355783828161312b5761312b613b3f565b0492505050610e0b565b80841161319e576040517f08c379a000000000000000000000000000000000000000000000000000000000815260206004820152601560248201527f4d6174683a206d756c446976206f766572666c6f77000000000000000000000060448201526064016130cd565b60008486880960026001871981018816978890046003810283188082028403028082028403028082028403028082028403028082028403029081029092039091026000889003889004909101858311909403939093029303949094049190911702949350505050565b6001546040517ffddd4d8f00000000000000000000000000000000000000000000000000000000815273ffffffffffffffffffffffffffffffffffffffff8381166004830152600092169063fddd4d8f90602401602060405180830381865afa158015613278573d6000803e3d6000fd5b505050506040513d601f19601f8201168201806040525081019061329c9190613aa2565b73ffffffffffffffffffffffffffffffffffffffff9092166000908152600760205260409020549190911015919050565b600061332f826040518060400160405280602081526020017f5361666545524332303a206c6f772d6c6576656c2063616c6c206661696c65648152508573ffffffffffffffffffffffffffffffffffffffff166133dc9092919063ffffffff16565b90508051600014806133505750808060200190518101906133509190613835565b612cfc576040517f08c379a000000000000000000000000000000000000000000000000000000000815260206004820152602a60248201527f5361666545524332303a204552433230206f7065726174696f6e20646964206e60448201527f6f7420737563636565640000000000000000000000000000000000000000000060648201526084016130cd565b6060610b278484600085856000808673ffffffffffffffffffffffffffffffffffffffff1685876040516134109190613c80565b60006040518083038185875af1925050503d806000811461344d576040519150601f19603f3d011682016040523d82523d6000602084013e613452565b606091505b50915091506134638783838761346e565b979650505050505050565b606083156135045782516000036134fd5773ffffffffffffffffffffffffffffffffffffffff85163b6134fd576040517f08c379a000000000000000000000000000000000000000000000000000000000815260206004820152601d60248201527f416464726573733a2063616c6c20746f206e6f6e2d636f6e747261637400000060448201526064016130cd565b5081610b27565b610b2783838151156135195781518083602001fd5b806040517f08c379a00000000000000000000000000000000000000000000000000000000081526004016130cd9190613c9c565b73ffffffffffffffffffffffffffffffffffffffff8116811461356f57600080fd5b50565b60006020828403121561358457600080fd5b8135610e0b8161354d565b600080600080600060a086880312156135a757600080fd5b85356135b28161354d565b97602087013597506040870135966060810135965060800135945092505050565b600080604083850312156135e657600080fd5b82356135f18161354d565b946020939093013593505050565b60005b8381101561361a578181015183820152602001613602565b50506000910152565b6000815180845261363b8160208601602086016135ff565b601f017fffffffffffffffffffffffffffffffffffffffffffffffffffffffffffffffe0169290920160200192915050565b8215158152604060208201526000610b276040830184613623565b6000806000806080858703121561369e57600080fd5b84356136a98161354d565b935060208501356136b98161354d565b93969395505050506040820135916060013590565b6000806000606084860312156136e357600080fd5b83356136ee8161354d565b925060208401356136fe8161354d565b929592945050506040919091013590565b600080600080600060a0868803121561372757600080fd5b85356137328161354d565b94506020860135935060408601356137498161354d565b94979396509394606081013594506080013592915050565b60008060006060848603121561377657600080fd5b83356137818161354d565b95602085013595506040909401359392505050565b6000806000806000608086880312156137ae57600080fd5b85356137b98161354d565b94506020860135935060408601356137d08161354d565b9250606086013567ffffffffffffffff808211156137ed57600080fd5b818801915088601f83011261380157600080fd5b81358181111561381057600080fd5b89602082850101111561382257600080fd5b9699959850939650602001949392505050565b60006020828403121561384757600080fd5b81518015158114610e0b57600080fd5b7f4e487b7100000000000000000000000000000000000000000000000000000000600052601160045260246000fd5b80820180821115612b2957612b29613857565b6000602082840312156138ab57600080fd5b8151610e0b8161354d565b81810381811115612b2957612b29613857565b80516138d48161354d565b919050565b7f4e487b7100000000000000000000000000000000000000000000000000000000600052604160045260246000fd5b7f4e487b7100000000000000000000000000000000000000000000000000000000600052603260045260246000fd5b7f4e487b7100000000000000000000000000000000000000000000000000000000600052602160045260246000fd5b6000815180845260208085019450848260051b860182860160005b858110156139ab578383038952613999838351613623565b98850198925090840190600101613981565b5090979650505050505050565b73ffffffffffffffffffffffffffffffffffffffff85168152600060206080818401526139e86080840187613623565b838103604080860191909152865181835280519183018290528301906000906060840190825b81811015613a605784516004808210613a4d577f4e487b7100000000000000000000000000000000000000000000000000000000865260218152602486fd5b5083529386019391860191600101613a0e565b505084890151925083810385850152613a798184613966565b95505050505050612c0b606083018473ffffffffffffffffffffffffffffffffffffffff169052565b600060208284031215613ab457600080fd5b5051919050565b83815260406020820152816040820152818360608301376000818301606090810191909152601f9092017fffffffffffffffffffffffffffffffffffffffffffffffffffffffffffffffe016010192915050565b60008060408385031215613b2257600080fd5b825191506020830151613b348161354d565b809150509250929050565b7f4e487b7100000000000000000000000000000000000000000000000000000000600052601260045260246000fd5b73ffffffffffffffffffffffffffffffffffffffff83168152604060208201526000610b276040830184613623565b60006020808385031215613bb057600080fd5b825167ffffffffffffffff80821115613bc857600080fd5b818501915085601f830112613bdc57600080fd5b815181811115613bee57613bee6138d9565b8060051b6040517fffffffffffffffffffffffffffffffffffffffffffffffffffffffffffffffe0603f83011681018181108582111715613c3157613c316138d9565b604052918252848201925083810185019188831115613c4f57600080fd5b938501935b82851015613c7457613c65856138c9565b84529385019392850192613c54565b98975050505050505050565b60008251613c928184602087016135ff565b9190910192915050565b602081526000610e0b602083018461362356fea26469706673582212209cc9b513d1dbd7629ae87cb40d8df64a4218fdc68959274a1dc9d92ee99a0aa464736f6c63430008130033",
  "devdoc": {
    "details": "A contract that implements the ChromaticVault interface      and provides functionality for managing positions, liquidity, and fees in Chromatic markets.",
    "events": {
      "FlashLoan(address,address,uint256,uint256,uint256,uint256)": {
        "details": "Emitted when a flash loan is executed.",
        "params": {
          "amount": "The amount of the flash loan.",
          "paid": "The amount paid back after the flash loan.",
          "paidToMakerPool": "The amount paid to the maker pool after the flash loan.",
          "paidToTakerPool": "The amount paid to the taker pool after the flash loan.",
          "recipient": "The address receiving the flash loan.",
          "sender": "The address initiating the flash loan."
        }
      },
      "MakerEarningDistributed(address,uint256,uint256)": {
        "details": "Emitted when maker earning is distributed.",
        "params": {
          "earning": "The amount of earning distributed.",
          "token": "The address of the settlement token.",
          "usedKeeperFee": "The amount of keeper fee used."
        }
      },
      "MarketEarningAccumulated(address,uint256)": {
        "details": "Emitted when market earning is accumulated.",
        "params": {
          "earning": "The amount of earning accumulated.",
          "market": "The address of the market."
        }
      },
      "MarketEarningDistributed(address,uint256,uint256,uint256)": {
        "details": "Emitted when market earning is distributed.",
        "params": {
          "earning": "The amount of earning distributed.",
          "market": "The address of the market.",
          "marketBalance": "The balance of the market.",
          "usedKeeperFee": "The amount of keeper fee used."
        }
      },
      "OnAddLiquidity(address,uint256)": {
        "params": {
          "amount": "The amount of liquidity added.",
          "market": "The address of the market."
        }
      },
      "OnClaimPosition(address,uint256,address,uint256,uint256)": {
        "params": {
          "market": "The address of the market.",
          "positionId": "The ID of the claimed position.",
          "recipient": "The address of the recipient of the settlement amount.",
          "settlementAmount": "The settlement amount received by the recipient.",
          "takerMargin": "The margin amount provided by the taker for the position."
        }
      },
      "OnOpenPosition(address,uint256,uint256,uint256,uint256)": {
        "params": {
          "market": "The address of the market.",
          "positionId": "The ID of the opened position.",
          "protocolFee": "The protocol fee associated with the position.",
          "takerMargin": "The margin amount provided by the taker for the position.",
          "tradingFee": "The trading fee associated with the position."
        }
      },
      "OnSettlePendingLiquidity(address,uint256,uint256)": {
        "params": {
          "market": "The address of the market.",
          "pendingDeposit": "The amount of pending deposit being settled.",
          "pendingWithdrawal": "The amount of pending withdrawal being settled."
        }
      },
      "OnWithdrawLiquidity(address,uint256,address)": {
        "params": {
          "amount": "The amount of liquidity withdrawn.",
          "market": "The address of the market.",
          "recipient": "The address of the recipient of the withdrawn liquidity."
        }
      },
      "TransferKeeperFee(address,uint256,uint256)": {
        "params": {
          "amount": "The amount of settlement token to be used for paying keeper fee.",
          "fee": "The amount of the transferred keeper fee as native token.",
          "market": "The address of the market."
        }
      },
      "TransferKeeperFee(uint256,uint256)": {
        "params": {
          "amount": "The amount of settlement token to be used for paying keeper fee.",
          "fee": "The amount of the transferred keeper fee as native token."
        }
      },
      "TransferProtocolFee(address,uint256,uint256)": {
        "params": {
          "amount": "The amount of the transferred fee.",
          "market": "The address of the market.",
          "positionId": "The ID of the position."
        }
      }
    },
    "kind": "dev",
    "methods": {
      "cancelMakerEarningDistributionTask(address)": {
        "params": {
          "token": "The address of the settlement token."
        }
      },
      "cancelMarketEarningDistributionTask(address)": {
        "params": {
          "market": "The address of the market."
        }
      },
      "constructor": {
        "details": "Constructs a new ChromaticVault instance.",
        "params": {
          "_automate": "The address of the Gelato Automate contract.",
          "_factory": "The address of the Chromatic Market Factory contract.",
          "opsProxyFactory": "The address of the OpsProxyFactory contract."
        }
      },
      "createMakerEarningDistributionTask(address)": {
        "params": {
          "token": "The address of the settlement token."
        }
      },
      "createMarketEarningDistributionTask(address)": {
        "params": {
          "market": "The address of the market."
        }
      },
      "distributeMakerEarning(address)": {
        "params": {
          "token": "The address of the settlement token."
        }
      },
      "distributeMarketEarning(address)": {
        "params": {
          "market": "The address of the market."
        }
      },
      "flashLoan(address,uint256,address,bytes)": {
        "details": "Executes a flash loan.",
        "params": {
          "amount": "The amount of the flash loan.",
          "data": "Additional data for the flash loan.",
          "recipient": "The address to receive the flash loan.",
          "token": "The address of the token for the flash loan."
        }
      },
      "getPendingBinShare(address,address,uint256)": {
        "details": "The pending share of earnings is calculated based on the bin balance, maker balances, and market balances.",
        "params": {
          "binBalance": "The balance of funds in the bin.",
          "market": "The address of the market.",
          "settlementToken": "The settlement token address."
        },
        "returns": {
          "_0": "The pending share of earnings for the specified bin."
        }
      },
      "onAddLiquidity(address,uint256)": {
        "details": "This function can only be called by a market contract.",
        "params": {
          "amount": "The amount of liquidity being added.",
          "settlementToken": "The settlement token address."
        }
      },
      "onClaimPosition(address,uint256,address,uint256,uint256)": {
        "details": "This function can only be called by a market contract.",
        "params": {
          "positionId": "The ID of the claimed position.",
          "recipient": "The address that will receive the settlement amount.",
          "settlementAmount": "The amount to be settled for the position.",
          "settlementToken": "The settlement token address.",
          "takerMargin": "The margin amount provided by the taker for the position."
        }
      },
      "onOpenPosition(address,uint256,uint256,uint256,uint256)": {
        "details": "This function can only be called by a market contract.",
        "params": {
          "positionId": "The ID of the opened position.",
          "protocolFee": "The protocol fee associated with the position.",
          "settlementToken": "The settlement token address.",
          "takerMargin": "The margin amount provided by the taker for the position.",
          "tradingFee": "The trading fee associated with the position."
        }
      },
      "onSettlePendingLiquidity(address,uint256,uint256)": {
        "details": "This function can only be called by a market contract.",
        "params": {
          "pendingDeposit": "The amount of pending deposits being settled.",
          "pendingWithdrawal": "The amount of pending withdrawals being settled.",
          "settlementToken": "The settlement token address."
        }
      },
      "onWithdrawLiquidity(address,address,uint256)": {
        "details": "This function can only be called by a market contract.",
        "params": {
          "amount": "The amount of liquidity to be withdrawn.",
          "recipient": "The address that will receive the withdrawn liquidity.",
          "settlementToken": "The settlement token address."
        }
      },
      "resolveMakerEarningDistribution(address)": {
        "params": {
          "token": "The address of the settlement token."
        },
        "returns": {
          "canExec": "True if the distribution can be executed, otherwise False.",
          "execPayload": "The payload for executing the distribution."
        }
      },
      "resolveMarketEarningDistribution(address)": {
        "params": {
          "market": "The address of the market."
        },
        "returns": {
          "canExec": "True if the distribution can be executed.",
          "execPayload": "The payload for executing the distribution."
        }
      },
      "transferKeeperFee(address,address,uint256,uint256)": {
        "details": "This function can only be called by a market contract.",
        "params": {
          "fee": "The amount of the fee to transfer as native token.",
          "keeper": "The address of the keeper to receive the fee.",
          "margin": "The margin amount used for the fee payment.",
          "settlementToken": "The settlement token address."
        },
        "returns": {
          "usedFee": "The actual settlement token amount of fee used for the transfer."
        }
      }
    },
    "title": "ChromaticVault",
    "version": 1
  },
  "userdoc": {
    "events": {
      "OnAddLiquidity(address,uint256)": {
        "notice": "Emitted when liquidity is added to the vault."
      },
      "OnClaimPosition(address,uint256,address,uint256,uint256)": {
        "notice": "Emitted when a position is claimed."
      },
      "OnOpenPosition(address,uint256,uint256,uint256,uint256)": {
        "notice": "Emitted when a position is opened."
      },
      "OnSettlePendingLiquidity(address,uint256,uint256)": {
        "notice": "Emitted when pending liquidity is settled."
      },
      "OnWithdrawLiquidity(address,uint256,address)": {
        "notice": "Emitted when liquidity is withdrawn from the vault."
      },
      "TransferKeeperFee(address,uint256,uint256)": {
        "notice": "Emitted when the keeper fee is transferred for a specific market."
      },
      "TransferKeeperFee(uint256,uint256)": {
        "notice": "Emitted when the keeper fee is transferred."
      },
      "TransferProtocolFee(address,uint256,uint256)": {
        "notice": "Emitted when the protocol fee is transferred for a specific position."
      }
    },
    "kind": "user",
    "methods": {
      "cancelMakerEarningDistributionTask(address)": {
        "notice": "Cancels a maker earning distribution task for a token."
      },
      "cancelMarketEarningDistributionTask(address)": {
        "notice": "Cancels a market earning distribution task for a market."
      },
      "createMakerEarningDistributionTask(address)": {
        "notice": "Creates a maker earning distribution task for a token."
      },
      "createMarketEarningDistributionTask(address)": {
        "notice": "Creates a market earning distribution task for a market."
      },
      "distributeMakerEarning(address)": {
        "notice": "Distributes the maker earning for a token to the each markets."
      },
      "distributeMarketEarning(address)": {
        "notice": "Distributes the market earning for a market to the each bins."
      },
      "getPendingBinShare(address,address,uint256)": {
        "notice": "Retrieves the pending share of earnings for a specific bin (subset) of funds in a market."
      },
      "onAddLiquidity(address,uint256)": {
        "notice": "Called when liquidity is added to the vault by a market contract."
      },
      "onClaimPosition(address,uint256,address,uint256,uint256)": {
        "notice": "Called when a position is claimed by a market contract."
      },
      "onOpenPosition(address,uint256,uint256,uint256,uint256)": {
        "notice": "Called when a position is opened by a market contract."
      },
      "onSettlePendingLiquidity(address,uint256,uint256)": {
        "notice": "Called when pending liquidity is settled in the vault by a market contract."
      },
      "onWithdrawLiquidity(address,address,uint256)": {
        "notice": "Called when liquidity is withdrawn from the vault by a market contract."
      },
      "resolveMakerEarningDistribution(address)": {
        "notice": "Resolves the maker earning distribution for a specific token."
      },
      "resolveMarketEarningDistribution(address)": {
        "notice": "Resolves the market earning distribution for a market."
      },
      "transferKeeperFee(address,address,uint256,uint256)": {
        "notice": "Transfers the keeper fee from the market to the specified keeper."
      }
    },
    "version": 1
  },
  "storageLayout": {
    "storage": [
      {
        "astId": 3950,
        "contract": "contracts/core/ChromaticVault.sol:ChromaticVault",
        "label": "_status",
        "offset": 0,
        "slot": "0",
        "type": "t_uint256"
      },
      {
        "astId": 12916,
        "contract": "contracts/core/ChromaticVault.sol:ChromaticVault",
        "label": "factory",
        "offset": 0,
        "slot": "1",
        "type": "t_contract(IChromaticMarketFactory)19682"
      },
      {
        "astId": 12919,
        "contract": "contracts/core/ChromaticVault.sol:ChromaticVault",
        "label": "keeperFeePayer",
        "offset": 0,
        "slot": "2",
        "type": "t_contract(IKeeperFeePayer)19870"
      },
      {
        "astId": 12923,
        "contract": "contracts/core/ChromaticVault.sol:ChromaticVault",
        "label": "makerBalances",
        "offset": 0,
        "slot": "3",
        "type": "t_mapping(t_address,t_uint256)"
      },
      {
        "astId": 12927,
        "contract": "contracts/core/ChromaticVault.sol:ChromaticVault",
        "label": "takerBalances",
        "offset": 0,
        "slot": "4",
        "type": "t_mapping(t_address,t_uint256)"
      },
      {
        "astId": 12931,
        "contract": "contracts/core/ChromaticVault.sol:ChromaticVault",
        "label": "makerMarketBalances",
        "offset": 0,
        "slot": "5",
        "type": "t_mapping(t_address,t_uint256)"
      },
      {
        "astId": 12935,
        "contract": "contracts/core/ChromaticVault.sol:ChromaticVault",
        "label": "takerMarketBalances",
        "offset": 0,
        "slot": "6",
        "type": "t_mapping(t_address,t_uint256)"
      },
      {
        "astId": 12939,
        "contract": "contracts/core/ChromaticVault.sol:ChromaticVault",
        "label": "pendingMakerEarnings",
        "offset": 0,
        "slot": "7",
        "type": "t_mapping(t_address,t_uint256)"
      },
      {
        "astId": 12943,
        "contract": "contracts/core/ChromaticVault.sol:ChromaticVault",
        "label": "pendingMarketEarnings",
        "offset": 0,
        "slot": "8",
        "type": "t_mapping(t_address,t_uint256)"
      },
      {
        "astId": 12947,
        "contract": "contracts/core/ChromaticVault.sol:ChromaticVault",
        "label": "pendingDeposits",
        "offset": 0,
        "slot": "9",
        "type": "t_mapping(t_address,t_uint256)"
      },
      {
        "astId": 12951,
        "contract": "contracts/core/ChromaticVault.sol:ChromaticVault",
        "label": "pendingWithdrawals",
        "offset": 0,
        "slot": "10",
        "type": "t_mapping(t_address,t_uint256)"
      },
      {
        "astId": 12955,
        "contract": "contracts/core/ChromaticVault.sol:ChromaticVault",
        "label": "makerEarningDistributionTaskIds",
        "offset": 0,
        "slot": "11",
        "type": "t_mapping(t_address,t_bytes32)"
      },
      {
        "astId": 12959,
        "contract": "contracts/core/ChromaticVault.sol:ChromaticVault",
        "label": "marketEarningDistributionTaskIds",
        "offset": 0,
        "slot": "12",
        "type": "t_mapping(t_address,t_bytes32)"
      }
    ],
    "types": {
      "t_address": {
        "encoding": "inplace",
        "label": "address",
        "numberOfBytes": "20"
      },
      "t_bytes32": {
        "encoding": "inplace",
        "label": "bytes32",
        "numberOfBytes": "32"
      },
      "t_contract(IChromaticMarketFactory)19682": {
        "encoding": "inplace",
        "label": "contract IChromaticMarketFactory",
        "numberOfBytes": "20"
      },
      "t_contract(IKeeperFeePayer)19870": {
        "encoding": "inplace",
        "label": "contract IKeeperFeePayer",
        "numberOfBytes": "20"
      },
      "t_mapping(t_address,t_bytes32)": {
        "encoding": "mapping",
        "key": "t_address",
        "label": "mapping(address => bytes32)",
        "numberOfBytes": "32",
        "value": "t_bytes32"
      },
      "t_mapping(t_address,t_uint256)": {
        "encoding": "mapping",
        "key": "t_address",
        "label": "mapping(address => uint256)",
        "numberOfBytes": "32",
        "value": "t_uint256"
      },
      "t_uint256": {
        "encoding": "inplace",
        "label": "uint256",
        "numberOfBytes": "32"
      }
    }
  }
}