{
  "address": "0xE51aBa7d3B09Ae73D36863B9fA5F20B5348DF542",
  "abi": [
    {
      "inputs": [
        {
          "internalType": "address",
          "name": "_marketDiamondCutFacet",
          "type": "address"
        },
        {
          "internalType": "address",
          "name": "_marketLoupeFacet",
          "type": "address"
        },
        {
          "internalType": "address",
          "name": "_marketStateFacet",
          "type": "address"
        },
        {
          "internalType": "address",
          "name": "_marketLiquidityFacet",
          "type": "address"
        },
        {
          "internalType": "address",
          "name": "_marketTradeFacet",
          "type": "address"
        },
        {
          "internalType": "address",
          "name": "_marketLiquidateFacet",
          "type": "address"
        },
        {
          "internalType": "address",
          "name": "_marketSettleFacet",
          "type": "address"
        }
      ],
      "stateMutability": "nonpayable",
      "type": "constructor"
    },
    {
      "inputs": [],
      "name": "AlreadySetKeeperFeePayer",
      "type": "error"
    },
    {
      "inputs": [],
      "name": "AlreadySetLiquidator",
      "type": "error"
    },
    {
      "inputs": [],
      "name": "AlreadySetVault",
      "type": "error"
    },
    {
      "inputs": [],
      "name": "ExistMarket",
      "type": "error"
    },
    {
      "inputs": [],
      "name": "NotRegisteredOracleProvider",
      "type": "error"
    },
    {
      "inputs": [],
      "name": "NotRegisteredSettlementToken",
      "type": "error"
    },
    {
      "inputs": [],
      "name": "OnlyAccessableByDao",
      "type": "error"
    },
    {
      "anonymous": false,
      "inputs": [
        {
          "indexed": true,
          "internalType": "address",
          "name": "token",
          "type": "address"
        },
        {
          "indexed": true,
          "internalType": "uint256",
          "name": "annualRateBPS",
          "type": "uint256"
        },
        {
          "indexed": true,
          "internalType": "uint256",
          "name": "beginTimestamp",
          "type": "uint256"
        }
      ],
      "name": "InterestRateRecordAppended",
      "type": "event"
    },
    {
      "anonymous": false,
      "inputs": [
        {
          "indexed": true,
          "internalType": "address",
          "name": "token",
          "type": "address"
        },
        {
          "indexed": true,
          "internalType": "uint256",
          "name": "annualRateBPS",
          "type": "uint256"
        },
        {
          "indexed": true,
          "internalType": "uint256",
          "name": "beginTimestamp",
          "type": "uint256"
        }
      ],
      "name": "LastInterestRateRecordRemoved",
      "type": "event"
    },
    {
      "anonymous": false,
      "inputs": [
        {
          "indexed": true,
          "internalType": "address",
          "name": "oracleProvider",
          "type": "address"
        },
        {
          "indexed": true,
          "internalType": "address",
          "name": "settlementToken",
          "type": "address"
        },
        {
          "indexed": true,
          "internalType": "address",
          "name": "market",
          "type": "address"
        }
      ],
      "name": "MarketCreated",
      "type": "event"
    },
    {
      "anonymous": false,
      "inputs": [
        {
          "indexed": true,
          "internalType": "address",
          "name": "oracleProvider",
          "type": "address"
        },
        {
          "components": [
            {
              "internalType": "uint32",
              "name": "minTakeProfitBPS",
              "type": "uint32"
            },
            {
              "internalType": "uint32",
              "name": "maxTakeProfitBPS",
              "type": "uint32"
            },
            {
              "internalType": "uint8",
              "name": "leverageLevel",
              "type": "uint8"
            }
          ],
          "indexed": false,
          "internalType": "struct IOracleProviderRegistry.OracleProviderProperties",
          "name": "properties",
          "type": "tuple"
        }
      ],
      "name": "OracleProviderRegistered",
      "type": "event"
    },
    {
      "anonymous": false,
      "inputs": [
        {
          "indexed": true,
          "internalType": "address",
          "name": "oracleProvider",
          "type": "address"
        }
      ],
      "name": "OracleProviderUnregistered",
      "type": "event"
    },
    {
      "anonymous": false,
      "inputs": [
        {
          "indexed": true,
          "internalType": "address",
          "name": "token",
          "type": "address"
        },
        {
          "indexed": true,
          "internalType": "uint256",
          "name": "earningDistributionThreshold",
          "type": "uint256"
        }
      ],
      "name": "SetEarningDistributionThreshold",
      "type": "event"
    },
    {
      "anonymous": false,
      "inputs": [
        {
          "indexed": true,
          "internalType": "address",
          "name": "token",
          "type": "address"
        },
        {
          "indexed": true,
          "internalType": "uint256",
          "name": "flashLoanFeeRate",
          "type": "uint256"
        }
      ],
      "name": "SetFlashLoanFeeRate",
      "type": "event"
    },
    {
      "anonymous": false,
      "inputs": [
        {
          "indexed": true,
          "internalType": "address",
          "name": "keeperFeePayer",
          "type": "address"
        }
      ],
      "name": "SetKeeperFeePayer",
      "type": "event"
    },
    {
      "anonymous": false,
      "inputs": [
        {
          "indexed": true,
          "internalType": "address",
          "name": "liquidator",
          "type": "address"
        }
      ],
      "name": "SetLiquidator",
      "type": "event"
    },
    {
      "anonymous": false,
      "inputs": [
        {
          "indexed": true,
          "internalType": "address",
          "name": "token",
          "type": "address"
        },
        {
          "indexed": true,
          "internalType": "uint256",
          "name": "minimumMargin",
          "type": "uint256"
        }
      ],
      "name": "SetMinimumMargin",
      "type": "event"
    },
    {
      "anonymous": false,
      "inputs": [
        {
          "indexed": true,
          "internalType": "address",
          "name": "token",
          "type": "address"
        },
        {
          "indexed": true,
          "internalType": "uint24",
          "name": "uniswapFeeTier",
          "type": "uint24"
        }
      ],
      "name": "SetUniswapFeeTier",
      "type": "event"
    },
    {
      "anonymous": false,
      "inputs": [
        {
          "indexed": true,
          "internalType": "address",
          "name": "vault",
          "type": "address"
        }
      ],
      "name": "SetVault",
      "type": "event"
    },
    {
      "anonymous": false,
      "inputs": [
        {
          "indexed": true,
          "internalType": "address",
          "name": "token",
          "type": "address"
        },
        {
          "indexed": true,
          "internalType": "uint256",
          "name": "minimumMargin",
          "type": "uint256"
        },
        {
          "indexed": true,
          "internalType": "uint256",
          "name": "interestRate",
          "type": "uint256"
        },
        {
          "indexed": false,
          "internalType": "uint256",
          "name": "flashLoanFeeRate",
          "type": "uint256"
        },
        {
          "indexed": false,
          "internalType": "uint256",
          "name": "earningDistributionThreshold",
          "type": "uint256"
        },
        {
          "indexed": false,
          "internalType": "uint24",
          "name": "uniswapFeeTier",
          "type": "uint24"
        }
      ],
      "name": "SettlementTokenRegistered",
      "type": "event"
    },
    {
      "anonymous": false,
      "inputs": [
        {
          "indexed": true,
          "internalType": "address",
          "name": "dao",
          "type": "address"
        }
      ],
      "name": "UpdateDao",
      "type": "event"
    },
    {
      "anonymous": false,
      "inputs": [
        {
          "indexed": true,
          "internalType": "address",
          "name": "oracleProvider",
          "type": "address"
        },
        {
          "indexed": true,
          "internalType": "uint8",
          "name": "level",
          "type": "uint8"
        }
      ],
      "name": "UpdateLeverageLevel",
      "type": "event"
    },
    {
      "anonymous": false,
      "inputs": [
        {
          "indexed": true,
          "internalType": "address",
          "name": "oracleProvider",
          "type": "address"
        },
        {
          "indexed": true,
          "internalType": "uint32",
          "name": "minTakeProfitBPS",
          "type": "uint32"
        },
        {
          "indexed": true,
          "internalType": "uint32",
          "name": "maxTakeProfitBPS",
          "type": "uint32"
        }
      ],
      "name": "UpdateTakeProfitBPSRange",
      "type": "event"
    },
    {
      "anonymous": false,
      "inputs": [
        {
          "indexed": true,
          "internalType": "address",
          "name": "treasury",
          "type": "address"
        }
      ],
      "name": "UpdateTreasury",
      "type": "event"
    },
    {
      "inputs": [
        {
          "internalType": "address",
          "name": "token",
          "type": "address"
        },
        {
          "internalType": "uint256",
          "name": "annualRateBPS",
          "type": "uint256"
        },
        {
          "internalType": "uint256",
          "name": "beginTimestamp",
          "type": "uint256"
        }
      ],
      "name": "appendInterestRateRecord",
      "outputs": [],
      "stateMutability": "nonpayable",
      "type": "function"
    },
    {
      "inputs": [
        {
          "internalType": "address",
          "name": "token",
          "type": "address"
        },
        {
          "internalType": "uint256",
          "name": "amount",
          "type": "uint256"
        },
        {
          "internalType": "uint256",
          "name": "from",
          "type": "uint256"
        },
        {
          "internalType": "uint256",
          "name": "to",
          "type": "uint256"
        }
      ],
      "name": "calculateInterest",
      "outputs": [
        {
          "internalType": "uint256",
          "name": "",
          "type": "uint256"
        }
      ],
      "stateMutability": "view",
      "type": "function"
    },
    {
      "inputs": [
        {
          "internalType": "address",
          "name": "oracleProvider",
          "type": "address"
        },
        {
          "internalType": "address",
          "name": "settlementToken",
          "type": "address"
        }
      ],
      "name": "createMarket",
      "outputs": [],
      "stateMutability": "nonpayable",
      "type": "function"
    },
    {
      "inputs": [
        {
          "internalType": "address",
          "name": "token",
          "type": "address"
        }
      ],
      "name": "currentInterestRate",
      "outputs": [
        {
          "internalType": "uint256",
          "name": "annualRateBPS",
          "type": "uint256"
        }
      ],
      "stateMutability": "view",
      "type": "function"
    },
    {
      "inputs": [],
      "name": "dao",
      "outputs": [
        {
          "internalType": "address",
          "name": "",
          "type": "address"
        }
      ],
      "stateMutability": "view",
      "type": "function"
    },
    {
      "inputs": [
        {
          "internalType": "address",
          "name": "token",
          "type": "address"
        }
      ],
      "name": "getEarningDistributionThreshold",
      "outputs": [
        {
          "internalType": "uint256",
          "name": "",
          "type": "uint256"
        }
      ],
      "stateMutability": "view",
      "type": "function"
    },
    {
      "inputs": [
        {
          "internalType": "address",
          "name": "token",
          "type": "address"
        }
      ],
      "name": "getFlashLoanFeeRate",
      "outputs": [
        {
          "internalType": "uint256",
          "name": "",
          "type": "uint256"
        }
      ],
      "stateMutability": "view",
      "type": "function"
    },
    {
      "inputs": [
        {
          "internalType": "address",
          "name": "token",
          "type": "address"
        }
      ],
      "name": "getInterestRateRecords",
      "outputs": [
        {
          "components": [
            {
              "internalType": "uint256",
              "name": "annualRateBPS",
              "type": "uint256"
            },
            {
              "internalType": "uint256",
              "name": "beginTimestamp",
              "type": "uint256"
            }
          ],
          "internalType": "struct InterestRate.Record[]",
          "name": "",
          "type": "tuple[]"
        }
      ],
      "stateMutability": "view",
      "type": "function"
    },
    {
      "inputs": [
        {
          "internalType": "address",
          "name": "oracleProvider",
          "type": "address"
        },
        {
          "internalType": "address",
          "name": "settlementToken",
          "type": "address"
        }
      ],
      "name": "getMarket",
      "outputs": [
        {
          "internalType": "address",
          "name": "",
          "type": "address"
        }
      ],
      "stateMutability": "view",
      "type": "function"
    },
    {
      "inputs": [],
      "name": "getMarkets",
      "outputs": [
        {
          "internalType": "address[]",
          "name": "",
          "type": "address[]"
        }
      ],
      "stateMutability": "view",
      "type": "function"
    },
    {
      "inputs": [
        {
          "internalType": "address",
          "name": "settlementToken",
          "type": "address"
        }
      ],
      "name": "getMarketsBySettlmentToken",
      "outputs": [
        {
          "internalType": "address[]",
          "name": "",
          "type": "address[]"
        }
      ],
      "stateMutability": "view",
      "type": "function"
    },
    {
      "inputs": [
        {
          "internalType": "address",
          "name": "token",
          "type": "address"
        }
      ],
      "name": "getMinimumMargin",
      "outputs": [
        {
          "internalType": "uint256",
          "name": "",
          "type": "uint256"
        }
      ],
      "stateMutability": "view",
      "type": "function"
    },
    {
      "inputs": [
        {
          "internalType": "address",
          "name": "oracleProvider",
          "type": "address"
        }
      ],
      "name": "getOracleProviderProperties",
      "outputs": [
        {
          "components": [
            {
              "internalType": "uint32",
              "name": "minTakeProfitBPS",
              "type": "uint32"
            },
            {
              "internalType": "uint32",
              "name": "maxTakeProfitBPS",
              "type": "uint32"
            },
            {
              "internalType": "uint8",
              "name": "leverageLevel",
              "type": "uint8"
            }
          ],
          "internalType": "struct IOracleProviderRegistry.OracleProviderProperties",
          "name": "",
          "type": "tuple"
        }
      ],
      "stateMutability": "view",
      "type": "function"
    },
    {
      "inputs": [
        {
          "internalType": "address",
          "name": "token",
          "type": "address"
        }
      ],
      "name": "getUniswapFeeTier",
      "outputs": [
        {
          "internalType": "uint24",
          "name": "",
          "type": "uint24"
        }
      ],
      "stateMutability": "view",
      "type": "function"
    },
    {
      "inputs": [
        {
          "internalType": "address",
          "name": "market",
          "type": "address"
        }
      ],
      "name": "isRegisteredMarket",
      "outputs": [
        {
          "internalType": "bool",
          "name": "",
          "type": "bool"
        }
      ],
      "stateMutability": "view",
      "type": "function"
    },
    {
      "inputs": [
        {
          "internalType": "address",
          "name": "oracleProvider",
          "type": "address"
        }
      ],
      "name": "isRegisteredOracleProvider",
      "outputs": [
        {
          "internalType": "bool",
          "name": "",
          "type": "bool"
        }
      ],
      "stateMutability": "view",
      "type": "function"
    },
    {
      "inputs": [
        {
          "internalType": "address",
          "name": "token",
          "type": "address"
        }
      ],
      "name": "isRegisteredSettlementToken",
      "outputs": [
        {
          "internalType": "bool",
          "name": "",
          "type": "bool"
        }
      ],
      "stateMutability": "view",
      "type": "function"
    },
    {
      "inputs": [],
      "name": "keeperFeePayer",
      "outputs": [
        {
          "internalType": "address",
          "name": "",
          "type": "address"
        }
      ],
      "stateMutability": "view",
      "type": "function"
    },
    {
      "inputs": [],
      "name": "liquidator",
      "outputs": [
        {
          "internalType": "address",
          "name": "",
          "type": "address"
        }
      ],
      "stateMutability": "view",
      "type": "function"
    },
    {
      "inputs": [],
      "name": "parameters",
      "outputs": [
        {
          "internalType": "address",
          "name": "oracleProvider",
          "type": "address"
        },
        {
          "internalType": "address",
          "name": "settlementToken",
          "type": "address"
        }
      ],
      "stateMutability": "view",
      "type": "function"
    },
    {
      "inputs": [
        {
          "internalType": "address",
          "name": "oracleProvider",
          "type": "address"
        },
        {
          "components": [
            {
              "internalType": "uint32",
              "name": "minTakeProfitBPS",
              "type": "uint32"
            },
            {
              "internalType": "uint32",
              "name": "maxTakeProfitBPS",
              "type": "uint32"
            },
            {
              "internalType": "uint8",
              "name": "leverageLevel",
              "type": "uint8"
            }
          ],
          "internalType": "struct IOracleProviderRegistry.OracleProviderProperties",
          "name": "properties",
          "type": "tuple"
        }
      ],
      "name": "registerOracleProvider",
      "outputs": [],
      "stateMutability": "nonpayable",
      "type": "function"
    },
    {
      "inputs": [
        {
          "internalType": "address",
          "name": "token",
          "type": "address"
        },
        {
          "internalType": "uint256",
          "name": "minimumMargin",
          "type": "uint256"
        },
        {
          "internalType": "uint256",
          "name": "interestRate",
          "type": "uint256"
        },
        {
          "internalType": "uint256",
          "name": "flashLoanFeeRate",
          "type": "uint256"
        },
        {
          "internalType": "uint256",
          "name": "earningDistributionThreshold",
          "type": "uint256"
        },
        {
          "internalType": "uint24",
          "name": "uniswapFeeTier",
          "type": "uint24"
        }
      ],
      "name": "registerSettlementToken",
      "outputs": [],
      "stateMutability": "nonpayable",
      "type": "function"
    },
    {
      "inputs": [],
      "name": "registeredOracleProviders",
      "outputs": [
        {
          "internalType": "address[]",
          "name": "",
          "type": "address[]"
        }
      ],
      "stateMutability": "view",
      "type": "function"
    },
    {
      "inputs": [],
      "name": "registeredSettlementTokens",
      "outputs": [
        {
          "internalType": "address[]",
          "name": "",
          "type": "address[]"
        }
      ],
      "stateMutability": "view",
      "type": "function"
    },
    {
      "inputs": [
        {
          "internalType": "address",
          "name": "token",
          "type": "address"
        }
      ],
      "name": "removeLastInterestRateRecord",
      "outputs": [],
      "stateMutability": "nonpayable",
      "type": "function"
    },
    {
      "inputs": [
        {
          "internalType": "address",
          "name": "token",
          "type": "address"
        },
        {
          "internalType": "uint256",
          "name": "earningDistributionThreshold",
          "type": "uint256"
        }
      ],
      "name": "setEarningDistributionThreshold",
      "outputs": [],
      "stateMutability": "nonpayable",
      "type": "function"
    },
    {
      "inputs": [
        {
          "internalType": "address",
          "name": "token",
          "type": "address"
        },
        {
          "internalType": "uint256",
          "name": "flashLoanFeeRate",
          "type": "uint256"
        }
      ],
      "name": "setFlashLoanFeeRate",
      "outputs": [],
      "stateMutability": "nonpayable",
      "type": "function"
    },
    {
      "inputs": [
        {
          "internalType": "address",
          "name": "_keeperFeePayer",
          "type": "address"
        }
      ],
      "name": "setKeeperFeePayer",
      "outputs": [],
      "stateMutability": "nonpayable",
      "type": "function"
    },
    {
      "inputs": [
        {
          "internalType": "address",
          "name": "_liquidator",
          "type": "address"
        }
      ],
      "name": "setLiquidator",
      "outputs": [],
      "stateMutability": "nonpayable",
      "type": "function"
    },
    {
      "inputs": [
        {
          "internalType": "address",
          "name": "token",
          "type": "address"
        },
        {
          "internalType": "uint256",
          "name": "minimumMargin",
          "type": "uint256"
        }
      ],
      "name": "setMinimumMargin",
      "outputs": [],
      "stateMutability": "nonpayable",
      "type": "function"
    },
    {
      "inputs": [
        {
          "internalType": "address",
          "name": "token",
          "type": "address"
        },
        {
          "internalType": "uint24",
          "name": "uniswapFeeTier",
          "type": "uint24"
        }
      ],
      "name": "setUniswapFeeTier",
      "outputs": [],
      "stateMutability": "nonpayable",
      "type": "function"
    },
    {
      "inputs": [
        {
          "internalType": "address",
          "name": "_vault",
          "type": "address"
        }
      ],
      "name": "setVault",
      "outputs": [],
      "stateMutability": "nonpayable",
      "type": "function"
    },
    {
      "inputs": [],
      "name": "treasury",
      "outputs": [
        {
          "internalType": "address",
          "name": "",
          "type": "address"
        }
      ],
      "stateMutability": "view",
      "type": "function"
    },
    {
      "inputs": [
        {
          "internalType": "address",
          "name": "oracleProvider",
          "type": "address"
        }
      ],
      "name": "unregisterOracleProvider",
      "outputs": [],
      "stateMutability": "nonpayable",
      "type": "function"
    },
    {
      "inputs": [
        {
          "internalType": "address",
          "name": "_dao",
          "type": "address"
        }
      ],
      "name": "updateDao",
      "outputs": [],
      "stateMutability": "nonpayable",
      "type": "function"
    },
    {
      "inputs": [
        {
          "internalType": "address",
          "name": "oracleProvider",
          "type": "address"
        },
        {
          "internalType": "uint8",
          "name": "level",
          "type": "uint8"
        }
      ],
      "name": "updateLeverageLevel",
      "outputs": [],
      "stateMutability": "nonpayable",
      "type": "function"
    },
    {
      "inputs": [
        {
          "internalType": "address",
          "name": "oracleProvider",
          "type": "address"
        },
        {
          "internalType": "uint32",
          "name": "minTakeProfitBPS",
          "type": "uint32"
        },
        {
          "internalType": "uint32",
          "name": "maxTakeProfitBPS",
          "type": "uint32"
        }
      ],
      "name": "updateTakeProfitBPSRange",
      "outputs": [],
      "stateMutability": "nonpayable",
      "type": "function"
    },
    {
      "inputs": [
        {
          "internalType": "address",
          "name": "_treasury",
          "type": "address"
        }
      ],
      "name": "updateTreasury",
      "outputs": [],
      "stateMutability": "nonpayable",
      "type": "function"
    },
    {
      "inputs": [],
      "name": "vault",
      "outputs": [
        {
          "internalType": "address",
          "name": "",
          "type": "address"
        }
      ],
      "stateMutability": "view",
      "type": "function"
    }
  ],
  "transactionHash": "0x2d4a05de12e143482fc2ae661471397a3b3f3c26b4bcbc77cc43e3242d9a3866",
  "args": [
    "0x56c6Aae1CE48091026bF54fe673ac870897Fd183",
    "0x67eCa3E955Ac48cd65FE271bD28A5B6f42470013",
    "0x846614f97e8985D2699a500939B6BE2C0A51479D",
    "0x460248fDd9Ff3c64534b917D7f03907E24644E98",
    "0x049164542dA0b648813e523884aE87B158b188D5",
    "0x4F4fEdFB43ac819B7A0481DBE89dad29069045bF",
    "0x6d5923139137139eA0C12A3242D914EB862439a2"
  ],
  "numDeployments": 6,
  "solcInputHash": "c3a3aa6825039bf158183995a7642b86",
  "bytecode": "0x60806040523480156200001157600080fd5b50604051620035c7380380620035c78339810160408190526200003491620000ea565b60008054336001600160a01b031991821681179092556004805482169092179091556005805482166001600160a01b03998a16179055600680548216978916979097179096556007805487169588169590951790945560088054861693871693909317909255600980548516918616919091179055600a80548416918516919091179055600b805490921692169190911790556200017f565b80516001600160a01b0381168114620000e557600080fd5b919050565b600080600080600080600060e0888a0312156200010657600080fd5b6200011188620000cd565b96506200012160208901620000cd565b95506200013160408901620000cd565b94506200014160608901620000cd565b93506200015160808901620000cd565b92506200016160a08901620000cd565b91506200017160c08901620000cd565b905092959891949750929550565b613438806200018f6000396000f3fe608060405234801561001057600080fd5b50600436106102ad5760003560e01c8063705b170e1161017b578063b38e8bc6116100d8578063ec2c90161161008c578063fbfa77cf11610071578063fbfa77cf14610673578063fc3e902614610693578063fddd4d8f146106a657600080fd5b8063ec2c901614610658578063f76443201461066057600080fd5b8063e4517f09116100bd578063e4517f091461061f578063e4f7b8a914610632578063ea38ff331461064557600080fd5b8063b38e8bc6146105f9578063dc2d7f181461060c57600080fd5b8063890357301161012f578063a1edd04611610114578063a1edd046146105c0578063a7f557d4146105d3578063a8c885af146105e657600080fd5b80638903573014610544578063919c0653146105ad57600080fd5b80637f51bb1f116101605780637f51bb1f146104e6578063827f909f146104f9578063861bef211461050157600080fd5b8063705b170e146104c0578063714af34b146104d357600080fd5b806333c9d5d7116102295780635b5b52c0116101dd57806367250c95116101c257806367250c95146104735780636817031b1461049a5780636cfaa541146104ad57600080fd5b80635b5b52c01461043357806361d027b31461045357600080fd5b80634162169f1161020e5780634162169f146103dd5780634a58e49e146103fd5780634ba1c3781461042057600080fd5b806333c9d5d7146103855780634046ebae1461039857600080fd5b8063207fd1261161028057806327633b5b1161026557806327633b5b1461034c57806328abb7631461035f5780632f4ce9761461037257600080fd5b8063207fd1261461031857806324b101981461032b57600080fd5b806301c76f81146102b257806306216c37146102c75780630ae29d04146102e55780630e1a4f0d146102f8575b600080fd5b6102c56102c0366004612e9f565b6106b9565b005b6102cf6107c9565b6040516102dc9190612ebc565b60405180910390f35b6102c56102f3366004612f16565b6107da565b61030b610306366004612e9f565b61087f565b6040516102dc9190612f42565b6102c5610326366004612f91565b610918565b61033e610339366004612e9f565b610cb6565b6040519081526020016102dc565b61033e61035a366004612e9f565b610cc9565b61033e61036d366004612e9f565b610cf4565b6102c5610380366004612f16565b610d1f565b6102c5610393366004612e9f565b610dc4565b6001546103b89073ffffffffffffffffffffffffffffffffffffffff1681565b60405173ffffffffffffffffffffffffffffffffffffffff90911681526020016102dc565b6000546103b89073ffffffffffffffffffffffffffffffffffffffff1681565b61041061040b366004612e9f565b610e64565b60405190151581526020016102dc565b6102c561042e366004612fe2565b610e71565b6003546103b89073ffffffffffffffffffffffffffffffffffffffff1681565b6004546103b89073ffffffffffffffffffffffffffffffffffffffff1681565b610486610481366004612e9f565b610f44565b60405162ffffff90911681526020016102dc565b6102c56104a8366004612e9f565b610f74565b6102c56104bb366004613017565b611084565b61033e6104ce36600461304c565b61112c565b6103b86104e1366004612f91565b611145565b6102c56104f4366004612e9f565b611310565b6102cf6113d0565b61051461050f366004612e9f565b6113dc565b60408051825163ffffffff9081168252602080850151909116908201529181015160ff16908201526060016102dc565b6105806040805180820190915260185473ffffffffffffffffffffffffffffffffffffffff908116808352601954909116602090920182905291565b6040805173ffffffffffffffffffffffffffffffffffffffff9384168152929091166020830152016102dc565b6102c56105bb366004613098565b6114a2565b6104106105ce366004612e9f565b6115c7565b6102c56105e13660046130c4565b6115d4565b6102c56105f4366004612e9f565b6117b8565b6102c5610607366004612e9f565b611876565b61041061061a366004612e9f565b61192d565b6102c561062d366004613132565b61193a565b6102c5610640366004612f16565b611a16565b6102c5610653366004612e9f565b611abb565b6102cf611bcb565b6102c561066e36600461320c565b611bd7565b6002546103b89073ffffffffffffffffffffffffffffffffffffffff1681565b6102cf6106a1366004612e9f565b611d0a565b61033e6106b4366004612e9f565b611d9a565b60005473ffffffffffffffffffffffffffffffffffffffff16331461070a576040517f808ca14f00000000000000000000000000000000000000000000000000000000815260040160405180910390fd5b60015473ffffffffffffffffffffffffffffffffffffffff161561075a576040517fb209caed00000000000000000000000000000000000000000000000000000000815260040160405180910390fd5b600180547fffffffffffffffffffffffff00000000000000000000000000000000000000001673ffffffffffffffffffffffffffffffffffffffff83169081179091556040517f111c6aeb2006d748bdae2ddf082866e6ce7eb3d48ef324b5d9547570f5694e4f90600090a250565b60606107d56011611dc5565b905090565b60005473ffffffffffffffffffffffffffffffffffffffff16331461082b576040517f808ca14f00000000000000000000000000000000000000000000000000000000815260040160405180910390fd5b73ffffffffffffffffffffffffffffffffffffffff8216600081815260146020526040808220849055518392917f4c0223e719940189ef3681b9c0f0450c816c7a262c1963087e3a4911f3bccf5191a35050565b73ffffffffffffffffffffffffffffffffffffffff81166000908152601360205260409020606090805480602002602001604051908101604052809291908181526020016000905b8282101561090d578382906000526020600020906002020160405180604001604052908160008201548152602001600182015481525050815260200190600101906108c7565b505050509050919050565b81610924600c82611dd0565b61095a576040517f3c9b573900000000000000000000000000000000000000000000000000000000815260040160405180910390fd5b610965601183611dd0565b61099b576040517f12a5f55200000000000000000000000000000000000000000000000000000000815260040160405180910390fd5b73ffffffffffffffffffffffffffffffffffffffff8084166000908152601a602090815260408083209386168352929052205460ff1615610a08576040517fde70de2200000000000000000000000000000000000000000000000000000000815260040160405180910390fd5b600554600654600754600854600954600a54600b546040517faeb856e30000000000000000000000000000000000000000000000000000000081526018600482015273ffffffffffffffffffffffffffffffffffffffff808c166024830152808b1660448301529788166064820152958716608487015293861660a486015291851660c4850152841660e484015283166101048301529190911661012482015260009073AC66D4d89639dF6A0C4333d0e2B16872FB24eeD99063aeb856e39061014401602060405180830381865af4158015610ae8573d6000803e3d6000fd5b505050506040513d601f19601f82011682018060405250810190610b0c9190613251565b73ffffffffffffffffffffffffffffffffffffffff8581166000908152601a6020908152604080832088851684528252808320805460017fffffffffffffffffffffffffffffffffffffffffffffffffffffffffffffff009091168117909155601b835290832080549182018155835291200180547fffffffffffffffffffffffff0000000000000000000000000000000000000000169183169190911790559050610bb9601c82611de3565b506002546040517fc440a65c00000000000000000000000000000000000000000000000000000000815273ffffffffffffffffffffffffffffffffffffffff83811660048301529091169063c440a65c90602401600060405180830381600087803b158015610c2757600080fd5b505af1158015610c3b573d6000803e3d6000fd5b505050508073ffffffffffffffffffffffffffffffffffffffff168373ffffffffffffffffffffffffffffffffffffffff168573ffffffffffffffffffffffffffffffffffffffff167fe63e6130091e2155004c4b5ac35e8fb9be704d6637ff3068a8f710ba36c9f41a60405160405180910390a450505050565b6000610cc3601183611e05565b92915050565b73ffffffffffffffffffffffffffffffffffffffff8116600090815260146020526040812054610cc3565b73ffffffffffffffffffffffffffffffffffffffff8116600090815260156020526040812054610cc3565b60005473ffffffffffffffffffffffffffffffffffffffff163314610d70576040517f808ca14f00000000000000000000000000000000000000000000000000000000815260040160405180910390fd5b73ffffffffffffffffffffffffffffffffffffffff8216600081815260166020526040808220849055518392917fad9146057238aa90fc2f022eed688ed9c094d5b01a070c1d9ed7140ae1e90b5a91a35050565b60005473ffffffffffffffffffffffffffffffffffffffff163314610e15576040517f808ca14f00000000000000000000000000000000000000000000000000000000815260040160405180910390fd5b610e20600c82611ec8565b60405173ffffffffffffffffffffffffffffffffffffffff8216907f2204279f4b3dc089ca3bb773580383cc44d6d1414667f78def48751c811422d090600090a250565b6000610cc3601c83611ed2565b60005473ffffffffffffffffffffffffffffffffffffffff163314610ec2576040517f808ca14f00000000000000000000000000000000000000000000000000000000815260040160405180910390fd5b73ffffffffffffffffffffffffffffffffffffffff821660008181526017602052604080822080547fffffffffffffffffffffffffffffffffffffffffffffffffffffffffff0000001662ffffff861690811790915590519092917fdb5545d4da29cde71057a77fa9788f26638ed7c232145a360e250d112462286a91a35050565b73ffffffffffffffffffffffffffffffffffffffff811660009081526017602052604081205462ffffff16610cc3565b60005473ffffffffffffffffffffffffffffffffffffffff163314610fc5576040517f808ca14f00000000000000000000000000000000000000000000000000000000815260040160405180910390fd5b60025473ffffffffffffffffffffffffffffffffffffffff1615611015576040517fb661034d00000000000000000000000000000000000000000000000000000000815260040160405180910390fd5b600280547fffffffffffffffffffffffff00000000000000000000000000000000000000001673ffffffffffffffffffffffffffffffffffffffff83169081179091556040517fd459c7242e23d490831b5676a611c4342d899d28f342d89ae80793e56a930f3090600090a250565b60005473ffffffffffffffffffffffffffffffffffffffff1633146110d5576040517f808ca14f00000000000000000000000000000000000000000000000000000000815260040160405180910390fd5b6110e26011848484611f01565b80828473ffffffffffffffffffffffffffffffffffffffff167ff88fac6bf5acd4c3248b702ace956ada3aed01acc26526e8d25e264af2bd28e860405160405180910390a4505050565b600061113c601186868686611fb6565b95945050505050565b73ffffffffffffffffffffffffffffffffffffffff8083166000908152601a6020908152604080832093851683529290529081205460ff1661118957506000610cc3565b73ffffffffffffffffffffffffffffffffffffffff82166000908152601b602090815260408083208054825181850281018501909352808352919290919083018282801561120d57602002820191906000526020600020905b815473ffffffffffffffffffffffffffffffffffffffff1681526001909101906020018083116111e2575b5050505050905060005b8151811015611305578473ffffffffffffffffffffffffffffffffffffffff168282815181106112495761124961326e565b602002602001015173ffffffffffffffffffffffffffffffffffffffff16630aa7d2f96040518163ffffffff1660e01b8152600401602060405180830381865afa15801561129b573d6000803e3d6000fd5b505050506040513d601f19601f820116820180604052508101906112bf9190613251565b73ffffffffffffffffffffffffffffffffffffffff16036112fd578181815181106112ec576112ec61326e565b602002602001015192505050610cc3565b600101611217565b506000949350505050565b60005473ffffffffffffffffffffffffffffffffffffffff163314611361576040517f808ca14f00000000000000000000000000000000000000000000000000000000815260040160405180910390fd5b600480547fffffffffffffffffffffffff00000000000000000000000000000000000000001673ffffffffffffffffffffffffffffffffffffffff83169081179091556040517f1f54d231bb9d500b1923e4a1cb25e600f366a8368873d9af7c1c623814df19fc90600090a250565b60606107d5600c611dc5565b604080516060810182526000808252602082018190529181019190915281611405600c82611dd0565b61143b576040517f3c9b573900000000000000000000000000000000000000000000000000000000815260040160405180910390fd5b505073ffffffffffffffffffffffffffffffffffffffff166000908152600e6020908152604080832054600f835281842054601084529382902054825160608101845263ffffffff9283168152919094169281019290925260ff9092169181019190915290565b60005473ffffffffffffffffffffffffffffffffffffffff1633146114f3576040517f808ca14f00000000000000000000000000000000000000000000000000000000815260040160405180910390fd5b816114ff600c82611dd0565b611535576040517f3c9b573900000000000000000000000000000000000000000000000000000000815260040160405180910390fd5b60018260ff16111561154657600080fd5b73ffffffffffffffffffffffffffffffffffffffff831660008181526010602052604080822080547fffffffffffffffffffffffffffffffffffffffffffffffffffffffffffffff001660ff871690811790915590519092917f8a1c882c046939115ffa25c4b35cc2c2f2950b67b62295c136ecc4a6ab67f9ac91a3505050565b6000610cc3600c83611dd0565b60005473ffffffffffffffffffffffffffffffffffffffff163314611625576040517f808ca14f00000000000000000000000000000000000000000000000000000000815260040160405180910390fd5b611635601187878787878761207d565b6003546040517ff900a8b400000000000000000000000000000000000000000000000000000000815273ffffffffffffffffffffffffffffffffffffffff8881166004830152600160248301529091169063f900a8b490604401600060405180830381600087803b1580156116a957600080fd5b505af11580156116bd573d6000803e3d6000fd5b50506002546040517f687d5dd400000000000000000000000000000000000000000000000000000000815273ffffffffffffffffffffffffffffffffffffffff8a81166004830152909116925063687d5dd49150602401600060405180830381600087803b15801561172e57600080fd5b505af1158015611742573d6000803e3d6000fd5b5050505083858773ffffffffffffffffffffffffffffffffffffffff167f24b44a8fe42510e0d47e78dc5be1fcf5ab09678e39e793881b17b75536c1c11b8686866040516117a893929190928352602083019190915262ffffff16604082015260600190565b60405180910390a4505050505050565b60005473ffffffffffffffffffffffffffffffffffffffff163314611809576040517f808ca14f00000000000000000000000000000000000000000000000000000000815260040160405180910390fd5b600080547fffffffffffffffffffffffff00000000000000000000000000000000000000001673ffffffffffffffffffffffffffffffffffffffff8316908117825560405190917f9a2ad28991c4a863dd3516183dfda4db8e8aa1c0e550a73570b1c4616301cbc691a250565b60005473ffffffffffffffffffffffffffffffffffffffff1633146118c7576040517f808ca14f00000000000000000000000000000000000000000000000000000000815260040160405180910390fd5b6000806118d56011846121bc565b915091508115611928576020810151815160405173ffffffffffffffffffffffffffffffffffffffff8616907f87cc7629e5df6261b917b2a00b3640c9e8a60161f4018a2285189d10f08540e190600090a45b505050565b6000610cc3601183611dd0565b60005473ffffffffffffffffffffffffffffffffffffffff16331461198b576040517f808ca14f00000000000000000000000000000000000000000000000000000000815260040160405180910390fd5b8051602082015160408301516119a592600c928692612293565b60408051825163ffffffff9081168252602080850151909116908201528282015160ff1681830152905173ffffffffffffffffffffffffffffffffffffffff8416917ff99b41a10d1100eaee0ac166534e61bcabeb6bb3a1b683368130fc6b7a5ae4e4919081900360600190a25050565b60005473ffffffffffffffffffffffffffffffffffffffff163314611a67576040517f808ca14f00000000000000000000000000000000000000000000000000000000815260040160405180910390fd5b73ffffffffffffffffffffffffffffffffffffffff8216600081815260156020526040808220849055518392917fed3e1e456a52cdc00b8ea60fb4aae37d7e76d31b3e8e7a5581af66fb75e538a391a35050565b60005473ffffffffffffffffffffffffffffffffffffffff163314611b0c576040517f808ca14f00000000000000000000000000000000000000000000000000000000815260040160405180910390fd5b60035473ffffffffffffffffffffffffffffffffffffffff1615611b5c576040517f85295cee00000000000000000000000000000000000000000000000000000000815260040160405180910390fd5b600380547fffffffffffffffffffffffff00000000000000000000000000000000000000001673ffffffffffffffffffffffffffffffffffffffff83169081179091556040517f66a0284e74772dd27a28a7555f29db18bb60baa297a3d8bd5ca654309d6efb3890600090a250565b60606107d5601c6123cb565b60005473ffffffffffffffffffffffffffffffffffffffff163314611c28576040517f808ca14f00000000000000000000000000000000000000000000000000000000815260040160405180910390fd5b82611c34600c82611dd0565b611c6a576040517f3c9b573900000000000000000000000000000000000000000000000000000000815260040160405180910390fd5b73ffffffffffffffffffffffffffffffffffffffff84166000818152600e6020908152604080832080547fffffffffffffffffffffffffffffffffffffffffffffffffffffffff0000000090811663ffffffff8a8116918217909355600f909452828520805490911691881691821790559051909391927fb68a23d4ed61e96aba80d9f6099f4b9b69af02096eea143d56fb385ea97ad3d791a450505050565b73ffffffffffffffffffffffffffffffffffffffff81166000908152601b6020908152604091829020805483518184028101840190945280845260609392830182828015611d8e57602002820191906000526020600020905b815473ffffffffffffffffffffffffffffffffffffffff168152600190910190602001808311611d63575b50505050509050919050565b73ffffffffffffffffffffffffffffffffffffffff8116600090815260166020526040812054610cc3565b6060610cc3826123cb565b6000611ddc8383611ed2565b9392505050565b6000611ddc8373ffffffffffffffffffffffffffffffffffffffff84166123d8565b60008282611e138282611ed2565b6040518060400160405280600381526020017f555254000000000000000000000000000000000000000000000000000000000081525090611e8a576040517f08c379a0000000000000000000000000000000000000000000000000000000008152600401611e81919061329d565b60405180910390fd5b5073ffffffffffffffffffffffffffffffffffffffff841660009081526002860160205260408120611ebc9042612427565b50519695505050505050565b6119288282612575565b73ffffffffffffffffffffffffffffffffffffffff811660009081526001830160205260408120541515611ddc565b8383611f0d8282611ed2565b6040518060400160405280600381526020017f555254000000000000000000000000000000000000000000000000000000000081525090611f7b576040517f08c379a0000000000000000000000000000000000000000000000000000000008152600401611e81919061329d565b5073ffffffffffffffffffffffffffffffffffffffff851660009081526002870160205260409020611fae908585612597565b505050505050565b60008585611fc48282611ed2565b6040518060400160405280600381526020017f555254000000000000000000000000000000000000000000000000000000000081525090612032576040517f08c379a0000000000000000000000000000000000000000000000000000000008152600401611e81919061329d565b506120718686866120698c8c73ffffffffffffffffffffffffffffffffffffffff1660009081526002919091016020526040902090565b9291906127ec565b98975050505050505050565b6120878787611de3565b6040518060400160405280600381526020017f4152540000000000000000000000000000000000000000000000000000000000815250906120f5576040517f08c379a0000000000000000000000000000000000000000000000000000000008152600401611e81919061329d565b5073ffffffffffffffffffffffffffffffffffffffff959095166000818152600288810160209081526040808420815180830183529889528883018581528154600180820184559287528487209a5195029099019384559751929097019190915591815260038801825284812095909555600487018152838520929092556005860182528284205560069094019093529190912080547fffffffffffffffffffffffffffffffffffffffffffffffffffffffffff0000001662ffffff909216919091179055565b60006121db604051806040016040528060008152602001600081525090565b83836121e78282611ed2565b6040518060400160405280600381526020017f555254000000000000000000000000000000000000000000000000000000000081525090612255576040517f08c379a0000000000000000000000000000000000000000000000000000000008152600401611e81919061329d565b5073ffffffffffffffffffffffffffffffffffffffff85166000908152600287016020526040902061228690612973565b9097909650945050505050565b61229d8585611ed2565b156040518060400160405280600381526020017f41524f00000000000000000000000000000000000000000000000000000000008152509061230c576040517f08c379a0000000000000000000000000000000000000000000000000000000008152600401611e81919061329d565b506123178585611de3565b5073ffffffffffffffffffffffffffffffffffffffff90931660009081526002850160209081526040808320805463ffffffff9687167fffffffffffffffffffffffffffffffffffffffffffffffffffffffff00000000918216179091556003880183528184208054959096169416939093179093556004909401909152909120805460ff9092167fffffffffffffffffffffffffffffffffffffffffffffffffffffffffffffff00909216919091179055565b60606000611ddc83612b51565b600081815260018301602052604081205461241f57508154600181810184556000848152602080822090930184905584548482528286019093526040902091909155610cc3565b506000610cc3565b6040805180820190915260008082526020820152825460408051808201909152600481527f49524e490000000000000000000000000000000000000000000000000000000060208201526000918591906124ae576040517f08c379a0000000000000000000000000000000000000000000000000000000008152600401611e81919061329d565b5084545b801561252e576001810392508583815481106124d0576124d061326e565b600091825260209182902060408051808201909152600290920201805482526001015491810182905294508510612507575061256d565b7fffffffffffffffffffffffffffffffffffffffffffffffffffffffffffffffff016124b2565b50846000815481106125425761254261326e565b6000918252602080832060408051808201909152600290930201805483526001015490820152935091505b509250929050565b6000611ddc8373ffffffffffffffffffffffffffffffffffffffff8416612bac565b825460408051808201909152600481527f49524e490000000000000000000000000000000000000000000000000000000060208201528491612606576040517f08c379a0000000000000000000000000000000000000000000000000000000008152600401611e81919061329d565b5060408051808201909152600481527f49524f46000000000000000000000000000000000000000000000000000000006020820152612710841115612678576040517f08c379a0000000000000000000000000000000000000000000000000000000008152600401611e81919061329d565b5060408051808201909152600481527f495250540000000000000000000000000000000000000000000000000000000060208201524283116126e7576040517f08c379a0000000000000000000000000000000000000000000000000000000008152600401611e81919061329d565b50835460009085906126fb90600190613338565b8154811061270b5761270b61326e565b9060005260206000209060020201604051806040016040529081600082015481526020016001820154815250509050806020015183116040518060400160405280600481526020017f49524e4100000000000000000000000000000000000000000000000000000000815250906127af576040517f08c379a0000000000000000000000000000000000000000000000000000000008152600401611e81919061329d565b5050604080518082019091529283525060208083019182528354600181810186556000958652919094209251600290940290920192835551910155565b835460408051808201909152600481527f49524e4900000000000000000000000000000000000000000000000000000000602082015260009186919061285f576040517f08c379a0000000000000000000000000000000000000000000000000000000008152600401611e81919061329d565b50828410612870576000915061296a565b85546000907fffffffffffffffffffffffffffffffffffffffffffffffffffffffffffffffff905b8015612964576000896128ac600184613338565b815481106128bc576128bc61326e565b90600052602060002090600202016040518060400160405290816000820154815260200160018201548152505090508783116128f85750612964565b61292889826000015161290f8b8560200151612c9f565b6129198b88612cb5565b6129239190613338565b612cc4565b612932908561334b565b60209091015190935091507fffffffffffffffffffffffffffffffffffffffffffffffffffffffffffffffff01612898565b50909250505b50949350505050565b6000612992604051806040016040528060008152602001600081525090565b825460408051808201909152600481527f49524e490000000000000000000000000000000000000000000000000000000060208201528491612a01576040517f08c379a0000000000000000000000000000000000000000000000000000000008152600401611e81919061329d565b508354600110612a2d576000604051806040016040528060008152602001600081525092509250612b4b565b83546000908590612a4090600190613338565b81548110612a5057612a5061326e565b9060005260206000209060020201604051806040016040529081600082015481526020016001820154815250509050806020015142106040518060400160405280600481526020017f495241410000000000000000000000000000000000000000000000000000000081525090612af4576040517f08c379a0000000000000000000000000000000000000000000000000000000008152600401611e81919061329d565b5084805480612b0557612b0561335e565b60008281526020812060027fffffffffffffffffffffffffffffffffffffffffffffffffffffffffffffffff909301928302018181556001908101919091559155935091505b50915091565b606081600001805480602002602001604051908101604052809291908181526020018280548015611d8e57602002820191906000526020600020905b815481526020019060010190808311612b8d5750505050509050919050565b60008181526001830160205260408120548015612c95576000612bd0600183613338565b8554909150600090612be490600190613338565b9050818114612c49576000866000018281548110612c0457612c0461326e565b9060005260206000200154905080876000018481548110612c2757612c2761326e565b6000918252602080832090910192909255918252600188019052604090208390555b8554869080612c5a57612c5a61335e565b600190038181906000526020600020016000905590558560010160008681526020019081526020016000206000905560019350505050610cc3565b6000915050610cc3565b6000818311612cae5781611ddc565b5090919050565b6000818310612cae5781611ddc565b6000612ced612cd3838561338d565b612ce36301e1338061271061338d565b8691906001612cf5565b949350505050565b600080612d03868686612d50565b90506001836002811115612d1957612d196133a4565b148015612d36575060008480612d3157612d316133d3565b868809115b1561113c57612d4660018261334b565b9695505050505050565b600080807fffffffffffffffffffffffffffffffffffffffffffffffffffffffffffffffff85870985870292508281108382030391505080600003612da857838281612d9e57612d9e6133d3565b0492505050611ddc565b808411612e11576040517f08c379a000000000000000000000000000000000000000000000000000000000815260206004820152601560248201527f4d6174683a206d756c446976206f766572666c6f7700000000000000000000006044820152606401611e81565b60008486880960026001871981018816978890046003810283188082028403028082028403028082028403028082028403028082028403029081029092039091026000889003889004909101858311909403939093029303949094049190911702949350505050565b73ffffffffffffffffffffffffffffffffffffffff81168114612e9c57600080fd5b50565b600060208284031215612eb157600080fd5b8135611ddc81612e7a565b6020808252825182820181905260009190848201906040850190845b81811015612f0a57835173ffffffffffffffffffffffffffffffffffffffff1683529284019291840191600101612ed8565b50909695505050505050565b60008060408385031215612f2957600080fd5b8235612f3481612e7a565b946020939093013593505050565b602080825282518282018190526000919060409081850190868401855b82811015612f8457815180518552860151868501529284019290850190600101612f5f565b5091979650505050505050565b60008060408385031215612fa457600080fd5b8235612faf81612e7a565b91506020830135612fbf81612e7a565b809150509250929050565b803562ffffff81168114612fdd57600080fd5b919050565b60008060408385031215612ff557600080fd5b823561300081612e7a565b915061300e60208401612fca565b90509250929050565b60008060006060848603121561302c57600080fd5b833561303781612e7a565b95602085013595506040909401359392505050565b6000806000806080858703121561306257600080fd5b843561306d81612e7a565b966020860135965060408601359560600135945092505050565b803560ff81168114612fdd57600080fd5b600080604083850312156130ab57600080fd5b82356130b681612e7a565b915061300e60208401613087565b60008060008060008060c087890312156130dd57600080fd5b86356130e881612e7a565b95506020870135945060408701359350606087013592506080870135915061311260a08801612fca565b90509295509295509295565b803563ffffffff81168114612fdd57600080fd5b600080828403608081121561314657600080fd5b833561315181612e7a565b925060607fffffffffffffffffffffffffffffffffffffffffffffffffffffffffffffffe08201121561318357600080fd5b506040516060810181811067ffffffffffffffff821117156131ce577f4e487b7100000000000000000000000000000000000000000000000000000000600052604160045260246000fd5b6040526131dd6020850161311e565b81526131eb6040850161311e565b60208201526131fc60608501613087565b6040820152809150509250929050565b60008060006060848603121561322157600080fd5b833561322c81612e7a565b925061323a6020850161311e565b91506132486040850161311e565b90509250925092565b60006020828403121561326357600080fd5b8151611ddc81612e7a565b7f4e487b7100000000000000000000000000000000000000000000000000000000600052603260045260246000fd5b600060208083528351808285015260005b818110156132ca578581018301518582016040015282016132ae565b5060006040828601015260407fffffffffffffffffffffffffffffffffffffffffffffffffffffffffffffffe0601f8301168501019250505092915050565b7f4e487b7100000000000000000000000000000000000000000000000000000000600052601160045260246000fd5b81810381811115610cc357610cc3613309565b80820180821115610cc357610cc3613309565b7f4e487b7100000000000000000000000000000000000000000000000000000000600052603160045260246000fd5b8082028115828204841417610cc357610cc3613309565b7f4e487b7100000000000000000000000000000000000000000000000000000000600052602160045260246000fd5b7f4e487b7100000000000000000000000000000000000000000000000000000000600052601260045260246000fdfea2646970667358221220dc6e7b2d70a59f3e788ec7b018e0ab0855590a0fe789ceb5043dc9ea475a024b64736f6c63430008130033",
  "deployedBytecode": "0x608060405234801561001057600080fd5b50600436106102ad5760003560e01c8063705b170e1161017b578063b38e8bc6116100d8578063ec2c90161161008c578063fbfa77cf11610071578063fbfa77cf14610673578063fc3e902614610693578063fddd4d8f146106a657600080fd5b8063ec2c901614610658578063f76443201461066057600080fd5b8063e4517f09116100bd578063e4517f091461061f578063e4f7b8a914610632578063ea38ff331461064557600080fd5b8063b38e8bc6146105f9578063dc2d7f181461060c57600080fd5b8063890357301161012f578063a1edd04611610114578063a1edd046146105c0578063a7f557d4146105d3578063a8c885af146105e657600080fd5b80638903573014610544578063919c0653146105ad57600080fd5b80637f51bb1f116101605780637f51bb1f146104e6578063827f909f146104f9578063861bef211461050157600080fd5b8063705b170e146104c0578063714af34b146104d357600080fd5b806333c9d5d7116102295780635b5b52c0116101dd57806367250c95116101c257806367250c95146104735780636817031b1461049a5780636cfaa541146104ad57600080fd5b80635b5b52c01461043357806361d027b31461045357600080fd5b80634162169f1161020e5780634162169f146103dd5780634a58e49e146103fd5780634ba1c3781461042057600080fd5b806333c9d5d7146103855780634046ebae1461039857600080fd5b8063207fd1261161028057806327633b5b1161026557806327633b5b1461034c57806328abb7631461035f5780632f4ce9761461037257600080fd5b8063207fd1261461031857806324b101981461032b57600080fd5b806301c76f81146102b257806306216c37146102c75780630ae29d04146102e55780630e1a4f0d146102f8575b600080fd5b6102c56102c0366004612e9f565b6106b9565b005b6102cf6107c9565b6040516102dc9190612ebc565b60405180910390f35b6102c56102f3366004612f16565b6107da565b61030b610306366004612e9f565b61087f565b6040516102dc9190612f42565b6102c5610326366004612f91565b610918565b61033e610339366004612e9f565b610cb6565b6040519081526020016102dc565b61033e61035a366004612e9f565b610cc9565b61033e61036d366004612e9f565b610cf4565b6102c5610380366004612f16565b610d1f565b6102c5610393366004612e9f565b610dc4565b6001546103b89073ffffffffffffffffffffffffffffffffffffffff1681565b60405173ffffffffffffffffffffffffffffffffffffffff90911681526020016102dc565b6000546103b89073ffffffffffffffffffffffffffffffffffffffff1681565b61041061040b366004612e9f565b610e64565b60405190151581526020016102dc565b6102c561042e366004612fe2565b610e71565b6003546103b89073ffffffffffffffffffffffffffffffffffffffff1681565b6004546103b89073ffffffffffffffffffffffffffffffffffffffff1681565b610486610481366004612e9f565b610f44565b60405162ffffff90911681526020016102dc565b6102c56104a8366004612e9f565b610f74565b6102c56104bb366004613017565b611084565b61033e6104ce36600461304c565b61112c565b6103b86104e1366004612f91565b611145565b6102c56104f4366004612e9f565b611310565b6102cf6113d0565b61051461050f366004612e9f565b6113dc565b60408051825163ffffffff9081168252602080850151909116908201529181015160ff16908201526060016102dc565b6105806040805180820190915260185473ffffffffffffffffffffffffffffffffffffffff908116808352601954909116602090920182905291565b6040805173ffffffffffffffffffffffffffffffffffffffff9384168152929091166020830152016102dc565b6102c56105bb366004613098565b6114a2565b6104106105ce366004612e9f565b6115c7565b6102c56105e13660046130c4565b6115d4565b6102c56105f4366004612e9f565b6117b8565b6102c5610607366004612e9f565b611876565b61041061061a366004612e9f565b61192d565b6102c561062d366004613132565b61193a565b6102c5610640366004612f16565b611a16565b6102c5610653366004612e9f565b611abb565b6102cf611bcb565b6102c561066e36600461320c565b611bd7565b6002546103b89073ffffffffffffffffffffffffffffffffffffffff1681565b6102cf6106a1366004612e9f565b611d0a565b61033e6106b4366004612e9f565b611d9a565b60005473ffffffffffffffffffffffffffffffffffffffff16331461070a576040517f808ca14f00000000000000000000000000000000000000000000000000000000815260040160405180910390fd5b60015473ffffffffffffffffffffffffffffffffffffffff161561075a576040517fb209caed00000000000000000000000000000000000000000000000000000000815260040160405180910390fd5b600180547fffffffffffffffffffffffff00000000000000000000000000000000000000001673ffffffffffffffffffffffffffffffffffffffff83169081179091556040517f111c6aeb2006d748bdae2ddf082866e6ce7eb3d48ef324b5d9547570f5694e4f90600090a250565b60606107d56011611dc5565b905090565b60005473ffffffffffffffffffffffffffffffffffffffff16331461082b576040517f808ca14f00000000000000000000000000000000000000000000000000000000815260040160405180910390fd5b73ffffffffffffffffffffffffffffffffffffffff8216600081815260146020526040808220849055518392917f4c0223e719940189ef3681b9c0f0450c816c7a262c1963087e3a4911f3bccf5191a35050565b73ffffffffffffffffffffffffffffffffffffffff81166000908152601360205260409020606090805480602002602001604051908101604052809291908181526020016000905b8282101561090d578382906000526020600020906002020160405180604001604052908160008201548152602001600182015481525050815260200190600101906108c7565b505050509050919050565b81610924600c82611dd0565b61095a576040517f3c9b573900000000000000000000000000000000000000000000000000000000815260040160405180910390fd5b610965601183611dd0565b61099b576040517f12a5f55200000000000000000000000000000000000000000000000000000000815260040160405180910390fd5b73ffffffffffffffffffffffffffffffffffffffff8084166000908152601a602090815260408083209386168352929052205460ff1615610a08576040517fde70de2200000000000000000000000000000000000000000000000000000000815260040160405180910390fd5b600554600654600754600854600954600a54600b546040517faeb856e30000000000000000000000000000000000000000000000000000000081526018600482015273ffffffffffffffffffffffffffffffffffffffff808c166024830152808b1660448301529788166064820152958716608487015293861660a486015291851660c4850152841660e484015283166101048301529190911661012482015260009073__$def3efb638fd3775ee36c7565ed0f7c2d4$__9063aeb856e39061014401602060405180830381865af4158015610ae8573d6000803e3d6000fd5b505050506040513d601f19601f82011682018060405250810190610b0c9190613251565b73ffffffffffffffffffffffffffffffffffffffff8581166000908152601a6020908152604080832088851684528252808320805460017fffffffffffffffffffffffffffffffffffffffffffffffffffffffffffffff009091168117909155601b835290832080549182018155835291200180547fffffffffffffffffffffffff0000000000000000000000000000000000000000169183169190911790559050610bb9601c82611de3565b506002546040517fc440a65c00000000000000000000000000000000000000000000000000000000815273ffffffffffffffffffffffffffffffffffffffff83811660048301529091169063c440a65c90602401600060405180830381600087803b158015610c2757600080fd5b505af1158015610c3b573d6000803e3d6000fd5b505050508073ffffffffffffffffffffffffffffffffffffffff168373ffffffffffffffffffffffffffffffffffffffff168573ffffffffffffffffffffffffffffffffffffffff167fe63e6130091e2155004c4b5ac35e8fb9be704d6637ff3068a8f710ba36c9f41a60405160405180910390a450505050565b6000610cc3601183611e05565b92915050565b73ffffffffffffffffffffffffffffffffffffffff8116600090815260146020526040812054610cc3565b73ffffffffffffffffffffffffffffffffffffffff8116600090815260156020526040812054610cc3565b60005473ffffffffffffffffffffffffffffffffffffffff163314610d70576040517f808ca14f00000000000000000000000000000000000000000000000000000000815260040160405180910390fd5b73ffffffffffffffffffffffffffffffffffffffff8216600081815260166020526040808220849055518392917fad9146057238aa90fc2f022eed688ed9c094d5b01a070c1d9ed7140ae1e90b5a91a35050565b60005473ffffffffffffffffffffffffffffffffffffffff163314610e15576040517f808ca14f00000000000000000000000000000000000000000000000000000000815260040160405180910390fd5b610e20600c82611ec8565b60405173ffffffffffffffffffffffffffffffffffffffff8216907f2204279f4b3dc089ca3bb773580383cc44d6d1414667f78def48751c811422d090600090a250565b6000610cc3601c83611ed2565b60005473ffffffffffffffffffffffffffffffffffffffff163314610ec2576040517f808ca14f00000000000000000000000000000000000000000000000000000000815260040160405180910390fd5b73ffffffffffffffffffffffffffffffffffffffff821660008181526017602052604080822080547fffffffffffffffffffffffffffffffffffffffffffffffffffffffffff0000001662ffffff861690811790915590519092917fdb5545d4da29cde71057a77fa9788f26638ed7c232145a360e250d112462286a91a35050565b73ffffffffffffffffffffffffffffffffffffffff811660009081526017602052604081205462ffffff16610cc3565b60005473ffffffffffffffffffffffffffffffffffffffff163314610fc5576040517f808ca14f00000000000000000000000000000000000000000000000000000000815260040160405180910390fd5b60025473ffffffffffffffffffffffffffffffffffffffff1615611015576040517fb661034d00000000000000000000000000000000000000000000000000000000815260040160405180910390fd5b600280547fffffffffffffffffffffffff00000000000000000000000000000000000000001673ffffffffffffffffffffffffffffffffffffffff83169081179091556040517fd459c7242e23d490831b5676a611c4342d899d28f342d89ae80793e56a930f3090600090a250565b60005473ffffffffffffffffffffffffffffffffffffffff1633146110d5576040517f808ca14f00000000000000000000000000000000000000000000000000000000815260040160405180910390fd5b6110e26011848484611f01565b80828473ffffffffffffffffffffffffffffffffffffffff167ff88fac6bf5acd4c3248b702ace956ada3aed01acc26526e8d25e264af2bd28e860405160405180910390a4505050565b600061113c601186868686611fb6565b95945050505050565b73ffffffffffffffffffffffffffffffffffffffff8083166000908152601a6020908152604080832093851683529290529081205460ff1661118957506000610cc3565b73ffffffffffffffffffffffffffffffffffffffff82166000908152601b602090815260408083208054825181850281018501909352808352919290919083018282801561120d57602002820191906000526020600020905b815473ffffffffffffffffffffffffffffffffffffffff1681526001909101906020018083116111e2575b5050505050905060005b8151811015611305578473ffffffffffffffffffffffffffffffffffffffff168282815181106112495761124961326e565b602002602001015173ffffffffffffffffffffffffffffffffffffffff16630aa7d2f96040518163ffffffff1660e01b8152600401602060405180830381865afa15801561129b573d6000803e3d6000fd5b505050506040513d601f19601f820116820180604052508101906112bf9190613251565b73ffffffffffffffffffffffffffffffffffffffff16036112fd578181815181106112ec576112ec61326e565b602002602001015192505050610cc3565b600101611217565b506000949350505050565b60005473ffffffffffffffffffffffffffffffffffffffff163314611361576040517f808ca14f00000000000000000000000000000000000000000000000000000000815260040160405180910390fd5b600480547fffffffffffffffffffffffff00000000000000000000000000000000000000001673ffffffffffffffffffffffffffffffffffffffff83169081179091556040517f1f54d231bb9d500b1923e4a1cb25e600f366a8368873d9af7c1c623814df19fc90600090a250565b60606107d5600c611dc5565b604080516060810182526000808252602082018190529181019190915281611405600c82611dd0565b61143b576040517f3c9b573900000000000000000000000000000000000000000000000000000000815260040160405180910390fd5b505073ffffffffffffffffffffffffffffffffffffffff166000908152600e6020908152604080832054600f835281842054601084529382902054825160608101845263ffffffff9283168152919094169281019290925260ff9092169181019190915290565b60005473ffffffffffffffffffffffffffffffffffffffff1633146114f3576040517f808ca14f00000000000000000000000000000000000000000000000000000000815260040160405180910390fd5b816114ff600c82611dd0565b611535576040517f3c9b573900000000000000000000000000000000000000000000000000000000815260040160405180910390fd5b60018260ff16111561154657600080fd5b73ffffffffffffffffffffffffffffffffffffffff831660008181526010602052604080822080547fffffffffffffffffffffffffffffffffffffffffffffffffffffffffffffff001660ff871690811790915590519092917f8a1c882c046939115ffa25c4b35cc2c2f2950b67b62295c136ecc4a6ab67f9ac91a3505050565b6000610cc3600c83611dd0565b60005473ffffffffffffffffffffffffffffffffffffffff163314611625576040517f808ca14f00000000000000000000000000000000000000000000000000000000815260040160405180910390fd5b611635601187878787878761207d565b6003546040517ff900a8b400000000000000000000000000000000000000000000000000000000815273ffffffffffffffffffffffffffffffffffffffff8881166004830152600160248301529091169063f900a8b490604401600060405180830381600087803b1580156116a957600080fd5b505af11580156116bd573d6000803e3d6000fd5b50506002546040517f687d5dd400000000000000000000000000000000000000000000000000000000815273ffffffffffffffffffffffffffffffffffffffff8a81166004830152909116925063687d5dd49150602401600060405180830381600087803b15801561172e57600080fd5b505af1158015611742573d6000803e3d6000fd5b5050505083858773ffffffffffffffffffffffffffffffffffffffff167f24b44a8fe42510e0d47e78dc5be1fcf5ab09678e39e793881b17b75536c1c11b8686866040516117a893929190928352602083019190915262ffffff16604082015260600190565b60405180910390a4505050505050565b60005473ffffffffffffffffffffffffffffffffffffffff163314611809576040517f808ca14f00000000000000000000000000000000000000000000000000000000815260040160405180910390fd5b600080547fffffffffffffffffffffffff00000000000000000000000000000000000000001673ffffffffffffffffffffffffffffffffffffffff8316908117825560405190917f9a2ad28991c4a863dd3516183dfda4db8e8aa1c0e550a73570b1c4616301cbc691a250565b60005473ffffffffffffffffffffffffffffffffffffffff1633146118c7576040517f808ca14f00000000000000000000000000000000000000000000000000000000815260040160405180910390fd5b6000806118d56011846121bc565b915091508115611928576020810151815160405173ffffffffffffffffffffffffffffffffffffffff8616907f87cc7629e5df6261b917b2a00b3640c9e8a60161f4018a2285189d10f08540e190600090a45b505050565b6000610cc3601183611dd0565b60005473ffffffffffffffffffffffffffffffffffffffff16331461198b576040517f808ca14f00000000000000000000000000000000000000000000000000000000815260040160405180910390fd5b8051602082015160408301516119a592600c928692612293565b60408051825163ffffffff9081168252602080850151909116908201528282015160ff1681830152905173ffffffffffffffffffffffffffffffffffffffff8416917ff99b41a10d1100eaee0ac166534e61bcabeb6bb3a1b683368130fc6b7a5ae4e4919081900360600190a25050565b60005473ffffffffffffffffffffffffffffffffffffffff163314611a67576040517f808ca14f00000000000000000000000000000000000000000000000000000000815260040160405180910390fd5b73ffffffffffffffffffffffffffffffffffffffff8216600081815260156020526040808220849055518392917fed3e1e456a52cdc00b8ea60fb4aae37d7e76d31b3e8e7a5581af66fb75e538a391a35050565b60005473ffffffffffffffffffffffffffffffffffffffff163314611b0c576040517f808ca14f00000000000000000000000000000000000000000000000000000000815260040160405180910390fd5b60035473ffffffffffffffffffffffffffffffffffffffff1615611b5c576040517f85295cee00000000000000000000000000000000000000000000000000000000815260040160405180910390fd5b600380547fffffffffffffffffffffffff00000000000000000000000000000000000000001673ffffffffffffffffffffffffffffffffffffffff83169081179091556040517f66a0284e74772dd27a28a7555f29db18bb60baa297a3d8bd5ca654309d6efb3890600090a250565b60606107d5601c6123cb565b60005473ffffffffffffffffffffffffffffffffffffffff163314611c28576040517f808ca14f00000000000000000000000000000000000000000000000000000000815260040160405180910390fd5b82611c34600c82611dd0565b611c6a576040517f3c9b573900000000000000000000000000000000000000000000000000000000815260040160405180910390fd5b73ffffffffffffffffffffffffffffffffffffffff84166000818152600e6020908152604080832080547fffffffffffffffffffffffffffffffffffffffffffffffffffffffff0000000090811663ffffffff8a8116918217909355600f909452828520805490911691881691821790559051909391927fb68a23d4ed61e96aba80d9f6099f4b9b69af02096eea143d56fb385ea97ad3d791a450505050565b73ffffffffffffffffffffffffffffffffffffffff81166000908152601b6020908152604091829020805483518184028101840190945280845260609392830182828015611d8e57602002820191906000526020600020905b815473ffffffffffffffffffffffffffffffffffffffff168152600190910190602001808311611d63575b50505050509050919050565b73ffffffffffffffffffffffffffffffffffffffff8116600090815260166020526040812054610cc3565b6060610cc3826123cb565b6000611ddc8383611ed2565b9392505050565b6000611ddc8373ffffffffffffffffffffffffffffffffffffffff84166123d8565b60008282611e138282611ed2565b6040518060400160405280600381526020017f555254000000000000000000000000000000000000000000000000000000000081525090611e8a576040517f08c379a0000000000000000000000000000000000000000000000000000000008152600401611e81919061329d565b60405180910390fd5b5073ffffffffffffffffffffffffffffffffffffffff841660009081526002860160205260408120611ebc9042612427565b50519695505050505050565b6119288282612575565b73ffffffffffffffffffffffffffffffffffffffff811660009081526001830160205260408120541515611ddc565b8383611f0d8282611ed2565b6040518060400160405280600381526020017f555254000000000000000000000000000000000000000000000000000000000081525090611f7b576040517f08c379a0000000000000000000000000000000000000000000000000000000008152600401611e81919061329d565b5073ffffffffffffffffffffffffffffffffffffffff851660009081526002870160205260409020611fae908585612597565b505050505050565b60008585611fc48282611ed2565b6040518060400160405280600381526020017f555254000000000000000000000000000000000000000000000000000000000081525090612032576040517f08c379a0000000000000000000000000000000000000000000000000000000008152600401611e81919061329d565b506120718686866120698c8c73ffffffffffffffffffffffffffffffffffffffff1660009081526002919091016020526040902090565b9291906127ec565b98975050505050505050565b6120878787611de3565b6040518060400160405280600381526020017f4152540000000000000000000000000000000000000000000000000000000000815250906120f5576040517f08c379a0000000000000000000000000000000000000000000000000000000008152600401611e81919061329d565b5073ffffffffffffffffffffffffffffffffffffffff959095166000818152600288810160209081526040808420815180830183529889528883018581528154600180820184559287528487209a5195029099019384559751929097019190915591815260038801825284812095909555600487018152838520929092556005860182528284205560069094019093529190912080547fffffffffffffffffffffffffffffffffffffffffffffffffffffffffff0000001662ffffff909216919091179055565b60006121db604051806040016040528060008152602001600081525090565b83836121e78282611ed2565b6040518060400160405280600381526020017f555254000000000000000000000000000000000000000000000000000000000081525090612255576040517f08c379a0000000000000000000000000000000000000000000000000000000008152600401611e81919061329d565b5073ffffffffffffffffffffffffffffffffffffffff85166000908152600287016020526040902061228690612973565b9097909650945050505050565b61229d8585611ed2565b156040518060400160405280600381526020017f41524f00000000000000000000000000000000000000000000000000000000008152509061230c576040517f08c379a0000000000000000000000000000000000000000000000000000000008152600401611e81919061329d565b506123178585611de3565b5073ffffffffffffffffffffffffffffffffffffffff90931660009081526002850160209081526040808320805463ffffffff9687167fffffffffffffffffffffffffffffffffffffffffffffffffffffffff00000000918216179091556003880183528184208054959096169416939093179093556004909401909152909120805460ff9092167fffffffffffffffffffffffffffffffffffffffffffffffffffffffffffffff00909216919091179055565b60606000611ddc83612b51565b600081815260018301602052604081205461241f57508154600181810184556000848152602080822090930184905584548482528286019093526040902091909155610cc3565b506000610cc3565b6040805180820190915260008082526020820152825460408051808201909152600481527f49524e490000000000000000000000000000000000000000000000000000000060208201526000918591906124ae576040517f08c379a0000000000000000000000000000000000000000000000000000000008152600401611e81919061329d565b5084545b801561252e576001810392508583815481106124d0576124d061326e565b600091825260209182902060408051808201909152600290920201805482526001015491810182905294508510612507575061256d565b7fffffffffffffffffffffffffffffffffffffffffffffffffffffffffffffffff016124b2565b50846000815481106125425761254261326e565b6000918252602080832060408051808201909152600290930201805483526001015490820152935091505b509250929050565b6000611ddc8373ffffffffffffffffffffffffffffffffffffffff8416612bac565b825460408051808201909152600481527f49524e490000000000000000000000000000000000000000000000000000000060208201528491612606576040517f08c379a0000000000000000000000000000000000000000000000000000000008152600401611e81919061329d565b5060408051808201909152600481527f49524f46000000000000000000000000000000000000000000000000000000006020820152612710841115612678576040517f08c379a0000000000000000000000000000000000000000000000000000000008152600401611e81919061329d565b5060408051808201909152600481527f495250540000000000000000000000000000000000000000000000000000000060208201524283116126e7576040517f08c379a0000000000000000000000000000000000000000000000000000000008152600401611e81919061329d565b50835460009085906126fb90600190613338565b8154811061270b5761270b61326e565b9060005260206000209060020201604051806040016040529081600082015481526020016001820154815250509050806020015183116040518060400160405280600481526020017f49524e4100000000000000000000000000000000000000000000000000000000815250906127af576040517f08c379a0000000000000000000000000000000000000000000000000000000008152600401611e81919061329d565b5050604080518082019091529283525060208083019182528354600181810186556000958652919094209251600290940290920192835551910155565b835460408051808201909152600481527f49524e4900000000000000000000000000000000000000000000000000000000602082015260009186919061285f576040517f08c379a0000000000000000000000000000000000000000000000000000000008152600401611e81919061329d565b50828410612870576000915061296a565b85546000907fffffffffffffffffffffffffffffffffffffffffffffffffffffffffffffffff905b8015612964576000896128ac600184613338565b815481106128bc576128bc61326e565b90600052602060002090600202016040518060400160405290816000820154815260200160018201548152505090508783116128f85750612964565b61292889826000015161290f8b8560200151612c9f565b6129198b88612cb5565b6129239190613338565b612cc4565b612932908561334b565b60209091015190935091507fffffffffffffffffffffffffffffffffffffffffffffffffffffffffffffffff01612898565b50909250505b50949350505050565b6000612992604051806040016040528060008152602001600081525090565b825460408051808201909152600481527f49524e490000000000000000000000000000000000000000000000000000000060208201528491612a01576040517f08c379a0000000000000000000000000000000000000000000000000000000008152600401611e81919061329d565b508354600110612a2d576000604051806040016040528060008152602001600081525092509250612b4b565b83546000908590612a4090600190613338565b81548110612a5057612a5061326e565b9060005260206000209060020201604051806040016040529081600082015481526020016001820154815250509050806020015142106040518060400160405280600481526020017f495241410000000000000000000000000000000000000000000000000000000081525090612af4576040517f08c379a0000000000000000000000000000000000000000000000000000000008152600401611e81919061329d565b5084805480612b0557612b0561335e565b60008281526020812060027fffffffffffffffffffffffffffffffffffffffffffffffffffffffffffffffff909301928302018181556001908101919091559155935091505b50915091565b606081600001805480602002602001604051908101604052809291908181526020018280548015611d8e57602002820191906000526020600020905b815481526020019060010190808311612b8d5750505050509050919050565b60008181526001830160205260408120548015612c95576000612bd0600183613338565b8554909150600090612be490600190613338565b9050818114612c49576000866000018281548110612c0457612c0461326e565b9060005260206000200154905080876000018481548110612c2757612c2761326e565b6000918252602080832090910192909255918252600188019052604090208390555b8554869080612c5a57612c5a61335e565b600190038181906000526020600020016000905590558560010160008681526020019081526020016000206000905560019350505050610cc3565b6000915050610cc3565b6000818311612cae5781611ddc565b5090919050565b6000818310612cae5781611ddc565b6000612ced612cd3838561338d565b612ce36301e1338061271061338d565b8691906001612cf5565b949350505050565b600080612d03868686612d50565b90506001836002811115612d1957612d196133a4565b148015612d36575060008480612d3157612d316133d3565b868809115b1561113c57612d4660018261334b565b9695505050505050565b600080807fffffffffffffffffffffffffffffffffffffffffffffffffffffffffffffffff85870985870292508281108382030391505080600003612da857838281612d9e57612d9e6133d3565b0492505050611ddc565b808411612e11576040517f08c379a000000000000000000000000000000000000000000000000000000000815260206004820152601560248201527f4d6174683a206d756c446976206f766572666c6f7700000000000000000000006044820152606401611e81565b60008486880960026001871981018816978890046003810283188082028403028082028403028082028403028082028403028082028403029081029092039091026000889003889004909101858311909403939093029303949094049190911702949350505050565b73ffffffffffffffffffffffffffffffffffffffff81168114612e9c57600080fd5b50565b600060208284031215612eb157600080fd5b8135611ddc81612e7a565b6020808252825182820181905260009190848201906040850190845b81811015612f0a57835173ffffffffffffffffffffffffffffffffffffffff1683529284019291840191600101612ed8565b50909695505050505050565b60008060408385031215612f2957600080fd5b8235612f3481612e7a565b946020939093013593505050565b602080825282518282018190526000919060409081850190868401855b82811015612f8457815180518552860151868501529284019290850190600101612f5f565b5091979650505050505050565b60008060408385031215612fa457600080fd5b8235612faf81612e7a565b91506020830135612fbf81612e7a565b809150509250929050565b803562ffffff81168114612fdd57600080fd5b919050565b60008060408385031215612ff557600080fd5b823561300081612e7a565b915061300e60208401612fca565b90509250929050565b60008060006060848603121561302c57600080fd5b833561303781612e7a565b95602085013595506040909401359392505050565b6000806000806080858703121561306257600080fd5b843561306d81612e7a565b966020860135965060408601359560600135945092505050565b803560ff81168114612fdd57600080fd5b600080604083850312156130ab57600080fd5b82356130b681612e7a565b915061300e60208401613087565b60008060008060008060c087890312156130dd57600080fd5b86356130e881612e7a565b95506020870135945060408701359350606087013592506080870135915061311260a08801612fca565b90509295509295509295565b803563ffffffff81168114612fdd57600080fd5b600080828403608081121561314657600080fd5b833561315181612e7a565b925060607fffffffffffffffffffffffffffffffffffffffffffffffffffffffffffffffe08201121561318357600080fd5b506040516060810181811067ffffffffffffffff821117156131ce577f4e487b7100000000000000000000000000000000000000000000000000000000600052604160045260246000fd5b6040526131dd6020850161311e565b81526131eb6040850161311e565b60208201526131fc60608501613087565b6040820152809150509250929050565b60008060006060848603121561322157600080fd5b833561322c81612e7a565b925061323a6020850161311e565b91506132486040850161311e565b90509250925092565b60006020828403121561326357600080fd5b8151611ddc81612e7a565b7f4e487b7100000000000000000000000000000000000000000000000000000000600052603260045260246000fd5b600060208083528351808285015260005b818110156132ca578581018301518582016040015282016132ae565b5060006040828601015260407fffffffffffffffffffffffffffffffffffffffffffffffffffffffffffffffe0601f8301168501019250505092915050565b7f4e487b7100000000000000000000000000000000000000000000000000000000600052601160045260246000fd5b81810381811115610cc357610cc3613309565b80820180821115610cc357610cc3613309565b7f4e487b7100000000000000000000000000000000000000000000000000000000600052603160045260246000fd5b8082028115828204841417610cc357610cc3613309565b7f4e487b7100000000000000000000000000000000000000000000000000000000600052602160045260246000fd5b7f4e487b7100000000000000000000000000000000000000000000000000000000600052601260045260246000fdfea2646970667358221220dc6e7b2d70a59f3e788ec7b018e0ab0855590a0fe789ceb5043dc9ea475a024b64736f6c63430008130033",
  "libraries": {
    "MarketDeployerLib": "0xAC66D4d89639dF6A0C4333d0e2B16872FB24eeD9"
  },
  "devdoc": {
    "details": "Contract for managing the creation and registration of Chromatic markets.",
    "errors": {
      "AlreadySetKeeperFeePayer()": [
        {
          "details": "Throws an error indicating that the keeper fee payer address is already set."
        }
      ],
      "AlreadySetLiquidator()": [
        {
          "details": "Throws an error indicating that the chromatic liquidator address is already set."
        }
      ],
      "AlreadySetVault()": [
        {
          "details": "Throws an error indicating that the chromatic vault address is already set."
        }
      ],
      "ExistMarket()": [
        {
          "details": "Throws an error indicating that a market already exists for the given oracle provider and settlement token."
        }
      ],
      "NotRegisteredOracleProvider()": [
        {
          "details": "Throws an error indicating that the oracle provider is not registered."
        }
      ],
      "NotRegisteredSettlementToken()": [
        {
          "details": "Throws an error indicating that the settlement token is not registered."
        }
      ],
      "OnlyAccessableByDao()": [
        {
          "details": "Throws an error indicating that the caller is not the DAO."
        }
      ]
    },
    "events": {
      "InterestRateRecordAppended(address,uint256,uint256)": {
        "details": "Emitted when an interest rate record is appended for a settlement token.",
        "params": {
          "annualRateBPS": "The annual interest rate in basis points (BPS).",
          "beginTimestamp": "The timestamp when the interest rate record begins.",
          "token": "The address of the settlement token."
        }
      },
      "LastInterestRateRecordRemoved(address,uint256,uint256)": {
        "details": "Emitted when the last interest rate record is removed for a settlement token.",
        "params": {
          "annualRateBPS": "The annual interest rate in basis points (BPS).",
          "beginTimestamp": "The timestamp when the interest rate record begins.",
          "token": "The address of the settlement token."
        }
      },
      "MarketCreated(address,address,address)": {
        "params": {
          "market": "The address of the created market.",
          "oracleProvider": "The address of the oracle provider.",
          "settlementToken": "The address of the settlement token."
        }
      },
      "OracleProviderRegistered(address,(uint32,uint32,uint8))": {
        "details": "Emitted when a new oracle provider is registered.",
        "params": {
          "oracleProvider": "The address of the registered oracle provider.",
          "properties": "The properties of the registered oracle provider."
        }
      },
      "OracleProviderUnregistered(address)": {
        "details": "Emitted when an oracle provider is unregistered.",
        "params": {
          "oracleProvider": "The address of the unregistered oracle provider."
        }
      },
      "SetEarningDistributionThreshold(address,uint256)": {
        "details": "Emitted when the earning distribution threshold for a settlement token is set.",
        "params": {
          "earningDistributionThreshold": "The new earning distribution threshold for the settlement token.",
          "token": "The address of the settlement token."
        }
      },
      "SetFlashLoanFeeRate(address,uint256)": {
        "details": "Emitted when the flash loan fee rate for a settlement token is set.",
        "params": {
          "flashLoanFeeRate": "The new flash loan fee rate for the settlement token.",
          "token": "The address of the settlement token."
        }
      },
      "SetKeeperFeePayer(address)": {
        "params": {
          "keeperFeePayer": "The keeper fee payer address."
        }
      },
      "SetLiquidator(address)": {
        "params": {
          "liquidator": "The liquidator address."
        }
      },
      "SetMinimumMargin(address,uint256)": {
        "details": "Emitted when the minimum margin for a settlement token is set.",
        "params": {
          "minimumMargin": "The new minimum margin for the settlement token.",
          "token": "The address of the settlement token."
        }
      },
      "SetUniswapFeeTier(address,uint24)": {
        "details": "Emitted when the Uniswap fee tier for a settlement token is set.",
        "params": {
          "token": "The address of the settlement token.",
          "uniswapFeeTier": "The new Uniswap fee tier for the settlement token."
        }
      },
      "SetVault(address)": {
        "params": {
          "vault": "The vault address."
        }
      },
      "SettlementTokenRegistered(address,uint256,uint256,uint256,uint256,uint24)": {
        "details": "Emitted when a new settlement token is registered.",
        "params": {
          "earningDistributionThreshold": "The earning distribution threshold for the settlement token.",
          "flashLoanFeeRate": "The flash loan fee rate for the settlement token.",
          "interestRate": "The interest rate for the settlement token.",
          "minimumMargin": "The minimum margin for the markets using this settlement token.",
          "token": "The address of the registered settlement token.",
          "uniswapFeeTier": "The Uniswap fee tier for the settlement token."
        }
      },
      "UpdateDao(address)": {
        "params": {
          "dao": "The new DAO address."
        }
      },
      "UpdateLeverageLevel(address,uint8)": {
        "details": "Emitted when the level of an oracle provider is set.",
        "params": {
          "level": "The new level set for the oracle provider.",
          "oracleProvider": "The address of the oracle provider."
        }
      },
      "UpdateTakeProfitBPSRange(address,uint32,uint32)": {
        "details": "Emitted when the take-profit basis points range of an oracle provider is updated.",
        "params": {
          "maxTakeProfitBPS": "The new maximum take-profit basis points.",
          "minTakeProfitBPS": "The new minimum take-profit basis points.",
          "oracleProvider": "The address of the oracle provider."
        }
      },
      "UpdateTreasury(address)": {
        "params": {
          "treasury": "The new DAO treasury address."
        }
      }
    },
    "kind": "dev",
    "methods": {
      "appendInterestRateRecord(address,uint256,uint256)": {
        "details": "This function can only be called by the DAO address.",
        "params": {
          "annualRateBPS": "The annual interest rate in basis points (BPS).",
          "beginTimestamp": "The timestamp when the interest rate record begins.",
          "token": "The address of the settlement token."
        }
      },
      "calculateInterest(address,uint256,uint256,uint256)": {
        "params": {
          "amount": "The amount of the token.",
          "from": "The starting timestamp (inclusive) of the time range.",
          "to": "The ending timestamp (exclusive) of the time range.",
          "token": "The address of the token."
        },
        "returns": {
          "_0": "The accrued interest for the specified token and amount within the given time range."
        }
      },
      "constructor": {
        "details": "Initializes the ChromaticMarketFactory contract.",
        "params": {
          "_marketDiamondCutFacet": "The market diamond cut facet address.",
          "_marketLiquidateFacet": "The market liquidate facet address.",
          "_marketLiquidityFacet": "The market liquidity facet address.",
          "_marketLoupeFacet": "The market loupe facet address.",
          "_marketSettleFacet": "The market settle facet address.",
          "_marketStateFacet": "The market state facet address.",
          "_marketTradeFacet": "The market trade facet address."
        }
      },
      "createMarket(address,address)": {
        "details": "This function creates a new market using the specified oracle provider and settlement token addresses.      Throws a `NotRegisteredSettlementToken` error if the settlement token is not registered.      Throws an `ExistMarket` error if the market already exists for the given oracle provider and settlement token.",
        "params": {
          "oracleProvider": "The address of the oracle provider.",
          "settlementToken": "The address of the settlement token."
        }
      },
      "currentInterestRate(address)": {
        "params": {
          "token": "The address of the settlement token."
        },
        "returns": {
          "annualRateBPS": "The current interest rate for the settlement token."
        }
      },
      "getEarningDistributionThreshold(address)": {
        "params": {
          "token": "The address of the settlement token."
        },
        "returns": {
          "_0": "The earning distribution threshold for the settlement token."
        }
      },
      "getFlashLoanFeeRate(address)": {
        "params": {
          "token": "The address of the settlement token."
        },
        "returns": {
          "_0": "The flash loan fee rate for the settlement token."
        }
      },
      "getInterestRateRecords(address)": {
        "params": {
          "token": "The address of the settlement token."
        },
        "returns": {
          "_0": "An array of interest rate records for the settlement token."
        }
      },
      "getMarket(address,address)": {
        "params": {
          "oracleProvider": "The address of the oracle provider.",
          "settlementToken": "The address of the settlement token."
        },
        "returns": {
          "_0": "The address of the market."
        }
      },
      "getMarkets()": {
        "returns": {
          "_0": "An array of all market addresses."
        }
      },
      "getMarketsBySettlmentToken(address)": {
        "params": {
          "settlementToken": "The address of the settlement token."
        },
        "returns": {
          "_0": "An array of market addresses."
        }
      },
      "getMinimumMargin(address)": {
        "details": "The minimumMargin is used as the minimum value for the taker margin of a position      or as the minimum value for the maker margin of each bin.",
        "params": {
          "token": "The address of the settlement token."
        },
        "returns": {
          "_0": "The minimum margin for the settlement token."
        }
      },
      "getOracleProviderProperties(address)": {
        "params": {
          "oracleProvider": "The address of the oracle provider."
        },
        "returns": {
          "_0": "The properties of the oracle provider."
        }
      },
      "getUniswapFeeTier(address)": {
        "params": {
          "token": "The address of the settlement token."
        },
        "returns": {
          "_0": "The Uniswap fee tier for the settlement token."
        }
      },
      "isRegisteredMarket(address)": {
        "params": {
          "market": "The address of the market."
        },
        "returns": {
          "_0": "True if the market is registered, false otherwise."
        }
      },
      "isRegisteredOracleProvider(address)": {
        "params": {
          "oracleProvider": "The address of the oracle provider to check."
        },
        "returns": {
          "_0": "A boolean indicating if the oracle provider is registered."
        }
      },
      "isRegisteredSettlementToken(address)": {
        "params": {
          "token": "The address of the settlement token to check."
        },
        "returns": {
          "_0": "True if the settlement token is registered, false otherwise."
        }
      },
      "parameters()": {
        "details": "Called by the market constructor to fetch the parameters of the market Returns underlyingAsset The underlying asset of the market Returns settlementToken The settlement token of the market Returns vPoolCapacity Capacity of virtual future pool Returns vPoolA Amplification coefficient of virtual future pool, precise value"
      },
      "registerOracleProvider(address,(uint32,uint32,uint8))": {
        "details": "This function can only be called by the DAO address.",
        "params": {
          "oracleProvider": "The address of the oracle provider to register.",
          "properties": "The properties of the oracle provider."
        }
      },
      "registerSettlementToken(address,uint256,uint256,uint256,uint256,uint24)": {
        "details": "This function can only be called by the DAO address.",
        "params": {
          "earningDistributionThreshold": "The earning distribution threshold for the settlement token.",
          "flashLoanFeeRate": "The flash loan fee rate for the settlement token.",
          "interestRate": "The interest rate for the settlement token.",
          "minimumMargin": "The minimum margin for the settlement token.",
          "token": "The address of the settlement token to register.",
          "uniswapFeeTier": "The Uniswap fee tier for the settlement token."
        }
      },
      "registeredOracleProviders()": {
        "returns": {
          "_0": "An array of registered oracle provider addresses."
        }
      },
      "registeredSettlementTokens()": {
        "returns": {
          "_0": "An array of addresses representing the registered settlement tokens."
        }
      },
      "removeLastInterestRateRecord(address)": {
        "details": "This function can only be called by the DAO address.",
        "params": {
          "token": "The address of the settlement token."
        }
      },
      "setEarningDistributionThreshold(address,uint256)": {
        "details": "This function can only be called by the DAO address.",
        "params": {
          "earningDistributionThreshold": "The new earning distribution threshold for the settlement token.",
          "token": "The address of the settlement token."
        }
      },
      "setFlashLoanFeeRate(address,uint256)": {
        "details": "This function can only be called by the DAO address.",
        "params": {
          "flashLoanFeeRate": "The new flash loan fee rate for the settlement token.",
          "token": "The address of the settlement token."
        }
      },
      "setKeeperFeePayer(address)": {
        "details": "This function can only be called by the DAO address.      Throws an `AlreadySetKeeperFeePayer` error if the keeper fee payer address has already been set.",
        "params": {
          "keeperFeePayer": "The keeper fee payer address."
        }
      },
      "setLiquidator(address)": {
        "details": "This function can only be called by the DAO address.      Throws an `AlreadySetLiquidator` error if the liquidator address has already been set.",
        "params": {
          "liquidator": "The liquidator address."
        }
      },
      "setMinimumMargin(address,uint256)": {
        "details": "This function can only be called by the DAO address.",
        "params": {
          "minimumMargin": "The new minimum margin for the settlement token.",
          "token": "The address of the settlement token."
        }
      },
      "setUniswapFeeTier(address,uint24)": {
        "details": "This function can only be called by the DAO address.",
        "params": {
          "token": "The address of the settlement token.",
          "uniswapFeeTier": "The new Uniswap fee tier for the settlement token."
        }
      },
      "setVault(address)": {
        "details": "This function can only be called by the DAO address.      Throws an `AlreadySetVault` error if the vault address has already been set.",
        "params": {
          "vault": "The vault address."
        }
      },
      "unregisterOracleProvider(address)": {
        "details": "This function can only be called by the DAO address.",
        "params": {
          "oracleProvider": "The address of the oracle provider to unregister."
        }
      },
      "updateDao(address)": {
        "details": "This function can only be called by the DAO address.",
        "params": {
          "dao": "The new DAO address."
        }
      },
      "updateLeverageLevel(address,uint8)": {
        "details": "This function can only be called by the DAO and registered oracle providers.",
        "params": {
          "level": "The new leverage level to be set for the oracle provider.",
          "oracleProvider": "The address of the oracle provider."
        }
      },
      "updateTakeProfitBPSRange(address,uint32,uint32)": {
        "details": "This function can only be called by the DAO and registered oracle providers.",
        "params": {
          "maxTakeProfitBPS": "The new maximum take-profit basis points.",
          "minTakeProfitBPS": "The new minimum take-profit basis points.",
          "oracleProvider": "The address of the oracle provider."
        }
      },
      "updateTreasury(address)": {
        "details": "This function can only be called by the DAO address.",
        "params": {
          "treasury": "The new DAO treasury address."
        }
      }
    },
    "stateVariables": {
      "dao": {
        "return": "The address of the DAO.",
        "returns": {
          "_0": "The address of the DAO."
        }
      },
      "keeperFeePayer": {
        "return": "The address of the keeper fee payer.",
        "returns": {
          "_0": "The address of the keeper fee payer."
        }
      },
      "liquidator": {
        "return": "The address of the liquidator.",
        "returns": {
          "_0": "The address of the liquidator."
        }
      },
      "treasury": {
        "return": "The address of the DAO treasury.",
        "returns": {
          "_0": "The address of the DAO treasury."
        }
      },
      "vault": {
        "return": "The address of the vault.",
        "returns": {
          "_0": "The address of the vault."
        }
      }
    },
    "title": "ChromaticMarketFactory",
    "version": 1
  },
  "userdoc": {
    "events": {
      "MarketCreated(address,address,address)": {
        "notice": "Emitted when a market is created."
      },
      "SetKeeperFeePayer(address)": {
        "notice": "Emitted when the keeper fee payer address is set."
      },
      "SetLiquidator(address)": {
        "notice": "Emitted when the liquidator address is set."
      },
      "SetVault(address)": {
        "notice": "Emitted when the vault address is set."
      },
      "UpdateDao(address)": {
        "notice": "Emitted when the DAO address is updated."
      },
      "UpdateTreasury(address)": {
        "notice": "Emitted when the DAO treasury address is updated."
      }
    },
    "kind": "user",
    "methods": {
      "appendInterestRateRecord(address,uint256,uint256)": {
        "notice": "Appends an interest rate record for a settlement token."
      },
      "calculateInterest(address,uint256,uint256,uint256)": {
        "notice": "Calculates the interest accrued for a given token and amount within a specified time range."
      },
      "createMarket(address,address)": {
        "notice": "Creates a new market associated with an oracle provider and settlement token."
      },
      "currentInterestRate(address)": {
        "notice": "Gets the current interest rate for a settlement token."
      },
      "dao()": {
        "notice": "Returns the address of the DAO."
      },
      "getEarningDistributionThreshold(address)": {
        "notice": "Gets the earning distribution threshold for a settlement token."
      },
      "getFlashLoanFeeRate(address)": {
        "notice": "Gets the flash loan fee rate for a settlement token."
      },
      "getInterestRateRecords(address)": {
        "notice": "Gets all the interest rate records for a settlement token."
      },
      "getMarket(address,address)": {
        "notice": "Returns the address of a market associated with an oracle provider and settlement token."
      },
      "getMarkets()": {
        "notice": "Returns an array of all market addresses."
      },
      "getMarketsBySettlmentToken(address)": {
        "notice": "Returns an array of market addresses associated with a settlement token."
      },
      "getMinimumMargin(address)": {
        "notice": "Gets the minimum margin for a settlement token."
      },
      "getOracleProviderProperties(address)": {
        "notice": "Retrieves the properties of an oracle provider."
      },
      "getUniswapFeeTier(address)": {
        "notice": "Gets the Uniswap fee tier for a settlement token."
      },
      "isRegisteredMarket(address)": {
        "notice": "Checks if a market is registered."
      },
      "isRegisteredOracleProvider(address)": {
        "notice": "Checks if an oracle provider is registered."
      },
      "isRegisteredSettlementToken(address)": {
        "notice": "Checks if a settlement token is registered."
      },
      "keeperFeePayer()": {
        "notice": "Returns the address of the keeper fee payer."
      },
      "liquidator()": {
        "notice": "Returns the address of the liquidator."
      },
      "parameters()": {
        "notice": "Get the parameters to be used in constructing the market, set transiently during market creation."
      },
      "registerOracleProvider(address,(uint32,uint32,uint8))": {
        "notice": "Registers an oracle provider."
      },
      "registerSettlementToken(address,uint256,uint256,uint256,uint256,uint24)": {
        "notice": "Registers a new settlement token."
      },
      "registeredOracleProviders()": {
        "notice": "Gets the registered oracle providers."
      },
      "registeredSettlementTokens()": {
        "notice": "Gets the list of registered settlement tokens."
      },
      "removeLastInterestRateRecord(address)": {
        "notice": "Removes the last interest rate record for a settlement token."
      },
      "setEarningDistributionThreshold(address,uint256)": {
        "notice": "Sets the earning distribution threshold for a settlement token."
      },
      "setFlashLoanFeeRate(address,uint256)": {
        "notice": "Sets the flash loan fee rate for a settlement token."
      },
      "setKeeperFeePayer(address)": {
        "notice": "Sets the keeper fee payer address."
      },
      "setLiquidator(address)": {
        "notice": "Sets the liquidator address."
      },
      "setMinimumMargin(address,uint256)": {
        "notice": "Sets the minimum margin for a settlement token."
      },
      "setUniswapFeeTier(address,uint24)": {
        "notice": "Sets the Uniswap fee tier for a settlement token."
      },
      "setVault(address)": {
        "notice": "Sets the vault address."
      },
      "treasury()": {
        "notice": "Returns the address of the DAO treasury."
      },
      "unregisterOracleProvider(address)": {
        "notice": "Unregisters an oracle provider."
      },
      "updateDao(address)": {
        "notice": "Updates the DAO address."
      },
      "updateLeverageLevel(address,uint8)": {
        "notice": "Updates the leverage level of an oracle provider in the registry."
      },
      "updateTakeProfitBPSRange(address,uint32,uint32)": {
        "notice": "Updates the take-profit basis points range of an oracle provider."
      },
      "updateTreasury(address)": {
        "notice": "Updates the DAO treasury address."
      },
      "vault()": {
        "notice": "Returns the address of the vault."
      }
    },
    "version": 1
  },
  "storageLayout": {
    "storage": [
      {
        "astId": 11054,
        "contract": "contracts/core/ChromaticMarketFactory.sol:ChromaticMarketFactory",
        "label": "dao",
        "offset": 0,
        "slot": "0",
        "type": "t_address"
      },
      {
        "astId": 11057,
        "contract": "contracts/core/ChromaticMarketFactory.sol:ChromaticMarketFactory",
        "label": "liquidator",
        "offset": 0,
        "slot": "1",
        "type": "t_address"
      },
      {
        "astId": 11060,
        "contract": "contracts/core/ChromaticMarketFactory.sol:ChromaticMarketFactory",
        "label": "vault",
        "offset": 0,
        "slot": "2",
        "type": "t_address"
      },
      {
        "astId": 11063,
        "contract": "contracts/core/ChromaticMarketFactory.sol:ChromaticMarketFactory",
        "label": "keeperFeePayer",
        "offset": 0,
        "slot": "3",
        "type": "t_address"
      },
      {
        "astId": 11066,
        "contract": "contracts/core/ChromaticMarketFactory.sol:ChromaticMarketFactory",
        "label": "treasury",
        "offset": 0,
        "slot": "4",
        "type": "t_address"
      },
      {
        "astId": 11068,
        "contract": "contracts/core/ChromaticMarketFactory.sol:ChromaticMarketFactory",
        "label": "marketDiamondCutFacet",
        "offset": 0,
        "slot": "5",
        "type": "t_address"
      },
      {
        "astId": 11070,
        "contract": "contracts/core/ChromaticMarketFactory.sol:ChromaticMarketFactory",
        "label": "marketLoupeFacet",
        "offset": 0,
        "slot": "6",
        "type": "t_address"
      },
      {
        "astId": 11072,
        "contract": "contracts/core/ChromaticMarketFactory.sol:ChromaticMarketFactory",
        "label": "marketStateFacet",
        "offset": 0,
        "slot": "7",
        "type": "t_address"
      },
      {
        "astId": 11074,
        "contract": "contracts/core/ChromaticMarketFactory.sol:ChromaticMarketFactory",
        "label": "marketLiquidityFacet",
        "offset": 0,
        "slot": "8",
        "type": "t_address"
      },
      {
        "astId": 11076,
        "contract": "contracts/core/ChromaticMarketFactory.sol:ChromaticMarketFactory",
        "label": "marketTradeFacet",
        "offset": 0,
        "slot": "9",
        "type": "t_address"
      },
      {
        "astId": 11078,
        "contract": "contracts/core/ChromaticMarketFactory.sol:ChromaticMarketFactory",
        "label": "marketLiquidateFacet",
        "offset": 0,
        "slot": "10",
        "type": "t_address"
      },
      {
        "astId": 11080,
        "contract": "contracts/core/ChromaticMarketFactory.sol:ChromaticMarketFactory",
        "label": "marketSettleFacet",
        "offset": 0,
        "slot": "11",
        "type": "t_address"
      },
      {
        "astId": 11083,
        "contract": "contracts/core/ChromaticMarketFactory.sol:ChromaticMarketFactory",
        "label": "_oracleProviderRegistry",
        "offset": 0,
        "slot": "12",
        "type": "t_struct(OracleProviderRegistry)26583_storage"
      },
      {
        "astId": 11086,
        "contract": "contracts/core/ChromaticMarketFactory.sol:ChromaticMarketFactory",
        "label": "_settlementTokenRegistry",
        "offset": 0,
        "slot": "17",
        "type": "t_struct(SettlementTokenRegistry)26827_storage"
      },
      {
        "astId": 11089,
        "contract": "contracts/core/ChromaticMarketFactory.sol:ChromaticMarketFactory",
        "label": "_deployer",
        "offset": 0,
        "slot": "24",
        "type": "t_struct(MarketDeployer)20537_storage"
      },
      {
        "astId": 11095,
        "contract": "contracts/core/ChromaticMarketFactory.sol:ChromaticMarketFactory",
        "label": "_registered",
        "offset": 0,
        "slot": "26",
        "type": "t_mapping(t_address,t_mapping(t_address,t_bool))"
      },
      {
        "astId": 11100,
        "contract": "contracts/core/ChromaticMarketFactory.sol:ChromaticMarketFactory",
        "label": "_marketsBySettlementToken",
        "offset": 0,
        "slot": "27",
        "type": "t_mapping(t_address,t_array(t_address)dyn_storage)"
      },
      {
        "astId": 11103,
        "contract": "contracts/core/ChromaticMarketFactory.sol:ChromaticMarketFactory",
        "label": "_markets",
        "offset": 0,
        "slot": "28",
        "type": "t_struct(AddressSet)9315_storage"
      }
    ],
    "types": {
      "t_address": {
        "encoding": "inplace",
        "label": "address",
        "numberOfBytes": "20"
      },
      "t_array(t_address)dyn_storage": {
        "base": "t_address",
        "encoding": "dynamic_array",
        "label": "address[]",
        "numberOfBytes": "32"
      },
      "t_array(t_bytes32)dyn_storage": {
        "base": "t_bytes32",
        "encoding": "dynamic_array",
        "label": "bytes32[]",
        "numberOfBytes": "32"
      },
      "t_array(t_struct(Record)18767_storage)dyn_storage": {
        "base": "t_struct(Record)18767_storage",
        "encoding": "dynamic_array",
        "label": "struct InterestRate.Record[]",
        "numberOfBytes": "32"
      },
      "t_bool": {
        "encoding": "inplace",
        "label": "bool",
        "numberOfBytes": "1"
      },
      "t_bytes32": {
        "encoding": "inplace",
        "label": "bytes32",
        "numberOfBytes": "32"
      },
      "t_mapping(t_address,t_array(t_address)dyn_storage)": {
        "encoding": "mapping",
        "key": "t_address",
        "label": "mapping(address => address[])",
        "numberOfBytes": "32",
        "value": "t_array(t_address)dyn_storage"
      },
      "t_mapping(t_address,t_array(t_struct(Record)18767_storage)dyn_storage)": {
        "encoding": "mapping",
        "key": "t_address",
        "label": "mapping(address => struct InterestRate.Record[])",
        "numberOfBytes": "32",
        "value": "t_array(t_struct(Record)18767_storage)dyn_storage"
      },
      "t_mapping(t_address,t_bool)": {
        "encoding": "mapping",
        "key": "t_address",
        "label": "mapping(address => bool)",
        "numberOfBytes": "32",
        "value": "t_bool"
      },
      "t_mapping(t_address,t_mapping(t_address,t_bool))": {
        "encoding": "mapping",
        "key": "t_address",
        "label": "mapping(address => mapping(address => bool))",
        "numberOfBytes": "32",
        "value": "t_mapping(t_address,t_bool)"
      },
      "t_mapping(t_address,t_uint24)": {
        "encoding": "mapping",
        "key": "t_address",
        "label": "mapping(address => uint24)",
        "numberOfBytes": "32",
        "value": "t_uint24"
      },
      "t_mapping(t_address,t_uint256)": {
        "encoding": "mapping",
        "key": "t_address",
        "label": "mapping(address => uint256)",
        "numberOfBytes": "32",
        "value": "t_uint256"
      },
      "t_mapping(t_address,t_uint32)": {
        "encoding": "mapping",
        "key": "t_address",
        "label": "mapping(address => uint32)",
        "numberOfBytes": "32",
        "value": "t_uint32"
      },
      "t_mapping(t_address,t_uint8)": {
        "encoding": "mapping",
        "key": "t_address",
        "label": "mapping(address => uint8)",
        "numberOfBytes": "32",
        "value": "t_uint8"
      },
      "t_mapping(t_bytes32,t_uint256)": {
        "encoding": "mapping",
        "key": "t_bytes32",
        "label": "mapping(bytes32 => uint256)",
        "numberOfBytes": "32",
        "value": "t_uint256"
      },
      "t_struct(AddressSet)9315_storage": {
        "encoding": "inplace",
        "label": "struct EnumerableSet.AddressSet",
        "members": [
          {
            "astId": 9314,
            "contract": "contracts/core/ChromaticMarketFactory.sol:ChromaticMarketFactory",
            "label": "_inner",
            "offset": 0,
            "slot": "0",
            "type": "t_struct(Set)9000_storage"
          }
        ],
        "numberOfBytes": "64"
      },
      "t_struct(MarketDeployer)20537_storage": {
        "encoding": "inplace",
        "label": "struct MarketDeployer",
        "members": [
          {
            "astId": 20536,
            "contract": "contracts/core/ChromaticMarketFactory.sol:ChromaticMarketFactory",
            "label": "parameters",
            "offset": 0,
            "slot": "0",
            "type": "t_struct(Parameters)20542_storage"
          }
        ],
        "numberOfBytes": "64"
      },
      "t_struct(OracleProviderRegistry)26583_storage": {
        "encoding": "inplace",
        "label": "struct OracleProviderRegistry",
        "members": [
          {
            "astId": 26570,
            "contract": "contracts/core/ChromaticMarketFactory.sol:ChromaticMarketFactory",
            "label": "_oracleProviders",
            "offset": 0,
            "slot": "0",
            "type": "t_struct(AddressSet)9315_storage"
          },
          {
            "astId": 26574,
            "contract": "contracts/core/ChromaticMarketFactory.sol:ChromaticMarketFactory",
            "label": "_minTakeProfitBPSs",
            "offset": 0,
            "slot": "2",
            "type": "t_mapping(t_address,t_uint32)"
          },
          {
            "astId": 26578,
            "contract": "contracts/core/ChromaticMarketFactory.sol:ChromaticMarketFactory",
            "label": "_maxTakeProfitBPSs",
            "offset": 0,
            "slot": "3",
            "type": "t_mapping(t_address,t_uint32)"
          },
          {
            "astId": 26582,
            "contract": "contracts/core/ChromaticMarketFactory.sol:ChromaticMarketFactory",
            "label": "_leverageLevels",
            "offset": 0,
            "slot": "4",
            "type": "t_mapping(t_address,t_uint8)"
          }
        ],
        "numberOfBytes": "160"
      },
      "t_struct(Parameters)20542_storage": {
        "encoding": "inplace",
        "label": "struct Parameters",
        "members": [
          {
            "astId": 20539,
            "contract": "contracts/core/ChromaticMarketFactory.sol:ChromaticMarketFactory",
            "label": "oracleProvider",
            "offset": 0,
            "slot": "0",
            "type": "t_address"
          },
          {
            "astId": 20541,
            "contract": "contracts/core/ChromaticMarketFactory.sol:ChromaticMarketFactory",
            "label": "settlementToken",
            "offset": 0,
            "slot": "1",
            "type": "t_address"
          }
        ],
        "numberOfBytes": "64"
      },
      "t_struct(Record)18767_storage": {
        "encoding": "inplace",
        "label": "struct InterestRate.Record",
        "members": [
          {
            "astId": 18763,
            "contract": "contracts/core/ChromaticMarketFactory.sol:ChromaticMarketFactory",
            "label": "annualRateBPS",
            "offset": 0,
            "slot": "0",
            "type": "t_uint256"
          },
          {
            "astId": 18766,
            "contract": "contracts/core/ChromaticMarketFactory.sol:ChromaticMarketFactory",
            "label": "beginTimestamp",
            "offset": 0,
            "slot": "1",
            "type": "t_uint256"
          }
        ],
        "numberOfBytes": "64"
      },
      "t_struct(Set)9000_storage": {
        "encoding": "inplace",
        "label": "struct EnumerableSet.Set",
        "members": [
          {
            "astId": 8995,
            "contract": "contracts/core/ChromaticMarketFactory.sol:ChromaticMarketFactory",
            "label": "_values",
            "offset": 0,
            "slot": "0",
            "type": "t_array(t_bytes32)dyn_storage"
          },
          {
            "astId": 8999,
            "contract": "contracts/core/ChromaticMarketFactory.sol:ChromaticMarketFactory",
            "label": "_indexes",
            "offset": 0,
            "slot": "1",
            "type": "t_mapping(t_bytes32,t_uint256)"
          }
        ],
        "numberOfBytes": "64"
      },
      "t_struct(SettlementTokenRegistry)26827_storage": {
        "encoding": "inplace",
        "label": "struct SettlementTokenRegistry",
        "members": [
          {
            "astId": 26799,
            "contract": "contracts/core/ChromaticMarketFactory.sol:ChromaticMarketFactory",
            "label": "_tokens",
            "offset": 0,
            "slot": "0",
            "type": "t_struct(AddressSet)9315_storage"
          },
          {
            "astId": 26806,
            "contract": "contracts/core/ChromaticMarketFactory.sol:ChromaticMarketFactory",
            "label": "_interestRateRecords",
            "offset": 0,
            "slot": "2",
            "type": "t_mapping(t_address,t_array(t_struct(Record)18767_storage)dyn_storage)"
          },
          {
            "astId": 26811,
            "contract": "contracts/core/ChromaticMarketFactory.sol:ChromaticMarketFactory",
            "label": "_minimumMargins",
            "offset": 0,
            "slot": "3",
            "type": "t_mapping(t_address,t_uint256)"
          },
          {
            "astId": 26816,
            "contract": "contracts/core/ChromaticMarketFactory.sol:ChromaticMarketFactory",
            "label": "_flashLoanFeeRates",
            "offset": 0,
            "slot": "4",
            "type": "t_mapping(t_address,t_uint256)"
          },
          {
            "astId": 26821,
            "contract": "contracts/core/ChromaticMarketFactory.sol:ChromaticMarketFactory",
            "label": "_earningDistributionThresholds",
            "offset": 0,
            "slot": "5",
            "type": "t_mapping(t_address,t_uint256)"
          },
          {
            "astId": 26826,
            "contract": "contracts/core/ChromaticMarketFactory.sol:ChromaticMarketFactory",
            "label": "_uniswapFeeTiers",
            "offset": 0,
            "slot": "6",
            "type": "t_mapping(t_address,t_uint24)"
          }
        ],
        "numberOfBytes": "224"
      },
      "t_uint24": {
        "encoding": "inplace",
        "label": "uint24",
        "numberOfBytes": "3"
      },
      "t_uint256": {
        "encoding": "inplace",
        "label": "uint256",
        "numberOfBytes": "32"
      },
      "t_uint32": {
        "encoding": "inplace",
        "label": "uint32",
        "numberOfBytes": "4"
      },
      "t_uint8": {
        "encoding": "inplace",
        "label": "uint8",
        "numberOfBytes": "1"
      }
    }
  }
}