{
  "address": "0x84789AD8a8992AA3d65e5f609658BbED4abAac17",
  "abi": [
    {
      "inputs": [
        {
          "internalType": "contract IChromaticMarketFactory",
          "name": "_factory",
          "type": "address"
        },
        {
          "internalType": "address",
          "name": "_automate",
          "type": "address"
        },
        {
          "internalType": "address",
          "name": "opsProxyFactory",
          "type": "address"
        }
      ],
      "stateMutability": "nonpayable",
      "type": "constructor"
    },
    {
      "inputs": [],
      "name": "OnlyAccessableByMarket",
      "type": "error"
    },
    {
      "inputs": [],
      "name": "automate",
      "outputs": [
        {
          "internalType": "contract IAutomate",
          "name": "",
          "type": "address"
        }
      ],
      "stateMutability": "view",
      "type": "function"
    },
    {
      "inputs": [
        {
          "internalType": "uint256",
          "name": "positionId",
          "type": "uint256"
        }
      ],
      "name": "cancelClaimPositionTask",
      "outputs": [],
      "stateMutability": "nonpayable",
      "type": "function"
    },
    {
      "inputs": [
        {
          "internalType": "uint256",
          "name": "positionId",
          "type": "uint256"
        }
      ],
      "name": "cancelLiquidationTask",
      "outputs": [],
      "stateMutability": "nonpayable",
      "type": "function"
    },
    {
      "inputs": [
        {
          "internalType": "address",
          "name": "market",
          "type": "address"
        },
        {
          "internalType": "uint256",
          "name": "positionId",
          "type": "uint256"
        }
      ],
      "name": "claimPosition",
      "outputs": [],
      "stateMutability": "nonpayable",
      "type": "function"
    },
    {
      "inputs": [
        {
          "internalType": "uint256",
          "name": "positionId",
          "type": "uint256"
        }
      ],
      "name": "createClaimPositionTask",
      "outputs": [],
      "stateMutability": "nonpayable",
      "type": "function"
    },
    {
      "inputs": [
        {
          "internalType": "uint256",
          "name": "positionId",
          "type": "uint256"
        }
      ],
      "name": "createLiquidationTask",
      "outputs": [],
      "stateMutability": "nonpayable",
      "type": "function"
    },
    {
      "inputs": [],
      "name": "dedicatedMsgSender",
      "outputs": [
        {
          "internalType": "address",
          "name": "",
          "type": "address"
        }
      ],
      "stateMutability": "view",
      "type": "function"
    },
    {
      "inputs": [
        {
          "internalType": "address",
          "name": "market",
          "type": "address"
        },
        {
          "internalType": "uint256",
          "name": "positionId",
          "type": "uint256"
        }
      ],
      "name": "liquidate",
      "outputs": [],
      "stateMutability": "nonpayable",
      "type": "function"
    },
    {
      "inputs": [
        {
          "internalType": "address",
          "name": "_market",
          "type": "address"
        },
        {
          "internalType": "uint256",
          "name": "positionId",
          "type": "uint256"
        }
      ],
      "name": "resolveClaimPosition",
      "outputs": [
        {
          "internalType": "bool",
          "name": "canExec",
          "type": "bool"
        },
        {
          "internalType": "bytes",
          "name": "execPayload",
          "type": "bytes"
        }
      ],
      "stateMutability": "view",
      "type": "function"
    },
    {
      "inputs": [
        {
          "internalType": "address",
          "name": "_market",
          "type": "address"
        },
        {
          "internalType": "uint256",
          "name": "positionId",
          "type": "uint256"
        }
      ],
      "name": "resolveLiquidation",
      "outputs": [
        {
          "internalType": "bool",
          "name": "canExec",
          "type": "bool"
        },
        {
          "internalType": "bytes",
          "name": "execPayload",
          "type": "bytes"
        }
      ],
      "stateMutability": "view",
      "type": "function"
    }
  ],
  "transactionHash": "0xb7336ef6c718f18e7d628db0585ad502dd99140e23233e6a6a8f27f7123f2cce",
  "args": [
    "0x20F98C4dDf4c04928eb2302F341dc7eE08d358be",
    "0xa5f9b728ecEB9A1F6FCC89dcc2eFd810bA4Dec41",
    "0x0000000000000000000000000000000000000000"
  ],
  "numDeployments": 1,
  "solcInputHash": "af00bff573074f858ccf429eb1fa6af5",
  "bytecode": "0x60e06040523480156200001157600080fd5b50604051620012183803806200121883398101604081905262000034916200018e565b600080546001600160a01b0319166001600160a01b0385811691909117909155821660808190526040805163573ea57560e01b8152905184923092859263573ea575916004808201926020929091908290030181865afa1580156200009d573d6000803e3d6000fd5b505050506040513d601f19601f82011682018060405250810190620000c39190620001e2565b6001600160a01b0390811660c0528116620000ef575073c815db16d4be6ddf2685c201937905abf338f5d75b6040516337b6269f60e21b81526001600160a01b03838116600483015282169063ded89a7c906024016040805180830381865afa15801562000135573d6000803e3d6000fd5b505050506040513d601f19601f820116820180604052508101906200015b919062000209565b506001600160a01b031660a052506200024c945050505050565b6001600160a01b03811681146200018b57600080fd5b50565b600080600060608486031215620001a457600080fd5b8351620001b18162000175565b6020850151909350620001c48162000175565b6040850151909250620001d78162000175565b809150509250925092565b600060208284031215620001f557600080fd5b8151620002028162000175565b9392505050565b600080604083850312156200021d57600080fd5b82516200022a8162000175565b602084015190925080151581146200024157600080fd5b809150509250929050565b60805160a05160c051610f8562000293600039600050506000818160fa015281816105cd015261065701526000818160a801528181610aaf0152610c340152610f856000f3fe608060405234801561001057600080fd5b506004361061009e5760003560e01c80637bd5d063116100665780637bd5d063146101505780638e2cdf681461016357806396f823b414610176578063bcbaf48714610189578063e9fcf1f61461019c57600080fd5b8063049aacfe146100a3578063139f34cf146100e057806328f150eb146100f55780633011e5d41461011c578063373fa7601461013d575b600080fd5b6100ca7f000000000000000000000000000000000000000000000000000000000000000081565b6040516100d79190610c56565b60405180910390f35b6100f36100ee366004610c6a565b6101af565b005b6100ca7f000000000000000000000000000000000000000000000000000000000000000081565b61012f61012a366004610c98565b61024b565b6040516100d7929190610d0a565b6100f361014b366004610c6a565b610334565b61012f61015e366004610c98565b6103d6565b6100f3610171366004610c6a565b61046e565b6100f3610184366004610c6a565b61050f565b6100f3610197366004610c98565b6105a8565b6100f36101aa366004610c98565b610632565b60005460405163252c724f60e11b81526001600160a01b0390911690634a58e49e906101df903390600401610c56565b602060405180830381865afa1580156101fc573d6000803e3d6000fd5b505050506040513d601f19601f820116820180604052508101906102209190610d2d565b61023d57604051631353f3f160e01b815260040160405180910390fd5b6102486002826106ae565b50565b60405163627c32d960e11b8152600481018290526000906060906001600160a01b0385169063c4f865b290602401602060405180830381865afa158015610296573d6000803e3d6000fd5b505050506040513d601f19601f820116820180604052508101906102ba9190610d2d565b15610319576001306001600160a01b031663e9fcf1f686866040516024016102e3929190610d56565b604051602081830303815290604052915060e01b6020820180516001600160e01b0383818316178352505050509150915061032d565b505060408051602081019091526000808252905b9250929050565b60005460405163252c724f60e11b81526001600160a01b0390911690634a58e49e90610364903390600401610c56565b602060405180830381865afa158015610381573d6000803e3d6000fd5b505050506040513d601f19601f820116820180604052508101906103a59190610d2d565b6103c257604051631353f3f160e01b815260040160405180910390fd5b61024860028230633011e5d461025861075d565b60405163b86f6aef60e01b8152600481018290526000906060906001600160a01b0385169063b86f6aef90602401602060405180830381865afa158015610421573d6000803e3d6000fd5b505050506040513d601f19601f820116820180604052508101906104459190610d2d565b15610319576001306001600160a01b031663bcbaf48786866040516024016102e3929190610d56565b60005460405163252c724f60e11b81526001600160a01b0390911690634a58e49e9061049e903390600401610c56565b602060405180830381865afa1580156104bb573d6000803e3d6000fd5b505050506040513d601f19601f820116820180604052508101906104df9190610d2d565b6104fc57604051631353f3f160e01b815260040160405180910390fd5b61024860018230637bd5d063601e61075d565b60005460405163252c724f60e11b81526001600160a01b0390911690634a58e49e9061053f903390600401610c56565b602060405180830381865afa15801561055c573d6000803e3d6000fd5b505050506040513d601f19601f820116820180604052508101906105809190610d2d565b61059d57604051631353f3f160e01b815260040160405180910390fd5b6102486001826106ae565b604080518082019091526003815262444d5360e81b6020820152336001600160a01b037f000000000000000000000000000000000000000000000000000000000000000016146106145760405162461bcd60e51b815260040161060b9190610d6f565b60405180910390fd5b50600061061f610aaa565b50905061062d838383610b37565b505050565b604080518082019091526003815262444d5360e81b6020820152336001600160a01b037f000000000000000000000000000000000000000000000000000000000000000016146106955760405162461bcd60e51b815260040161060b9190610d6f565b5060006106a0610aaa565b50905061062d838383610c1d565b336000818152602084815260408083208584529091529020548015610757576106d5610c32565b6001600160a01b031663ee8ca3b5826040518263ffffffff1660e01b815260040161070291815260200190565b600060405180830381600087803b15801561071c57600080fd5b505af1158015610730573d6000803e3d6000fd5b5050506001600160a01b038316600090815260208681526040808320878452909152812055505b50505050565b33600081815260208781526040808320888452909152902054156107815750610aa3565b60408051600381830181815260c083019093526000928291606080840190803683370190505081526040805160038082526080820190925260209092019190816020015b60608152602001906001900390816107c557505090528051805191925060009182906107f3576107f3610d82565b6020026020010190600381111561080c5761080c610d98565b9081600381111561081f5761081f610d98565b815250506001816000015160018151811061083c5761083c610d82565b6020026020010190600381111561085557610855610d98565b9081600381111561086857610868610d98565b815250506002816000015160028151811061088557610885610d82565b6020026020010190600381111561089e5761089e610d98565b908160038111156108b1576108b1610d98565b8152505030858584896040516024016108cb929190610d56565b604051602081830303815290604052915060e01b6020820180516001600160e01b038381831617835250505050604051602001610909929190610dae565b604051602081830303815290604052816020015160008151811061092f5761092f610d82565b602002602001018190525042836040516020016109629291906001600160801b0392831681529116602082015260400190565b604051602081830303815290604052816020015160018151811061098857610988610d82565b60200260200101819052506040518060200160405280600081525081602001516002815181106109ba576109ba610d82565b60200260200101819052506109cd610c32565b6040805163bcbaf48760e01b60208201526001600160a01b039290921691633323b467913091016040516020818303038152906040528473eeeeeeeeeeeeeeeeeeeeeeeeeeeeeeeeeeeeeeee6040518563ffffffff1660e01b8152600401610a389493929190610e27565b6020604051808303816000875af1158015610a57573d6000803e3d6000fd5b505050506040513d601f19601f82011682018060405250810190610a7b9190610ee9565b6001600160a01b03909216600090815260208881526040808320898452909152902091909155505b5050505050565b6000807f00000000000000000000000000000000000000000000000000000000000000006001600160a01b031663b810c6366040518163ffffffff1660e01b81526004016040805180830381865afa158015610b0a573d6000803e3d6000fd5b505050506040513d601f19601f82011682018060405250810190610b2e9190610f02565b90939092509050565b826001600160a01b0381166379bd1eac84610b50610c32565b6001600160a01b031663573ea5756040518163ffffffff1660e01b8152600401602060405180830381865afa158015610b8d573d6000803e3d6000fd5b505050506040513d601f19601f82011682018060405250810190610bb19190610f32565b6040516001600160e01b031960e085901b16815260048101929092526001600160a01b0316602482015260448101859052606401600060405180830381600087803b158015610bff57600080fd5b505af1158015610c13573d6000803e3d6000fd5b5050505050505050565b826001600160a01b03811663de7c8cc284610b505b7f000000000000000000000000000000000000000000000000000000000000000090565b6001600160a01b0391909116815260200190565b600060208284031215610c7c57600080fd5b5035919050565b6001600160a01b038116811461024857600080fd5b60008060408385031215610cab57600080fd5b8235610cb681610c83565b946020939093013593505050565b6000815180845260005b81811015610cea57602081850181015186830182015201610cce565b506000602082860101526020601f19601f83011685010191505092915050565b8215158152604060208201526000610d256040830184610cc4565b949350505050565b600060208284031215610d3f57600080fd5b81518015158114610d4f57600080fd5b9392505050565b6001600160a01b03929092168252602082015260400190565b602081526000610d4f6020830184610cc4565b634e487b7160e01b600052603260045260246000fd5b634e487b7160e01b600052602160045260246000fd5b6001600160a01b0383168152604060208201819052600090610d2590830184610cc4565b600081518084526020808501808196508360051b8101915082860160005b85811015610e1a578284038952610e08848351610cc4565b98850198935090840190600101610df0565b5091979650505050505050565b6001600160a01b038516815260806020808301829052600091610e4c90840187610cc4565b838103604080860191909152865181835280519183018290528301906000906060840190825b81811015610eab5784516004808210610e9857634e487b7160e01b865260218152602486fd5b5083529386019391860191600101610e72565b505084890151925083810385850152610ec48184610dd2565b95505050505050610ee060608301846001600160a01b03169052565b95945050505050565b600060208284031215610efb57600080fd5b5051919050565b60008060408385031215610f1557600080fd5b825191506020830151610f2781610c83565b809150509250929050565b600060208284031215610f4457600080fd5b8151610d4f81610c8356fea2646970667358221220f8b9a4f44f33eb36e66334489bbe62ebf0dd25d08d5a14bc8386685709d440d064736f6c63430008130033",
  "devdoc": {
    "details": "A contract that handles the liquidation and claiming of positions in Chromatic markets.      It extends the Liquidator and AutomateReady contracts and implements the IChromaticLiquidator interface.",
    "errors": {
      "OnlyAccessableByMarket()": [
        {
          "details": "Throws an error indicating that the function can only be accessed by a registered market."
        }
      ]
    },
    "kind": "dev",
    "methods": {
      "cancelClaimPositionTask(uint256)": {
        "details": "Can only be called by a registered market.",
        "params": {
          "positionId": "The ID of the position for which to cancel the claim position task."
        }
      },
      "cancelLiquidationTask(uint256)": {
        "details": "Can only be called by a registered market.",
        "params": {
          "positionId": "The ID of the position for which to cancel the liquidation task."
        }
      },
      "claimPosition(address,uint256)": {
        "details": "Can only be called by the dedicated message sender.",
        "params": {
          "market": "The address of the market contract.",
          "positionId": "The ID of the position to be claimed."
        }
      },
      "constructor": {
        "details": "Constructor function.",
        "params": {
          "_automate": "The address of the Gelato Automate contract.",
          "_factory": "The address of the Chromatic Market Factory contract.",
          "opsProxyFactory": "The address of the Ops Proxy Factory contract."
        }
      },
      "createClaimPositionTask(uint256)": {
        "details": "Can only be called by a registered market.",
        "params": {
          "positionId": "The ID of the position to be claimed."
        }
      },
      "createLiquidationTask(uint256)": {
        "details": "Can only be called by a registered market.",
        "params": {
          "positionId": "The ID of the position to be liquidated."
        }
      },
      "liquidate(address,uint256)": {
        "details": "Can only be called by the dedicated message sender.",
        "params": {
          "market": "The address of the market contract.",
          "positionId": "The ID of the position to be liquidated."
        }
      },
      "resolveClaimPosition(address,uint256)": {
        "details": "This function is called by the Gelato automation system.",
        "params": {
          "market": "The address of the market contract.",
          "positionId": "The ID of the position to be claimed."
        },
        "returns": {
          "canExec": "Whether the claim can be executed.",
          "execPayload": "The encoded function call to execute the claim."
        }
      },
      "resolveLiquidation(address,uint256)": {
        "details": "This function is called by the Gelato automation system.",
        "params": {
          "market": "The address of the market contract.",
          "positionId": "The ID of the position to be liquidated."
        },
        "returns": {
          "canExec": "Whether the liquidation can be executed.",
          "execPayload": "The encoded function call to execute the liquidation."
        }
      }
    },
    "title": "ChromaticLiquidator",
    "version": 1
  },
  "userdoc": {
    "kind": "user",
    "methods": {
      "cancelClaimPositionTask(uint256)": {
        "notice": "Cancels a claim position task for a given position."
      },
      "cancelLiquidationTask(uint256)": {
        "notice": "Cancels a liquidation task for a given position."
      },
      "claimPosition(address,uint256)": {
        "notice": "Claims a position in a market."
      },
      "createClaimPositionTask(uint256)": {
        "notice": "Creates a claim position task for a given position."
      },
      "createLiquidationTask(uint256)": {
        "notice": "Creates a liquidation task for a given position."
      },
      "liquidate(address,uint256)": {
        "notice": "Liquidates a position in a market."
      },
      "resolveClaimPosition(address,uint256)": {
        "notice": "Resolves the claim of a position."
      },
      "resolveLiquidation(address,uint256)": {
        "notice": "Resolves the liquidation of a position."
      }
    },
    "version": 1
  },
  "storageLayout": {
    "storage": [
      {
        "astId": 15734,
        "contract": "contracts/core/ChromaticLiquidator.sol:ChromaticLiquidator",
        "label": "factory",
        "offset": 0,
        "slot": "0",
        "type": "t_contract(IChromaticMarketFactory)25118"
      },
      {
        "astId": 15740,
        "contract": "contracts/core/ChromaticLiquidator.sol:ChromaticLiquidator",
        "label": "_liquidationTaskIds",
        "offset": 0,
        "slot": "1",
        "type": "t_mapping(t_address,t_mapping(t_uint256,t_bytes32))"
      },
      {
        "astId": 15746,
        "contract": "contracts/core/ChromaticLiquidator.sol:ChromaticLiquidator",
        "label": "_claimPositionTaskIds",
        "offset": 0,
        "slot": "2",
        "type": "t_mapping(t_address,t_mapping(t_uint256,t_bytes32))"
      }
    ],
    "types": {
      "t_address": {
        "encoding": "inplace",
        "label": "address",
        "numberOfBytes": "20"
      },
      "t_bytes32": {
        "encoding": "inplace",
        "label": "bytes32",
        "numberOfBytes": "32"
      },
      "t_contract(IChromaticMarketFactory)25118": {
        "encoding": "inplace",
        "label": "contract IChromaticMarketFactory",
        "numberOfBytes": "20"
      },
      "t_mapping(t_address,t_mapping(t_uint256,t_bytes32))": {
        "encoding": "mapping",
        "key": "t_address",
        "label": "mapping(address => mapping(uint256 => bytes32))",
        "numberOfBytes": "32",
        "value": "t_mapping(t_uint256,t_bytes32)"
      },
      "t_mapping(t_uint256,t_bytes32)": {
        "encoding": "mapping",
        "key": "t_uint256",
        "label": "mapping(uint256 => bytes32)",
        "numberOfBytes": "32",
        "value": "t_bytes32"
      },
      "t_uint256": {
        "encoding": "inplace",
        "label": "uint256",
        "numberOfBytes": "32"
      }
    }
  }
}