{
  "address": "0x471fEe01b261fd8C504CA3Bc3b964dFD1AAeE004",
  "abi": [
    {
      "inputs": [
        {
          "internalType": "contract IChromaticMarketFactory",
          "name": "_factory",
          "type": "address"
        },
        {
          "internalType": "address",
          "name": "_automate",
          "type": "address"
        },
        {
          "internalType": "address",
          "name": "opsProxyFactory",
          "type": "address"
        }
      ],
      "stateMutability": "nonpayable",
      "type": "constructor"
    },
    {
      "inputs": [],
      "name": "ExistMarketEarningDistributionTask",
      "type": "error"
    },
    {
      "inputs": [],
      "name": "NotEnoughBalance",
      "type": "error"
    },
    {
      "inputs": [],
      "name": "NotEnoughFeePaid",
      "type": "error"
    },
    {
      "inputs": [],
      "name": "OnlyAccessableByFactory",
      "type": "error"
    },
    {
      "inputs": [],
      "name": "OnlyAccessableByMarket",
      "type": "error"
    },
    {
      "anonymous": false,
      "inputs": [
        {
          "indexed": true,
          "internalType": "address",
          "name": "sender",
          "type": "address"
        },
        {
          "indexed": true,
          "internalType": "address",
          "name": "recipient",
          "type": "address"
        },
        {
          "indexed": true,
          "internalType": "uint256",
          "name": "amount",
          "type": "uint256"
        },
        {
          "indexed": false,
          "internalType": "uint256",
          "name": "paid",
          "type": "uint256"
        },
        {
          "indexed": false,
          "internalType": "uint256",
          "name": "paidToTakerPool",
          "type": "uint256"
        },
        {
          "indexed": false,
          "internalType": "uint256",
          "name": "paidToMakerPool",
          "type": "uint256"
        }
      ],
      "name": "FlashLoan",
      "type": "event"
    },
    {
      "anonymous": false,
      "inputs": [
        {
          "indexed": true,
          "internalType": "address",
          "name": "token",
          "type": "address"
        },
        {
          "indexed": true,
          "internalType": "uint256",
          "name": "earning",
          "type": "uint256"
        },
        {
          "indexed": true,
          "internalType": "uint256",
          "name": "usedKeeperFee",
          "type": "uint256"
        }
      ],
      "name": "MakerEarningDistributed",
      "type": "event"
    },
    {
      "anonymous": false,
      "inputs": [
        {
          "indexed": true,
          "internalType": "address",
          "name": "market",
          "type": "address"
        },
        {
          "indexed": false,
          "internalType": "uint256",
          "name": "earning",
          "type": "uint256"
        }
      ],
      "name": "MarketEarningAccumulated",
      "type": "event"
    },
    {
      "anonymous": false,
      "inputs": [
        {
          "indexed": true,
          "internalType": "address",
          "name": "market",
          "type": "address"
        },
        {
          "indexed": true,
          "internalType": "uint256",
          "name": "earning",
          "type": "uint256"
        },
        {
          "indexed": true,
          "internalType": "uint256",
          "name": "usedKeeperFee",
          "type": "uint256"
        },
        {
          "indexed": false,
          "internalType": "uint256",
          "name": "marketBalance",
          "type": "uint256"
        }
      ],
      "name": "MarketEarningDistributed",
      "type": "event"
    },
    {
      "anonymous": false,
      "inputs": [
        {
          "indexed": true,
          "internalType": "address",
          "name": "market",
          "type": "address"
        },
        {
          "indexed": true,
          "internalType": "uint256",
          "name": "amount",
          "type": "uint256"
        }
      ],
      "name": "OnAddLiquidity",
      "type": "event"
    },
    {
      "anonymous": false,
      "inputs": [
        {
          "indexed": true,
          "internalType": "address",
          "name": "market",
          "type": "address"
        },
        {
          "indexed": true,
          "internalType": "uint256",
          "name": "positionId",
          "type": "uint256"
        },
        {
          "indexed": true,
          "internalType": "address",
          "name": "recipient",
          "type": "address"
        },
        {
          "indexed": false,
          "internalType": "uint256",
          "name": "takerMargin",
          "type": "uint256"
        },
        {
          "indexed": false,
          "internalType": "uint256",
          "name": "settlementAmount",
          "type": "uint256"
        }
      ],
      "name": "OnClaimPosition",
      "type": "event"
    },
    {
      "anonymous": false,
      "inputs": [
        {
          "indexed": true,
          "internalType": "address",
          "name": "market",
          "type": "address"
        },
        {
          "indexed": true,
          "internalType": "uint256",
          "name": "positionId",
          "type": "uint256"
        },
        {
          "indexed": true,
          "internalType": "uint256",
          "name": "takerMargin",
          "type": "uint256"
        },
        {
          "indexed": false,
          "internalType": "uint256",
          "name": "tradingFee",
          "type": "uint256"
        },
        {
          "indexed": false,
          "internalType": "uint256",
          "name": "protocolFee",
          "type": "uint256"
        }
      ],
      "name": "OnOpenPosition",
      "type": "event"
    },
    {
      "anonymous": false,
      "inputs": [
        {
          "indexed": true,
          "internalType": "address",
          "name": "market",
          "type": "address"
        },
        {
          "indexed": true,
          "internalType": "uint256",
          "name": "pendingDeposit",
          "type": "uint256"
        },
        {
          "indexed": true,
          "internalType": "uint256",
          "name": "pendingWithdrawal",
          "type": "uint256"
        }
      ],
      "name": "OnSettlePendingLiquidity",
      "type": "event"
    },
    {
      "anonymous": false,
      "inputs": [
        {
          "indexed": true,
          "internalType": "address",
          "name": "market",
          "type": "address"
        },
        {
          "indexed": true,
          "internalType": "uint256",
          "name": "amount",
          "type": "uint256"
        },
        {
          "indexed": true,
          "internalType": "address",
          "name": "recipient",
          "type": "address"
        }
      ],
      "name": "OnWithdrawLiquidity",
      "type": "event"
    },
    {
      "anonymous": false,
      "inputs": [
        {
          "indexed": true,
          "internalType": "uint256",
          "name": "fee",
          "type": "uint256"
        },
        {
          "indexed": true,
          "internalType": "uint256",
          "name": "amount",
          "type": "uint256"
        }
      ],
      "name": "TransferKeeperFee",
      "type": "event"
    },
    {
      "anonymous": false,
      "inputs": [
        {
          "indexed": true,
          "internalType": "address",
          "name": "market",
          "type": "address"
        },
        {
          "indexed": true,
          "internalType": "uint256",
          "name": "fee",
          "type": "uint256"
        },
        {
          "indexed": true,
          "internalType": "uint256",
          "name": "amount",
          "type": "uint256"
        }
      ],
      "name": "TransferKeeperFee",
      "type": "event"
    },
    {
      "anonymous": false,
      "inputs": [
        {
          "indexed": true,
          "internalType": "address",
          "name": "market",
          "type": "address"
        },
        {
          "indexed": true,
          "internalType": "uint256",
          "name": "positionId",
          "type": "uint256"
        },
        {
          "indexed": true,
          "internalType": "uint256",
          "name": "amount",
          "type": "uint256"
        }
      ],
      "name": "TransferProtocolFee",
      "type": "event"
    },
    {
      "inputs": [],
      "name": "automate",
      "outputs": [
        {
          "internalType": "contract IAutomate",
          "name": "",
          "type": "address"
        }
      ],
      "stateMutability": "view",
      "type": "function"
    },
    {
      "inputs": [
        {
          "internalType": "address",
          "name": "token",
          "type": "address"
        }
      ],
      "name": "cancelMakerEarningDistributionTask",
      "outputs": [],
      "stateMutability": "nonpayable",
      "type": "function"
    },
    {
      "inputs": [
        {
          "internalType": "address",
          "name": "market",
          "type": "address"
        }
      ],
      "name": "cancelMarketEarningDistributionTask",
      "outputs": [],
      "stateMutability": "nonpayable",
      "type": "function"
    },
    {
      "inputs": [
        {
          "internalType": "address",
          "name": "token",
          "type": "address"
        }
      ],
      "name": "createMakerEarningDistributionTask",
      "outputs": [],
      "stateMutability": "nonpayable",
      "type": "function"
    },
    {
      "inputs": [
        {
          "internalType": "address",
          "name": "market",
          "type": "address"
        }
      ],
      "name": "createMarketEarningDistributionTask",
      "outputs": [],
      "stateMutability": "nonpayable",
      "type": "function"
    },
    {
      "inputs": [],
      "name": "dedicatedMsgSender",
      "outputs": [
        {
          "internalType": "address",
          "name": "",
          "type": "address"
        }
      ],
      "stateMutability": "view",
      "type": "function"
    },
    {
      "inputs": [
        {
          "internalType": "address",
          "name": "token",
          "type": "address"
        }
      ],
      "name": "distributeMakerEarning",
      "outputs": [],
      "stateMutability": "nonpayable",
      "type": "function"
    },
    {
      "inputs": [
        {
          "internalType": "address",
          "name": "market",
          "type": "address"
        }
      ],
      "name": "distributeMarketEarning",
      "outputs": [],
      "stateMutability": "nonpayable",
      "type": "function"
    },
    {
      "inputs": [
        {
          "internalType": "address",
          "name": "token",
          "type": "address"
        },
        {
          "internalType": "uint256",
          "name": "amount",
          "type": "uint256"
        },
        {
          "internalType": "address",
          "name": "recipient",
          "type": "address"
        },
        {
          "internalType": "bytes",
          "name": "data",
          "type": "bytes"
        }
      ],
      "name": "flashLoan",
      "outputs": [],
      "stateMutability": "nonpayable",
      "type": "function"
    },
    {
      "inputs": [
        {
          "internalType": "address",
          "name": "market",
          "type": "address"
        },
        {
          "internalType": "uint256",
          "name": "binBalance",
          "type": "uint256"
        }
      ],
      "name": "getPendingBinShare",
      "outputs": [
        {
          "internalType": "uint256",
          "name": "",
          "type": "uint256"
        }
      ],
      "stateMutability": "view",
      "type": "function"
    },
    {
      "inputs": [
        {
          "internalType": "address",
          "name": "",
          "type": "address"
        }
      ],
      "name": "makerBalances",
      "outputs": [
        {
          "internalType": "uint256",
          "name": "",
          "type": "uint256"
        }
      ],
      "stateMutability": "view",
      "type": "function"
    },
    {
      "inputs": [
        {
          "internalType": "address",
          "name": "",
          "type": "address"
        }
      ],
      "name": "makerEarningDistributionTaskIds",
      "outputs": [
        {
          "internalType": "bytes32",
          "name": "",
          "type": "bytes32"
        }
      ],
      "stateMutability": "view",
      "type": "function"
    },
    {
      "inputs": [
        {
          "internalType": "address",
          "name": "",
          "type": "address"
        }
      ],
      "name": "makerMarketBalances",
      "outputs": [
        {
          "internalType": "uint256",
          "name": "",
          "type": "uint256"
        }
      ],
      "stateMutability": "view",
      "type": "function"
    },
    {
      "inputs": [
        {
          "internalType": "address",
          "name": "",
          "type": "address"
        }
      ],
      "name": "marketEarningDistributionTaskIds",
      "outputs": [
        {
          "internalType": "bytes32",
          "name": "",
          "type": "bytes32"
        }
      ],
      "stateMutability": "view",
      "type": "function"
    },
    {
      "inputs": [
        {
          "internalType": "uint256",
          "name": "amount",
          "type": "uint256"
        }
      ],
      "name": "onAddLiquidity",
      "outputs": [],
      "stateMutability": "nonpayable",
      "type": "function"
    },
    {
      "inputs": [
        {
          "internalType": "uint256",
          "name": "positionId",
          "type": "uint256"
        },
        {
          "internalType": "address",
          "name": "recipient",
          "type": "address"
        },
        {
          "internalType": "uint256",
          "name": "takerMargin",
          "type": "uint256"
        },
        {
          "internalType": "uint256",
          "name": "settlementAmount",
          "type": "uint256"
        }
      ],
      "name": "onClaimPosition",
      "outputs": [],
      "stateMutability": "nonpayable",
      "type": "function"
    },
    {
      "inputs": [
        {
          "internalType": "uint256",
          "name": "positionId",
          "type": "uint256"
        },
        {
          "internalType": "uint256",
          "name": "takerMargin",
          "type": "uint256"
        },
        {
          "internalType": "uint256",
          "name": "tradingFee",
          "type": "uint256"
        },
        {
          "internalType": "uint256",
          "name": "protocolFee",
          "type": "uint256"
        }
      ],
      "name": "onOpenPosition",
      "outputs": [],
      "stateMutability": "nonpayable",
      "type": "function"
    },
    {
      "inputs": [
        {
          "internalType": "uint256",
          "name": "pendingDeposit",
          "type": "uint256"
        },
        {
          "internalType": "uint256",
          "name": "pendingWithdrawal",
          "type": "uint256"
        }
      ],
      "name": "onSettlePendingLiquidity",
      "outputs": [],
      "stateMutability": "nonpayable",
      "type": "function"
    },
    {
      "inputs": [
        {
          "internalType": "address",
          "name": "recipient",
          "type": "address"
        },
        {
          "internalType": "uint256",
          "name": "amount",
          "type": "uint256"
        }
      ],
      "name": "onWithdrawLiquidity",
      "outputs": [],
      "stateMutability": "nonpayable",
      "type": "function"
    },
    {
      "inputs": [
        {
          "internalType": "address",
          "name": "",
          "type": "address"
        }
      ],
      "name": "pendingDeposits",
      "outputs": [
        {
          "internalType": "uint256",
          "name": "",
          "type": "uint256"
        }
      ],
      "stateMutability": "view",
      "type": "function"
    },
    {
      "inputs": [
        {
          "internalType": "address",
          "name": "",
          "type": "address"
        }
      ],
      "name": "pendingMakerEarnings",
      "outputs": [
        {
          "internalType": "uint256",
          "name": "",
          "type": "uint256"
        }
      ],
      "stateMutability": "view",
      "type": "function"
    },
    {
      "inputs": [
        {
          "internalType": "address",
          "name": "",
          "type": "address"
        }
      ],
      "name": "pendingMarketEarnings",
      "outputs": [
        {
          "internalType": "uint256",
          "name": "",
          "type": "uint256"
        }
      ],
      "stateMutability": "view",
      "type": "function"
    },
    {
      "inputs": [
        {
          "internalType": "address",
          "name": "",
          "type": "address"
        }
      ],
      "name": "pendingWithdrawals",
      "outputs": [
        {
          "internalType": "uint256",
          "name": "",
          "type": "uint256"
        }
      ],
      "stateMutability": "view",
      "type": "function"
    },
    {
      "inputs": [
        {
          "internalType": "address",
          "name": "token",
          "type": "address"
        }
      ],
      "name": "resolveMakerEarningDistribution",
      "outputs": [
        {
          "internalType": "bool",
          "name": "canExec",
          "type": "bool"
        },
        {
          "internalType": "bytes",
          "name": "execPayload",
          "type": "bytes"
        }
      ],
      "stateMutability": "view",
      "type": "function"
    },
    {
      "inputs": [
        {
          "internalType": "address",
          "name": "market",
          "type": "address"
        }
      ],
      "name": "resolveMarketEarningDistribution",
      "outputs": [
        {
          "internalType": "bool",
          "name": "canExec",
          "type": "bool"
        },
        {
          "internalType": "bytes",
          "name": "execPayload",
          "type": "bytes"
        }
      ],
      "stateMutability": "view",
      "type": "function"
    },
    {
      "inputs": [
        {
          "internalType": "address",
          "name": "",
          "type": "address"
        }
      ],
      "name": "takerBalances",
      "outputs": [
        {
          "internalType": "uint256",
          "name": "",
          "type": "uint256"
        }
      ],
      "stateMutability": "view",
      "type": "function"
    },
    {
      "inputs": [
        {
          "internalType": "address",
          "name": "",
          "type": "address"
        }
      ],
      "name": "takerMarketBalances",
      "outputs": [
        {
          "internalType": "uint256",
          "name": "",
          "type": "uint256"
        }
      ],
      "stateMutability": "view",
      "type": "function"
    },
    {
      "inputs": [
        {
          "internalType": "address",
          "name": "keeper",
          "type": "address"
        },
        {
          "internalType": "uint256",
          "name": "fee",
          "type": "uint256"
        },
        {
          "internalType": "uint256",
          "name": "margin",
          "type": "uint256"
        }
      ],
      "name": "transferKeeperFee",
      "outputs": [
        {
          "internalType": "uint256",
          "name": "usedFee",
          "type": "uint256"
        }
      ],
      "stateMutability": "nonpayable",
      "type": "function"
    }
  ],
  "transactionHash": "0xab28ea908635af4c5ed5cc0d8ac807943a8dfc24677c0f087285c44fb52e7a6f",
  "args": [
    "0xB4D851cC4632b3B6f73b2686037e4433767e5D41",
    "0xa5f9b728ecEB9A1F6FCC89dcc2eFd810bA4Dec41",
    "0x0000000000000000000000000000000000000000"
  ],
  "numDeployments": 2,
  "solcInputHash": "6fec6a133006e784ffb2b008df2bee79",
  "bytecode": "0x60e06040523480156200001157600080fd5b506040516200354d3803806200354d833981016040819052620000349162000215565b60016000556001600160a01b03821660808190526040805163573ea57560e01b8152905184923092859263573ea575916004808201926020929091908290030181865afa1580156200008a573d6000803e3d6000fd5b505050506040513d601f19601f82011682018060405250810190620000b0919062000269565b6001600160a01b0390811660c0528116620000dc575073c815db16d4be6ddf2685c201937905abf338f5d75b6040516337b6269f60e21b81526001600160a01b03838116600483015282169063ded89a7c906024016040805180830381865afa15801562000122573d6000803e3d6000fd5b505050506040513d601f19601f8201168201806040525081019062000148919062000290565b506001600160a01b0390811660a052600180546001600160a01b03191691881691821790556040805163016d6d4b60e61b81529051919450635b5b52c0935060048082019350602092918290030181865afa158015620001ac573d6000803e3d6000fd5b505050506040513d601f19601f82011682018060405250810190620001d2919062000269565b600280546001600160a01b0319166001600160a01b039290921691909117905550620002d3915050565b6001600160a01b03811681146200021257600080fd5b50565b6000806000606084860312156200022b57600080fd5b83516200023881620001fc565b60208501519093506200024b81620001fc565b60408501519092506200025e81620001fc565b809150509250925092565b6000602082840312156200027c57600080fd5b81516200028981620001fc565b9392505050565b60008060408385031215620002a457600080fd5b8251620002b181620001fc565b60208401519092508015158114620002c857600080fd5b809150509250929050565b60805160a05160c05161320e6200033f600039600050506000818161026701528181610645015261155a0152600081816101e2015281816109fb015281816111b6015281816114b401528181611be401528181611fd8015281816121130152612619015261320e6000f3fe608060405234801561001057600080fd5b50600436106101c35760003560e01c80636a5ce5d9116100f9578063cbd88db111610097578063d659399111610071578063d65939911461044e578063d6d950af14610461578063eb3349b914610481578063f3f43703146104a157600080fd5b8063cbd88db114610408578063d1b0281014610428578063d5f6c54d1461043b57600080fd5b80639b96cc17116100d35780639b96cc17146103af5780639f69101d146103cf578063adf51de1146103e2578063c440a65c146103f557600080fd5b80636a5ce5d91461036957806371f8122b1461037c5780638f7b59fe1461038f57600080fd5b80634818c2fe116101665780635372d35c116101405780635372d35c14610310578063546418751461033057806363d7b57214610343578063687d5dd41461035657600080fd5b80634818c2fe146102bd5780634d4edc67146102d0578063516f509a146102f057600080fd5b8063135ac998116101a2578063135ac9981461024f57806328f150eb1461026257806330585f7c1461028957806343961953146102aa57600080fd5b806249290f146101c8578063049aacfe146101dd5780630963c61a14610221575b600080fd5b6101db6101d6366004612be4565b6104c1565b005b6102047f000000000000000000000000000000000000000000000000000000000000000081565b6040516001600160a01b0390911681526020015b60405180910390f35b61024161022f366004612c15565b60076020526000908152604090205481565b604051908152602001610218565b6101db61025d366004612c15565b610620565b6102047f000000000000000000000000000000000000000000000000000000000000000081565b61029c610297366004612c15565b6106a8565b604051610218929190612c82565b6101db6102b8366004612c9d565b610789565b6101db6102cb366004612c15565b61099b565b6102416102de366004612c15565b60036020526000908152604090205481565b6102416102fe366004612c15565b600c6020526000908152604090205481565b61024161031e366004612c15565b60086020526000908152604090205481565b6101db61033e366004612cbf565b610a7c565b6101db610351366004612cf1565b610c8a565b6101db610364366004612c15565b610f19565b610241610377366004612d2e565b6112b3565b6101db61038a366004612c15565b611454565b61024161039d366004612c15565b60056020526000908152604090205481565b6102416103bd366004612c15565b60046020526000908152604090205481565b6101db6103dd366004612c15565b611535565b6101db6103f0366004612d63565b6115b0565b6101db610403366004612c15565b611975565b610241610416366004612c15565b60066020526000908152604090205481565b6101db610436366004612e02565b611ce1565b61029c610449366004612c15565b611e4d565b61024161045c366004612e02565b611ec2565b61024161046f366004612c15565b600b6020526000908152604090205481565b61024161048f366004612c15565b60096020526000908152604090205481565b6102416104af366004612c15565b600a6020526000908152604090205481565b60015460405163252c724f60e11b81523360048201526001600160a01b0390911690634a58e49e90602401602060405180830381865afa158015610509573d6000803e3d6000fd5b505050506040513d601f19601f8201168201806040525081019061052d9190612e2e565b61054a57604051631353f3f160e01b815260040160405180910390fd5b60003390506000816001600160a01b0316637b9e618d6040518163ffffffff1660e01b8152600401602060405180830381865afa15801561058f573d6000803e3d6000fd5b505050506040513d601f19601f820116820180604052508101906105b39190612e50565b6001600160a01b0381166000908152600960205260408120805492935085929091906105e0908490612e83565b909155505060405183906001600160a01b038416907f1bf8e13daf39d6f603c0f4047a0719c50094093eddb15b3dd26c71ec7e141d0090600090a3505050565b604080518082019091526003815262444d5360e81b6020820152336001600160a01b037f0000000000000000000000000000000000000000000000000000000000000000161461068c5760405162461bcd60e51b81526004016106839190612e96565b60405180910390fd5b506000610697611fd3565b5090506106a48282612060565b5050565b600060606000836001600160a01b0316637b9e618d6040518163ffffffff1660e01b8152600401602060405180830381865afa1580156106ec573d6000803e3d6000fd5b505050506040513d601f19601f820116820180604052508101906107109190612e50565b905061071c84826122d8565b1561076d575050604080516001600160a01b03939093166024808501919091528151808503909101815260449093019052506020810180516001600160e01b031663026b593360e31b179052600191565b6000604051806020016040528060008152509250925050915091565b60015460405163252c724f60e11b81523360048201526001600160a01b0390911690634a58e49e90602401602060405180830381865afa1580156107d1573d6000803e3d6000fd5b505050506040513d601f19601f820116820180604052508101906107f59190612e2e565b61081257604051631353f3f160e01b815260040160405180910390fd5b60003390506000816001600160a01b0316637b9e618d6040518163ffffffff1660e01b8152600401602060405180830381865afa158015610857573d6000803e3d6000fd5b505050506040513d601f19601f8201168201806040525081019061087b9190612e50565b6001600160a01b0381166000908152600960205260408120805492935086929091906108a8908490612ea9565b90915550506001600160a01b0381166000908152600a6020526040812080548592906108d5908490612e83565b90915550506001600160a01b0381166000908152600360205260409020548390610900908690612e83565b61090a9190612ea9565b6001600160a01b038083166000908152600360209081526040808320949094559185168152600590915220548390610943908690612e83565b61094d9190612ea9565b6001600160a01b03831660008181526005602052604080822093909355915185928792917ffe6f0208aa042f739ede2198851bf2945b80c1052fc2f1366e428faf83a4fa7c9190a450505050565b6001546001600160a01b031633146109c6576040516328c7749f60e11b815260040160405180910390fd5b6001600160a01b0381166000908152600c602052604090205480156106a45760405163ee8ca3b560e01b8152600481018290527f00000000000000000000000000000000000000000000000000000000000000006001600160a01b03169063ee8ca3b590602401600060405180830381600087803b158015610a4757600080fd5b505af1158015610a5b573d6000803e3d6000fd5b5050506001600160a01b0383166000908152600c6020526040812055505050565b60015460405163252c724f60e11b81523360048201526001600160a01b0390911690634a58e49e90602401602060405180830381865afa158015610ac4573d6000803e3d6000fd5b505050506040513d601f19601f82011682018060405250810190610ae89190612e2e565b610b0557604051631353f3f160e01b815260040160405180910390fd5b60003390506000816001600160a01b0316637b9e618d6040518163ffffffff1660e01b8152600401602060405180830381865afa158015610b4a573d6000803e3d6000fd5b505050506040513d601f19601f82011682018060405250810190610b6e9190612e50565b6001600160a01b038116600090815260046020526040812080549293508792909190610b9b908490612e83565b90915550506001600160a01b03821660009081526006602052604081208054879290610bc8908490612e83565b90915550506001600160a01b03811660009081526003602052604081208054869290610bf5908490612e83565b90915550506001600160a01b03821660009081526005602052604081208054869290610c22908490612e83565b90915550610c3490508282888661236a565b8486836001600160a01b03167f55d8d1757457440c2753c42acc4a14b6860f25976b2635c2ea24ac344bfe730f8787604051610c7a929190918252602082015260400190565b60405180910390a4505050505050565b60015460405163252c724f60e11b81523360048201526001600160a01b0390911690634a58e49e90602401602060405180830381865afa158015610cd2573d6000803e3d6000fd5b505050506040513d601f19601f82011682018060405250810190610cf69190612e2e565b610d1357604051631353f3f160e01b815260040160405180910390fd5b60003390506000816001600160a01b0316637b9e618d6040518163ffffffff1660e01b8152600401602060405180830381865afa158015610d58573d6000803e3d6000fd5b505050506040513d601f19601f82011682018060405250810190610d7c9190612e50565b9050610d89818685612430565b6001600160a01b03811660009081526004602052604081208054869290610db1908490612ea9565b90915550506001600160a01b03821660009081526006602052604081208054869290610dde908490612ea9565b909155505083831115610e5d576000610df78585612ea9565b6001600160a01b038316600090815260036020526040812080549293508392909190610e24908490612ea9565b90915550506001600160a01b03831660009081526005602052604081208054839290610e51908490612ea9565b90915550610eca915050565b6000610e698486612ea9565b6001600160a01b038316600090815260036020526040812080549293508392909190610e96908490612e83565b90915550506001600160a01b03831660009081526005602052604081208054839290610ec3908490612e83565b9091555050505b846001600160a01b031686836001600160a01b03167f5f8026a5f3cf54454ad6e760ded9b50bc89ea13a2f7a000e996533be4f0664ec8787604051610c7a929190918252602082015260400190565b6001546001600160a01b03163314610f44576040516328c7749f60e11b815260040160405180910390fd5b6001600160a01b0381166000908152600b602052604090205415610f7b57604051633d8ff6d760e01b815260040160405180910390fd5b60408051600381830181815260c083019093526000928291606080840190803683370190505081526040805160038082526080820190925260209092019190816020015b6060815260200190600190039081610fbf5750509052805180519192506000918290610fed57610fed612ed2565b6020026020010190600381111561100657611006612ee8565b9081600381111561101957611019612ee8565b815250506001816000015160018151811061103657611036612ed2565b6020026020010190600381111561104f5761104f612ee8565b9081600381111561106257611062612ee8565b815250506002816000015160028151811061107f5761107f612ed2565b6020026020010190600381111561109857611098612ee8565b908160038111156110ab576110ab612ee8565b9052506040516001600160a01b038316602482015261110290309063d5f6c54d906044015b604051602081830303815290604052915060e01b6020820180516001600160e01b038381831617835250505050612487565b816020015160008151811061111957611119612ed2565b602002602001018190525061115b42610e10604080516001600160801b0393841660208201529190921681830152815180820383018152606090910190915290565b816020015160018151811061117257611172612ed2565b602002602001018190525061119260408051602081019091526000815290565b81602001516002815181106111a9576111a9612ed2565b60200260200101819052507f00000000000000000000000000000000000000000000000000000000000000006001600160a01b0316633323b46730639f69101d60e01b60405160200161120c91906001600160e01b031991909116815260200190565b6040516020818303038152906040528473eeeeeeeeeeeeeeeeeeeeeeeeeeeeeeeeeeeeeeee6040518563ffffffff1660e01b81526004016112509493929190612f53565b6020604051808303816000875af115801561126f573d6000803e3d6000fd5b505050506040513d601f19601f820116820180604052508101906112939190613015565b6001600160a01b039092166000908152600b602052604090209190915550565b60015460405163252c724f60e11b81523360048201526000916001600160a01b031690634a58e49e90602401602060405180830381865afa1580156112fc573d6000803e3d6000fd5b505050506040513d601f19601f820116820180604052508101906113209190612e2e565b61133d57604051631353f3f160e01b815260040160405180910390fd5b60003390506000816001600160a01b0316637b9e618d6040518163ffffffff1660e01b8152600401602060405180830381865afa158015611382573d6000803e3d6000fd5b505050506040513d601f19601f820116820180604052508101906113a69190612e50565b90506113b4818787876124b2565b6001600160a01b0382166000908152600460205260408120805492955085929091906113e1908490612ea9565b90915550506001600160a01b0382166000908152600660205260408120805485929061140e908490612ea9565b9091555050604051839086906001600160a01b038516907f31332ac845265ba9db701f457b8eb917667355d10a1f312e95622f27939d166c90600090a450509392505050565b6001546001600160a01b0316331461147f576040516328c7749f60e11b815260040160405180910390fd5b6001600160a01b0381166000908152600b602052604090205480156106a45760405163ee8ca3b560e01b8152600481018290527f00000000000000000000000000000000000000000000000000000000000000006001600160a01b03169063ee8ca3b590602401600060405180830381600087803b15801561150057600080fd5b505af1158015611514573d6000803e3d6000fd5b5050506001600160a01b0383166000908152600b6020526040812055505050565b604080518082019091526003815262444d5360e81b6020820152336001600160a01b037f000000000000000000000000000000000000000000000000000000000000000016146115985760405162461bcd60e51b81526004016106839190612e96565b5060006115a3611fd3565b5090506106a48282612557565b6115b86127f3565b6040516370a0823160e01b81523060048201526000906001600160a01b038716906370a0823190602401602060405180830381865afa1580156115ff573d6000803e3d6000fd5b505050506040513d601f19601f820116820180604052508101906116239190613015565b6001600160a01b0387166000908152600a6020908152604080832054600990925290912054919250906116569083612ea9565b6116609190612ea9565b8511156116805760405163569d45cf60e11b815260040160405180910390fd5b6001546040516328abb76360e01b81526001600160a01b038881166004830152600092611700929116906328abb76390602401602060405180830381865afa1580156116d0573d6000803e3d6000fd5b505050506040513d601f19601f820116820180604052508101906116f49190613015565b8790612710600161284c565b905061170d878688612430565b6040516323de354760e11b815233906347bc6a8e906117349084908890889060040161302e565b600060405180830381600087803b15801561174e57600080fd5b505af1158015611762573d6000803e3d6000fd5b50506040516370a0823160e01b8152306004820152600092506001600160a01b038a1691506370a0823190602401602060405180830381865afa1580156117ad573d6000803e3d6000fd5b505050506040513d601f19601f820116820180604052508101906117d19190613015565b90506117dd8284612e83565b8110156117fd57604051633244470d60e01b815260040160405180910390fd5b60006118098483612ea9565b6001600160a01b038a1660009081526004602090815260408083205460039092528220549293509190611848836118408482612e83565b8691906128a7565b905060006118568286612ea9565b905081156118df576118df8d600160009054906101000a90046001600160a01b03166001600160a01b03166361d027b36040518163ffffffff1660e01b8152600401602060405180830381865afa1580156118b5573d6000803e3d6000fd5b505050506040513d601f19601f820116820180604052508101906118d99190612e50565b84612430565b6001600160a01b038d1660009081526007602052604081208054839290611907908490612e83565b909155505060408051868152602081018490529081018290528c906001600160a01b038d169033907f5b8f46461c1dd69fb968f1a003acee221ea3e19540e350233b612ddb43433b559060600160405180910390a4505050505050505061196e6001600055565b5050505050565b6001546001600160a01b031633146119a0576040516328c7749f60e11b815260040160405180910390fd5b6001600160a01b0381166000908152600c6020526040902054156119d757604051633d8ff6d760e01b815260040160405180910390fd5b60408051600381830181815260c083019093526000928291606080840190803683370190505081526040805160038082526080820190925260209092019190816020015b6060815260200190600190039081611a1b5750509052805180519192506000918290611a4957611a49612ed2565b60200260200101906003811115611a6257611a62612ee8565b90816003811115611a7557611a75612ee8565b8152505060018160000151600181518110611a9257611a92612ed2565b60200260200101906003811115611aab57611aab612ee8565b90816003811115611abe57611abe612ee8565b8152505060028160000151600281518110611adb57611adb612ed2565b60200260200101906003811115611af457611af4612ee8565b90816003811115611b0757611b07612ee8565b9052506040516001600160a01b0383166024820152611b309030906330585f7c906044016110d0565b8160200151600081518110611b4757611b47612ed2565b6020026020010181905250611b8942610e10604080516001600160801b0393841660208201529190921681830152815180820383018152606090910190915290565b8160200151600181518110611ba057611ba0612ed2565b6020026020010181905250611bc060408051602081019091526000815290565b8160200151600281518110611bd757611bd7612ed2565b60200260200101819052507f00000000000000000000000000000000000000000000000000000000000000006001600160a01b0316633323b4673063135ac99860e01b604051602001611c3a91906001600160e01b031991909116815260200190565b6040516020818303038152906040528473eeeeeeeeeeeeeeeeeeeeeeeeeeeeeeeeeeeeeeee6040518563ffffffff1660e01b8152600401611c7e9493929190612f53565b6020604051808303816000875af1158015611c9d573d6000803e3d6000fd5b505050506040513d601f19601f82011682018060405250810190611cc19190613015565b6001600160a01b039092166000908152600c602052604090209190915550565b60015460405163252c724f60e11b81523360048201526001600160a01b0390911690634a58e49e90602401602060405180830381865afa158015611d29573d6000803e3d6000fd5b505050506040513d601f19601f82011682018060405250810190611d4d9190612e2e565b611d6a57604051631353f3f160e01b815260040160405180910390fd5b60003390506000816001600160a01b0316637b9e618d6040518163ffffffff1660e01b8152600401602060405180830381865afa158015611daf573d6000803e3d6000fd5b505050506040513d601f19601f82011682018060405250810190611dd39190612e50565b9050611de0818585612430565b6001600160a01b0381166000908152600a602052604081208054859290611e08908490612ea9565b90915550506040516001600160a01b038086169185918516907f5f47c32b777ebd5486a5c3ca3d91644eaf7de2b3410fb14ea55bbfa41c9b3ad490600090a450505050565b60006060611e5a8361295c565b15611eaa575050604080516001600160a01b039290921660248084019190915281518084039091018152604490920190526020810180516001600160e01b0316639f69101d60e01b179052600191565b50506040805160208101909152600080825292909150565b600080836001600160a01b0316637b9e618d6040518163ffffffff1660e01b8152600401602060405180830381865afa158015611f03573d6000803e3d6000fd5b505050506040513d601f19601f82011682018060405250810190611f279190612e50565b6001600160a01b0380821660009081526003602090815260408083205493891683526005909152902054919250908015611f86576001600160a01b038616600090815260086020526040902054611f81908683600161284c565b611f89565b60005b8215611fba576001600160a01b038416600090815260076020526040902054611fb5908785600161284c565b611fbd565b60005b611fc79190612e83565b93505050505b92915050565b6000807f00000000000000000000000000000000000000000000000000000000000000006001600160a01b031663b810c6366040518163ffffffff1660e01b81526004016040805180830381865afa158015612033573d6000803e3d6000fd5b505050506040513d601f19601f820116820180604052508101906120579190613074565b90939092509050565b6000826001600160a01b0316637b9e618d6040518163ffffffff1660e01b8152600401602060405180830381865afa1580156120a0573d6000803e3d6000fd5b505050506040513d601f19601f820116820180604052508101906120c49190612e50565b90506120d083826122d8565b6120d957505050565b6001600160a01b038084166000908152600860209081526040808320805490849055815163573ea57560e01b8152915190946121889387937f00000000000000000000000000000000000000000000000000000000000000009092169263573ea5759260048082019392918290030181865afa15801561215d573d6000803e3d6000fd5b505050506040513d601f19601f820116820180604052508101906121819190612e50565b86856124b2565b90508084866001600160a01b03167f31332ac845265ba9db701f457b8eb917667355d10a1f312e95622f27939d166c60405160405180910390a460006121ce8284612ea9565b6001600160a01b0387166000908152600560205260408120805492935083916121f78385612e83565b90915550506001600160a01b03851660009081526003602052604081208054849290612224908490612e83565b909155505060405163145ade8f60e11b815260048101839052602481018290526001600160a01b038816906328b5bd1e90604401600060405180830381600087803b15801561227257600080fd5b505af1158015612286573d6000803e3d6000fd5b505050508284886001600160a01b03167fad1f1a056b9857eab5e447a17c2580435764d4219e831cd5bd9ecef30070c727846040516122c791815260200190565b60405180910390a450505050505050565b60015460405163fddd4d8f60e01b81526001600160a01b038381166004830152600092169063fddd4d8f90602401602060405180830381865afa158015612323573d6000803e3d6000fd5b505050506040513d601f19601f820116820180604052508101906123479190613015565b6001600160a01b0384166000908152600860205260409020541015905092915050565b801561242a576123f183600160009054906101000a90046001600160a01b03166001600160a01b03166361d027b36040518163ffffffff1660e01b8152600401602060405180830381865afa1580156123c7573d6000803e3d6000fd5b505050506040513d601f19601f820116820180604052508101906123eb9190612e50565b83612430565b8082856001600160a01b03167f5f71c80c263695df78884e6822148b66c1cb73498b21aa8fec9095966ac6f30860405160405180910390a45b50505050565b604080516001600160a01b038416602482015260448082018490528251808303909101815260649091019091526020810180516001600160e01b031663a9059cbb60e01b1790526124829084906129ef565b505050565b6060308260405160200161249c9291906130a4565b6040516020818303038152906040529050919050565b6002546000906124cd9086906001600160a01b031684612430565b60025460405163780205b160e01b81526001600160a01b0387811660048301526024820186905286811660448301529091169063780205b1906064016020604051808303816000875af1158015612528573d6000803e3d6000fd5b505050506040513d601f19601f8201168201806040525081019061254c9190613015565b90505b949350505050565b6125608261295c565b612568575050565b600154604051637e1f481360e11b81526001600160a01b038481166004830152600092169063fc3e902690602401600060405180830381865afa1580156125b3573d6000803e3d6000fd5b505050506040513d6000823e601f3d908101601f191682016040526125db91908101906130c8565b6001600160a01b038085166000908152600760209081526040808320805490849055815163573ea57560e01b815291519596509492936126639389937f00000000000000000000000000000000000000000000000000000000000000009092169263573ea5759260048083019391928290030181865afa15801561215d573d6000803e3d6000fd5b905080847f916ed1b5bdd37491a3a78d6ca4aff7c2d6216a39a2e006c3bdba3579fe7781ee60405160405180910390a36001600160a01b038516600090815260036020526040812054906126b78385612ea9565b905060005b85518110156127b15760008682815181106126d9576126d9612ed2565b6020908102919091018101516001600160a01b0381166000908152600590925260408220549092509061270d8583886128a7565b6001600160a01b03841660009081526008602052604081208054929350839290919061273a908490612e83565b9091555061274a90508287612ea9565b95506127568186612ea9565b9450826001600160a01b03167f5d61d1733044ba19fc3a248fdeb20b6a86f043bcc178d1199a996c6fdc03af698260405161279391815260200190565b60405180910390a250505080806127a99061318d565b9150506126bc565b508284886001600160a01b03167f742cede2307fae58bf2454c5dda6af2ccf6c38a9b12484989afe79af33fd7f3a60405160405180910390a450505050505050565b6002600054036128455760405162461bcd60e51b815260206004820152601f60248201527f5265656e7472616e637947756172643a207265656e7472616e742063616c6c006044820152606401610683565b6002600055565b60008061285a8686866128a7565b9050600183600281111561287057612870612ee8565b14801561288d575060008480612888576128886131a6565b868809115b1561254c5761289d600182612e83565b9695505050505050565b60008080600019858709858702925082811083820303915050806000036128e1578382816128d7576128d76131a6565b0492505050612955565b8084116128ed57600080fd5b600084868809851960019081018716968790049682860381900495909211909303600082900391909104909201919091029190911760038402600290811880860282030280860282030280860282030280860282030280860282030280860290910302029150505b9392505050565b60015460405163fddd4d8f60e01b81526001600160a01b038381166004830152600092169063fddd4d8f90602401602060405180830381865afa1580156129a7573d6000803e3d6000fd5b505050506040513d601f19601f820116820180604052508101906129cb9190613015565b6001600160a01b039092166000908152600760205260409020549190911015919050565b6000612a44826040518060400160405280602081526020017f5361666545524332303a206c6f772d6c6576656c2063616c6c206661696c6564815250856001600160a01b0316612ac19092919063ffffffff16565b8051909150156124825780806020019051810190612a629190612e2e565b6124825760405162461bcd60e51b815260206004820152602a60248201527f5361666545524332303a204552433230206f7065726174696f6e20646964206e6044820152691bdd081cdd58d8d9595960b21b6064820152608401610683565b606061254f848460008585600080866001600160a01b03168587604051612ae891906131bc565b60006040518083038185875af1925050503d8060008114612b25576040519150601f19603f3d011682016040523d82523d6000602084013e612b2a565b606091505b5091509150612b3b87838387612b46565b979650505050505050565b60608315612bb5578251600003612bae576001600160a01b0385163b612bae5760405162461bcd60e51b815260206004820152601d60248201527f416464726573733a2063616c6c20746f206e6f6e2d636f6e74726163740000006044820152606401610683565b508161254f565b61254f8383815115612bca5781518083602001fd5b8060405162461bcd60e51b81526004016106839190612e96565b600060208284031215612bf657600080fd5b5035919050565b6001600160a01b0381168114612c1257600080fd5b50565b600060208284031215612c2757600080fd5b813561295581612bfd565b60005b83811015612c4d578181015183820152602001612c35565b50506000910152565b60008151808452612c6e816020860160208601612c32565b601f01601f19169290920160200192915050565b821515815260406020820152600061254f6040830184612c56565b60008060408385031215612cb057600080fd5b50508035926020909101359150565b60008060008060808587031215612cd557600080fd5b5050823594602084013594506040840135936060013592509050565b60008060008060808587031215612d0757600080fd5b843593506020850135612d1981612bfd565b93969395505050506040820135916060013590565b600080600060608486031215612d4357600080fd5b8335612d4e81612bfd565b95602085013595506040909401359392505050565b600080600080600060808688031215612d7b57600080fd5b8535612d8681612bfd565b9450602086013593506040860135612d9d81612bfd565b9250606086013567ffffffffffffffff80821115612dba57600080fd5b818801915088601f830112612dce57600080fd5b813581811115612ddd57600080fd5b896020828501011115612def57600080fd5b9699959850939650602001949392505050565b60008060408385031215612e1557600080fd5b8235612e2081612bfd565b946020939093013593505050565b600060208284031215612e4057600080fd5b8151801515811461295557600080fd5b600060208284031215612e6257600080fd5b815161295581612bfd565b634e487b7160e01b600052601160045260246000fd5b80820180821115611fcd57611fcd612e6d565b6020815260006129556020830184612c56565b81810381811115611fcd57611fcd612e6d565b634e487b7160e01b600052604160045260246000fd5b634e487b7160e01b600052603260045260246000fd5b634e487b7160e01b600052602160045260246000fd5b600081518084526020808501808196508360051b8101915082860160005b85811015612f46578284038952612f34848351612c56565b98850198935090840190600101612f1c565b5091979650505050505050565b6001600160a01b038516815260806020808301829052600091612f7890840187612c56565b838103604080860191909152865181835280519183018290528301906000906060840190825b81811015612fd75784516004808210612fc457634e487b7160e01b865260218152602486fd5b5083529386019391860191600101612f9e565b505084890151925083810385850152612ff08184612efe565b9550505050505061300c60608301846001600160a01b03169052565b95945050505050565b60006020828403121561302757600080fd5b5051919050565b83815260406020820152816040820152818360608301376000818301606090810191909152601f909201601f1916010192915050565b805161306f81612bfd565b919050565b6000806040838503121561308757600080fd5b82519150602083015161309981612bfd565b809150509250929050565b6001600160a01b038316815260406020820181905260009061254f90830184612c56565b600060208083850312156130db57600080fd5b825167ffffffffffffffff808211156130f357600080fd5b818501915085601f83011261310757600080fd5b81518181111561311957613119612ebc565b8060051b604051601f19603f8301168101818110858211171561313e5761313e612ebc565b60405291825284820192508381018501918883111561315c57600080fd5b938501935b828510156131815761317285613064565b84529385019392850192613161565b98975050505050505050565b60006001820161319f5761319f612e6d565b5060010190565b634e487b7160e01b600052601260045260246000fd5b600082516131ce818460208701612c32565b919091019291505056fea264697066735822122018d0a31c4ee1ce09b89a89f33d32aa71eaf82062e3bf844252069d915ae6a57b64736f6c63430008130033",
  "devdoc": {
    "details": "A contract that implements the ChromaticVault interface      and provides functionality for managing positions, liquidity, and fees in Chromatic markets.",
    "events": {
      "FlashLoan(address,address,uint256,uint256,uint256,uint256)": {
        "details": "Emitted when a flash loan is executed.",
        "params": {
          "amount": "The amount of the flash loan.",
          "paid": "The amount paid back after the flash loan.",
          "paidToMakerPool": "The amount paid to the maker pool after the flash loan.",
          "paidToTakerPool": "The amount paid to the taker pool after the flash loan.",
          "recipient": "The address receiving the flash loan.",
          "sender": "The address initiating the flash loan."
        }
      },
      "MakerEarningDistributed(address,uint256,uint256)": {
        "details": "Emitted when maker earning is distributed.",
        "params": {
          "earning": "The amount of earning distributed.",
          "token": "The address of the settlement token.",
          "usedKeeperFee": "The amount of keeper fee used."
        }
      },
      "MarketEarningAccumulated(address,uint256)": {
        "details": "Emitted when market earning is accumulated.",
        "params": {
          "earning": "The amount of earning accumulated.",
          "market": "The address of the market."
        }
      },
      "MarketEarningDistributed(address,uint256,uint256,uint256)": {
        "details": "Emitted when market earning is distributed.",
        "params": {
          "earning": "The amount of earning distributed.",
          "market": "The address of the market.",
          "marketBalance": "The balance of the market.",
          "usedKeeperFee": "The amount of keeper fee used."
        }
      },
      "OnAddLiquidity(address,uint256)": {
        "params": {
          "amount": "The amount of liquidity added.",
          "market": "The address of the market."
        }
      },
      "OnClaimPosition(address,uint256,address,uint256,uint256)": {
        "params": {
          "market": "The address of the market.",
          "positionId": "The ID of the claimed position.",
          "recipient": "The address of the recipient of the settlement amount.",
          "settlementAmount": "The settlement amount received by the recipient.",
          "takerMargin": "The margin amount provided by the taker for the position."
        }
      },
      "OnOpenPosition(address,uint256,uint256,uint256,uint256)": {
        "params": {
          "market": "The address of the market.",
          "positionId": "The ID of the opened position.",
          "protocolFee": "The protocol fee associated with the position.",
          "takerMargin": "The margin amount provided by the taker for the position.",
          "tradingFee": "The trading fee associated with the position."
        }
      },
      "OnSettlePendingLiquidity(address,uint256,uint256)": {
        "params": {
          "market": "The address of the market.",
          "pendingDeposit": "The amount of pending deposit being settled.",
          "pendingWithdrawal": "The amount of pending withdrawal being settled."
        }
      },
      "OnWithdrawLiquidity(address,uint256,address)": {
        "params": {
          "amount": "The amount of liquidity withdrawn.",
          "market": "The address of the market.",
          "recipient": "The address of the recipient of the withdrawn liquidity."
        }
      },
      "TransferKeeperFee(address,uint256,uint256)": {
        "params": {
          "amount": "The amount of settlement token to be used for paying keeper fee.",
          "fee": "The amount of the transferred keeper fee as native token.",
          "market": "The address of the market."
        }
      },
      "TransferKeeperFee(uint256,uint256)": {
        "params": {
          "amount": "The amount of settlement token to be used for paying keeper fee.",
          "fee": "The amount of the transferred keeper fee as native token."
        }
      },
      "TransferProtocolFee(address,uint256,uint256)": {
        "params": {
          "amount": "The amount of the transferred fee.",
          "market": "The address of the market.",
          "positionId": "The ID of the position."
        }
      }
    },
    "kind": "dev",
    "methods": {
      "cancelMakerEarningDistributionTask(address)": {
        "params": {
          "token": "The address of the settlement token."
        }
      },
      "cancelMarketEarningDistributionTask(address)": {
        "params": {
          "market": "The address of the market."
        }
      },
      "constructor": {
        "details": "Constructs a new ChromaticVault instance.",
        "params": {
          "_automate": "The address of the Gelato Automate contract.",
          "_factory": "The address of the Chromatic Market Factory contract.",
          "opsProxyFactory": "The address of the OpsProxyFactory contract."
        }
      },
      "createMakerEarningDistributionTask(address)": {
        "params": {
          "token": "The address of the settlement token."
        }
      },
      "createMarketEarningDistributionTask(address)": {
        "params": {
          "market": "The address of the market."
        }
      },
      "distributeMakerEarning(address)": {
        "params": {
          "token": "The address of the settlement token."
        }
      },
      "distributeMarketEarning(address)": {
        "params": {
          "market": "The address of the market."
        }
      },
      "flashLoan(address,uint256,address,bytes)": {
        "details": "Executes a flash loan.",
        "params": {
          "amount": "The amount of the flash loan.",
          "data": "Additional data for the flash loan.",
          "recipient": "The address to receive the flash loan.",
          "token": "The address of the token for the flash loan."
        }
      },
      "getPendingBinShare(address,uint256)": {
        "details": "The pending share of earnings is calculated based on the bin balance, maker balances, and market balances.",
        "params": {
          "binBalance": "The balance of funds in the bin.",
          "market": "The address of the market."
        },
        "returns": {
          "_0": "The pending share of earnings for the specified bin."
        }
      },
      "onAddLiquidity(uint256)": {
        "details": "This function can only be called by a market contract.",
        "params": {
          "amount": "The amount of liquidity being added."
        }
      },
      "onClaimPosition(uint256,address,uint256,uint256)": {
        "details": "This function can only be called by a market contract.",
        "params": {
          "positionId": "The ID of the claimed position.",
          "recipient": "The address that will receive the settlement amount.",
          "settlementAmount": "The amount to be settled for the position.",
          "takerMargin": "The margin amount provided by the taker for the position."
        }
      },
      "onOpenPosition(uint256,uint256,uint256,uint256)": {
        "details": "This function can only be called by a market contract.",
        "params": {
          "positionId": "The ID of the opened position.",
          "protocolFee": "The protocol fee associated with the position.",
          "takerMargin": "The margin amount provided by the taker for the position.",
          "tradingFee": "The trading fee associated with the position."
        }
      },
      "onSettlePendingLiquidity(uint256,uint256)": {
        "details": "This function can only be called by a market contract.",
        "params": {
          "pendingDeposit": "The amount of pending deposits being settled.",
          "pendingWithdrawal": "The amount of pending withdrawals being settled."
        }
      },
      "onWithdrawLiquidity(address,uint256)": {
        "details": "This function can only be called by a market contract.",
        "params": {
          "amount": "The amount of liquidity to be withdrawn.",
          "recipient": "The address that will receive the withdrawn liquidity."
        }
      },
      "resolveMakerEarningDistribution(address)": {
        "params": {
          "token": "The address of the settlement token."
        },
        "returns": {
          "canExec": "True if the distribution can be executed, otherwise False.",
          "execPayload": "The payload for executing the distribution."
        }
      },
      "resolveMarketEarningDistribution(address)": {
        "params": {
          "market": "The address of the market."
        },
        "returns": {
          "canExec": "True if the distribution can be executed.",
          "execPayload": "The payload for executing the distribution."
        }
      },
      "transferKeeperFee(address,uint256,uint256)": {
        "details": "This function can only be called by a market contract.",
        "params": {
          "fee": "The amount of the fee to transfer as native token.",
          "keeper": "The address of the keeper to receive the fee.",
          "margin": "The margin amount used for the fee payment."
        },
        "returns": {
          "usedFee": "The actual settlement token amount of fee used for the transfer."
        }
      }
    },
    "title": "ChromaticVault",
    "version": 1
  },
  "userdoc": {
    "events": {
      "OnAddLiquidity(address,uint256)": {
        "notice": "Emitted when liquidity is added to the vault."
      },
      "OnClaimPosition(address,uint256,address,uint256,uint256)": {
        "notice": "Emitted when a position is claimed."
      },
      "OnOpenPosition(address,uint256,uint256,uint256,uint256)": {
        "notice": "Emitted when a position is opened."
      },
      "OnSettlePendingLiquidity(address,uint256,uint256)": {
        "notice": "Emitted when pending liquidity is settled."
      },
      "OnWithdrawLiquidity(address,uint256,address)": {
        "notice": "Emitted when liquidity is withdrawn from the vault."
      },
      "TransferKeeperFee(address,uint256,uint256)": {
        "notice": "Emitted when the keeper fee is transferred for a specific market."
      },
      "TransferKeeperFee(uint256,uint256)": {
        "notice": "Emitted when the keeper fee is transferred."
      },
      "TransferProtocolFee(address,uint256,uint256)": {
        "notice": "Emitted when the protocol fee is transferred for a specific position."
      }
    },
    "kind": "user",
    "methods": {
      "cancelMakerEarningDistributionTask(address)": {
        "notice": "Cancels a maker earning distribution task for a token."
      },
      "cancelMarketEarningDistributionTask(address)": {
        "notice": "Cancels a market earning distribution task for a market."
      },
      "createMakerEarningDistributionTask(address)": {
        "notice": "Creates a maker earning distribution task for a token."
      },
      "createMarketEarningDistributionTask(address)": {
        "notice": "Creates a market earning distribution task for a market."
      },
      "distributeMakerEarning(address)": {
        "notice": "Distributes the maker earning for a token to the each markets."
      },
      "distributeMarketEarning(address)": {
        "notice": "Distributes the market earning for a market to the each bins."
      },
      "getPendingBinShare(address,uint256)": {
        "notice": "Retrieves the pending share of earnings for a specific bin (subset) of funds in a market."
      },
      "onAddLiquidity(uint256)": {
        "notice": "Called when liquidity is added to the vault by a market contract."
      },
      "onClaimPosition(uint256,address,uint256,uint256)": {
        "notice": "Called when a position is claimed by a market contract."
      },
      "onOpenPosition(uint256,uint256,uint256,uint256)": {
        "notice": "Called when a position is opened by a market contract."
      },
      "onSettlePendingLiquidity(uint256,uint256)": {
        "notice": "Called when pending liquidity is settled in the vault by a market contract."
      },
      "onWithdrawLiquidity(address,uint256)": {
        "notice": "Called when liquidity is withdrawn from the vault by a market contract."
      },
      "resolveMakerEarningDistribution(address)": {
        "notice": "Resolves the maker earning distribution for a specific token."
      },
      "resolveMarketEarningDistribution(address)": {
        "notice": "Resolves the market earning distribution for a market."
      },
      "transferKeeperFee(address,uint256,uint256)": {
        "notice": "Transfers the keeper fee from the market to the specified keeper."
      }
    },
    "version": 1
  },
  "storageLayout": {
    "storage": [
      {
        "astId": 4582,
        "contract": "contracts/core/ChromaticVault.sol:ChromaticVault",
        "label": "_status",
        "offset": 0,
        "slot": "0",
        "type": "t_uint256"
      },
      {
        "astId": 13833,
        "contract": "contracts/core/ChromaticVault.sol:ChromaticVault",
        "label": "factory",
        "offset": 0,
        "slot": "1",
        "type": "t_contract(IChromaticMarketFactory)25055"
      },
      {
        "astId": 13836,
        "contract": "contracts/core/ChromaticVault.sol:ChromaticVault",
        "label": "keeperFeePayer",
        "offset": 0,
        "slot": "2",
        "type": "t_contract(IKeeperFeePayer)25160"
      },
      {
        "astId": 13840,
        "contract": "contracts/core/ChromaticVault.sol:ChromaticVault",
        "label": "makerBalances",
        "offset": 0,
        "slot": "3",
        "type": "t_mapping(t_address,t_uint256)"
      },
      {
        "astId": 13844,
        "contract": "contracts/core/ChromaticVault.sol:ChromaticVault",
        "label": "takerBalances",
        "offset": 0,
        "slot": "4",
        "type": "t_mapping(t_address,t_uint256)"
      },
      {
        "astId": 13848,
        "contract": "contracts/core/ChromaticVault.sol:ChromaticVault",
        "label": "makerMarketBalances",
        "offset": 0,
        "slot": "5",
        "type": "t_mapping(t_address,t_uint256)"
      },
      {
        "astId": 13852,
        "contract": "contracts/core/ChromaticVault.sol:ChromaticVault",
        "label": "takerMarketBalances",
        "offset": 0,
        "slot": "6",
        "type": "t_mapping(t_address,t_uint256)"
      },
      {
        "astId": 13856,
        "contract": "contracts/core/ChromaticVault.sol:ChromaticVault",
        "label": "pendingMakerEarnings",
        "offset": 0,
        "slot": "7",
        "type": "t_mapping(t_address,t_uint256)"
      },
      {
        "astId": 13860,
        "contract": "contracts/core/ChromaticVault.sol:ChromaticVault",
        "label": "pendingMarketEarnings",
        "offset": 0,
        "slot": "8",
        "type": "t_mapping(t_address,t_uint256)"
      },
      {
        "astId": 13864,
        "contract": "contracts/core/ChromaticVault.sol:ChromaticVault",
        "label": "pendingDeposits",
        "offset": 0,
        "slot": "9",
        "type": "t_mapping(t_address,t_uint256)"
      },
      {
        "astId": 13868,
        "contract": "contracts/core/ChromaticVault.sol:ChromaticVault",
        "label": "pendingWithdrawals",
        "offset": 0,
        "slot": "10",
        "type": "t_mapping(t_address,t_uint256)"
      },
      {
        "astId": 13872,
        "contract": "contracts/core/ChromaticVault.sol:ChromaticVault",
        "label": "makerEarningDistributionTaskIds",
        "offset": 0,
        "slot": "11",
        "type": "t_mapping(t_address,t_bytes32)"
      },
      {
        "astId": 13876,
        "contract": "contracts/core/ChromaticVault.sol:ChromaticVault",
        "label": "marketEarningDistributionTaskIds",
        "offset": 0,
        "slot": "12",
        "type": "t_mapping(t_address,t_bytes32)"
      }
    ],
    "types": {
      "t_address": {
        "encoding": "inplace",
        "label": "address",
        "numberOfBytes": "20"
      },
      "t_bytes32": {
        "encoding": "inplace",
        "label": "bytes32",
        "numberOfBytes": "32"
      },
      "t_contract(IChromaticMarketFactory)25055": {
        "encoding": "inplace",
        "label": "contract IChromaticMarketFactory",
        "numberOfBytes": "20"
      },
      "t_contract(IKeeperFeePayer)25160": {
        "encoding": "inplace",
        "label": "contract IKeeperFeePayer",
        "numberOfBytes": "20"
      },
      "t_mapping(t_address,t_bytes32)": {
        "encoding": "mapping",
        "key": "t_address",
        "label": "mapping(address => bytes32)",
        "numberOfBytes": "32",
        "value": "t_bytes32"
      },
      "t_mapping(t_address,t_uint256)": {
        "encoding": "mapping",
        "key": "t_address",
        "label": "mapping(address => uint256)",
        "numberOfBytes": "32",
        "value": "t_uint256"
      },
      "t_uint256": {
        "encoding": "inplace",
        "label": "uint256",
        "numberOfBytes": "32"
      }
    }
  }
}