{
  "address": "0xE988878C0B0a74983462c6883e0478a5bd995ad6",
  "abi": [
    {
      "inputs": [
        {
          "internalType": "address",
          "name": "_automate",
          "type": "address"
        }
      ],
      "stateMutability": "nonpayable",
      "type": "constructor"
    },
    {
      "anonymous": false,
      "inputs": [
        {
          "indexed": true,
          "internalType": "uint256",
          "name": "taskIdx",
          "type": "uint256"
        },
        {
          "indexed": false,
          "internalType": "bytes32",
          "name": "taskId",
          "type": "bytes32"
        }
      ],
      "name": "TaskCreated",
      "type": "event"
    },
    {
      "anonymous": false,
      "inputs": [
        {
          "indexed": true,
          "internalType": "uint256",
          "name": "taskIdx",
          "type": "uint256"
        },
        {
          "indexed": false,
          "internalType": "uint256",
          "name": "fee",
          "type": "uint256"
        },
        {
          "indexed": false,
          "internalType": "bool",
          "name": "success",
          "type": "bool"
        }
      ],
      "name": "TaskExecuted",
      "type": "event"
    },
    {
      "inputs": [],
      "name": "automate",
      "outputs": [
        {
          "internalType": "contract IAutomate",
          "name": "",
          "type": "address"
        }
      ],
      "stateMutability": "view",
      "type": "function"
    },
    {
      "inputs": [],
      "name": "createTask",
      "outputs": [],
      "stateMutability": "payable",
      "type": "function"
    },
    {
      "inputs": [],
      "name": "dedicatedMsgSender",
      "outputs": [
        {
          "internalType": "address",
          "name": "",
          "type": "address"
        }
      ],
      "stateMutability": "view",
      "type": "function"
    },
    {
      "inputs": [
        {
          "internalType": "uint256",
          "name": "taskIdx",
          "type": "uint256"
        }
      ],
      "name": "exec",
      "outputs": [],
      "stateMutability": "nonpayable",
      "type": "function"
    },
    {
      "inputs": [
        {
          "internalType": "uint256",
          "name": "taskIdx",
          "type": "uint256"
        }
      ],
      "name": "resolve",
      "outputs": [
        {
          "internalType": "bool",
          "name": "canExec",
          "type": "bool"
        },
        {
          "internalType": "bytes",
          "name": "execPayload",
          "type": "bytes"
        }
      ],
      "stateMutability": "view",
      "type": "function"
    }
  ],
  "transactionHash": "0xebe53efb06ec2896d932b741627fa29280726036e81d925427d1b4404cd80250",
  "args": [
    "0x2A6C106ae13B558BB9E2Ec64Bd2f1f7BEFF3A5E0"
  ],
  "numDeployments": 5,
  "solcInputHash": "5e9fcf540e770c4d2cc697226378a1a8",
  "bytecode": "0x60e06040523480156200001157600080fd5b506040516200109c3803806200109c8339810160408190526200003491620002a6565b8030816001600160a01b03166080816001600160a01b0316815250506000826001600160a01b031663573ea5756040518163ffffffff1660e01b8152600401602060405180830381865afa15801562000091573d6000803e3d6000fd5b505050506040513d601f19601f82011682018060405250810190620000b79190620002a6565b9050806001600160a01b031663c415b95c6040518163ffffffff1660e01b8152600401602060405180830381865afa158015620000f8573d6000803e3d6000fd5b505050506040513d601f19601f820116820180604052508101906200011e9190620002a6565b6001600160a01b0390811660c05260405163cd3d4fb960e01b815260009185169063cd3d4fb9906200015690600290600401620002cd565b602060405180830381865afa15801562000174573d6000803e3d6000fd5b505050506040513d601f19601f820116820180604052508101906200019a9190620002a6565b90506000816001600160a01b031663ba1d0ff46040518163ffffffff1660e01b8152600401602060405180830381865afa158015620001dd573d6000803e3d6000fd5b505050506040513d601f19601f82011682018060405250810190620002039190620002a6565b6040516337b6269f60e21b81526001600160a01b0386811660048301529192509082169063ded89a7c906024016040805180830381865afa1580156200024d573d6000803e3d6000fd5b505050506040513d601f19601f82011682018060405250810190620002739190620002f6565b506001600160a01b031660a0525062000339945050505050565b6001600160a01b0381168114620002a357600080fd5b50565b600060208284031215620002b957600080fd5b8151620002c6816200028d565b9392505050565b6020810160068310620002f057634e487b7160e01b600052602160045260246000fd5b91905290565b600080604083850312156200030a57600080fd5b825162000317816200028d565b602084015190925080151581146200032e57600080fd5b809150509250929050565b60805160a05160c051610d236200037960003960005050600060cf01526000818160710152818161052d015281816106b301526108c20152610d236000f3fe60806040526004361061005a5760003560e01c80634f896d4f116100435780634f896d4f146100f1578063a74764931461011f578063f873cb911461012957600080fd5b8063049aacfe1461005f57806328f150eb146100bd575b600080fd5b34801561006b57600080fd5b506100937f000000000000000000000000000000000000000000000000000000000000000081565b60405173ffffffffffffffffffffffffffffffffffffffff90911681526020015b60405180910390f35b3480156100c957600080fd5b506100937f000000000000000000000000000000000000000000000000000000000000000081565b3480156100fd57600080fd5b5061011161010c366004610957565b610149565b6040516100b49291906109d4565b6101276101f3565b005b34801561013557600080fd5b50610127610144366004610957565b610671565b600081815260026020526040812054606090600a906101689042610a26565b1191508161018557604051806020016040528060008152506101ec565b6040805160248082018690528251808303909101815260449091019091526020810180517bffffffffffffffffffffffffffffffffffffffffffffffffffffffff167ff873cb91000000000000000000000000000000000000000000000000000000001790525b9050915091565b6003805490600061020383610a3f565b909155505060038054600090815260208181526040808320349055925482526001905281812080547fffffffffffffffffffffffff000000000000000000000000000000000000000016331790558151600481840181815260e08301909452919290918291906060830160808036833701905050815260408051600480825260a0820190925260209092019190816020015b606081526020019060019003908161029557505090528051805191925060009182906102c3576102c3610a77565b602002602001019060058111156102dc576102dc610aa6565b908160058111156102ef576102ef610aa6565b815250506002816000015160018151811061030c5761030c610a77565b6020026020010190600581111561032557610325610aa6565b9081600581111561033857610338610aa6565b815250506003816000015160028151811061035557610355610a77565b6020026020010190600581111561036e5761036e610aa6565b9081600581111561038157610381610aa6565b815250506005816000015160038151811061039e5761039e610a77565b602002602001019060058111156103b7576103b7610aa6565b908160058111156103ca576103ca610aa6565b90525060035460405130918291634f896d4f916103ed9160240190815260200190565b604051602081830303815290604052915060e01b6020820180517bffffffffffffffffffffffffffffffffffffffffffffffffffffffff8381831617835250505050604051602001610440929190610ad5565b604051602081830303815290604052816020015160008151811061046657610466610a77565b602002602001018190525060405180602001604052806000815250816020015160018151811061049857610498610a77565b60200260200101819052506040518060200160405280600081525081602001516002815181106104ca576104ca610a77565b60200260200101819052506003604051806020016040528060008152506040516020016104f8929190610b04565b604051602081830303815290604052816020015160038151811061051e5761051e610a77565b602002602001018190525060007f000000000000000000000000000000000000000000000000000000000000000073ffffffffffffffffffffffffffffffffffffffff16633323b4673063f873cb9160e01b6040516020016105a891907fffffffff0000000000000000000000000000000000000000000000000000000091909116815260200190565b6040516020818303038152906040528573eeeeeeeeeeeeeeeeeeeeeeeeeeeeeeeeeeeeeeee6040518563ffffffff1660e01b81526004016105ec9493929190610b2d565b6020604051808303816000875af115801561060b573d6000803e3d6000fd5b505050506040513d601f19601f8201168201806040525081019061062f9190610c5b565b90506003547f9c24ccb001ff60bbf8d259e9827f77f455131f313dd00ac430e9f909757f3d668260405161066591815260200190565b60405180910390a25050565b600081815260208181526040808320546001909252822054909173ffffffffffffffffffffffffffffffffffffffff909116906106ac6108bd565b50905060007f000000000000000000000000000000000000000000000000000000000000000073ffffffffffffffffffffffffffffffffffffffff1663573ea5756040518163ffffffff1660e01b8152600401602060405180830381865afa15801561071c573d6000803e3d6000fd5b505050506040513d601f19601f820116820180604052508101906107409190610c99565b73ffffffffffffffffffffffffffffffffffffffff1663c415b95c6040518163ffffffff1660e01b8152600401602060405180830381865afa15801561078a573d6000803e3d6000fd5b505050506040513d601f19601f820116820180604052508101906107ae9190610c99565b73ffffffffffffffffffffffffffffffffffffffff168260405160006040518083038185875af1925050503d8060008114610805576040519150601f19603f3d011682016040523d82523d6000602084013e61080a565b606091505b5050905060008373ffffffffffffffffffffffffffffffffffffffff1683866108339190610a26565b604051600081818185875af1925050503d806000811461086f576040519150601f19603f3d011682016040523d82523d6000602084013e610874565b606091505b505060408051858152821515602082015291925087917f1689a85cf3afb8b27dd7408057802f5884cf95e7f86c2fb371acb70c9a20e451910160405180910390a2505050505050565b6000807f000000000000000000000000000000000000000000000000000000000000000073ffffffffffffffffffffffffffffffffffffffff1663b810c6366040518163ffffffff1660e01b81526004016040805180830381865afa15801561092a573d6000803e3d6000fd5b505050506040513d601f19601f8201168201806040525081019061094e9190610cbd565b90939092509050565b60006020828403121561096957600080fd5b5035919050565b6000815180845260005b818110156109965760208185018101518683018201520161097a565b5060006020828601015260207fffffffffffffffffffffffffffffffffffffffffffffffffffffffffffffffe0601f83011685010191505092915050565b82151581526040602082015260006109ef6040830184610970565b949350505050565b7f4e487b7100000000000000000000000000000000000000000000000000000000600052601160045260246000fd5b81810381811115610a3957610a396109f7565b92915050565b60007fffffffffffffffffffffffffffffffffffffffffffffffffffffffffffffffff8203610a7057610a706109f7565b5060010190565b7f4e487b7100000000000000000000000000000000000000000000000000000000600052603260045260246000fd5b7f4e487b7100000000000000000000000000000000000000000000000000000000600052602160045260246000fd5b73ffffffffffffffffffffffffffffffffffffffff831681526040602082015260006109ef6040830184610970565b600060048410610b1657610b16610aa6565b838252604060208301526109ef6040830184610970565b73ffffffffffffffffffffffffffffffffffffffff8516815260006020608081840152610b5d6080840187610970565b8381036040808601919091528651818352805191830182905283019060009060608401905b80831015610bb257835160068110610b9c57610b9c610aa6565b8252928501926001929092019190850190610b82565b508885015184820394860194909452835180825281860194860193509150600582901b8101850160005b83811015610c28577fffffffffffffffffffffffffffffffffffffffffffffffffffffffffffffffe0838303018652610c16828651610970565b95870195948701949150600101610bdc565b5073ffffffffffffffffffffffffffffffffffffffff891660608901529550610c52945050505050565b95945050505050565b600060208284031215610c6d57600080fd5b5051919050565b73ffffffffffffffffffffffffffffffffffffffff81168114610c9657600080fd5b50565b600060208284031215610cab57600080fd5b8151610cb681610c74565b9392505050565b60008060408385031215610cd057600080fd5b825191506020830151610ce281610c74565b80915050925092905056fea264697066735822122051915808b9a5aa8f1e7cfbf803288d013665cb7ed893ae01cccda6fae3085aaf64736f6c63430008130033",
  "devdoc": {
    "kind": "dev",
    "methods": {},
    "version": 1
  },
  "userdoc": {
    "kind": "user",
    "methods": {},
    "version": 1
  },
  "storageLayout": {
    "storage": [
      {
        "astId": 1072,
        "contract": "contracts/mocks/GelatoTest.sol:GelatoTest",
        "label": "funds",
        "offset": 0,
        "slot": "0",
        "type": "t_mapping(t_uint256,t_uint256)"
      },
      {
        "astId": 1076,
        "contract": "contracts/mocks/GelatoTest.sol:GelatoTest",
        "label": "funders",
        "offset": 0,
        "slot": "1",
        "type": "t_mapping(t_uint256,t_address)"
      },
      {
        "astId": 1080,
        "contract": "contracts/mocks/GelatoTest.sol:GelatoTest",
        "label": "blockNumbers",
        "offset": 0,
        "slot": "2",
        "type": "t_mapping(t_uint256,t_uint256)"
      },
      {
        "astId": 1082,
        "contract": "contracts/mocks/GelatoTest.sol:GelatoTest",
        "label": "_taskIdx",
        "offset": 0,
        "slot": "3",
        "type": "t_uint256"
      }
    ],
    "types": {
      "t_address": {
        "encoding": "inplace",
        "label": "address",
        "numberOfBytes": "20"
      },
      "t_mapping(t_uint256,t_address)": {
        "encoding": "mapping",
        "key": "t_uint256",
        "label": "mapping(uint256 => address)",
        "numberOfBytes": "32",
        "value": "t_address"
      },
      "t_mapping(t_uint256,t_uint256)": {
        "encoding": "mapping",
        "key": "t_uint256",
        "label": "mapping(uint256 => uint256)",
        "numberOfBytes": "32",
        "value": "t_uint256"
      },
      "t_uint256": {
        "encoding": "inplace",
        "label": "uint256",
        "numberOfBytes": "32"
      }
    }
  }
}