{
  "address": "0x504C2113453AE541dfFFc6b225F0C3f82740Eb52",
  "abi": [
    {
      "inputs": [
        {
          "internalType": "contract IChromaticMarketFactory",
          "name": "_factory",
          "type": "address"
        },
        {
          "internalType": "contract ISwapRouter",
          "name": "_uniswapRouter",
          "type": "address"
        },
        {
          "internalType": "contract IWETH9",
          "name": "_weth",
          "type": "address"
        }
      ],
      "stateMutability": "nonpayable",
      "type": "constructor"
    },
    {
      "inputs": [],
      "name": "InvalidSwapValue",
      "type": "error"
    },
    {
      "inputs": [],
      "name": "KeeperFeeTransferFailure",
      "type": "error"
    },
    {
      "inputs": [],
      "name": "OnlyAccessableByDao",
      "type": "error"
    },
    {
      "inputs": [],
      "name": "OnlyAccessableByFactoryOrDao",
      "type": "error"
    },
    {
      "anonymous": false,
      "inputs": [
        {
          "indexed": true,
          "internalType": "address",
          "name": "",
          "type": "address"
        }
      ],
      "name": "SetRouter",
      "type": "event"
    },
    {
      "stateMutability": "payable",
      "type": "fallback"
    },
    {
      "inputs": [],
      "name": "WETH9",
      "outputs": [
        {
          "internalType": "contract IWETH9",
          "name": "",
          "type": "address"
        }
      ],
      "stateMutability": "view",
      "type": "function"
    },
    {
      "inputs": [
        {
          "internalType": "address",
          "name": "token",
          "type": "address"
        },
        {
          "internalType": "bool",
          "name": "approve",
          "type": "bool"
        }
      ],
      "name": "approveToRouter",
      "outputs": [],
      "stateMutability": "nonpayable",
      "type": "function"
    },
    {
      "inputs": [
        {
          "internalType": "address",
          "name": "tokenIn",
          "type": "address"
        },
        {
          "internalType": "uint256",
          "name": "amountOut",
          "type": "uint256"
        },
        {
          "internalType": "address",
          "name": "keeperAddress",
          "type": "address"
        }
      ],
      "name": "payKeeperFee",
      "outputs": [
        {
          "internalType": "uint256",
          "name": "amountIn",
          "type": "uint256"
        }
      ],
      "stateMutability": "nonpayable",
      "type": "function"
    },
    {
      "inputs": [
        {
          "internalType": "contract ISwapRouter",
          "name": "_uniswapRouter",
          "type": "address"
        }
      ],
      "name": "setRouter",
      "outputs": [],
      "stateMutability": "nonpayable",
      "type": "function"
    },
    {
      "stateMutability": "payable",
      "type": "receive"
    }
  ],
  "transactionHash": "0x24717eb965aa8c0a10644695d10442975532649228ec58a8a53d124bec1dcc14",
  "args": [
    "0xF818D424693D12bBF4dbB97f6B43E2BAD6Ef2dCE",
    "0xF1596041557707B1bC0b3ffB34346c1D9Ce94E86",
    "0xe39Ab88f8A4777030A534146A9Ca3B52bd5D43A3"
  ],
  "numDeployments": 1,
  "solcInputHash": "89c49b8c2acc273e61affc3424ccf8f3",
  "bytecode": "0x608060405234801561001057600080fd5b50604051610c38380380610c3883398101604081905261002f91610089565b600080546001600160a01b039485166001600160a01b0319918216179091556001805493851693821693909317909255600280549190931691161790556100d6565b6001600160a01b038116811461008657600080fd5b50565b60008060006060848603121561009e57600080fd5b83516100a981610071565b60208501519093506100ba81610071565b60408501519092506100cb81610071565b809150509250925092565b610b53806100e56000396000f3fe6080604052600436106100405760003560e01c80634aa4a4fc14610049578063780205b114610086578063c0d78655146100b4578063f900a8b4146100d457005b3661004757005b005b34801561005557600080fd5b50600254610069906001600160a01b031681565b6040516001600160a01b0390911681526020015b60405180910390f35b34801561009257600080fd5b506100a66100a13660046108e1565b6100f4565b60405190815260200161007d565b3480156100c057600080fd5b506100476100cf366004610923565b6102ee565b3480156100e057600080fd5b506100476100ef366004610955565b6103de565b6040516370a0823160e01b815230600482015260009081906001600160a01b038616906370a0823190602401602060405180830381865afa15801561013d573d6000803e3d6000fd5b505050506040513d601f19601f82011682018060405250810190610161919061098e565b905061016f85308684610537565b600254604051632e1a7d4d60e01b8152600481018790529193506001600160a01b031690632e1a7d4d90602401600060405180830381600087803b1580156101b657600080fd5b505af11580156101ca573d6000803e3d6000fd5b505050506000836001600160a01b03168560405160006040518083038185875af1925050503d806000811461021b576040519150601f19603f3d011682016040523d82523d6000602084013e610220565b606091505b505090508061024257604051630a73bac760e01b815260040160405180910390fd5b6040516370a0823160e01b81523060048201526000906001600160a01b038816906370a0823190602401602060405180830381865afa158015610289573d6000803e3d6000fd5b505050506040513d601f19601f820116820180604052508101906102ad919061098e565b9050826102ba85836109a7565b10156102d957604051633301796760e01b815260040160405180910390fd5b6102e4873383610694565b5050509392505050565b60008054906101000a90046001600160a01b03166001600160a01b0316634162169f6040518163ffffffff1660e01b8152600401602060405180830381865afa15801561033f573d6000803e3d6000fd5b505050506040513d601f19601f8201168201806040525081019061036391906109ce565b6001600160a01b0316336001600160a01b0316146103945760405163808ca14f60e01b815260040160405180910390fd5b600180546001600160a01b0319166001600160a01b0383169081179091556040517f6de4326a8b9054d72d9dbab97d27bc4edffadee7d966f5af9cc4eafdaf8e545590600090a250565b6000546001600160a01b0316331480159061047f575060008054906101000a90046001600160a01b03166001600160a01b0316634162169f6040518163ffffffff1660e01b8152600401602060405180830381865afa158015610445573d6000803e3d6000fd5b505050506040513d601f19601f8201168201806040525081019061046991906109ce565b6001600160a01b0316336001600160a01b031614155b1561049d57604051636119ddb960e01b815260040160405180910390fd5b6001546001600160a01b038084169163095ea7b39116836104bf5760006104c3565b6000195b6040516001600160e01b031960e085901b1681526001600160a01b03909216600483015260248201526044016020604051808303816000875af115801561050e573d6000803e3d6000fd5b505050506040513d601f19601f8201168201806040525081019061053291906109eb565b505050565b6002546000906001600160a01b039081169086160361055757508161068c565b60408051610100810182526001600160a01b03878116808352600254821660208401526000805485516367250c9560e01b81526004810193909352909484019216906367250c9590602401602060405180830381865afa1580156105bf573d6000803e3d6000fd5b505050506040513d601f19601f820116820180604052508101906105e39190610a08565b62ffffff1681526001600160a01b038088166020830152426040808401919091526060830188905260808301879052600060a0909301929092526001549151631b67c43360e31b8152929350169063db3e219890610645908490600401610a2d565b6020604051808303816000875af1158015610664573d6000803e3d6000fd5b505050506040513d601f19601f82011682018060405250810190610688919061098e565b9150505b949350505050565b604080516001600160a01b03848116602483015260448083018590528351808403909101815260649092018352602080830180516001600160e01b031663a9059cbb60e01b17905283518085019094528084527f5361666545524332303a206c6f772d6c6576656c2063616c6c206661696c656490840152610532928692916000916107249185169084906107a6565b805190915015610532578080602001905181019061074291906109eb565b6105325760405162461bcd60e51b815260206004820152602a60248201527f5361666545524332303a204552433230206f7065726174696f6e20646964206e6044820152691bdd081cdd58d8d9595960b21b60648201526084015b60405180910390fd5b606061068c848460008585600080866001600160a01b031685876040516107cd9190610ace565b60006040518083038185875af1925050503d806000811461080a576040519150601f19603f3d011682016040523d82523d6000602084013e61080f565b606091505b50915091506108208783838761082b565b979650505050505050565b6060831561089a578251600003610893576001600160a01b0385163b6108935760405162461bcd60e51b815260206004820152601d60248201527f416464726573733a2063616c6c20746f206e6f6e2d636f6e7472616374000000604482015260640161079d565b508161068c565b61068c83838151156108af5781518083602001fd5b8060405162461bcd60e51b815260040161079d9190610aea565b6001600160a01b03811681146108de57600080fd5b50565b6000806000606084860312156108f657600080fd5b8335610901816108c9565b9250602084013591506040840135610918816108c9565b809150509250925092565b60006020828403121561093557600080fd5b8135610940816108c9565b9392505050565b80151581146108de57600080fd5b6000806040838503121561096857600080fd5b8235610973816108c9565b9150602083013561098381610947565b809150509250929050565b6000602082840312156109a057600080fd5b5051919050565b808201808211156109c857634e487b7160e01b600052601160045260246000fd5b92915050565b6000602082840312156109e057600080fd5b8151610940816108c9565b6000602082840312156109fd57600080fd5b815161094081610947565b600060208284031215610a1a57600080fd5b815162ffffff8116811461094057600080fd5b60006101008201905060018060a01b0380845116835280602085015116602084015262ffffff6040850151166040840152806060850151166060840152506080830151608083015260a083015160a083015260c083015160c083015260e0830151610aa360e08401826001600160a01b03169052565b5092915050565b60005b83811015610ac5578181015183820152602001610aad565b50506000910152565b60008251610ae0818460208701610aaa565b9190910192915050565b6020815260008251806020840152610b09816040850160208701610aaa565b601f01601f1916919091016040019291505056fea264697066735822122086a5e0f70301e2b8167828b66a0216795a0a9db5abf882e6e4f2b40173f5ff8064736f6c63430008130033",
  "devdoc": {
    "details": "A contract that pays keeper fees using a Uniswap router.",
    "kind": "dev",
    "methods": {
      "approveToRouter(address,bool)": {
        "details": "Only the factory or the DAO can call this function.",
        "params": {
          "approve": "A boolean indicating whether to approve or revoke approval.",
          "token": "The address of the token."
        }
      },
      "constructor": {
        "details": "Constructor function.",
        "params": {
          "_factory": "The address of the ChromaticMarketFactory contract.",
          "_uniswapRouter": "The address of the Uniswap router contract.",
          "_weth": "The address of the WETH9 contract."
        }
      },
      "payKeeperFee(address,uint256,address)": {
        "details": "Only the Vault can call this function.",
        "params": {
          "amountOut": "The desired amount of output tokens.",
          "keeperAddress": "The address of the keeper to receive the fee.",
          "tokenIn": "The address of the token being swapped."
        },
        "returns": {
          "amountIn": "The actual amount of input tokens used for the swap."
        }
      },
      "setRouter(address)": {
        "details": "Sets the Uniswap router address.",
        "params": {
          "_uniswapRouter": "The address of the Uniswap router contract."
        }
      }
    },
    "title": "KeeperFeePayer",
    "version": 1
  },
  "userdoc": {
    "kind": "user",
    "methods": {
      "approveToRouter(address,bool)": {
        "notice": "Approves or revokes approval to the Uniswap router for a given token."
      },
      "payKeeperFee(address,uint256,address)": {
        "notice": "Pays the keeper fee using Uniswap swaps."
      },
      "setRouter(address)": {
        "notice": "Only the DAO can call this function."
      }
    },
    "version": 1
  },
  "storageLayout": {
    "storage": [
      {
        "astId": 15401,
        "contract": "contracts/core/KeeperFeePayer.sol:KeeperFeePayer",
        "label": "factory",
        "offset": 0,
        "slot": "0",
        "type": "t_contract(IChromaticMarketFactory)25010"
      },
      {
        "astId": 15404,
        "contract": "contracts/core/KeeperFeePayer.sol:KeeperFeePayer",
        "label": "uniswapRouter",
        "offset": 0,
        "slot": "1",
        "type": "t_contract(ISwapRouter)11379"
      },
      {
        "astId": 15407,
        "contract": "contracts/core/KeeperFeePayer.sol:KeeperFeePayer",
        "label": "WETH9",
        "offset": 0,
        "slot": "2",
        "type": "t_contract(IWETH9)25136"
      }
    ],
    "types": {
      "t_contract(IChromaticMarketFactory)25010": {
        "encoding": "inplace",
        "label": "contract IChromaticMarketFactory",
        "numberOfBytes": "20"
      },
      "t_contract(ISwapRouter)11379": {
        "encoding": "inplace",
        "label": "contract ISwapRouter",
        "numberOfBytes": "20"
      },
      "t_contract(IWETH9)25136": {
        "encoding": "inplace",
        "label": "contract IWETH9",
        "numberOfBytes": "20"
      }
    }
  }
}