{
  "address": "0x20E401230A8313e9872b0feFAA7f59B84d529980",
  "abi": [
    {
      "inputs": [
        {
          "internalType": "contract IChromaticMarketFactory",
          "name": "_factory",
          "type": "address"
        },
        {
          "internalType": "contract ISwapRouter",
          "name": "_uniswapRouter",
          "type": "address"
        },
        {
          "internalType": "contract IWETH9",
          "name": "_weth",
          "type": "address"
        }
      ],
      "stateMutability": "nonpayable",
      "type": "constructor"
    },
    {
      "inputs": [],
      "name": "InvalidSwapValue",
      "type": "error"
    },
    {
      "inputs": [],
      "name": "KeeperFeeTransferFailure",
      "type": "error"
    },
    {
      "inputs": [],
      "name": "OnlyAccessableByDao",
      "type": "error"
    },
    {
      "inputs": [],
      "name": "OnlyAccessableByFactoryOrDao",
      "type": "error"
    },
    {
      "anonymous": false,
      "inputs": [
        {
          "indexed": true,
          "internalType": "address",
          "name": "",
          "type": "address"
        }
      ],
      "name": "SetRouter",
      "type": "event"
    },
    {
      "stateMutability": "payable",
      "type": "fallback"
    },
    {
      "inputs": [],
      "name": "WETH9",
      "outputs": [
        {
          "internalType": "contract IWETH9",
          "name": "",
          "type": "address"
        }
      ],
      "stateMutability": "view",
      "type": "function"
    },
    {
      "inputs": [
        {
          "internalType": "address",
          "name": "token",
          "type": "address"
        },
        {
          "internalType": "bool",
          "name": "approve",
          "type": "bool"
        }
      ],
      "name": "approveToRouter",
      "outputs": [],
      "stateMutability": "nonpayable",
      "type": "function"
    },
    {
      "inputs": [
        {
          "internalType": "address",
          "name": "tokenIn",
          "type": "address"
        },
        {
          "internalType": "uint256",
          "name": "amountOut",
          "type": "uint256"
        },
        {
          "internalType": "address",
          "name": "keeperAddress",
          "type": "address"
        }
      ],
      "name": "payKeeperFee",
      "outputs": [
        {
          "internalType": "uint256",
          "name": "amountIn",
          "type": "uint256"
        }
      ],
      "stateMutability": "nonpayable",
      "type": "function"
    },
    {
      "inputs": [
        {
          "internalType": "contract ISwapRouter",
          "name": "_uniswapRouter",
          "type": "address"
        }
      ],
      "name": "setRouter",
      "outputs": [],
      "stateMutability": "nonpayable",
      "type": "function"
    },
    {
      "stateMutability": "payable",
      "type": "receive"
    }
  ],
  "transactionHash": "0x9eff0477355afd8598b87d4acfdaf535b8d1427c29b955f86a37647a45ec3d0a",
  "args": [
    "0xC2eA976344A6dcAe7329f54d844388121D20baD0",
    "0xF1596041557707B1bC0b3ffB34346c1D9Ce94E86",
    "0xe39Ab88f8A4777030A534146A9Ca3B52bd5D43A3"
  ],
  "numDeployments": 13,
  "solcInputHash": "51ab2eaf68436303449990a90a515dde",
  "bytecode": "0x60c060405234801561001057600080fd5b5060405161108a38038061108a83398101604081905261002f91610076565b6001600160a01b03928316608052600080546001600160a01b031916928416929092179091551660a0526100c3565b6001600160a01b038116811461007357600080fd5b50565b60008060006060848603121561008b57600080fd5b83516100968161005e565b60208501519093506100a78161005e565b60408501519092506100b88161005e565b809150509250925092565b60805160a051610f7961011160003960008181605b015281816102080152818161075e01526107de0152600081816103d3015281816105490152818161057401526108390152610f796000f3fe6080604052600436106100405760003560e01c80634aa4a4fc14610049578063780205b1146100a7578063c0d78655146100d5578063f900a8b4146100f557005b3661004757005b005b34801561005557600080fd5b5061007d7f000000000000000000000000000000000000000000000000000000000000000081565b60405173ffffffffffffffffffffffffffffffffffffffff90911681526020015b60405180910390f35b3480156100b357600080fd5b506100c76100c2366004610cb5565b610115565b60405190815260200161009e565b3480156100e157600080fd5b506100476100f0366004610cf7565b6103d1565b34801561010157600080fd5b50610047610110366004610d29565b610531565b600073ffffffffffffffffffffffffffffffffffffffff821661013757600080fd5b6040517f70a0823100000000000000000000000000000000000000000000000000000000815230600482015260009073ffffffffffffffffffffffffffffffffffffffff8616906370a0823190602401602060405180830381865afa1580156101a4573d6000803e3d6000fd5b505050506040513d601f19601f820116820180604052508101906101c89190610d62565b90506101d68530868461075a565b6040517f2e1a7d4d000000000000000000000000000000000000000000000000000000008152600481018690529092507f000000000000000000000000000000000000000000000000000000000000000073ffffffffffffffffffffffffffffffffffffffff1690632e1a7d4d90602401600060405180830381600087803b15801561026157600080fd5b505af1158015610275573d6000803e3d6000fd5b50506040516000925073ffffffffffffffffffffffffffffffffffffffff8616915086156108fc0290879084818181858888f193505050509050806102e6576040517f0a73bac700000000000000000000000000000000000000000000000000000000815260040160405180910390fd5b6040517f70a0823100000000000000000000000000000000000000000000000000000000815230600482015260009073ffffffffffffffffffffffffffffffffffffffff8816906370a0823190602401602060405180830381865afa158015610353573d6000803e3d6000fd5b505050506040513d601f19601f820116820180604052508101906103779190610d62565b9050826103848583610d7b565b10156103bc576040517f3301796700000000000000000000000000000000000000000000000000000000815260040160405180910390fd5b6103c7873383610979565b5050509392505050565b7f000000000000000000000000000000000000000000000000000000000000000073ffffffffffffffffffffffffffffffffffffffff16634162169f6040518163ffffffff1660e01b8152600401602060405180830381865afa15801561043c573d6000803e3d6000fd5b505050506040513d601f19601f820116820180604052508101906104609190610dbb565b73ffffffffffffffffffffffffffffffffffffffff163373ffffffffffffffffffffffffffffffffffffffff16146104c4576040517f808ca14f00000000000000000000000000000000000000000000000000000000815260040160405180910390fd5b600080547fffffffffffffffffffffffff00000000000000000000000000000000000000001673ffffffffffffffffffffffffffffffffffffffff8316908117825560405190917f6de4326a8b9054d72d9dbab97d27bc4edffadee7d966f5af9cc4eafdaf8e545591a250565b3373ffffffffffffffffffffffffffffffffffffffff7f0000000000000000000000000000000000000000000000000000000000000000161480159061063157507f000000000000000000000000000000000000000000000000000000000000000073ffffffffffffffffffffffffffffffffffffffff16634162169f6040518163ffffffff1660e01b8152600401602060405180830381865afa1580156105dd573d6000803e3d6000fd5b505050506040513d601f19601f820116820180604052508101906106019190610dbb565b73ffffffffffffffffffffffffffffffffffffffff163373ffffffffffffffffffffffffffffffffffffffff1614155b15610668576040517f6119ddb900000000000000000000000000000000000000000000000000000000815260040160405180910390fd5b60005473ffffffffffffffffffffffffffffffffffffffff8084169163095ea7b39116836106975760006106b9565b7fffffffffffffffffffffffffffffffffffffffffffffffffffffffffffffffff5b6040517fffffffff0000000000000000000000000000000000000000000000000000000060e085901b16815273ffffffffffffffffffffffffffffffffffffffff909216600483015260248201526044016020604051808303816000875af1158015610729573d6000803e3d6000fd5b505050506040513d601f19601f8201168201806040525081019061074d9190610dd8565b61075657600080fd5b5050565b60007f000000000000000000000000000000000000000000000000000000000000000073ffffffffffffffffffffffffffffffffffffffff168573ffffffffffffffffffffffffffffffffffffffff16036107b6575081610971565b604080516101008101825273ffffffffffffffffffffffffffffffffffffffff8088168083527f00000000000000000000000000000000000000000000000000000000000000008216602084015283517f67250c9500000000000000000000000000000000000000000000000000000000815260048101919091526000938301917f000000000000000000000000000000000000000000000000000000000000000016906367250c9590602401602060405180830381865afa158015610880573d6000803e3d6000fd5b505050506040513d601f19601f820116820180604052508101906108a49190610df5565b62ffffff16815273ffffffffffffffffffffffffffffffffffffffff8088166020830152426040808401919091526060830188905260808301879052600060a0909301839052915491517fdb3e2198000000000000000000000000000000000000000000000000000000008152929350169063db3e21989061092a908490600401610e1a565b6020604051808303816000875af1158015610949573d6000803e3d6000fd5b505050506040513d601f19601f8201168201806040525081019061096d9190610d62565b9150505b949350505050565b6040805173ffffffffffffffffffffffffffffffffffffffff8416602482015260448082018490528251808303909101815260649091019091526020810180517bffffffffffffffffffffffffffffffffffffffffffffffffffffffff167fa9059cbb00000000000000000000000000000000000000000000000000000000179052610a06908490610a0b565b505050565b6000610a6d826040518060400160405280602081526020017f5361666545524332303a206c6f772d6c6576656c2063616c6c206661696c65648152508573ffffffffffffffffffffffffffffffffffffffff16610b1f9092919063ffffffff16565b9050805160001480610a8e575080806020019051810190610a8e9190610dd8565b610a06576040517f08c379a000000000000000000000000000000000000000000000000000000000815260206004820152602a60248201527f5361666545524332303a204552433230206f7065726174696f6e20646964206e60448201527f6f7420737563636565640000000000000000000000000000000000000000000060648201526084015b60405180910390fd5b60606109718484600085856000808673ffffffffffffffffffffffffffffffffffffffff168587604051610b539190610ed6565b60006040518083038185875af1925050503d8060008114610b90576040519150601f19603f3d011682016040523d82523d6000602084013e610b95565b606091505b5091509150610ba687838387610bb1565b979650505050505050565b60608315610c47578251600003610c405773ffffffffffffffffffffffffffffffffffffffff85163b610c40576040517f08c379a000000000000000000000000000000000000000000000000000000000815260206004820152601d60248201527f416464726573733a2063616c6c20746f206e6f6e2d636f6e74726163740000006044820152606401610b16565b5081610971565b6109718383815115610c5c5781518083602001fd5b806040517f08c379a0000000000000000000000000000000000000000000000000000000008152600401610b169190610ef2565b73ffffffffffffffffffffffffffffffffffffffff81168114610cb257600080fd5b50565b600080600060608486031215610cca57600080fd5b8335610cd581610c90565b9250602084013591506040840135610cec81610c90565b809150509250925092565b600060208284031215610d0957600080fd5b8135610d1481610c90565b9392505050565b8015158114610cb257600080fd5b60008060408385031215610d3c57600080fd5b8235610d4781610c90565b91506020830135610d5781610d1b565b809150509250929050565b600060208284031215610d7457600080fd5b5051919050565b80820180821115610db5577f4e487b7100000000000000000000000000000000000000000000000000000000600052601160045260246000fd5b92915050565b600060208284031215610dcd57600080fd5b8151610d1481610c90565b600060208284031215610dea57600080fd5b8151610d1481610d1b565b600060208284031215610e0757600080fd5b815162ffffff81168114610d1457600080fd5b60006101008201905073ffffffffffffffffffffffffffffffffffffffff80845116835280602085015116602084015262ffffff6040850151166040840152806060850151166060840152506080830151608083015260a083015160a083015260c083015160c083015260e0830151610eab60e084018273ffffffffffffffffffffffffffffffffffffffff169052565b5092915050565b60005b83811015610ecd578181015183820152602001610eb5565b50506000910152565b60008251610ee8818460208701610eb2565b9190910192915050565b6020815260008251806020840152610f11816040850160208701610eb2565b601f017fffffffffffffffffffffffffffffffffffffffffffffffffffffffffffffffe016919091016040019291505056fea26469706673582212201dc7a769eb749be35b876458e69e0d3d82e72ac5d05bd8743e51eb57821d1c7a64736f6c63430008130033",
  "devdoc": {
    "details": "A contract that pays keeper fees using a Uniswap router.",
    "errors": {
      "InvalidSwapValue()": [
        {
          "details": "Throws an error indicating that the swap value for the Uniswap trade is invalid."
        }
      ],
      "KeeperFeeTransferFailure()": [
        {
          "details": "Throws an error indicating that the transfer of keeper fee has failed."
        }
      ],
      "OnlyAccessableByDao()": [
        {
          "details": "Throws an error indicating that the caller is not the DAO."
        }
      ],
      "OnlyAccessableByFactoryOrDao()": [
        {
          "details": "Throws an error indicating that the caller is nether the chormatic factory contract nor the DAO."
        }
      ]
    },
    "kind": "dev",
    "methods": {
      "approveToRouter(address,bool)": {
        "details": "Only the factory or the DAO can call this function.",
        "params": {
          "approve": "A boolean indicating whether to approve or revoke approval.",
          "token": "The address of the token."
        }
      },
      "constructor": {
        "details": "Constructor function.",
        "params": {
          "_factory": "The address of the ChromaticMarketFactory contract.",
          "_uniswapRouter": "The address of the Uniswap router contract.",
          "_weth": "The address of the WETH9 contract."
        }
      },
      "payKeeperFee(address,uint256,address)": {
        "details": "Only the Vault can call this function.      Throws a `KeeperFeeTransferFailure` error if the transfer of ETH to the keeper address fails.      Throws an `InvalidSwapValue` error if the remaining balance of the input token after the swap is insufficient.",
        "params": {
          "amountOut": "The desired amount of output tokens.",
          "keeperAddress": "The address of the keeper to receive the fee.",
          "tokenIn": "The address of the token being swapped."
        },
        "returns": {
          "amountIn": "The actual amount of input tokens used for the swap."
        }
      },
      "setRouter(address)": {
        "details": "Sets the Uniswap router address.",
        "params": {
          "_uniswapRouter": "The address of the Uniswap router contract."
        }
      }
    },
    "title": "KeeperFeePayer",
    "version": 1
  },
  "userdoc": {
    "kind": "user",
    "methods": {
      "approveToRouter(address,bool)": {
        "notice": "Approves or revokes approval to the Uniswap router for a given token."
      },
      "payKeeperFee(address,uint256,address)": {
        "notice": "Pays the keeper fee using Uniswap swaps."
      },
      "setRouter(address)": {
        "notice": "Only the DAO can call this function."
      }
    },
    "version": 1
  },
  "storageLayout": {
    "storage": [
      {
        "astId": 10720,
        "contract": "contracts/core/KeeperFeePayer.sol:KeeperFeePayer",
        "label": "uniswapRouter",
        "offset": 0,
        "slot": "0",
        "type": "t_contract(ISwapRouter)6476"
      }
    ],
    "types": {
      "t_contract(ISwapRouter)6476": {
        "encoding": "inplace",
        "label": "contract ISwapRouter",
        "numberOfBytes": "20"
      }
    }
  }
}