{
  "address": "0x3f6E20Db139caf6BBA7ad3a24c1040cbC59C5616",
  "abi": [
    {
      "inputs": [],
      "name": "Empty",
      "type": "error"
    },
    {
      "inputs": [],
      "name": "OnlyAccessableByDao",
      "type": "error"
    },
    {
      "inputs": [],
      "name": "OnlyAccessableByLiquidator",
      "type": "error"
    },
    {
      "inputs": [],
      "name": "OnlyAccessableByVault",
      "type": "error"
    },
    {
      "inputs": [],
      "name": "OutOfBounds",
      "type": "error"
    },
    {
      "inputs": [
        {
          "internalType": "int16[]",
          "name": "feeRates",
          "type": "int16[]"
        }
      ],
      "name": "settle",
      "outputs": [],
      "stateMutability": "nonpayable",
      "type": "function"
    },
    {
      "inputs": [],
      "name": "settleAll",
      "outputs": [],
      "stateMutability": "nonpayable",
      "type": "function"
    }
  ],
  "transactionHash": "0xe4dab911fe219bbbdc041d5152441c4334beeeb589c68b2719470ed7d100bf3c",
  "args": [],
  "numDeployments": 1,
  "solcInputHash": "56bceea35be7e0d66214085237c57d89",
  "bytecode": "0x608060405234801561001057600080fd5b50612233806100206000396000f3fe608060405234801561001057600080fd5b50600436106100365760003560e01c80634c32f73a1461003b578063a015aefe14610050575b600080fd5b61004e610049366004611d41565b610058565b005b61004e6100d8565b7f492a974aed1be5cd7fa4ce3b0cfab809a1de17af5ade68dd0729b36f2ed09793600061008482610120565b905061008f81610295565b6100d28185858080602002602001604051908101604052809392919081815260200183836020028082843760009201919091525050600787019392915050610312565b50505050565b7f492a974aed1be5cd7fa4ce3b0cfab809a1de17af5ade68dd0729b36f2ed09793600061010482610120565b905061010f81610295565b61011c60078301826103a0565b5050565b61017b60408051610100810182526000808252602080830182905282840182905260608084018390526080840183905260a0840183905260c0840183905284519081018552828152908101829052928301529060e082015290565b61019f60405180606001604052806000815260200160008152602001600081525090565b6040805161010081018252600185015473ffffffffffffffffffffffffffffffffffffffff9081168252855481166020808401919091526005870154821683850152600387015482166060840152306080840152600287015490911660a0830181905283517f313ce5670000000000000000000000000000000000000000000000000000000081529351929360c0850193919263313ce567926004808401938290030181865afa158015610257573d6000803e3d6000fd5b505050506040513d601f19601f8201168201806040525081019061027b9190611db6565b61028690600a611f28565b81526020019190915292915050565b806000015173ffffffffffffffffffffffffffffffffffffffff1663fff6cae96040518163ffffffff1660e01b81526004016060604051808303816000875af11580156102e6573d6000803e3d6000fd5b505050506040513d601f19601f8201168201806040525081019061030a9190611f37565b60e090910152565b60005b81518110156100d257600082828151811061033257610332611fba565b6020026020010151905060008160010b121561037a576103758460018701600061035b85611fe9565b61ffff16815260208101919091526040016000209061041e565b610397565b61ffff81166000908152602086905260409020610397908561041e565b50600101610315565b60006103aa61050b565b905060005b60248110156100d25760008282602481106103cc576103cc611fba565b6020908102919091015161ffff811660009081529187905260409091209091506103f6908561041e565b61ffff811660009081526001860160205260409020610415908561041e565b506001016103af565b61042b6015830182610647565b610438600983018261078d565b61044560018301826108a3565b1561011c5781546105068261045a85826109d8565b61046386610b07565b60608601516040517fbd85b03900000000000000000000000000000000000000000000000000000000815260048101879052869173ffffffffffffffffffffffffffffffffffffffff169063bd85b03990602401602060405180830381865afa1580156104d4573d6000803e3d6000fd5b505050506040513d601f19601f820116820180604052508101906104f89190612027565b600189019493929190610b3a565b505050565b610513611d22565b50604080516104808101825260018152600260208201526003918101919091526004606082015260056080820152600660a0820152600760c0820152600860e08201526009610100820152600a6101208201526014610140820152601e610160820152602861018082015260326101a0820152603c6101c082015260466101e08201526050610200820152605a610220820152606461024082015260c861026082015261012c6102808201526101906102a08201526101f46102c08201526102586102e08201526102bc610300820152610320808201526103846103408201526103e86103608201526105dc6103808201526107d06103a08201526109c46103c0820152610bb86103e0820152610dac610400820152610fa061042082015261119461044082015261138861046082015290565b60028201546106568282610d88565b61065f57505050565b6040805160808101825260038501548152600485015460208201526005850154918101919091526006840154606082015283546106a390600c860190859042610da7565b80604001518460000160008282546106bb9190612040565b909155505060608101516001850180546000906106d9908490612040565b909155506106ec90506009850183610de9565b506000828152600b850160209081526040918290208351815590830151600182015590820151600280830191909155606083015160039092019190915561073590850184610df5565b6008840154600d8501805460009061074e908490612040565b90915550506000600285018190556003850181905560048501819055600585018190556006850181905560078501819055600890940193909355505050565b600482015461079c8282610d88565b6107a557505050565b60028301546107bb90600a850190849042610da7565b60058301548354819085906000906107d4908490612053565b909155506107f09050816107eb6004870186610e0b565b610e24565b8460010160008282546108039190612040565b90915550506006840154600285018054600090610821908490612040565b9091555050600784015460038501805460009061083f908490612040565b9091555061085290506004850184610e43565b6009840154600b8501805460009061086b908490612040565b909155505060006004850181905560058501819055600685018190556007850181905560088501819055600990940193909355505050565b60005b6006830154600f81810b700100000000000000000000000000000000909204900b13156109665760006108db84600601610e59565b6000818152600586016020908152604091829020825160608101845281548082526001830154938201849052600290920154938101939093529293509091116109585761092a85600601610ed3565b508051600003610953576000828152600586016020526040812081815560018101829055600201555b61095f565b5050610966565b50506108a6565b60006109908460060154600f81810b700100000000000000000000000000000000909204900b0390565b111561099e575060016109d2565b60018301546109ae908390610d88565b6109ba575060006109d2565b60028301541515806109cf5750600383015415155b90505b92915050565b6000806109e86009850184610f90565b905060006109f582611071565b90506000610a04866001015490565b90506000808412610a1e57610a198383612040565b610a28565b610a28838361207b565b604080880151608089015160a08a015192517f4e82c4b700000000000000000000000000000000000000000000000000000000815273ffffffffffffffffffffffffffffffffffffffff91821660048201529281166024840152604483018690529293509190911690634e82c4b790606401602060405180830381865afa158015610ab7573d6000803e3d6000fd5b505050506040513d601f19601f82011682018060405250810190610adb9190612027565b610ae86015890188611088565b610af29083612040565b610afc9190612040565b979650505050505050565b6000610b15826015016110ab565b610b21836009016110be565b6001840154610b30919061207b565b6109d2919061207b565b600080610b49888888866110d4565b9092509050600080610b668a610b5f868a612040565b8a8861121c565b9150915081831115610c0a57886060015173ffffffffffffffffffffffffffffffffffffffff1663731133e98a60800151888587610ba4919061207b565b604051806020016040528060008152506040518563ffffffff1660e01b8152600401610bd394939291906120f2565b600060405180830381600087803b158015610bed57600080fd5b505af1158015610c01573d6000803e3d6000fd5b50505050610cd0565b81831015610cd057886060015173ffffffffffffffffffffffffffffffffffffffff1663f5298aca8a60800151888686610c44919061207b565b6040517fffffffff0000000000000000000000000000000000000000000000000000000060e086901b16815273ffffffffffffffffffffffffffffffffffffffff909316600484015260248301919091526044820152606401600060405180830381600087803b158015610cb757600080fd5b505af1158015610ccb573d6000803e3d6000fd5b505050505b83151580610cdd57508015155b15610d7c576040808a015160a08b015191517f8b41411700000000000000000000000000000000000000000000000000000000815273ffffffffffffffffffffffffffffffffffffffff92831660048201526024810187905260448101849052911690638b41411790606401600060405180830381600087803b158015610d6357600080fd5b505af1158015610d77573d6000803e3d6000fd5b505050505b50505050505050505050565b600081158015906109cf5750610d9d83611366565b5190911092915050565b8354808211610db657506100d2565b8215610de157610dc884848385611418565b856001016000828254610ddb9190612040565b90915550505b509092555050565b60006109cf83836114ed565b600382015461011c906005840190839042610da7565b805182546000916109cf91610e1f85611366565b61153c565b60006109cf82670de0b6b3a7640000610e3c86611071565b919061167d565b600282015461011c906004840190839042610da7565b6000610e818254600f81810b700100000000000000000000000000000000909204900b131590565b15610eb8576040517f3db2a12a00000000000000000000000000000000000000000000000000000000815260040160405180910390fd5b508054600f0b60009081526001909101602052604090205490565b6000610efb8254600f81810b700100000000000000000000000000000000909204900b131590565b15610f32576040517f3db2a12a00000000000000000000000000000000000000000000000000000000815260040160405180910390fd5b508054600f0b6000818152600180840160205260408220805492905583547fffffffffffffffffffffffffffffffff000000000000000000000000000000001692016fffffffffffffffffffffffffffffffff169190911790915590565b600080610f9c83611366565b845490915060008115610feb576000610fcc670de0b6b3a7640000610fc085611071565b60018a0154919061167d565b90506000610fd9856117a7565b9050610fe684838361182c565b925050505b6000610fff610ffa88886118e4565b6118fd565b61100c60048901886119af565b6110169084612053565b6110209190612053565b9050600061102d82611071565b9050600082126110585761104c610ffa826110478b611a73565b611a89565b955050505050506109d2565b611068610ffa826110478b6110be565b61104c90612137565b60008082121561108457816000036109d2565b5090565b60006110976002840183611a9f565b6110a18484611ab8565b6109cf9190612040565b600581015481546000916109d291612040565b600681015460028201546000916109d291612040565b600184015460009081906110e88682610d88565b6110f9576000809250925050611213565b60028701546003880154909350831561116257611117848787611ace565b92508388600001600082825461112d9190612040565b90915550506040805180820182528581526020808201868152600086815260048d019092529290209051815590516001909101555b80156111fb5760068801805470010000000000000000000000000000000090819004600f0b600081815260078c016020526040902085905582546fffffffffffffffffffffffffffffffff908116600190920116909102179055604080516060810182528281526000602080830182815283850183815287845260058e0190925293909120915182559151600182015590516002909101555b50506000600187018190556002870181905560038701555b94509492505050565b60008060006112498760060154600f81810b700100000000000000000000000000000000909204900b0390565b905060005b818110801561125c57508615155b1561134057600061127060068a0183611b02565b600081815260058b0160205260408120600181015481549394509092611296919061207b565b90508015611335576000806112ac838c8c611b99565b9050808c106112bd578291506112d9565b6112c88c8c8c611ace565b91508282106112d657600080fd5b508a5b818460010160008282546112ed9190612040565b92505081905550808460020160008282546113089190612040565b909155506113189050828a612040565b98506113248189612040565b9750611330818d61207b565b9b5050505b50505060010161124e565b5081876000016000828254611355919061207b565b925050819055505094509492505050565b61138a60405180606001604052806000815260200160008152602001600081525090565b60e08201515160000361141057816000015173ffffffffffffffffffffffffffffffffffffffff16639d888e866040518163ffffffff1660e01b8152600401606060405180830381865afa1580156113e6573d6000803e3d6000fd5b505050506040513d601f19601f8201168201806040525081019061140a9190611f37565b60e08301525b5060e0015190565b60008315806114275750818310155b6114df57602085015160a08601516040517f705b170e00000000000000000000000000000000000000000000000000000000815273ffffffffffffffffffffffffffffffffffffffff918216600482015260248101879052604481018690526064810185905291169063705b170e90608401602060405180830381865afa1580156114b6573d6000803e3d6000fd5b505050506040513d601f19601f820116820180604052508101906114da9190612027565b6114e2565b60005b90505b949350505050565b6000818152600183016020526040812054611534575081546001818101845560008481526020808220909301849055845484825282860190935260409020919091556109d2565b5060006109d2565b60008061154884611bb6565b835160408051808201909152600381527f555350000000000000000000000000000000000000000000000000000000000060208201529192508211156115c4576040517f08c379a00000000000000000000000000000000000000000000000000000000081526004016115bb919061216f565b60405180910390fd5b5082516000908214611664576040517f7ece075d0000000000000000000000000000000000000000000000000000000081526004810183905273ffffffffffffffffffffffffffffffffffffffff871690637ece075d90602401606060405180830381865afa15801561163b573d6000803e3d6000fd5b505050506040513d601f19601f8201168201806040525081019061165f9190611f37565b611666565b835b9050611671816117a7565b925050505b9392505050565b600080807fffffffffffffffffffffffffffffffffffffffffffffffffffffffffffffffff858709858702925082811083820303915050806000036116d5578382816116cb576116cb612182565b0492505050611676565b80841161173e576040517f08c379a000000000000000000000000000000000000000000000000000000000815260206004820152601560248201527f4d6174683a206d756c446976206f766572666c6f77000000000000000000000060448201526064016115bb565b60008486880960026001871981018816978890046003810283188082028403028082028403028082028403028082028403028082028403029081029092039091026000889003889004909101858311909403939093029303949094049190911702949350505050565b6000808260400151136040518060400160405280600381526020017f4e505000000000000000000000000000000000000000000000000000000000008152509061181e576040517f08c379a00000000000000000000000000000000000000000000000000000000081526004016115bb919061216f565b506109d28260400151611071565b600083158061183a57508183145b1561184757506000611676565b600083831161186b5761185d610ffa848661207b565b61186690612137565b611878565b611878610ffa858561207b565b905060008512156118b0576118ad7fffffffffffffffffffffffffffffffffffffffffffffffffffffffffffffffff826121b1565b90505b60006118cb610ffa6118c184611071565b87610e3c8a611071565b9050600082126118db5780611671565b61167181612137565b60028201546000906109cf90600a850190849042611c31565b60007f7fffffffffffffffffffffffffffffffffffffffffffffffffffffffffffffff821115611084576040517f08c379a000000000000000000000000000000000000000000000000000000000815260206004820152602860248201527f53616665436173743a2076616c756520646f65736e27742066697420696e206160448201527f6e20696e7432353600000000000000000000000000000000000000000000000060648201526084016115bb565b81546000906119be8382610d88565b6119cc5760009150506109d2565b60006119d784611366565b905060006119ed856000015184610e1f88611366565b905060006119fa836117a7565b90506000611a0b610ffa8989611c70565b611a1a8960010154858561182c565b611a249190612053565b90506000611a3182611071565b905060008212611a5957611a4c610ffa828b60030154611a89565b96505050505050506109d2565b611a6a610ffa828b60020154611a89565b611a4c90612137565b600781015460038201546000916109d291612040565b6000818310611a9857816109cf565b5090919050565b60038201546000906109cf906005850190849042611c31565b81546000906109cf90600c850190849042611c31565b60008115611afa57611af5826103e88510611ae95784611aed565b6103e85b86919061167d565b6114e5565b509192915050565b600080611b25611b11846118fd565b8554611b209190600f0b612053565b611c89565b84549091507001000000000000000000000000000000009004600f90810b9082900b12611b7e576040517fb4120f1400000000000000000000000000000000000000000000000000000000815260040160405180910390fd5b600f0b60009081526001939093016020525050604090205490565b60008115611bac57611af584848461167d565b5060009392505050565b60408051808201909152600381527f494f560000000000000000000000000000000000000000000000000000000000602082015260009082611c25576040517f08c379a00000000000000000000000000000000000000000000000000000000081526004016115bb919061216f565b506109d2826001612040565b600082600003611c43575060006114e5565b84546001860154818411611c5a5791506114e59050565b611c6686868487611418565b610afc9082612040565b60028201546000906109cf906004850190849042611c31565b80600f81900b8114611d1d576040517f08c379a000000000000000000000000000000000000000000000000000000000815260206004820152602760248201527f53616665436173743a2076616c756520646f65736e27742066697420696e203160448201527f323820626974730000000000000000000000000000000000000000000000000060648201526084016115bb565b919050565b6040518061048001604052806024906020820280368337509192915050565b60008060208385031215611d5457600080fd5b823567ffffffffffffffff80821115611d6c57600080fd5b818501915085601f830112611d8057600080fd5b813581811115611d8f57600080fd5b8660208260051b8501011115611da457600080fd5b60209290920196919550909350505050565b600060208284031215611dc857600080fd5b815160ff8116811461167657600080fd5b7f4e487b7100000000000000000000000000000000000000000000000000000000600052601160045260246000fd5b600181815b80851115611e6157817fffffffffffffffffffffffffffffffffffffffffffffffffffffffffffffffff04821115611e4757611e47611dd9565b80851615611e5457918102915b93841c9390800290611e0d565b509250929050565b600082611e78575060016109d2565b81611e85575060006109d2565b8160018114611e9b5760028114611ea557611ec1565b60019150506109d2565b60ff841115611eb657611eb6611dd9565b50506001821b6109d2565b5060208310610133831016604e8410600b8410161715611ee4575081810a6109d2565b611eee8383611e08565b807fffffffffffffffffffffffffffffffffffffffffffffffffffffffffffffffff04821115611f2057611f20611dd9565b029392505050565b60006109cf60ff841683611e69565b600060608284031215611f4957600080fd5b6040516060810181811067ffffffffffffffff82111715611f93577f4e487b7100000000000000000000000000000000000000000000000000000000600052604160045260246000fd5b80604052508251815260208301516020820152604083015160408201528091505092915050565b7f4e487b7100000000000000000000000000000000000000000000000000000000600052603260045260246000fd5b60008160010b7fffffffffffffffffffffffffffffffffffffffffffffffffffffffffffff8000810361201e5761201e611dd9565b60000392915050565b60006020828403121561203957600080fd5b5051919050565b808201808211156109d2576109d2611dd9565b808201828112600083128015821682158216171561207357612073611dd9565b505092915050565b818103818111156109d2576109d2611dd9565b6000815180845260005b818110156120b457602081850181015186830182015201612098565b5060006020828601015260207fffffffffffffffffffffffffffffffffffffffffffffffffffffffffffffffe0601f83011685010191505092915050565b73ffffffffffffffffffffffffffffffffffffffff8516815283602082015282604082015260806060820152600061212d608083018461208e565b9695505050505050565b60007f8000000000000000000000000000000000000000000000000000000000000000820361216857612168611dd9565b5060000390565b6020815260006109cf602083018461208e565b7f4e487b7100000000000000000000000000000000000000000000000000000000600052601260045260246000fd5b808202600082127f8000000000000000000000000000000000000000000000000000000000000000841416156121e9576121e9611dd9565b81810583148215176109d2576109d2611dd956fea26469706673582212201d65de986e96e61c19513fbda5306b993911d42b3e9ebc2ac5949eff593ce6a164736f6c63430008130033",
  "devdoc": {
    "errors": {
      "Empty()": [
        {
          "details": "An operation (e.g. {front}) couldn't be completed due to the queue being empty."
        }
      ],
      "OnlyAccessableByDao()": [
        {
          "details": "Throws an error indicating that the caller is not the DAO."
        }
      ],
      "OnlyAccessableByLiquidator()": [
        {
          "details": "Throws an error indicating that the caller is not the chromatic liquidator contract."
        }
      ],
      "OnlyAccessableByVault()": [
        {
          "details": "Throws an error indicating that the caller is not the chromatch vault contract."
        }
      ],
      "OutOfBounds()": [
        {
          "details": "An operation (e.g. {at}) couldn't be completed due to an index being out of bounds."
        }
      ]
    },
    "kind": "dev",
    "methods": {
      "settle(int16[])": {
        "details": "This function settles the market by synchronizing the oracle version      and calling the settle function of the liquidity pool.",
        "params": {
          "feeRates": "The feeRate list of liquidity bin to settle."
        }
      },
      "settleAll()": {
        "details": "This function settles the market by synchronizing the oracle version      and calling the settle function of the liquidity pool."
      }
    },
    "title": "MarketSettleFacet",
    "version": 1
  },
  "userdoc": {
    "kind": "user",
    "methods": {
      "settle(int16[])": {
        "notice": "Executes the settlement process for the Chromatic market."
      },
      "settleAll()": {
        "notice": "Executes the settlement process for the Chromatic market."
      }
    },
    "version": 1
  },
  "storageLayout": {
    "storage": [],
    "types": null
  }
}