{
  "address": "0x5F7bAf665ca141a157a6670AF3285f326C6941C2",
  "abi": [
    {
      "inputs": [],
      "name": "AlreadyClosedPosition",
      "type": "error"
    },
    {
      "inputs": [],
      "name": "ClaimPositionCallbackError",
      "type": "error"
    },
    {
      "inputs": [],
      "name": "Empty",
      "type": "error"
    },
    {
      "inputs": [],
      "name": "ExceedMaxAllowableLeverage",
      "type": "error"
    },
    {
      "inputs": [],
      "name": "ExceedMaxAllowableTradingFee",
      "type": "error"
    },
    {
      "inputs": [],
      "name": "NotAllowableMakerMargin",
      "type": "error"
    },
    {
      "inputs": [],
      "name": "NotClaimablePosition",
      "type": "error"
    },
    {
      "inputs": [],
      "name": "NotEnoughMarginTransferred",
      "type": "error"
    },
    {
      "inputs": [],
      "name": "NotExistPosition",
      "type": "error"
    },
    {
      "inputs": [],
      "name": "NotPermitted",
      "type": "error"
    },
    {
      "inputs": [],
      "name": "OnlyAccessableByDao",
      "type": "error"
    },
    {
      "inputs": [],
      "name": "OnlyAccessableByLiquidator",
      "type": "error"
    },
    {
      "inputs": [],
      "name": "OnlyAccessableByVault",
      "type": "error"
    },
    {
      "inputs": [],
      "name": "OutOfBounds",
      "type": "error"
    },
    {
      "inputs": [],
      "name": "TooSmallTakerMargin",
      "type": "error"
    },
    {
      "anonymous": false,
      "inputs": [
        {
          "indexed": true,
          "internalType": "address",
          "name": "account",
          "type": "address"
        },
        {
          "indexed": true,
          "internalType": "int256",
          "name": "pnl",
          "type": "int256"
        },
        {
          "indexed": true,
          "internalType": "uint256",
          "name": "interest",
          "type": "uint256"
        },
        {
          "components": [
            {
              "internalType": "uint256",
              "name": "id",
              "type": "uint256"
            },
            {
              "internalType": "uint256",
              "name": "openVersion",
              "type": "uint256"
            },
            {
              "internalType": "uint256",
              "name": "closeVersion",
              "type": "uint256"
            },
            {
              "internalType": "int256",
              "name": "qty",
              "type": "int256"
            },
            {
              "internalType": "uint256",
              "name": "openTimestamp",
              "type": "uint256"
            },
            {
              "internalType": "uint256",
              "name": "closeTimestamp",
              "type": "uint256"
            },
            {
              "internalType": "uint256",
              "name": "takerMargin",
              "type": "uint256"
            },
            {
              "internalType": "address",
              "name": "owner",
              "type": "address"
            },
            {
              "components": [
                {
                  "internalType": "uint16",
                  "name": "tradingFeeRate",
                  "type": "uint16"
                },
                {
                  "internalType": "uint256",
                  "name": "amount",
                  "type": "uint256"
                }
              ],
              "internalType": "struct BinMargin[]",
              "name": "_binMargins",
              "type": "tuple[]"
            },
            {
              "internalType": "uint8",
              "name": "_feeProtocol",
              "type": "uint8"
            }
          ],
          "indexed": false,
          "internalType": "struct Position",
          "name": "position",
          "type": "tuple"
        }
      ],
      "name": "ClaimPosition",
      "type": "event"
    },
    {
      "anonymous": false,
      "inputs": [
        {
          "indexed": true,
          "internalType": "address",
          "name": "account",
          "type": "address"
        },
        {
          "components": [
            {
              "internalType": "uint256",
              "name": "id",
              "type": "uint256"
            },
            {
              "internalType": "uint256",
              "name": "openVersion",
              "type": "uint256"
            },
            {
              "internalType": "uint256",
              "name": "closeVersion",
              "type": "uint256"
            },
            {
              "internalType": "int256",
              "name": "qty",
              "type": "int256"
            },
            {
              "internalType": "uint256",
              "name": "openTimestamp",
              "type": "uint256"
            },
            {
              "internalType": "uint256",
              "name": "closeTimestamp",
              "type": "uint256"
            },
            {
              "internalType": "uint256",
              "name": "takerMargin",
              "type": "uint256"
            },
            {
              "internalType": "address",
              "name": "owner",
              "type": "address"
            },
            {
              "components": [
                {
                  "internalType": "uint16",
                  "name": "tradingFeeRate",
                  "type": "uint16"
                },
                {
                  "internalType": "uint256",
                  "name": "amount",
                  "type": "uint256"
                }
              ],
              "internalType": "struct BinMargin[]",
              "name": "_binMargins",
              "type": "tuple[]"
            },
            {
              "internalType": "uint8",
              "name": "_feeProtocol",
              "type": "uint8"
            }
          ],
          "indexed": false,
          "internalType": "struct Position",
          "name": "position",
          "type": "tuple"
        }
      ],
      "name": "ClosePosition",
      "type": "event"
    },
    {
      "anonymous": false,
      "inputs": [
        {
          "indexed": true,
          "internalType": "address",
          "name": "account",
          "type": "address"
        },
        {
          "components": [
            {
              "internalType": "uint256",
              "name": "id",
              "type": "uint256"
            },
            {
              "internalType": "uint256",
              "name": "openVersion",
              "type": "uint256"
            },
            {
              "internalType": "uint256",
              "name": "closeVersion",
              "type": "uint256"
            },
            {
              "internalType": "int256",
              "name": "qty",
              "type": "int256"
            },
            {
              "internalType": "uint256",
              "name": "openTimestamp",
              "type": "uint256"
            },
            {
              "internalType": "uint256",
              "name": "closeTimestamp",
              "type": "uint256"
            },
            {
              "internalType": "uint256",
              "name": "takerMargin",
              "type": "uint256"
            },
            {
              "internalType": "address",
              "name": "owner",
              "type": "address"
            },
            {
              "components": [
                {
                  "internalType": "uint16",
                  "name": "tradingFeeRate",
                  "type": "uint16"
                },
                {
                  "internalType": "uint256",
                  "name": "amount",
                  "type": "uint256"
                }
              ],
              "internalType": "struct BinMargin[]",
              "name": "_binMargins",
              "type": "tuple[]"
            },
            {
              "internalType": "uint8",
              "name": "_feeProtocol",
              "type": "uint8"
            }
          ],
          "indexed": false,
          "internalType": "struct Position",
          "name": "position",
          "type": "tuple"
        }
      ],
      "name": "OpenPosition",
      "type": "event"
    },
    {
      "anonymous": false,
      "inputs": [
        {
          "indexed": true,
          "internalType": "uint256",
          "name": "positionId",
          "type": "uint256"
        },
        {
          "indexed": true,
          "internalType": "uint256",
          "name": "amount",
          "type": "uint256"
        }
      ],
      "name": "TransferProtocolFee",
      "type": "event"
    },
    {
      "inputs": [
        {
          "internalType": "uint256",
          "name": "positionId",
          "type": "uint256"
        },
        {
          "internalType": "address",
          "name": "recipient",
          "type": "address"
        },
        {
          "internalType": "bytes",
          "name": "data",
          "type": "bytes"
        }
      ],
      "name": "claimPosition",
      "outputs": [],
      "stateMutability": "nonpayable",
      "type": "function"
    },
    {
      "inputs": [
        {
          "internalType": "uint256",
          "name": "positionId",
          "type": "uint256"
        }
      ],
      "name": "closePosition",
      "outputs": [],
      "stateMutability": "nonpayable",
      "type": "function"
    },
    {
      "inputs": [
        {
          "internalType": "uint256[]",
          "name": "positionIds",
          "type": "uint256[]"
        }
      ],
      "name": "getPositions",
      "outputs": [
        {
          "components": [
            {
              "internalType": "uint256",
              "name": "id",
              "type": "uint256"
            },
            {
              "internalType": "uint256",
              "name": "openVersion",
              "type": "uint256"
            },
            {
              "internalType": "uint256",
              "name": "closeVersion",
              "type": "uint256"
            },
            {
              "internalType": "int256",
              "name": "qty",
              "type": "int256"
            },
            {
              "internalType": "uint256",
              "name": "openTimestamp",
              "type": "uint256"
            },
            {
              "internalType": "uint256",
              "name": "closeTimestamp",
              "type": "uint256"
            },
            {
              "internalType": "uint256",
              "name": "takerMargin",
              "type": "uint256"
            },
            {
              "internalType": "address",
              "name": "owner",
              "type": "address"
            },
            {
              "components": [
                {
                  "internalType": "uint16",
                  "name": "tradingFeeRate",
                  "type": "uint16"
                },
                {
                  "internalType": "uint256",
                  "name": "amount",
                  "type": "uint256"
                }
              ],
              "internalType": "struct BinMargin[]",
              "name": "_binMargins",
              "type": "tuple[]"
            },
            {
              "internalType": "uint8",
              "name": "_feeProtocol",
              "type": "uint8"
            }
          ],
          "internalType": "struct Position[]",
          "name": "_positions",
          "type": "tuple[]"
        }
      ],
      "stateMutability": "view",
      "type": "function"
    },
    {
      "inputs": [
        {
          "internalType": "int256",
          "name": "qty",
          "type": "int256"
        },
        {
          "internalType": "uint256",
          "name": "takerMargin",
          "type": "uint256"
        },
        {
          "internalType": "uint256",
          "name": "makerMargin",
          "type": "uint256"
        },
        {
          "internalType": "uint256",
          "name": "maxAllowableTradingFee",
          "type": "uint256"
        },
        {
          "internalType": "bytes",
          "name": "data",
          "type": "bytes"
        }
      ],
      "name": "openPosition",
      "outputs": [
        {
          "components": [
            {
              "internalType": "uint256",
              "name": "id",
              "type": "uint256"
            },
            {
              "internalType": "uint256",
              "name": "openVersion",
              "type": "uint256"
            },
            {
              "internalType": "uint256",
              "name": "closeVersion",
              "type": "uint256"
            },
            {
              "internalType": "int256",
              "name": "qty",
              "type": "int256"
            },
            {
              "internalType": "uint256",
              "name": "openTimestamp",
              "type": "uint256"
            },
            {
              "internalType": "uint256",
              "name": "closeTimestamp",
              "type": "uint256"
            },
            {
              "internalType": "uint256",
              "name": "takerMargin",
              "type": "uint256"
            },
            {
              "internalType": "address",
              "name": "owner",
              "type": "address"
            },
            {
              "components": [
                {
                  "internalType": "uint16",
                  "name": "tradingFeeRate",
                  "type": "uint16"
                },
                {
                  "internalType": "uint256",
                  "name": "amount",
                  "type": "uint256"
                }
              ],
              "internalType": "struct BinMargin[]",
              "name": "_binMargins",
              "type": "tuple[]"
            },
            {
              "internalType": "uint8",
              "name": "_feeProtocol",
              "type": "uint8"
            }
          ],
          "internalType": "struct Position",
          "name": "position",
          "type": "tuple"
        }
      ],
      "stateMutability": "nonpayable",
      "type": "function"
    }
  ],
  "transactionHash": "0x3a5e3014ebd50f0852a8746d4b58e5a6d6baaf64a4f583b8dfa587034d55d4ae",
  "args": [],
  "numDeployments": 6,
  "solcInputHash": "1229f2425d475ebe3af7d86799556fb3",
  "bytecode": "0x608060405234801561001057600080fd5b506001600055615c7980620000266000396000f3fe608060405234801561001057600080fd5b506004361061004c5760003560e01c806340a29407146100515780634c723c281461007a578063a126d6011461009a578063d22c7a45146100af575b600080fd5b61006461005f36600461520a565b6100c2565b6040516100719190615366565b60405180910390f35b61008d610088366004615379565b610480565b60405161007191906153ee565b6100ad6100a836600461546e565b6105c2565b005b6100ad6100bd366004615487565b610b70565b61013160405180610140016040528060008152602001600081526020016000815260200160008152602001600081526020016000815260200160008152602001600073ffffffffffffffffffffffffffffffffffffffff16815260200160608152602001600060ff1681525090565b610139610dbb565b7f492a974aed1be5cd7fa4ce3b0cfab809a1de17af5ade68dd0729b36f2ed09793805473ffffffffffffffffffffffffffffffffffffffff167f492a974aed1be5cd7fa4ce3b0cfab809a1de17af5ade68dd0729b36f2ed0979a600061019e84610e33565b90506101a981610fa8565b60a08101516040517f27633b5b00000000000000000000000000000000000000000000000000000000815273ffffffffffffffffffffffffffffffffffffffff91821660048201526000918516906327633b5b90602401602060405180830381865afa15801561021d573d6000803e3d6000fd5b505050506040513d601f19601f8201168201806040525081019061024191906154fc565b9050808b101561027d576040517fc9b0568900000000000000000000000000000000000000000000000000000000815260040160405180910390fd5b81516040517f861bef2100000000000000000000000000000000000000000000000000000000815273ffffffffffffffffffffffffffffffffffffffff918216600482015261031f918e918e918e919089169063861bef2190602401606060405180830381865afa1580156102f6573d6000803e3d6000fd5b505050506040513d601f19601f8201168201806040525081019061031a91906155b9565b611025565b60098501546103369083908e908e9060ff16611146565b60608101519096506103599061035190859085908e86611282565b610100880152565b6103678284888c8c8c611509565b6103917f66c47ce73e4b2a78c995f8a8d4e09a542aa61e466eee7c90184ff0142250473e8761182e565b60048581015487516040517f8e2cdf680000000000000000000000000000000000000000000000000000000081529283015273ffffffffffffffffffffffffffffffffffffffff1690638e2cdf6890602401600060405180830381600087803b1580156103fd57600080fd5b505af1158015610411573d6000803e3d6000fd5b505050508560e0015173ffffffffffffffffffffffffffffffffffffffff167f443158b348382306bdcc6fba24fa2cad54ee43a16249536032ab70cc8d3410ec8760405161045f9190615366565b60405180910390a250505050506104766001600055565b9695505050505050565b60607f66c47ce73e4b2a78c995f8a8d4e09a542aa61e466eee7c90184ff0142250473e8267ffffffffffffffff8111156104bc576104bc615515565b60405190808252806020026020018201604052801561055c57816020015b61054960405180610140016040528060008152602001600081526020016000815260200160008152602001600081526020016000815260200160008152602001600073ffffffffffffffffffffffffffffffffffffffff16815260200160608152602001600060ff1681525090565b8152602001906001900390816104da5790505b50915060005b838110156105ba5761059585858381811061057f5761057f615607565b90506020020135836119d890919063ffffffff16565b8382815181106105a7576105a7615607565b6020908102919091010152600101610562565b505092915050565b6105ca610dbb565b60008181527f66c47ce73e4b2a78c995f8a8d4e09a542aa61e466eee7c90184ff0142250473f602052604081208054909103610632576040517f5690b01600000000000000000000000000000000000000000000000000000000815260040160405180910390fd5b600781015473ffffffffffffffffffffffffffffffffffffffff163314610685576040517f39218f3b00000000000000000000000000000000000000000000000000000000815260040160405180910390fd5b6002810154156106c1576040517f33fceb3200000000000000000000000000000000000000000000000000000000815260040160405180910390fd5b7f492a974aed1be5cd7fa4ce3b0cfab809a1de17af5ade68dd0729b36f2ed09797547f492a974aed1be5cd7fa4ce3b0cfab809a1de17af5ade68dd0729b36f2ed09793907f492a974aed1be5cd7fa4ce3b0cfab809a1de17af5ade68dd0729b36f2ed0979a9073ffffffffffffffffffffffffffffffffffffffff16600061074884610e33565b905061075381610fa8565b61075c81611b48565b51600286018190554260058701819055604080516101408101825288548152600189015460208083019190915281830194909452600389015460608201526004890154608082015260a0810192909252600688015460c0830152600788015473ffffffffffffffffffffffffffffffffffffffff1660e0830152600888018054825181860281018601909352808352610867948694938b93610100860193919290919060009084015b828210156108485760008481526020908190206040805180820190915260028502909101805461ffff168252600190810154828401529083529092019101610805565b505050908252506009919091015460ff16602090910152859190611bfa565b84546040517f96f823b4000000000000000000000000000000000000000000000000000000008152600481019190915273ffffffffffffffffffffffffffffffffffffffff8316906396f823b490602401600060405180830381600087803b1580156108d257600080fd5b505af11580156108e6573d6000803e3d6000fd5b505050600786015460405173ffffffffffffffffffffffffffffffffffffffff90911691507f833df99ede38c05308cfede767c670964f2164b0cda18bdd0e3635361b2e021e9061093890889061567b565b60405180910390a28460010154856002015411156109d85784546040517f373fa760000000000000000000000000000000000000000000000000000000008152600481019190915273ffffffffffffffffffffffffffffffffffffffff83169063373fa76090602401600060405180830381600087803b1580156109bb57600080fd5b505af11580156109cf573d6000803e3d6000fd5b50505050610b5e565b60408051610140810182528654815260018701546020808301919091526002880154828401526003880154606083015260048801546080830152600588015460a0830152600688015460c0830152600788015473ffffffffffffffffffffffffffffffffffffffff1660e0830152600888018054845181840281018401909552808552600094610b0094879490938c9361010086019392899084015b82821015610ab75760008481526020908190206040805180820190915260028502909101805461ffff168252600190810154828401529083529092019101610a74565b505050908252506009919091015460ff1660209182015260078a0154604080519283019052600080835291829173ffffffffffffffffffffffffffffffffffffffff1690611d60565b6007870154604051919250829160009173ffffffffffffffffffffffffffffffffffffffff16907ff25ee55783d40b00210052e908352f4e326436aacb857052f96de6e58c88b0c690610b54908b9061567b565b60405180910390a4505b5050505050610b6d6001600055565b50565b610b78610dbb565b6000610ba47f66c47ce73e4b2a78c995f8a8d4e09a542aa61e466eee7c90184ff0142250473e86612069565b60e081015190915073ffffffffffffffffffffffffffffffffffffffff163314610bfa576040517f39218f3b00000000000000000000000000000000000000000000000000000000815260040160405180910390fd5b7f492a974aed1be5cd7fa4ce3b0cfab809a1de17af5ade68dd0729b36f2ed097936000610c2682610e33565b9050610c3181610fa8565b6040830151610c41908290612126565b610c77576040517f22b7621700000000000000000000000000000000000000000000000000000000815260040160405180910390fd5b6000610c838483612146565b90506000610ccc83868460008c8c8c8080601f016020809104026020016040519081016040528093929190818152602001838380828437600092019190915250611d6092505050565b905080828660e0015173ffffffffffffffffffffffffffffffffffffffff167ff25ee55783d40b00210052e908352f4e326436aacb857052f96de6e58c88b0c688604051610d1a9190615366565b60405180910390a460048481015486516040517f139f34cf0000000000000000000000000000000000000000000000000000000081529283015273ffffffffffffffffffffffffffffffffffffffff169063139f34cf90602401600060405180830381600087803b158015610d8e57600080fd5b505af1158015610da2573d6000803e3d6000fd5b505050505050505050610db56001600055565b50505050565b600260005403610e2c576040517f08c379a000000000000000000000000000000000000000000000000000000000815260206004820152601f60248201527f5265656e7472616e637947756172643a207265656e7472616e742063616c6c0060448201526064015b60405180910390fd5b6002600055565b610e8e60408051610100810182526000808252602080830182905282840182905260608084018390526080840183905260a0840183905260c0840183905284519081018552828152908101829052928301529060e082015290565b610eb260405180606001604052806000815260200160008152602001600081525090565b6040805161010081018252600185015473ffffffffffffffffffffffffffffffffffffffff9081168252855481166020808401919091526005870154821683850152600387015482166060840152306080840152600287015490911660a0830181905283517f313ce5670000000000000000000000000000000000000000000000000000000081529351929360c0850193919263313ce567926004808401938290030181865afa158015610f6a573d6000803e3d6000fd5b505050506040513d601f19601f82011682018060405250810190610f8e9190615731565b610f9990600a61589b565b81526020019190915292915050565b806000015173ffffffffffffffffffffffffffffffffffffffff1663fff6cae96040518163ffffffff1660e01b81526004016060604051808303816000875af1158015610ff9573d6000803e3d6000fd5b505050506040513d601f19601f8201168201806040525081019061101d91906158aa565b60e090910152565b600061103085612180565b9050600061104b6110436002600a6158e6565b839087612197565b905060008360400151600161106091906158f2565b61106b90600a61590b565b60ff16905061107c6002600a6158e6565b6110869082615927565b8211156110bf576040517fa4c6cd8a00000000000000000000000000000000000000000000000000000000815260040160405180910390fd5b83516110da90849063ffffffff908116906127109061219716565b8510806111065750611103846020015163ffffffff16612710856121979092919063ffffffff16565b85115b1561113d576040517fd6b3c14c00000000000000000000000000000000000000000000000000000000815260040160405180910390fd5b50505050505050565b6111b560405180610140016040528060008152602001600081526020016000815260200160008152602001600081526020016000815260200160008152602001600073ffffffffffffffffffffffffffffffffffffffff16815260200160608152602001600060ff1681525090565b60007f66c47ce73e4b2a78c995f8a8d4e09a542aa61e466eee7c90184ff0142250473e90506040518061014001604052806111ef836122c0565b81526020016111fd88611b48565b5181526000602080830182905260408084018a90524260608501526080840183905260a084018990523360c08501528051838152918201905260e09092019190611269565b60408051808201909152600080825260208201528152602001906001900390816112425790505b5081526020018460ff168152509150505b949350505050565b6060600061129087866122de565b9050600061129c6122f5565b90506112a66150b9565b600080875b60248310156113855780156113855760008660008786602481106112d1576112d1615607565b602002015161ffff1661ffff16815260200190815260200160002090506113018c8261243190919063ffffffff16565b600061130c82612475565b90508981106113705780831161133d578286866024811061132f5761132f615607565b602002015260009250611362565b8086866024811061135057611350615607565b602002015261135f818461593e565b92505b8361136c81615951565b9450505b5050828061137d90615951565b9350506112ab565b60408051808201909152600481527f4e45464c00000000000000000000000000000000000000000000000000000000602082015281156113f2576040517f08c379a0000000000000000000000000000000000000000000000000000000008152600401610e2391906159ed565b5060008267ffffffffffffffff81111561140e5761140e615515565b60405190808252806020026020018201604052801561145357816020015b604080518082019091526000808252602082015281526020019060019003908161142c5790505b5090506000805b858210156114f65786826024811061147457611474615607565b6020020151156114e457604051806040016040528089846024811061149b5761149b615607565b602002015161ffff1681526020018884602481106114bb576114bb615607565b60200201518152508382815181106114d5576114d5615607565b60209081029190910101526001015b816114ee81615951565b92505061145a565b50909d9c50505050505050505050505050565b6000611514856124a8565b905060006115218661250a565b90508461152e8284615a00565b1115611566576040517f444f42ff00000000000000000000000000000000000000000000000000000000815260040160405180910390fd5b60a08801516040808a015190517f70a0823100000000000000000000000000000000000000000000000000000000815273ffffffffffffffffffffffffffffffffffffffff8083166004830152600091908416906370a0823190602401602060405180830381865afa1580156115e0573d6000803e3d6000fd5b505050506040513d601f19601f8201168201806040525081019061160491906154fc565b9050600085858b60c001516116199190615a00565b6116239190615a00565b6040517fe19e6332000000000000000000000000000000000000000000000000000000008152909150339063e19e63329061166a908790879086908e908e90600401615a13565b600060405180830381600087803b15801561168457600080fd5b505af1158015611698573d6000803e3d6000fd5b50506040517f70a0823100000000000000000000000000000000000000000000000000000000815273ffffffffffffffffffffffffffffffffffffffff8681166004830152871692506370a082319150602401602060405180830381865afa158015611708573d6000803e3d6000fd5b505050506040513d601f19601f8201168201806040525081019061172c91906154fc565b6117368284615a00565b101561176e576040517f65f1072500000000000000000000000000000000000000000000000000000000815260040160405180910390fd5b6117798b8d8c612566565b895160c08b01516040517f10235ad900000000000000000000000000000000000000000000000000000000815273ffffffffffffffffffffffffffffffffffffffff8781166004830152602482019390935260448101919091526064810188905260848101879052908416906310235ad99060a401600060405180830381600087803b15801561180857600080fd5b505af115801561181c573d6000803e3d6000fd5b50505050505050505050505050505050565b80516000908152600183810160209081526040808420855181559185015192820192909255908301516002820155606083015160038201556080830151600482015560a0830151600582015560c0830151600682015560e08301516007820180547fffffffffffffffffffffffff00000000000000000000000000000000000000001673ffffffffffffffffffffffffffffffffffffffff9092169190911790556101208301516009820180547fffffffffffffffffffffffffffffffffffffffffffffffffffffffffffffff001660ff909216919091179055906119179060088301906150d8565b60005b82610100015151811015610db5576000836101000151828151811061194157611941615607565b6020026020010151905080602001516000146119cf5782600801846101000151838151811061197257611972615607565b602090810291909101810151825460018082018555600094855293839020825160029092020180547fffffffffffffffffffffffffffffffffffffffffffffffffffffffffffff00001661ffff9092169190911781559101519101555b5060010161191a565b611a4760405180610140016040528060008152602001600081526020016000815260200160008152602001600081526020016000815260200160008152602001600073ffffffffffffffffffffffffffffffffffffffff16815260200160608152602001600060ff1681525090565b60008281526001808501602090815260408084208151610140810183528154815293810154848401526002810154848301526003810154606085015260048101546080850152600581015460a0850152600681015460c0850152600781015473ffffffffffffffffffffffffffffffffffffffff1660e0850152600881018054835181860281018601909452808452949591946101008701949192909184015b82821015611b2a5760008481526020908190206040805180820190915260028502909101805461ffff168252600190810154828401529083529092019101611ae7565b505050908252506009919091015460ff166020909101529392505050565b611b6c60405180606001604052806000815260200160008152602001600081525090565b60e082015151600003611bf257816000015173ffffffffffffffffffffffffffffffffffffffff16639d888e866040518163ffffffff1660e01b8152600401606060405180830381865afa158015611bc8573d6000803e3d6000fd5b505050506040513d601f19601f82011682018060405250810190611bec91906158aa565b60e08301525b5060e0015190565b6000611c0a8483606001516122de565b90506000611c17836126b7565b90506000611c2784610100015190565b90506000611c3f8560600151848760c0015185612701565b90506000611c5f8660200151876040015188608001518960a001516128ea565b905060005b8351811015611d5557838181518110611c7f57611c7f615607565b602002602001015160200151600014611d4d576000866000868481518110611ca957611ca9615607565b60200260200101516000015161ffff1661ffff1681526020019081526020016000209050838281518110611cdf57611cdf615607565b602002602001015160000151836040018181525050838281518110611d0657611d06615607565b602002602001015160200151836060018181525050848281518110611d2d57611d2d615607565b60209081029190910181015101516080840152611d4b818a8561290a565b505b600101611c64565b505050505050505050565b600080611d6c876126b7565b90506000858860c00151611d80919061593e565b60808901519091508190611d98908b90859042612946565b93506000611da585612a19565b611daf908a615a92565b90506000611dbc82612180565b90506000821315611df55784811115611deb57611dd885612a19565b9150611de48584615a00565b9250611e27565b611de48184615a00565b83811115611e1a57611e0684612a19565b611e0f90615ab2565b915060009250611e27565b611e24818461593e565b92505b7f492a974aed1be5cd7fa4ce3b0cfab809a1de17af5ade68dd0729b36f2ed09793611e747f492a974aed1be5cd7fa4ce3b0cfab809a1de17af5ade68dd0729b36f2ed0979a8e8e86612acb565b60408d81015160a08f01518e5192517f67130c8c00000000000000000000000000000000000000000000000000000000815273ffffffffffffffffffffffffffffffffffffffff918216600482015260248101939093528b81166044840152606483018890526084830187905216906367130c8c9060a401600060405180830381600087803b158015611f0657600080fd5b505af1158015611f1a573d6000803e3d6000fd5b5050505060e08c01518c516040517f3eabb14300000000000000000000000000000000000000000000000000000000815273ffffffffffffffffffffffffffffffffffffffff90921691633eabb14391611f78918c90600401615aea565b600060405180830381600087803b158015611f9257600080fd5b505af1925050508015611fa3575060015b61202c573d808015611fd1576040519150601f19603f3d011682016040523d82523d6000602084013e611fd6565b606091505b50600482015473ffffffffffffffffffffffffffffffffffffffff16331461202a576040517f7a5f85be00000000000000000000000000000000000000000000000000000000815260040160405180910390fd5b505b8b51612059907f66c47ce73e4b2a78c995f8a8d4e09a542aa61e466eee7c90184ff0142250473e90613001565b5050505050509695505050505050565b6120d860405180610140016040528060008152602001600081526020016000815260200160008152602001600081526020016000815260200160008152602001600073ffffffffffffffffffffffffffffffffffffffff16815260200160608152602001600060ff1681525090565b6120e283836119d8565b8051909150600003612120576040517f5690b01600000000000000000000000000000000000000000000000000000000815260040160405180910390fd5b92915050565b6000811580159061213f575061213b83611b48565b5182105b9392505050565b6000826020015183604001511161215e57600061213f565b606083015161213f9061217185856130a4565b61217b86866130b8565b6130cc565b6000808212156121935781600003612120565b5090565b600080807fffffffffffffffffffffffffffffffffffffffffffffffffffffffffffffffff858709858702925082811083820303915050806000036121ef578382816121e5576121e5615b03565b049250505061213f565b808411612258576040517f08c379a000000000000000000000000000000000000000000000000000000000815260206004820152601560248201527f4d6174683a206d756c446976206f766572666c6f7700000000000000000000006044820152606401610e23565b600084868809600260036001881981018916988990049182028318808302840302808302840302808302840302808302840302808302840302918202909203026000889003889004909101858311909403939093029303949094049190911702949350505050565b600081600001600081546122d390615951565b918290555092915050565b60008082126122ed578261213f565b505060010190565b6122fd6150b9565b50604080516104808101825260018152600260208201526003918101919091526004606082015260056080820152600660a0820152600760c0820152600860e08201526009610100820152600a6101208201526014610140820152601e610160820152602861018082015260326101a0820152603c6101c082015260466101e08201526050610200820152605a610220820152606461024082015260c861026082015261012c6102808201526101906102a08201526101f46102c08201526102586102e08201526102bc610300820152610320808201526103846103408201526103e86103608201526105dc6103808201526107d06103a08201526109c46103c0820152610bb86103e0820152610dac610400820152610fa061042082015261119461044082015261138861046082015290565b61243e6015830182613190565b61244b60098301826132d6565b6124718161245984826133ec565b61246285612475565b8554600187019392919061351b565b5050565b6000612483826015016137fb565b61248f8360090161380e565b600184015461249e919061593e565b612120919061593e565b6000805b82610100015151811015612504576124f083610120015184610100015183815181106124da576124da615607565b602002602001015161382490919063ffffffff16565b6124fa9083615a00565b91506001016124ac565b50919050565b6000805b8261010001515181101561250457612552836101200151846101000151838151811061253c5761253c615607565b602002602001015161385690919063ffffffff16565b61255c9083615a00565b915060010161250e565b60006125768483606001516122de565b90506000612583836126b7565b9050600061259384610100015190565b905060006125ab8560600151848760c0015185612701565b905060006125c18660200151876080015161387a565b905060005b8351811015611d555760008482815181106125e3576125e3615607565b6020026020010151905080602001516000146126ae5783828151811061260b5761260b615607565b60200260200101516000015183604001818152505083828151811061263257612632615607565b602090810291909101810151810151606085015281015160808401526101208801516126ae908a908590612667908590613824565b8a60008a888151811061267c5761267c615607565b60200260200101516000015161ffff1661ffff16815260200190815260200160002061388d909392919063ffffffff16565b506001016125c6565b6000805b826101000151518110156125045782610100015181815181106126e0576126e0615607565b602002602001015160200151826126f79190615a00565b91506001016126bb565b6060600061270e86612180565b905060008490506000845167ffffffffffffffff81111561273157612731615515565b60405190808252806020026020018201604052801561277657816020015b604080518082019091526000808252602082015281526020019060019003908161274f5790505b50905060005b6001865161278a919061593e565b8110156128785760006127c58783815181106127a8576127a8615607565b6020026020010151602001518a876121979092919063ffffffff16565b905060006127fb8884815181106127de576127de615607565b6020026020010151602001518b876121979092919063ffffffff16565b9050604051806040016040528060008d126128275761281984612a19565b61282290615ab2565b612830565b61283084612a19565b81526020018281525084848151811061284b5761284b615607565b6020908102919091010152612860828761593e565b955061286c818661593e565b9450505060010161277c565b50604051806040016040528060008a126128a35761289585612a19565b61289e90615ab2565b6128ac565b6128ac85612a19565b81526020018381525081600187516128c4919061593e565b815181106128d4576128d4615607565b6020908102919091010152979650505050505050565b6128f26150f9565b938452602084019290925260a083015260c082015290565b82826129168282612431565b61292460098601858561393c565b82516020840151111561293f5761293f601586018585613a05565b5050505050565b60008315806129555750818310155b612a0d57602085015160a08601516040517f705b170e00000000000000000000000000000000000000000000000000000000815273ffffffffffffffffffffffffffffffffffffffff918216600482015260248101879052604481018690526064810185905291169063705b170e90608401602060405180830381865afa1580156129e4573d6000803e3d6000fd5b505050506040513d601f19601f82011682018060405250810190612a0891906154fc565b612a10565b60005b95945050505050565b60007f7fffffffffffffffffffffffffffffffffffffffffffffffffffffffffffffff821115612193576040517f08c379a000000000000000000000000000000000000000000000000000000000815260206004820152602860248201527f53616665436173743a2076616c756520646f65736e27742066697420696e206160448201527f6e20696e743235360000000000000000000000000000000000000000000000006064820152608401610e23565b6000612ad682612180565b90506000612ae3846126b7565b9050600083138015612af457508082115b80612b0d5750600083128015612b0d57508360c0015182115b156040518060400160405280600381526020017f494f56000000000000000000000000000000000000000000000000000000000081525090612b7c576040517f08c379a0000000000000000000000000000000000000000000000000000000008152600401610e2391906159ed565b506000612b8d8786606001516122de565b90506000612b9d86610100015190565b90506000612bb58760600151858960c0015185612701565b90506000612bd5886020015189604001518a608001518b60a001516128ea565b905086600003612cdb5760005b8351811015612cd557838181518110612bfd57612bfd615607565b602002602001015160200151600014612ccd576000856000868481518110612c2757612c27615607565b60200260200101516000015161ffff1661ffff1681526020019081526020016000209050838281518110612c5d57612c5d615607565b602002602001015160000151836040018181525050838281518110612c8457612c84615607565b602002602001015160200151836060018181525050848281518110612cab57612cab615607565b60209081029190910181015101516080840152612ccb818c856000613a13565b505b600101612be2565b50612ff5565b600087138015612cea57508486145b15612df55760005b8351811015612cd557838181518110612d0d57612d0d615607565b602002602001015160200151600014612ded576000856000868481518110612d3757612d37615607565b60200260200101516000015161ffff1661ffff1681526020019081526020016000209050838281518110612d6d57612d6d615607565b602002602001015160000151836040018181525050838281518110612d9457612d94615607565b602002602001015160200151836060018181525050848281518110612dbb57612dbb615607565b602002602001015160200151836080018181525050612deb8b84612de28660800151612a19565b84929190613a13565b505b600101612cf2565b848660005b8551811015612f8357858181518110612e1557612e15615607565b602002602001015160200151600014612f7b576000876000888481518110612e3f57612e3f615607565b60200260200101516000015161ffff1661ffff1681526020019081526020016000209050858281518110612e7557612e75615607565b602002602001015160000151856040018181525050858281518110612e9c57612e9c615607565b602002602001015160200151856060018181525050868281518110612ec357612ec3615607565b602090810291909101810151015160808601819052600090612ee790859087612197565b905060008c1215612f0757612f00818760600151613ab6565b9050612f18565b612f15818760800151613ab6565b90505b6000808d12612f2f57612f2a82612a19565b612f41565b612f3882612a19565b612f4190615ab2565b9050612f5a8f888386613a13909392919063ffffffff16565b6080870151612f69908761593e565b9550612f75828661593e565b94505050505b600101612dfa565b5060408051808201909152600381527f494f56000000000000000000000000000000000000000000000000000000000060208201528115612ff1576040517f08c379a0000000000000000000000000000000000000000000000000000000008152600401610e2391906159ed565b5050505b50505050505050505050565b600081815260018084016020526040822082815590810182905560028101829055600381018290556004810182905560058101829055600681018290556007810180547fffffffffffffffffffffffff00000000000000000000000000000000000000001690559061307660088301826150d8565b5060090180547fffffffffffffffffffffffffffffffffffffffffffffffffffffffffffffff001690555050565b600061213f82600001518460200151613acc565b600061213f82600001518460400151613acc565b60008315806130da57508183145b156130e75750600061213f565b6000838311613110576131026130fd848661593e565b612a19565b61310b90615ab2565b61311d565b61311d6130fd858561593e565b90506000851215613155576131527fffffffffffffffffffffffffffffffffffffffffffffffffffffffffffffffff82615b32565b90505b60006131776130fd61316684612180565b876131708a612180565b9190612197565b9050600082126131875780610476565b61047681615ab2565b600282015461319f8282612126565b6131a857505050565b6040805160808101825260038501548152600485015460208201526005850154918101919091526006840154606082015283546131ec90600c860190859042613b47565b80604001518460000160008282546132049190615a00565b90915550506060810151600185018054600090613222908490615a00565b9091555061323590506009850183613b89565b506000828152600b850160209081526040918290208351815590830151600182015590820151600280830191909155606083015160039092019190915561327e90850184613b95565b6008840154600d85018054600090613297908490615a00565b90915550506000600285018190556003850181905560048501819055600585018190556006850181905560078501819055600890940193909355505050565b60048201546132e58282612126565b6132ee57505050565b600283015461330490600a850190849042613b47565b600583015483548190859060009061331d908490615b7e565b909155506133399050816133346004870186613bab565b613bbf565b84600101600082825461334c9190615a00565b9091555050600684015460028501805460009061336a908490615a00565b90915550506007840154600385018054600090613388908490615a00565b9091555061339b90506004850184613bd7565b6009840154600b850180546000906133b4908490615a00565b909155505060006004850181905560058501819055600685018190556007850181905560088501819055600990940193909355505050565b6000806133fc6009850184613bed565b9050600061340982612180565b90506000613418866001015490565b905060008084126134325761342d8383615a00565b61343c565b61343c838361593e565b604080880151608089015160a08a015192517f4e82c4b700000000000000000000000000000000000000000000000000000000815273ffffffffffffffffffffffffffffffffffffffff91821660048201529281166024840152604483018690529293509190911690634e82c4b790606401602060405180830381865afa1580156134cb573d6000803e3d6000fd5b505050506040513d601f19601f820116820180604052508101906134ef91906154fc565b6134fc6015890188613cc9565b6135069083615a00565b6135109190615a00565b979650505050505050565b60608401516040517fbd85b0390000000000000000000000000000000000000000000000000000000081526004810183905260009073ffffffffffffffffffffffffffffffffffffffff83169063bd85b03990602401602060405180830381865afa15801561358e573d6000803e3d6000fd5b505050506040513d601f19601f820116820180604052508101906135b291906154fc565b90506000806135c389898986613cec565b90925090506000806135e08b6135d9868b615a00565b8b88613e34565b9150915081831115613680578573ffffffffffffffffffffffffffffffffffffffff1663731133e98b6080015189858761361a919061593e565b604051806020016040528060008152506040518563ffffffff1660e01b81526004016136499493929190615b9e565b600060405180830381600087803b15801561366357600080fd5b505af1158015613677573d6000803e3d6000fd5b50505050613742565b81831015613742578573ffffffffffffffffffffffffffffffffffffffff1663f5298aca8b608001518986866136b6919061593e565b6040517fffffffff0000000000000000000000000000000000000000000000000000000060e086901b16815273ffffffffffffffffffffffffffffffffffffffff909316600484015260248301919091526044820152606401600060405180830381600087803b15801561372957600080fd5b505af115801561373d573d6000803e3d6000fd5b505050505b8315158061374f57508015155b156137ee576040808b015160a08c015191517f8b41411700000000000000000000000000000000000000000000000000000000815273ffffffffffffffffffffffffffffffffffffffff92831660048201526024810187905260448101849052911690638b41411790606401600060405180830381600087803b1580156137d557600080fd5b505af11580156137e9573d6000803e3d6000fd5b505050505b5050505050505050505050565b6005810154815460009161212091615a00565b6006810154600282015460009161212091615a00565b8151602083015160009182916138409161ffff16612710612197565b905061384c818461403f565b61127a908261593e565b8151602083015160009161213f916138749161ffff16612710612197565b8361403f565b6138826150f9565b91825260a082015290565b61389684612475565b826080015111156040518060400160405280600481526020017f4e45464c000000000000000000000000000000000000000000000000000000008152509061390b576040517f08c379a0000000000000000000000000000000000000000000000000000000008152600401610e2391906159ed565b5061391a600985018484614060565b808460010160000160008282546139319190615a00565b909155505050505050565b600483015481510361395b5761395660048401838361406e565b505050565b8254604082015161396c8282614162565b600285015461398290600a870190869042613b47565b61398c8183615a92565b85556139988385614206565b8560010160008282546139ab919061593e565b909155505060808301516002860180546000906139c990849061593e565b909155505060608301516003860180546000906139e790849061593e565b9091555061293f90506139fb84864261421c565b600a870190614236565b613956600284018383614262565b8383613a1f8282612431565b8360200151600003613a3e57613a3960098701868661393c565b613a59565b835160208501511115613a5957613a596015870186866143a2565b6000613a6484612180565b90506000841215613a915780876001016000016000828254613a869190615a00565b9091555061113d9050565b80876001016000016000828254613aa8919061593e565b909155505050505050505050565b6000818310613ac5578161213f565b5090919050565b600061213f83838573ffffffffffffffffffffffffffffffffffffffff16639d888e866040518163ffffffff1660e01b8152600401606060405180830381865afa158015613b1e573d6000803e3d6000fd5b505050506040513d601f19601f82011682018060405250810190613b4291906158aa565b61448a565b8354808211613b565750610db5565b8215613b8157613b6884848385612946565b856001016000828254613b7b9190615a00565b90915550505b509092555050565b600061213f83836145b6565b6003820154612471906005840190839042613b47565b8051825460009161213f91613b4285611b48565b600061213f82670de0b6b3a764000061317086612180565b6002820154612471906004840190839042613b47565b600080613bf983611b48565b845490915060008115613c48576000613c29670de0b6b3a7640000613c1d85612180565b60018a01549190612197565b90506000613c3685614605565b9050613c438483836130cc565b925050505b6000613c576130fd888861468a565b613c6460048901886146a3565b613c6e9084615b7e565b613c789190615b7e565b90506000613c8582612180565b905060008212613cb057613ca46130fd82613c9f8b614767565b613ab6565b95505050505050612120565b613cc06130fd82613c9f8b61380e565b613ca490615ab2565b6000613cd8600284018361477d565b613ce28484614796565b61213f9190615a00565b60018401546000908190613d008682612126565b613d11576000809250925050613e2b565b600287015460038801549093508315613d7a57613d2f8487876147ac565b925083886000016000828254613d459190615a00565b90915550506040805180820182528581526020808201868152600086815260048d019092529290209051815590516001909101555b8015613e135760068801805470010000000000000000000000000000000090819004600f0b600081815260078c016020526040902085905582546fffffffffffffffffffffffffffffffff908116600190920116909102179055604080516060810182528281526000602080830182815283850183815287845260058e0190925293909120915182559151600182015590516002909101555b50506000600187018190556002870181905560038701555b94509492505050565b6000805b6006860154600f81810b700100000000000000000000000000000000909204900b1315613ef8576000613e6d876006016147e0565b600081815260058901602090815260409182902082516060810184528154808252600183015493820184905260029092015493810193909352929350909111613eea57613ebc8860060161485a565b508051600003613ee5576000828152600589016020526040812081815560018101829055600201555b613ef1565b5050613ef8565b5050613e38565b6000613f228760060154600f81810b700100000000000000000000000000000000909204900b0390565b905060005b8181108015613f3557508615155b15614019576000613f4960068a0183614917565b600081815260058b0160205260408120600181015481549394509092613f6f919061593e565b9050801561400e57600080613f85838c8c6149ae565b9050808c10613f9657829150613fb2565b613fa18c8c8c6147ac565b9150828210613faf57600080fd5b508a5b81846001016000828254613fc69190615a00565b9250508190555080846002016000828254613fe19190615a00565b90915550613ff19050828a615a00565b9850613ffd8189615a00565b9750614009818d61593e565b9b5050505b505050600101613f27565b508187600001600082825461402e919061593e565b925050819055505094509492505050565b60008160ff1660000361405357600061213f565b61213f60ff831684615bd9565b6139566004840183836149cb565b8051835460408051808201909152600381527f494f560000000000000000000000000000000000000000000000000000000000602082015291146140df576040517f08c379a0000000000000000000000000000000000000000000000000000000008152600401610e2391906159ed565b50600183015460408201516140f48282614162565b6140fe8585613bd7565b6141088183615a92565b6001860155608083015160028601805460009061412690849061593e565b9091555050606083015160038601805460009061414490849061593e565b9091555061293f905061415884864261421c565b6004870190614236565b81158061416d575080155b80614182575060008213801561418257508181135b80614197575060008212801561419757508181125b156040518060400160405280600381526020017f495051000000000000000000000000000000000000000000000000000000000081525090613956576040517f08c379a0000000000000000000000000000000000000000000000000000000008152600401610e2391906159ed565b604082015160009061213f906133348585614ab1565b608083015160a084015160009161127a9185919085612946565b600182015480821061424e5760006001840155505050565b614258828261593e565b6001840155505050565b82548015806142745750816020015181145b6040518060400160405280600381526020017f494f560000000000000000000000000000000000000000000000000000000000815250906142e2576040517f08c379a0000000000000000000000000000000000000000000000000000000008152600401610e2391906159ed565b50600184015460408301516142f78282614ac6565b6143018686613b95565b602084015186556143128183615b7e565b60018701556143218486614206565b8660020160008282546143349190615a00565b90915550506080840151600387018054600090614352908490615a00565b90915550506060840151600487018054600090614370908490615a00565b90915550614381905084864261421c565b600687018054600090614395908490615a00565b9091555050505050505050565b6020810151600284015481036143c5576143c0600285018484614b57565b610db5565b6000818152600b8501602052604081206143e0908585614c75565b85549091506143f690600c870190869042613b47565b826080015185600001600082825461440e919061593e565b9091555050606083015160018601805460009061442c90849061593e565b9091555061444a905061444084864261421c565b600c870190614236565b801561293f5761445d6009860183614d12565b506000828152600b8601602052604081208181556001810182905560028101829055600301555050505050565b60008061449684614d1e565b835160408051808201909152600381527f55535000000000000000000000000000000000000000000000000000000000006020820152919250821115614509576040517f08c379a0000000000000000000000000000000000000000000000000000000008152600401610e2391906159ed565b50825160009082146145a9576040517f7ece075d0000000000000000000000000000000000000000000000000000000081526004810183905273ffffffffffffffffffffffffffffffffffffffff871690637ece075d90602401606060405180830381865afa158015614580573d6000803e3d6000fd5b505050506040513d601f19601f820116820180604052508101906145a491906158aa565b6145ab565b835b905061047681614605565b60008181526001830160205260408120546145fd57508154600181810184556000848152602080822090930184905584548482528286019093526040902091909155612120565b506000612120565b6000808260400151136040518060400160405280600381526020017f4e505000000000000000000000000000000000000000000000000000000000008152509061467c576040517f08c379a0000000000000000000000000000000000000000000000000000000008152600401610e2391906159ed565b506121208260400151612180565b600282015460009061213f90600a850190849042614d99565b81546000906146b28382612126565b6146c0576000915050612120565b60006146cb84611b48565b905060006146e1856000015184613b4288611b48565b905060006146ee83614605565b905060006146ff6130fd8989614dd8565b61470e896001015485856130cc565b6147189190615b7e565b9050600061472582612180565b90506000821261474d576147406130fd828b60030154613ab6565b9650505050505050612120565b61475e6130fd828b60020154613ab6565b61474090615ab2565b6007810154600382015460009161212091615a00565b600382015460009061213f906005850190849042614d99565b815460009061213f90600c850190849042614d99565b600081156147d8576147d3826103e885106147c757846147cb565b6103e85b869190612197565b61127a565b509192915050565b60006148088254600f81810b700100000000000000000000000000000000909204900b131590565b1561483f576040517f3db2a12a00000000000000000000000000000000000000000000000000000000815260040160405180910390fd5b508054600f0b60009081526001909101602052604090205490565b60006148828254600f81810b700100000000000000000000000000000000909204900b131590565b156148b9576040517f3db2a12a00000000000000000000000000000000000000000000000000000000815260040160405180910390fd5b508054600f0b6000818152600180840160205260408220805492905583547fffffffffffffffffffffffffffffffff000000000000000000000000000000001692016fffffffffffffffffffffffffffffffff169190911790915590565b60008061493a61492684612a19565b85546149359190600f0b615b7e565b614df1565b84549091507001000000000000000000000000000000009004600f90810b9082900b12614993576040517fb4120f1400000000000000000000000000000000000000000000000000000000815260040160405180910390fd5b600f0b60009081526001939093016020525050604090205490565b600081156149c1576147d3848484612197565b5060009392505050565b82548015806149da5750815181145b6040518060400160405280600381526020017f494f56000000000000000000000000000000000000000000000000000000000081525090614a48576040517f08c379a0000000000000000000000000000000000000000000000000000000008152600401610e2391906159ed565b5060018401546040830151614a5d8282614ac6565b614a678686613bd7565b83518655614a758183615b7e565b60018701556080840151600287018054600090614a93908490615a00565b90915550506060840151600387018054600090614395908490615a00565b8051825160009161213f91613b428686614e8a565b600082138015614ad7575060008113155b806141975750600082128015614197575060408051808201909152600381527f4950510000000000000000000000000000000000000000000000000000000000602082015260008212613956576040517f08c379a0000000000000000000000000000000000000000000000000000000008152600401610e2391906159ed565b80602001518360000154146040518060400160405280600381526020017f494f56000000000000000000000000000000000000000000000000000000000081525090614bd0576040517f08c379a0000000000000000000000000000000000000000000000000000000008152600401610e2391906159ed565b5060018301546040820151614be58282614162565b614bef8585613b95565b614bf98183615a92565b6001860155614c088385614206565b856002016000828254614c1b919061593e565b90915550506080830151600386018054600090614c3990849061593e565b90915550506060830151600486018054600090614c5790849061593e565b9091555061293f9050614c6b84864261421c565b6005870190614236565b8254604082015160009190614c8a8282614162565b808203614c9c5760019250505061213f565b614ca68183615a92565b8655614cb28486614206565b866001016000828254614cc5919061593e565b90915550506080840151600287018054600090614ce390849061593e565b90915550506060840151600387018054600090614d0190849061593e565b909155506000979650505050505050565b600061213f8383614edd565b60408051808201909152600381527f494f560000000000000000000000000000000000000000000000000000000000602082015260009082614d8d576040517f08c379a0000000000000000000000000000000000000000000000000000000008152600401610e2391906159ed565b50612120826001615a00565b600082600003614dab5750600061127a565b84546001860154818411614dc257915061127a9050565b614dce86868487612946565b6135109082615a00565b600282015460009061213f906004850190849042614d99565b80600f81900b8114614e85576040517f08c379a000000000000000000000000000000000000000000000000000000000815260206004820152602760248201527f53616665436173743a2076616c756520646f65736e27742066697420696e203160448201527f32382062697473000000000000000000000000000000000000000000000000006064820152608401610e23565b919050565b614eae60405180606001604052806000815260200160008152602001600081525090565b60e083015151600003614ed457614ece614ec784614fd7565b8390614fe6565b60e08401525b505060e0015190565b60008181526001830160205260408120548015614fc6576000614f0160018361593e565b8554909150600090614f159060019061593e565b9050818114614f7a576000866000018281548110614f3557614f35615607565b9060005260206000200154905080876000018481548110614f5857614f58615607565b6000918252602080832090910192909255918252600188019052604090208390555b8554869080614f8b57614f8b615c14565b600190038181906000526020600020016000905590558560010160008681526020019081526020016000206000905560019350505050612120565b6000915050612120565b5092915050565b60006121208260000151614d1e565b61500a60405180606001604052806000815260200160008152602001600081525090565b60e083015151829003615022575060e0820151612120565b82516040517f7ece075d0000000000000000000000000000000000000000000000000000000081526004810184905273ffffffffffffffffffffffffffffffffffffffff90911690637ece075d90602401606060405180830381865afa158015615090573d6000803e3d6000fd5b505050506040513d601f19601f8201168201806040525081019061213f91906158aa565b905290565b6040518061048001604052806024906020820280368337509192915050565b5080546000825560020290600052602060002090810190610b6d9190615183565b6040518061012001604052806000815260200160008152602001600081526020016000815260200160008152602001600081526020016000815260200161515a60405180606001604052806000815260200160008152602001600081525090565b81526020016150b460405180606001604052806000815260200160008152602001600081525090565b5b808211156121935780547fffffffffffffffffffffffffffffffffffffffffffffffffffffffffffff000016815560006001820155600201615184565b60008083601f8401126151d357600080fd5b50813567ffffffffffffffff8111156151eb57600080fd5b60208301915083602082850101111561520357600080fd5b9250929050565b60008060008060008060a0878903121561522357600080fd5b86359550602087013594506040870135935060608701359250608087013567ffffffffffffffff81111561525657600080fd5b61526289828a016151c1565b979a9699509497509295939492505050565b600081518084526020808501945080840160005b838110156152b3578151805161ffff1688528301518388015260409096019590820190600101615288565b509495945050505050565b6000610140825184526020830151602085015260408301516040850152606083015160608501526080830151608085015260a083015160a085015260c083015160c085015260e083015161532a60e086018273ffffffffffffffffffffffffffffffffffffffff169052565b5061010080840151828287015261534383870182615274565b925050506101208084015161535c8287018260ff169052565b5090949350505050565b60208152600061213f60208301846152be565b6000806020838503121561538c57600080fd5b823567ffffffffffffffff808211156153a457600080fd5b818501915085601f8301126153b857600080fd5b8135818111156153c757600080fd5b8660208260051b85010111156153dc57600080fd5b60209290920196919550909350505050565b6000602080830181845280855180835260408601915060408160051b870101925083870160005b82811015615461577fffffffffffffffffffffffffffffffffffffffffffffffffffffffffffffffc088860301845261544f8583516152be565b94509285019290850190600101615415565b5092979650505050505050565b60006020828403121561548057600080fd5b5035919050565b6000806000806060858703121561549d57600080fd5b84359350602085013573ffffffffffffffffffffffffffffffffffffffff811681146154c857600080fd5b9250604085013567ffffffffffffffff8111156154e457600080fd5b6154f0878288016151c1565b95989497509550505050565b60006020828403121561550e57600080fd5b5051919050565b7f4e487b7100000000000000000000000000000000000000000000000000000000600052604160045260246000fd5b6040516060810167ffffffffffffffff8111828210171561558e577f4e487b7100000000000000000000000000000000000000000000000000000000600052604160045260246000fd5b60405290565b805163ffffffff81168114614e8557600080fd5b805160ff81168114614e8557600080fd5b6000606082840312156155cb57600080fd5b6155d3615544565b6155dc83615594565b81526155ea60208401615594565b60208201526155fb604084016155a8565b60408201529392505050565b7f4e487b7100000000000000000000000000000000000000000000000000000000600052603260045260246000fd5b6000815480845260208085019450836000528060002060005b838110156152b357815461ffff168752600180830154848901526040909701966002909201910161564f565b6020815281546020820152600182015460408201526002820154606082015260038201546080820152600482015460a0820152600582015460c0820152600682015460e082015260006156e5600784015473ffffffffffffffffffffffffffffffffffffffff1690565b73ffffffffffffffffffffffffffffffffffffffff16610100830152610140610120830181905261571d610160840160088601615636565b6009949094015460ff169201919091525090565b60006020828403121561574357600080fd5b61213f826155a8565b7f4e487b7100000000000000000000000000000000000000000000000000000000600052601160045260246000fd5b600181815b808511156157d457817fffffffffffffffffffffffffffffffffffffffffffffffffffffffffffffffff048211156157ba576157ba61574c565b808516156157c757918102915b93841c9390800290615780565b509250929050565b6000826157eb57506001612120565b816157f857506000612120565b816001811461580e576002811461581857615834565b6001915050612120565b60ff8411156158295761582961574c565b50506001821b612120565b5060208310610133831016604e8410600b8410161715615857575081810a612120565b615861838361577b565b807fffffffffffffffffffffffffffffffffffffffffffffffffffffffffffffffff048211156158935761589361574c565b029392505050565b600061213f60ff8416836157dc565b6000606082840312156158bc57600080fd5b6158c4615544565b8251815260208301516020820152604083015160408201528091505092915050565b600061213f83836157dc565b60ff81811683821601908111156121205761212061574c565b60ff8181168382160290811690818114614fd057614fd061574c565b80820281158282048414176121205761212061574c565b818103818111156121205761212061574c565b60007fffffffffffffffffffffffffffffffffffffffffffffffffffffffffffffffff82036159825761598261574c565b5060010190565b6000815180845260005b818110156159af57602081850181015186830182015201615993565b5060006020828601015260207fffffffffffffffffffffffffffffffffffffffffffffffffffffffffffffffe0601f83011685010191505092915050565b60208152600061213f6020830184615989565b808201808211156121205761212061574c565b600073ffffffffffffffffffffffffffffffffffffffff808816835280871660208401525084604083015260806060830152826080830152828460a0840137600060a0848401015260a07fffffffffffffffffffffffffffffffffffffffffffffffffffffffffffffffe0601f85011683010190509695505050505050565b8181036000831280158383131683831282161715614fd057614fd061574c565b60007f80000000000000000000000000000000000000000000000000000000000000008203615ae357615ae361574c565b5060000390565b82815260406020820152600061127a6040830184615989565b7f4e487b7100000000000000000000000000000000000000000000000000000000600052601260045260246000fd5b808202600082127f800000000000000000000000000000000000000000000000000000000000000084141615615b6a57615b6a61574c565b81810583148215176121205761212061574c565b80820182811260008312801582168215821617156105ba576105ba61574c565b73ffffffffffffffffffffffffffffffffffffffff851681528360208201528260408201526080606082015260006104766080830184615989565b600082615c0f577f4e487b7100000000000000000000000000000000000000000000000000000000600052601260045260246000fd5b500490565b7f4e487b7100000000000000000000000000000000000000000000000000000000600052603160045260246000fdfea2646970667358221220ef7570d14e417196dc566ffd8d26b05b75850c89b4599142b736d6c98d8835d864736f6c63430008130033",
  "devdoc": {
    "details": "A contract that manages trading positions.",
    "errors": {
      "AlreadyClosedPosition()": [
        {
          "details": "Throws an error indicating that the position has already been closed and cannot be closed again."
        }
      ],
      "ClaimPositionCallbackError()": [
        {
          "details": "Throws an error indicating that an error occurred during the claim position callback."
        }
      ],
      "Empty()": [
        {
          "details": "An operation (e.g. {front}) couldn't be completed due to the queue being empty."
        }
      ],
      "ExceedMaxAllowableLeverage()": [
        {
          "details": "Throws an error indicating thatwhen the specified leverage exceeds the maximum allowable leverage level set by the Oracle Provider.      Each Oracle Provider has a specific maximum allowable leverage level, which is determined by the DAO.      The default maximum allowable leverage level is 0, which corresponds to a leverage of up to 10x."
        }
      ],
      "ExceedMaxAllowableTradingFee()": [
        {
          "details": "Throws an error indicating that the total trading fee (including protocol fee) exceeds the maximum allowable trading fee."
        }
      ],
      "NotAllowableMakerMargin()": [
        {
          "details": "Throws an error indicating that the maker margin value is not within the allowable range based on the absolute quantity and the specified minimum/maximum take-profit basis points (BPS).      The maker margin must fall within the range calculated based on the absolute quantity of the position and the specified minimum/maximum take-profit basis points (BPS) set by the Oracle Provider.      The default range for the minimum/maximum take-profit basis points is 10% to 1000%."
        }
      ],
      "NotClaimablePosition()": [
        {
          "details": "Throws an error indicating that the position cannot be claimed as it is not eligible for claim in the current oracle version."
        }
      ],
      "NotEnoughMarginTransferred()": [
        {
          "details": "Throws an error indicating that the margin settlement token balance does not increase by the required margin amount after the callback."
        }
      ],
      "NotExistPosition()": [
        {
          "details": "Throws an error indicating that the requested position does not exist."
        }
      ],
      "NotPermitted()": [
        {
          "details": "Throws an error indicating that the caller is not permitted to perform the action as they are not the owner of the position."
        }
      ],
      "OnlyAccessableByDao()": [
        {
          "details": "Throws an error indicating that the caller is not the DAO."
        }
      ],
      "OnlyAccessableByLiquidator()": [
        {
          "details": "Throws an error indicating that the caller is not the chromatic liquidator contract."
        }
      ],
      "OnlyAccessableByVault()": [
        {
          "details": "Throws an error indicating that the caller is not the chromatch vault contract."
        }
      ],
      "OutOfBounds()": [
        {
          "details": "An operation (e.g. {at}) couldn't be completed due to an index being out of bounds."
        }
      ],
      "TooSmallTakerMargin()": [
        {
          "details": "Throws an error indicating that the taker margin provided is smaller than the minimum required margin for the specific settlement token.      The minimum required margin is determined by the DAO and represents the minimum amount required for operations such as liquidation and payment of keeper fees."
        }
      ]
    },
    "events": {
      "ClaimPosition(address,int256,uint256,(uint256,uint256,uint256,int256,uint256,uint256,uint256,address,(uint16,uint256)[],uint8))": {
        "details": "Emitted when a position is claimed.",
        "params": {
          "account": "The address of the account claiming the position.",
          "interest": "The interest paid for the claimed position.",
          "pnl": "The profit or loss of the claimed position.",
          "position": "The claimed position."
        }
      },
      "ClosePosition(address,(uint256,uint256,uint256,int256,uint256,uint256,uint256,address,(uint16,uint256)[],uint8))": {
        "details": "Emitted when a position is closed.",
        "params": {
          "account": "The address of the account closing the position.",
          "position": "The closed position."
        }
      },
      "OpenPosition(address,(uint256,uint256,uint256,int256,uint256,uint256,uint256,address,(uint16,uint256)[],uint8))": {
        "details": "Emitted when a position is opened.",
        "params": {
          "account": "The address of the account opening the position.",
          "position": "The opened position."
        }
      },
      "TransferProtocolFee(uint256,uint256)": {
        "details": "Emitted when protocol fees are transferred.",
        "params": {
          "amount": "The amount of fees transferred.",
          "positionId": "The ID of the position for which the fees are transferred."
        }
      }
    },
    "kind": "dev",
    "methods": {
      "claimPosition(uint256,address,bytes)": {
        "details": "Claims the position by transferring the available funds to the recipient.      The caller must be the owner of the position.      The position must be eligible for claim in the current oracle version.      The claimed amount is determined based on the position's profit and loss (pnl).      Throws a `NotExistPosition` error if the requested position does not exist.      Throws a `NotPermitted` error if the caller is not permitted to perform the action as they are not the owner of the position.      Throws a `NotClaimablePosition` error if the position cannot be claimed as it is not eligible for claim in the current oracle version.      Throws a `ClaimPositionCallbackError` error if an error occurred during the claim position callback.",
        "params": {
          "data": "Additional data for the claim callback.",
          "positionId": "The ID of the position to claim.",
          "recipient": "The address of the recipient of the claimed position."
        }
      },
      "closePosition(uint256)": {
        "details": "This function allows the owner of the position to close it. The position must exist, be owned by the caller,      and not have already been closed. Upon successful closure, the position is settled, and a `ClosePosition` event is emitted.      If the position is closed in a different oracle version than the open version, a claim position task is created by the liquidator.      Otherwise, the position is immediately claimed, and a `ClaimPosition` event is emitted.      Throws a `NotExistPosition` error if the specified position does not exist.      Throws a `NotPermitted` error if the caller is not the owner of the position.      Throws an `AlreadyClosedPosition` error if the position has already been closed.      Throws a `ClaimPositionCallbackError` error if an error occurred during the claim position callback.",
        "params": {
          "positionId": "The ID of the position to close."
        }
      },
      "getPositions(uint256[])": {
        "details": "Retrieves multiple positions by their IDs.",
        "params": {
          "positionIds": "The IDs of the positions to retrieve."
        },
        "returns": {
          "_positions": "An array of retrieved positions."
        }
      },
      "openPosition(int256,uint256,uint256,uint256,bytes)": {
        "details": "Throws a `TooSmallTakerMargin` error if the `takerMargin` is smaller than the minimum required margin for the settlement token.      Throws an `ExceedMaxAllowableLeverage` if the leverage exceeds the maximum allowable leverage.      Throws a `NotAllowableMakerMargin` if the maker margin is not within the allowable range based on the absolute quantity and min/max take-profit basis points (BPS).      Throws an `ExceedMaxAllowableTradingFee` if the total trading fee (including protocol fee) exceeds the maximum allowable trading fee (`maxAllowableTradingFee`).      Throws a `NotEnoughMarginTransferred` if the margin settlement token balance did not increase by the required margin amount after the callback. Requirements:  - The `takerMargin` must be greater than or equal to the minimum required margin for the settlement token.  - The position parameters must pass the validity check, including leverage limits and allowable margin ranges.  - The position is assigned a new ID and stored in the position storage.  - A keeper task for potential liquidation is created by the liquidator.  - An `OpenPosition` event is emitted with the owner's address and the newly opened position details.",
        "params": {
          "data": "Additional data for the position callback.",
          "makerMargin": "The margin amount provided by the maker.",
          "maxAllowableTradingFee": "The maximum allowable trading fee for the position.",
          "qty": "The quantity of the position.",
          "takerMargin": "The margin amount provided by the taker."
        },
        "returns": {
          "position": "The opened position."
        }
      }
    },
    "title": "MarketTradeFacet",
    "version": 1
  },
  "userdoc": {
    "kind": "user",
    "methods": {},
    "version": 1
  },
  "storageLayout": {
    "storage": [
      {
        "astId": 105,
        "contract": "contracts/core/facets/market/MarketTradeFacet.sol:MarketTradeFacet",
        "label": "_status",
        "offset": 0,
        "slot": "0",
        "type": "t_uint256"
      }
    ],
    "types": {
      "t_uint256": {
        "encoding": "inplace",
        "label": "uint256",
        "numberOfBytes": "32"
      }
    }
  }
}