{
  "address": "0x265D566E1856ACFf76dA8c3b7AF03455c91d0503",
  "abi": [
    {
      "inputs": [],
      "name": "Empty",
      "type": "error"
    },
    {
      "inputs": [],
      "name": "InvalidLpReceiptAction",
      "type": "error"
    },
    {
      "inputs": [],
      "name": "InvalidTransferredTokenAmount",
      "type": "error"
    },
    {
      "inputs": [],
      "name": "NotClaimableLpReceipt",
      "type": "error"
    },
    {
      "inputs": [],
      "name": "NotExistLpReceipt",
      "type": "error"
    },
    {
      "inputs": [],
      "name": "NotWithdrawableLpReceipt",
      "type": "error"
    },
    {
      "inputs": [],
      "name": "OnlyAccessableByDao",
      "type": "error"
    },
    {
      "inputs": [],
      "name": "OnlyAccessableByLiquidator",
      "type": "error"
    },
    {
      "inputs": [],
      "name": "OnlyAccessableByVault",
      "type": "error"
    },
    {
      "inputs": [],
      "name": "OutOfBounds",
      "type": "error"
    },
    {
      "inputs": [],
      "name": "TooSmallAmount",
      "type": "error"
    },
    {
      "anonymous": false,
      "inputs": [
        {
          "components": [
            {
              "internalType": "uint256",
              "name": "id",
              "type": "uint256"
            },
            {
              "internalType": "uint256",
              "name": "oracleVersion",
              "type": "uint256"
            },
            {
              "internalType": "uint256",
              "name": "amount",
              "type": "uint256"
            },
            {
              "internalType": "address",
              "name": "recipient",
              "type": "address"
            },
            {
              "internalType": "enum LpAction",
              "name": "action",
              "type": "uint8"
            },
            {
              "internalType": "int16",
              "name": "tradingFeeRate",
              "type": "int16"
            }
          ],
          "indexed": false,
          "internalType": "struct LpReceipt",
          "name": "receipt",
          "type": "tuple"
        }
      ],
      "name": "AddLiquidity",
      "type": "event"
    },
    {
      "anonymous": false,
      "inputs": [
        {
          "components": [
            {
              "internalType": "uint256",
              "name": "id",
              "type": "uint256"
            },
            {
              "internalType": "uint256",
              "name": "oracleVersion",
              "type": "uint256"
            },
            {
              "internalType": "uint256",
              "name": "amount",
              "type": "uint256"
            },
            {
              "internalType": "address",
              "name": "recipient",
              "type": "address"
            },
            {
              "internalType": "enum LpAction",
              "name": "action",
              "type": "uint8"
            },
            {
              "internalType": "int16",
              "name": "tradingFeeRate",
              "type": "int16"
            }
          ],
          "indexed": false,
          "internalType": "struct LpReceipt[]",
          "name": "receipts",
          "type": "tuple[]"
        }
      ],
      "name": "AddLiquidityBatch",
      "type": "event"
    },
    {
      "anonymous": false,
      "inputs": [
        {
          "components": [
            {
              "internalType": "uint256",
              "name": "id",
              "type": "uint256"
            },
            {
              "internalType": "uint256",
              "name": "oracleVersion",
              "type": "uint256"
            },
            {
              "internalType": "uint256",
              "name": "amount",
              "type": "uint256"
            },
            {
              "internalType": "address",
              "name": "recipient",
              "type": "address"
            },
            {
              "internalType": "enum LpAction",
              "name": "action",
              "type": "uint8"
            },
            {
              "internalType": "int16",
              "name": "tradingFeeRate",
              "type": "int16"
            }
          ],
          "indexed": false,
          "internalType": "struct LpReceipt",
          "name": "receipt",
          "type": "tuple"
        },
        {
          "indexed": true,
          "internalType": "uint256",
          "name": "clbTokenAmount",
          "type": "uint256"
        }
      ],
      "name": "ClaimLiquidity",
      "type": "event"
    },
    {
      "anonymous": false,
      "inputs": [
        {
          "components": [
            {
              "internalType": "uint256",
              "name": "id",
              "type": "uint256"
            },
            {
              "internalType": "uint256",
              "name": "oracleVersion",
              "type": "uint256"
            },
            {
              "internalType": "uint256",
              "name": "amount",
              "type": "uint256"
            },
            {
              "internalType": "address",
              "name": "recipient",
              "type": "address"
            },
            {
              "internalType": "enum LpAction",
              "name": "action",
              "type": "uint8"
            },
            {
              "internalType": "int16",
              "name": "tradingFeeRate",
              "type": "int16"
            }
          ],
          "indexed": false,
          "internalType": "struct LpReceipt[]",
          "name": "receipts",
          "type": "tuple[]"
        },
        {
          "indexed": false,
          "internalType": "uint256[]",
          "name": "clbTokenAmounts",
          "type": "uint256[]"
        }
      ],
      "name": "ClaimLiquidityBatch",
      "type": "event"
    },
    {
      "anonymous": false,
      "inputs": [
        {
          "components": [
            {
              "internalType": "uint256",
              "name": "id",
              "type": "uint256"
            },
            {
              "internalType": "uint256",
              "name": "oracleVersion",
              "type": "uint256"
            },
            {
              "internalType": "uint256",
              "name": "amount",
              "type": "uint256"
            },
            {
              "internalType": "address",
              "name": "recipient",
              "type": "address"
            },
            {
              "internalType": "enum LpAction",
              "name": "action",
              "type": "uint8"
            },
            {
              "internalType": "int16",
              "name": "tradingFeeRate",
              "type": "int16"
            }
          ],
          "indexed": false,
          "internalType": "struct LpReceipt",
          "name": "receipt",
          "type": "tuple"
        }
      ],
      "name": "RemoveLiquidity",
      "type": "event"
    },
    {
      "anonymous": false,
      "inputs": [
        {
          "components": [
            {
              "internalType": "uint256",
              "name": "id",
              "type": "uint256"
            },
            {
              "internalType": "uint256",
              "name": "oracleVersion",
              "type": "uint256"
            },
            {
              "internalType": "uint256",
              "name": "amount",
              "type": "uint256"
            },
            {
              "internalType": "address",
              "name": "recipient",
              "type": "address"
            },
            {
              "internalType": "enum LpAction",
              "name": "action",
              "type": "uint8"
            },
            {
              "internalType": "int16",
              "name": "tradingFeeRate",
              "type": "int16"
            }
          ],
          "indexed": false,
          "internalType": "struct LpReceipt[]",
          "name": "receipts",
          "type": "tuple[]"
        }
      ],
      "name": "RemoveLiquidityBatch",
      "type": "event"
    },
    {
      "anonymous": false,
      "inputs": [
        {
          "components": [
            {
              "internalType": "uint256",
              "name": "id",
              "type": "uint256"
            },
            {
              "internalType": "uint256",
              "name": "oracleVersion",
              "type": "uint256"
            },
            {
              "internalType": "uint256",
              "name": "amount",
              "type": "uint256"
            },
            {
              "internalType": "address",
              "name": "recipient",
              "type": "address"
            },
            {
              "internalType": "enum LpAction",
              "name": "action",
              "type": "uint8"
            },
            {
              "internalType": "int16",
              "name": "tradingFeeRate",
              "type": "int16"
            }
          ],
          "indexed": false,
          "internalType": "struct LpReceipt",
          "name": "receipt",
          "type": "tuple"
        },
        {
          "indexed": true,
          "internalType": "uint256",
          "name": "amount",
          "type": "uint256"
        },
        {
          "indexed": true,
          "internalType": "uint256",
          "name": "burnedCLBTokenAmount",
          "type": "uint256"
        }
      ],
      "name": "WithdrawLiquidity",
      "type": "event"
    },
    {
      "anonymous": false,
      "inputs": [
        {
          "components": [
            {
              "internalType": "uint256",
              "name": "id",
              "type": "uint256"
            },
            {
              "internalType": "uint256",
              "name": "oracleVersion",
              "type": "uint256"
            },
            {
              "internalType": "uint256",
              "name": "amount",
              "type": "uint256"
            },
            {
              "internalType": "address",
              "name": "recipient",
              "type": "address"
            },
            {
              "internalType": "enum LpAction",
              "name": "action",
              "type": "uint8"
            },
            {
              "internalType": "int16",
              "name": "tradingFeeRate",
              "type": "int16"
            }
          ],
          "indexed": false,
          "internalType": "struct LpReceipt[]",
          "name": "receipts",
          "type": "tuple[]"
        },
        {
          "indexed": false,
          "internalType": "uint256[]",
          "name": "amounts",
          "type": "uint256[]"
        },
        {
          "indexed": false,
          "internalType": "uint256[]",
          "name": "burnedCLBTokenAmounts",
          "type": "uint256[]"
        }
      ],
      "name": "WithdrawLiquidityBatch",
      "type": "event"
    },
    {
      "inputs": [
        {
          "internalType": "address",
          "name": "recipient",
          "type": "address"
        },
        {
          "internalType": "int16",
          "name": "tradingFeeRate",
          "type": "int16"
        },
        {
          "internalType": "bytes",
          "name": "data",
          "type": "bytes"
        }
      ],
      "name": "addLiquidity",
      "outputs": [
        {
          "components": [
            {
              "internalType": "uint256",
              "name": "id",
              "type": "uint256"
            },
            {
              "internalType": "uint256",
              "name": "oracleVersion",
              "type": "uint256"
            },
            {
              "internalType": "uint256",
              "name": "amount",
              "type": "uint256"
            },
            {
              "internalType": "address",
              "name": "recipient",
              "type": "address"
            },
            {
              "internalType": "enum LpAction",
              "name": "action",
              "type": "uint8"
            },
            {
              "internalType": "int16",
              "name": "tradingFeeRate",
              "type": "int16"
            }
          ],
          "internalType": "struct LpReceipt",
          "name": "receipt",
          "type": "tuple"
        }
      ],
      "stateMutability": "nonpayable",
      "type": "function"
    },
    {
      "inputs": [
        {
          "internalType": "address",
          "name": "recipient",
          "type": "address"
        },
        {
          "internalType": "int16[]",
          "name": "tradingFeeRates",
          "type": "int16[]"
        },
        {
          "internalType": "uint256[]",
          "name": "amounts",
          "type": "uint256[]"
        },
        {
          "internalType": "bytes",
          "name": "data",
          "type": "bytes"
        }
      ],
      "name": "addLiquidityBatch",
      "outputs": [
        {
          "components": [
            {
              "internalType": "uint256",
              "name": "id",
              "type": "uint256"
            },
            {
              "internalType": "uint256",
              "name": "oracleVersion",
              "type": "uint256"
            },
            {
              "internalType": "uint256",
              "name": "amount",
              "type": "uint256"
            },
            {
              "internalType": "address",
              "name": "recipient",
              "type": "address"
            },
            {
              "internalType": "enum LpAction",
              "name": "action",
              "type": "uint8"
            },
            {
              "internalType": "int16",
              "name": "tradingFeeRate",
              "type": "int16"
            }
          ],
          "internalType": "struct LpReceipt[]",
          "name": "receipts",
          "type": "tuple[]"
        }
      ],
      "stateMutability": "nonpayable",
      "type": "function"
    },
    {
      "inputs": [
        {
          "internalType": "uint256",
          "name": "receiptId",
          "type": "uint256"
        },
        {
          "internalType": "bytes",
          "name": "data",
          "type": "bytes"
        }
      ],
      "name": "claimLiquidity",
      "outputs": [],
      "stateMutability": "nonpayable",
      "type": "function"
    },
    {
      "inputs": [
        {
          "internalType": "uint256[]",
          "name": "receiptIds",
          "type": "uint256[]"
        },
        {
          "internalType": "bytes",
          "name": "data",
          "type": "bytes"
        }
      ],
      "name": "claimLiquidityBatch",
      "outputs": [],
      "stateMutability": "nonpayable",
      "type": "function"
    },
    {
      "inputs": [
        {
          "internalType": "uint256",
          "name": "earning",
          "type": "uint256"
        },
        {
          "internalType": "uint256",
          "name": "marketBalance",
          "type": "uint256"
        }
      ],
      "name": "distributeEarningToBins",
      "outputs": [],
      "stateMutability": "nonpayable",
      "type": "function"
    },
    {
      "inputs": [
        {
          "internalType": "address",
          "name": "",
          "type": "address"
        },
        {
          "internalType": "address",
          "name": "",
          "type": "address"
        },
        {
          "internalType": "uint256[]",
          "name": "",
          "type": "uint256[]"
        },
        {
          "internalType": "uint256[]",
          "name": "",
          "type": "uint256[]"
        },
        {
          "internalType": "bytes",
          "name": "",
          "type": "bytes"
        }
      ],
      "name": "onERC1155BatchReceived",
      "outputs": [
        {
          "internalType": "bytes4",
          "name": "",
          "type": "bytes4"
        }
      ],
      "stateMutability": "pure",
      "type": "function"
    },
    {
      "inputs": [
        {
          "internalType": "address",
          "name": "",
          "type": "address"
        },
        {
          "internalType": "address",
          "name": "",
          "type": "address"
        },
        {
          "internalType": "uint256",
          "name": "",
          "type": "uint256"
        },
        {
          "internalType": "uint256",
          "name": "",
          "type": "uint256"
        },
        {
          "internalType": "bytes",
          "name": "",
          "type": "bytes"
        }
      ],
      "name": "onERC1155Received",
      "outputs": [
        {
          "internalType": "bytes4",
          "name": "",
          "type": "bytes4"
        }
      ],
      "stateMutability": "pure",
      "type": "function"
    },
    {
      "inputs": [
        {
          "internalType": "address",
          "name": "recipient",
          "type": "address"
        },
        {
          "internalType": "int16",
          "name": "tradingFeeRate",
          "type": "int16"
        },
        {
          "internalType": "bytes",
          "name": "data",
          "type": "bytes"
        }
      ],
      "name": "removeLiquidity",
      "outputs": [
        {
          "components": [
            {
              "internalType": "uint256",
              "name": "id",
              "type": "uint256"
            },
            {
              "internalType": "uint256",
              "name": "oracleVersion",
              "type": "uint256"
            },
            {
              "internalType": "uint256",
              "name": "amount",
              "type": "uint256"
            },
            {
              "internalType": "address",
              "name": "recipient",
              "type": "address"
            },
            {
              "internalType": "enum LpAction",
              "name": "action",
              "type": "uint8"
            },
            {
              "internalType": "int16",
              "name": "tradingFeeRate",
              "type": "int16"
            }
          ],
          "internalType": "struct LpReceipt",
          "name": "receipt",
          "type": "tuple"
        }
      ],
      "stateMutability": "nonpayable",
      "type": "function"
    },
    {
      "inputs": [
        {
          "internalType": "address",
          "name": "recipient",
          "type": "address"
        },
        {
          "internalType": "int16[]",
          "name": "tradingFeeRates",
          "type": "int16[]"
        },
        {
          "internalType": "uint256[]",
          "name": "clbTokenAmounts",
          "type": "uint256[]"
        },
        {
          "internalType": "bytes",
          "name": "data",
          "type": "bytes"
        }
      ],
      "name": "removeLiquidityBatch",
      "outputs": [
        {
          "components": [
            {
              "internalType": "uint256",
              "name": "id",
              "type": "uint256"
            },
            {
              "internalType": "uint256",
              "name": "oracleVersion",
              "type": "uint256"
            },
            {
              "internalType": "uint256",
              "name": "amount",
              "type": "uint256"
            },
            {
              "internalType": "address",
              "name": "recipient",
              "type": "address"
            },
            {
              "internalType": "enum LpAction",
              "name": "action",
              "type": "uint8"
            },
            {
              "internalType": "int16",
              "name": "tradingFeeRate",
              "type": "int16"
            }
          ],
          "internalType": "struct LpReceipt[]",
          "name": "receipts",
          "type": "tuple[]"
        }
      ],
      "stateMutability": "nonpayable",
      "type": "function"
    },
    {
      "inputs": [
        {
          "internalType": "bytes4",
          "name": "interfaceID",
          "type": "bytes4"
        }
      ],
      "name": "supportsInterface",
      "outputs": [
        {
          "internalType": "bool",
          "name": "",
          "type": "bool"
        }
      ],
      "stateMutability": "pure",
      "type": "function"
    },
    {
      "inputs": [
        {
          "internalType": "uint256",
          "name": "receiptId",
          "type": "uint256"
        },
        {
          "internalType": "bytes",
          "name": "data",
          "type": "bytes"
        }
      ],
      "name": "withdrawLiquidity",
      "outputs": [],
      "stateMutability": "nonpayable",
      "type": "function"
    },
    {
      "inputs": [
        {
          "internalType": "uint256[]",
          "name": "receiptIds",
          "type": "uint256[]"
        },
        {
          "internalType": "bytes",
          "name": "data",
          "type": "bytes"
        }
      ],
      "name": "withdrawLiquidityBatch",
      "outputs": [],
      "stateMutability": "nonpayable",
      "type": "function"
    }
  ],
  "transactionHash": "0xcc0e41058f360e7d3e9d470715b03bfd2fe0c8a9d5fe6eacc29e972f6b6fa6ee",
  "args": [],
  "numDeployments": 5,
  "solcInputHash": "ba3b324beed4c7b18ad56da999f27737",
  "bytecode": "0x608060405234801561001057600080fd5b50600160005561552f806100256000396000f3fe608060405234801561001057600080fd5b50600436106100d35760003560e01c80638c4bdb3f11610081578063b9d3e6971161005b578063b9d3e697146101b4578063bc197c81146101c7578063f23a6e611461023357600080fd5b80638c4bdb3f1461016e578063abfefb901461018e578063b21837e0146101a157600080fd5b806328700ad2116100b257806328700ad21461012857806328b5bd1e14610148578063766e1b171461015b57600080fd5b80623fb653146100d857806301ffc9a7146100ed57806311753f7614610115575b600080fd5b6100eb6100e63660046147d2565b61026c565b005b6101006100fb36600461483e565b6104ff565b60405190151581526020015b60405180910390f35b6100eb610123366004614880565b610598565b61013b6101363660046148f0565b6106e7565b60405161010c9190614a96565b6100eb610156366004614aa9565b61091a565b61013b6101693660046148f0565b6109bc565b61018161017c366004614add565b610b4e565b60405161010c9190614b32565b6100eb61019c366004614880565b610dfb565b6101816101af366004614add565b610f3e565b6100eb6101c23660046147d2565b611222565b6102026101d5366004614b40565b7fbc197c810000000000000000000000000000000000000000000000000000000098975050505050505050565b6040517fffffffff00000000000000000000000000000000000000000000000000000000909116815260200161010c565b610202610241366004614bfb565b7ff23a6e61000000000000000000000000000000000000000000000000000000009695505050505050565b610274611515565b7f02954dff85197d438345422dfe525d02fbd6a12c9028d5d8c7ab5386d34713307f492a974aed1be5cd7fa4ce3b0cfab809a1de17af5ade68dd0729b36f2ed097937f492a974aed1be5cd7fa4ce3b0cfab809a1de17af5ade68dd0729b36f2ed0979a60006102e28361158d565b90506102ed81611702565b60008767ffffffffffffffff81111561030857610308614c73565b60405190808252806020026020018201604052801561034157816020015b61032e6146c8565b8152602001906001900390816103265790505b50905060008867ffffffffffffffff81111561035f5761035f614c73565b604051908082528060200260200182016040528015610388578160200160208202803683370190505b50905060005b898110156103fc576103ba8488878e8e868181106103ae576103ae614ca2565b9050602002013561177f565b8483815181106103cc576103cc614ca2565b602002602001018484815181106103e5576103e5614ca2565b60209081029190910101919091525260010161038e565b506040517f96ca576900000000000000000000000000000000000000000000000000000000815233906396ca57699061043f908d908d908d908d90600401614d1a565b600060405180830381600087803b15801561045957600080fd5b505af115801561046d573d6000803e3d6000fd5b505050506104b08a8a808060200260200160405190810160405280939291908181526020018383602002808284376000920191909152508a939250506119039050565b7f22875dbbffa39e131ff65b9db59941f128c02bb4ae1912cd52d0d790fbf2f70d82826040516104e1929190614daa565b60405180910390a15050505050506104f96001600055565b50505050565b60007fffffffff0000000000000000000000000000000000000000000000000000000082167f01ffc9a700000000000000000000000000000000000000000000000000000000148061059257507fffffffff0000000000000000000000000000000000000000000000000000000082167f4e2312e000000000000000000000000000000000000000000000000000000000145b92915050565b6105a0611515565b7f02954dff85197d438345422dfe525d02fbd6a12c9028d5d8c7ab5386d34713307f492a974aed1be5cd7fa4ce3b0cfab809a1de17af5ade68dd0729b36f2ed0979360006105ed8261158d565b90506105f881611702565b600080600061060c8487876007018c611985565b6040517ff817b6260000000000000000000000000000000000000000000000000000000081529295509093509150339063f817b62690610654908c908c908c90600401614dcf565b600060405180830381600087803b15801561066e57600080fd5b505af1158015610682573d6000803e3d6000fd5b505050506106998987611ba090919063ffffffff16565b80827fc1ccfe14e3d70f169361003a5b4802b32ed89bcde54a8dbf9322e148107ade27856040516106ca9190614b32565b60405180910390a35050505050506106e26001600055565b505050565b60606106f1611515565b8584146106fd57600080fd5b7f492a974aed1be5cd7fa4ce3b0cfab809a1de17af5ade68dd0729b36f2ed097937f492a974aed1be5cd7fa4ce3b0cfab809a1de17af5ade68dd0729b36f2ed0979a600061074a8361158d565b905061075581611702565b6000610764828a8a8a8a611bea565b60408381015160a085015191517f113217fc00000000000000000000000000000000000000000000000000000000815273ffffffffffffffffffffffffffffffffffffffff928316600482015260248101849052929350169063113217fc90604401600060405180830381600087803b1580156107e057600080fd5b505af11580156107f4573d6000803e3d6000fd5b508c9250505067ffffffffffffffff81111561081257610812614c73565b60405190808252806020026020018201604052801561084b57816020015b6108386146c8565b8152602001906001900390816108305790505b50945060005b8a8110156108c9576108a483858f8f8f8681811061087157610871614ca2565b90506020020160208101906108869190614de9565b8e8e8781811061089857610898614ca2565b90506020020135611e21565b8682815181106108b6576108b6614ca2565b6020908102919091010152600101610851565b507f5a82a9516046d00f570c5d19514b049f319fff6fb10e1b6b202cef82cba45d86856040516108f99190614a96565b60405180910390a15050505061090f6001600055565b979650505050505050565b7f492a974aed1be5cd7fa4ce3b0cfab809a1de17af5ade68dd0729b36f2ed097936005015473ffffffffffffffffffffffffffffffffffffffff16331461098d576040517f6c7e0fa500000000000000000000000000000000000000000000000000000000815260040160405180910390fd5b6109b87f492a974aed1be5cd7fa4ce3b0cfab809a1de17af5ade68dd0729b36f2ed0979a8383611e78565b5050565b60606109c6611515565b8584146109d257600080fd5b7f492a974aed1be5cd7fa4ce3b0cfab809a1de17af5ade68dd0729b36f2ed097937f492a974aed1be5cd7fa4ce3b0cfab809a1de17af5ade68dd0729b36f2ed0979a6000610a1f8361158d565b9050610a2a81611702565b610a39818b8b8b8b8b8b611ef2565b8867ffffffffffffffff811115610a5257610a52614c73565b604051908082528060200260200182016040528015610a8b57816020015b610a786146c8565b815260200190600190039081610a705790505b50935060005b89811015610b0957610ae482848e8e8e86818110610ab157610ab1614ca2565b9050602002016020810190610ac69190614de9565b8d8d87818110610ad857610ad8614ca2565b905060200201356122ba565b858281518110610af657610af6614ca2565b6020908102919091010152600101610a91565b507f02b5d0edb5105e66367cbe2a09b5a2bf0070d5d90f9c39e1d583605c401903dd84604051610b399190614a96565b60405180910390a150505061090f6001600055565b610b566146c8565b610b5e611515565b7f492a974aed1be5cd7fa4ce3b0cfab809a1de17af5ade68dd0729b36f2ed097936000610b8a8261158d565b9050610b9581611702565b6000610ba0876122dc565b60608301516040517efdd58e0000000000000000000000000000000000000000000000000000000081523060048201526024810183905291925060009173ffffffffffffffffffffffffffffffffffffffff9091169062fdd58e90604401602060405180830381865afa158015610c1b573d6000803e3d6000fd5b505050506040513d601f19601f82011682018060405250810190610c3f9190614e04565b60608401516040517f5a80e0800000000000000000000000000000000000000000000000000000000081529192503391635a80e08091610c879186908c908c90600401614e1d565b600060405180830381600087803b158015610ca157600080fd5b505af1158015610cb5573d6000803e3d6000fd5b50505060608401516040517efdd58e0000000000000000000000000000000000000000000000000000000081523060048201526024810185905260009250839173ffffffffffffffffffffffffffffffffffffffff169062fdd58e90604401602060405180830381865afa158015610d31573d6000803e3d6000fd5b505050506040513d601f19601f82011682018060405250810190610d559190614e04565b610d5f9190614e82565b905080600003610d9b576040517f22313ae900000000000000000000000000000000000000000000000000000000815260040160405180910390fd5b610dab84866007018c8c856122ba565b95507fc069ad7785923447a16c7076f192be05f20f7a3bfc86f34cde112985dc5a532e86604051610ddc9190614b32565b60405180910390a15050505050610df36001600055565b949350505050565b610e03611515565b7f02954dff85197d438345422dfe525d02fbd6a12c9028d5d8c7ab5386d34713307f492a974aed1be5cd7fa4ce3b0cfab809a1de17af5ade68dd0729b36f2ed097936000610e508261158d565b9050610e5b81611702565b600080610e6d8386866007018b61177f565b6040517f3b23ff6700000000000000000000000000000000000000000000000000000000815291935091503390633b23ff6790610eb2908b908b908b90600401614dcf565b600060405180830381600087803b158015610ecc57600080fd5b505af1158015610ee0573d6000803e3d6000fd5b50505050610ef78886611ba090919063ffffffff16565b807ff9fd7f21b2563662ef2017bde6ec398623746e8492ffb0eabbf4e1f2cd16425083604051610f279190614b32565b60405180910390a250505050506106e26001600055565b610f466146c8565b610f4e611515565b7f492a974aed1be5cd7fa4ce3b0cfab809a1de17af5ade68dd0729b36f2ed097936000610f7a8261158d565b9050610f8581611702565b60a081015160408083015190517f70a0823100000000000000000000000000000000000000000000000000000000815273ffffffffffffffffffffffffffffffffffffffff8083166004830152600091908416906370a0823190602401602060405180830381865afa158015610fff573d6000803e3d6000fd5b505050506040513d601f19601f820116820180604052508101906110239190614e04565b6040517f970d1d6f000000000000000000000000000000000000000000000000000000008152909150339063970d1d6f9061106890869086908d908d90600401614e95565b600060405180830381600087803b15801561108257600080fd5b505af1158015611096573d6000803e3d6000fd5b50506040517f70a0823100000000000000000000000000000000000000000000000000000000815273ffffffffffffffffffffffffffffffffffffffff8581166004830152600093508492508616906370a0823190602401602060405180830381865afa15801561110b573d6000803e3d6000fd5b505050506040513d601f19601f8201168201806040525081019061112f9190614e04565b6111399190614e82565b60a08601516040517f113217fc00000000000000000000000000000000000000000000000000000000815273ffffffffffffffffffffffffffffffffffffffff91821660048201526024810183905291925084169063113217fc90604401600060405180830381600087803b1580156111b157600080fd5b505af11580156111c5573d6000803e3d6000fd5b505050506111d985876007018d8d85611e21565b96507f63bd6e249680e9ee813c9849b8d012c8aa96ede228ad3a776cecbbc380e7477d8760405161120a9190614b32565b60405180910390a1505050505050610df36001600055565b61122a611515565b7f02954dff85197d438345422dfe525d02fbd6a12c9028d5d8c7ab5386d34713307f492a974aed1be5cd7fa4ce3b0cfab809a1de17af5ade68dd0729b36f2ed097937f492a974aed1be5cd7fa4ce3b0cfab809a1de17af5ade68dd0729b36f2ed0979a60006112988361158d565b90506112a381611702565b60008767ffffffffffffffff8111156112be576112be614c73565b6040519080825280602002602001820160405280156112f757816020015b6112e46146c8565b8152602001906001900390816112dc5790505b50905060008867ffffffffffffffff81111561131557611315614c73565b60405190808252806020026020018201604052801561133e578160200160208202803683370190505b50905060008967ffffffffffffffff81111561135c5761135c614c73565b604051908082528060200260200182016040528015611385578160200160208202803683370190505b50905060005b8a811015611415576113b78589888f8f868181106113ab576113ab614ca2565b90506020020135611985565b8684815181106113c9576113c9614ca2565b602002602001018685815181106113e2576113e2614ca2565b602002602001018686815181106113fb576113fb614ca2565b60209081029190910101929092529190525260010161138b565b506040517fe96401a8000000000000000000000000000000000000000000000000000000008152339063e96401a890611458908e908e908e908e90600401614d1a565b600060405180830381600087803b15801561147257600080fd5b505af1158015611486573d6000803e3d6000fd5b505050506114c98b8b808060200260200160405190810160405280939291908181526020018383602002808284376000920191909152508b939250506119039050565b7fe69c861767c66cb9b7afe76377494517c4770a517e36613806121c143f4587478383836040516114fc93929190614ecf565b60405180910390a1505050505050506104f96001600055565b600260005403611586576040517f08c379a000000000000000000000000000000000000000000000000000000000815260206004820152601f60248201527f5265656e7472616e637947756172643a207265656e7472616e742063616c6c0060448201526064015b60405180910390fd5b6002600055565b6115e860408051610100810182526000808252602080830182905282840182905260608084018390526080840183905260a0840183905260c0840183905284519081018552828152908101829052928301529060e082015290565b61160c60405180606001604052806000815260200160008152602001600081525090565b6040805161010081018252600185015473ffffffffffffffffffffffffffffffffffffffff9081168252855481166020808401919091526005870154821683850152600387015482166060840152306080840152600287015490911660a0830181905283517f313ce5670000000000000000000000000000000000000000000000000000000081529351929360c0850193919263313ce567926004808401938290030181865afa1580156116c4573d6000803e3d6000fd5b505050506040513d601f19601f820116820180604052508101906116e89190614f08565b6116f390600a61504b565b81526020019190915292915050565b806000015173ffffffffffffffffffffffffffffffffffffffff1663fff6cae96040518163ffffffff1660e01b81526004016060604051808303816000875af1158015611753573d6000803e3d6000fd5b505050506040513d601f19601f8201168201806040525081019061177791906150a9565b60e090910152565b6117876146c8565b6000611793858461230a565b91506000826080015160018111156117ad576117ad61499b565b146117e4576040517f35c67ed100000000000000000000000000000000000000000000000000000000815260040160405180910390fd5b60208201516117f490879061235a565b61182a576040517fd54b668800000000000000000000000000000000000000000000000000000000815260040160405180910390fd5b60a0820151604083015160208401516118469287928a92612379565b905080156118fa57856060015173ffffffffffffffffffffffffffffffffffffffff1663f242432a30846060015161187d866123ab565b604080516020810182526000815290517fffffffff0000000000000000000000000000000000000000000000000000000060e087901b1681526118c7949392918891600401615169565b600060405180830381600087803b1580156118e157600080fd5b505af11580156118f5573d6000803e3d6000fd5b505050505b94509492505050565b60005b81518110156106e25782600101600083838151811061192757611927614ca2565b602090810291909101810151825281019190915260400160009081208181556001808201839055600282019290925560030180547fffffffffffffffffff000000000000000000000000000000000000000000000016905501611906565b61198d6146c8565b60008061199a868561230a565b92506001836080015160018111156119b4576119b461499b565b146119eb576040517f35c67ed100000000000000000000000000000000000000000000000000000000815260040160405180910390fd5b60208301516119fb90889061235a565b611a31576040517fcc93170c00000000000000000000000000000000000000000000000000000000815260040160405180910390fd5b6060830151604084015160a08501516020860151611a559189918c919085906123ba565b909450925082811115611afa57886060015173ffffffffffffffffffffffffffffffffffffffff1663f242432a3084611a8d896123ab565b611a978887614e82565b604051806020016040528060008152506040518663ffffffff1660e01b8152600401611ac7959493929190615169565b600060405180830381600087803b158015611ae157600080fd5b505af1158015611af5573d6000803e3d6000fd5b505050505b6040808a015160a08b015191517fd02f1b3000000000000000000000000000000000000000000000000000000000815273ffffffffffffffffffffffffffffffffffffffff928316600482015284831660248201526044810187905291169063d02f1b3090606401600060405180830381600087803b158015611b7c57600080fd5b505af1158015611b90573d6000803e3d6000fd5b5050505050509450945094915050565b6000908152600191820160205260408120818155918201819055600282015560030180547fffffffffffffffffff0000000000000000000000000000000000000000000000169055565b6000805b84811015611c2457858582818110611c0857611c08614ca2565b9050602002013582611c1a91906151ae565b9150600101611bee565b5060a086015160408088015190517f70a0823100000000000000000000000000000000000000000000000000000000815273ffffffffffffffffffffffffffffffffffffffff8083166004830152600091908416906370a0823190602401602060405180830381865afa158015611c9f573d6000803e3d6000fd5b505050506040513d601f19601f82011682018060405250810190611cc39190614e04565b6040517fd0d063c0000000000000000000000000000000000000000000000000000000008152909150339063d0d063c090611d0890869086908b908b90600401614e95565b600060405180830381600087803b158015611d2257600080fd5b505af1158015611d36573d6000803e3d6000fd5b50506040517f70a0823100000000000000000000000000000000000000000000000000000000815273ffffffffffffffffffffffffffffffffffffffff8581166004830152600093508492508616906370a0823190602401602060405180830381865afa158015611dab573d6000803e3d6000fd5b505050506040513d601f19601f82011682018060405250810190611dcf9190614e04565b611dd99190614e82565b9050848114611e14576040517fa5bde9fe00000000000000000000000000000000000000000000000000000000815260040160405180910390fd5b5050505095945050505050565b611e296146c8565b611e35858785856123f1565b611e4386600084878761241c565b9050611e6f7f02954dff85197d438345422dfe525d02fbd6a12c9028d5d8c7ab5386d3471330826124be565b95945050505050565b81816000611e846125eb565b9050611eb3868484847f4c00000000000000000000000000000000000000000000000000000000000000612727565b9093509150611ee8600187018484847f5300000000000000000000000000000000000000000000000000000000000000612727565b5050505050505050565b60008567ffffffffffffffff811115611f0d57611f0d614c73565b604051908082528060200260200182016040528015611f36578160200160208202803683370190505b50905060008667ffffffffffffffff811115611f5457611f54614c73565b604051908082528060200260200182016040528015611f7d578160200160208202803683370190505b50905060005b8781101561202c5730838281518110611f9e57611f9e614ca2565b602002602001019073ffffffffffffffffffffffffffffffffffffffff16908173ffffffffffffffffffffffffffffffffffffffff1681525050612007898983818110611fed57611fed614ca2565b90506020020160208101906120029190614de9565b6122dc565b82828151811061201957612019614ca2565b6020908102919091010152600101611f83565b5060608901516040517f4e1273f400000000000000000000000000000000000000000000000000000000815260009173ffffffffffffffffffffffffffffffffffffffff1690634e1273f49061208890869086906004016151c1565b600060405180830381865afa1580156120a5573d6000803e3d6000fd5b505050506040513d6000823e601f3d9081017fffffffffffffffffffffffffffffffffffffffffffffffffffffffffffffffe01682016040526120eb9190810190615224565b60608b01516040517fe921b5c2000000000000000000000000000000000000000000000000000000008152919250339163e921b5c2916121339186908a908a906004016152be565b600060405180830381600087803b15801561214d57600080fd5b505af1158015612161573d6000803e3d6000fd5b5050505060008a6060015173ffffffffffffffffffffffffffffffffffffffff16634e1273f485856040518363ffffffff1660e01b81526004016121a69291906151c1565b600060405180830381865afa1580156121c3573d6000803e3d6000fd5b505050506040513d6000823e601f3d9081017fffffffffffffffffffffffffffffffffffffffffffffffffffffffffffffffe01682016040526122099190810190615224565b905060005b898110156122ac5782818151811061222857612228614ca2565b602002602001015182828151811061224257612242614ca2565b60200260200101516122549190614e82565b89898381811061226657612266614ca2565b90506020020135146122a4576040517fa5bde9fe00000000000000000000000000000000000000000000000000000000815260040160405180910390fd5b60010161220e565b505050505050505050505050565b6122c26146c8565b6122ce8587858561282a565b611e4386600184878761241c565b6000600182900b8112612303816122fb576122f684615300565b6122fd565b835b8261284d565b9392505050565b6123126146c8565b61231c8383612875565b8051909150600003610592576040517fc47b348000000000000000000000000000000000000000000000000000000000815260040160405180910390fd5b60008115801590612303575061236f8361294c565b5182109392505050565b600083612385816129fe565b60006123918887612ac7565b905061239f81888787612b24565b98975050505050505050565b60006105928260a001516122dc565b600080846123c7816129fe565b60006123d38988612ac7565b90506123e181898888612b40565b909a909950975050505050505050565b816123fb816129fe565b60006124078685612ac7565b9050612414818685612b6c565b505050505050565b6124246146c8565b6040518060c0016040528061245e6124597f02954dff85197d438345422dfe525d02fbd6a12c9028d5d8c7ab5386d347133090565b612b91565b815260200161246c8861294c565b5181526020810186905273ffffffffffffffffffffffffffffffffffffffff851660408201526060018660018111156124a7576124a761499b565b81526020018360010b815250905095945050505050565b8051600090815260018084016020908152604092839020845181559084015181830155918301516002830155606083015160038301805473ffffffffffffffffffffffffffffffffffffffff9092167fffffffffffffffffffffffff0000000000000000000000000000000000000000831681178255608086015186959490937fffffffffffffffffffffff00000000000000000000000000000000000000000016909117907401000000000000000000000000000000000000000090849081111561258c5761258c61499b565b021790555060a091909101516003909101805461ffff9092167501000000000000000000000000000000000000000000027fffffffffffffffffff0000ffffffffffffffffffffffffffffffffffffffffff9092169190911790555050565b6125f3614725565b50604080516104808101825260018152600260208201526003918101919091526004606082015260056080820152600660a0820152600760c0820152600860e08201526009610100820152600a6101208201526014610140820152601e610160820152602861018082015260326101a0820152603c6101c082015260466101e08201526050610200820152605a610220820152606461024082015260c861026082015261012c6102808201526101906102a08201526101f46102c08201526102586102e08201526102bc610300820152610320808201526103846103408201526103e86103608201526105dc6103808201526107d06103a08201526109c46103c0820152610bb86103e0820152610dac610400820152610fa061042082015261119461044082015261138861046082015290565b838360005b602481101561281f57600085826024811061274957612749614ca2565b6020908102919091015161ffff81166000908152918b90526040822090925090612774826001015490565b9050806000036127895750505060010161272c565b6000612796878388612baf565b90506127a28382612cd8565b6127ac8287614e82565b95506127b88188614e82565b965080887effffffffffffffffffffffffffffffffffffffffffffffffffffffffffffff19168561ffff167f870c522a03c4b7d56f32ecd79bbf7ef4a6f74564d7157172198ff5d97b40450c60405160405180910390a450506001909201915061272c9050565b509550959350505050565b81612834816129fe565b60006128408685612ac7565b9050612414818685612cf8565b60008161286c576128676402540be40061ffff85166151ae565b612303565b505061ffff1690565b61287d6146c8565b600082815260018481016020908152604092839020835160c081018552815481528184015492810192909252600281015493820193909352600383015473ffffffffffffffffffffffffffffffffffffffff81166060830152909291608084019174010000000000000000000000000000000000000000900460ff16908111156129095761290961499b565b600181111561291a5761291a61499b565b8152600391909101547501000000000000000000000000000000000000000000900460010b6020909101529392505050565b61297060405180606001604052806000815260200160008152602001600081525090565b60e0820151516000036129f657816000015173ffffffffffffffffffffffffffffffffffffffff16639d888e866040518163ffffffff1660e01b8152600401606060405180830381865afa1580156129cc573d6000803e3d6000fd5b505050506040513d601f19601f820116820180604052508101906129f091906150a9565b60e08301525b5060e0015190565b6000612a086125eb565b90506000612a1583612d1d565b90506000612a238383612d38565b9050602481108015612a525750828160248110612a4257612a42614ca2565b602002015161ffff168261ffff16145b6040518060400160405280600481526020017f555446520000000000000000000000000000000000000000000000000000000081525090612ac0576040517f08c379a000000000000000000000000000000000000000000000000000000000815260040161157d919061533e565b5050505050565b6000808260010b12612afa57826000612adf84612d1d565b61ffff1661ffff168152602001908152602001600020612303565b826001016000612b0984612d1d565b61ffff16815260208101919091526040016000209392505050565b60008484612b328282612df5565b61090f600188018686612e35565b6000808585612b4f8282612df5565b612b5d600189018787612ee9565b90999098509650505050505050565b8282612b788282612df5565b612ac083612b858661294c565b51600188019190612fea565b60008160000160008154612ba490615351565b918290555092915050565b600080807fffffffffffffffffffffffffffffffffffffffffffffffffffffffffffffffff85870985870292508281108382030391505080600003612c0757838281612bfd57612bfd615389565b0492505050612303565b808411612c70576040517f08c379a000000000000000000000000000000000000000000000000000000000815260206004820152601560248201527f4d6174683a206d756c446976206f766572666c6f770000000000000000000000604482015260640161157d565b600084868809600260036001881981018916988990049182028318808302840302808302840302808302840302808302840302808302840302918202909203026000889003889004909101858311909403939093029303949094049190911702949350505050565b80826001016000016000828254612cef91906151ae565b90915550505050565b8282612d048282612df5565b612ac083612d118661294c565b51600188019190613104565b6000808260010b12612d2f5781610592565b61059282615300565b60008060245b80821015612d96576000612d5283836131a2565b90508461ffff16868260248110612d6b57612d6b614ca2565b602002015161ffff161115612d8257809150612d90565b612d8d8160016151ae565b92505b50612d3e565b8115801590612dcc575061ffff841685612db1600185614e82565b60248110612dc157612dc1614ca2565b602002015161ffff16145b15612de557612ddc600183614e82565b92505050610592565b509050610592565b505092915050565b612e0260158301826131bd565b612e0f6009830182613303565b6109b881612e1d8482613419565b612e268561353d565b85546001870193929190613570565b60008181526004840160209081526040808320815180830190925280548083526001909101549282018390529091612e6f91869190612baf565b91508181602001818151612e839190614e82565b905250805184908290612e97908390614e82565b9052508051600003612ebf576000838152600486016020526040812081815560010155612ee1565b6000838152600486016020908152604090912082518155908201516001909101555b509392505050565b600081815260058401602090815260408083208151606081018352815480825260018301549482019490945260029091015491810182905283929091612f3191879190612baf565b60208201518251919450612f4791879190612baf565b91508181602001818151612f5b9190614e82565b905250604081018051849190612f72908390614e82565b905250805185908290612f86908390614e82565b9052508051600003612fb557600084815260058701602052604081208181556001810182905560020155612fe1565b600084815260058701602090815260409182902083518155908301516001820155908201516002909101555b50935093915050565b60408051808201909152600381527f545341000000000000000000000000000000000000000000000000000000000060208201526103e8831161305a576040517f08c379a000000000000000000000000000000000000000000000000000000000815260040161157d919061533e565b50600183015480158061306c57508181145b6040518060400160405280600381526020017f494f560000000000000000000000000000000000000000000000000000000000815250906130da576040517f08c379a000000000000000000000000000000000000000000000000000000000815260040161157d919061533e565b50600184018290556002840180548491906000906130f99084906151ae565b909155505050505050565b600183015480158061311557508181145b6040518060400160405280600381526020017f494f56000000000000000000000000000000000000000000000000000000000081525090613183576040517f08c379a000000000000000000000000000000000000000000000000000000000815260040161157d919061533e565b50600184018290556003840180548491906000906130f99084906151ae565b60006131b160028484186153b8565b612303908484166151ae565b60028201546131cc828261235a565b6131d557505050565b60408051608081018252600385015481526004850154602082015260058501549181019190915260068401546060820152835461321990600c860190859042613850565b806040015184600001600082825461323191906151ae565b9091555050606081015160018501805460009061324f9084906151ae565b9091555061326290506009850183613892565b506000828152600b85016020908152604091829020835181559083015160018201559082015160028083019190915560608301516003909201919091556132ab9085018461389e565b6008840154600d850180546000906132c49084906151ae565b90915550506000600285018190556003850181905560048501819055600585018190556006850181905560078501819055600890940193909355505050565b6004820154613312828261235a565b61331b57505050565b600283015461333190600a850190849042613850565b600583015483548190859060009061334a9084906153f3565b9091555061336690508161336160048701866138b4565b6138cd565b84600101600082825461337991906151ae565b909155505060068401546002850180546000906133979084906151ae565b909155505060078401546003850180546000906133b59084906151ae565b909155506133c8905060048501846138ec565b6009840154600b850180546000906133e19084906151ae565b909155505060006004850181905560058501819055600685018190556007850181905560088501819055600990940193909355505050565b6000806134296009850184613902565b9050600061343682613a24565b90506000613445866001015490565b9050600080841261345f5761345a83836151ae565b613469565b6134698383614e82565b604080880151608089015160a08a015192517f4e82c4b700000000000000000000000000000000000000000000000000000000815273ffffffffffffffffffffffffffffffffffffffff91821660048201529281166024840152604483018690529293509190911690634e82c4b790606401602060405180830381865afa1580156134f8573d6000803e3d6000fd5b505050506040513d601f19601f8201168201806040525081019061351c9190614e04565b6135296015890188613a3b565b61353390836151ae565b61090f91906151ae565b600061354b82601501613a5e565b61355783600901613a71565b60018401546135669190614e82565b6105929190614e82565b60608401516040517fbd85b0390000000000000000000000000000000000000000000000000000000081526004810183905260009073ffffffffffffffffffffffffffffffffffffffff83169063bd85b03990602401602060405180830381865afa1580156135e3573d6000803e3d6000fd5b505050506040513d601f19601f820116820180604052508101906136079190614e04565b905060008061361889898986613a87565b90925090506000806136358b61362e868b6151ae565b8b88613bce565b91509150818311156136d5578573ffffffffffffffffffffffffffffffffffffffff1663731133e98b6080015189858761366f9190614e82565b604051806020016040528060008152506040518563ffffffff1660e01b815260040161369e9493929190615413565b600060405180830381600087803b1580156136b857600080fd5b505af11580156136cc573d6000803e3d6000fd5b50505050613797565b81831015613797578573ffffffffffffffffffffffffffffffffffffffff1663f5298aca8b6080015189868661370b9190614e82565b6040517fffffffff0000000000000000000000000000000000000000000000000000000060e086901b16815273ffffffffffffffffffffffffffffffffffffffff909316600484015260248301919091526044820152606401600060405180830381600087803b15801561377e57600080fd5b505af1158015613792573d6000803e3d6000fd5b505050505b831515806137a457508015155b15613843576040808b015160a08c015191517f8b41411700000000000000000000000000000000000000000000000000000000815273ffffffffffffffffffffffffffffffffffffffff92831660048201526024810187905260448101849052911690638b41411790606401600060405180830381600087803b15801561382a57600080fd5b505af115801561383e573d6000803e3d6000fd5b505050505b5050505050505050505050565b835480821161385f57506104f9565b821561388a5761387184848385613dd9565b85600101600082825461388491906151ae565b90915550505b509092555050565b60006123038383613eab565b60038201546109b8906005840190839042613850565b80518254600091612303916138c88561294c565b613efa565b600061230382670de0b6b3a76400006138e586613a24565b9190612baf565b60028201546109b8906004840190839042613850565b60008061390e8361294c565b84549091506000808212613923576001613945565b7fffffffffffffffffffffffffffffffffffffffffffffffffffffffffffffffff5b9050600061395284614030565b905060008261396489600101546140b5565b61396e919061544e565b905060008361398561398087866138cd565b6140b5565b61398f919061544e565b9050600061399d838361549a565b905060006139ae6139808c8c614167565b6139bb60048d018c614180565b6139c590846153f3565b6139cf91906153f3565b905060006139dc82613a24565b905060008212613a0b576139fb613980826139f68f614244565b61425a565b9950505050505050505050610592565b613a1b613980826139f68f613a71565b6139fb906154c1565b600080821215613a375781600003610592565b5090565b6000613a4a6002840183614270565b613a548484614289565b61230391906151ae565b60058101548154600091610592916151ae565b60068101546002820154600091610592916151ae565b60018401546000908190613a9b868261235a565b613aac5760008092509250506118fa565b600287015460038801549093508315613b1557613aca84878761429f565b925083886000016000828254613ae091906151ae565b90915550506040805180820182528581526020808201868152600086815260048d019092529290209051815590516001909101555b8015613bae5760068801805470010000000000000000000000000000000090819004600f0b600081815260078c016020526040902085905582546fffffffffffffffffffffffffffffffff908116600190920116909102179055604080516060810182528281526000602080830182815283850183815287845260058e0190925293909120915182559151600182015590516002909101555b505060006001870181905560028701819055600387015594509492505050565b6000805b6006860154600f81810b700100000000000000000000000000000000909204900b1315613c92576000613c07876006016142d3565b600081815260058901602090815260409182902082516060810184528154808252600183015493820184905260029092015493810193909352929350909111613c8457613c568860060161434d565b508051600003613c7f576000828152600589016020526040812081815560018101829055600201555b613c8b565b5050613c92565b5050613bd2565b6000613cbc8760060154600f81810b700100000000000000000000000000000000909204900b0390565b905060005b8181108015613ccf57508615155b15613db3576000613ce360068a018361440a565b600081815260058b0160205260408120600181015481549394509092613d099190614e82565b90508015613da857600080613d1f838c8c6144a1565b9050808c10613d3057829150613d4c565b613d3b8c8c8c61429f565b9150828210613d4957600080fd5b508a5b81846001016000828254613d6091906151ae565b9250508190555080846002016000828254613d7b91906151ae565b90915550613d8b9050828a6151ae565b9850613d9781896151ae565b9750613da3818d614e82565b9b5050505b505050600101613cc1565b5081876000016000828254613dc89190614e82565b925050819055505094509492505050565b6000831580613de85750818310155b613ea057602085015160a08601516040517f705b170e00000000000000000000000000000000000000000000000000000000815273ffffffffffffffffffffffffffffffffffffffff918216600482015260248101879052604481018690526064810185905291169063705b170e90608401602060405180830381865afa158015613e77573d6000803e3d6000fd5b505050506040513d601f19601f82011682018060405250810190613e9b9190614e04565b611e6f565b600095945050505050565b6000818152600183016020526040812054613ef257508154600181810184556000848152602080822090930184905584548482528286019093526040902091909155610592565b506000610592565b600080613f06846144be565b835160408051808201909152600381527f55535000000000000000000000000000000000000000000000000000000000006020820152919250821115613f79576040517f08c379a000000000000000000000000000000000000000000000000000000000815260040161157d919061533e565b5082516000908214614019576040517f7ece075d0000000000000000000000000000000000000000000000000000000081526004810183905273ffffffffffffffffffffffffffffffffffffffff871690637ece075d90602401606060405180830381865afa158015613ff0573d6000803e3d6000fd5b505050506040513d601f19601f8201168201806040525081019061401491906150a9565b61401b565b835b905061402681614030565b9695505050505050565b6000808260400151136040518060400160405280600381526020017f4e50500000000000000000000000000000000000000000000000000000000000815250906140a7576040517f08c379a000000000000000000000000000000000000000000000000000000000815260040161157d919061533e565b506105928260400151613a24565b60007f7fffffffffffffffffffffffffffffffffffffffffffffffffffffffffffffff821115613a37576040517f08c379a000000000000000000000000000000000000000000000000000000000815260206004820152602860248201527f53616665436173743a2076616c756520646f65736e27742066697420696e206160448201527f6e20696e74323536000000000000000000000000000000000000000000000000606482015260840161157d565b600282015460009061230390600a850190849042614539565b815460009061418f838261235a565b61419d576000915050610592565b60006141a88461294c565b905060006141be8560000151846138c88861294c565b905060006141cb83614030565b905060006141dc6139808989614578565b6141eb89600101548585614591565b6141f591906153f3565b9050600061420282613a24565b90506000821261422a5761421d613980828b6003015461425a565b9650505050505050610592565b61423b613980828b6002015461425a565b61421d906154c1565b60078101546003820154600091610592916151ae565b60008183106142695781612303565b5090919050565b6003820154600090612303906005850190849042614539565b815460009061230390600c850190849042614539565b600081156142cb576142c6826103e885106142ba57846142be565b6103e85b869190612baf565b610df3565b509192915050565b60006142fb8254600f81810b700100000000000000000000000000000000909204900b131590565b15614332576040517f3db2a12a00000000000000000000000000000000000000000000000000000000815260040160405180910390fd5b508054600f0b60009081526001909101602052604090205490565b60006143758254600f81810b700100000000000000000000000000000000909204900b131590565b156143ac576040517f3db2a12a00000000000000000000000000000000000000000000000000000000815260040160405180910390fd5b508054600f0b6000818152600180840160205260408220805492905583547fffffffffffffffffffffffffffffffff000000000000000000000000000000001692016fffffffffffffffffffffffffffffffff169190911790915590565b60008061442d614419846140b5565b85546144289190600f0b6153f3565b61462f565b84549091507001000000000000000000000000000000009004600f90810b9082900b12614486576040517fb4120f1400000000000000000000000000000000000000000000000000000000815260040160405180910390fd5b600f0b60009081526001939093016020525050604090205490565b600081156144b4576142c6848484612baf565b5060009392505050565b60408051808201909152600381527f494f56000000000000000000000000000000000000000000000000000000000060208201526000908261452d576040517f08c379a000000000000000000000000000000000000000000000000000000000815260040161157d919061533e565b506105928260016151ae565b60008260000361454b57506000610df3565b84546001860154818411614562579150610df39050565b61456e86868487613dd9565b61090f90826151ae565b6002820154600090612303906004850190849042614539565b6000808383116145b6576145a86139808486614e82565b6145b1906154c1565b6145c3565b6145c36139808585614e82565b905060008512156145fb576145f87fffffffffffffffffffffffffffffffffffffffffffffffffffffffffffffffff8261544e565b90505b600061461661398061460c84613a24565b876138e58a613a24565b9050600082126146265780614026565b614026816154c1565b80600f81900b81146146c3576040517f08c379a000000000000000000000000000000000000000000000000000000000815260206004820152602760248201527f53616665436173743a2076616c756520646f65736e27742066697420696e203160448201527f3238206269747300000000000000000000000000000000000000000000000000606482015260840161157d565b919050565b6040518060c00160405280600081526020016000815260200160008152602001600073ffffffffffffffffffffffffffffffffffffffff168152602001600060018111156147185761471861499b565b8152600060209091015290565b6040518061048001604052806024906020820280368337509192915050565b60008083601f84011261475657600080fd5b50813567ffffffffffffffff81111561476e57600080fd5b6020830191508360208260051b850101111561478957600080fd5b9250929050565b60008083601f8401126147a257600080fd5b50813567ffffffffffffffff8111156147ba57600080fd5b60208301915083602082850101111561478957600080fd5b600080600080604085870312156147e857600080fd5b843567ffffffffffffffff8082111561480057600080fd5b61480c88838901614744565b9096509450602087013591508082111561482557600080fd5b5061483287828801614790565b95989497509550505050565b60006020828403121561485057600080fd5b81357fffffffff000000000000000000000000000000000000000000000000000000008116811461230357600080fd5b60008060006040848603121561489557600080fd5b83359250602084013567ffffffffffffffff8111156148b357600080fd5b6148bf86828701614790565b9497909650939450505050565b803573ffffffffffffffffffffffffffffffffffffffff811681146146c357600080fd5b60008060008060008060006080888a03121561490b57600080fd5b614914886148cc565b9650602088013567ffffffffffffffff8082111561493157600080fd5b61493d8b838c01614744565b909850965060408a013591508082111561495657600080fd5b6149628b838c01614744565b909650945060608a013591508082111561497b57600080fd5b506149888a828b01614790565b989b979a50959850939692959293505050565b7f4e487b7100000000000000000000000000000000000000000000000000000000600052602160045260246000fd5b80518252602081015160208301526040810151604083015273ffffffffffffffffffffffffffffffffffffffff6060820151166060830152608081015160028110614a3e577f4e487b7100000000000000000000000000000000000000000000000000000000600052602160045260246000fd5b608083015260a09081015160010b910152565b600081518084526020808501945080840160005b83811015614a8b57614a788783516149ca565b60c0969096019590820190600101614a65565b509495945050505050565b6020815260006123036020830184614a51565b60008060408385031215614abc57600080fd5b50508035926020909101359150565b8035600181900b81146146c357600080fd5b60008060008060608587031215614af357600080fd5b614afc856148cc565b9350614b0a60208601614acb565b9250604085013567ffffffffffffffff811115614b2657600080fd5b61483287828801614790565b60c0810161059282846149ca565b60008060008060008060008060a0898b031215614b5c57600080fd5b614b65896148cc565b9750614b7360208a016148cc565b9650604089013567ffffffffffffffff80821115614b9057600080fd5b614b9c8c838d01614744565b909850965060608b0135915080821115614bb557600080fd5b614bc18c838d01614744565b909650945060808b0135915080821115614bda57600080fd5b50614be78b828c01614790565b999c989b5096995094979396929594505050565b60008060008060008060a08789031215614c1457600080fd5b614c1d876148cc565b9550614c2b602088016148cc565b94506040870135935060608701359250608087013567ffffffffffffffff811115614c5557600080fd5b614c6189828a01614790565b979a9699509497509295939492505050565b7f4e487b7100000000000000000000000000000000000000000000000000000000600052604160045260246000fd5b7f4e487b7100000000000000000000000000000000000000000000000000000000600052603260045260246000fd5b8183528181602085013750600060208284010152600060207fffffffffffffffffffffffffffffffffffffffffffffffffffffffffffffffe0601f840116840101905092915050565b6040815283604082015260007f07ffffffffffffffffffffffffffffffffffffffffffffffffffffffffffffff851115614d5357600080fd5b8460051b8087606085013782018281036060908101602085015261090f9082018587614cd1565b600081518084526020808501945080840160005b83811015614a8b57815187529582019590820190600101614d8e565b604081526000614dbd6040830185614a51565b8281036020840152611e6f8185614d7a565b838152604060208201526000611e6f604083018486614cd1565b600060208284031215614dfb57600080fd5b61230382614acb565b600060208284031215614e1657600080fd5b5051919050565b73ffffffffffffffffffffffffffffffffffffffff85168152836020820152606060408201526000614026606083018486614cd1565b7f4e487b7100000000000000000000000000000000000000000000000000000000600052601160045260246000fd5b8181038181111561059257610592614e53565b600073ffffffffffffffffffffffffffffffffffffffff808716835280861660208401525060606040830152614026606083018486614cd1565b606081526000614ee26060830186614a51565b8281036020840152614ef48186614d7a565b905082810360408401526140268185614d7a565b600060208284031215614f1a57600080fd5b815160ff8116811461230357600080fd5b600181815b80851115614f8457817fffffffffffffffffffffffffffffffffffffffffffffffffffffffffffffffff04821115614f6a57614f6a614e53565b80851615614f7757918102915b93841c9390800290614f30565b509250929050565b600082614f9b57506001610592565b81614fa857506000610592565b8160018114614fbe5760028114614fc857614fe4565b6001915050610592565b60ff841115614fd957614fd9614e53565b50506001821b610592565b5060208310610133831016604e8410600b8410161715615007575081810a610592565b6150118383614f2b565b807fffffffffffffffffffffffffffffffffffffffffffffffffffffffffffffffff0482111561504357615043614e53565b029392505050565b600061230360ff841683614f8c565b604051601f82017fffffffffffffffffffffffffffffffffffffffffffffffffffffffffffffffe016810167ffffffffffffffff811182821017156150a1576150a1614c73565b604052919050565b6000606082840312156150bb57600080fd5b6040516060810181811067ffffffffffffffff821117156150de576150de614c73565b80604052508251815260208301516020820152604083015160408201528091505092915050565b6000815180845260005b8181101561512b5760208185018101518683018201520161510f565b5060006020828601015260207fffffffffffffffffffffffffffffffffffffffffffffffffffffffffffffffe0601f83011685010191505092915050565b600073ffffffffffffffffffffffffffffffffffffffff808816835280871660208401525084604083015283606083015260a0608083015261090f60a0830184615105565b8082018082111561059257610592614e53565b604080825283519082018190526000906020906060840190828701845b8281101561521057815173ffffffffffffffffffffffffffffffffffffffff16845292840192908401906001016151de565b505050838103828501526140268186614d7a565b6000602080838503121561523757600080fd5b825167ffffffffffffffff8082111561524f57600080fd5b818501915085601f83011261526357600080fd5b81518181111561527557615275614c73565b8060051b915061528684830161505a565b81815291830184019184810190888411156152a057600080fd5b938501935b8385101561239f578451825293850193908501906152a5565b73ffffffffffffffffffffffffffffffffffffffff851681526060602082015260006152ed6060830186614d7a565b828103604084015261090f818587614cd1565b60008160010b7fffffffffffffffffffffffffffffffffffffffffffffffffffffffffffff8000810361533557615335614e53565b60000392915050565b6020815260006123036020830184615105565b60007fffffffffffffffffffffffffffffffffffffffffffffffffffffffffffffffff820361538257615382614e53565b5060010190565b7f4e487b7100000000000000000000000000000000000000000000000000000000600052601260045260246000fd5b6000826153ee577f4e487b7100000000000000000000000000000000000000000000000000000000600052601260045260246000fd5b500490565b8082018281126000831280158216821582161715612ded57612ded614e53565b73ffffffffffffffffffffffffffffffffffffffff851681528360208201528260408201526080606082015260006140266080830184615105565b808202600082127f80000000000000000000000000000000000000000000000000000000000000008414161561548657615486614e53565b818105831482151761059257610592614e53565b81810360008312801583831316838312821617156154ba576154ba614e53565b5092915050565b60007f800000000000000000000000000000000000000000000000000000000000000082036154f2576154f2614e53565b506000039056fea2646970667358221220b92ac8c349bf60227c897ee826e39ddf6dc54bafc03aa96eec5ebc0c7370cd8c64736f6c63430008130033",
  "devdoc": {
    "details": "Contract for managing liquidity in a market.",
    "errors": {
      "Empty()": [
        {
          "details": "An operation (e.g. {front}) couldn't be completed due to the queue being empty."
        }
      ],
      "InvalidLpReceiptAction()": [
        {
          "details": "Throws an error indicating that the liquidity receipt action is invalid."
        }
      ],
      "InvalidTransferredTokenAmount()": [
        {
          "details": "Throws an error indicating that the transferred token amount is invalid.      This error is thrown when the transferred token amount does not match the expected amount."
        }
      ],
      "NotClaimableLpReceipt()": [
        {
          "details": "Throws an error indicating that the liquidity receipt is not claimable."
        }
      ],
      "NotExistLpReceipt()": [
        {
          "details": "Throws an error indicating that the specified liquidity receipt does not exist."
        }
      ],
      "NotWithdrawableLpReceipt()": [
        {
          "details": "Throws an error indicating that the liquidity receipt is not withdrawable."
        }
      ],
      "OnlyAccessableByDao()": [
        {
          "details": "Throws an error indicating that the caller is not the DAO."
        }
      ],
      "OnlyAccessableByLiquidator()": [
        {
          "details": "Throws an error indicating that the caller is not the chromatic liquidator contract."
        }
      ],
      "OnlyAccessableByVault()": [
        {
          "details": "Throws an error indicating that the caller is not the chromatch vault contract."
        }
      ],
      "OutOfBounds()": [
        {
          "details": "An operation (e.g. {at}) couldn't be completed due to an index being out of bounds."
        }
      ],
      "TooSmallAmount()": [
        {
          "details": "Throws an error indicating that the amount of liquidity is too small.      This error is thrown when attempting to remove liquidity with an amount of zero."
        }
      ]
    },
    "events": {
      "AddLiquidity((uint256,uint256,uint256,address,uint8,int16))": {
        "details": "Emitted when liquidity is added to the market.",
        "params": {
          "receipt": "The liquidity receipt."
        }
      },
      "AddLiquidityBatch((uint256,uint256,uint256,address,uint8,int16)[])": {
        "details": "Emitted when liquidity is added to the market.",
        "params": {
          "receipts": "An array of LP receipts."
        }
      },
      "ClaimLiquidity((uint256,uint256,uint256,address,uint8,int16),uint256)": {
        "details": "Emitted when liquidity is claimed from the market.",
        "params": {
          "clbTokenAmount": "The amount of CLB tokens claimed.",
          "receipt": "The liquidity receipt."
        }
      },
      "ClaimLiquidityBatch((uint256,uint256,uint256,address,uint8,int16)[],uint256[])": {
        "details": "Emitted when liquidity is claimed from the market.",
        "params": {
          "clbTokenAmounts": "The amount list of CLB tokens claimed.",
          "receipts": "An array of LP receipts."
        }
      },
      "RemoveLiquidity((uint256,uint256,uint256,address,uint8,int16))": {
        "details": "Emitted when liquidity is removed from the market.",
        "params": {
          "receipt": "The liquidity receipt."
        }
      },
      "RemoveLiquidityBatch((uint256,uint256,uint256,address,uint8,int16)[])": {
        "details": "Emitted when liquidity is removed from the market.",
        "params": {
          "receipts": "An array of LP receipts."
        }
      },
      "WithdrawLiquidity((uint256,uint256,uint256,address,uint8,int16),uint256,uint256)": {
        "details": "Emitted when liquidity is withdrawn from the market.",
        "params": {
          "amount": "The amount of liquidity withdrawn.",
          "burnedCLBTokenAmount": "The amount of burned CLB tokens.",
          "receipt": "The liquidity receipt."
        }
      },
      "WithdrawLiquidityBatch((uint256,uint256,uint256,address,uint8,int16)[],uint256[],uint256[])": {
        "details": "Emitted when liquidity is withdrawn from the market.",
        "params": {
          "amounts": "The amount list of liquidity withdrawn.",
          "burnedCLBTokenAmounts": "The amount list of burned CLB tokens.",
          "receipts": "An array of LP receipts."
        }
      }
    },
    "kind": "dev",
    "methods": {
      "addLiquidity(address,int16,bytes)": {
        "details": "Adds liquidity to the market.",
        "params": {
          "data": "Additional data for the liquidity callback.",
          "recipient": "The address to receive the liquidity tokens.",
          "tradingFeeRate": "The trading fee rate for the liquidity."
        },
        "returns": {
          "receipt": "The liquidity receipt."
        }
      },
      "addLiquidityBatch(address,int16[],uint256[],bytes)": {
        "details": "Throws an `InvalidTransferredTokenAmount` error if the transferred amount does not match the sum of amounts param.",
        "params": {
          "amounts": "An array of amounts to add as liquidity for each bin.",
          "data": "Additional data for the liquidity callback.",
          "recipient": "The address of the recipient for each liquidity bin.",
          "tradingFeeRates": "An array of fee rates for each liquidity bin."
        },
        "returns": {
          "receipts": "An array of LP receipts."
        }
      },
      "claimLiquidity(uint256,bytes)": {
        "details": "Throws a `NotExistLpReceipt` error if the liquidity receipt does not exist.      Throws an `InvalidLpReceiptAction` error if the action of liquidity receipt is not `ADD_LIQUIDITY`.      Throws a `NotClaimableLpReceipt` error if the liquidity receipt is not claimable in the current oracle version.",
        "params": {
          "data": "Additional data for the liquidity callback.",
          "receiptId": "The ID of the liquidity receipt."
        }
      },
      "claimLiquidityBatch(uint256[],bytes)": {
        "details": "Throws a `NotExistLpReceipt` error if the liquidity receipt does not exist.      Throws an `InvalidLpReceiptAction` error if the action of liquidity receipt is not `ADD_LIQUIDITY`.      Throws a `NotClaimableLpReceipt` error if the liquidity receipt is not claimable in the current oracle version.",
        "params": {
          "data": "Additional data for the liquidity callback.",
          "receiptIds": "The array of the liquidity receipt IDs."
        }
      },
      "distributeEarningToBins(uint256,uint256)": {
        "details": "Distributes earning to the liquidity bins.",
        "params": {
          "earning": "The amount of earning to distribute.",
          "marketBalance": "The balance of the market."
        }
      },
      "onERC1155BatchReceived(address,address,uint256[],uint256[],bytes)": {
        "details": "Handles the receipt of a multiple ERC1155 token types. This function is called at the end of a `safeBatchTransferFrom` after the balances have been updated. NOTE: To accept the transfer(s), this must return `bytes4(keccak256(\"onERC1155BatchReceived(address,address,uint256[],uint256[],bytes)\"))` (i.e. 0xbc197c81, or its own function selector).",
        "params": {
          "data": "Additional data with no specified format",
          "from": "The address which previously owned the token",
          "ids": "An array containing ids of each token being transferred (order and length must match values array)",
          "operator": "The address which initiated the batch transfer (i.e. msg.sender)",
          "values": "An array containing amounts of each token being transferred (order and length must match ids array)"
        },
        "returns": {
          "_0": "`bytes4(keccak256(\"onERC1155BatchReceived(address,address,uint256[],uint256[],bytes)\"))` if transfer is allowed"
        }
      },
      "onERC1155Received(address,address,uint256,uint256,bytes)": {
        "details": "Handles the receipt of a single ERC1155 token type. This function is called at the end of a `safeTransferFrom` after the balance has been updated. NOTE: To accept the transfer, this must return `bytes4(keccak256(\"onERC1155Received(address,address,uint256,uint256,bytes)\"))` (i.e. 0xf23a6e61, or its own function selector).",
        "params": {
          "data": "Additional data with no specified format",
          "from": "The address which previously owned the token",
          "id": "The ID of the token being transferred",
          "operator": "The address which initiated the transfer (i.e. msg.sender)",
          "value": "The amount of tokens being transferred"
        },
        "returns": {
          "_0": "`bytes4(keccak256(\"onERC1155Received(address,address,uint256,uint256,bytes)\"))` if transfer is allowed"
        }
      },
      "removeLiquidity(address,int16,bytes)": {
        "details": "This function is called by the liquidity provider to remove their liquidity from the market.      The liquidity provider must have previously added liquidity to the market.      Throws a `TooSmallAmount` error if the CLB tokne amount of liquidity to be removed is zero.",
        "params": {
          "data": "Additional data for the liquidity callback.",
          "recipient": "The address to receive the removed liquidity.",
          "tradingFeeRate": "The trading fee rate for the liquidity."
        },
        "returns": {
          "receipt": "The liquidity receipt."
        }
      },
      "removeLiquidityBatch(address,int16[],uint256[],bytes)": {
        "details": "Throws an `InvalidTransferredTokenAmount` error if the transferred CLB token amount does not match the expected amount (clbTokenAmounts param).",
        "params": {
          "clbTokenAmounts": "An array of clb token amounts to remove as liquidity for each bin.",
          "data": "Additional data for the liquidity callback.",
          "recipient": "The address to receive the removed liquidity.",
          "tradingFeeRates": "An array of fee rates for each liquidity bin."
        },
        "returns": {
          "receipts": "The liquidity receipt."
        }
      },
      "supportsInterface(bytes4)": {
        "details": "Returns true if this contract implements the interface defined by `interfaceId`. See the corresponding https://eips.ethereum.org/EIPS/eip-165#how-interfaces-are-identified[EIP section] to learn more about how these ids are created. This function call must use less than 30 000 gas."
      },
      "withdrawLiquidity(uint256,bytes)": {
        "details": "Throws a `NotExistLpReceipt` error if the liquidity receipt does not exist.      Throws an `InvalidLpReceiptAction` error if the action of liquidity receipt is not `REMOVE_LIQUIDITY`.      Throws a `NotWithdrawableLpReceipt` error if the liquidity receipt is not withdrawable in the current oracle version.",
        "params": {
          "data": "Additional data for the liquidity callback.",
          "receiptId": "The ID of the liquidity receipt."
        }
      },
      "withdrawLiquidityBatch(uint256[],bytes)": {
        "details": "Throws a `NotExistLpReceipt` error if the liquidity receipt does not exist.      Throws an `InvalidLpReceiptAction` error if the action of liquidity receipt is not `REMOVE_LIQUIDITY`.      Throws a `NotWithdrawableLpReceipt` error if the liquidity receipt is not withdrawable in the current oracle version.",
        "params": {
          "data": "Additional data for the liquidity callback.",
          "receiptIds": "The array of the liquidity receipt IDs."
        }
      }
    },
    "title": "MarketLiquidityFacet",
    "version": 1
  },
  "userdoc": {
    "kind": "user",
    "methods": {
      "addLiquidityBatch(address,int16[],uint256[],bytes)": {
        "notice": "Adds liquidity to multiple liquidity bins of the market in a batch."
      }
    },
    "version": 1
  },
  "storageLayout": {
    "storage": [
      {
        "astId": 25,
        "contract": "contracts/core/facets/market/MarketLiquidityFacet.sol:MarketLiquidityFacet",
        "label": "_status",
        "offset": 0,
        "slot": "0",
        "type": "t_uint256"
      }
    ],
    "types": {
      "t_uint256": {
        "encoding": "inplace",
        "label": "uint256",
        "numberOfBytes": "32"
      }
    }
  }
}