{
  "address": "0x460248fDd9Ff3c64534b917D7f03907E24644E98",
  "abi": [
    {
      "inputs": [],
      "name": "Empty",
      "type": "error"
    },
    {
      "inputs": [],
      "name": "InvalidLpReceiptAction",
      "type": "error"
    },
    {
      "inputs": [],
      "name": "InvalidTransferredTokenAmount",
      "type": "error"
    },
    {
      "inputs": [],
      "name": "NotClaimableLpReceipt",
      "type": "error"
    },
    {
      "inputs": [],
      "name": "NotExistLpReceipt",
      "type": "error"
    },
    {
      "inputs": [],
      "name": "NotWithdrawableLpReceipt",
      "type": "error"
    },
    {
      "inputs": [],
      "name": "OnlyAccessableByDao",
      "type": "error"
    },
    {
      "inputs": [],
      "name": "OnlyAccessableByLiquidator",
      "type": "error"
    },
    {
      "inputs": [],
      "name": "OnlyAccessableByVault",
      "type": "error"
    },
    {
      "inputs": [],
      "name": "OutOfBounds",
      "type": "error"
    },
    {
      "inputs": [],
      "name": "TooSmallAmount",
      "type": "error"
    },
    {
      "inputs": [
        {
          "internalType": "int256",
          "name": "value",
          "type": "int256"
        }
      ],
      "name": "UFixed18UnderflowError",
      "type": "error"
    },
    {
      "anonymous": false,
      "inputs": [
        {
          "components": [
            {
              "internalType": "uint256",
              "name": "id",
              "type": "uint256"
            },
            {
              "internalType": "uint256",
              "name": "oracleVersion",
              "type": "uint256"
            },
            {
              "internalType": "uint256",
              "name": "amount",
              "type": "uint256"
            },
            {
              "internalType": "address",
              "name": "recipient",
              "type": "address"
            },
            {
              "internalType": "enum LpAction",
              "name": "action",
              "type": "uint8"
            },
            {
              "internalType": "int16",
              "name": "tradingFeeRate",
              "type": "int16"
            }
          ],
          "indexed": false,
          "internalType": "struct LpReceipt",
          "name": "receipt",
          "type": "tuple"
        }
      ],
      "name": "AddLiquidity",
      "type": "event"
    },
    {
      "anonymous": false,
      "inputs": [
        {
          "components": [
            {
              "internalType": "uint256",
              "name": "id",
              "type": "uint256"
            },
            {
              "internalType": "uint256",
              "name": "oracleVersion",
              "type": "uint256"
            },
            {
              "internalType": "uint256",
              "name": "amount",
              "type": "uint256"
            },
            {
              "internalType": "address",
              "name": "recipient",
              "type": "address"
            },
            {
              "internalType": "enum LpAction",
              "name": "action",
              "type": "uint8"
            },
            {
              "internalType": "int16",
              "name": "tradingFeeRate",
              "type": "int16"
            }
          ],
          "indexed": false,
          "internalType": "struct LpReceipt[]",
          "name": "receipts",
          "type": "tuple[]"
        }
      ],
      "name": "AddLiquidityBatch",
      "type": "event"
    },
    {
      "anonymous": false,
      "inputs": [
        {
          "components": [
            {
              "internalType": "uint256",
              "name": "id",
              "type": "uint256"
            },
            {
              "internalType": "uint256",
              "name": "oracleVersion",
              "type": "uint256"
            },
            {
              "internalType": "uint256",
              "name": "amount",
              "type": "uint256"
            },
            {
              "internalType": "address",
              "name": "recipient",
              "type": "address"
            },
            {
              "internalType": "enum LpAction",
              "name": "action",
              "type": "uint8"
            },
            {
              "internalType": "int16",
              "name": "tradingFeeRate",
              "type": "int16"
            }
          ],
          "indexed": false,
          "internalType": "struct LpReceipt",
          "name": "receipt",
          "type": "tuple"
        },
        {
          "indexed": true,
          "internalType": "uint256",
          "name": "clbTokenAmount",
          "type": "uint256"
        }
      ],
      "name": "ClaimLiquidity",
      "type": "event"
    },
    {
      "anonymous": false,
      "inputs": [
        {
          "components": [
            {
              "internalType": "uint256",
              "name": "id",
              "type": "uint256"
            },
            {
              "internalType": "uint256",
              "name": "oracleVersion",
              "type": "uint256"
            },
            {
              "internalType": "uint256",
              "name": "amount",
              "type": "uint256"
            },
            {
              "internalType": "address",
              "name": "recipient",
              "type": "address"
            },
            {
              "internalType": "enum LpAction",
              "name": "action",
              "type": "uint8"
            },
            {
              "internalType": "int16",
              "name": "tradingFeeRate",
              "type": "int16"
            }
          ],
          "indexed": false,
          "internalType": "struct LpReceipt[]",
          "name": "receipts",
          "type": "tuple[]"
        },
        {
          "indexed": false,
          "internalType": "uint256[]",
          "name": "clbTokenAmounts",
          "type": "uint256[]"
        }
      ],
      "name": "ClaimLiquidityBatch",
      "type": "event"
    },
    {
      "anonymous": false,
      "inputs": [
        {
          "components": [
            {
              "internalType": "uint256",
              "name": "id",
              "type": "uint256"
            },
            {
              "internalType": "uint256",
              "name": "oracleVersion",
              "type": "uint256"
            },
            {
              "internalType": "uint256",
              "name": "amount",
              "type": "uint256"
            },
            {
              "internalType": "address",
              "name": "recipient",
              "type": "address"
            },
            {
              "internalType": "enum LpAction",
              "name": "action",
              "type": "uint8"
            },
            {
              "internalType": "int16",
              "name": "tradingFeeRate",
              "type": "int16"
            }
          ],
          "indexed": false,
          "internalType": "struct LpReceipt",
          "name": "receipt",
          "type": "tuple"
        }
      ],
      "name": "RemoveLiquidity",
      "type": "event"
    },
    {
      "anonymous": false,
      "inputs": [
        {
          "components": [
            {
              "internalType": "uint256",
              "name": "id",
              "type": "uint256"
            },
            {
              "internalType": "uint256",
              "name": "oracleVersion",
              "type": "uint256"
            },
            {
              "internalType": "uint256",
              "name": "amount",
              "type": "uint256"
            },
            {
              "internalType": "address",
              "name": "recipient",
              "type": "address"
            },
            {
              "internalType": "enum LpAction",
              "name": "action",
              "type": "uint8"
            },
            {
              "internalType": "int16",
              "name": "tradingFeeRate",
              "type": "int16"
            }
          ],
          "indexed": false,
          "internalType": "struct LpReceipt[]",
          "name": "receipts",
          "type": "tuple[]"
        }
      ],
      "name": "RemoveLiquidityBatch",
      "type": "event"
    },
    {
      "anonymous": false,
      "inputs": [
        {
          "components": [
            {
              "internalType": "uint256",
              "name": "id",
              "type": "uint256"
            },
            {
              "internalType": "uint256",
              "name": "oracleVersion",
              "type": "uint256"
            },
            {
              "internalType": "uint256",
              "name": "amount",
              "type": "uint256"
            },
            {
              "internalType": "address",
              "name": "recipient",
              "type": "address"
            },
            {
              "internalType": "enum LpAction",
              "name": "action",
              "type": "uint8"
            },
            {
              "internalType": "int16",
              "name": "tradingFeeRate",
              "type": "int16"
            }
          ],
          "indexed": false,
          "internalType": "struct LpReceipt",
          "name": "receipt",
          "type": "tuple"
        },
        {
          "indexed": true,
          "internalType": "uint256",
          "name": "amount",
          "type": "uint256"
        },
        {
          "indexed": true,
          "internalType": "uint256",
          "name": "burnedCLBTokenAmount",
          "type": "uint256"
        }
      ],
      "name": "WithdrawLiquidity",
      "type": "event"
    },
    {
      "anonymous": false,
      "inputs": [
        {
          "components": [
            {
              "internalType": "uint256",
              "name": "id",
              "type": "uint256"
            },
            {
              "internalType": "uint256",
              "name": "oracleVersion",
              "type": "uint256"
            },
            {
              "internalType": "uint256",
              "name": "amount",
              "type": "uint256"
            },
            {
              "internalType": "address",
              "name": "recipient",
              "type": "address"
            },
            {
              "internalType": "enum LpAction",
              "name": "action",
              "type": "uint8"
            },
            {
              "internalType": "int16",
              "name": "tradingFeeRate",
              "type": "int16"
            }
          ],
          "indexed": false,
          "internalType": "struct LpReceipt[]",
          "name": "receipts",
          "type": "tuple[]"
        },
        {
          "indexed": false,
          "internalType": "uint256[]",
          "name": "amounts",
          "type": "uint256[]"
        },
        {
          "indexed": false,
          "internalType": "uint256[]",
          "name": "burnedCLBTokenAmounts",
          "type": "uint256[]"
        }
      ],
      "name": "WithdrawLiquidityBatch",
      "type": "event"
    },
    {
      "inputs": [
        {
          "internalType": "address",
          "name": "recipient",
          "type": "address"
        },
        {
          "internalType": "int16",
          "name": "tradingFeeRate",
          "type": "int16"
        },
        {
          "internalType": "bytes",
          "name": "data",
          "type": "bytes"
        }
      ],
      "name": "addLiquidity",
      "outputs": [
        {
          "components": [
            {
              "internalType": "uint256",
              "name": "id",
              "type": "uint256"
            },
            {
              "internalType": "uint256",
              "name": "oracleVersion",
              "type": "uint256"
            },
            {
              "internalType": "uint256",
              "name": "amount",
              "type": "uint256"
            },
            {
              "internalType": "address",
              "name": "recipient",
              "type": "address"
            },
            {
              "internalType": "enum LpAction",
              "name": "action",
              "type": "uint8"
            },
            {
              "internalType": "int16",
              "name": "tradingFeeRate",
              "type": "int16"
            }
          ],
          "internalType": "struct LpReceipt",
          "name": "receipt",
          "type": "tuple"
        }
      ],
      "stateMutability": "nonpayable",
      "type": "function"
    },
    {
      "inputs": [
        {
          "internalType": "address",
          "name": "recipient",
          "type": "address"
        },
        {
          "internalType": "int16[]",
          "name": "tradingFeeRates",
          "type": "int16[]"
        },
        {
          "internalType": "uint256[]",
          "name": "amounts",
          "type": "uint256[]"
        },
        {
          "internalType": "bytes",
          "name": "data",
          "type": "bytes"
        }
      ],
      "name": "addLiquidityBatch",
      "outputs": [
        {
          "components": [
            {
              "internalType": "uint256",
              "name": "id",
              "type": "uint256"
            },
            {
              "internalType": "uint256",
              "name": "oracleVersion",
              "type": "uint256"
            },
            {
              "internalType": "uint256",
              "name": "amount",
              "type": "uint256"
            },
            {
              "internalType": "address",
              "name": "recipient",
              "type": "address"
            },
            {
              "internalType": "enum LpAction",
              "name": "action",
              "type": "uint8"
            },
            {
              "internalType": "int16",
              "name": "tradingFeeRate",
              "type": "int16"
            }
          ],
          "internalType": "struct LpReceipt[]",
          "name": "receipts",
          "type": "tuple[]"
        }
      ],
      "stateMutability": "nonpayable",
      "type": "function"
    },
    {
      "inputs": [
        {
          "internalType": "uint256",
          "name": "receiptId",
          "type": "uint256"
        },
        {
          "internalType": "bytes",
          "name": "data",
          "type": "bytes"
        }
      ],
      "name": "claimLiquidity",
      "outputs": [],
      "stateMutability": "nonpayable",
      "type": "function"
    },
    {
      "inputs": [
        {
          "internalType": "uint256[]",
          "name": "receiptIds",
          "type": "uint256[]"
        },
        {
          "internalType": "bytes",
          "name": "data",
          "type": "bytes"
        }
      ],
      "name": "claimLiquidityBatch",
      "outputs": [],
      "stateMutability": "nonpayable",
      "type": "function"
    },
    {
      "inputs": [
        {
          "internalType": "int16",
          "name": "tradingFeeRate",
          "type": "int16"
        },
        {
          "internalType": "uint256",
          "name": "oracleVersion",
          "type": "uint256"
        }
      ],
      "name": "claimableLiquidity",
      "outputs": [
        {
          "components": [
            {
              "internalType": "uint256",
              "name": "mintingTokenAmountRequested",
              "type": "uint256"
            },
            {
              "internalType": "uint256",
              "name": "mintingCLBTokenAmount",
              "type": "uint256"
            },
            {
              "internalType": "uint256",
              "name": "burningCLBTokenAmountRequested",
              "type": "uint256"
            },
            {
              "internalType": "uint256",
              "name": "burningCLBTokenAmount",
              "type": "uint256"
            },
            {
              "internalType": "uint256",
              "name": "burningTokenAmount",
              "type": "uint256"
            }
          ],
          "internalType": "struct IMarketLiquidity.ClaimableLiquidity",
          "name": "",
          "type": "tuple"
        }
      ],
      "stateMutability": "view",
      "type": "function"
    },
    {
      "inputs": [
        {
          "internalType": "uint256",
          "name": "earning",
          "type": "uint256"
        },
        {
          "internalType": "uint256",
          "name": "marketBalance",
          "type": "uint256"
        }
      ],
      "name": "distributeEarningToBins",
      "outputs": [],
      "stateMutability": "nonpayable",
      "type": "function"
    },
    {
      "inputs": [
        {
          "internalType": "int16",
          "name": "tradingFeeRate",
          "type": "int16"
        }
      ],
      "name": "getBinFreeLiquidity",
      "outputs": [
        {
          "internalType": "uint256",
          "name": "amount",
          "type": "uint256"
        }
      ],
      "stateMutability": "view",
      "type": "function"
    },
    {
      "inputs": [
        {
          "internalType": "int16",
          "name": "tradingFeeRate",
          "type": "int16"
        }
      ],
      "name": "getBinLiquidity",
      "outputs": [
        {
          "internalType": "uint256",
          "name": "amount",
          "type": "uint256"
        }
      ],
      "stateMutability": "view",
      "type": "function"
    },
    {
      "inputs": [
        {
          "internalType": "int16[]",
          "name": "tradingFeeRates",
          "type": "int16[]"
        }
      ],
      "name": "getBinValues",
      "outputs": [
        {
          "internalType": "uint256[]",
          "name": "",
          "type": "uint256[]"
        }
      ],
      "stateMutability": "view",
      "type": "function"
    },
    {
      "inputs": [
        {
          "internalType": "uint256",
          "name": "receiptId",
          "type": "uint256"
        }
      ],
      "name": "getLpReceipt",
      "outputs": [
        {
          "components": [
            {
              "internalType": "uint256",
              "name": "id",
              "type": "uint256"
            },
            {
              "internalType": "uint256",
              "name": "oracleVersion",
              "type": "uint256"
            },
            {
              "internalType": "uint256",
              "name": "amount",
              "type": "uint256"
            },
            {
              "internalType": "address",
              "name": "recipient",
              "type": "address"
            },
            {
              "internalType": "enum LpAction",
              "name": "action",
              "type": "uint8"
            },
            {
              "internalType": "int16",
              "name": "tradingFeeRate",
              "type": "int16"
            }
          ],
          "internalType": "struct LpReceipt",
          "name": "receipt",
          "type": "tuple"
        }
      ],
      "stateMutability": "view",
      "type": "function"
    },
    {
      "inputs": [],
      "name": "liquidityBinStatuses",
      "outputs": [
        {
          "components": [
            {
              "internalType": "uint256",
              "name": "liquidity",
              "type": "uint256"
            },
            {
              "internalType": "uint256",
              "name": "freeLiquidity",
              "type": "uint256"
            },
            {
              "internalType": "uint256",
              "name": "binValue",
              "type": "uint256"
            },
            {
              "internalType": "int16",
              "name": "tradingFeeRate",
              "type": "int16"
            }
          ],
          "internalType": "struct IMarketLiquidity.LiquidityBinStatus[]",
          "name": "",
          "type": "tuple[]"
        }
      ],
      "stateMutability": "view",
      "type": "function"
    },
    {
      "inputs": [
        {
          "internalType": "address",
          "name": "",
          "type": "address"
        },
        {
          "internalType": "address",
          "name": "",
          "type": "address"
        },
        {
          "internalType": "uint256[]",
          "name": "",
          "type": "uint256[]"
        },
        {
          "internalType": "uint256[]",
          "name": "",
          "type": "uint256[]"
        },
        {
          "internalType": "bytes",
          "name": "",
          "type": "bytes"
        }
      ],
      "name": "onERC1155BatchReceived",
      "outputs": [
        {
          "internalType": "bytes4",
          "name": "",
          "type": "bytes4"
        }
      ],
      "stateMutability": "pure",
      "type": "function"
    },
    {
      "inputs": [
        {
          "internalType": "address",
          "name": "",
          "type": "address"
        },
        {
          "internalType": "address",
          "name": "",
          "type": "address"
        },
        {
          "internalType": "uint256",
          "name": "",
          "type": "uint256"
        },
        {
          "internalType": "uint256",
          "name": "",
          "type": "uint256"
        },
        {
          "internalType": "bytes",
          "name": "",
          "type": "bytes"
        }
      ],
      "name": "onERC1155Received",
      "outputs": [
        {
          "internalType": "bytes4",
          "name": "",
          "type": "bytes4"
        }
      ],
      "stateMutability": "pure",
      "type": "function"
    },
    {
      "inputs": [
        {
          "internalType": "address",
          "name": "recipient",
          "type": "address"
        },
        {
          "internalType": "int16",
          "name": "tradingFeeRate",
          "type": "int16"
        },
        {
          "internalType": "bytes",
          "name": "data",
          "type": "bytes"
        }
      ],
      "name": "removeLiquidity",
      "outputs": [
        {
          "components": [
            {
              "internalType": "uint256",
              "name": "id",
              "type": "uint256"
            },
            {
              "internalType": "uint256",
              "name": "oracleVersion",
              "type": "uint256"
            },
            {
              "internalType": "uint256",
              "name": "amount",
              "type": "uint256"
            },
            {
              "internalType": "address",
              "name": "recipient",
              "type": "address"
            },
            {
              "internalType": "enum LpAction",
              "name": "action",
              "type": "uint8"
            },
            {
              "internalType": "int16",
              "name": "tradingFeeRate",
              "type": "int16"
            }
          ],
          "internalType": "struct LpReceipt",
          "name": "receipt",
          "type": "tuple"
        }
      ],
      "stateMutability": "nonpayable",
      "type": "function"
    },
    {
      "inputs": [
        {
          "internalType": "address",
          "name": "recipient",
          "type": "address"
        },
        {
          "internalType": "int16[]",
          "name": "tradingFeeRates",
          "type": "int16[]"
        },
        {
          "internalType": "uint256[]",
          "name": "clbTokenAmounts",
          "type": "uint256[]"
        },
        {
          "internalType": "bytes",
          "name": "data",
          "type": "bytes"
        }
      ],
      "name": "removeLiquidityBatch",
      "outputs": [
        {
          "components": [
            {
              "internalType": "uint256",
              "name": "id",
              "type": "uint256"
            },
            {
              "internalType": "uint256",
              "name": "oracleVersion",
              "type": "uint256"
            },
            {
              "internalType": "uint256",
              "name": "amount",
              "type": "uint256"
            },
            {
              "internalType": "address",
              "name": "recipient",
              "type": "address"
            },
            {
              "internalType": "enum LpAction",
              "name": "action",
              "type": "uint8"
            },
            {
              "internalType": "int16",
              "name": "tradingFeeRate",
              "type": "int16"
            }
          ],
          "internalType": "struct LpReceipt[]",
          "name": "receipts",
          "type": "tuple[]"
        }
      ],
      "stateMutability": "nonpayable",
      "type": "function"
    },
    {
      "inputs": [
        {
          "internalType": "bytes4",
          "name": "interfaceID",
          "type": "bytes4"
        }
      ],
      "name": "supportsInterface",
      "outputs": [
        {
          "internalType": "bool",
          "name": "",
          "type": "bool"
        }
      ],
      "stateMutability": "pure",
      "type": "function"
    },
    {
      "inputs": [
        {
          "internalType": "uint256",
          "name": "receiptId",
          "type": "uint256"
        },
        {
          "internalType": "bytes",
          "name": "data",
          "type": "bytes"
        }
      ],
      "name": "withdrawLiquidity",
      "outputs": [],
      "stateMutability": "nonpayable",
      "type": "function"
    },
    {
      "inputs": [
        {
          "internalType": "uint256[]",
          "name": "receiptIds",
          "type": "uint256[]"
        },
        {
          "internalType": "bytes",
          "name": "data",
          "type": "bytes"
        }
      ],
      "name": "withdrawLiquidityBatch",
      "outputs": [],
      "stateMutability": "nonpayable",
      "type": "function"
    }
  ],
  "transactionHash": "0x986d1f45334d72298193589ccbdd28075c753dc8b6a9e62ae157580de06acaec",
  "args": [],
  "numDeployments": 3,
  "solcInputHash": "c3a3aa6825039bf158183995a7642b86",
  "bytecode": "0x608060405234801561001057600080fd5b506001600055615dcf80620000266000396000f3fe608060405234801561001057600080fd5b50600436106101355760003560e01c8063abfefb90116100b2578063bc197c8111610081578063e691975f11610066578063e691975f14610333578063f23a6e6114610346578063faf07bf31461037f57600080fd5b8063bc197c81146102a6578063d59e2d231461031257600080fd5b8063abfefb901461025a578063b21837e01461026d578063b79711e114610280578063b9d3e6971461029357600080fd5b806328b5bd1e116101095780635cefa9fb116100ee5780635cefa9fb146101d2578063766e1b17146102275780638c4bdb3f1461023a57600080fd5b806328b5bd1e146101aa57806338085c3d146101bd57600080fd5b80623fb6531461013a57806301ffc9a71461014f57806311753f761461017757806328700ad21461018a575b600080fd5b61014d610148366004614eef565b61039f565b005b61016261015d366004614f5b565b610632565b60405190151581526020015b60405180910390f35b61014d610185366004614f9d565b6106cb565b61019d61019836600461500d565b61081a565b60405161016e91906151b3565b61014d6101b83660046151c6565b610a4d565b6101c5610aef565b60405161016e91906151e8565b6101e56101e0366004615264565b610b2e565b60405161016e9190600060a082019050825182526020830151602083015260408301516040830152606083015160608301526080830151608083015292915050565b61019d61023536600461500d565b610b92565b61024d61024836600461528e565b610d24565b60405161016e91906152e3565b61014d610268366004614f9d565b610fd1565b61024d61027b36600461528e565b611114565b61024d61028e3660046152f1565b6113f8565b61014d6102a1366004614eef565b61142a565b6102e16102b436600461530a565b7fbc197c810000000000000000000000000000000000000000000000000000000098975050505050505050565b6040517fffffffff00000000000000000000000000000000000000000000000000000000909116815260200161016e565b6103256103203660046153c5565b61171d565b60405190815260200161016e565b6103256103413660046153c5565b611749565b6102e16103543660046153e0565b7ff23a6e61000000000000000000000000000000000000000000000000000000009695505050505050565b61039261038d3660046154fa565b611775565b60405161016e91906155bc565b6103a7611877565b7f02954dff85197d438345422dfe525d02fbd6a12c9028d5d8c7ab5386d34713307f492a974aed1be5cd7fa4ce3b0cfab809a1de17af5ade68dd0729b36f2ed097937f492a974aed1be5cd7fa4ce3b0cfab809a1de17af5ade68dd0729b36f2ed0979a6000610415836118ef565b905061042081611a64565b60008767ffffffffffffffff81111561043b5761043b615458565b60405190808252806020026020018201604052801561047457816020015b610461614de5565b8152602001906001900390816104595790505b50905060008867ffffffffffffffff81111561049257610492615458565b6040519080825280602002602001820160405280156104bb578160200160208202803683370190505b50905060005b8981101561052f576104ed8488878e8e868181106104e1576104e16155cf565b90506020020135611ae1565b8483815181106104ff576104ff6155cf565b60200260200101848481518110610518576105186155cf565b6020908102919091010191909152526001016104c1565b506040517f96ca576900000000000000000000000000000000000000000000000000000000815233906396ca576990610572908d908d908d908d90600401615647565b600060405180830381600087803b15801561058c57600080fd5b505af11580156105a0573d6000803e3d6000fd5b505050506105e38a8a808060200260200160405190810160405280939291908181526020018383602002808284376000920191909152508a93925050611c5e9050565b7f22875dbbffa39e131ff65b9db59941f128c02bb4ae1912cd52d0d790fbf2f70d82826040516106149291906156a7565b60405180910390a150505050505061062c6001600055565b50505050565b60007fffffffff0000000000000000000000000000000000000000000000000000000082167f01ffc9a70000000000000000000000000000000000000000000000000000000014806106c557507fffffffff0000000000000000000000000000000000000000000000000000000082167f4e2312e000000000000000000000000000000000000000000000000000000000145b92915050565b6106d3611877565b7f02954dff85197d438345422dfe525d02fbd6a12c9028d5d8c7ab5386d34713307f492a974aed1be5cd7fa4ce3b0cfab809a1de17af5ade68dd0729b36f2ed097936000610720826118ef565b905061072b81611a64565b600080600061073f8487876007018c611ce0565b6040517ff817b6260000000000000000000000000000000000000000000000000000000081529295509093509150339063f817b62690610787908c908c908c906004016156cc565b600060405180830381600087803b1580156107a157600080fd5b505af11580156107b5573d6000803e3d6000fd5b505050506107cc8987611ef290919063ffffffff16565b80827fc1ccfe14e3d70f169361003a5b4802b32ed89bcde54a8dbf9322e148107ade27856040516107fd91906152e3565b60405180910390a35050505050506108156001600055565b505050565b6060610824611877565b85841461083057600080fd5b7f492a974aed1be5cd7fa4ce3b0cfab809a1de17af5ade68dd0729b36f2ed097937f492a974aed1be5cd7fa4ce3b0cfab809a1de17af5ade68dd0729b36f2ed0979a600061087d836118ef565b905061088881611a64565b6000610897828a8a8a8a611f3c565b60408381015160a085015191517f113217fc00000000000000000000000000000000000000000000000000000000815273ffffffffffffffffffffffffffffffffffffffff928316600482015260248101849052929350169063113217fc90604401600060405180830381600087803b15801561091357600080fd5b505af1158015610927573d6000803e3d6000fd5b508c9250505067ffffffffffffffff81111561094557610945615458565b60405190808252806020026020018201604052801561097e57816020015b61096b614de5565b8152602001906001900390816109635790505b50945060005b8a8110156109fc576109d783858f8f8f868181106109a4576109a46155cf565b90506020020160208101906109b991906153c5565b8e8e878181106109cb576109cb6155cf565b90506020020135612173565b8682815181106109e9576109e96155cf565b6020908102919091010152600101610984565b507f5a82a9516046d00f570c5d19514b049f319fff6fb10e1b6b202cef82cba45d8685604051610a2c91906151b3565b60405180910390a150505050610a426001600055565b979650505050505050565b7f492a974aed1be5cd7fa4ce3b0cfab809a1de17af5ade68dd0729b36f2ed097936005015473ffffffffffffffffffffffffffffffffffffffff163314610ac0576040517f6c7e0fa500000000000000000000000000000000000000000000000000000000815260040160405180910390fd5b610aeb7f492a974aed1be5cd7fa4ce3b0cfab809a1de17af5ade68dd0729b36f2ed0979a83836121ca565b5050565b60607f492a974aed1be5cd7fa4ce3b0cfab809a1de17af5ade68dd0729b36f2ed09793610b28610b1e826118ef565b6007830190612244565b91505090565b610b606040518060a0016040528060008152602001600081526020016000815260200160008152602001600081525090565b610b8b7f492a974aed1be5cd7fa4ce3b0cfab809a1de17af5ade68dd0729b36f2ed0979a8484612402565b9392505050565b6060610b9c611877565b858414610ba857600080fd5b7f492a974aed1be5cd7fa4ce3b0cfab809a1de17af5ade68dd0729b36f2ed097937f492a974aed1be5cd7fa4ce3b0cfab809a1de17af5ade68dd0729b36f2ed0979a6000610bf5836118ef565b9050610c0081611a64565b610c0f818b8b8b8b8b8b612462565b8867ffffffffffffffff811115610c2857610c28615458565b604051908082528060200260200182016040528015610c6157816020015b610c4e614de5565b815260200190600190039081610c465790505b50935060005b89811015610cdf57610cba82848e8e8e86818110610c8757610c876155cf565b9050602002016020810190610c9c91906153c5565b8d8d87818110610cae57610cae6155cf565b9050602002013561282a565b858281518110610ccc57610ccc6155cf565b6020908102919091010152600101610c67565b507f02b5d0edb5105e66367cbe2a09b5a2bf0070d5d90f9c39e1d583605c401903dd84604051610d0f91906151b3565b60405180910390a1505050610a426001600055565b610d2c614de5565b610d34611877565b7f492a974aed1be5cd7fa4ce3b0cfab809a1de17af5ade68dd0729b36f2ed097936000610d60826118ef565b9050610d6b81611a64565b6000610d768761284c565b60608301516040517efdd58e0000000000000000000000000000000000000000000000000000000081523060048201526024810183905291925060009173ffffffffffffffffffffffffffffffffffffffff9091169062fdd58e90604401602060405180830381865afa158015610df1573d6000803e3d6000fd5b505050506040513d601f19601f82011682018060405250810190610e1591906156e6565b60608401516040517f5a80e0800000000000000000000000000000000000000000000000000000000081529192503391635a80e08091610e5d9186908c908c906004016156ff565b600060405180830381600087803b158015610e7757600080fd5b505af1158015610e8b573d6000803e3d6000fd5b50505060608401516040517efdd58e0000000000000000000000000000000000000000000000000000000081523060048201526024810185905260009250839173ffffffffffffffffffffffffffffffffffffffff169062fdd58e90604401602060405180830381865afa158015610f07573d6000803e3d6000fd5b505050506040513d601f19601f82011682018060405250810190610f2b91906156e6565b610f35919061576e565b905080600003610f71576040517f22313ae900000000000000000000000000000000000000000000000000000000815260040160405180910390fd5b610f8184866007018c8c8561282a565b95507fc069ad7785923447a16c7076f192be05f20f7a3bfc86f34cde112985dc5a532e86604051610fb291906152e3565b60405180910390a15050505050610fc96001600055565b949350505050565b610fd9611877565b7f02954dff85197d438345422dfe525d02fbd6a12c9028d5d8c7ab5386d34713307f492a974aed1be5cd7fa4ce3b0cfab809a1de17af5ade68dd0729b36f2ed097936000611026826118ef565b905061103181611a64565b6000806110438386866007018b611ae1565b6040517f3b23ff6700000000000000000000000000000000000000000000000000000000815291935091503390633b23ff6790611088908b908b908b906004016156cc565b600060405180830381600087803b1580156110a257600080fd5b505af11580156110b6573d6000803e3d6000fd5b505050506110cd8886611ef290919063ffffffff16565b807ff9fd7f21b2563662ef2017bde6ec398623746e8492ffb0eabbf4e1f2cd164250836040516110fd91906152e3565b60405180910390a250505050506108156001600055565b61111c614de5565b611124611877565b7f492a974aed1be5cd7fa4ce3b0cfab809a1de17af5ade68dd0729b36f2ed097936000611150826118ef565b905061115b81611a64565b60a081015160408083015190517f70a0823100000000000000000000000000000000000000000000000000000000815273ffffffffffffffffffffffffffffffffffffffff8083166004830152600091908416906370a0823190602401602060405180830381865afa1580156111d5573d6000803e3d6000fd5b505050506040513d601f19601f820116820180604052508101906111f991906156e6565b6040517f970d1d6f000000000000000000000000000000000000000000000000000000008152909150339063970d1d6f9061123e90869086908d908d90600401615781565b600060405180830381600087803b15801561125857600080fd5b505af115801561126c573d6000803e3d6000fd5b50506040517f70a0823100000000000000000000000000000000000000000000000000000000815273ffffffffffffffffffffffffffffffffffffffff8581166004830152600093508492508616906370a0823190602401602060405180830381865afa1580156112e1573d6000803e3d6000fd5b505050506040513d601f19601f8201168201806040525081019061130591906156e6565b61130f919061576e565b60a08601516040517f113217fc00000000000000000000000000000000000000000000000000000000815273ffffffffffffffffffffffffffffffffffffffff91821660048201526024810183905291925084169063113217fc90604401600060405180830381600087803b15801561138757600080fd5b505af115801561139b573d6000803e3d6000fd5b505050506113af85876007018d8d85612173565b96507f63bd6e249680e9ee813c9849b8d012c8aa96ede228ad3a776cecbbc380e7477d876040516113e091906152e3565b60405180910390a1505050505050610fc96001600055565b611400614de5565b6106c57f02954dff85197d438345422dfe525d02fbd6a12c9028d5d8c7ab5386d347133083612873565b611432611877565b7f02954dff85197d438345422dfe525d02fbd6a12c9028d5d8c7ab5386d34713307f492a974aed1be5cd7fa4ce3b0cfab809a1de17af5ade68dd0729b36f2ed097937f492a974aed1be5cd7fa4ce3b0cfab809a1de17af5ade68dd0729b36f2ed0979a60006114a0836118ef565b90506114ab81611a64565b60008767ffffffffffffffff8111156114c6576114c6615458565b6040519080825280602002602001820160405280156114ff57816020015b6114ec614de5565b8152602001906001900390816114e45790505b50905060008867ffffffffffffffff81111561151d5761151d615458565b604051908082528060200260200182016040528015611546578160200160208202803683370190505b50905060008967ffffffffffffffff81111561156457611564615458565b60405190808252806020026020018201604052801561158d578160200160208202803683370190505b50905060005b8a81101561161d576115bf8589888f8f868181106115b3576115b36155cf565b90506020020135611ce0565b8684815181106115d1576115d16155cf565b602002602001018685815181106115ea576115ea6155cf565b60200260200101868681518110611603576116036155cf565b602090810291909101019290925291905252600101611593565b506040517fe96401a8000000000000000000000000000000000000000000000000000000008152339063e96401a890611660908e908e908e908e90600401615647565b600060405180830381600087803b15801561167a57600080fd5b505af115801561168e573d6000803e3d6000fd5b505050506116d18b8b808060200260200160405190810160405280939291908181526020018383602002808284376000920191909152508b93925050611c5e9050565b7fe69c861767c66cb9b7afe76377494517c4770a517e36613806121c143f458747838383604051611704939291906157bb565b60405180910390a15050505050505061062c6001600055565b60006106c57f492a974aed1be5cd7fa4ce3b0cfab809a1de17af5ade68dd0729b36f2ed0979a836128c3565b60006106c57f492a974aed1be5cd7fa4ce3b0cfab809a1de17af5ade68dd0729b36f2ed0979a836128db565b60607f492a974aed1be5cd7fa4ce3b0cfab809a1de17af5ade68dd0729b36f2ed097937f492a974aed1be5cd7fa4ce3b0cfab809a1de17af5ade68dd0729b36f2ed0979a60006117c4836118ef565b90506000855167ffffffffffffffff8111156117e2576117e2615458565b60405190808252806020026020018201604052801561180b578160200160208202803683370190505b50905060005b865181101561186d5761184887828151811061182f5761182f6155cf565b602002602001015184866128f59092919063ffffffff16565b82828151811061185a5761185a6155cf565b6020908102919091010152600101611811565b5095945050505050565b6002600054036118e8576040517f08c379a000000000000000000000000000000000000000000000000000000000815260206004820152601f60248201527f5265656e7472616e637947756172643a207265656e7472616e742063616c6c0060448201526064015b60405180910390fd5b6002600055565b61194a60408051610100810182526000808252602080830182905282840182905260608084018390526080840183905260a0840183905260c0840183905284519081018552828152908101829052928301529060e082015290565b61196e60405180606001604052806000815260200160008152602001600081525090565b6040805161010081018252600185015473ffffffffffffffffffffffffffffffffffffffff9081168252855481166020808401919091526005870154821683850152600387015482166060840152306080840152600287015490911660a0830181905283517f313ce5670000000000000000000000000000000000000000000000000000000081529351929360c0850193919263313ce567926004808401938290030181865afa158015611a26573d6000803e3d6000fd5b505050506040513d601f19601f82011682018060405250810190611a4a91906157f4565b611a5590600a615937565b81526020019190915292915050565b806000015173ffffffffffffffffffffffffffffffffffffffff1663fff6cae96040518163ffffffff1660e01b81526004016060604051808303816000875af1158015611ab5573d6000803e3d6000fd5b505050506040513d601f19601f82011682018060405250810190611ad99190615946565b60e090910152565b611ae9614de5565b6000611af58584612873565b9150600082608001516001811115611b0f57611b0f6150b8565b14611b46576040517f35c67ed100000000000000000000000000000000000000000000000000000000815260040160405180910390fd5b6020820151611b5690879061290b565b611b8c576040517fd54b668800000000000000000000000000000000000000000000000000000000815260040160405180910390fd5b60a082015160408301516020840151611ba89287928a9261292a565b9050856060015173ffffffffffffffffffffffffffffffffffffffff1663f242432a308460600151611bd98661295c565b604080516020810182526000815290517fffffffff0000000000000000000000000000000000000000000000000000000060e087901b168152611c23949392918891600401615a06565b600060405180830381600087803b158015611c3d57600080fd5b505af1158015611c51573d6000803e3d6000fd5b5050505094509492505050565b60005b815181101561081557826001016000838381518110611c8257611c826155cf565b602090810291909101810151825281019190915260400160009081208181556001808201839055600282019290925560030180547fffffffffffffffffff000000000000000000000000000000000000000000000016905501611c61565b611ce8614de5565b600080611cf58685612873565b9250600183608001516001811115611d0f57611d0f6150b8565b14611d46576040517f35c67ed100000000000000000000000000000000000000000000000000000000815260040160405180910390fd5b6020830151611d5690889061290b565b611d8c576040517fcc93170c00000000000000000000000000000000000000000000000000000000815260040160405180910390fd5b6060830151604084015160a08501516020860151611db09189918c9190859061296b565b60608b0151919550935073ffffffffffffffffffffffffffffffffffffffff1663f242432a3084611de08961295c565b611dea888761576e565b604051806020016040528060008152506040518663ffffffff1660e01b8152600401611e1a959493929190615a06565b600060405180830381600087803b158015611e3457600080fd5b505af1158015611e48573d6000803e3d6000fd5b5050506040808b015160a08c015191517fd02f1b3000000000000000000000000000000000000000000000000000000000815273ffffffffffffffffffffffffffffffffffffffff92831660048201528583166024820152604481018890529116915063d02f1b3090606401600060405180830381600087803b158015611ece57600080fd5b505af1158015611ee2573d6000803e3d6000fd5b5050505050509450945094915050565b6000908152600191820160205260408120818155918201819055600282015560030180547fffffffffffffffffff0000000000000000000000000000000000000000000000169055565b6000805b84811015611f7657858582818110611f5a57611f5a6155cf565b9050602002013582611f6c9190615a4b565b9150600101611f40565b5060a086015160408088015190517f70a0823100000000000000000000000000000000000000000000000000000000815273ffffffffffffffffffffffffffffffffffffffff8083166004830152600091908416906370a0823190602401602060405180830381865afa158015611ff1573d6000803e3d6000fd5b505050506040513d601f19601f8201168201806040525081019061201591906156e6565b6040517fd0d063c0000000000000000000000000000000000000000000000000000000008152909150339063d0d063c09061205a90869086908b908b90600401615781565b600060405180830381600087803b15801561207457600080fd5b505af1158015612088573d6000803e3d6000fd5b50506040517f70a0823100000000000000000000000000000000000000000000000000000000815273ffffffffffffffffffffffffffffffffffffffff8581166004830152600093508492508616906370a0823190602401602060405180830381865afa1580156120fd573d6000803e3d6000fd5b505050506040513d601f19601f8201168201806040525081019061212191906156e6565b61212b919061576e565b9050848114612166576040517fa5bde9fe00000000000000000000000000000000000000000000000000000000815260040160405180910390fd5b5050505095945050505050565b61217b614de5565b612187858785856129a3565b6121958660008487876129ce565b90506121c17f02954dff85197d438345422dfe525d02fbd6a12c9028d5d8c7ab5386d347133082612a70565b95945050505050565b818160006121d6612b9d565b9050612205868484847f4c00000000000000000000000000000000000000000000000000000000000000612cd9565b909350915061223a600187018484847f5300000000000000000000000000000000000000000000000000000000000000612cd9565b5050505050505050565b60606000612250612b9d565b9050600061226060246002615a5e565b67ffffffffffffffff81111561227857612278615458565b6040519080825280602002602001820160405280156122d757816020015b6122c46040518060800160405280600081526020016000815260200160008152602001600060010b81525090565b8152602001906001900390816122965790505b50905060005b60248110156123f95760008382602481106122fa576122fa6155cf565b60200201519050600061230d8883612dd1565b905060006123238961231e85615a75565b612dd1565b9050604051806080016040528061233b846001015490565b815260200161234984612e2e565b8152602001612358848b612e61565b81526020018460010b815250858581518110612376576123766155cf565b60200260200101819052506040518060800160405280612397836001015490565b81526020016123a583612e2e565b81526020016123b4838b612e61565b81526020016123c285615a75565b60010b9052856123d3602487615a4b565b815181106123e3576123e36155cf565b60209081029190910101525050506001016122dd565b50949350505050565b6124346040518060a0016040528060008152602001600081526020016000815260200160008152602001600081525090565b8261243e81612f85565b600061244a8686612dd1565b9050612456818561304e565b9250505b509392505050565b60008567ffffffffffffffff81111561247d5761247d615458565b6040519080825280602002602001820160405280156124a6578160200160208202803683370190505b50905060008667ffffffffffffffff8111156124c4576124c4615458565b6040519080825280602002602001820160405280156124ed578160200160208202803683370190505b50905060005b8781101561259c573083828151811061250e5761250e6155cf565b602002602001019073ffffffffffffffffffffffffffffffffffffffff16908173ffffffffffffffffffffffffffffffffffffffff168152505061257789898381811061255d5761255d6155cf565b905060200201602081019061257291906153c5565b61284c565b828281518110612589576125896155cf565b60209081029190910101526001016124f3565b5060608901516040517f4e1273f400000000000000000000000000000000000000000000000000000000815260009173ffffffffffffffffffffffffffffffffffffffff1690634e1273f4906125f89086908690600401615ab3565b600060405180830381865afa158015612615573d6000803e3d6000fd5b505050506040513d6000823e601f3d9081017fffffffffffffffffffffffffffffffffffffffffffffffffffffffffffffffe016820160405261265b9190810190615b16565b60608b01516040517fe921b5c2000000000000000000000000000000000000000000000000000000008152919250339163e921b5c2916126a39186908a908a90600401615b9c565b600060405180830381600087803b1580156126bd57600080fd5b505af11580156126d1573d6000803e3d6000fd5b5050505060008a6060015173ffffffffffffffffffffffffffffffffffffffff16634e1273f485856040518363ffffffff1660e01b8152600401612716929190615ab3565b600060405180830381865afa158015612733573d6000803e3d6000fd5b505050506040513d6000823e601f3d9081017fffffffffffffffffffffffffffffffffffffffffffffffffffffffffffffffe01682016040526127799190810190615b16565b905060005b8981101561281c57828181518110612798576127986155cf565b60200260200101518282815181106127b2576127b26155cf565b60200260200101516127c4919061576e565b8989838181106127d6576127d66155cf565b9050602002013514612814576040517fa5bde9fe00000000000000000000000000000000000000000000000000000000815260040160405180910390fd5b60010161277e565b505050505050505050505050565b612832614de5565b61283e8587858561308d565b6121958660018487876129ce565b6000600182900b8112610b8b8161286b5761286684615a75565b61286d565b835b826130b0565b61287b614de5565b61288583836130d8565b80519091506000036106c5576040517fc47b348000000000000000000000000000000000000000000000000000000000815260040160405180910390fd5b6000806128d08484612dd1565b9050610fc981612e2e565b6000806128e88484612dd1565b9050610fc9816001015490565b6000610fc9826129058686612dd1565b90612e61565b60008115801590610b8b5750612920836131af565b5190911092915050565b60008361293681612f85565b60006129428887612dd1565b905061295081888787613261565b98975050505050505050565b60006106c58260a0015161284c565b6000808461297881612f85565b60006129848988612dd1565b90506129928189888861327d565b93509350505b509550959350505050565b816129ad81612f85565b60006129b98685612dd1565b90506129c68186856132a9565b505050505050565b6129d6614de5565b6040518060c00160405280612a10612a0b7f02954dff85197d438345422dfe525d02fbd6a12c9028d5d8c7ab5386d347133090565b6132ce565b8152602001612a1e886131af565b5181526020810186905273ffffffffffffffffffffffffffffffffffffffff85166040820152606001866001811115612a5957612a596150b8565b81526020018360010b815250905095945050505050565b8051600090815260018084016020908152604092839020845181559084015181830155918301516002830155606083015160038301805473ffffffffffffffffffffffffffffffffffffffff9092167fffffffffffffffffffffffff0000000000000000000000000000000000000000831681178255608086015186959490937fffffffffffffffffffffff000000000000000000000000000000000000000000169091179074010000000000000000000000000000000000000000908490811115612b3e57612b3e6150b8565b021790555060a091909101516003909101805461ffff9092167501000000000000000000000000000000000000000000027fffffffffffffffffff0000ffffffffffffffffffffffffffffffffffffffffff9092169190911790555050565b612ba5614e42565b50604080516104808101825260018152600260208201526003918101919091526004606082015260056080820152600660a0820152600760c0820152600860e08201526009610100820152600a6101208201526014610140820152601e610160820152602861018082015260326101a0820152603c6101c082015260466101e08201526050610200820152605a610220820152606461024082015260c861026082015261012c6102808201526101906102a08201526101f46102c08201526102586102e08201526102bc610300820152610320808201526103846103408201526103e86103608201526105dc6103808201526107d06103a08201526109c46103c0820152610bb86103e0820152610dac610400820152610fa061042082015261119461044082015261138861046082015290565b838360005b6024811015612998576000858260248110612cfb57612cfb6155cf565b6020908102919091015161ffff81166000908152918b90526040822090925090612d26826001015490565b905080600003612d3b57505050600101612cde565b6000612d488783886132ec565b9050612d548382613415565b612d5e828761576e565b9550612d6a818861576e565b965080887effffffffffffffffffffffffffffffffffffffffffffffffffffffffffffff19168561ffff167f870c522a03c4b7d56f32ecd79bbf7ef4a6f74564d7157172198ff5d97b40450c60405160405180910390a4505060019092019150612cde9050565b6000808260010b12612e0457826000612de984613435565b61ffff1661ffff168152602001908152602001600020610b8b565b826001016000612e1384613435565b61ffff16815260208101919091526040016000209392505050565b6000612e3c82601501613450565b612e4883600901613463565b6001840154612e57919061576e565b6106c5919061576e565b600080612e716009850184613479565b90506000612e7e8261359b565b90506000612e8d866001015490565b90506000808412612ea757612ea28383615a4b565b612eb1565b612eb1838361576e565b604080880151608089015160a08a015192517f4e82c4b700000000000000000000000000000000000000000000000000000000815273ffffffffffffffffffffffffffffffffffffffff91821660048201529281166024840152604483018690529293509190911690634e82c4b790606401602060405180830381865afa158015612f40573d6000803e3d6000fd5b505050506040513d601f19601f82011682018060405250810190612f6491906156e6565b612f7160158901886135b2565b612f7b9083615a4b565b610a429190615a4b565b6000612f8f612b9d565b90506000612f9c83613435565b90506000612faa83836135d5565b9050602481108015612fd95750828160248110612fc957612fc96155cf565b602002015161ffff168261ffff16145b6040518060400160405280600481526020017f555446520000000000000000000000000000000000000000000000000000000081525090613047576040517f08c379a00000000000000000000000000000000000000000000000000000000081526004016118df9190615bde565b5050505050565b6130806040518060a0016040528060008152602001600081526020016000815260200160008152602001600081525090565b610b8b6001840183613692565b8161309781612f85565b60006130a38685612dd1565b90506129c6818685613749565b6000816130cf576130ca6402540be40061ffff8516615a4b565b610b8b565b505061ffff1690565b6130e0614de5565b600082815260018481016020908152604092839020835160c081018552815481528184015492810192909252600281015493820193909352600383015473ffffffffffffffffffffffffffffffffffffffff81166060830152909291608084019174010000000000000000000000000000000000000000900460ff169081111561316c5761316c6150b8565b600181111561317d5761317d6150b8565b8152600391909101547501000000000000000000000000000000000000000000900460010b6020909101529392505050565b6131d360405180606001604052806000815260200160008152602001600081525090565b60e08201515160000361325957816000015173ffffffffffffffffffffffffffffffffffffffff16639d888e866040518163ffffffff1660e01b8152600401606060405180830381865afa15801561322f573d6000803e3d6000fd5b505050506040513d601f19601f820116820180604052508101906132539190615946565b60e08301525b5060e0015190565b6000848461326f828261376e565b610a426001880186866137ae565b600080858561328c828261376e565b61329a600189018787613861565b93509350505094509492505050565b82826132b5828261376e565b613047836132c2866131af565b51600188019190613962565b600081600001600081546132e190615bf1565b918290555092915050565b600080807fffffffffffffffffffffffffffffffffffffffffffffffffffffffffffffffff858709858702925082811083820303915050806000036133445783828161333a5761333a615c29565b0492505050610b8b565b8084116133ad576040517f08c379a000000000000000000000000000000000000000000000000000000000815260206004820152601560248201527f4d6174683a206d756c446976206f766572666c6f77000000000000000000000060448201526064016118df565b600084868809600260036001881981018916988990049182028318808302840302808302840302808302840302808302840302808302840302918202909203026000889003889004909101858311909403939093029303949094049190911702949350505050565b8082600101600001600082825461342c9190615a4b565b90915550505050565b6000808260010b1261344757816106c5565b6106c582615a75565b600581015481546000916106c591615a4b565b600681015460028201546000916106c591615a4b565b600080613485836131af565b8454909150600080821261349a5760016134bc565b7fffffffffffffffffffffffffffffffffffffffffffffffffffffffffffffffff5b905060006134c984613a7c565b90506000826134db8960010154613aab565b6134e59190615c58565b90506000836134fc6134f78786613b5d565b613aab565b6135069190615c58565b905060006135148383615ca4565b905060006135256134f78c8c613b7c565b61353260048d018c613b95565b61353c9084615ccb565b6135469190615ccb565b905060006135538261359b565b905060008212613582576135726134f78261356d8f613c5e565b613c74565b99505050505050505050506106c5565b6135926134f78261356d8f613463565b61357290615ceb565b6000808212156135ae57816000036106c5565b5090565b60006135c16002840183613c8a565b6135cb8484613ca3565b610b8b9190615a4b565b60008060245b808210156136335760006135ef8383613cb9565b90508461ffff16868260248110613608576136086155cf565b602002015161ffff16111561361f5780915061362d565b61362a816001615a4b565b92505b506135db565b8115801590613669575061ffff84168561364e60018561576e565b6024811061365e5761365e6155cf565b602002015161ffff16145b156136825761367960018361576e565b925050506106c5565b5090506106c5565b505092915050565b6136c46040518060a0016040528060008152602001600081526020016000815260200160008152602001600081525090565b5060008181526004830160209081526040808320815180830183528154815260019182015481850190815295855260059096018352928190208151606080820184528254825294820154818501908152600290920154818401908152835160a08101855297518852955193870193909352915190850152519083015251608082015290565b8282613755828261376e565b61304783613762866131af565b51600188019190613cd4565b61377b6015830182613d72565b6137886009830182613eb8565b610aeb816137968482612e61565b61379f85612e2e565b85546001870193929190613fce565b600081815260048401602090815260408083208151808301909252805480835260019091015492820183905290916137e8918691906132ec565b915081816020018181516137fc919061576e565b90525080518490829061381090839061576e565b905250805160000361383857600083815260048601602052604081208181556001015561245a565b600083815260048601602090815260409091208251815590820151600190910155509392505050565b6000818152600584016020908152604080832081516060810183528154808252600183015494820194909452600290910154918101829052839290916138a9918791906132ec565b602082015182519194506138bf918791906132ec565b915081816020018181516138d3919061576e565b9052506040810180518491906138ea90839061576e565b9052508051859082906138fe90839061576e565b905250805160000361392d57600084815260058701602052604081208181556001810182905560020155613959565b600084815260058701602090815260409182902083518155908301516001820155908201516002909101555b50935093915050565b60408051808201909152600381527f545341000000000000000000000000000000000000000000000000000000000060208201526103e883116139d2576040517f08c379a00000000000000000000000000000000000000000000000000000000081526004016118df9190615bde565b5060018301548015806139e457508181145b6040518060400160405280600381526020017f494f56000000000000000000000000000000000000000000000000000000000081525090613a52576040517f08c379a00000000000000000000000000000000000000000000000000000000081526004016118df9190615bde565b5060018401829055600284018054849190600090613a71908490615a4b565b909155505050505050565b600080613a8c83604001516142ae565b12613aa357613a9e82604001516142f0565b6106c5565b600092915050565b60007f7fffffffffffffffffffffffffffffffffffffffffffffffffffffffffffffff8211156135ae576040517f08c379a000000000000000000000000000000000000000000000000000000000815260206004820152602860248201527f53616665436173743a2076616c756520646f65736e27742066697420696e206160448201527f6e20696e7432353600000000000000000000000000000000000000000000000060648201526084016118df565b6000610b8b82670de0b6b3a7640000613b758661359b565b91906132ec565b6002820154600090610b8b90600a850190849042614330565b8154600090613ba4838261290b565b613bb25760009150506106c5565b6000613bbd846131af565b90506000613bd8856000015184613bd3886131af565b61436f565b90506000613be583613a7c565b90506000613bf66134f7898961449b565b613c05896001015485856144b4565b613c0f9190615ccb565b90506000613c1c8261359b565b905060008212613c4457613c376134f7828b60030154613c74565b96505050505050506106c5565b613c556134f7828b60020154613c74565b613c3790615ceb565b600781015460038201546000916106c591615a4b565b6000818310613c835781610b8b565b5090919050565b6003820154600090610b8b906005850190849042614330565b8154600090610b8b90600c850190849042614330565b6000613cc86002848418615d23565b610b8b90848416615a4b565b6001830154801580613ce557508181145b6040518060400160405280600381526020017f494f56000000000000000000000000000000000000000000000000000000000081525090613d53576040517f08c379a00000000000000000000000000000000000000000000000000000000081526004016118df9190615bde565b5060018401829055600384018054849190600090613a71908490615a4b565b6002820154613d81828261290b565b613d8a57505050565b604080516080810182526003850154815260048501546020820152600585015491810191909152600684015460608201528354613dce90600c860190859042614559565b8060400151846000016000828254613de69190615a4b565b90915550506060810151600185018054600090613e04908490615a4b565b90915550613e179050600985018361459b565b506000828152600b8501602090815260409182902083518155908301516001820155908201516002808301919091556060830151600390920191909155613e60908501846145a7565b6008840154600d85018054600090613e79908490615a4b565b90915550506000600285018190556003850181905560048501819055600585018190556006850181905560078501819055600890940193909355505050565b6004820154613ec7828261290b565b613ed057505050565b6002830154613ee690600a850190849042614559565b6005830154835481908590600090613eff908490615ccb565b90915550613f1b905081613f1660048701866145bd565b613b5d565b846001016000828254613f2e9190615a4b565b90915550506006840154600285018054600090613f4c908490615a4b565b90915550506007840154600385018054600090613f6a908490615a4b565b90915550613f7d905060048501846145d1565b6009840154600b85018054600090613f96908490615a4b565b909155505060006004850181905560058501819055600685018190556007850181905560088501819055600990940193909355505050565b60608401516040517fbd85b0390000000000000000000000000000000000000000000000000000000081526004810183905260009073ffffffffffffffffffffffffffffffffffffffff83169063bd85b03990602401602060405180830381865afa158015614041573d6000803e3d6000fd5b505050506040513d601f19601f8201168201806040525081019061406591906156e6565b9050600080614076898989866145e7565b90925090506000806140938b61408c868b615a4b565b8b8861472f565b9150915081831115614133578573ffffffffffffffffffffffffffffffffffffffff1663731133e98b608001518985876140cd919061576e565b604051806020016040528060008152506040518563ffffffff1660e01b81526004016140fc9493929190615d5e565b600060405180830381600087803b15801561411657600080fd5b505af115801561412a573d6000803e3d6000fd5b505050506141f5565b818310156141f5578573ffffffffffffffffffffffffffffffffffffffff1663f5298aca8b60800151898686614169919061576e565b6040517fffffffff0000000000000000000000000000000000000000000000000000000060e086901b16815273ffffffffffffffffffffffffffffffffffffffff909316600484015260248301919091526044820152606401600060405180830381600087803b1580156141dc57600080fd5b505af11580156141f0573d6000803e3d6000fd5b505050505b8315158061420257508015155b156142a1576040808b015160a08c015191517f8b41411700000000000000000000000000000000000000000000000000000000815273ffffffffffffffffffffffffffffffffffffffff92831660048201526024810187905260448101849052911690638b41411790606401600060405180830381600087803b15801561428857600080fd5b505af115801561429c573d6000803e3d6000fd5b505050505b5050505050505050505050565b6000808213156142c057506001919050565b6000821215613aa357507fffffffffffffffffffffffffffffffffffffffffffffffffffffffffffffffff919050565b600081818112156106c5576040517f501f289e000000000000000000000000000000000000000000000000000000008152600481018290526024016118df565b60008260000361434257506000610fc9565b84546001860154818411614359579150610fc99050565b6143658686848761493a565b610a429082615a4b565b60008061437b84614a0c565b835160408051808201909152600381527f555350000000000000000000000000000000000000000000000000000000000060208201529192508211156143ee576040517f08c379a00000000000000000000000000000000000000000000000000000000081526004016118df9190615bde565b508251600090821461448e576040517f7ece075d0000000000000000000000000000000000000000000000000000000081526004810183905273ffffffffffffffffffffffffffffffffffffffff871690637ece075d90602401606060405180830381865afa158015614465573d6000803e3d6000fd5b505050506040513d601f19601f820116820180604052508101906144899190615946565b614490565b835b905061245681613a7c565b6002820154600090610b8b906004850190849042614330565b6000806144c18385614a87565b6144e0576144d26134f78585614a9d565b6144db90615ceb565b6144ed565b6144ed6134f78486614a9d565b90506000851215614525576145227fffffffffffffffffffffffffffffffffffffffffffffffffffffffffffffffff82615c58565b90505b60006145406134f76145368461359b565b87613b758a61359b565b9050600082126145505780612456565b61245681615ceb565b8354808211614568575061062c565b82156145935761457a8484838561493a565b85600101600082825461458d9190615a4b565b90915550505b509092555050565b6000610b8b8383614aa9565b6003820154610aeb906005840190839042614559565b80518254600091610b8b91613bd3856131af565b6002820154610aeb906004840190839042614559565b600184015460009081906145fb868261290b565b61460c576000809250925050614726565b6002870154600388015490935083156146755761462a848787614af8565b9250838860000160008282546146409190615a4b565b90915550506040805180820182528581526020808201868152600086815260048d019092529290209051815590516001909101555b801561470e5760068801805470010000000000000000000000000000000090819004600f0b600081815260078c016020526040902085905582546fffffffffffffffffffffffffffffffff908116600190920116909102179055604080516060810182528281526000602080830182815283850183815287845260058e0190925293909120915182559151600182015590516002909101555b50506000600187018190556002870181905560038701555b94509492505050565b6000805b6006860154600f81810b700100000000000000000000000000000000909204900b13156147f357600061476887600601614b2c565b6000818152600589016020908152604091829020825160608101845281548082526001830154938201849052600290920154938101939093529293509091116147e5576147b788600601614ba6565b5080516000036147e0576000828152600589016020526040812081815560018101829055600201555b6147ec565b50506147f3565b5050614733565b600061481d8760060154600f81810b700100000000000000000000000000000000909204900b0390565b905060005b818110801561483057508615155b1561491457600061484460068a0183614c63565b600081815260058b016020526040812060018101548154939450909261486a919061576e565b9050801561490957600080614880838c8c614cfa565b9050808c10614891578291506148ad565b61489c8c8c8c614af8565b91508282106148aa57600080fd5b508a5b818460010160008282546148c19190615a4b565b92505081905550808460020160008282546148dc9190615a4b565b909155506148ec9050828a615a4b565b98506148f88189615a4b565b9750614904818d61576e565b9b5050505b505050600101614822565b5081876000016000828254614929919061576e565b925050819055505094509492505050565b60008315806149495750818310155b614a0157602085015160a08601516040517f705b170e00000000000000000000000000000000000000000000000000000000815273ffffffffffffffffffffffffffffffffffffffff918216600482015260248101879052604481018690526064810185905291169063705b170e90608401602060405180830381865afa1580156149d8573d6000803e3d6000fd5b505050506040513d601f19601f820116820180604052508101906149fc91906156e6565b6121c1565b600095945050505050565b60408051808201909152600381527f494f560000000000000000000000000000000000000000000000000000000000602082015260009082614a7b576040517f08c379a00000000000000000000000000000000000000000000000000000000081526004016118df9190615bde565b506106c5826001615a4b565b6000614a938383614d17565b6002149392505050565b6000610b8b828461576e565b6000818152600183016020526040812054614af0575081546001818101845560008481526020808220909301849055845484825282860190935260409020919091556106c5565b5060006106c5565b60008115614b2457614b1f826103e88510614b135784614b17565b6103e85b8691906132ec565b610fc9565b509192915050565b6000614b548254600f81810b700100000000000000000000000000000000909204900b131590565b15614b8b576040517f3db2a12a00000000000000000000000000000000000000000000000000000000815260040160405180910390fd5b508054600f0b60009081526001909101602052604090205490565b6000614bce8254600f81810b700100000000000000000000000000000000909204900b131590565b15614c05576040517f3db2a12a00000000000000000000000000000000000000000000000000000000815260040160405180910390fd5b508054600f0b6000818152600180840160205260408220805492905583547fffffffffffffffffffffffffffffffff000000000000000000000000000000001692016fffffffffffffffffffffffffffffffff169190911790915590565b600080614c86614c7284613aab565b8554614c819190600f0b615ccb565b614d4c565b84549091507001000000000000000000000000000000009004600f90810b9082900b12614cdf576040517fb4120f1400000000000000000000000000000000000000000000000000000000815260040160405180910390fd5b600f0b60009081526001939093016020525050604090205490565b60008115614d0d57614b1f8484846132ec565b5060009392505050565b6000828280821115614d2e576002925050506106c5565b80821015614d41576000925050506106c5565b506001949350505050565b80600f81900b8114614de0576040517f08c379a000000000000000000000000000000000000000000000000000000000815260206004820152602760248201527f53616665436173743a2076616c756520646f65736e27742066697420696e203160448201527f323820626974730000000000000000000000000000000000000000000000000060648201526084016118df565b919050565b6040518060c00160405280600081526020016000815260200160008152602001600073ffffffffffffffffffffffffffffffffffffffff16815260200160006001811115614e3557614e356150b8565b8152600060209091015290565b6040518061048001604052806024906020820280368337509192915050565b60008083601f840112614e7357600080fd5b50813567ffffffffffffffff811115614e8b57600080fd5b6020830191508360208260051b8501011115614ea657600080fd5b9250929050565b60008083601f840112614ebf57600080fd5b50813567ffffffffffffffff811115614ed757600080fd5b602083019150836020828501011115614ea657600080fd5b60008060008060408587031215614f0557600080fd5b843567ffffffffffffffff80821115614f1d57600080fd5b614f2988838901614e61565b90965094506020870135915080821115614f4257600080fd5b50614f4f87828801614ead565b95989497509550505050565b600060208284031215614f6d57600080fd5b81357fffffffff0000000000000000000000000000000000000000000000000000000081168114610b8b57600080fd5b600080600060408486031215614fb257600080fd5b83359250602084013567ffffffffffffffff811115614fd057600080fd5b614fdc86828701614ead565b9497909650939450505050565b803573ffffffffffffffffffffffffffffffffffffffff81168114614de057600080fd5b60008060008060008060006080888a03121561502857600080fd5b61503188614fe9565b9650602088013567ffffffffffffffff8082111561504e57600080fd5b61505a8b838c01614e61565b909850965060408a013591508082111561507357600080fd5b61507f8b838c01614e61565b909650945060608a013591508082111561509857600080fd5b506150a58a828b01614ead565b989b979a50959850939692959293505050565b7f4e487b7100000000000000000000000000000000000000000000000000000000600052602160045260246000fd5b80518252602081015160208301526040810151604083015273ffffffffffffffffffffffffffffffffffffffff606082015116606083015260808101516002811061515b577f4e487b7100000000000000000000000000000000000000000000000000000000600052602160045260246000fd5b608083015260a09081015160010b910152565b600081518084526020808501945080840160005b838110156151a8576151958783516150e7565b60c0969096019590820190600101615182565b509495945050505050565b602081526000610b8b602083018461516e565b600080604083850312156151d957600080fd5b50508035926020909101359150565b602080825282518282018190526000919060409081850190868401855b828110156152455781518051855286810151878601528581015186860152606090810151600190810b918601919091526080909401939186019101615205565b5091979650505050505050565b8035600181900b8114614de057600080fd5b6000806040838503121561527757600080fd5b61528083615252565b946020939093013593505050565b600080600080606085870312156152a457600080fd5b6152ad85614fe9565b93506152bb60208601615252565b9250604085013567ffffffffffffffff8111156152d757600080fd5b614f4f87828801614ead565b60c081016106c582846150e7565b60006020828403121561530357600080fd5b5035919050565b60008060008060008060008060a0898b03121561532657600080fd5b61532f89614fe9565b975061533d60208a01614fe9565b9650604089013567ffffffffffffffff8082111561535a57600080fd5b6153668c838d01614e61565b909850965060608b013591508082111561537f57600080fd5b61538b8c838d01614e61565b909650945060808b01359150808211156153a457600080fd5b506153b18b828c01614ead565b999c989b5096995094979396929594505050565b6000602082840312156153d757600080fd5b610b8b82615252565b60008060008060008060a087890312156153f957600080fd5b61540287614fe9565b955061541060208801614fe9565b94506040870135935060608701359250608087013567ffffffffffffffff81111561543a57600080fd5b61544689828a01614ead565b979a9699509497509295939492505050565b7f4e487b7100000000000000000000000000000000000000000000000000000000600052604160045260246000fd5b604051601f82017fffffffffffffffffffffffffffffffffffffffffffffffffffffffffffffffe016810167ffffffffffffffff811182821017156154ce576154ce615458565b604052919050565b600067ffffffffffffffff8211156154f0576154f0615458565b5060051b60200190565b6000602080838503121561550d57600080fd5b823567ffffffffffffffff81111561552457600080fd5b8301601f8101851361553557600080fd5b8035615548615543826154d6565b615487565b81815260059190911b8201830190838101908783111561556757600080fd5b928401925b82841015610a425761557d84615252565b8252928401929084019061556c565b600081518084526020808501945080840160005b838110156151a8578151875295820195908201906001016155a0565b602081526000610b8b602083018461558c565b7f4e487b7100000000000000000000000000000000000000000000000000000000600052603260045260246000fd5b8183528181602085013750600060208284010152600060207fffffffffffffffffffffffffffffffffffffffffffffffffffffffffffffffe0601f840116840101905092915050565b6040815283604082015260007f07ffffffffffffffffffffffffffffffffffffffffffffffffffffffffffffff85111561568057600080fd5b8460051b80876060850137820182810360609081016020850152610a4290820185876155fe565b6040815260006156ba604083018561516e565b82810360208401526121c1818561558c565b8381526040602082015260006121c16040830184866155fe565b6000602082840312156156f857600080fd5b5051919050565b73ffffffffffffffffffffffffffffffffffffffff851681528360208201526060604082015260006157356060830184866155fe565b9695505050505050565b7f4e487b7100000000000000000000000000000000000000000000000000000000600052601160045260246000fd5b818103818111156106c5576106c561573f565b600073ffffffffffffffffffffffffffffffffffffffff8087168352808616602084015250606060408301526157356060830184866155fe565b6060815260006157ce606083018661516e565b82810360208401526157e0818661558c565b90508281036040840152615735818561558c565b60006020828403121561580657600080fd5b815160ff81168114610b8b57600080fd5b600181815b8085111561587057817fffffffffffffffffffffffffffffffffffffffffffffffffffffffffffffffff048211156158565761585661573f565b8085161561586357918102915b93841c939080029061581c565b509250929050565b600082615887575060016106c5565b81615894575060006106c5565b81600181146158aa57600281146158b4576158d0565b60019150506106c5565b60ff8411156158c5576158c561573f565b50506001821b6106c5565b5060208310610133831016604e8410600b84101617156158f3575081810a6106c5565b6158fd8383615817565b807fffffffffffffffffffffffffffffffffffffffffffffffffffffffffffffffff0482111561592f5761592f61573f565b029392505050565b6000610b8b60ff841683615878565b60006060828403121561595857600080fd5b6040516060810181811067ffffffffffffffff8211171561597b5761597b615458565b80604052508251815260208301516020820152604083015160408201528091505092915050565b6000815180845260005b818110156159c8576020818501810151868301820152016159ac565b5060006020828601015260207fffffffffffffffffffffffffffffffffffffffffffffffffffffffffffffffe0601f83011685010191505092915050565b600073ffffffffffffffffffffffffffffffffffffffff808816835280871660208401525084604083015283606083015260a06080830152610a4260a08301846159a2565b808201808211156106c5576106c561573f565b80820281158282048414176106c5576106c561573f565b60008160010b7fffffffffffffffffffffffffffffffffffffffffffffffffffffffffffff80008103615aaa57615aaa61573f565b60000392915050565b604080825283519082018190526000906020906060840190828701845b82811015615b0257815173ffffffffffffffffffffffffffffffffffffffff1684529284019290840190600101615ad0565b50505083810382850152612456818661558c565b60006020808385031215615b2957600080fd5b825167ffffffffffffffff811115615b4057600080fd5b8301601f81018513615b5157600080fd5b8051615b5f615543826154d6565b81815260059190911b82018301908381019087831115615b7e57600080fd5b928401925b82841015610a4257835182529284019290840190615b83565b73ffffffffffffffffffffffffffffffffffffffff85168152606060208201526000615bcb606083018661558c565b8281036040840152610a428185876155fe565b602081526000610b8b60208301846159a2565b60007fffffffffffffffffffffffffffffffffffffffffffffffffffffffffffffffff8203615c2257615c2261573f565b5060010190565b7f4e487b7100000000000000000000000000000000000000000000000000000000600052601260045260246000fd5b808202600082127f800000000000000000000000000000000000000000000000000000000000000084141615615c9057615c9061573f565b81810583148215176106c5576106c561573f565b8181036000831280158383131683831282161715615cc457615cc461573f565b5092915050565b808201828112600083128015821682158216171561368a5761368a61573f565b60007f80000000000000000000000000000000000000000000000000000000000000008203615d1c57615d1c61573f565b5060000390565b600082615d59577f4e487b7100000000000000000000000000000000000000000000000000000000600052601260045260246000fd5b500490565b73ffffffffffffffffffffffffffffffffffffffff8516815283602082015282604082015260806060820152600061573560808301846159a256fea2646970667358221220a6b19efcac672bc90c52f4554d5f89acf22eab272db7b5d883df217cc264361664736f6c63430008130033",
  "devdoc": {
    "details": "Contract for managing liquidity in a market.",
    "errors": {
      "Empty()": [
        {
          "details": "An operation (e.g. {front}) couldn't be completed due to the queue being empty."
        }
      ],
      "InvalidLpReceiptAction()": [
        {
          "details": "Throws an error indicating that the liquidity receipt action is invalid."
        }
      ],
      "InvalidTransferredTokenAmount()": [
        {
          "details": "Throws an error indicating that the transferred token amount is invalid.      This error is thrown when the transferred token amount does not match the expected amount."
        }
      ],
      "NotClaimableLpReceipt()": [
        {
          "details": "Throws an error indicating that the liquidity receipt is not claimable."
        }
      ],
      "NotExistLpReceipt()": [
        {
          "details": "Throws an error indicating that the specified liquidity receipt does not exist."
        }
      ],
      "NotWithdrawableLpReceipt()": [
        {
          "details": "Throws an error indicating that the liquidity receipt is not withdrawable."
        }
      ],
      "OnlyAccessableByDao()": [
        {
          "details": "Throws an error indicating that the caller is not the DAO."
        }
      ],
      "OnlyAccessableByLiquidator()": [
        {
          "details": "Throws an error indicating that the caller is not the chromatic liquidator contract."
        }
      ],
      "OnlyAccessableByVault()": [
        {
          "details": "Throws an error indicating that the caller is not the chromatch vault contract."
        }
      ],
      "OutOfBounds()": [
        {
          "details": "An operation (e.g. {at}) couldn't be completed due to an index being out of bounds."
        }
      ],
      "TooSmallAmount()": [
        {
          "details": "Throws an error indicating that the amount of liquidity is too small.      This error is thrown when attempting to remove liquidity with an amount of zero."
        }
      ]
    },
    "events": {
      "AddLiquidity((uint256,uint256,uint256,address,uint8,int16))": {
        "details": "Emitted when liquidity is added to the market.",
        "params": {
          "receipt": "The liquidity receipt."
        }
      },
      "AddLiquidityBatch((uint256,uint256,uint256,address,uint8,int16)[])": {
        "details": "Emitted when liquidity is added to the market.",
        "params": {
          "receipts": "An array of LP receipts."
        }
      },
      "ClaimLiquidity((uint256,uint256,uint256,address,uint8,int16),uint256)": {
        "details": "Emitted when liquidity is claimed from the market.",
        "params": {
          "clbTokenAmount": "The amount of CLB tokens claimed.",
          "receipt": "The liquidity receipt."
        }
      },
      "ClaimLiquidityBatch((uint256,uint256,uint256,address,uint8,int16)[],uint256[])": {
        "details": "Emitted when liquidity is claimed from the market.",
        "params": {
          "clbTokenAmounts": "The amount list of CLB tokens claimed.",
          "receipts": "An array of LP receipts."
        }
      },
      "RemoveLiquidity((uint256,uint256,uint256,address,uint8,int16))": {
        "details": "Emitted when liquidity is removed from the market.",
        "params": {
          "receipt": "The liquidity receipt."
        }
      },
      "RemoveLiquidityBatch((uint256,uint256,uint256,address,uint8,int16)[])": {
        "details": "Emitted when liquidity is removed from the market.",
        "params": {
          "receipts": "An array of LP receipts."
        }
      },
      "WithdrawLiquidity((uint256,uint256,uint256,address,uint8,int16),uint256,uint256)": {
        "details": "Emitted when liquidity is withdrawn from the market.",
        "params": {
          "amount": "The amount of liquidity withdrawn.",
          "burnedCLBTokenAmount": "The amount of burned CLB tokens.",
          "receipt": "The liquidity receipt."
        }
      },
      "WithdrawLiquidityBatch((uint256,uint256,uint256,address,uint8,int16)[],uint256[],uint256[])": {
        "details": "Emitted when liquidity is withdrawn from the market.",
        "params": {
          "amounts": "The amount list of liquidity withdrawn.",
          "burnedCLBTokenAmounts": "The amount list of burned CLB tokens.",
          "receipts": "An array of LP receipts."
        }
      }
    },
    "kind": "dev",
    "methods": {
      "addLiquidity(address,int16,bytes)": {
        "details": "Adds liquidity to the market.",
        "params": {
          "data": "Additional data for the liquidity callback.",
          "recipient": "The address to receive the liquidity tokens.",
          "tradingFeeRate": "The trading fee rate for the liquidity."
        },
        "returns": {
          "receipt": "The liquidity receipt."
        }
      },
      "addLiquidityBatch(address,int16[],uint256[],bytes)": {
        "details": "Throws an `InvalidTransferredTokenAmount` error if the transferred amount does not match the sum of amounts param.",
        "params": {
          "amounts": "An array of amounts to add as liquidity for each bin.",
          "data": "Additional data for the liquidity callback.",
          "recipient": "The address of the recipient for each liquidity bin.",
          "tradingFeeRates": "An array of fee rates for each liquidity bin."
        },
        "returns": {
          "receipts": "An array of LP receipts."
        }
      },
      "claimLiquidity(uint256,bytes)": {
        "details": "Throws a `NotExistLpReceipt` error if the liquidity receipt does not exist.      Throws an `InvalidLpReceiptAction` error if the action of liquidity receipt is not `ADD_LIQUIDITY`.      Throws a `NotClaimableLpReceipt` error if the liquidity receipt is not claimable in the current oracle version.",
        "params": {
          "data": "Additional data for the liquidity callback.",
          "receiptId": "The ID of the liquidity receipt."
        }
      },
      "claimLiquidityBatch(uint256[],bytes)": {
        "details": "Throws a `NotExistLpReceipt` error if the liquidity receipt does not exist.      Throws an `InvalidLpReceiptAction` error if the action of liquidity receipt is not `ADD_LIQUIDITY`.      Throws a `NotClaimableLpReceipt` error if the liquidity receipt is not claimable in the current oracle version.",
        "params": {
          "data": "Additional data for the liquidity callback.",
          "receiptIds": "The array of the liquidity receipt IDs."
        }
      },
      "claimableLiquidity(int16,uint256)": {
        "details": "Retrieves the claimable liquidity information for a specific trading fee rate and oracle version from the associated LiquidityPool.",
        "params": {
          "oracleVersion": "The oracle version for which to retrieve the claimable liquidity.",
          "tradingFeeRate": "The trading fee rate for which to retrieve the claimable liquidity."
        },
        "returns": {
          "_0": "claimableLiquidity An instance of ClaimableLiquidity representing the claimable liquidity information."
        }
      },
      "distributeEarningToBins(uint256,uint256)": {
        "details": "Distributes earning to the liquidity bins.",
        "params": {
          "earning": "The amount of earning to distribute.",
          "marketBalance": "The balance of the market."
        }
      },
      "getBinFreeLiquidity(int16)": {
        "details": "Retrieves the available (free) liquidity amount for a specific trading fee rate in the liquidity pool.",
        "params": {
          "tradingFeeRate": "The trading fee rate for which to retrieve the available liquidity amount."
        },
        "returns": {
          "amount": "The available (free) liquidity amount for the specified trading fee rate."
        }
      },
      "getBinLiquidity(int16)": {
        "details": "Retrieves the total liquidity amount for a specific trading fee rate in the liquidity pool.",
        "params": {
          "tradingFeeRate": "The trading fee rate for which to retrieve the liquidity amount."
        },
        "returns": {
          "amount": "The total liquidity amount for the specified trading fee rate."
        }
      },
      "getBinValues(int16[])": {
        "details": "Retrieves the values of a specific trading fee rate's bins in the liquidity pool.      The value of a bin represents the total valuation of the liquidity in the bin.",
        "params": {
          "tradingFeeRates": "The list of trading fee rate for which to retrieve the bin value."
        },
        "returns": {
          "_0": "The value list of the bins for the specified trading fee rates."
        }
      },
      "getLpReceipt(uint256)": {
        "details": "Throws a `NotExistLpReceipt` error if the liquidity receipt does not exist.",
        "params": {
          "receiptId": "The ID of the liquidity receipt to retrieve."
        },
        "returns": {
          "receipt": "The liquidity receipt with the specified ID."
        }
      },
      "liquidityBinStatuses()": {
        "details": "Retrieves the liquidity bin statuses for the caller's liquidity pool.",
        "returns": {
          "_0": "statuses An array of LiquidityBinStatus representing the liquidity bin statuses."
        }
      },
      "onERC1155BatchReceived(address,address,uint256[],uint256[],bytes)": {
        "details": "Handles the receipt of a multiple ERC1155 token types. This function is called at the end of a `safeBatchTransferFrom` after the balances have been updated. NOTE: To accept the transfer(s), this must return `bytes4(keccak256(\"onERC1155BatchReceived(address,address,uint256[],uint256[],bytes)\"))` (i.e. 0xbc197c81, or its own function selector).",
        "params": {
          "data": "Additional data with no specified format",
          "from": "The address which previously owned the token",
          "ids": "An array containing ids of each token being transferred (order and length must match values array)",
          "operator": "The address which initiated the batch transfer (i.e. msg.sender)",
          "values": "An array containing amounts of each token being transferred (order and length must match ids array)"
        },
        "returns": {
          "_0": "`bytes4(keccak256(\"onERC1155BatchReceived(address,address,uint256[],uint256[],bytes)\"))` if transfer is allowed"
        }
      },
      "onERC1155Received(address,address,uint256,uint256,bytes)": {
        "details": "Handles the receipt of a single ERC1155 token type. This function is called at the end of a `safeTransferFrom` after the balance has been updated. NOTE: To accept the transfer, this must return `bytes4(keccak256(\"onERC1155Received(address,address,uint256,uint256,bytes)\"))` (i.e. 0xf23a6e61, or its own function selector).",
        "params": {
          "data": "Additional data with no specified format",
          "from": "The address which previously owned the token",
          "id": "The ID of the token being transferred",
          "operator": "The address which initiated the transfer (i.e. msg.sender)",
          "value": "The amount of tokens being transferred"
        },
        "returns": {
          "_0": "`bytes4(keccak256(\"onERC1155Received(address,address,uint256,uint256,bytes)\"))` if transfer is allowed"
        }
      },
      "removeLiquidity(address,int16,bytes)": {
        "details": "This function is called by the liquidity provider to remove their liquidity from the market.      The liquidity provider must have previously added liquidity to the market.      Throws a `TooSmallAmount` error if the CLB tokne amount of liquidity to be removed is zero.",
        "params": {
          "data": "Additional data for the liquidity callback.",
          "recipient": "The address to receive the removed liquidity.",
          "tradingFeeRate": "The trading fee rate for the liquidity."
        },
        "returns": {
          "receipt": "The liquidity receipt."
        }
      },
      "removeLiquidityBatch(address,int16[],uint256[],bytes)": {
        "details": "Throws an `InvalidTransferredTokenAmount` error if the transferred CLB token amount does not match the expected amount (clbTokenAmounts param).",
        "params": {
          "clbTokenAmounts": "An array of clb token amounts to remove as liquidity for each bin.",
          "data": "Additional data for the liquidity callback.",
          "recipient": "The address to receive the removed liquidity.",
          "tradingFeeRates": "An array of fee rates for each liquidity bin."
        },
        "returns": {
          "receipts": "The liquidity receipt."
        }
      },
      "supportsInterface(bytes4)": {
        "details": "Returns true if this contract implements the interface defined by `interfaceId`. See the corresponding https://eips.ethereum.org/EIPS/eip-165#how-interfaces-are-identified[EIP section] to learn more about how these ids are created. This function call must use less than 30 000 gas."
      },
      "withdrawLiquidity(uint256,bytes)": {
        "details": "Throws a `NotExistLpReceipt` error if the liquidity receipt does not exist.      Throws an `InvalidLpReceiptAction` error if the action of liquidity receipt is not `REMOVE_LIQUIDITY`.      Throws a `NotWithdrawableLpReceipt` error if the liquidity receipt is not withdrawable in the current oracle version.",
        "params": {
          "data": "Additional data for the liquidity callback.",
          "receiptId": "The ID of the liquidity receipt."
        }
      },
      "withdrawLiquidityBatch(uint256[],bytes)": {
        "details": "Throws a `NotExistLpReceipt` error if the liquidity receipt does not exist.      Throws an `InvalidLpReceiptAction` error if the action of liquidity receipt is not `REMOVE_LIQUIDITY`.      Throws a `NotWithdrawableLpReceipt` error if the liquidity receipt is not withdrawable in the current oracle version.",
        "params": {
          "data": "Additional data for the liquidity callback.",
          "receiptIds": "The array of the liquidity receipt IDs."
        }
      }
    },
    "title": "MarketLiquidityFacet",
    "version": 1
  },
  "userdoc": {
    "kind": "user",
    "methods": {
      "addLiquidityBatch(address,int16[],uint256[],bytes)": {
        "notice": "Adds liquidity to multiple liquidity bins of the market in a batch."
      }
    },
    "version": 1
  },
  "storageLayout": {
    "storage": [
      {
        "astId": 3757,
        "contract": "contracts/core/facets/market/MarketLiquidityFacet.sol:MarketLiquidityFacet",
        "label": "_status",
        "offset": 0,
        "slot": "0",
        "type": "t_uint256"
      }
    ],
    "types": {
      "t_uint256": {
        "encoding": "inplace",
        "label": "uint256",
        "numberOfBytes": "32"
      }
    }
  }
}