{
  "address": "0x12Ff9e8DFBb9BaB2117D85eA5Cf79266B5667E1f",
  "abi": [
    {
      "inputs": [],
      "name": "NotExistLpReceipt",
      "type": "error"
    },
    {
      "inputs": [],
      "name": "OnlyAccessableByDao",
      "type": "error"
    },
    {
      "inputs": [],
      "name": "OnlyAccessableByLiquidator",
      "type": "error"
    },
    {
      "inputs": [],
      "name": "OnlyAccessableByVault",
      "type": "error"
    },
    {
      "inputs": [
        {
          "internalType": "int256",
          "name": "value",
          "type": "int256"
        }
      ],
      "name": "UFixed18UnderflowError",
      "type": "error"
    },
    {
      "inputs": [
        {
          "internalType": "int16",
          "name": "tradingFeeRate",
          "type": "int16"
        },
        {
          "internalType": "uint256",
          "name": "oracleVersion",
          "type": "uint256"
        }
      ],
      "name": "claimableLiquidity",
      "outputs": [
        {
          "components": [
            {
              "internalType": "uint256",
              "name": "mintingTokenAmountRequested",
              "type": "uint256"
            },
            {
              "internalType": "uint256",
              "name": "mintingCLBTokenAmount",
              "type": "uint256"
            },
            {
              "internalType": "uint256",
              "name": "burningCLBTokenAmountRequested",
              "type": "uint256"
            },
            {
              "internalType": "uint256",
              "name": "burningCLBTokenAmount",
              "type": "uint256"
            },
            {
              "internalType": "uint256",
              "name": "burningTokenAmount",
              "type": "uint256"
            }
          ],
          "internalType": "struct IMarketLiquidity.ClaimableLiquidity",
          "name": "",
          "type": "tuple"
        }
      ],
      "stateMutability": "view",
      "type": "function"
    },
    {
      "inputs": [
        {
          "internalType": "int16[]",
          "name": "tradingFeeRates",
          "type": "int16[]"
        },
        {
          "internalType": "uint256",
          "name": "oracleVersion",
          "type": "uint256"
        }
      ],
      "name": "claimableLiquidityBatch",
      "outputs": [
        {
          "components": [
            {
              "internalType": "uint256",
              "name": "mintingTokenAmountRequested",
              "type": "uint256"
            },
            {
              "internalType": "uint256",
              "name": "mintingCLBTokenAmount",
              "type": "uint256"
            },
            {
              "internalType": "uint256",
              "name": "burningCLBTokenAmountRequested",
              "type": "uint256"
            },
            {
              "internalType": "uint256",
              "name": "burningCLBTokenAmount",
              "type": "uint256"
            },
            {
              "internalType": "uint256",
              "name": "burningTokenAmount",
              "type": "uint256"
            }
          ],
          "internalType": "struct IMarketLiquidity.ClaimableLiquidity[]",
          "name": "",
          "type": "tuple[]"
        }
      ],
      "stateMutability": "view",
      "type": "function"
    },
    {
      "inputs": [
        {
          "internalType": "int16",
          "name": "tradingFeeRate",
          "type": "int16"
        }
      ],
      "name": "getBinFreeLiquidity",
      "outputs": [
        {
          "internalType": "uint256",
          "name": "amount",
          "type": "uint256"
        }
      ],
      "stateMutability": "view",
      "type": "function"
    },
    {
      "inputs": [
        {
          "internalType": "int16",
          "name": "tradingFeeRate",
          "type": "int16"
        }
      ],
      "name": "getBinLiquidity",
      "outputs": [
        {
          "internalType": "uint256",
          "name": "amount",
          "type": "uint256"
        }
      ],
      "stateMutability": "view",
      "type": "function"
    },
    {
      "inputs": [
        {
          "internalType": "int16[]",
          "name": "tradingFeeRates",
          "type": "int16[]"
        }
      ],
      "name": "getBinValues",
      "outputs": [
        {
          "internalType": "uint256[]",
          "name": "",
          "type": "uint256[]"
        }
      ],
      "stateMutability": "view",
      "type": "function"
    },
    {
      "inputs": [
        {
          "internalType": "uint256",
          "name": "receiptId",
          "type": "uint256"
        }
      ],
      "name": "getLpReceipt",
      "outputs": [
        {
          "components": [
            {
              "internalType": "uint256",
              "name": "id",
              "type": "uint256"
            },
            {
              "internalType": "uint256",
              "name": "oracleVersion",
              "type": "uint256"
            },
            {
              "internalType": "uint256",
              "name": "amount",
              "type": "uint256"
            },
            {
              "internalType": "address",
              "name": "recipient",
              "type": "address"
            },
            {
              "internalType": "enum LpAction",
              "name": "action",
              "type": "uint8"
            },
            {
              "internalType": "int16",
              "name": "tradingFeeRate",
              "type": "int16"
            }
          ],
          "internalType": "struct LpReceipt",
          "name": "receipt",
          "type": "tuple"
        }
      ],
      "stateMutability": "view",
      "type": "function"
    },
    {
      "inputs": [],
      "name": "liquidityBinStatuses",
      "outputs": [
        {
          "components": [
            {
              "internalType": "uint256",
              "name": "liquidity",
              "type": "uint256"
            },
            {
              "internalType": "uint256",
              "name": "freeLiquidity",
              "type": "uint256"
            },
            {
              "internalType": "uint256",
              "name": "binValue",
              "type": "uint256"
            },
            {
              "internalType": "int16",
              "name": "tradingFeeRate",
              "type": "int16"
            }
          ],
          "internalType": "struct IMarketLiquidity.LiquidityBinStatus[]",
          "name": "",
          "type": "tuple[]"
        }
      ],
      "stateMutability": "view",
      "type": "function"
    },
    {
      "inputs": [
        {
          "internalType": "int16",
          "name": "tradingFeeRate",
          "type": "int16"
        }
      ],
      "name": "pendingLiquidity",
      "outputs": [
        {
          "components": [
            {
              "internalType": "uint256",
              "name": "oracleVersion",
              "type": "uint256"
            },
            {
              "internalType": "uint256",
              "name": "mintingTokenAmountRequested",
              "type": "uint256"
            },
            {
              "internalType": "uint256",
              "name": "burningCLBTokenAmountRequested",
              "type": "uint256"
            }
          ],
          "internalType": "struct IMarketLiquidity.PendingLiquidity",
          "name": "",
          "type": "tuple"
        }
      ],
      "stateMutability": "view",
      "type": "function"
    },
    {
      "inputs": [
        {
          "internalType": "int16[]",
          "name": "tradingFeeRates",
          "type": "int16[]"
        }
      ],
      "name": "pendingLiquidityBatch",
      "outputs": [
        {
          "components": [
            {
              "internalType": "uint256",
              "name": "oracleVersion",
              "type": "uint256"
            },
            {
              "internalType": "uint256",
              "name": "mintingTokenAmountRequested",
              "type": "uint256"
            },
            {
              "internalType": "uint256",
              "name": "burningCLBTokenAmountRequested",
              "type": "uint256"
            }
          ],
          "internalType": "struct IMarketLiquidity.PendingLiquidity[]",
          "name": "",
          "type": "tuple[]"
        }
      ],
      "stateMutability": "view",
      "type": "function"
    }
  ],
  "transactionHash": "0x71bd0ab678842be55e76c8c6dfdad093043de8936385418a7da9043c505ab595",
  "args": [],
  "numDeployments": 1,
  "solcInputHash": "71aa124ef77093c5bc3941f8a1b2e694",
  "bytecode": "0x608060405234801561001057600080fd5b506125db806100206000396000f3fe608060405234801561001057600080fd5b50600436106100a35760003560e01c8063837d4b5811610076578063d59e2d231161005b578063d59e2d2314610166578063e691975f14610187578063faf07bf31461019a57600080fd5b8063837d4b5814610126578063b79711e11461014657600080fd5b806338085c3d146100a85780635cefa9fb146100c657806368adaeaa146100e657806370ebd41b14610106575b600080fd5b6100b06101ba565b6040516100bd9190611c61565b60405180910390f35b6100d96100d4366004611ce2565b6101f9565b6040516100bd9190611d0c565b6100f96100f4366004611d91565b61025f565b6040516100bd9190611dd3565b610119610114366004611e35565b610360565b6040516100bd9190611e81565b610139610134366004611eee565b610473565b6040516100bd9190611f09565b610159610154366004611f2a565b6104c1565b6040516100bd9190611f72565b610179610174366004611eee565b6104f3565b6040519081526020016100bd565b610179610195366004611eee565b61051f565b6101ad6101a8366004612086565b61054b565b6040516100bd9190612133565b60607f492a974aed1be5cd7fa4ce3b0cfab809a1de17af5ade68dd0729b36f2ed097936101f36101e98261064d565b60078301906107c2565b91505090565b61022b6040518060a0016040528060008152602001600081526020016000815260200160008152602001600081525090565b6102567f492a974aed1be5cd7fa4ce3b0cfab809a1de17af5ade68dd0729b36f2ed0979a8484610980565b90505b92915050565b606060008267ffffffffffffffff81111561027c5761027c612008565b6040519080825280602002602001820160405280156102d157816020015b6102be60405180606001604052806000815260200160008152602001600081525090565b81526020019060019003908161029a5790505b5090507f492a974aed1be5cd7fa4ce3b0cfab809a1de17af5ade68dd0729b36f2ed0979a60005b84811015610356576103318686838181106103155761031561216b565b905060200201602081019061032a9190611eee565b83906109de565b8382815181106103435761034361216b565b60209081029190910101526001016102f8565b5090949350505050565b606060008367ffffffffffffffff81111561037d5761037d612008565b6040519080825280602002602001820160405280156103e057816020015b6103cd6040518060a0016040528060008152602001600081526020016000815260200160008152602001600081525090565b81526020019060019003908161039b5790505b5090507f492a974aed1be5cd7fa4ce3b0cfab809a1de17af5ade68dd0729b36f2ed0979a60005b85811015610466576104418787838181106104245761042461216b565b90506020020160208101906104399190611eee565b839087610980565b8382815181106104535761045361216b565b6020908102919091010152600101610407565b50909150505b9392505050565b61049760405180606001604052806000815260200160008152602001600081525090565b6102597f492a974aed1be5cd7fa4ce3b0cfab809a1de17af5ade68dd0729b36f2ed0979a836109de565b6104c9611be5565b6102597f02954dff85197d438345422dfe525d02fbd6a12c9028d5d8c7ab5386d347133083610a2e565b60006102597f492a974aed1be5cd7fa4ce3b0cfab809a1de17af5ade68dd0729b36f2ed0979a83610a7e565b60006102597f492a974aed1be5cd7fa4ce3b0cfab809a1de17af5ade68dd0729b36f2ed0979a83610a9e565b60607f492a974aed1be5cd7fa4ce3b0cfab809a1de17af5ade68dd0729b36f2ed097937f492a974aed1be5cd7fa4ce3b0cfab809a1de17af5ade68dd0729b36f2ed0979a600061059a8361064d565b90506000855167ffffffffffffffff8111156105b8576105b8612008565b6040519080825280602002602001820160405280156105e1578160200160208202803683370190505b50905060005b86518110156106435761061e8782815181106106055761060561216b565b60200260200101518486610ab89092919063ffffffff16565b8282815181106106305761063061216b565b60209081029190910101526001016105e7565b5095945050505050565b6106a860408051610100810182526000808252602080830182905282840182905260608084018390526080840183905260a0840183905260c0840183905284519081018552828152908101829052928301529060e082015290565b6106cc60405180606001604052806000815260200160008152602001600081525090565b6040805161010081018252600185015473ffffffffffffffffffffffffffffffffffffffff9081168252855481166020808401919091526005870154821683850152600387015482166060840152306080840152600287015490911660a0830181905283517f313ce5670000000000000000000000000000000000000000000000000000000081529351929360c0850193919263313ce567926004808401938290030181865afa158015610784573d6000803e3d6000fd5b505050506040513d601f19601f820116820180604052508101906107a8919061219a565b6107b390600a61230c565b81526020019190915292915050565b606060006107ce610ace565b905060006107de6024600261231b565b67ffffffffffffffff8111156107f6576107f6612008565b60405190808252806020026020018201604052801561085557816020015b6108426040518060800160405280600081526020016000815260200160008152602001600060010b81525090565b8152602001906001900390816108145790505b50905060005b60248110156109775760008382602481106108785761087861216b565b60200201519050600061088b8883610c0a565b905060006108a18961089c85612332565b610c0a565b905060405180608001604052806108b9846001015490565b81526020016108c784610c67565b81526020016108d6848b610c9a565b81526020018460010b8152508585815181106108f4576108f461216b565b60200260200101819052506040518060800160405280610915836001015490565b815260200161092383610c67565b8152602001610932838b610c9a565b815260200161094085612332565b60010b905285610951602487612370565b815181106109615761096161216b565b602090810291909101015250505060010161085b565b50949350505050565b6109b26040518060a0016040528060008152602001600081526020016000815260200160008152602001600081525090565b826109bc81610dc9565b60006109c88686610c0a565b90506109d48185610e9b565b9695505050505050565b610a0260405180606001604052806000815260200160008152602001600081525090565b81610a0c81610dc9565b6000610a188585610c0a565b9050610a2381610eda565b9250505b5092915050565b610a36611be5565b610a408383610f0a565b8051909150600003610259576040517fc47b348000000000000000000000000000000000000000000000000000000000815260040160405180910390fd5b600080610a8b8484610c0a565b9050610a9681610c67565b949350505050565b600080610aab8484610c0a565b9050610a96816001015490565b6000610a9682610ac88686610c0a565b90610c9a565b610ad6611c42565b50604080516104808101825260018152600260208201526003918101919091526004606082015260056080820152600660a0820152600760c0820152600860e08201526009610100820152600a6101208201526014610140820152601e610160820152602861018082015260326101a0820152603c6101c082015260466101e08201526050610200820152605a610220820152606461024082015260c861026082015261012c6102808201526101906102a08201526101f46102c08201526102586102e08201526102bc610300820152610320808201526103846103408201526103e86103608201526105dc6103808201526107d06103a08201526109c46103c0820152610bb86103e0820152610dac610400820152610fa061042082015261119461044082015261138861046082015290565b6000808260010b12610c3d57826000610c2284610fe1565b61ffff1661ffff168152602001908152602001600020610256565b826001016000610c4c84610fe1565b61ffff16815260208101919091526040016000209392505050565b6000610c7582601501610ffc565b610c818360090161100f565b6001840154610c909190612383565b6102599190612383565b600080610caa6009850184611025565b90506000610cb782611147565b90506000610cc6866001015490565b90506000808412610ce057610cdb8383612370565b610cea565b610cea8383612383565b604080880151608089015160a08a015192517f4e82c4b700000000000000000000000000000000000000000000000000000000815273ffffffffffffffffffffffffffffffffffffffff91821660048201529281166024840152604483018690529293509190911690634e82c4b790606401602060405180830381865afa158015610d79573d6000803e3d6000fd5b505050506040513d601f19601f82011682018060405250810190610d9d9190612396565b610daa601589018861115e565b610db49083612370565b610dbe9190612370565b979650505050505050565b6000610dd3610ace565b90506000610de083610fe1565b90506000610dee8383611181565b9050602481108015610e1d5750828160248110610e0d57610e0d61216b565b602002015161ffff168261ffff16145b6040518060400160405280600481526020017f555446520000000000000000000000000000000000000000000000000000000081525090610e94576040517f08c379a0000000000000000000000000000000000000000000000000000000008152600401610e8b91906123af565b60405180910390fd5b5050505050565b610ecd6040518060a0016040528060008152602001600081526020016000815260200160008152602001600081525090565b610256600184018361123e565b610efe60405180606001604052806000815260200160008152602001600081525090565b610259826001016112f5565b610f12611be5565b600082815260018481016020908152604092839020835160c081018552815481528184015492810192909252600281015493820193909352600383015473ffffffffffffffffffffffffffffffffffffffff81166060830152909291608084019174010000000000000000000000000000000000000000900460ff1690811115610f9e57610f9e611f43565b6001811115610faf57610faf611f43565b8152600391909101547501000000000000000000000000000000000000000000900460010b6020909101529392505050565b6000808260010b12610ff35781610259565b61025982612332565b6005810154815460009161025991612370565b6006810154600282015460009161025991612370565b60008061103183611342565b84549091506000808212611046576001611068565b7fffffffffffffffffffffffffffffffffffffffffffffffffffffffffffffffff5b90506000611075846113f4565b90506000826110878960010154611423565b611091919061241b565b90506000836110a86110a387866114d5565b611423565b6110b2919061241b565b905060006110c08383612467565b905060006110d16110a38c8c6114f4565b6110de60048d018c61150d565b6110e89084612487565b6110f29190612487565b905060006110ff82611147565b90506000821261112e5761111e6110a3826111198f6115d6565b6115ec565b9950505050505050505050610259565b61113e6110a3826111198f61100f565b61111e906124a7565b60008082121561115a5781600003610259565b5090565b600061116d6002840183611602565b611177848461161b565b6102569190612370565b60008060245b808210156111df57600061119b8383611631565b90508461ffff168682602481106111b4576111b461216b565b602002015161ffff1611156111cb578091506111d9565b6111d6816001612370565b92505b50611187565b8115801590611215575061ffff8416856111fa600185612383565b6024811061120a5761120a61216b565b602002015161ffff16145b1561122e57611225600183612383565b92505050610259565b509050610259565b505092915050565b6112706040518060a0016040528060008152602001600081526020016000815260200160008152602001600081525090565b5060008181526004830160209081526040808320815180830183528154815260019182015481850190815295855260059096018352928190208151606080820184528254825294820154818501908152600290920154818401908152835160a08101855297518852955193870193909352915190850152519083015251608082015290565b61131960405180606001604052806000815260200160008152602001600081525090565b506040805160608101825260018301548152600283015460208201526003909201549082015290565b61136660405180606001604052806000815260200160008152602001600081525090565b60e0820151516000036113ec57816000015173ffffffffffffffffffffffffffffffffffffffff16639d888e866040518163ffffffff1660e01b8152600401606060405180830381865afa1580156113c2573d6000803e3d6000fd5b505050506040513d601f19601f820116820180604052508101906113e691906124df565b60e08301525b5060e0015190565b600080611404836040015161164c565b1261141b57611416826040015161168e565b610259565b600092915050565b60007f7fffffffffffffffffffffffffffffffffffffffffffffffffffffffffffffff82111561115a576040517f08c379a000000000000000000000000000000000000000000000000000000000815260206004820152602860248201527f53616665436173743a2076616c756520646f65736e27742066697420696e206160448201527f6e20696e743235360000000000000000000000000000000000000000000000006064820152608401610e8b565b600061025682670de0b6b3a76400006114ed86611147565b91906116ce565b600282015460009061025690600a8501908490426117f8565b815460009061151c8382611837565b61152a576000915050610259565b600061153584611342565b9050600061155085600001518461154b88611342565b611856565b9050600061155d836113f4565b9050600061156e6110a38989611982565b61157d8960010154858561199b565b6115879190612487565b9050600061159482611147565b9050600082126115bc576115af6110a3828b600301546115ec565b9650505050505050610259565b6115cd6110a3828b600201546115ec565b6115af906124a7565b6007810154600382015460009161025991612370565b60008183106115fb5781610256565b5090919050565b60038201546000906102569060058501908490426117f8565b815460009061025690600c8501908490426117f8565b6000611640600284841861256a565b61025690848416612370565b60008082131561165e57506001919050565b600082121561141b57507fffffffffffffffffffffffffffffffffffffffffffffffffffffffffffffffff919050565b60008181811215610259576040517f501f289e00000000000000000000000000000000000000000000000000000000815260048101829052602401610e8b565b600080807fffffffffffffffffffffffffffffffffffffffffffffffffffffffffffffffff858709858702925082811083820303915050806000036117265783828161171c5761171c61253b565b049250505061046c565b80841161178f576040517f08c379a000000000000000000000000000000000000000000000000000000000815260206004820152601560248201527f4d6174683a206d756c446976206f766572666c6f7700000000000000000000006044820152606401610e8b565b60008486880960026001871981018816978890046003810283188082028403028082028403028082028403028082028403028082028403029081029092039091026000889003889004909101858311909403939093029303949094049190911702949350505050565b60008260000361180a57506000610a96565b84546001860154818411611821579150610a969050565b61182d86868487611a40565b610dbe9082612370565b60008115801590610256575061184c83611342565b5190911092915050565b60008061186284611b13565b835160408051808201909152600381527f555350000000000000000000000000000000000000000000000000000000000060208201529192508211156118d5576040517f08c379a0000000000000000000000000000000000000000000000000000000008152600401610e8b91906123af565b5082516000908214611975576040517f7ece075d0000000000000000000000000000000000000000000000000000000081526004810183905273ffffffffffffffffffffffffffffffffffffffff871690637ece075d90602401606060405180830381865afa15801561194c573d6000803e3d6000fd5b505050506040513d601f19601f8201168201806040525081019061197091906124df565b611977565b835b90506109d4816113f4565b60028201546000906102569060048501908490426117f8565b6000806119a88385611b8e565b6119c7576119b96110a38585611ba4565b6119c2906124a7565b6119d4565b6119d46110a38486611ba4565b90506000851215611a0c57611a097fffffffffffffffffffffffffffffffffffffffffffffffffffffffffffffffff8261241b565b90505b6000611a276110a3611a1d84611147565b876114ed8a611147565b905060008212611a3757806109d4565b6109d4816124a7565b6000831580611a4f5750818310155b611b0757602085015160a08601516040517f705b170e00000000000000000000000000000000000000000000000000000000815273ffffffffffffffffffffffffffffffffffffffff918216600482015260248101879052604481018690526064810185905291169063705b170e90608401602060405180830381865afa158015611ade573d6000803e3d6000fd5b505050506040513d601f19601f82011682018060405250810190611b029190612396565b611b0a565b60005b95945050505050565b60408051808201909152600381527f494f560000000000000000000000000000000000000000000000000000000000602082015260009082611b82576040517f08c379a0000000000000000000000000000000000000000000000000000000008152600401610e8b91906123af565b50610259826001612370565b6000611b9a8383611bb0565b6002149392505050565b60006102568284612383565b6000828280821115611bc757600292505050610259565b80821015611bda57600092505050610259565b506001949350505050565b6040518060c00160405280600081526020016000815260200160008152602001600073ffffffffffffffffffffffffffffffffffffffff16815260200160006001811115611c3557611c35611f43565b8152600060209091015290565b6040518061048001604052806024906020820280368337509192915050565b602080825282518282018190526000919060409081850190868401855b82811015611cbe5781518051855286810151878601528581015186860152606090810151600190810b918601919091526080909401939186019101611c7e565b5091979650505050505050565b8035600181900b8114611cdd57600080fd5b919050565b60008060408385031215611cf557600080fd5b611cfe83611ccb565b946020939093013593505050565b60a08101610259828480518252602081015160208301526040810151604083015260608101516060830152608081015160808301525050565b60008083601f840112611d5757600080fd5b50813567ffffffffffffffff811115611d6f57600080fd5b6020830191508360208260051b8501011115611d8a57600080fd5b9250929050565b60008060208385031215611da457600080fd5b823567ffffffffffffffff811115611dbb57600080fd5b611dc785828601611d45565b90969095509350505050565b6020808252825182820181905260009190848201906040850190845b81811015611e2957611e168385518051825260208082015190830152604090810151910152565b9284019260609290920191600101611def565b50909695505050505050565b600080600060408486031215611e4a57600080fd5b833567ffffffffffffffff811115611e6157600080fd5b611e6d86828701611d45565b909790965060209590950135949350505050565b6020808252825182820181905260009190848201906040850190845b81811015611e2957611edb83855180518252602081015160208301526040810151604083015260608101516060830152608081015160808301525050565b9284019260a09290920191600101611e9d565b600060208284031215611f0057600080fd5b61025682611ccb565b81518152602080830151908201526040808301519082015260608101610259565b600060208284031215611f3c57600080fd5b5035919050565b7f4e487b7100000000000000000000000000000000000000000000000000000000600052602160045260246000fd5b600060c08201905082518252602083015160208301526040830151604083015273ffffffffffffffffffffffffffffffffffffffff6060840151166060830152608083015160028110611fee577f4e487b7100000000000000000000000000000000000000000000000000000000600052602160045260246000fd5b8060808401525060a083015160010b60a083015292915050565b7f4e487b7100000000000000000000000000000000000000000000000000000000600052604160045260246000fd5b604051601f82017fffffffffffffffffffffffffffffffffffffffffffffffffffffffffffffffe016810167ffffffffffffffff8111828210171561207e5761207e612008565b604052919050565b6000602080838503121561209957600080fd5b823567ffffffffffffffff808211156120b157600080fd5b818501915085601f8301126120c557600080fd5b8135818111156120d7576120d7612008565b8060051b91506120e8848301612037565b818152918301840191848101908884111561210257600080fd5b938501935b838510156121275761211885611ccb565b82529385019390850190612107565b98975050505050505050565b6020808252825182820181905260009190848201906040850190845b81811015611e295783518352928401929184019160010161214f565b7f4e487b7100000000000000000000000000000000000000000000000000000000600052603260045260246000fd5b6000602082840312156121ac57600080fd5b815160ff8116811461046c57600080fd5b7f4e487b7100000000000000000000000000000000000000000000000000000000600052601160045260246000fd5b600181815b8085111561224557817fffffffffffffffffffffffffffffffffffffffffffffffffffffffffffffffff0482111561222b5761222b6121bd565b8085161561223857918102915b93841c93908002906121f1565b509250929050565b60008261225c57506001610259565b8161226957506000610259565b816001811461227f5760028114612289576122a5565b6001915050610259565b60ff84111561229a5761229a6121bd565b50506001821b610259565b5060208310610133831016604e8410600b84101617156122c8575081810a610259565b6122d283836121ec565b807fffffffffffffffffffffffffffffffffffffffffffffffffffffffffffffffff04821115612304576123046121bd565b029392505050565b600061025660ff84168361224d565b8082028115828204841417610259576102596121bd565b60008160010b7fffffffffffffffffffffffffffffffffffffffffffffffffffffffffffff80008103612367576123676121bd565b60000392915050565b80820180821115610259576102596121bd565b81810381811115610259576102596121bd565b6000602082840312156123a857600080fd5b5051919050565b600060208083528351808285015260005b818110156123dc578581018301518582016040015282016123c0565b5060006040828601015260407fffffffffffffffffffffffffffffffffffffffffffffffffffffffffffffffe0601f8301168501019250505092915050565b808202600082127f800000000000000000000000000000000000000000000000000000000000000084141615612453576124536121bd565b8181058314821517610259576102596121bd565b8181036000831280158383131683831282161715610a2757610a276121bd565b8082018281126000831280158216821582161715611236576112366121bd565b60007f800000000000000000000000000000000000000000000000000000000000000082036124d8576124d86121bd565b5060000390565b6000606082840312156124f157600080fd5b6040516060810181811067ffffffffffffffff8211171561251457612514612008565b80604052508251815260208301516020820152604083015160408201528091505092915050565b7f4e487b7100000000000000000000000000000000000000000000000000000000600052601260045260246000fd5b6000826125a0577f4e487b7100000000000000000000000000000000000000000000000000000000600052601260045260246000fd5b50049056fea2646970667358221220e8f23dbbcf79cbd468a08ace4aca0d4f0778f73d324dfbaadad3b05ce897a29764736f6c63430008130033",
  "devdoc": {
    "details": "Contract for liquidity information retrieval in a market.",
    "errors": {
      "NotExistLpReceipt()": [
        {
          "details": "Throws an error indicating that the specified liquidity receipt does not exist."
        }
      ],
      "OnlyAccessableByDao()": [
        {
          "details": "Throws an error indicating that the caller is not the DAO."
        }
      ],
      "OnlyAccessableByLiquidator()": [
        {
          "details": "Throws an error indicating that the caller is not the chromatic liquidator contract."
        }
      ],
      "OnlyAccessableByVault()": [
        {
          "details": "Throws an error indicating that the caller is not the chromatch vault contract."
        }
      ]
    },
    "kind": "dev",
    "methods": {
      "claimableLiquidity(int16,uint256)": {
        "details": "Retrieves the claimable liquidity information for a specific trading fee rate and oracle version from the associated LiquidityPool.",
        "params": {
          "oracleVersion": "The oracle version for which to retrieve the claimable liquidity.",
          "tradingFeeRate": "The trading fee rate for which to retrieve the claimable liquidity."
        },
        "returns": {
          "_0": "claimableLiquidity An instance of ClaimableLiquidity representing the claimable liquidity information."
        }
      },
      "claimableLiquidityBatch(int16[],uint256)": {
        "details": "Retrieves the claimable liquidity information for multiple trading fee rates and a specific oracle version from the associated LiquidityPool.",
        "params": {
          "oracleVersion": "The oracle version for which to retrieve the claimable liquidity.",
          "tradingFeeRates": "The list of trading fee rates for which to retrieve the claimable liquidity."
        },
        "returns": {
          "_0": "claimableLiquidityBatch An array of ClaimableLiquidity instances representing the claimable liquidity information for each trading fee rate."
        }
      },
      "getBinFreeLiquidity(int16)": {
        "details": "Retrieves the available (free) liquidity amount for a specific trading fee rate in the liquidity pool.",
        "params": {
          "tradingFeeRate": "The trading fee rate for which to retrieve the available liquidity amount."
        },
        "returns": {
          "amount": "The available (free) liquidity amount for the specified trading fee rate."
        }
      },
      "getBinLiquidity(int16)": {
        "details": "Retrieves the total liquidity amount for a specific trading fee rate in the liquidity pool.",
        "params": {
          "tradingFeeRate": "The trading fee rate for which to retrieve the liquidity amount."
        },
        "returns": {
          "amount": "The total liquidity amount for the specified trading fee rate."
        }
      },
      "getBinValues(int16[])": {
        "details": "Retrieves the values of a specific trading fee rate's bins in the liquidity pool.      The value of a bin represents the total valuation of the liquidity in the bin.",
        "params": {
          "tradingFeeRates": "The list of trading fee rate for which to retrieve the bin value."
        },
        "returns": {
          "_0": "The value list of the bins for the specified trading fee rates."
        }
      },
      "getLpReceipt(uint256)": {
        "details": "Throws a `NotExistLpReceipt` error if the liquidity receipt does not exist.",
        "params": {
          "receiptId": "The ID of the liquidity receipt to retrieve."
        },
        "returns": {
          "receipt": "The liquidity receipt with the specified ID."
        }
      },
      "liquidityBinStatuses()": {
        "details": "Retrieves the liquidity bin statuses for the caller's liquidity pool.",
        "returns": {
          "_0": "statuses An array of LiquidityBinStatus representing the liquidity bin statuses."
        }
      },
      "pendingLiquidity(int16)": {
        "details": "Retrieves the pending liquidity information for a specific trading fee rate from the associated LiquidityPool.",
        "params": {
          "tradingFeeRate": "The trading fee rate for which to retrieve the pending liquidity."
        },
        "returns": {
          "_0": "pendingLiquidity An instance of PendingLiquidity representing the pending liquidity information."
        }
      },
      "pendingLiquidityBatch(int16[])": {
        "details": "Retrieves the pending liquidity information for multiple trading fee rates from the associated LiquidityPool.",
        "params": {
          "tradingFeeRates": "The list of trading fee rates for which to retrieve the pending liquidity."
        },
        "returns": {
          "_0": "pendingLiquidityBatch An array of PendingLiquidity instances representing the pending liquidity information for each trading fee rate."
        }
      }
    },
    "title": "MarketLiquidityLensFacet",
    "version": 1
  },
  "userdoc": {
    "kind": "user",
    "methods": {},
    "version": 1
  },
  "storageLayout": {
    "storage": [],
    "types": null
  }
}